{
    "contractName": "HelloWorld",
    "abi": [
        {
            "inputs": [],
            "name": "sayHelloWorld",
            "outputs": [
                {
                    "internalType": "string",
                    "name": "",
                    "type": "string"
                }
            ],
            "stateMutability": "pure",
            "type": "function"
        }
    ],
    "bytecode": "608060405234801561001057600080fd5b5060e38061001f6000396000f3fe6080604052348015600f57600080fd5b506004361060285760003560e01c806345773e4e14602d575b600080fd5b604080518082018252600b81526a12195b1b1bc815dbdc9b1960aa1b60208201529051605891906061565b60405180910390f35b600060208083528351808285015260005b81811015608c578581018301518582016040015282016072565b506000604082860101526040601f19601f830116850101925050509291505056fea2646970667358221220ee443bdd9b17a4a9b9338eea8f7397ade9af9411ee21c1d60dfec28a9e9b90a864736f6c63430008110033",
    "sourcePath": "g:/My Drive/personal/DaughtersOfArya/code/DoA/HelloWorld.sol",
    "compiler": {
        "name": "solc",
        "version": "0.8.17+commit.8df45f5f"
    },
    "functionHashes": {
        "sayHelloWorld()": "45773e4e"
    },
    "gasEstimates": {
        "creation": {
            "codeDepositCost": "45400",
            "executionCost": "99",
            "totalCost": "45499"
        },
        "external": {
            "sayHelloWorld()": "infinite"
        }
    }
}