{
	"DoAConstants.sol": {
		"DoAConstants": {
			"abi": [
				{
					"inputs": [],
					"name": "BASE_COMMON_URI",
					"outputs": [
						{
							"internalType": "string",
							"name": "",
							"type": "string"
						}
					],
					"stateMutability": "view",
					"type": "function"
				},
				{
					"inputs": [],
					"name": "BASE_HERO_URI",
					"outputs": [
						{
							"internalType": "string",
							"name": "",
							"type": "string"
						}
					],
					"stateMutability": "view",
					"type": "function"
				},
				{
					"inputs": [],
					"name": "BASE_LEGEND_URI",
					"outputs": [
						{
							"internalType": "string",
							"name": "",
							"type": "string"
						}
					],
					"stateMutability": "view",
					"type": "function"
				},
				{
					"inputs": [],
					"name": "BASE_RARE_URI",
					"outputs": [
						{
							"internalType": "string",
							"name": "",
							"type": "string"
						}
					],
					"stateMutability": "view",
					"type": "function"
				},
				{
					"inputs": [],
					"name": "BASE_UNCOMMON_URI",
					"outputs": [
						{
							"internalType": "string",
							"name": "",
							"type": "string"
						}
					],
					"stateMutability": "view",
					"type": "function"
				},
				{
					"inputs": [],
					"name": "BASE_URI",
					"outputs": [
						{
							"internalType": "string",
							"name": "",
							"type": "string"
						}
					],
					"stateMutability": "view",
					"type": "function"
				},
				{
					"inputs": [],
					"name": "COMMON_NFT_PRICE",
					"outputs": [
						{
							"internalType": "uint256",
							"name": "",
							"type": "uint256"
						}
					],
					"stateMutability": "view",
					"type": "function"
				},
				{
					"inputs": [],
					"name": "COMMON_NFT_START_INDEX",
					"outputs": [
						{
							"internalType": "uint16",
							"name": "",
							"type": "uint16"
						}
					],
					"stateMutability": "view",
					"type": "function"
				},
				{
					"inputs": [],
					"name": "COMMON_NFT_SUPPLY_1st",
					"outputs": [
						{
							"internalType": "uint16",
							"name": "",
							"type": "uint16"
						}
					],
					"stateMutability": "view",
					"type": "function"
				},
				{
					"inputs": [],
					"name": "COMMON_NFT_SUPPLY_2nd",
					"outputs": [
						{
							"internalType": "uint16",
							"name": "",
							"type": "uint16"
						}
					],
					"stateMutability": "view",
					"type": "function"
				},
				{
					"inputs": [],
					"name": "COMMON_NFT_SUPPLY_3rd",
					"outputs": [
						{
							"internalType": "uint16",
							"name": "",
							"type": "uint16"
						}
					],
					"stateMutability": "view",
					"type": "function"
				},
				{
					"inputs": [],
					"name": "HERO_NFT_START_INDEX",
					"outputs": [
						{
							"internalType": "uint16",
							"name": "",
							"type": "uint16"
						}
					],
					"stateMutability": "view",
					"type": "function"
				},
				{
					"inputs": [],
					"name": "HERO_NFT_SUPPLY_1st",
					"outputs": [
						{
							"internalType": "uint16",
							"name": "",
							"type": "uint16"
						}
					],
					"stateMutability": "view",
					"type": "function"
				},
				{
					"inputs": [],
					"name": "HERO_NFT_SUPPLY_2nd",
					"outputs": [
						{
							"internalType": "uint16",
							"name": "",
							"type": "uint16"
						}
					],
					"stateMutability": "view",
					"type": "function"
				},
				{
					"inputs": [],
					"name": "HERO_NFT_SUPPLY_3rd",
					"outputs": [
						{
							"internalType": "uint16",
							"name": "",
							"type": "uint16"
						}
					],
					"stateMutability": "view",
					"type": "function"
				},
				{
					"inputs": [],
					"name": "LEGEND_NFT_PRICE",
					"outputs": [
						{
							"internalType": "uint256",
							"name": "",
							"type": "uint256"
						}
					],
					"stateMutability": "view",
					"type": "function"
				},
				{
					"inputs": [],
					"name": "LEGEND_NFT_START_INDEX",
					"outputs": [
						{
							"internalType": "uint16",
							"name": "",
							"type": "uint16"
						}
					],
					"stateMutability": "view",
					"type": "function"
				},
				{
					"inputs": [],
					"name": "LEGEND_NFT_SUPPLY_1st",
					"outputs": [
						{
							"internalType": "uint16",
							"name": "",
							"type": "uint16"
						}
					],
					"stateMutability": "view",
					"type": "function"
				},
				{
					"inputs": [],
					"name": "LEGEND_NFT_SUPPLY_2nd",
					"outputs": [
						{
							"internalType": "uint16",
							"name": "",
							"type": "uint16"
						}
					],
					"stateMutability": "view",
					"type": "function"
				},
				{
					"inputs": [],
					"name": "LEGEND_NFT_SUPPLY_3rd",
					"outputs": [
						{
							"internalType": "uint16",
							"name": "",
							"type": "uint16"
						}
					],
					"stateMutability": "view",
					"type": "function"
				},
				{
					"inputs": [],
					"name": "NFT_SUPPLY_1st",
					"outputs": [
						{
							"internalType": "uint16",
							"name": "",
							"type": "uint16"
						}
					],
					"stateMutability": "view",
					"type": "function"
				},
				{
					"inputs": [],
					"name": "NFT_SUPPLY_2nd",
					"outputs": [
						{
							"internalType": "uint16",
							"name": "",
							"type": "uint16"
						}
					],
					"stateMutability": "view",
					"type": "function"
				},
				{
					"inputs": [],
					"name": "NFT_SUPPLY_3rd",
					"outputs": [
						{
							"internalType": "uint16",
							"name": "",
							"type": "uint16"
						}
					],
					"stateMutability": "view",
					"type": "function"
				},
				{
					"inputs": [],
					"name": "PUBLIC_FUND_PERCENTAGE",
					"outputs": [
						{
							"internalType": "uint8",
							"name": "",
							"type": "uint8"
						}
					],
					"stateMutability": "view",
					"type": "function"
				},
				{
					"inputs": [],
					"name": "RARE_NFT_PRICE",
					"outputs": [
						{
							"internalType": "uint256",
							"name": "",
							"type": "uint256"
						}
					],
					"stateMutability": "view",
					"type": "function"
				},
				{
					"inputs": [],
					"name": "RARE_NFT_START_INDEX",
					"outputs": [
						{
							"internalType": "uint16",
							"name": "",
							"type": "uint16"
						}
					],
					"stateMutability": "view",
					"type": "function"
				},
				{
					"inputs": [],
					"name": "RARE_NFT_SUPPLY_1st",
					"outputs": [
						{
							"internalType": "uint16",
							"name": "",
							"type": "uint16"
						}
					],
					"stateMutability": "view",
					"type": "function"
				},
				{
					"inputs": [],
					"name": "RARE_NFT_SUPPLY_2nd",
					"outputs": [
						{
							"internalType": "uint16",
							"name": "",
							"type": "uint16"
						}
					],
					"stateMutability": "view",
					"type": "function"
				},
				{
					"inputs": [],
					"name": "RARE_NFT_SUPPLY_3rd",
					"outputs": [
						{
							"internalType": "uint16",
							"name": "",
							"type": "uint16"
						}
					],
					"stateMutability": "view",
					"type": "function"
				},
				{
					"inputs": [],
					"name": "UNCOMMON_NFT_PRICE",
					"outputs": [
						{
							"internalType": "uint256",
							"name": "",
							"type": "uint256"
						}
					],
					"stateMutability": "view",
					"type": "function"
				},
				{
					"inputs": [],
					"name": "UNCOMMON_NFT_START_INDEX",
					"outputs": [
						{
							"internalType": "uint16",
							"name": "",
							"type": "uint16"
						}
					],
					"stateMutability": "view",
					"type": "function"
				},
				{
					"inputs": [],
					"name": "UNCOMMON_NFT_SUPPLY_1st",
					"outputs": [
						{
							"internalType": "uint16",
							"name": "",
							"type": "uint16"
						}
					],
					"stateMutability": "view",
					"type": "function"
				},
				{
					"inputs": [],
					"name": "UNCOMMON_NFT_SUPPLY_2nd",
					"outputs": [
						{
							"internalType": "uint16",
							"name": "",
							"type": "uint16"
						}
					],
					"stateMutability": "view",
					"type": "function"
				},
				{
					"inputs": [],
					"name": "UNCOMMON_NFT_SUPPLY_3rd",
					"outputs": [
						{
							"internalType": "uint16",
							"name": "",
							"type": "uint16"
						}
					],
					"stateMutability": "view",
					"type": "function"
				},
				{
					"inputs": [
						{
							"internalType": "uint256",
							"name": "tokenId",
							"type": "uint256"
						}
					],
					"name": "getClassForTokenId",
					"outputs": [
						{
							"internalType": "enum NFT_CLASS",
							"name": "tokenClass",
							"type": "NFT_CLASS"
						}
					],
					"stateMutability": "pure",
					"type": "function"
				},
				{
					"inputs": [
						{
							"internalType": "enum NFT_CLASS",
							"name": "nftClass",
							"type": "NFT_CLASS"
						}
					],
					"name": "getClassName",
					"outputs": [
						{
							"internalType": "string",
							"name": "tokenClassName",
							"type": "string"
						}
					],
					"stateMutability": "pure",
					"type": "function"
				},
				{
					"inputs": [
						{
							"internalType": "enum NFT_CLASS",
							"name": "nftClass",
							"type": "NFT_CLASS"
						}
					],
					"name": "getClassPrice",
					"outputs": [
						{
							"internalType": "uint256",
							"name": "classNFTPrice",
							"type": "uint256"
						}
					],
					"stateMutability": "pure",
					"type": "function"
				},
				{
					"inputs": [
						{
							"internalType": "uint256",
							"name": "tokenId",
							"type": "uint256"
						}
					],
					"name": "testClassForTokenId",
					"outputs": [
						{
							"internalType": "string",
							"name": "className",
							"type": "string"
						}
					],
					"stateMutability": "pure",
					"type": "function"
				}
			],
			"devdoc": {
				"kind": "dev",
				"methods": {},
				"version": 1
			},
			"evm": {
				"assembly": "    /* \"DoAConstants.sol\":503:6072  library DoAConstants {... */\n  dataSize(sub_0)\n  dataOffset(sub_0)\n  0x0b\n  dup3\n  dup3\n  dup3\n  codecopy\n  dup1\n  mload\n  0x00\n  byte\n  0x73\n  eq\n  tag_1\n  jumpi\n  mstore(0x00, 0x4e487b7100000000000000000000000000000000000000000000000000000000)\n  mstore(0x04, 0x00)\n  revert(0x00, 0x24)\ntag_1:\n  mstore(0x00, address)\n  0x73\n  dup2\n  mstore8\n  dup3\n  dup2\n  return\nstop\n\nsub_0: assembly {\n        /* \"DoAConstants.sol\":503:6072  library DoAConstants {... */\n      eq(address, deployTimeAddress())\n      mstore(0x40, 0x80)\n      jumpi(tag_1, lt(calldatasize, 0x04))\n      shr(0xe0, calldataload(0x00))\n      dup1\n      0x9ee58048\n      gt\n      tag_40\n      jumpi\n      dup1\n      0xca45f599\n      gt\n      tag_41\n      jumpi\n      dup1\n      0xed944cb6\n      gt\n      tag_42\n      jumpi\n      dup1\n      0xed944cb6\n      eq\n      tag_35\n      jumpi\n      dup1\n      0xeda14323\n      eq\n      tag_36\n      jumpi\n      dup1\n      0xf41dc7d2\n      eq\n      tag_37\n      jumpi\n      dup1\n      0xf59528d2\n      eq\n      tag_38\n      jumpi\n      dup1\n      0xfd642870\n      eq\n      tag_39\n      jumpi\n      jump(tag_1)\n    tag_42:\n      dup1\n      0xca45f599\n      eq\n      tag_30\n      jumpi\n      dup1\n      0xcb937d2b\n      eq\n      tag_31\n      jumpi\n      dup1\n      0xcfc2abb7\n      eq\n      tag_32\n      jumpi\n      dup1\n      0xdbddb26a\n      eq\n      tag_33\n      jumpi\n      dup1\n      0xe93e980b\n      eq\n      tag_34\n      jumpi\n      jump(tag_1)\n    tag_41:\n      dup1\n      0xbe8ca905\n      gt\n      tag_43\n      jumpi\n      dup1\n      0xbe8ca905\n      eq\n      tag_25\n      jumpi\n      dup1\n      0xbeb9e75e\n      eq\n      tag_26\n      jumpi\n      dup1\n      0xbf0832ae\n      eq\n      tag_27\n      jumpi\n      dup1\n      0xc244e88b\n      eq\n      tag_28\n      jumpi\n      dup1\n      0xc525c0c8\n      eq\n      tag_29\n      jumpi\n      jump(tag_1)\n    tag_43:\n      dup1\n      0x9ee58048\n      eq\n      tag_21\n      jumpi\n      dup1\n      0xa1bd4a07\n      eq\n      tag_22\n      jumpi\n      dup1\n      0xa1d2002d\n      eq\n      tag_23\n      jumpi\n      dup1\n      0xa83179db\n      eq\n      tag_24\n      jumpi\n      jump(tag_1)\n    tag_40:\n      dup1\n      0x5e28c936\n      gt\n      tag_44\n      jumpi\n      dup1\n      0x828d481b\n      gt\n      tag_45\n      jumpi\n      dup1\n      0x828d481b\n      eq\n      tag_16\n      jumpi\n      dup1\n      0x8d1da411\n      eq\n      tag_17\n      jumpi\n      dup1\n      0x8f5236e5\n      eq\n      tag_18\n      jumpi\n      dup1\n      0x970f6e2f\n      eq\n      tag_19\n      jumpi\n      dup1\n      0x971cba96\n      eq\n      tag_20\n      jumpi\n      jump(tag_1)\n    tag_45:\n      dup1\n      0x5e28c936\n      eq\n      tag_11\n      jumpi\n      dup1\n      0x6871d79f\n      eq\n      tag_12\n      jumpi\n      dup1\n      0x6b606f0f\n      eq\n      tag_13\n      jumpi\n      dup1\n      0x6e2f5a5f\n      eq\n      tag_14\n      jumpi\n      dup1\n      0x811d5c6c\n      eq\n      tag_15\n      jumpi\n      jump(tag_1)\n    tag_44:\n      dup1\n      0x32a41506\n      gt\n      tag_46\n      jumpi\n      dup1\n      0x32a41506\n      eq\n      tag_6\n      jumpi\n      dup1\n      0x38d79b52\n      eq\n      tag_7\n      jumpi\n      dup1\n      0x4e2ecca1\n      eq\n      tag_8\n      jumpi\n      dup1\n      0x58a0d923\n      eq\n      tag_9\n      jumpi\n      dup1\n      0x5e09346a\n      eq\n      tag_10\n      jumpi\n      jump(tag_1)\n    tag_46:\n      dup1\n      0x10a309f3\n      eq\n      tag_2\n      jumpi\n      dup1\n      0x11f47eb5\n      eq\n      tag_3\n      jumpi\n      dup1\n      0x1ab7730c\n      eq\n      tag_4\n      jumpi\n      dup1\n      0x1eb1a2d3\n      eq\n      tag_5\n      jumpi\n    tag_1:\n      0x00\n      dup1\n      revert\n        /* \"DoAConstants.sol\":2216:2265  uint16 public constant RARE_NFT_START_INDEX = 126 */\n    tag_2:\n      tag_47\n      tag_48\n      jump\t// in\n    tag_47:\n      mload(0x40)\n      tag_49\n      swap2\n      swap1\n      tag_50\n      jump\t// in\n    tag_49:\n      mload(0x40)\n      dup1\n      swap2\n      sub\n      swap1\n      return\n        /* \"DoAConstants.sol\":2271:2324  uint16 public constant UNCOMMON_NFT_START_INDEX = 627 */\n    tag_3:\n      tag_51\n      tag_52\n      jump\t// in\n    tag_51:\n      mload(0x40)\n      tag_53\n      swap2\n      swap1\n      tag_50\n      jump\t// in\n    tag_53:\n      mload(0x40)\n      dup1\n      swap2\n      sub\n      swap1\n      return\n        /* \"DoAConstants.sol\":1753:1797  uint16 public constant NFT_SUPPLY_2nd = 1560 */\n    tag_4:\n      tag_54\n      tag_55\n      jump\t// in\n    tag_54:\n      mload(0x40)\n      tag_56\n      swap2\n      swap1\n      tag_50\n      jump\t// in\n    tag_56:\n      mload(0x40)\n      dup1\n      swap2\n      sub\n      swap1\n      return\n        /* \"DoAConstants.sol\":3185:3244  string public constant BASE_LEGEND_URI = \"/legend/metadata\" */\n    tag_5:\n      tag_57\n      tag_58\n      jump\t// in\n    tag_57:\n      mload(0x40)\n      tag_59\n      swap2\n      swap1\n      tag_60\n      jump\t// in\n    tag_59:\n      mload(0x40)\n      dup1\n      swap2\n      sub\n      swap1\n      return\n        /* \"DoAConstants.sol\":1704:1747  uint16 public constant NFT_SUPPLY_1st = 181 */\n    tag_6:\n      tag_61\n      tag_62\n      jump\t// in\n    tag_61:\n      mload(0x40)\n      tag_63\n      swap2\n      swap1\n      tag_50\n      jump\t// in\n    tag_63:\n      mload(0x40)\n      dup1\n      swap2\n      sub\n      swap1\n      return\n        /* \"DoAConstants.sol\":1140:1189  uint16 public constant LEGEND_NFT_SUPPLY_2nd = 10 */\n    tag_7:\n      tag_64\n      tag_65\n      jump\t// in\n    tag_64:\n      mload(0x40)\n      tag_66\n      swap2\n      swap1\n      tag_50\n      jump\t// in\n    tag_66:\n      mload(0x40)\n      dup1\n      swap2\n      sub\n      swap1\n      return\n        /* \"DoAConstants.sol\":2590:2643  uint256 public constant LEGEND_NFT_PRICE = 1.64 ether */\n    tag_8:\n      tag_67\n      tag_68\n      jump\t// in\n    tag_67:\n      mload(0x40)\n      tag_69\n      swap2\n      swap1\n      tag_70\n      jump\t// in\n    tag_69:\n      mload(0x40)\n      dup1\n      swap2\n      sub\n      swap1\n      return\n        /* \"DoAConstants.sol\":2107:2154  uint16 public constant HERO_NFT_START_INDEX = 0 */\n    tag_9:\n      tag_71\n      tag_72\n      jump\t// in\n    tag_71:\n      mload(0x40)\n      tag_73\n      swap2\n      swap1\n      tag_50\n      jump\t// in\n    tag_73:\n      mload(0x40)\n      dup1\n      swap2\n      sub\n      swap1\n      return\n        /* \"DoAConstants.sol\":1195:1242  uint16 public constant RARE_NFT_SUPPLY_2nd = 50 */\n    tag_10:\n      tag_74\n      tag_75\n      jump\t// in\n    tag_74:\n      mload(0x40)\n      tag_76\n      swap2\n      swap1\n      tag_50\n      jump\t// in\n    tag_76:\n      mload(0x40)\n      dup1\n      swap2\n      sub\n      swap1\n      return\n        /* \"DoAConstants.sol\":940:991  uint16 public constant UNCOMMON_NFT_SUPPLY_1st = 25 */\n    tag_11:\n      tag_77\n      tag_78\n      jump\t// in\n    tag_77:\n      mload(0x40)\n      tag_79\n      swap2\n      swap1\n      tag_50\n      jump\t// in\n    tag_79:\n      mload(0x40)\n      dup1\n      swap2\n      sub\n      swap1\n      return\n        /* \"DoAConstants.sol\":3311:3374  string public constant BASE_UNCOMMON_URI = \"/uncommon/metadata\" */\n    tag_12:\n      tag_80\n      tag_81\n      jump\t// in\n    tag_80:\n      mload(0x40)\n      tag_82\n      swap2\n      swap1\n      tag_60\n      jump\t// in\n    tag_82:\n      mload(0x40)\n      dup1\n      swap2\n      sub\n      swap1\n      return\n        /* \"DoAConstants.sol\":1803:1847  uint16 public constant NFT_SUPPLY_3rd = 8250 */\n    tag_13:\n      tag_83\n      tag_84\n      jump\t// in\n    tag_83:\n      mload(0x40)\n      tag_85\n      swap2\n      swap1\n      tag_50\n      jump\t// in\n    tag_85:\n      mload(0x40)\n      dup1\n      swap2\n      sub\n      swap1\n      return\n        /* \"DoAConstants.sol\":5324:5906  function getClassPrice(NFT_CLASS nftClass) public pure returns (uint256 classNFTPrice) {... */\n    tag_14:\n      tag_86\n      0x04\n      dup1\n      calldatasize\n      sub\n      dup2\n      add\n      swap1\n      tag_87\n      swap2\n      swap1\n      tag_88\n      jump\t// in\n    tag_87:\n      tag_89\n      jump\t// in\n    tag_86:\n      mload(0x40)\n      tag_90\n      swap2\n      swap1\n      tag_70\n      jump\t// in\n    tag_90:\n      mload(0x40)\n      dup1\n      swap2\n      sub\n      swap1\n      return\n        /* \"DoAConstants.sol\":3380:3439  string public constant BASE_COMMON_URI = \"/common/metadata\" */\n    tag_15:\n      tag_91\n      tag_92\n      jump\t// in\n    tag_91:\n      mload(0x40)\n      tag_93\n      swap2\n      swap1\n      tag_60\n      jump\t// in\n    tag_93:\n      mload(0x40)\n      dup1\n      swap2\n      sub\n      swap1\n      return\n        /* \"DoAConstants.sol\":997:1047  uint16 public constant COMMON_NFT_SUPPLY_1st = 125 */\n    tag_16:\n      tag_94\n      tag_95\n      jump\t// in\n    tag_94:\n      mload(0x40)\n      tag_96\n      swap2\n      swap1\n      tag_50\n      jump\t// in\n    tag_96:\n      mload(0x40)\n      dup1\n      swap2\n      sub\n      swap1\n      return\n        /* \"DoAConstants.sol\":834:882  uint16 public constant LEGEND_NFT_SUPPLY_1st = 1 */\n    tag_17:\n      tag_97\n      tag_98\n      jump\t// in\n    tag_97:\n      mload(0x40)\n      tag_99\n      swap2\n      swap1\n      tag_50\n      jump\t// in\n    tag_99:\n      mload(0x40)\n      dup1\n      swap2\n      sub\n      swap1\n      return\n        /* \"DoAConstants.sol\":4697:5316  function getClassName(NFT_CLASS nftClass) public pure returns (string memory tokenClassName) {... */\n    tag_18:\n      tag_100\n      0x04\n      dup1\n      calldatasize\n      sub\n      dup2\n      add\n      swap1\n      tag_101\n      swap2\n      swap1\n      tag_88\n      jump\t// in\n    tag_101:\n      tag_102\n      jump\t// in\n    tag_100:\n      mload(0x40)\n      tag_103\n      swap2\n      swap1\n      tag_60\n      jump\t// in\n    tag_103:\n      mload(0x40)\n      dup1\n      swap2\n      sub\n      swap1\n      return\n        /* \"DoAConstants.sol\":888:934  uint16 public constant RARE_NFT_SUPPLY_1st = 5 */\n    tag_19:\n      tag_104\n      tag_105\n      jump\t// in\n    tag_104:\n      mload(0x40)\n      tag_106\n      swap2\n      swap1\n      tag_50\n      jump\t// in\n    tag_106:\n      mload(0x40)\n      dup1\n      swap2\n      sub\n      swap1\n      return\n        /* \"DoAConstants.sol\":2330:2382  uint16 public constant COMMON_NFT_START_INDEX = 3128 */\n    tag_20:\n      tag_107\n      tag_108\n      jump\t// in\n    tag_107:\n      mload(0x40)\n      tag_109\n      swap2\n      swap1\n      tag_50\n      jump\t// in\n    tag_109:\n      mload(0x40)\n      dup1\n      swap2\n      sub\n      swap1\n      return\n        /* \"DoAConstants.sol\":2723:2777  uint256 public constant COMMON_NFT_PRICE = 0.066 ether */\n    tag_21:\n      tag_110\n      tag_111\n      jump\t// in\n    tag_110:\n      mload(0x40)\n      tag_112\n      swap2\n      swap1\n      tag_70\n      jump\t// in\n    tag_112:\n      mload(0x40)\n      dup1\n      swap2\n      sub\n      swap1\n      return\n        /* \"DoAConstants.sol\":2160:2210  uint16 public constant LEGEND_NFT_START_INDEX = 25 */\n    tag_22:\n      tag_113\n      tag_114\n      jump\t// in\n    tag_113:\n      mload(0x40)\n      tag_115\n      swap2\n      swap1\n      tag_50\n      jump\t// in\n    tag_115:\n      mload(0x40)\n      dup1\n      swap2\n      sub\n      swap1\n      return\n        /* \"DoAConstants.sol\":1559:1612  uint16 public constant UNCOMMON_NFT_SUPPLY_3rd = 2000 */\n    tag_23:\n      tag_116\n      tag_117\n      jump\t// in\n    tag_116:\n      mload(0x40)\n      tag_118\n      swap2\n      swap1\n      tag_50\n      jump\t// in\n    tag_118:\n      mload(0x40)\n      dup1\n      swap2\n      sub\n      swap1\n      return\n        /* \"DoAConstants.sol\":1088:1134  uint16 public constant HERO_NFT_SUPPLY_2nd = 0 */\n    tag_24:\n      tag_119\n      tag_120\n      jump\t// in\n    tag_119:\n      mload(0x40)\n      tag_121\n      swap2\n      swap1\n      tag_50\n      jump\t// in\n    tag_121:\n      mload(0x40)\n      dup1\n      swap2\n      sub\n      swap1\n      return\n        /* \"DoAConstants.sol\":2658:2709  uint256 public constant RARE_NFT_PRICE = 0.33 ether */\n    tag_25:\n      tag_122\n      tag_123\n      jump\t// in\n    tag_122:\n      mload(0x40)\n      tag_124\n      swap2\n      swap1\n      tag_70\n      jump\t// in\n    tag_124:\n      mload(0x40)\n      dup1\n      swap2\n      sub\n      swap1\n      return\n        /* \"DoAConstants.sol\":2791:2847  uint256 public constant UNCOMMON_NFT_PRICE = 0.013 ether */\n    tag_26:\n      tag_125\n      tag_126\n      jump\t// in\n    tag_125:\n      mload(0x40)\n      tag_127\n      swap2\n      swap1\n      tag_70\n      jump\t// in\n    tag_127:\n      mload(0x40)\n      dup1\n      swap2\n      sub\n      swap1\n      return\n        /* \"DoAConstants.sol\":1450:1499  uint16 public constant LEGEND_NFT_SUPPLY_3rd = 80 */\n    tag_27:\n      tag_128\n      tag_129\n      jump\t// in\n    tag_128:\n      mload(0x40)\n      tag_130\n      swap2\n      swap1\n      tag_50\n      jump\t// in\n    tag_130:\n      mload(0x40)\n      dup1\n      swap2\n      sub\n      swap1\n      return\n        /* \"DoAConstants.sol\":3250:3305  string public constant BASE_RARE_URI = \"/rare/metadata\" */\n    tag_28:\n      tag_131\n      tag_132\n      jump\t// in\n    tag_131:\n      mload(0x40)\n      tag_133\n      swap2\n      swap1\n      tag_60\n      jump\t// in\n    tag_133:\n      mload(0x40)\n      dup1\n      swap2\n      sub\n      swap1\n      return\n        /* \"DoAConstants.sol\":1306:1357  uint16 public constant COMMON_NFT_SUPPLY_2nd = 1250 */\n    tag_29:\n      tag_134\n      tag_135\n      jump\t// in\n    tag_134:\n      mload(0x40)\n      tag_136\n      swap2\n      swap1\n      tag_50\n      jump\t// in\n    tag_136:\n      mload(0x40)\n      dup1\n      swap2\n      sub\n      swap1\n      return\n        /* \"DoAConstants.sol\":1505:1553  uint16 public constant RARE_NFT_SUPPLY_3rd = 400 */\n    tag_30:\n      tag_137\n      tag_138\n      jump\t// in\n    tag_137:\n      mload(0x40)\n      tag_139\n      swap2\n      swap1\n      tag_50\n      jump\t// in\n    tag_139:\n      mload(0x40)\n      dup1\n      swap2\n      sub\n      swap1\n      return\n        /* \"DoAConstants.sol\":1618:1669  uint16 public constant COMMON_NFT_SUPPLY_3rd = 5770 */\n    tag_31:\n      tag_140\n      tag_141\n      jump\t// in\n    tag_140:\n      mload(0x40)\n      tag_142\n      swap2\n      swap1\n      tag_50\n      jump\t// in\n    tag_142:\n      mload(0x40)\n      dup1\n      swap2\n      sub\n      swap1\n      return\n        /* \"DoAConstants.sol\":3124:3179  string public constant BASE_HERO_URI = \"/hero/metadata\" */\n    tag_32:\n      tag_143\n      tag_144\n      jump\t// in\n    tag_143:\n      mload(0x40)\n      tag_145\n      swap2\n      swap1\n      tag_60\n      jump\t// in\n    tag_145:\n      mload(0x40)\n      dup1\n      swap2\n      sub\n      swap1\n      return\n        /* \"DoAConstants.sol\":3060:3117  string public constant BASE_URI = \"ipfs://<hash>/doa/nft\" */\n    tag_33:\n      tag_146\n      tag_147\n      jump\t// in\n    tag_146:\n      mload(0x40)\n      tag_148\n      swap2\n      swap1\n      tag_60\n      jump\t// in\n    tag_148:\n      mload(0x40)\n      dup1\n      swap2\n      sub\n      swap1\n      return\n        /* \"DoAConstants.sol\":781:828  uint16 public constant HERO_NFT_SUPPLY_1st = 25 */\n    tag_34:\n      tag_149\n      tag_150\n      jump\t// in\n    tag_149:\n      mload(0x40)\n      tag_151\n      swap2\n      swap1\n      tag_50\n      jump\t// in\n    tag_151:\n      mload(0x40)\n      dup1\n      swap2\n      sub\n      swap1\n      return\n        /* \"DoAConstants.sol\":3747:4691  function getClassForTokenId(uint256 tokenId) public pure returns (NFT_CLASS tokenClass) {... */\n    tag_35:\n      tag_152\n      0x04\n      dup1\n      calldatasize\n      sub\n      dup2\n      add\n      swap1\n      tag_153\n      swap2\n      swap1\n      tag_154\n      jump\t// in\n    tag_153:\n      tag_155\n      jump\t// in\n    tag_152:\n      mload(0x40)\n      tag_156\n      swap2\n      swap1\n      tag_157\n      jump\t// in\n    tag_156:\n      mload(0x40)\n      dup1\n      swap2\n      sub\n      swap1\n      return\n        /* \"DoAConstants.sol\":3641:3690  uint8 public constant PUBLIC_FUND_PERCENTAGE = 60 */\n    tag_36:\n      tag_158\n      tag_159\n      jump\t// in\n    tag_158:\n      mload(0x40)\n      tag_160\n      swap2\n      swap1\n      tag_161\n      jump\t// in\n    tag_160:\n      mload(0x40)\n      dup1\n      swap2\n      sub\n      swap1\n      return\n        /* \"DoAConstants.sol\":1398:1444  uint16 public constant HERO_NFT_SUPPLY_3rd = 0 */\n    tag_37:\n      tag_162\n      tag_163\n      jump\t// in\n    tag_162:\n      mload(0x40)\n      tag_164\n      swap2\n      swap1\n      tag_50\n      jump\t// in\n    tag_164:\n      mload(0x40)\n      dup1\n      swap2\n      sub\n      swap1\n      return\n        /* \"DoAConstants.sol\":1248:1300  uint16 public constant UNCOMMON_NFT_SUPPLY_2nd = 250 */\n    tag_38:\n      tag_165\n      tag_166\n      jump\t// in\n    tag_165:\n      mload(0x40)\n      tag_167\n      swap2\n      swap1\n      tag_50\n      jump\t// in\n    tag_167:\n      mload(0x40)\n      dup1\n      swap2\n      sub\n      swap1\n      return\n        /* \"DoAConstants.sol\":5912:6069  function testClassForTokenId(uint256 tokenId) public pure returns (string memory className) {... */\n    tag_39:\n      tag_168\n      0x04\n      dup1\n      calldatasize\n      sub\n      dup2\n      add\n      swap1\n      tag_169\n      swap2\n      swap1\n      tag_154\n      jump\t// in\n    tag_169:\n      tag_170\n      jump\t// in\n    tag_168:\n      mload(0x40)\n      tag_171\n      swap2\n      swap1\n      tag_60\n      jump\t// in\n    tag_171:\n      mload(0x40)\n      dup1\n      swap2\n      sub\n      swap1\n      return\n        /* \"DoAConstants.sol\":2216:2265  uint16 public constant RARE_NFT_START_INDEX = 126 */\n    tag_48:\n        /* \"DoAConstants.sol\":2262:2265  126 */\n      0x7e\n        /* \"DoAConstants.sol\":2216:2265  uint16 public constant RARE_NFT_START_INDEX = 126 */\n      dup2\n      jump\t// out\n        /* \"DoAConstants.sol\":2271:2324  uint16 public constant UNCOMMON_NFT_START_INDEX = 627 */\n    tag_52:\n        /* \"DoAConstants.sol\":2321:2324  627 */\n      0x0273\n        /* \"DoAConstants.sol\":2271:2324  uint16 public constant UNCOMMON_NFT_START_INDEX = 627 */\n      dup2\n      jump\t// out\n        /* \"DoAConstants.sol\":1753:1797  uint16 public constant NFT_SUPPLY_2nd = 1560 */\n    tag_55:\n        /* \"DoAConstants.sol\":1793:1797  1560 */\n      0x0618\n        /* \"DoAConstants.sol\":1753:1797  uint16 public constant NFT_SUPPLY_2nd = 1560 */\n      dup2\n      jump\t// out\n        /* \"DoAConstants.sol\":3185:3244  string public constant BASE_LEGEND_URI = \"/legend/metadata\" */\n    tag_58:\n      mload(0x40)\n      dup1\n      0x40\n      add\n      0x40\n      mstore\n      dup1\n      0x10\n      dup2\n      mstore\n      0x20\n      add\n      0x2f6c6567656e642f6d6574616461746100000000000000000000000000000000\n      dup2\n      mstore\n      pop\n      dup2\n      jump\t// out\n        /* \"DoAConstants.sol\":1704:1747  uint16 public constant NFT_SUPPLY_1st = 181 */\n    tag_62:\n        /* \"DoAConstants.sol\":1744:1747  181 */\n      0xb5\n        /* \"DoAConstants.sol\":1704:1747  uint16 public constant NFT_SUPPLY_1st = 181 */\n      dup2\n      jump\t// out\n        /* \"DoAConstants.sol\":1140:1189  uint16 public constant LEGEND_NFT_SUPPLY_2nd = 10 */\n    tag_65:\n        /* \"DoAConstants.sol\":1187:1189  10 */\n      0x0a\n        /* \"DoAConstants.sol\":1140:1189  uint16 public constant LEGEND_NFT_SUPPLY_2nd = 10 */\n      dup2\n      jump\t// out\n        /* \"DoAConstants.sol\":2590:2643  uint256 public constant LEGEND_NFT_PRICE = 1.64 ether */\n    tag_68:\n        /* \"DoAConstants.sol\":2633:2643  1.64 ether */\n      0x16c2734f97a40000\n        /* \"DoAConstants.sol\":2590:2643  uint256 public constant LEGEND_NFT_PRICE = 1.64 ether */\n      dup2\n      jump\t// out\n        /* \"DoAConstants.sol\":2107:2154  uint16 public constant HERO_NFT_START_INDEX = 0 */\n    tag_72:\n        /* \"DoAConstants.sol\":2153:2154  0 */\n      0x00\n        /* \"DoAConstants.sol\":2107:2154  uint16 public constant HERO_NFT_START_INDEX = 0 */\n      dup2\n      jump\t// out\n        /* \"DoAConstants.sol\":1195:1242  uint16 public constant RARE_NFT_SUPPLY_2nd = 50 */\n    tag_75:\n        /* \"DoAConstants.sol\":1240:1242  50 */\n      0x32\n        /* \"DoAConstants.sol\":1195:1242  uint16 public constant RARE_NFT_SUPPLY_2nd = 50 */\n      dup2\n      jump\t// out\n        /* \"DoAConstants.sol\":940:991  uint16 public constant UNCOMMON_NFT_SUPPLY_1st = 25 */\n    tag_78:\n        /* \"DoAConstants.sol\":989:991  25 */\n      0x19\n        /* \"DoAConstants.sol\":940:991  uint16 public constant UNCOMMON_NFT_SUPPLY_1st = 25 */\n      dup2\n      jump\t// out\n        /* \"DoAConstants.sol\":3311:3374  string public constant BASE_UNCOMMON_URI = \"/uncommon/metadata\" */\n    tag_81:\n      mload(0x40)\n      dup1\n      0x40\n      add\n      0x40\n      mstore\n      dup1\n      0x12\n      dup2\n      mstore\n      0x20\n      add\n      0x2f756e636f6d6d6f6e2f6d657461646174610000000000000000000000000000\n      dup2\n      mstore\n      pop\n      dup2\n      jump\t// out\n        /* \"DoAConstants.sol\":1803:1847  uint16 public constant NFT_SUPPLY_3rd = 8250 */\n    tag_84:\n        /* \"DoAConstants.sol\":1843:1847  8250 */\n      0x203a\n        /* \"DoAConstants.sol\":1803:1847  uint16 public constant NFT_SUPPLY_3rd = 8250 */\n      dup2\n      jump\t// out\n        /* \"DoAConstants.sol\":5324:5906  function getClassPrice(NFT_CLASS nftClass) public pure returns (uint256 classNFTPrice) {... */\n    tag_89:\n        /* \"DoAConstants.sol\":5388:5409  uint256 classNFTPrice */\n      0x00\n        /* \"DoAConstants.sol\":5436:5452  NFT_CLASS.LEGEND */\n      0x01\n        /* \"DoAConstants.sol\":5424:5452  nftClass == NFT_CLASS.LEGEND */\n      0x04\n      dup2\n      gt\n      iszero\n      tag_173\n      jumpi\n      tag_174\n      tag_175\n      jump\t// in\n    tag_174:\n    tag_173:\n        /* \"DoAConstants.sol\":5424:5432  nftClass */\n      dup3\n        /* \"DoAConstants.sol\":5424:5452  nftClass == NFT_CLASS.LEGEND */\n      0x04\n      dup2\n      gt\n      iszero\n      tag_176\n      jumpi\n      tag_177\n      tag_175\n      jump\t// in\n    tag_177:\n    tag_176:\n      sub\n        /* \"DoAConstants.sol\":5421:5868  if(nftClass == NFT_CLASS.LEGEND) ... */\n      tag_178\n      jumpi\n        /* \"DoAConstants.sol\":2633:2643  1.64 ether */\n      0x16c2734f97a40000\n        /* \"DoAConstants.sol\":5467:5512  classNFTPrice = DoAConstants.LEGEND_NFT_PRICE */\n      swap1\n      pop\n        /* \"DoAConstants.sol\":5421:5868  if(nftClass == NFT_CLASS.LEGEND) ... */\n      jump(tag_179)\n    tag_178:\n        /* \"DoAConstants.sol\":5542:5556  NFT_CLASS.RARE */\n      0x02\n        /* \"DoAConstants.sol\":5530:5556  nftClass == NFT_CLASS.RARE */\n      0x04\n      dup2\n      gt\n      iszero\n      tag_180\n      jumpi\n      tag_181\n      tag_175\n      jump\t// in\n    tag_181:\n    tag_180:\n        /* \"DoAConstants.sol\":5530:5538  nftClass */\n      dup3\n        /* \"DoAConstants.sol\":5530:5556  nftClass == NFT_CLASS.RARE */\n      0x04\n      dup2\n      gt\n      iszero\n      tag_182\n      jumpi\n      tag_183\n      tag_175\n      jump\t// in\n    tag_183:\n    tag_182:\n      sub\n        /* \"DoAConstants.sol\":5527:5868  if(nftClass == NFT_CLASS.RARE) ... */\n      tag_184\n      jumpi\n        /* \"DoAConstants.sol\":2699:2709  0.33 ether */\n      0x0494654067e10000\n        /* \"DoAConstants.sol\":5571:5614  classNFTPrice = DoAConstants.RARE_NFT_PRICE */\n      swap1\n      pop\n        /* \"DoAConstants.sol\":5527:5868  if(nftClass == NFT_CLASS.RARE) ... */\n      jump(tag_185)\n    tag_184:\n        /* \"DoAConstants.sol\":5644:5662  NFT_CLASS.UNCOMMON */\n      0x03\n        /* \"DoAConstants.sol\":5632:5662  nftClass == NFT_CLASS.UNCOMMON */\n      0x04\n      dup2\n      gt\n      iszero\n      tag_186\n      jumpi\n      tag_187\n      tag_175\n      jump\t// in\n    tag_187:\n    tag_186:\n        /* \"DoAConstants.sol\":5632:5640  nftClass */\n      dup3\n        /* \"DoAConstants.sol\":5632:5662  nftClass == NFT_CLASS.UNCOMMON */\n      0x04\n      dup2\n      gt\n      iszero\n      tag_188\n      jumpi\n      tag_189\n      tag_175\n      jump\t// in\n    tag_189:\n    tag_188:\n      sub\n        /* \"DoAConstants.sol\":5629:5868  if(nftClass == NFT_CLASS.UNCOMMON) ... */\n      tag_190\n      jumpi\n        /* \"DoAConstants.sol\":2836:2847  0.013 ether */\n      0x2e2f6e5e148000\n        /* \"DoAConstants.sol\":5677:5724  classNFTPrice = DoAConstants.UNCOMMON_NFT_PRICE */\n      swap1\n      pop\n        /* \"DoAConstants.sol\":5629:5868  if(nftClass == NFT_CLASS.UNCOMMON) ... */\n      jump(tag_191)\n    tag_190:\n        /* \"DoAConstants.sol\":5754:5770  NFT_CLASS.COMMON */\n      0x04\n        /* \"DoAConstants.sol\":5742:5770  nftClass == NFT_CLASS.COMMON */\n      dup1\n      dup2\n      gt\n      iszero\n      tag_192\n      jumpi\n      tag_193\n      tag_175\n      jump\t// in\n    tag_193:\n    tag_192:\n        /* \"DoAConstants.sol\":5742:5750  nftClass */\n      dup3\n        /* \"DoAConstants.sol\":5742:5770  nftClass == NFT_CLASS.COMMON */\n      0x04\n      dup2\n      gt\n      iszero\n      tag_194\n      jumpi\n      tag_195\n      tag_175\n      jump\t// in\n    tag_195:\n    tag_194:\n      sub\n        /* \"DoAConstants.sol\":5739:5868  if(nftClass == NFT_CLASS.COMMON) ... */\n      tag_196\n      jumpi\n        /* \"DoAConstants.sol\":2766:2777  0.066 ether */\n      0xea7aa67b2d0000\n        /* \"DoAConstants.sol\":5785:5830  classNFTPrice = DoAConstants.COMMON_NFT_PRICE */\n      swap1\n      pop\n        /* \"DoAConstants.sol\":5739:5868  if(nftClass == NFT_CLASS.COMMON) ... */\n      jump(tag_197)\n    tag_196:\n        /* \"DoAConstants.sol\":5845:5868  revert(\"Invalid class\") */\n      mload(0x40)\n      0x08c379a000000000000000000000000000000000000000000000000000000000\n      dup2\n      mstore\n      0x04\n      add\n      tag_198\n      swap1\n      tag_199\n      jump\t// in\n    tag_198:\n      mload(0x40)\n      dup1\n      swap2\n      sub\n      swap1\n      revert\n        /* \"DoAConstants.sol\":5739:5868  if(nftClass == NFT_CLASS.COMMON) ... */\n    tag_197:\n        /* \"DoAConstants.sol\":5629:5868  if(nftClass == NFT_CLASS.UNCOMMON) ... */\n    tag_191:\n        /* \"DoAConstants.sol\":5527:5868  if(nftClass == NFT_CLASS.RARE) ... */\n    tag_185:\n        /* \"DoAConstants.sol\":5421:5868  if(nftClass == NFT_CLASS.LEGEND) ... */\n    tag_179:\n        /* \"DoAConstants.sol\":5324:5906  function getClassPrice(NFT_CLASS nftClass) public pure returns (uint256 classNFTPrice) {... */\n      swap2\n      swap1\n      pop\n      jump\t// out\n        /* \"DoAConstants.sol\":3380:3439  string public constant BASE_COMMON_URI = \"/common/metadata\" */\n    tag_92:\n      mload(0x40)\n      dup1\n      0x40\n      add\n      0x40\n      mstore\n      dup1\n      0x10\n      dup2\n      mstore\n      0x20\n      add\n      0x2f636f6d6d6f6e2f6d6574616461746100000000000000000000000000000000\n      dup2\n      mstore\n      pop\n      dup2\n      jump\t// out\n        /* \"DoAConstants.sol\":997:1047  uint16 public constant COMMON_NFT_SUPPLY_1st = 125 */\n    tag_95:\n        /* \"DoAConstants.sol\":1044:1047  125 */\n      0x7d\n        /* \"DoAConstants.sol\":997:1047  uint16 public constant COMMON_NFT_SUPPLY_1st = 125 */\n      dup2\n      jump\t// out\n        /* \"DoAConstants.sol\":834:882  uint16 public constant LEGEND_NFT_SUPPLY_1st = 1 */\n    tag_98:\n        /* \"DoAConstants.sol\":881:882  1 */\n      0x01\n        /* \"DoAConstants.sol\":834:882  uint16 public constant LEGEND_NFT_SUPPLY_1st = 1 */\n      dup2\n      jump\t// out\n        /* \"DoAConstants.sol\":4697:5316  function getClassName(NFT_CLASS nftClass) public pure returns (string memory tokenClassName) {... */\n    tag_102:\n        /* \"DoAConstants.sol\":4760:4788  string memory tokenClassName */\n      0x60\n        /* \"DoAConstants.sol\":4825:4839  NFT_CLASS.HERO */\n      0x00\n        /* \"DoAConstants.sol\":4813:4839  nftClass == NFT_CLASS.HERO */\n      0x04\n      dup2\n      gt\n      iszero\n      tag_201\n      jumpi\n      tag_202\n      tag_175\n      jump\t// in\n    tag_202:\n    tag_201:\n        /* \"DoAConstants.sol\":4813:4821  nftClass */\n      dup3\n        /* \"DoAConstants.sol\":4813:4839  nftClass == NFT_CLASS.HERO */\n      0x04\n      dup2\n      gt\n      iszero\n      tag_203\n      jumpi\n      tag_204\n      tag_175\n      jump\t// in\n    tag_204:\n    tag_203:\n      sub\n        /* \"DoAConstants.sol\":4809:5309  if (nftClass == NFT_CLASS.HERO) {... */\n      tag_205\n      jumpi\n        /* \"DoAConstants.sol\":4855:4878  tokenClassName = \"Hero\" */\n      mload(0x40)\n      dup1\n      0x40\n      add\n      0x40\n      mstore\n      dup1\n      0x04\n      dup2\n      mstore\n      0x20\n      add\n      0x4865726f00000000000000000000000000000000000000000000000000000000\n      dup2\n      mstore\n      pop\n      swap1\n      pop\n        /* \"DoAConstants.sol\":4809:5309  if (nftClass == NFT_CLASS.HERO) {... */\n      jump(tag_206)\n    tag_205:\n        /* \"DoAConstants.sol\":4911:4927  NFT_CLASS.LEGEND */\n      0x01\n        /* \"DoAConstants.sol\":4899:4927  nftClass == NFT_CLASS.LEGEND */\n      0x04\n      dup2\n      gt\n      iszero\n      tag_207\n      jumpi\n      tag_208\n      tag_175\n      jump\t// in\n    tag_208:\n    tag_207:\n        /* \"DoAConstants.sol\":4899:4907  nftClass */\n      dup3\n        /* \"DoAConstants.sol\":4899:4927  nftClass == NFT_CLASS.LEGEND */\n      0x04\n      dup2\n      gt\n      iszero\n      tag_209\n      jumpi\n      tag_210\n      tag_175\n      jump\t// in\n    tag_210:\n    tag_209:\n      sub\n        /* \"DoAConstants.sol\":4895:5309  if (nftClass == NFT_CLASS.LEGEND) {... */\n      tag_211\n      jumpi\n        /* \"DoAConstants.sol\":4943:4968  tokenClassName = \"Legend\" */\n      mload(0x40)\n      dup1\n      0x40\n      add\n      0x40\n      mstore\n      dup1\n      0x06\n      dup2\n      mstore\n      0x20\n      add\n      0x4c6567656e640000000000000000000000000000000000000000000000000000\n      dup2\n      mstore\n      pop\n      swap1\n      pop\n        /* \"DoAConstants.sol\":4895:5309  if (nftClass == NFT_CLASS.LEGEND) {... */\n      jump(tag_212)\n    tag_211:\n        /* \"DoAConstants.sol\":5001:5015  NFT_CLASS.RARE */\n      0x02\n        /* \"DoAConstants.sol\":4989:5015  nftClass == NFT_CLASS.RARE */\n      0x04\n      dup2\n      gt\n      iszero\n      tag_213\n      jumpi\n      tag_214\n      tag_175\n      jump\t// in\n    tag_214:\n    tag_213:\n        /* \"DoAConstants.sol\":4989:4997  nftClass */\n      dup3\n        /* \"DoAConstants.sol\":4989:5015  nftClass == NFT_CLASS.RARE */\n      0x04\n      dup2\n      gt\n      iszero\n      tag_215\n      jumpi\n      tag_216\n      tag_175\n      jump\t// in\n    tag_216:\n    tag_215:\n      sub\n        /* \"DoAConstants.sol\":4985:5309  if (nftClass == NFT_CLASS.RARE) {... */\n      tag_217\n      jumpi\n        /* \"DoAConstants.sol\":5031:5054  tokenClassName = \"Rare\" */\n      mload(0x40)\n      dup1\n      0x40\n      add\n      0x40\n      mstore\n      dup1\n      0x04\n      dup2\n      mstore\n      0x20\n      add\n      0x5261726500000000000000000000000000000000000000000000000000000000\n      dup2\n      mstore\n      pop\n      swap1\n      pop\n        /* \"DoAConstants.sol\":4985:5309  if (nftClass == NFT_CLASS.RARE) {... */\n      jump(tag_218)\n    tag_217:\n        /* \"DoAConstants.sol\":5087:5105  NFT_CLASS.UNCOMMON */\n      0x03\n        /* \"DoAConstants.sol\":5075:5105  nftClass == NFT_CLASS.UNCOMMON */\n      0x04\n      dup2\n      gt\n      iszero\n      tag_219\n      jumpi\n      tag_220\n      tag_175\n      jump\t// in\n    tag_220:\n    tag_219:\n        /* \"DoAConstants.sol\":5075:5083  nftClass */\n      dup3\n        /* \"DoAConstants.sol\":5075:5105  nftClass == NFT_CLASS.UNCOMMON */\n      0x04\n      dup2\n      gt\n      iszero\n      tag_221\n      jumpi\n      tag_222\n      tag_175\n      jump\t// in\n    tag_222:\n    tag_221:\n      sub\n        /* \"DoAConstants.sol\":5071:5309  if (nftClass == NFT_CLASS.UNCOMMON) {... */\n      tag_223\n      jumpi\n        /* \"DoAConstants.sol\":5121:5148  tokenClassName = \"Uncommon\" */\n      mload(0x40)\n      dup1\n      0x40\n      add\n      0x40\n      mstore\n      dup1\n      0x08\n      dup2\n      mstore\n      0x20\n      add\n      0x556e636f6d6d6f6e000000000000000000000000000000000000000000000000\n      dup2\n      mstore\n      pop\n      swap1\n      pop\n        /* \"DoAConstants.sol\":5071:5309  if (nftClass == NFT_CLASS.UNCOMMON) {... */\n      jump(tag_224)\n    tag_223:\n        /* \"DoAConstants.sol\":5181:5197  NFT_CLASS.COMMON */\n      0x04\n        /* \"DoAConstants.sol\":5169:5197  nftClass == NFT_CLASS.COMMON */\n      dup1\n      dup2\n      gt\n      iszero\n      tag_225\n      jumpi\n      tag_226\n      tag_175\n      jump\t// in\n    tag_226:\n    tag_225:\n        /* \"DoAConstants.sol\":5169:5177  nftClass */\n      dup3\n        /* \"DoAConstants.sol\":5169:5197  nftClass == NFT_CLASS.COMMON */\n      0x04\n      dup2\n      gt\n      iszero\n      tag_227\n      jumpi\n      tag_228\n      tag_175\n      jump\t// in\n    tag_228:\n    tag_227:\n      sub\n        /* \"DoAConstants.sol\":5165:5309  if (nftClass == NFT_CLASS.COMMON) {... */\n      tag_229\n      jumpi\n        /* \"DoAConstants.sol\":5213:5238  tokenClassName = \"Common\" */\n      mload(0x40)\n      dup1\n      0x40\n      add\n      0x40\n      mstore\n      dup1\n      0x06\n      dup2\n      mstore\n      0x20\n      add\n      0x436f6d6d6f6e0000000000000000000000000000000000000000000000000000\n      dup2\n      mstore\n      pop\n      swap1\n      pop\n        /* \"DoAConstants.sol\":5165:5309  if (nftClass == NFT_CLASS.COMMON) {... */\n      jump(tag_230)\n    tag_229:\n        /* \"DoAConstants.sol\":5269:5298  revert(\"Invalid token class\") */\n      mload(0x40)\n      0x08c379a000000000000000000000000000000000000000000000000000000000\n      dup2\n      mstore\n      0x04\n      add\n      tag_231\n      swap1\n      tag_232\n      jump\t// in\n    tag_231:\n      mload(0x40)\n      dup1\n      swap2\n      sub\n      swap1\n      revert\n        /* \"DoAConstants.sol\":5165:5309  if (nftClass == NFT_CLASS.COMMON) {... */\n    tag_230:\n        /* \"DoAConstants.sol\":5071:5309  if (nftClass == NFT_CLASS.UNCOMMON) {... */\n    tag_224:\n        /* \"DoAConstants.sol\":4985:5309  if (nftClass == NFT_CLASS.RARE) {... */\n    tag_218:\n        /* \"DoAConstants.sol\":4895:5309  if (nftClass == NFT_CLASS.LEGEND) {... */\n    tag_212:\n        /* \"DoAConstants.sol\":4809:5309  if (nftClass == NFT_CLASS.HERO) {... */\n    tag_206:\n        /* \"DoAConstants.sol\":4697:5316  function getClassName(NFT_CLASS nftClass) public pure returns (string memory tokenClassName) {... */\n      swap2\n      swap1\n      pop\n      jump\t// out\n        /* \"DoAConstants.sol\":888:934  uint16 public constant RARE_NFT_SUPPLY_1st = 5 */\n    tag_105:\n        /* \"DoAConstants.sol\":933:934  5 */\n      0x05\n        /* \"DoAConstants.sol\":888:934  uint16 public constant RARE_NFT_SUPPLY_1st = 5 */\n      dup2\n      jump\t// out\n        /* \"DoAConstants.sol\":2330:2382  uint16 public constant COMMON_NFT_START_INDEX = 3128 */\n    tag_108:\n        /* \"DoAConstants.sol\":2378:2382  3128 */\n      0x0c38\n        /* \"DoAConstants.sol\":2330:2382  uint16 public constant COMMON_NFT_START_INDEX = 3128 */\n      dup2\n      jump\t// out\n        /* \"DoAConstants.sol\":2723:2777  uint256 public constant COMMON_NFT_PRICE = 0.066 ether */\n    tag_111:\n        /* \"DoAConstants.sol\":2766:2777  0.066 ether */\n      0xea7aa67b2d0000\n        /* \"DoAConstants.sol\":2723:2777  uint256 public constant COMMON_NFT_PRICE = 0.066 ether */\n      dup2\n      jump\t// out\n        /* \"DoAConstants.sol\":2160:2210  uint16 public constant LEGEND_NFT_START_INDEX = 25 */\n    tag_114:\n        /* \"DoAConstants.sol\":2208:2210  25 */\n      0x19\n        /* \"DoAConstants.sol\":2160:2210  uint16 public constant LEGEND_NFT_START_INDEX = 25 */\n      dup2\n      jump\t// out\n        /* \"DoAConstants.sol\":1559:1612  uint16 public constant UNCOMMON_NFT_SUPPLY_3rd = 2000 */\n    tag_117:\n        /* \"DoAConstants.sol\":1608:1612  2000 */\n      0x07d0\n        /* \"DoAConstants.sol\":1559:1612  uint16 public constant UNCOMMON_NFT_SUPPLY_3rd = 2000 */\n      dup2\n      jump\t// out\n        /* \"DoAConstants.sol\":1088:1134  uint16 public constant HERO_NFT_SUPPLY_2nd = 0 */\n    tag_120:\n        /* \"DoAConstants.sol\":1133:1134  0 */\n      0x00\n        /* \"DoAConstants.sol\":1088:1134  uint16 public constant HERO_NFT_SUPPLY_2nd = 0 */\n      dup2\n      jump\t// out\n        /* \"DoAConstants.sol\":2658:2709  uint256 public constant RARE_NFT_PRICE = 0.33 ether */\n    tag_123:\n        /* \"DoAConstants.sol\":2699:2709  0.33 ether */\n      0x0494654067e10000\n        /* \"DoAConstants.sol\":2658:2709  uint256 public constant RARE_NFT_PRICE = 0.33 ether */\n      dup2\n      jump\t// out\n        /* \"DoAConstants.sol\":2791:2847  uint256 public constant UNCOMMON_NFT_PRICE = 0.013 ether */\n    tag_126:\n        /* \"DoAConstants.sol\":2836:2847  0.013 ether */\n      0x2e2f6e5e148000\n        /* \"DoAConstants.sol\":2791:2847  uint256 public constant UNCOMMON_NFT_PRICE = 0.013 ether */\n      dup2\n      jump\t// out\n        /* \"DoAConstants.sol\":1450:1499  uint16 public constant LEGEND_NFT_SUPPLY_3rd = 80 */\n    tag_129:\n        /* \"DoAConstants.sol\":1497:1499  80 */\n      0x50\n        /* \"DoAConstants.sol\":1450:1499  uint16 public constant LEGEND_NFT_SUPPLY_3rd = 80 */\n      dup2\n      jump\t// out\n        /* \"DoAConstants.sol\":3250:3305  string public constant BASE_RARE_URI = \"/rare/metadata\" */\n    tag_132:\n      mload(0x40)\n      dup1\n      0x40\n      add\n      0x40\n      mstore\n      dup1\n      0x0e\n      dup2\n      mstore\n      0x20\n      add\n      0x2f726172652f6d65746164617461000000000000000000000000000000000000\n      dup2\n      mstore\n      pop\n      dup2\n      jump\t// out\n        /* \"DoAConstants.sol\":1306:1357  uint16 public constant COMMON_NFT_SUPPLY_2nd = 1250 */\n    tag_135:\n        /* \"DoAConstants.sol\":1353:1357  1250 */\n      0x04e2\n        /* \"DoAConstants.sol\":1306:1357  uint16 public constant COMMON_NFT_SUPPLY_2nd = 1250 */\n      dup2\n      jump\t// out\n        /* \"DoAConstants.sol\":1505:1553  uint16 public constant RARE_NFT_SUPPLY_3rd = 400 */\n    tag_138:\n        /* \"DoAConstants.sol\":1550:1553  400 */\n      0x0190\n        /* \"DoAConstants.sol\":1505:1553  uint16 public constant RARE_NFT_SUPPLY_3rd = 400 */\n      dup2\n      jump\t// out\n        /* \"DoAConstants.sol\":1618:1669  uint16 public constant COMMON_NFT_SUPPLY_3rd = 5770 */\n    tag_141:\n        /* \"DoAConstants.sol\":1665:1669  5770 */\n      0x168a\n        /* \"DoAConstants.sol\":1618:1669  uint16 public constant COMMON_NFT_SUPPLY_3rd = 5770 */\n      dup2\n      jump\t// out\n        /* \"DoAConstants.sol\":3124:3179  string public constant BASE_HERO_URI = \"/hero/metadata\" */\n    tag_144:\n      mload(0x40)\n      dup1\n      0x40\n      add\n      0x40\n      mstore\n      dup1\n      0x0e\n      dup2\n      mstore\n      0x20\n      add\n      0x2f6865726f2f6d65746164617461000000000000000000000000000000000000\n      dup2\n      mstore\n      pop\n      dup2\n      jump\t// out\n        /* \"DoAConstants.sol\":3060:3117  string public constant BASE_URI = \"ipfs://<hash>/doa/nft\" */\n    tag_147:\n      mload(0x40)\n      dup1\n      0x40\n      add\n      0x40\n      mstore\n      dup1\n      0x15\n      dup2\n      mstore\n      0x20\n      add\n      0x697066733a2f2f3c686173683e2f646f612f6e66740000000000000000000000\n      dup2\n      mstore\n      pop\n      dup2\n      jump\t// out\n        /* \"DoAConstants.sol\":781:828  uint16 public constant HERO_NFT_SUPPLY_1st = 25 */\n    tag_150:\n        /* \"DoAConstants.sol\":826:828  25 */\n      0x19\n        /* \"DoAConstants.sol\":781:828  uint16 public constant HERO_NFT_SUPPLY_1st = 25 */\n      dup2\n      jump\t// out\n        /* \"DoAConstants.sol\":3747:4691  function getClassForTokenId(uint256 tokenId) public pure returns (NFT_CLASS tokenClass) {... */\n    tag_155:\n        /* \"DoAConstants.sol\":3813:3833  NFT_CLASS tokenClass */\n      0x00\n        /* \"DoAConstants.sol\":2153:2154  0 */\n      dup1\n        /* \"DoAConstants.sol\":3858:3902  tokenId >= DoAConstants.HERO_NFT_START_INDEX */\n      0xffff\n      and\n        /* \"DoAConstants.sol\":3858:3865  tokenId */\n      dup3\n        /* \"DoAConstants.sol\":3858:3902  tokenId >= DoAConstants.HERO_NFT_START_INDEX */\n      lt\n      iszero\n        /* \"DoAConstants.sol\":3858:3951  tokenId >= DoAConstants.HERO_NFT_START_INDEX && tokenId < DoAConstants.LEGEND_NFT_START_INDEX */\n      dup1\n      iszero\n      tag_234\n      jumpi\n      pop\n        /* \"DoAConstants.sol\":2208:2210  25 */\n      0x19\n        /* \"DoAConstants.sol\":3906:3951  tokenId < DoAConstants.LEGEND_NFT_START_INDEX */\n      0xffff\n      and\n        /* \"DoAConstants.sol\":3906:3913  tokenId */\n      dup3\n        /* \"DoAConstants.sol\":3906:3951  tokenId < DoAConstants.LEGEND_NFT_START_INDEX */\n      lt\n        /* \"DoAConstants.sol\":3858:3951  tokenId >= DoAConstants.HERO_NFT_START_INDEX && tokenId < DoAConstants.LEGEND_NFT_START_INDEX */\n    tag_234:\n        /* \"DoAConstants.sol\":3854:4657  if (tokenId >= DoAConstants.HERO_NFT_START_INDEX && tokenId < DoAConstants.LEGEND_NFT_START_INDEX) {... */\n      iszero\n      tag_235\n      jumpi\n        /* \"DoAConstants.sol\":3980:3994  NFT_CLASS.HERO */\n      0x00\n        /* \"DoAConstants.sol\":3967:3994  tokenClass = NFT_CLASS.HERO */\n      swap1\n      pop\n        /* \"DoAConstants.sol\":3854:4657  if (tokenId >= DoAConstants.HERO_NFT_START_INDEX && tokenId < DoAConstants.LEGEND_NFT_START_INDEX) {... */\n      jump(tag_236)\n    tag_235:\n        /* \"DoAConstants.sol\":2208:2210  25 */\n      0x19\n        /* \"DoAConstants.sol\":4015:4061  tokenId >= DoAConstants.LEGEND_NFT_START_INDEX */\n      0xffff\n      and\n        /* \"DoAConstants.sol\":4015:4022  tokenId */\n      dup3\n        /* \"DoAConstants.sol\":4015:4061  tokenId >= DoAConstants.LEGEND_NFT_START_INDEX */\n      lt\n      iszero\n        /* \"DoAConstants.sol\":4015:4108  tokenId >= DoAConstants.LEGEND_NFT_START_INDEX && tokenId < DoAConstants.RARE_NFT_START_INDEX */\n      dup1\n      iszero\n      tag_237\n      jumpi\n      pop\n        /* \"DoAConstants.sol\":2262:2265  126 */\n      0x7e\n        /* \"DoAConstants.sol\":4065:4108  tokenId < DoAConstants.RARE_NFT_START_INDEX */\n      0xffff\n      and\n        /* \"DoAConstants.sol\":4065:4072  tokenId */\n      dup3\n        /* \"DoAConstants.sol\":4065:4108  tokenId < DoAConstants.RARE_NFT_START_INDEX */\n      lt\n        /* \"DoAConstants.sol\":4015:4108  tokenId >= DoAConstants.LEGEND_NFT_START_INDEX && tokenId < DoAConstants.RARE_NFT_START_INDEX */\n    tag_237:\n        /* \"DoAConstants.sol\":4011:4657  if (tokenId >= DoAConstants.LEGEND_NFT_START_INDEX && tokenId < DoAConstants.RARE_NFT_START_INDEX) {... */\n      iszero\n      tag_238\n      jumpi\n        /* \"DoAConstants.sol\":4137:4153  NFT_CLASS.LEGEND */\n      0x01\n        /* \"DoAConstants.sol\":4124:4153  tokenClass = NFT_CLASS.LEGEND */\n      swap1\n      pop\n        /* \"DoAConstants.sol\":4011:4657  if (tokenId >= DoAConstants.LEGEND_NFT_START_INDEX && tokenId < DoAConstants.RARE_NFT_START_INDEX) {... */\n      jump(tag_239)\n    tag_238:\n        /* \"DoAConstants.sol\":2262:2265  126 */\n      0x7e\n        /* \"DoAConstants.sol\":4174:4218  tokenId >= DoAConstants.RARE_NFT_START_INDEX */\n      0xffff\n      and\n        /* \"DoAConstants.sol\":4174:4181  tokenId */\n      dup3\n        /* \"DoAConstants.sol\":4174:4218  tokenId >= DoAConstants.RARE_NFT_START_INDEX */\n      lt\n      iszero\n        /* \"DoAConstants.sol\":4174:4269  tokenId >= DoAConstants.RARE_NFT_START_INDEX && tokenId < DoAConstants.UNCOMMON_NFT_START_INDEX */\n      dup1\n      iszero\n      tag_240\n      jumpi\n      pop\n        /* \"DoAConstants.sol\":2321:2324  627 */\n      0x0273\n        /* \"DoAConstants.sol\":4222:4269  tokenId < DoAConstants.UNCOMMON_NFT_START_INDEX */\n      0xffff\n      and\n        /* \"DoAConstants.sol\":4222:4229  tokenId */\n      dup3\n        /* \"DoAConstants.sol\":4222:4269  tokenId < DoAConstants.UNCOMMON_NFT_START_INDEX */\n      lt\n        /* \"DoAConstants.sol\":4174:4269  tokenId >= DoAConstants.RARE_NFT_START_INDEX && tokenId < DoAConstants.UNCOMMON_NFT_START_INDEX */\n    tag_240:\n        /* \"DoAConstants.sol\":4170:4657  if (tokenId >= DoAConstants.RARE_NFT_START_INDEX && tokenId < DoAConstants.UNCOMMON_NFT_START_INDEX) {... */\n      iszero\n      tag_241\n      jumpi\n        /* \"DoAConstants.sol\":4298:4312  NFT_CLASS.RARE */\n      0x02\n        /* \"DoAConstants.sol\":4285:4312  tokenClass = NFT_CLASS.RARE */\n      swap1\n      pop\n        /* \"DoAConstants.sol\":4170:4657  if (tokenId >= DoAConstants.RARE_NFT_START_INDEX && tokenId < DoAConstants.UNCOMMON_NFT_START_INDEX) {... */\n      jump(tag_242)\n    tag_241:\n        /* \"DoAConstants.sol\":2321:2324  627 */\n      0x0273\n        /* \"DoAConstants.sol\":4333:4381  tokenId >= DoAConstants.UNCOMMON_NFT_START_INDEX */\n      0xffff\n      and\n        /* \"DoAConstants.sol\":4333:4340  tokenId */\n      dup3\n        /* \"DoAConstants.sol\":4333:4381  tokenId >= DoAConstants.UNCOMMON_NFT_START_INDEX */\n      lt\n      iszero\n        /* \"DoAConstants.sol\":4333:4430  tokenId >= DoAConstants.UNCOMMON_NFT_START_INDEX && tokenId < DoAConstants.COMMON_NFT_START_INDEX */\n      dup1\n      iszero\n      tag_243\n      jumpi\n      pop\n        /* \"DoAConstants.sol\":2378:2382  3128 */\n      0x0c38\n        /* \"DoAConstants.sol\":4385:4430  tokenId < DoAConstants.COMMON_NFT_START_INDEX */\n      0xffff\n      and\n        /* \"DoAConstants.sol\":4385:4392  tokenId */\n      dup3\n        /* \"DoAConstants.sol\":4385:4430  tokenId < DoAConstants.COMMON_NFT_START_INDEX */\n      lt\n        /* \"DoAConstants.sol\":4333:4430  tokenId >= DoAConstants.UNCOMMON_NFT_START_INDEX && tokenId < DoAConstants.COMMON_NFT_START_INDEX */\n    tag_243:\n        /* \"DoAConstants.sol\":4329:4657  if (tokenId >= DoAConstants.UNCOMMON_NFT_START_INDEX && tokenId < DoAConstants.COMMON_NFT_START_INDEX) {... */\n      iszero\n      tag_244\n      jumpi\n        /* \"DoAConstants.sol\":4459:4477  NFT_CLASS.UNCOMMON */\n      0x03\n        /* \"DoAConstants.sol\":4446:4477  tokenClass = NFT_CLASS.UNCOMMON */\n      swap1\n      pop\n        /* \"DoAConstants.sol\":4329:4657  if (tokenId >= DoAConstants.UNCOMMON_NFT_START_INDEX && tokenId < DoAConstants.COMMON_NFT_START_INDEX) {... */\n      jump(tag_245)\n    tag_244:\n        /* \"DoAConstants.sol\":2378:2382  3128 */\n      0x0c38\n        /* \"DoAConstants.sol\":4498:4544  tokenId >= DoAConstants.COMMON_NFT_START_INDEX */\n      0xffff\n      and\n        /* \"DoAConstants.sol\":4498:4505  tokenId */\n      dup3\n        /* \"DoAConstants.sol\":4498:4544  tokenId >= DoAConstants.COMMON_NFT_START_INDEX */\n      lt\n        /* \"DoAConstants.sol\":4494:4657  if (tokenId >= DoAConstants.COMMON_NFT_START_INDEX) {... */\n      tag_246\n      jumpi\n        /* \"DoAConstants.sol\":4573:4589  NFT_CLASS.COMMON */\n      0x04\n        /* \"DoAConstants.sol\":4560:4589  tokenClass = NFT_CLASS.COMMON */\n      swap1\n      pop\n        /* \"DoAConstants.sol\":4494:4657  if (tokenId >= DoAConstants.COMMON_NFT_START_INDEX) {... */\n      jump(tag_247)\n    tag_246:\n        /* \"DoAConstants.sol\":4620:4646  revert(\"Invalid token ID\") */\n      mload(0x40)\n      0x08c379a000000000000000000000000000000000000000000000000000000000\n      dup2\n      mstore\n      0x04\n      add\n      tag_248\n      swap1\n      tag_249\n      jump\t// in\n    tag_248:\n      mload(0x40)\n      dup1\n      swap2\n      sub\n      swap1\n      revert\n        /* \"DoAConstants.sol\":4494:4657  if (tokenId >= DoAConstants.COMMON_NFT_START_INDEX) {... */\n    tag_247:\n        /* \"DoAConstants.sol\":4329:4657  if (tokenId >= DoAConstants.UNCOMMON_NFT_START_INDEX && tokenId < DoAConstants.COMMON_NFT_START_INDEX) {... */\n    tag_245:\n        /* \"DoAConstants.sol\":4170:4657  if (tokenId >= DoAConstants.RARE_NFT_START_INDEX && tokenId < DoAConstants.UNCOMMON_NFT_START_INDEX) {... */\n    tag_242:\n        /* \"DoAConstants.sol\":4011:4657  if (tokenId >= DoAConstants.LEGEND_NFT_START_INDEX && tokenId < DoAConstants.RARE_NFT_START_INDEX) {... */\n    tag_239:\n        /* \"DoAConstants.sol\":3854:4657  if (tokenId >= DoAConstants.HERO_NFT_START_INDEX && tokenId < DoAConstants.LEGEND_NFT_START_INDEX) {... */\n    tag_236:\n        /* \"DoAConstants.sol\":3747:4691  function getClassForTokenId(uint256 tokenId) public pure returns (NFT_CLASS tokenClass) {... */\n      swap2\n      swap1\n      pop\n      jump\t// out\n        /* \"DoAConstants.sol\":3641:3690  uint8 public constant PUBLIC_FUND_PERCENTAGE = 60 */\n    tag_159:\n        /* \"DoAConstants.sol\":3688:3690  60 */\n      0x3c\n        /* \"DoAConstants.sol\":3641:3690  uint8 public constant PUBLIC_FUND_PERCENTAGE = 60 */\n      dup2\n      jump\t// out\n        /* \"DoAConstants.sol\":1398:1444  uint16 public constant HERO_NFT_SUPPLY_3rd = 0 */\n    tag_163:\n        /* \"DoAConstants.sol\":1443:1444  0 */\n      0x00\n        /* \"DoAConstants.sol\":1398:1444  uint16 public constant HERO_NFT_SUPPLY_3rd = 0 */\n      dup2\n      jump\t// out\n        /* \"DoAConstants.sol\":1248:1300  uint16 public constant UNCOMMON_NFT_SUPPLY_2nd = 250 */\n    tag_166:\n        /* \"DoAConstants.sol\":1297:1300  250 */\n      0xfa\n        /* \"DoAConstants.sol\":1248:1300  uint16 public constant UNCOMMON_NFT_SUPPLY_2nd = 250 */\n      dup2\n      jump\t// out\n        /* \"DoAConstants.sol\":5912:6069  function testClassForTokenId(uint256 tokenId) public pure returns (string memory className) {... */\n    tag_170:\n        /* \"DoAConstants.sol\":5979:6002  string memory className */\n      0x60\n        /* \"DoAConstants.sol\":6021:6062  getClassName(getClassForTokenId(tokenId)) */\n      tag_251\n        /* \"DoAConstants.sol\":6034:6061  getClassForTokenId(tokenId) */\n      tag_252\n        /* \"DoAConstants.sol\":6053:6060  tokenId */\n      dup4\n        /* \"DoAConstants.sol\":6034:6052  getClassForTokenId */\n      tag_155\n        /* \"DoAConstants.sol\":6034:6061  getClassForTokenId(tokenId) */\n      jump\t// in\n    tag_252:\n        /* \"DoAConstants.sol\":6021:6033  getClassName */\n      tag_102\n        /* \"DoAConstants.sol\":6021:6062  getClassName(getClassForTokenId(tokenId)) */\n      jump\t// in\n    tag_251:\n        /* \"DoAConstants.sol\":6014:6062  return getClassName(getClassForTokenId(tokenId)) */\n      swap1\n      pop\n        /* \"DoAConstants.sol\":5912:6069  function testClassForTokenId(uint256 tokenId) public pure returns (string memory className) {... */\n      swap2\n      swap1\n      pop\n      jump\t// out\n        /* \"#utility.yul\":7:96   */\n    tag_253:\n        /* \"#utility.yul\":43:50   */\n      0x00\n        /* \"#utility.yul\":83:89   */\n      0xffff\n        /* \"#utility.yul\":76:81   */\n      dup3\n        /* \"#utility.yul\":72:90   */\n      and\n        /* \"#utility.yul\":61:90   */\n      swap1\n      pop\n        /* \"#utility.yul\":7:96   */\n      swap2\n      swap1\n      pop\n      jump\t// out\n        /* \"#utility.yul\":102:225   */\n    tag_254:\n        /* \"#utility.yul\":195:218   */\n      tag_285\n        /* \"#utility.yul\":212:217   */\n      dup2\n        /* \"#utility.yul\":195:218   */\n      tag_253\n      jump\t// in\n    tag_285:\n        /* \"#utility.yul\":190:193   */\n      dup3\n        /* \"#utility.yul\":183:219   */\n      mstore\n        /* \"#utility.yul\":102:225   */\n      pop\n      pop\n      jump\t// out\n        /* \"#utility.yul\":231:465   */\n    tag_50:\n        /* \"#utility.yul\":330:334   */\n      0x00\n        /* \"#utility.yul\":368:370   */\n      0x20\n        /* \"#utility.yul\":357:366   */\n      dup3\n        /* \"#utility.yul\":353:371   */\n      add\n        /* \"#utility.yul\":345:371   */\n      swap1\n      pop\n        /* \"#utility.yul\":381:458   */\n      tag_287\n        /* \"#utility.yul\":455:456   */\n      0x00\n        /* \"#utility.yul\":444:453   */\n      dup4\n        /* \"#utility.yul\":440:457   */\n      add\n        /* \"#utility.yul\":431:437   */\n      dup5\n        /* \"#utility.yul\":381:458   */\n      tag_254\n      jump\t// in\n    tag_287:\n        /* \"#utility.yul\":231:465   */\n      swap3\n      swap2\n      pop\n      pop\n      jump\t// out\n        /* \"#utility.yul\":471:570   */\n    tag_255:\n        /* \"#utility.yul\":523:529   */\n      0x00\n        /* \"#utility.yul\":557:562   */\n      dup2\n        /* \"#utility.yul\":551:563   */\n      mload\n        /* \"#utility.yul\":541:563   */\n      swap1\n      pop\n        /* \"#utility.yul\":471:570   */\n      swap2\n      swap1\n      pop\n      jump\t// out\n        /* \"#utility.yul\":576:753   */\n    tag_256:\n        /* \"#utility.yul\":668:679   */\n      0x00\n        /* \"#utility.yul\":702:708   */\n      dup3\n        /* \"#utility.yul\":697:700   */\n      dup3\n        /* \"#utility.yul\":690:709   */\n      mstore\n        /* \"#utility.yul\":742:746   */\n      0x20\n        /* \"#utility.yul\":737:740   */\n      dup3\n        /* \"#utility.yul\":733:747   */\n      add\n        /* \"#utility.yul\":718:747   */\n      swap1\n      pop\n        /* \"#utility.yul\":576:753   */\n      swap3\n      swap2\n      pop\n      pop\n      jump\t// out\n        /* \"#utility.yul\":759:1005   */\n    tag_257:\n        /* \"#utility.yul\":840:841   */\n      0x00\n        /* \"#utility.yul\":850:963   */\n    tag_291:\n        /* \"#utility.yul\":864:870   */\n      dup4\n        /* \"#utility.yul\":861:862   */\n      dup2\n        /* \"#utility.yul\":858:871   */\n      lt\n        /* \"#utility.yul\":850:963   */\n      iszero\n      tag_293\n      jumpi\n        /* \"#utility.yul\":949:950   */\n      dup1\n        /* \"#utility.yul\":944:947   */\n      dup3\n        /* \"#utility.yul\":940:951   */\n      add\n        /* \"#utility.yul\":934:952   */\n      mload\n        /* \"#utility.yul\":930:931   */\n      dup2\n        /* \"#utility.yul\":925:928   */\n      dup5\n        /* \"#utility.yul\":921:932   */\n      add\n        /* \"#utility.yul\":914:953   */\n      mstore\n        /* \"#utility.yul\":886:888   */\n      0x20\n        /* \"#utility.yul\":883:884   */\n      dup2\n        /* \"#utility.yul\":879:889   */\n      add\n        /* \"#utility.yul\":874:889   */\n      swap1\n      pop\n        /* \"#utility.yul\":850:963   */\n      jump(tag_291)\n    tag_293:\n        /* \"#utility.yul\":997:998   */\n      0x00\n        /* \"#utility.yul\":988:994   */\n      dup5\n        /* \"#utility.yul\":983:986   */\n      dup5\n        /* \"#utility.yul\":979:995   */\n      add\n        /* \"#utility.yul\":972:999   */\n      mstore\n        /* \"#utility.yul\":821:1005   */\n      pop\n        /* \"#utility.yul\":759:1005   */\n      pop\n      pop\n      pop\n      jump\t// out\n        /* \"#utility.yul\":1011:1113   */\n    tag_258:\n        /* \"#utility.yul\":1052:1058   */\n      0x00\n        /* \"#utility.yul\":1103:1105   */\n      0x1f\n        /* \"#utility.yul\":1099:1106   */\n      not\n        /* \"#utility.yul\":1094:1096   */\n      0x1f\n        /* \"#utility.yul\":1087:1092   */\n      dup4\n        /* \"#utility.yul\":1083:1097   */\n      add\n        /* \"#utility.yul\":1079:1107   */\n      and\n        /* \"#utility.yul\":1069:1107   */\n      swap1\n      pop\n        /* \"#utility.yul\":1011:1113   */\n      swap2\n      swap1\n      pop\n      jump\t// out\n        /* \"#utility.yul\":1119:1512   */\n    tag_259:\n        /* \"#utility.yul\":1215:1218   */\n      0x00\n        /* \"#utility.yul\":1243:1282   */\n      tag_296\n        /* \"#utility.yul\":1276:1281   */\n      dup3\n        /* \"#utility.yul\":1243:1282   */\n      tag_255\n      jump\t// in\n    tag_296:\n        /* \"#utility.yul\":1298:1377   */\n      tag_297\n        /* \"#utility.yul\":1370:1376   */\n      dup2\n        /* \"#utility.yul\":1365:1368   */\n      dup6\n        /* \"#utility.yul\":1298:1377   */\n      tag_256\n      jump\t// in\n    tag_297:\n        /* \"#utility.yul\":1291:1377   */\n      swap4\n      pop\n        /* \"#utility.yul\":1386:1451   */\n      tag_298\n        /* \"#utility.yul\":1444:1450   */\n      dup2\n        /* \"#utility.yul\":1439:1442   */\n      dup6\n        /* \"#utility.yul\":1432:1436   */\n      0x20\n        /* \"#utility.yul\":1425:1430   */\n      dup7\n        /* \"#utility.yul\":1421:1437   */\n      add\n        /* \"#utility.yul\":1386:1451   */\n      tag_257\n      jump\t// in\n    tag_298:\n        /* \"#utility.yul\":1476:1505   */\n      tag_299\n        /* \"#utility.yul\":1498:1504   */\n      dup2\n        /* \"#utility.yul\":1476:1505   */\n      tag_258\n      jump\t// in\n    tag_299:\n        /* \"#utility.yul\":1471:1474   */\n      dup5\n        /* \"#utility.yul\":1467:1506   */\n      add\n        /* \"#utility.yul\":1460:1506   */\n      swap2\n      pop\n        /* \"#utility.yul\":1219:1512   */\n      pop\n        /* \"#utility.yul\":1119:1512   */\n      swap3\n      swap2\n      pop\n      pop\n      jump\t// out\n        /* \"#utility.yul\":1518:1847   */\n    tag_60:\n        /* \"#utility.yul\":1639:1643   */\n      0x00\n        /* \"#utility.yul\":1677:1679   */\n      0x20\n        /* \"#utility.yul\":1666:1675   */\n      dup3\n        /* \"#utility.yul\":1662:1680   */\n      add\n        /* \"#utility.yul\":1654:1680   */\n      swap1\n      pop\n        /* \"#utility.yul\":1726:1735   */\n      dup2\n        /* \"#utility.yul\":1720:1724   */\n      dup2\n        /* \"#utility.yul\":1716:1736   */\n      sub\n        /* \"#utility.yul\":1712:1713   */\n      0x00\n        /* \"#utility.yul\":1701:1710   */\n      dup4\n        /* \"#utility.yul\":1697:1714   */\n      add\n        /* \"#utility.yul\":1690:1737   */\n      mstore\n        /* \"#utility.yul\":1754:1840   */\n      tag_301\n        /* \"#utility.yul\":1835:1839   */\n      dup2\n        /* \"#utility.yul\":1826:1832   */\n      dup5\n        /* \"#utility.yul\":1754:1840   */\n      tag_259\n      jump\t// in\n    tag_301:\n        /* \"#utility.yul\":1746:1840   */\n      swap1\n      pop\n        /* \"#utility.yul\":1518:1847   */\n      swap3\n      swap2\n      pop\n      pop\n      jump\t// out\n        /* \"#utility.yul\":1853:1930   */\n    tag_260:\n        /* \"#utility.yul\":1890:1897   */\n      0x00\n        /* \"#utility.yul\":1919:1924   */\n      dup2\n        /* \"#utility.yul\":1908:1924   */\n      swap1\n      pop\n        /* \"#utility.yul\":1853:1930   */\n      swap2\n      swap1\n      pop\n      jump\t// out\n        /* \"#utility.yul\":1936:2062   */\n    tag_261:\n        /* \"#utility.yul\":2031:2055   */\n      tag_304\n        /* \"#utility.yul\":2049:2054   */\n      dup2\n        /* \"#utility.yul\":2031:2055   */\n      tag_260\n      jump\t// in\n    tag_304:\n        /* \"#utility.yul\":2026:2029   */\n      dup3\n        /* \"#utility.yul\":2019:2056   */\n      mstore\n        /* \"#utility.yul\":1936:2062   */\n      pop\n      pop\n      jump\t// out\n        /* \"#utility.yul\":2068:2306   */\n    tag_70:\n        /* \"#utility.yul\":2169:2173   */\n      0x00\n        /* \"#utility.yul\":2207:2209   */\n      0x20\n        /* \"#utility.yul\":2196:2205   */\n      dup3\n        /* \"#utility.yul\":2192:2210   */\n      add\n        /* \"#utility.yul\":2184:2210   */\n      swap1\n      pop\n        /* \"#utility.yul\":2220:2299   */\n      tag_306\n        /* \"#utility.yul\":2296:2297   */\n      0x00\n        /* \"#utility.yul\":2285:2294   */\n      dup4\n        /* \"#utility.yul\":2281:2298   */\n      add\n        /* \"#utility.yul\":2272:2278   */\n      dup5\n        /* \"#utility.yul\":2220:2299   */\n      tag_261\n      jump\t// in\n    tag_306:\n        /* \"#utility.yul\":2068:2306   */\n      swap3\n      swap2\n      pop\n      pop\n      jump\t// out\n        /* \"#utility.yul\":2393:2510   */\n    tag_263:\n        /* \"#utility.yul\":2502:2503   */\n      0x00\n        /* \"#utility.yul\":2499:2500   */\n      dup1\n        /* \"#utility.yul\":2492:2504   */\n      revert\n        /* \"#utility.yul\":2639:2752   */\n    tag_265:\n        /* \"#utility.yul\":2726:2727   */\n      0x05\n        /* \"#utility.yul\":2719:2724   */\n      dup2\n        /* \"#utility.yul\":2716:2728   */\n      lt\n        /* \"#utility.yul\":2706:2746   */\n      tag_311\n      jumpi\n        /* \"#utility.yul\":2742:2743   */\n      0x00\n        /* \"#utility.yul\":2739:2740   */\n      dup1\n        /* \"#utility.yul\":2732:2744   */\n      revert\n        /* \"#utility.yul\":2706:2746   */\n    tag_311:\n        /* \"#utility.yul\":2639:2752   */\n      pop\n      jump\t// out\n        /* \"#utility.yul\":2758:2925   */\n    tag_266:\n        /* \"#utility.yul\":2818:2823   */\n      0x00\n        /* \"#utility.yul\":2856:2862   */\n      dup2\n        /* \"#utility.yul\":2843:2863   */\n      calldataload\n        /* \"#utility.yul\":2834:2863   */\n      swap1\n      pop\n        /* \"#utility.yul\":2872:2919   */\n      tag_313\n        /* \"#utility.yul\":2913:2918   */\n      dup2\n        /* \"#utility.yul\":2872:2919   */\n      tag_265\n      jump\t// in\n    tag_313:\n        /* \"#utility.yul\":2758:2925   */\n      swap3\n      swap2\n      pop\n      pop\n      jump\t// out\n        /* \"#utility.yul\":2931:3288   */\n    tag_88:\n        /* \"#utility.yul\":3004:3010   */\n      0x00\n        /* \"#utility.yul\":3053:3055   */\n      0x20\n        /* \"#utility.yul\":3041:3050   */\n      dup3\n        /* \"#utility.yul\":3032:3039   */\n      dup5\n        /* \"#utility.yul\":3028:3051   */\n      sub\n        /* \"#utility.yul\":3024:3056   */\n      slt\n        /* \"#utility.yul\":3021:3140   */\n      iszero\n      tag_315\n      jumpi\n        /* \"#utility.yul\":3059:3138   */\n      tag_316\n      tag_263\n      jump\t// in\n    tag_316:\n        /* \"#utility.yul\":3021:3140   */\n    tag_315:\n        /* \"#utility.yul\":3179:3180   */\n      0x00\n        /* \"#utility.yul\":3204:3271   */\n      tag_317\n        /* \"#utility.yul\":3263:3270   */\n      dup5\n        /* \"#utility.yul\":3254:3260   */\n      dup3\n        /* \"#utility.yul\":3243:3252   */\n      dup6\n        /* \"#utility.yul\":3239:3261   */\n      add\n        /* \"#utility.yul\":3204:3271   */\n      tag_266\n      jump\t// in\n    tag_317:\n        /* \"#utility.yul\":3194:3271   */\n      swap2\n      pop\n        /* \"#utility.yul\":3150:3281   */\n      pop\n        /* \"#utility.yul\":2931:3288   */\n      swap3\n      swap2\n      pop\n      pop\n      jump\t// out\n        /* \"#utility.yul\":3294:3416   */\n    tag_267:\n        /* \"#utility.yul\":3367:3391   */\n      tag_319\n        /* \"#utility.yul\":3385:3390   */\n      dup2\n        /* \"#utility.yul\":3367:3391   */\n      tag_260\n      jump\t// in\n    tag_319:\n        /* \"#utility.yul\":3360:3365   */\n      dup2\n        /* \"#utility.yul\":3357:3392   */\n      eq\n        /* \"#utility.yul\":3347:3410   */\n      tag_320\n      jumpi\n        /* \"#utility.yul\":3406:3407   */\n      0x00\n        /* \"#utility.yul\":3403:3404   */\n      dup1\n        /* \"#utility.yul\":3396:3408   */\n      revert\n        /* \"#utility.yul\":3347:3410   */\n    tag_320:\n        /* \"#utility.yul\":3294:3416   */\n      pop\n      jump\t// out\n        /* \"#utility.yul\":3422:3561   */\n    tag_268:\n        /* \"#utility.yul\":3468:3473   */\n      0x00\n        /* \"#utility.yul\":3506:3512   */\n      dup2\n        /* \"#utility.yul\":3493:3513   */\n      calldataload\n        /* \"#utility.yul\":3484:3513   */\n      swap1\n      pop\n        /* \"#utility.yul\":3522:3555   */\n      tag_322\n        /* \"#utility.yul\":3549:3554   */\n      dup2\n        /* \"#utility.yul\":3522:3555   */\n      tag_267\n      jump\t// in\n    tag_322:\n        /* \"#utility.yul\":3422:3561   */\n      swap3\n      swap2\n      pop\n      pop\n      jump\t// out\n        /* \"#utility.yul\":3567:3896   */\n    tag_154:\n        /* \"#utility.yul\":3626:3632   */\n      0x00\n        /* \"#utility.yul\":3675:3677   */\n      0x20\n        /* \"#utility.yul\":3663:3672   */\n      dup3\n        /* \"#utility.yul\":3654:3661   */\n      dup5\n        /* \"#utility.yul\":3650:3673   */\n      sub\n        /* \"#utility.yul\":3646:3678   */\n      slt\n        /* \"#utility.yul\":3643:3762   */\n      iszero\n      tag_324\n      jumpi\n        /* \"#utility.yul\":3681:3760   */\n      tag_325\n      tag_263\n      jump\t// in\n    tag_325:\n        /* \"#utility.yul\":3643:3762   */\n    tag_324:\n        /* \"#utility.yul\":3801:3802   */\n      0x00\n        /* \"#utility.yul\":3826:3879   */\n      tag_326\n        /* \"#utility.yul\":3871:3878   */\n      dup5\n        /* \"#utility.yul\":3862:3868   */\n      dup3\n        /* \"#utility.yul\":3851:3860   */\n      dup6\n        /* \"#utility.yul\":3847:3869   */\n      add\n        /* \"#utility.yul\":3826:3879   */\n      tag_268\n      jump\t// in\n    tag_326:\n        /* \"#utility.yul\":3816:3879   */\n      swap2\n      pop\n        /* \"#utility.yul\":3772:3889   */\n      pop\n        /* \"#utility.yul\":3567:3896   */\n      swap3\n      swap2\n      pop\n      pop\n      jump\t// out\n        /* \"#utility.yul\":3902:4082   */\n    tag_175:\n        /* \"#utility.yul\":3950:4027   */\n      0x4e487b7100000000000000000000000000000000000000000000000000000000\n        /* \"#utility.yul\":3947:3948   */\n      0x00\n        /* \"#utility.yul\":3940:4028   */\n      mstore\n        /* \"#utility.yul\":4047:4051   */\n      0x21\n        /* \"#utility.yul\":4044:4045   */\n      0x04\n        /* \"#utility.yul\":4037:4052   */\n      mstore\n        /* \"#utility.yul\":4071:4075   */\n      0x24\n        /* \"#utility.yul\":4068:4069   */\n      0x00\n        /* \"#utility.yul\":4061:4076   */\n      revert\n        /* \"#utility.yul\":4088:4207   */\n    tag_269:\n        /* \"#utility.yul\":4175:4176   */\n      0x05\n        /* \"#utility.yul\":4168:4173   */\n      dup2\n        /* \"#utility.yul\":4165:4177   */\n      lt\n        /* \"#utility.yul\":4155:4201   */\n      tag_329\n      jumpi\n        /* \"#utility.yul\":4181:4199   */\n      tag_330\n      tag_175\n      jump\t// in\n    tag_330:\n        /* \"#utility.yul\":4155:4201   */\n    tag_329:\n        /* \"#utility.yul\":4088:4207   */\n      pop\n      jump\t// out\n        /* \"#utility.yul\":4213:4352   */\n    tag_270:\n        /* \"#utility.yul\":4264:4271   */\n      0x00\n        /* \"#utility.yul\":4293:4298   */\n      dup2\n        /* \"#utility.yul\":4282:4298   */\n      swap1\n      pop\n        /* \"#utility.yul\":4299:4346   */\n      tag_332\n        /* \"#utility.yul\":4340:4345   */\n      dup3\n        /* \"#utility.yul\":4299:4346   */\n      tag_269\n      jump\t// in\n    tag_332:\n        /* \"#utility.yul\":4213:4352   */\n      swap2\n      swap1\n      pop\n      jump\t// out\n        /* \"#utility.yul\":4358:4497   */\n    tag_271:\n        /* \"#utility.yul\":4420:4429   */\n      0x00\n        /* \"#utility.yul\":4453:4491   */\n      tag_334\n        /* \"#utility.yul\":4485:4490   */\n      dup3\n        /* \"#utility.yul\":4453:4491   */\n      tag_270\n      jump\t// in\n    tag_334:\n        /* \"#utility.yul\":4440:4491   */\n      swap1\n      pop\n        /* \"#utility.yul\":4358:4497   */\n      swap2\n      swap1\n      pop\n      jump\t// out\n        /* \"#utility.yul\":4503:4666   */\n    tag_272:\n        /* \"#utility.yul\":4610:4659   */\n      tag_336\n        /* \"#utility.yul\":4653:4658   */\n      dup2\n        /* \"#utility.yul\":4610:4659   */\n      tag_271\n      jump\t// in\n    tag_336:\n        /* \"#utility.yul\":4605:4608   */\n      dup3\n        /* \"#utility.yul\":4598:4660   */\n      mstore\n        /* \"#utility.yul\":4503:4666   */\n      pop\n      pop\n      jump\t// out\n        /* \"#utility.yul\":4672:4934   */\n    tag_157:\n        /* \"#utility.yul\":4785:4789   */\n      0x00\n        /* \"#utility.yul\":4823:4825   */\n      0x20\n        /* \"#utility.yul\":4812:4821   */\n      dup3\n        /* \"#utility.yul\":4808:4826   */\n      add\n        /* \"#utility.yul\":4800:4826   */\n      swap1\n      pop\n        /* \"#utility.yul\":4836:4927   */\n      tag_338\n        /* \"#utility.yul\":4924:4925   */\n      0x00\n        /* \"#utility.yul\":4913:4922   */\n      dup4\n        /* \"#utility.yul\":4909:4926   */\n      add\n        /* \"#utility.yul\":4900:4906   */\n      dup5\n        /* \"#utility.yul\":4836:4927   */\n      tag_272\n      jump\t// in\n    tag_338:\n        /* \"#utility.yul\":4672:4934   */\n      swap3\n      swap2\n      pop\n      pop\n      jump\t// out\n        /* \"#utility.yul\":4940:5026   */\n    tag_273:\n        /* \"#utility.yul\":4975:4982   */\n      0x00\n        /* \"#utility.yul\":5015:5019   */\n      0xff\n        /* \"#utility.yul\":5008:5013   */\n      dup3\n        /* \"#utility.yul\":5004:5020   */\n      and\n        /* \"#utility.yul\":4993:5020   */\n      swap1\n      pop\n        /* \"#utility.yul\":4940:5026   */\n      swap2\n      swap1\n      pop\n      jump\t// out\n        /* \"#utility.yul\":5032:5152   */\n    tag_274:\n        /* \"#utility.yul\":5123:5145   */\n      tag_341\n        /* \"#utility.yul\":5139:5144   */\n      dup2\n        /* \"#utility.yul\":5123:5145   */\n      tag_273\n      jump\t// in\n    tag_341:\n        /* \"#utility.yul\":5118:5121   */\n      dup3\n        /* \"#utility.yul\":5111:5146   */\n      mstore\n        /* \"#utility.yul\":5032:5152   */\n      pop\n      pop\n      jump\t// out\n        /* \"#utility.yul\":5158:5388   */\n    tag_161:\n        /* \"#utility.yul\":5255:5259   */\n      0x00\n        /* \"#utility.yul\":5293:5295   */\n      0x20\n        /* \"#utility.yul\":5282:5291   */\n      dup3\n        /* \"#utility.yul\":5278:5296   */\n      add\n        /* \"#utility.yul\":5270:5296   */\n      swap1\n      pop\n        /* \"#utility.yul\":5306:5381   */\n      tag_343\n        /* \"#utility.yul\":5378:5379   */\n      0x00\n        /* \"#utility.yul\":5367:5376   */\n      dup4\n        /* \"#utility.yul\":5363:5380   */\n      add\n        /* \"#utility.yul\":5354:5360   */\n      dup5\n        /* \"#utility.yul\":5306:5381   */\n      tag_274\n      jump\t// in\n    tag_343:\n        /* \"#utility.yul\":5158:5388   */\n      swap3\n      swap2\n      pop\n      pop\n      jump\t// out\n        /* \"#utility.yul\":5394:5563   */\n    tag_275:\n        /* \"#utility.yul\":5478:5489   */\n      0x00\n        /* \"#utility.yul\":5512:5518   */\n      dup3\n        /* \"#utility.yul\":5507:5510   */\n      dup3\n        /* \"#utility.yul\":5500:5519   */\n      mstore\n        /* \"#utility.yul\":5552:5556   */\n      0x20\n        /* \"#utility.yul\":5547:5550   */\n      dup3\n        /* \"#utility.yul\":5543:5557   */\n      add\n        /* \"#utility.yul\":5528:5557   */\n      swap1\n      pop\n        /* \"#utility.yul\":5394:5563   */\n      swap3\n      swap2\n      pop\n      pop\n      jump\t// out\n        /* \"#utility.yul\":5569:5732   */\n    tag_276:\n        /* \"#utility.yul\":5709:5724   */\n      0x496e76616c696420636c61737300000000000000000000000000000000000000\n        /* \"#utility.yul\":5705:5706   */\n      0x00\n        /* \"#utility.yul\":5697:5703   */\n      dup3\n        /* \"#utility.yul\":5693:5707   */\n      add\n        /* \"#utility.yul\":5686:5725   */\n      mstore\n        /* \"#utility.yul\":5569:5732   */\n      pop\n      jump\t// out\n        /* \"#utility.yul\":5738:6104   */\n    tag_277:\n        /* \"#utility.yul\":5880:5883   */\n      0x00\n        /* \"#utility.yul\":5901:5968   */\n      tag_347\n        /* \"#utility.yul\":5965:5967   */\n      0x0d\n        /* \"#utility.yul\":5960:5963   */\n      dup4\n        /* \"#utility.yul\":5901:5968   */\n      tag_275\n      jump\t// in\n    tag_347:\n        /* \"#utility.yul\":5894:5968   */\n      swap2\n      pop\n        /* \"#utility.yul\":5977:6070   */\n      tag_348\n        /* \"#utility.yul\":6066:6069   */\n      dup3\n        /* \"#utility.yul\":5977:6070   */\n      tag_276\n      jump\t// in\n    tag_348:\n        /* \"#utility.yul\":6095:6097   */\n      0x20\n        /* \"#utility.yul\":6090:6093   */\n      dup3\n        /* \"#utility.yul\":6086:6098   */\n      add\n        /* \"#utility.yul\":6079:6098   */\n      swap1\n      pop\n        /* \"#utility.yul\":5738:6104   */\n      swap2\n      swap1\n      pop\n      jump\t// out\n        /* \"#utility.yul\":6110:6529   */\n    tag_199:\n        /* \"#utility.yul\":6276:6280   */\n      0x00\n        /* \"#utility.yul\":6314:6316   */\n      0x20\n        /* \"#utility.yul\":6303:6312   */\n      dup3\n        /* \"#utility.yul\":6299:6317   */\n      add\n        /* \"#utility.yul\":6291:6317   */\n      swap1\n      pop\n        /* \"#utility.yul\":6363:6372   */\n      dup2\n        /* \"#utility.yul\":6357:6361   */\n      dup2\n        /* \"#utility.yul\":6353:6373   */\n      sub\n        /* \"#utility.yul\":6349:6350   */\n      0x00\n        /* \"#utility.yul\":6338:6347   */\n      dup4\n        /* \"#utility.yul\":6334:6351   */\n      add\n        /* \"#utility.yul\":6327:6374   */\n      mstore\n        /* \"#utility.yul\":6391:6522   */\n      tag_350\n        /* \"#utility.yul\":6517:6521   */\n      dup2\n        /* \"#utility.yul\":6391:6522   */\n      tag_277\n      jump\t// in\n    tag_350:\n        /* \"#utility.yul\":6383:6522   */\n      swap1\n      pop\n        /* \"#utility.yul\":6110:6529   */\n      swap2\n      swap1\n      pop\n      jump\t// out\n        /* \"#utility.yul\":6535:6704   */\n    tag_278:\n        /* \"#utility.yul\":6675:6696   */\n      0x496e76616c696420746f6b656e20636c61737300000000000000000000000000\n        /* \"#utility.yul\":6671:6672   */\n      0x00\n        /* \"#utility.yul\":6663:6669   */\n      dup3\n        /* \"#utility.yul\":6659:6673   */\n      add\n        /* \"#utility.yul\":6652:6697   */\n      mstore\n        /* \"#utility.yul\":6535:6704   */\n      pop\n      jump\t// out\n        /* \"#utility.yul\":6710:7076   */\n    tag_279:\n        /* \"#utility.yul\":6852:6855   */\n      0x00\n        /* \"#utility.yul\":6873:6940   */\n      tag_353\n        /* \"#utility.yul\":6937:6939   */\n      0x13\n        /* \"#utility.yul\":6932:6935   */\n      dup4\n        /* \"#utility.yul\":6873:6940   */\n      tag_275\n      jump\t// in\n    tag_353:\n        /* \"#utility.yul\":6866:6940   */\n      swap2\n      pop\n        /* \"#utility.yul\":6949:7042   */\n      tag_354\n        /* \"#utility.yul\":7038:7041   */\n      dup3\n        /* \"#utility.yul\":6949:7042   */\n      tag_278\n      jump\t// in\n    tag_354:\n        /* \"#utility.yul\":7067:7069   */\n      0x20\n        /* \"#utility.yul\":7062:7065   */\n      dup3\n        /* \"#utility.yul\":7058:7070   */\n      add\n        /* \"#utility.yul\":7051:7070   */\n      swap1\n      pop\n        /* \"#utility.yul\":6710:7076   */\n      swap2\n      swap1\n      pop\n      jump\t// out\n        /* \"#utility.yul\":7082:7501   */\n    tag_232:\n        /* \"#utility.yul\":7248:7252   */\n      0x00\n        /* \"#utility.yul\":7286:7288   */\n      0x20\n        /* \"#utility.yul\":7275:7284   */\n      dup3\n        /* \"#utility.yul\":7271:7289   */\n      add\n        /* \"#utility.yul\":7263:7289   */\n      swap1\n      pop\n        /* \"#utility.yul\":7335:7344   */\n      dup2\n        /* \"#utility.yul\":7329:7333   */\n      dup2\n        /* \"#utility.yul\":7325:7345   */\n      sub\n        /* \"#utility.yul\":7321:7322   */\n      0x00\n        /* \"#utility.yul\":7310:7319   */\n      dup4\n        /* \"#utility.yul\":7306:7323   */\n      add\n        /* \"#utility.yul\":7299:7346   */\n      mstore\n        /* \"#utility.yul\":7363:7494   */\n      tag_356\n        /* \"#utility.yul\":7489:7493   */\n      dup2\n        /* \"#utility.yul\":7363:7494   */\n      tag_279\n      jump\t// in\n    tag_356:\n        /* \"#utility.yul\":7355:7494   */\n      swap1\n      pop\n        /* \"#utility.yul\":7082:7501   */\n      swap2\n      swap1\n      pop\n      jump\t// out\n        /* \"#utility.yul\":7507:7673   */\n    tag_280:\n        /* \"#utility.yul\":7647:7665   */\n      0x496e76616c696420746f6b656e20494400000000000000000000000000000000\n        /* \"#utility.yul\":7643:7644   */\n      0x00\n        /* \"#utility.yul\":7635:7641   */\n      dup3\n        /* \"#utility.yul\":7631:7645   */\n      add\n        /* \"#utility.yul\":7624:7666   */\n      mstore\n        /* \"#utility.yul\":7507:7673   */\n      pop\n      jump\t// out\n        /* \"#utility.yul\":7679:8045   */\n    tag_281:\n        /* \"#utility.yul\":7821:7824   */\n      0x00\n        /* \"#utility.yul\":7842:7909   */\n      tag_359\n        /* \"#utility.yul\":7906:7908   */\n      0x10\n        /* \"#utility.yul\":7901:7904   */\n      dup4\n        /* \"#utility.yul\":7842:7909   */\n      tag_275\n      jump\t// in\n    tag_359:\n        /* \"#utility.yul\":7835:7909   */\n      swap2\n      pop\n        /* \"#utility.yul\":7918:8011   */\n      tag_360\n        /* \"#utility.yul\":8007:8010   */\n      dup3\n        /* \"#utility.yul\":7918:8011   */\n      tag_280\n      jump\t// in\n    tag_360:\n        /* \"#utility.yul\":8036:8038   */\n      0x20\n        /* \"#utility.yul\":8031:8034   */\n      dup3\n        /* \"#utility.yul\":8027:8039   */\n      add\n        /* \"#utility.yul\":8020:8039   */\n      swap1\n      pop\n        /* \"#utility.yul\":7679:8045   */\n      swap2\n      swap1\n      pop\n      jump\t// out\n        /* \"#utility.yul\":8051:8470   */\n    tag_249:\n        /* \"#utility.yul\":8217:8221   */\n      0x00\n        /* \"#utility.yul\":8255:8257   */\n      0x20\n        /* \"#utility.yul\":8244:8253   */\n      dup3\n        /* \"#utility.yul\":8240:8258   */\n      add\n        /* \"#utility.yul\":8232:8258   */\n      swap1\n      pop\n        /* \"#utility.yul\":8304:8313   */\n      dup2\n        /* \"#utility.yul\":8298:8302   */\n      dup2\n        /* \"#utility.yul\":8294:8314   */\n      sub\n        /* \"#utility.yul\":8290:8291   */\n      0x00\n        /* \"#utility.yul\":8279:8288   */\n      dup4\n        /* \"#utility.yul\":8275:8292   */\n      add\n        /* \"#utility.yul\":8268:8315   */\n      mstore\n        /* \"#utility.yul\":8332:8463   */\n      tag_362\n        /* \"#utility.yul\":8458:8462   */\n      dup2\n        /* \"#utility.yul\":8332:8463   */\n      tag_281\n      jump\t// in\n    tag_362:\n        /* \"#utility.yul\":8324:8463   */\n      swap1\n      pop\n        /* \"#utility.yul\":8051:8470   */\n      swap2\n      swap1\n      pop\n      jump\t// out\n\n    auxdata: 0xa26469706673582212207962e6d9f810008cf532599fa7a8ff39a064faaa27845750e28fb49db2c8845d64736f6c63430008130033\n}\n",
				"bytecode": {
					"linkReferences": {},
					"object": "6111bb610053600b82828239805160001a607314610046577f4e487b7100000000000000000000000000000000000000000000000000000000600052600060045260246000fd5b30600052607381538281f3fe730000000000000000000000000000000000000000301460806040526004361061023c5760003560e01c80639ee580481161013a578063ca45f599116100c2578063ed944cb611610086578063ed944cb614610643578063eda1432314610673578063f41dc7d214610691578063f59528d2146106af578063fd642870146106cd5761023c565b8063ca45f599146105ad578063cb937d2b146105cb578063cfc2abb7146105e9578063dbddb26a14610607578063e93e980b146106255761023c565b8063be8ca90511610109578063be8ca90514610517578063beb9e75e14610535578063bf0832ae14610553578063c244e88b14610571578063c525c0c81461058f5761023c565b80639ee580481461049f578063a1bd4a07146104bd578063a1d2002d146104db578063a83179db146104f95761023c565b80635e28c936116101c8578063828d481b1161018c578063828d481b146103f75780638d1da411146104155780638f5236e514610433578063970f6e2f14610463578063971cba96146104815761023c565b80635e28c9361461034f5780636871d79f1461036d5780636b606f0f1461038b5780636e2f5a5f146103a9578063811d5c6c146103d95761023c565b806332a415061161020f57806332a41506146102b957806338d79b52146102d75780634e2ecca1146102f557806358a0d923146103135780635e09346a146103315761023c565b806310a309f31461024157806311f47eb51461025f5780631ab7730c1461027d5780631eb1a2d31461029b575b600080fd5b6102496106fd565b6040516102569190610db6565b60405180910390f35b610267610702565b6040516102749190610db6565b60405180910390f35b610285610708565b6040516102929190610db6565b60405180910390f35b6102a361070e565b6040516102b09190610e61565b60405180910390f35b6102c1610747565b6040516102ce9190610db6565b60405180910390f35b6102df61074c565b6040516102ec9190610db6565b60405180910390f35b6102fd610751565b60405161030a9190610e9c565b60405180910390f35b61031b61075d565b6040516103289190610db6565b60405180910390f35b610339610762565b6040516103469190610db6565b60405180910390f35b610357610767565b6040516103649190610db6565b60405180910390f35b61037561076c565b6040516103829190610e61565b60405180910390f35b6103936107a5565b6040516103a09190610db6565b60405180910390f35b6103c360048036038101906103be9190610ee1565b6107ab565b6040516103d09190610e9c565b60405180910390f35b6103e16108dd565b6040516103ee9190610e61565b60405180910390f35b6103ff610916565b60405161040c9190610db6565b60405180910390f35b61041d61091b565b60405161042a9190610db6565b60405180910390f35b61044d60048036038101906104489190610ee1565b610920565b60405161045a9190610e61565b60405180910390f35b61046b610b72565b6040516104789190610db6565b60405180910390f35b610489610b77565b6040516104969190610db6565b60405180910390f35b6104a7610b7d565b6040516104b49190610e9c565b60405180910390f35b6104c5610b88565b6040516104d29190610db6565b60405180910390f35b6104e3610b8d565b6040516104f09190610db6565b60405180910390f35b610501610b93565b60405161050e9190610db6565b60405180910390f35b61051f610b98565b60405161052c9190610e9c565b60405180910390f35b61053d610ba4565b60405161054a9190610e9c565b60405180910390f35b61055b610baf565b6040516105689190610db6565b60405180910390f35b610579610bb4565b6040516105869190610e61565b60405180910390f35b610597610bed565b6040516105a49190610db6565b60405180910390f35b6105b5610bf3565b6040516105c29190610db6565b60405180910390f35b6105d3610bf9565b6040516105e09190610db6565b60405180910390f35b6105f1610bff565b6040516105fe9190610e61565b60405180910390f35b61060f610c38565b60405161061c9190610e61565b60405180910390f35b61062d610c71565b60405161063a9190610db6565b60405180910390f35b61065d60048036038101906106589190610f3a565b610c76565b60405161066a9190610fde565b60405180910390f35b61067b610d70565b6040516106889190611015565b60405180910390f35b610699610d75565b6040516106a69190610db6565b60405180910390f35b6106b7610d7a565b6040516106c49190610db6565b60405180910390f35b6106e760048036038101906106e29190610f3a565b610d7f565b6040516106f49190610e61565b60405180910390f35b607e81565b61027381565b61061881565b6040518060400160405280601081526020017f2f6c6567656e642f6d657461646174610000000000000000000000000000000081525081565b60b581565b600a81565b6716c2734f97a4000081565b600081565b603281565b601981565b6040518060400160405280601281526020017f2f756e636f6d6d6f6e2f6d65746164617461000000000000000000000000000081525081565b61203a81565b6000600160048111156107c1576107c0610f67565b5b8260048111156107d4576107d3610f67565b5b036107e9576716c2734f97a4000090506108d8565b600260048111156107fd576107fc610f67565b5b8260048111156108105761080f610f67565b5b0361082557670494654067e1000090506108d7565b6003600481111561083957610838610f67565b5b82600481111561084c5761084b610f67565b5b0361086057662e2f6e5e14800090506108d6565b60048081111561087357610872610f67565b5b82600481111561088657610885610f67565b5b0361089a5766ea7aa67b2d000090506108d5565b6040517f08c379a00000000000000000000000000000000000000000000000000000000081526004016108cc9061108d565b60405180910390fd5b5b5b5b919050565b6040518060400160405280601081526020017f2f636f6d6d6f6e2f6d657461646174610000000000000000000000000000000081525081565b607d81565b600181565b60606000600481111561093657610935610f67565b5b82600481111561094957610948610f67565b5b0361098b576040518060400160405280600481526020017f4865726f000000000000000000000000000000000000000000000000000000008152509050610b6d565b6001600481111561099f5761099e610f67565b5b8260048111156109b2576109b1610f67565b5b036109f4576040518060400160405280600681526020017f4c6567656e6400000000000000000000000000000000000000000000000000008152509050610b6c565b60026004811115610a0857610a07610f67565b5b826004811115610a1b57610a1a610f67565b5b03610a5d576040518060400160405280600481526020017f52617265000000000000000000000000000000000000000000000000000000008152509050610b6b565b60036004811115610a7157610a70610f67565b5b826004811115610a8457610a83610f67565b5b03610ac6576040518060400160405280600881526020017f556e636f6d6d6f6e0000000000000000000000000000000000000000000000008152509050610b6a565b600480811115610ad957610ad8610f67565b5b826004811115610aec57610aeb610f67565b5b03610b2e576040518060400160405280600681526020017f436f6d6d6f6e00000000000000000000000000000000000000000000000000008152509050610b69565b6040517f08c379a0000000000000000000000000000000000000000000000000000000008152600401610b60906110f9565b60405180910390fd5b5b5b5b5b919050565b600581565b610c3881565b66ea7aa67b2d000081565b601981565b6107d081565b600081565b670494654067e1000081565b662e2f6e5e14800081565b605081565b6040518060400160405280600e81526020017f2f726172652f6d6574616461746100000000000000000000000000000000000081525081565b6104e281565b61019081565b61168a81565b6040518060400160405280600e81526020017f2f6865726f2f6d6574616461746100000000000000000000000000000000000081525081565b6040518060400160405280601581526020017f697066733a2f2f3c686173683e2f646f612f6e6674000000000000000000000081525081565b601981565b60008061ffff168210158015610c905750601961ffff1682105b15610c9e5760009050610d6b565b601961ffff168210158015610cb75750607e61ffff1682105b15610cc55760019050610d6a565b607e61ffff168210158015610cdf575061027361ffff1682105b15610ced5760029050610d69565b61027361ffff168210158015610d085750610c3861ffff1682105b15610d165760039050610d68565b610c3861ffff168210610d2c5760049050610d67565b6040517f08c379a0000000000000000000000000000000000000000000000000000000008152600401610d5e90611165565b60405180910390fd5b5b5b5b5b919050565b603c81565b600081565b60fa81565b6060610d92610d8d83610c76565b610920565b9050919050565b600061ffff82169050919050565b610db081610d99565b82525050565b6000602082019050610dcb6000830184610da7565b92915050565b600081519050919050565b600082825260208201905092915050565b60005b83811015610e0b578082015181840152602081019050610df0565b60008484015250505050565b6000601f19601f8301169050919050565b6000610e3382610dd1565b610e3d8185610ddc565b9350610e4d818560208601610ded565b610e5681610e17565b840191505092915050565b60006020820190508181036000830152610e7b8184610e28565b905092915050565b6000819050919050565b610e9681610e83565b82525050565b6000602082019050610eb16000830184610e8d565b92915050565b600080fd5b60058110610ec957600080fd5b50565b600081359050610edb81610ebc565b92915050565b600060208284031215610ef757610ef6610eb7565b5b6000610f0584828501610ecc565b91505092915050565b610f1781610e83565b8114610f2257600080fd5b50565b600081359050610f3481610f0e565b92915050565b600060208284031215610f5057610f4f610eb7565b5b6000610f5e84828501610f25565b91505092915050565b7f4e487b7100000000000000000000000000000000000000000000000000000000600052602160045260246000fd5b60058110610fa757610fa6610f67565b5b50565b6000819050610fb882610f96565b919050565b6000610fc882610faa565b9050919050565b610fd881610fbd565b82525050565b6000602082019050610ff36000830184610fcf565b92915050565b600060ff82169050919050565b61100f81610ff9565b82525050565b600060208201905061102a6000830184611006565b92915050565b600082825260208201905092915050565b7f496e76616c696420636c61737300000000000000000000000000000000000000600082015250565b6000611077600d83611030565b915061108282611041565b602082019050919050565b600060208201905081810360008301526110a68161106a565b9050919050565b7f496e76616c696420746f6b656e20636c61737300000000000000000000000000600082015250565b60006110e3601383611030565b91506110ee826110ad565b602082019050919050565b60006020820190508181036000830152611112816110d6565b9050919050565b7f496e76616c696420746f6b656e20494400000000000000000000000000000000600082015250565b600061114f601083611030565b915061115a82611119565b602082019050919050565b6000602082019050818103600083015261117e81611142565b905091905056fea26469706673582212207962e6d9f810008cf532599fa7a8ff39a064faaa27845750e28fb49db2c8845d64736f6c63430008130033",
					"opcodes": "PUSH2 0x11BB PUSH2 0x53 PUSH1 0xB DUP3 DUP3 DUP3 CODECOPY DUP1 MLOAD PUSH1 0x0 BYTE PUSH1 0x73 EQ PUSH2 0x46 JUMPI PUSH32 0x4E487B7100000000000000000000000000000000000000000000000000000000 PUSH1 0x0 MSTORE PUSH1 0x0 PUSH1 0x4 MSTORE PUSH1 0x24 PUSH1 0x0 REVERT JUMPDEST ADDRESS PUSH1 0x0 MSTORE PUSH1 0x73 DUP2 MSTORE8 DUP3 DUP2 RETURN INVALID PUSH20 0x0 ADDRESS EQ PUSH1 0x80 PUSH1 0x40 MSTORE PUSH1 0x4 CALLDATASIZE LT PUSH2 0x23C JUMPI PUSH1 0x0 CALLDATALOAD PUSH1 0xE0 SHR DUP1 PUSH4 0x9EE58048 GT PUSH2 0x13A JUMPI DUP1 PUSH4 0xCA45F599 GT PUSH2 0xC2 JUMPI DUP1 PUSH4 0xED944CB6 GT PUSH2 0x86 JUMPI DUP1 PUSH4 0xED944CB6 EQ PUSH2 0x643 JUMPI DUP1 PUSH4 0xEDA14323 EQ PUSH2 0x673 JUMPI DUP1 PUSH4 0xF41DC7D2 EQ PUSH2 0x691 JUMPI DUP1 PUSH4 0xF59528D2 EQ PUSH2 0x6AF JUMPI DUP1 PUSH4 0xFD642870 EQ PUSH2 0x6CD JUMPI PUSH2 0x23C JUMP JUMPDEST DUP1 PUSH4 0xCA45F599 EQ PUSH2 0x5AD JUMPI DUP1 PUSH4 0xCB937D2B EQ PUSH2 0x5CB JUMPI DUP1 PUSH4 0xCFC2ABB7 EQ PUSH2 0x5E9 JUMPI DUP1 PUSH4 0xDBDDB26A EQ PUSH2 0x607 JUMPI DUP1 PUSH4 0xE93E980B EQ PUSH2 0x625 JUMPI PUSH2 0x23C JUMP JUMPDEST DUP1 PUSH4 0xBE8CA905 GT PUSH2 0x109 JUMPI DUP1 PUSH4 0xBE8CA905 EQ PUSH2 0x517 JUMPI DUP1 PUSH4 0xBEB9E75E EQ PUSH2 0x535 JUMPI DUP1 PUSH4 0xBF0832AE EQ PUSH2 0x553 JUMPI DUP1 PUSH4 0xC244E88B EQ PUSH2 0x571 JUMPI DUP1 PUSH4 0xC525C0C8 EQ PUSH2 0x58F JUMPI PUSH2 0x23C JUMP JUMPDEST DUP1 PUSH4 0x9EE58048 EQ PUSH2 0x49F JUMPI DUP1 PUSH4 0xA1BD4A07 EQ PUSH2 0x4BD JUMPI DUP1 PUSH4 0xA1D2002D EQ PUSH2 0x4DB JUMPI DUP1 PUSH4 0xA83179DB EQ PUSH2 0x4F9 JUMPI PUSH2 0x23C JUMP JUMPDEST DUP1 PUSH4 0x5E28C936 GT PUSH2 0x1C8 JUMPI DUP1 PUSH4 0x828D481B GT PUSH2 0x18C JUMPI DUP1 PUSH4 0x828D481B EQ PUSH2 0x3F7 JUMPI DUP1 PUSH4 0x8D1DA411 EQ PUSH2 0x415 JUMPI DUP1 PUSH4 0x8F5236E5 EQ PUSH2 0x433 JUMPI DUP1 PUSH4 0x970F6E2F EQ PUSH2 0x463 JUMPI DUP1 PUSH4 0x971CBA96 EQ PUSH2 0x481 JUMPI PUSH2 0x23C JUMP JUMPDEST DUP1 PUSH4 0x5E28C936 EQ PUSH2 0x34F JUMPI DUP1 PUSH4 0x6871D79F EQ PUSH2 0x36D JUMPI DUP1 PUSH4 0x6B606F0F EQ PUSH2 0x38B JUMPI DUP1 PUSH4 0x6E2F5A5F EQ PUSH2 0x3A9 JUMPI DUP1 PUSH4 0x811D5C6C EQ PUSH2 0x3D9 JUMPI PUSH2 0x23C JUMP JUMPDEST DUP1 PUSH4 0x32A41506 GT PUSH2 0x20F JUMPI DUP1 PUSH4 0x32A41506 EQ PUSH2 0x2B9 JUMPI DUP1 PUSH4 0x38D79B52 EQ PUSH2 0x2D7 JUMPI DUP1 PUSH4 0x4E2ECCA1 EQ PUSH2 0x2F5 JUMPI DUP1 PUSH4 0x58A0D923 EQ PUSH2 0x313 JUMPI DUP1 PUSH4 0x5E09346A EQ PUSH2 0x331 JUMPI PUSH2 0x23C JUMP JUMPDEST DUP1 PUSH4 0x10A309F3 EQ PUSH2 0x241 JUMPI DUP1 PUSH4 0x11F47EB5 EQ PUSH2 0x25F JUMPI DUP1 PUSH4 0x1AB7730C EQ PUSH2 0x27D JUMPI DUP1 PUSH4 0x1EB1A2D3 EQ PUSH2 0x29B JUMPI JUMPDEST PUSH1 0x0 DUP1 REVERT JUMPDEST PUSH2 0x249 PUSH2 0x6FD JUMP JUMPDEST PUSH1 0x40 MLOAD PUSH2 0x256 SWAP2 SWAP1 PUSH2 0xDB6 JUMP JUMPDEST PUSH1 0x40 MLOAD DUP1 SWAP2 SUB SWAP1 RETURN JUMPDEST PUSH2 0x267 PUSH2 0x702 JUMP JUMPDEST PUSH1 0x40 MLOAD PUSH2 0x274 SWAP2 SWAP1 PUSH2 0xDB6 JUMP JUMPDEST PUSH1 0x40 MLOAD DUP1 SWAP2 SUB SWAP1 RETURN JUMPDEST PUSH2 0x285 PUSH2 0x708 JUMP JUMPDEST PUSH1 0x40 MLOAD PUSH2 0x292 SWAP2 SWAP1 PUSH2 0xDB6 JUMP JUMPDEST PUSH1 0x40 MLOAD DUP1 SWAP2 SUB SWAP1 RETURN JUMPDEST PUSH2 0x2A3 PUSH2 0x70E JUMP JUMPDEST PUSH1 0x40 MLOAD PUSH2 0x2B0 SWAP2 SWAP1 PUSH2 0xE61 JUMP JUMPDEST PUSH1 0x40 MLOAD DUP1 SWAP2 SUB SWAP1 RETURN JUMPDEST PUSH2 0x2C1 PUSH2 0x747 JUMP JUMPDEST PUSH1 0x40 MLOAD PUSH2 0x2CE SWAP2 SWAP1 PUSH2 0xDB6 JUMP JUMPDEST PUSH1 0x40 MLOAD DUP1 SWAP2 SUB SWAP1 RETURN JUMPDEST PUSH2 0x2DF PUSH2 0x74C JUMP JUMPDEST PUSH1 0x40 MLOAD PUSH2 0x2EC SWAP2 SWAP1 PUSH2 0xDB6 JUMP JUMPDEST PUSH1 0x40 MLOAD DUP1 SWAP2 SUB SWAP1 RETURN JUMPDEST PUSH2 0x2FD PUSH2 0x751 JUMP JUMPDEST PUSH1 0x40 MLOAD PUSH2 0x30A SWAP2 SWAP1 PUSH2 0xE9C JUMP JUMPDEST PUSH1 0x40 MLOAD DUP1 SWAP2 SUB SWAP1 RETURN JUMPDEST PUSH2 0x31B PUSH2 0x75D JUMP JUMPDEST PUSH1 0x40 MLOAD PUSH2 0x328 SWAP2 SWAP1 PUSH2 0xDB6 JUMP JUMPDEST PUSH1 0x40 MLOAD DUP1 SWAP2 SUB SWAP1 RETURN JUMPDEST PUSH2 0x339 PUSH2 0x762 JUMP JUMPDEST PUSH1 0x40 MLOAD PUSH2 0x346 SWAP2 SWAP1 PUSH2 0xDB6 JUMP JUMPDEST PUSH1 0x40 MLOAD DUP1 SWAP2 SUB SWAP1 RETURN JUMPDEST PUSH2 0x357 PUSH2 0x767 JUMP JUMPDEST PUSH1 0x40 MLOAD PUSH2 0x364 SWAP2 SWAP1 PUSH2 0xDB6 JUMP JUMPDEST PUSH1 0x40 MLOAD DUP1 SWAP2 SUB SWAP1 RETURN JUMPDEST PUSH2 0x375 PUSH2 0x76C JUMP JUMPDEST PUSH1 0x40 MLOAD PUSH2 0x382 SWAP2 SWAP1 PUSH2 0xE61 JUMP JUMPDEST PUSH1 0x40 MLOAD DUP1 SWAP2 SUB SWAP1 RETURN JUMPDEST PUSH2 0x393 PUSH2 0x7A5 JUMP JUMPDEST PUSH1 0x40 MLOAD PUSH2 0x3A0 SWAP2 SWAP1 PUSH2 0xDB6 JUMP JUMPDEST PUSH1 0x40 MLOAD DUP1 SWAP2 SUB SWAP1 RETURN JUMPDEST PUSH2 0x3C3 PUSH1 0x4 DUP1 CALLDATASIZE SUB DUP2 ADD SWAP1 PUSH2 0x3BE SWAP2 SWAP1 PUSH2 0xEE1 JUMP JUMPDEST PUSH2 0x7AB JUMP JUMPDEST PUSH1 0x40 MLOAD PUSH2 0x3D0 SWAP2 SWAP1 PUSH2 0xE9C JUMP JUMPDEST PUSH1 0x40 MLOAD DUP1 SWAP2 SUB SWAP1 RETURN JUMPDEST PUSH2 0x3E1 PUSH2 0x8DD JUMP JUMPDEST PUSH1 0x40 MLOAD PUSH2 0x3EE SWAP2 SWAP1 PUSH2 0xE61 JUMP JUMPDEST PUSH1 0x40 MLOAD DUP1 SWAP2 SUB SWAP1 RETURN JUMPDEST PUSH2 0x3FF PUSH2 0x916 JUMP JUMPDEST PUSH1 0x40 MLOAD PUSH2 0x40C SWAP2 SWAP1 PUSH2 0xDB6 JUMP JUMPDEST PUSH1 0x40 MLOAD DUP1 SWAP2 SUB SWAP1 RETURN JUMPDEST PUSH2 0x41D PUSH2 0x91B JUMP JUMPDEST PUSH1 0x40 MLOAD PUSH2 0x42A SWAP2 SWAP1 PUSH2 0xDB6 JUMP JUMPDEST PUSH1 0x40 MLOAD DUP1 SWAP2 SUB SWAP1 RETURN JUMPDEST PUSH2 0x44D PUSH1 0x4 DUP1 CALLDATASIZE SUB DUP2 ADD SWAP1 PUSH2 0x448 SWAP2 SWAP1 PUSH2 0xEE1 JUMP JUMPDEST PUSH2 0x920 JUMP JUMPDEST PUSH1 0x40 MLOAD PUSH2 0x45A SWAP2 SWAP1 PUSH2 0xE61 JUMP JUMPDEST PUSH1 0x40 MLOAD DUP1 SWAP2 SUB SWAP1 RETURN JUMPDEST PUSH2 0x46B PUSH2 0xB72 JUMP JUMPDEST PUSH1 0x40 MLOAD PUSH2 0x478 SWAP2 SWAP1 PUSH2 0xDB6 JUMP JUMPDEST PUSH1 0x40 MLOAD DUP1 SWAP2 SUB SWAP1 RETURN JUMPDEST PUSH2 0x489 PUSH2 0xB77 JUMP JUMPDEST PUSH1 0x40 MLOAD PUSH2 0x496 SWAP2 SWAP1 PUSH2 0xDB6 JUMP JUMPDEST PUSH1 0x40 MLOAD DUP1 SWAP2 SUB SWAP1 RETURN JUMPDEST PUSH2 0x4A7 PUSH2 0xB7D JUMP JUMPDEST PUSH1 0x40 MLOAD PUSH2 0x4B4 SWAP2 SWAP1 PUSH2 0xE9C JUMP JUMPDEST PUSH1 0x40 MLOAD DUP1 SWAP2 SUB SWAP1 RETURN JUMPDEST PUSH2 0x4C5 PUSH2 0xB88 JUMP JUMPDEST PUSH1 0x40 MLOAD PUSH2 0x4D2 SWAP2 SWAP1 PUSH2 0xDB6 JUMP JUMPDEST PUSH1 0x40 MLOAD DUP1 SWAP2 SUB SWAP1 RETURN JUMPDEST PUSH2 0x4E3 PUSH2 0xB8D JUMP JUMPDEST PUSH1 0x40 MLOAD PUSH2 0x4F0 SWAP2 SWAP1 PUSH2 0xDB6 JUMP JUMPDEST PUSH1 0x40 MLOAD DUP1 SWAP2 SUB SWAP1 RETURN JUMPDEST PUSH2 0x501 PUSH2 0xB93 JUMP JUMPDEST PUSH1 0x40 MLOAD PUSH2 0x50E SWAP2 SWAP1 PUSH2 0xDB6 JUMP JUMPDEST PUSH1 0x40 MLOAD DUP1 SWAP2 SUB SWAP1 RETURN JUMPDEST PUSH2 0x51F PUSH2 0xB98 JUMP JUMPDEST PUSH1 0x40 MLOAD PUSH2 0x52C SWAP2 SWAP1 PUSH2 0xE9C JUMP JUMPDEST PUSH1 0x40 MLOAD DUP1 SWAP2 SUB SWAP1 RETURN JUMPDEST PUSH2 0x53D PUSH2 0xBA4 JUMP JUMPDEST PUSH1 0x40 MLOAD PUSH2 0x54A SWAP2 SWAP1 PUSH2 0xE9C JUMP JUMPDEST PUSH1 0x40 MLOAD DUP1 SWAP2 SUB SWAP1 RETURN JUMPDEST PUSH2 0x55B PUSH2 0xBAF JUMP JUMPDEST PUSH1 0x40 MLOAD PUSH2 0x568 SWAP2 SWAP1 PUSH2 0xDB6 JUMP JUMPDEST PUSH1 0x40 MLOAD DUP1 SWAP2 SUB SWAP1 RETURN JUMPDEST PUSH2 0x579 PUSH2 0xBB4 JUMP JUMPDEST PUSH1 0x40 MLOAD PUSH2 0x586 SWAP2 SWAP1 PUSH2 0xE61 JUMP JUMPDEST PUSH1 0x40 MLOAD DUP1 SWAP2 SUB SWAP1 RETURN JUMPDEST PUSH2 0x597 PUSH2 0xBED JUMP JUMPDEST PUSH1 0x40 MLOAD PUSH2 0x5A4 SWAP2 SWAP1 PUSH2 0xDB6 JUMP JUMPDEST PUSH1 0x40 MLOAD DUP1 SWAP2 SUB SWAP1 RETURN JUMPDEST PUSH2 0x5B5 PUSH2 0xBF3 JUMP JUMPDEST PUSH1 0x40 MLOAD PUSH2 0x5C2 SWAP2 SWAP1 PUSH2 0xDB6 JUMP JUMPDEST PUSH1 0x40 MLOAD DUP1 SWAP2 SUB SWAP1 RETURN JUMPDEST PUSH2 0x5D3 PUSH2 0xBF9 JUMP JUMPDEST PUSH1 0x40 MLOAD PUSH2 0x5E0 SWAP2 SWAP1 PUSH2 0xDB6 JUMP JUMPDEST PUSH1 0x40 MLOAD DUP1 SWAP2 SUB SWAP1 RETURN JUMPDEST PUSH2 0x5F1 PUSH2 0xBFF JUMP JUMPDEST PUSH1 0x40 MLOAD PUSH2 0x5FE SWAP2 SWAP1 PUSH2 0xE61 JUMP JUMPDEST PUSH1 0x40 MLOAD DUP1 SWAP2 SUB SWAP1 RETURN JUMPDEST PUSH2 0x60F PUSH2 0xC38 JUMP JUMPDEST PUSH1 0x40 MLOAD PUSH2 0x61C SWAP2 SWAP1 PUSH2 0xE61 JUMP JUMPDEST PUSH1 0x40 MLOAD DUP1 SWAP2 SUB SWAP1 RETURN JUMPDEST PUSH2 0x62D PUSH2 0xC71 JUMP JUMPDEST PUSH1 0x40 MLOAD PUSH2 0x63A SWAP2 SWAP1 PUSH2 0xDB6 JUMP JUMPDEST PUSH1 0x40 MLOAD DUP1 SWAP2 SUB SWAP1 RETURN JUMPDEST PUSH2 0x65D PUSH1 0x4 DUP1 CALLDATASIZE SUB DUP2 ADD SWAP1 PUSH2 0x658 SWAP2 SWAP1 PUSH2 0xF3A JUMP JUMPDEST PUSH2 0xC76 JUMP JUMPDEST PUSH1 0x40 MLOAD PUSH2 0x66A SWAP2 SWAP1 PUSH2 0xFDE JUMP JUMPDEST PUSH1 0x40 MLOAD DUP1 SWAP2 SUB SWAP1 RETURN JUMPDEST PUSH2 0x67B PUSH2 0xD70 JUMP JUMPDEST PUSH1 0x40 MLOAD PUSH2 0x688 SWAP2 SWAP1 PUSH2 0x1015 JUMP JUMPDEST PUSH1 0x40 MLOAD DUP1 SWAP2 SUB SWAP1 RETURN JUMPDEST PUSH2 0x699 PUSH2 0xD75 JUMP JUMPDEST PUSH1 0x40 MLOAD PUSH2 0x6A6 SWAP2 SWAP1 PUSH2 0xDB6 JUMP JUMPDEST PUSH1 0x40 MLOAD DUP1 SWAP2 SUB SWAP1 RETURN JUMPDEST PUSH2 0x6B7 PUSH2 0xD7A JUMP JUMPDEST PUSH1 0x40 MLOAD PUSH2 0x6C4 SWAP2 SWAP1 PUSH2 0xDB6 JUMP JUMPDEST PUSH1 0x40 MLOAD DUP1 SWAP2 SUB SWAP1 RETURN JUMPDEST PUSH2 0x6E7 PUSH1 0x4 DUP1 CALLDATASIZE SUB DUP2 ADD SWAP1 PUSH2 0x6E2 SWAP2 SWAP1 PUSH2 0xF3A JUMP JUMPDEST PUSH2 0xD7F JUMP JUMPDEST PUSH1 0x40 MLOAD PUSH2 0x6F4 SWAP2 SWAP1 PUSH2 0xE61 JUMP JUMPDEST PUSH1 0x40 MLOAD DUP1 SWAP2 SUB SWAP1 RETURN JUMPDEST PUSH1 0x7E DUP2 JUMP JUMPDEST PUSH2 0x273 DUP2 JUMP JUMPDEST PUSH2 0x618 DUP2 JUMP JUMPDEST PUSH1 0x40 MLOAD DUP1 PUSH1 0x40 ADD PUSH1 0x40 MSTORE DUP1 PUSH1 0x10 DUP2 MSTORE PUSH1 0x20 ADD PUSH32 0x2F6C6567656E642F6D6574616461746100000000000000000000000000000000 DUP2 MSTORE POP DUP2 JUMP JUMPDEST PUSH1 0xB5 DUP2 JUMP JUMPDEST PUSH1 0xA DUP2 JUMP JUMPDEST PUSH8 0x16C2734F97A40000 DUP2 JUMP JUMPDEST PUSH1 0x0 DUP2 JUMP JUMPDEST PUSH1 0x32 DUP2 JUMP JUMPDEST PUSH1 0x19 DUP2 JUMP JUMPDEST PUSH1 0x40 MLOAD DUP1 PUSH1 0x40 ADD PUSH1 0x40 MSTORE DUP1 PUSH1 0x12 DUP2 MSTORE PUSH1 0x20 ADD PUSH32 0x2F756E636F6D6D6F6E2F6D657461646174610000000000000000000000000000 DUP2 MSTORE POP DUP2 JUMP JUMPDEST PUSH2 0x203A DUP2 JUMP JUMPDEST PUSH1 0x0 PUSH1 0x1 PUSH1 0x4 DUP2 GT ISZERO PUSH2 0x7C1 JUMPI PUSH2 0x7C0 PUSH2 0xF67 JUMP JUMPDEST JUMPDEST DUP3 PUSH1 0x4 DUP2 GT ISZERO PUSH2 0x7D4 JUMPI PUSH2 0x7D3 PUSH2 0xF67 JUMP JUMPDEST JUMPDEST SUB PUSH2 0x7E9 JUMPI PUSH8 0x16C2734F97A40000 SWAP1 POP PUSH2 0x8D8 JUMP JUMPDEST PUSH1 0x2 PUSH1 0x4 DUP2 GT ISZERO PUSH2 0x7FD JUMPI PUSH2 0x7FC PUSH2 0xF67 JUMP JUMPDEST JUMPDEST DUP3 PUSH1 0x4 DUP2 GT ISZERO PUSH2 0x810 JUMPI PUSH2 0x80F PUSH2 0xF67 JUMP JUMPDEST JUMPDEST SUB PUSH2 0x825 JUMPI PUSH8 0x494654067E10000 SWAP1 POP PUSH2 0x8D7 JUMP JUMPDEST PUSH1 0x3 PUSH1 0x4 DUP2 GT ISZERO PUSH2 0x839 JUMPI PUSH2 0x838 PUSH2 0xF67 JUMP JUMPDEST JUMPDEST DUP3 PUSH1 0x4 DUP2 GT ISZERO PUSH2 0x84C JUMPI PUSH2 0x84B PUSH2 0xF67 JUMP JUMPDEST JUMPDEST SUB PUSH2 0x860 JUMPI PUSH7 0x2E2F6E5E148000 SWAP1 POP PUSH2 0x8D6 JUMP JUMPDEST PUSH1 0x4 DUP1 DUP2 GT ISZERO PUSH2 0x873 JUMPI PUSH2 0x872 PUSH2 0xF67 JUMP JUMPDEST JUMPDEST DUP3 PUSH1 0x4 DUP2 GT ISZERO PUSH2 0x886 JUMPI PUSH2 0x885 PUSH2 0xF67 JUMP JUMPDEST JUMPDEST SUB PUSH2 0x89A JUMPI PUSH7 0xEA7AA67B2D0000 SWAP1 POP PUSH2 0x8D5 JUMP JUMPDEST PUSH1 0x40 MLOAD PUSH32 0x8C379A000000000000000000000000000000000000000000000000000000000 DUP2 MSTORE PUSH1 0x4 ADD PUSH2 0x8CC SWAP1 PUSH2 0x108D JUMP JUMPDEST PUSH1 0x40 MLOAD DUP1 SWAP2 SUB SWAP1 REVERT JUMPDEST JUMPDEST JUMPDEST JUMPDEST SWAP2 SWAP1 POP JUMP JUMPDEST PUSH1 0x40 MLOAD DUP1 PUSH1 0x40 ADD PUSH1 0x40 MSTORE DUP1 PUSH1 0x10 DUP2 MSTORE PUSH1 0x20 ADD PUSH32 0x2F636F6D6D6F6E2F6D6574616461746100000000000000000000000000000000 DUP2 MSTORE POP DUP2 JUMP JUMPDEST PUSH1 0x7D DUP2 JUMP JUMPDEST PUSH1 0x1 DUP2 JUMP JUMPDEST PUSH1 0x60 PUSH1 0x0 PUSH1 0x4 DUP2 GT ISZERO PUSH2 0x936 JUMPI PUSH2 0x935 PUSH2 0xF67 JUMP JUMPDEST JUMPDEST DUP3 PUSH1 0x4 DUP2 GT ISZERO PUSH2 0x949 JUMPI PUSH2 0x948 PUSH2 0xF67 JUMP JUMPDEST JUMPDEST SUB PUSH2 0x98B JUMPI PUSH1 0x40 MLOAD DUP1 PUSH1 0x40 ADD PUSH1 0x40 MSTORE DUP1 PUSH1 0x4 DUP2 MSTORE PUSH1 0x20 ADD PUSH32 0x4865726F00000000000000000000000000000000000000000000000000000000 DUP2 MSTORE POP SWAP1 POP PUSH2 0xB6D JUMP JUMPDEST PUSH1 0x1 PUSH1 0x4 DUP2 GT ISZERO PUSH2 0x99F JUMPI PUSH2 0x99E PUSH2 0xF67 JUMP JUMPDEST JUMPDEST DUP3 PUSH1 0x4 DUP2 GT ISZERO PUSH2 0x9B2 JUMPI PUSH2 0x9B1 PUSH2 0xF67 JUMP JUMPDEST JUMPDEST SUB PUSH2 0x9F4 JUMPI PUSH1 0x40 MLOAD DUP1 PUSH1 0x40 ADD PUSH1 0x40 MSTORE DUP1 PUSH1 0x6 DUP2 MSTORE PUSH1 0x20 ADD PUSH32 0x4C6567656E640000000000000000000000000000000000000000000000000000 DUP2 MSTORE POP SWAP1 POP PUSH2 0xB6C JUMP JUMPDEST PUSH1 0x2 PUSH1 0x4 DUP2 GT ISZERO PUSH2 0xA08 JUMPI PUSH2 0xA07 PUSH2 0xF67 JUMP JUMPDEST JUMPDEST DUP3 PUSH1 0x4 DUP2 GT ISZERO PUSH2 0xA1B JUMPI PUSH2 0xA1A PUSH2 0xF67 JUMP JUMPDEST JUMPDEST SUB PUSH2 0xA5D JUMPI PUSH1 0x40 MLOAD DUP1 PUSH1 0x40 ADD PUSH1 0x40 MSTORE DUP1 PUSH1 0x4 DUP2 MSTORE PUSH1 0x20 ADD PUSH32 0x5261726500000000000000000000000000000000000000000000000000000000 DUP2 MSTORE POP SWAP1 POP PUSH2 0xB6B JUMP JUMPDEST PUSH1 0x3 PUSH1 0x4 DUP2 GT ISZERO PUSH2 0xA71 JUMPI PUSH2 0xA70 PUSH2 0xF67 JUMP JUMPDEST JUMPDEST DUP3 PUSH1 0x4 DUP2 GT ISZERO PUSH2 0xA84 JUMPI PUSH2 0xA83 PUSH2 0xF67 JUMP JUMPDEST JUMPDEST SUB PUSH2 0xAC6 JUMPI PUSH1 0x40 MLOAD DUP1 PUSH1 0x40 ADD PUSH1 0x40 MSTORE DUP1 PUSH1 0x8 DUP2 MSTORE PUSH1 0x20 ADD PUSH32 0x556E636F6D6D6F6E000000000000000000000000000000000000000000000000 DUP2 MSTORE POP SWAP1 POP PUSH2 0xB6A JUMP JUMPDEST PUSH1 0x4 DUP1 DUP2 GT ISZERO PUSH2 0xAD9 JUMPI PUSH2 0xAD8 PUSH2 0xF67 JUMP JUMPDEST JUMPDEST DUP3 PUSH1 0x4 DUP2 GT ISZERO PUSH2 0xAEC JUMPI PUSH2 0xAEB PUSH2 0xF67 JUMP JUMPDEST JUMPDEST SUB PUSH2 0xB2E JUMPI PUSH1 0x40 MLOAD DUP1 PUSH1 0x40 ADD PUSH1 0x40 MSTORE DUP1 PUSH1 0x6 DUP2 MSTORE PUSH1 0x20 ADD PUSH32 0x436F6D6D6F6E0000000000000000000000000000000000000000000000000000 DUP2 MSTORE POP SWAP1 POP PUSH2 0xB69 JUMP JUMPDEST PUSH1 0x40 MLOAD PUSH32 0x8C379A000000000000000000000000000000000000000000000000000000000 DUP2 MSTORE PUSH1 0x4 ADD PUSH2 0xB60 SWAP1 PUSH2 0x10F9 JUMP JUMPDEST PUSH1 0x40 MLOAD DUP1 SWAP2 SUB SWAP1 REVERT JUMPDEST JUMPDEST JUMPDEST JUMPDEST JUMPDEST SWAP2 SWAP1 POP JUMP JUMPDEST PUSH1 0x5 DUP2 JUMP JUMPDEST PUSH2 0xC38 DUP2 JUMP JUMPDEST PUSH7 0xEA7AA67B2D0000 DUP2 JUMP JUMPDEST PUSH1 0x19 DUP2 JUMP JUMPDEST PUSH2 0x7D0 DUP2 JUMP JUMPDEST PUSH1 0x0 DUP2 JUMP JUMPDEST PUSH8 0x494654067E10000 DUP2 JUMP JUMPDEST PUSH7 0x2E2F6E5E148000 DUP2 JUMP JUMPDEST PUSH1 0x50 DUP2 JUMP JUMPDEST PUSH1 0x40 MLOAD DUP1 PUSH1 0x40 ADD PUSH1 0x40 MSTORE DUP1 PUSH1 0xE DUP2 MSTORE PUSH1 0x20 ADD PUSH32 0x2F726172652F6D65746164617461000000000000000000000000000000000000 DUP2 MSTORE POP DUP2 JUMP JUMPDEST PUSH2 0x4E2 DUP2 JUMP JUMPDEST PUSH2 0x190 DUP2 JUMP JUMPDEST PUSH2 0x168A DUP2 JUMP JUMPDEST PUSH1 0x40 MLOAD DUP1 PUSH1 0x40 ADD PUSH1 0x40 MSTORE DUP1 PUSH1 0xE DUP2 MSTORE PUSH1 0x20 ADD PUSH32 0x2F6865726F2F6D65746164617461000000000000000000000000000000000000 DUP2 MSTORE POP DUP2 JUMP JUMPDEST PUSH1 0x40 MLOAD DUP1 PUSH1 0x40 ADD PUSH1 0x40 MSTORE DUP1 PUSH1 0x15 DUP2 MSTORE PUSH1 0x20 ADD PUSH32 0x697066733A2F2F3C686173683E2F646F612F6E66740000000000000000000000 DUP2 MSTORE POP DUP2 JUMP JUMPDEST PUSH1 0x19 DUP2 JUMP JUMPDEST PUSH1 0x0 DUP1 PUSH2 0xFFFF AND DUP3 LT ISZERO DUP1 ISZERO PUSH2 0xC90 JUMPI POP PUSH1 0x19 PUSH2 0xFFFF AND DUP3 LT JUMPDEST ISZERO PUSH2 0xC9E JUMPI PUSH1 0x0 SWAP1 POP PUSH2 0xD6B JUMP JUMPDEST PUSH1 0x19 PUSH2 0xFFFF AND DUP3 LT ISZERO DUP1 ISZERO PUSH2 0xCB7 JUMPI POP PUSH1 0x7E PUSH2 0xFFFF AND DUP3 LT JUMPDEST ISZERO PUSH2 0xCC5 JUMPI PUSH1 0x1 SWAP1 POP PUSH2 0xD6A JUMP JUMPDEST PUSH1 0x7E PUSH2 0xFFFF AND DUP3 LT ISZERO DUP1 ISZERO PUSH2 0xCDF JUMPI POP PUSH2 0x273 PUSH2 0xFFFF AND DUP3 LT JUMPDEST ISZERO PUSH2 0xCED JUMPI PUSH1 0x2 SWAP1 POP PUSH2 0xD69 JUMP JUMPDEST PUSH2 0x273 PUSH2 0xFFFF AND DUP3 LT ISZERO DUP1 ISZERO PUSH2 0xD08 JUMPI POP PUSH2 0xC38 PUSH2 0xFFFF AND DUP3 LT JUMPDEST ISZERO PUSH2 0xD16 JUMPI PUSH1 0x3 SWAP1 POP PUSH2 0xD68 JUMP JUMPDEST PUSH2 0xC38 PUSH2 0xFFFF AND DUP3 LT PUSH2 0xD2C JUMPI PUSH1 0x4 SWAP1 POP PUSH2 0xD67 JUMP JUMPDEST PUSH1 0x40 MLOAD PUSH32 0x8C379A000000000000000000000000000000000000000000000000000000000 DUP2 MSTORE PUSH1 0x4 ADD PUSH2 0xD5E SWAP1 PUSH2 0x1165 JUMP JUMPDEST PUSH1 0x40 MLOAD DUP1 SWAP2 SUB SWAP1 REVERT JUMPDEST JUMPDEST JUMPDEST JUMPDEST JUMPDEST SWAP2 SWAP1 POP JUMP JUMPDEST PUSH1 0x3C DUP2 JUMP JUMPDEST PUSH1 0x0 DUP2 JUMP JUMPDEST PUSH1 0xFA DUP2 JUMP JUMPDEST PUSH1 0x60 PUSH2 0xD92 PUSH2 0xD8D DUP4 PUSH2 0xC76 JUMP JUMPDEST PUSH2 0x920 JUMP JUMPDEST SWAP1 POP SWAP2 SWAP1 POP JUMP JUMPDEST PUSH1 0x0 PUSH2 0xFFFF DUP3 AND SWAP1 POP SWAP2 SWAP1 POP JUMP JUMPDEST PUSH2 0xDB0 DUP2 PUSH2 0xD99 JUMP JUMPDEST DUP3 MSTORE POP POP JUMP JUMPDEST PUSH1 0x0 PUSH1 0x20 DUP3 ADD SWAP1 POP PUSH2 0xDCB PUSH1 0x0 DUP4 ADD DUP5 PUSH2 0xDA7 JUMP JUMPDEST SWAP3 SWAP2 POP POP JUMP JUMPDEST PUSH1 0x0 DUP2 MLOAD SWAP1 POP SWAP2 SWAP1 POP JUMP JUMPDEST PUSH1 0x0 DUP3 DUP3 MSTORE PUSH1 0x20 DUP3 ADD SWAP1 POP SWAP3 SWAP2 POP POP JUMP JUMPDEST PUSH1 0x0 JUMPDEST DUP4 DUP2 LT ISZERO PUSH2 0xE0B JUMPI DUP1 DUP3 ADD MLOAD DUP2 DUP5 ADD MSTORE PUSH1 0x20 DUP2 ADD SWAP1 POP PUSH2 0xDF0 JUMP JUMPDEST PUSH1 0x0 DUP5 DUP5 ADD MSTORE POP POP POP POP JUMP JUMPDEST PUSH1 0x0 PUSH1 0x1F NOT PUSH1 0x1F DUP4 ADD AND SWAP1 POP SWAP2 SWAP1 POP JUMP JUMPDEST PUSH1 0x0 PUSH2 0xE33 DUP3 PUSH2 0xDD1 JUMP JUMPDEST PUSH2 0xE3D DUP2 DUP6 PUSH2 0xDDC JUMP JUMPDEST SWAP4 POP PUSH2 0xE4D DUP2 DUP6 PUSH1 0x20 DUP7 ADD PUSH2 0xDED JUMP JUMPDEST PUSH2 0xE56 DUP2 PUSH2 0xE17 JUMP JUMPDEST DUP5 ADD SWAP2 POP POP SWAP3 SWAP2 POP POP JUMP JUMPDEST PUSH1 0x0 PUSH1 0x20 DUP3 ADD SWAP1 POP DUP2 DUP2 SUB PUSH1 0x0 DUP4 ADD MSTORE PUSH2 0xE7B DUP2 DUP5 PUSH2 0xE28 JUMP JUMPDEST SWAP1 POP SWAP3 SWAP2 POP POP JUMP JUMPDEST PUSH1 0x0 DUP2 SWAP1 POP SWAP2 SWAP1 POP JUMP JUMPDEST PUSH2 0xE96 DUP2 PUSH2 0xE83 JUMP JUMPDEST DUP3 MSTORE POP POP JUMP JUMPDEST PUSH1 0x0 PUSH1 0x20 DUP3 ADD SWAP1 POP PUSH2 0xEB1 PUSH1 0x0 DUP4 ADD DUP5 PUSH2 0xE8D JUMP JUMPDEST SWAP3 SWAP2 POP POP JUMP JUMPDEST PUSH1 0x0 DUP1 REVERT JUMPDEST PUSH1 0x5 DUP2 LT PUSH2 0xEC9 JUMPI PUSH1 0x0 DUP1 REVERT JUMPDEST POP JUMP JUMPDEST PUSH1 0x0 DUP2 CALLDATALOAD SWAP1 POP PUSH2 0xEDB DUP2 PUSH2 0xEBC JUMP JUMPDEST SWAP3 SWAP2 POP POP JUMP JUMPDEST PUSH1 0x0 PUSH1 0x20 DUP3 DUP5 SUB SLT ISZERO PUSH2 0xEF7 JUMPI PUSH2 0xEF6 PUSH2 0xEB7 JUMP JUMPDEST JUMPDEST PUSH1 0x0 PUSH2 0xF05 DUP5 DUP3 DUP6 ADD PUSH2 0xECC JUMP JUMPDEST SWAP2 POP POP SWAP3 SWAP2 POP POP JUMP JUMPDEST PUSH2 0xF17 DUP2 PUSH2 0xE83 JUMP JUMPDEST DUP2 EQ PUSH2 0xF22 JUMPI PUSH1 0x0 DUP1 REVERT JUMPDEST POP JUMP JUMPDEST PUSH1 0x0 DUP2 CALLDATALOAD SWAP1 POP PUSH2 0xF34 DUP2 PUSH2 0xF0E JUMP JUMPDEST SWAP3 SWAP2 POP POP JUMP JUMPDEST PUSH1 0x0 PUSH1 0x20 DUP3 DUP5 SUB SLT ISZERO PUSH2 0xF50 JUMPI PUSH2 0xF4F PUSH2 0xEB7 JUMP JUMPDEST JUMPDEST PUSH1 0x0 PUSH2 0xF5E DUP5 DUP3 DUP6 ADD PUSH2 0xF25 JUMP JUMPDEST SWAP2 POP POP SWAP3 SWAP2 POP POP JUMP JUMPDEST PUSH32 0x4E487B7100000000000000000000000000000000000000000000000000000000 PUSH1 0x0 MSTORE PUSH1 0x21 PUSH1 0x4 MSTORE PUSH1 0x24 PUSH1 0x0 REVERT JUMPDEST PUSH1 0x5 DUP2 LT PUSH2 0xFA7 JUMPI PUSH2 0xFA6 PUSH2 0xF67 JUMP JUMPDEST JUMPDEST POP JUMP JUMPDEST PUSH1 0x0 DUP2 SWAP1 POP PUSH2 0xFB8 DUP3 PUSH2 0xF96 JUMP JUMPDEST SWAP2 SWAP1 POP JUMP JUMPDEST PUSH1 0x0 PUSH2 0xFC8 DUP3 PUSH2 0xFAA JUMP JUMPDEST SWAP1 POP SWAP2 SWAP1 POP JUMP JUMPDEST PUSH2 0xFD8 DUP2 PUSH2 0xFBD JUMP JUMPDEST DUP3 MSTORE POP POP JUMP JUMPDEST PUSH1 0x0 PUSH1 0x20 DUP3 ADD SWAP1 POP PUSH2 0xFF3 PUSH1 0x0 DUP4 ADD DUP5 PUSH2 0xFCF JUMP JUMPDEST SWAP3 SWAP2 POP POP JUMP JUMPDEST PUSH1 0x0 PUSH1 0xFF DUP3 AND SWAP1 POP SWAP2 SWAP1 POP JUMP JUMPDEST PUSH2 0x100F DUP2 PUSH2 0xFF9 JUMP JUMPDEST DUP3 MSTORE POP POP JUMP JUMPDEST PUSH1 0x0 PUSH1 0x20 DUP3 ADD SWAP1 POP PUSH2 0x102A PUSH1 0x0 DUP4 ADD DUP5 PUSH2 0x1006 JUMP JUMPDEST SWAP3 SWAP2 POP POP JUMP JUMPDEST PUSH1 0x0 DUP3 DUP3 MSTORE PUSH1 0x20 DUP3 ADD SWAP1 POP SWAP3 SWAP2 POP POP JUMP JUMPDEST PUSH32 0x496E76616C696420636C61737300000000000000000000000000000000000000 PUSH1 0x0 DUP3 ADD MSTORE POP JUMP JUMPDEST PUSH1 0x0 PUSH2 0x1077 PUSH1 0xD DUP4 PUSH2 0x1030 JUMP JUMPDEST SWAP2 POP PUSH2 0x1082 DUP3 PUSH2 0x1041 JUMP JUMPDEST PUSH1 0x20 DUP3 ADD SWAP1 POP SWAP2 SWAP1 POP JUMP JUMPDEST PUSH1 0x0 PUSH1 0x20 DUP3 ADD SWAP1 POP DUP2 DUP2 SUB PUSH1 0x0 DUP4 ADD MSTORE PUSH2 0x10A6 DUP2 PUSH2 0x106A JUMP JUMPDEST SWAP1 POP SWAP2 SWAP1 POP JUMP JUMPDEST PUSH32 0x496E76616C696420746F6B656E20636C61737300000000000000000000000000 PUSH1 0x0 DUP3 ADD MSTORE POP JUMP JUMPDEST PUSH1 0x0 PUSH2 0x10E3 PUSH1 0x13 DUP4 PUSH2 0x1030 JUMP JUMPDEST SWAP2 POP PUSH2 0x10EE DUP3 PUSH2 0x10AD JUMP JUMPDEST PUSH1 0x20 DUP3 ADD SWAP1 POP SWAP2 SWAP1 POP JUMP JUMPDEST PUSH1 0x0 PUSH1 0x20 DUP3 ADD SWAP1 POP DUP2 DUP2 SUB PUSH1 0x0 DUP4 ADD MSTORE PUSH2 0x1112 DUP2 PUSH2 0x10D6 JUMP JUMPDEST SWAP1 POP SWAP2 SWAP1 POP JUMP JUMPDEST PUSH32 0x496E76616C696420746F6B656E20494400000000000000000000000000000000 PUSH1 0x0 DUP3 ADD MSTORE POP JUMP JUMPDEST PUSH1 0x0 PUSH2 0x114F PUSH1 0x10 DUP4 PUSH2 0x1030 JUMP JUMPDEST SWAP2 POP PUSH2 0x115A DUP3 PUSH2 0x1119 JUMP JUMPDEST PUSH1 0x20 DUP3 ADD SWAP1 POP SWAP2 SWAP1 POP JUMP JUMPDEST PUSH1 0x0 PUSH1 0x20 DUP3 ADD SWAP1 POP DUP2 DUP2 SUB PUSH1 0x0 DUP4 ADD MSTORE PUSH2 0x117E DUP2 PUSH2 0x1142 JUMP JUMPDEST SWAP1 POP SWAP2 SWAP1 POP JUMP INVALID LOG2 PUSH5 0x6970667358 0x22 SLT KECCAK256 PUSH26 0x62E6D9F810008CF532599FA7A8FF39A064FAAA27845750E28FB4 SWAP14 0xB2 0xC8 DUP5 0x5D PUSH5 0x736F6C6343 STOP ADDMOD SGT STOP CALLER "
				},
				"gasEstimates": {
					"creation": {
						"codeDepositCost": "907800",
						"executionCost": "970",
						"totalCost": "908770"
					},
					"external": {
						"BASE_COMMON_URI()": "infinite",
						"BASE_HERO_URI()": "infinite",
						"BASE_LEGEND_URI()": "infinite",
						"BASE_RARE_URI()": "infinite",
						"BASE_UNCOMMON_URI()": "infinite",
						"BASE_URI()": "infinite",
						"COMMON_NFT_PRICE()": "359",
						"COMMON_NFT_START_INDEX()": "452",
						"COMMON_NFT_SUPPLY_1st()": "364",
						"COMMON_NFT_SUPPLY_2nd()": "452",
						"COMMON_NFT_SUPPLY_3rd()": "386",
						"HERO_NFT_START_INDEX()": "431",
						"HERO_NFT_SUPPLY_1st()": "452",
						"HERO_NFT_SUPPLY_2nd()": "431",
						"HERO_NFT_SUPPLY_3rd()": "407",
						"LEGEND_NFT_PRICE()": "403",
						"LEGEND_NFT_START_INDEX()": "387",
						"LEGEND_NFT_SUPPLY_1st()": "386",
						"LEGEND_NFT_SUPPLY_2nd()": "387",
						"LEGEND_NFT_SUPPLY_3rd()": "408",
						"NFT_SUPPLY_1st()": "365",
						"NFT_SUPPLY_2nd()": "410",
						"NFT_SUPPLY_3rd()": "409",
						"PUBLIC_FUND_PERCENTAGE()": "385",
						"RARE_NFT_PRICE()": "358",
						"RARE_NFT_START_INDEX()": "366",
						"RARE_NFT_SUPPLY_1st()": "430",
						"RARE_NFT_SUPPLY_2nd()": "453",
						"RARE_NFT_SUPPLY_3rd()": "364",
						"UNCOMMON_NFT_PRICE()": "380",
						"UNCOMMON_NFT_START_INDEX()": "388",
						"UNCOMMON_NFT_SUPPLY_1st()": "365",
						"UNCOMMON_NFT_SUPPLY_2nd()": "429",
						"UNCOMMON_NFT_SUPPLY_3rd()": "409",
						"getClassForTokenId(uint256)": "1057",
						"getClassName(NFT_CLASS)": "infinite",
						"getClassPrice(NFT_CLASS)": "1050",
						"testClassForTokenId(uint256)": "infinite"
					}
				},
				"methodIdentifiers": {
					"BASE_COMMON_URI()": "811d5c6c",
					"BASE_HERO_URI()": "cfc2abb7",
					"BASE_LEGEND_URI()": "1eb1a2d3",
					"BASE_RARE_URI()": "c244e88b",
					"BASE_UNCOMMON_URI()": "6871d79f",
					"BASE_URI()": "dbddb26a",
					"COMMON_NFT_PRICE()": "9ee58048",
					"COMMON_NFT_START_INDEX()": "971cba96",
					"COMMON_NFT_SUPPLY_1st()": "828d481b",
					"COMMON_NFT_SUPPLY_2nd()": "c525c0c8",
					"COMMON_NFT_SUPPLY_3rd()": "cb937d2b",
					"HERO_NFT_START_INDEX()": "58a0d923",
					"HERO_NFT_SUPPLY_1st()": "e93e980b",
					"HERO_NFT_SUPPLY_2nd()": "a83179db",
					"HERO_NFT_SUPPLY_3rd()": "f41dc7d2",
					"LEGEND_NFT_PRICE()": "4e2ecca1",
					"LEGEND_NFT_START_INDEX()": "a1bd4a07",
					"LEGEND_NFT_SUPPLY_1st()": "8d1da411",
					"LEGEND_NFT_SUPPLY_2nd()": "38d79b52",
					"LEGEND_NFT_SUPPLY_3rd()": "bf0832ae",
					"NFT_SUPPLY_1st()": "32a41506",
					"NFT_SUPPLY_2nd()": "1ab7730c",
					"NFT_SUPPLY_3rd()": "6b606f0f",
					"PUBLIC_FUND_PERCENTAGE()": "eda14323",
					"RARE_NFT_PRICE()": "be8ca905",
					"RARE_NFT_START_INDEX()": "10a309f3",
					"RARE_NFT_SUPPLY_1st()": "970f6e2f",
					"RARE_NFT_SUPPLY_2nd()": "5e09346a",
					"RARE_NFT_SUPPLY_3rd()": "ca45f599",
					"UNCOMMON_NFT_PRICE()": "beb9e75e",
					"UNCOMMON_NFT_START_INDEX()": "11f47eb5",
					"UNCOMMON_NFT_SUPPLY_1st()": "5e28c936",
					"UNCOMMON_NFT_SUPPLY_2nd()": "f59528d2",
					"UNCOMMON_NFT_SUPPLY_3rd()": "a1d2002d",
					"getClassForTokenId(uint256)": "ed944cb6",
					"getClassName(NFT_CLASS)": "8f5236e5",
					"getClassPrice(NFT_CLASS)": "6e2f5a5f",
					"testClassForTokenId(uint256)": "fd642870"
				}
			},
			"storageLayout": {
				"storage": [],
				"types": null
			},
			"userdoc": {
				"kind": "user",
				"methods": {},
				"version": 1
			}
		}
	}
}