{
	"Treasury.sol": {
		"Treasury": {
			"abi": [
				{
					"anonymous": false,
					"inputs": [
						{
							"indexed": true,
							"internalType": "address",
							"name": "previousOwner",
							"type": "address"
						},
						{
							"indexed": true,
							"internalType": "address",
							"name": "newOwner",
							"type": "address"
						}
					],
					"name": "OwnershipTransferred",
					"type": "event"
				},
				{
					"anonymous": false,
					"inputs": [
						{
							"indexed": false,
							"internalType": "address",
							"name": "account",
							"type": "address"
						}
					],
					"name": "Paused",
					"type": "event"
				},
				{
					"anonymous": false,
					"inputs": [
						{
							"indexed": false,
							"internalType": "address",
							"name": "account",
							"type": "address"
						}
					],
					"name": "Unpaused",
					"type": "event"
				},
				{
					"inputs": [
						{
							"internalType": "address",
							"name": "contractAddress",
							"type": "address"
						}
					],
					"name": "addAuthorizedContract",
					"outputs": [],
					"stateMutability": "nonpayable",
					"type": "function"
				},
				{
					"inputs": [],
					"name": "depositNFTRevenue",
					"outputs": [],
					"stateMutability": "payable",
					"type": "function"
				},
				{
					"inputs": [],
					"name": "getCombinedBalance",
					"outputs": [
						{
							"internalType": "uint256",
							"name": "",
							"type": "uint256"
						}
					],
					"stateMutability": "view",
					"type": "function"
				},
				{
					"inputs": [],
					"name": "owner",
					"outputs": [
						{
							"internalType": "address",
							"name": "",
							"type": "address"
						}
					],
					"stateMutability": "view",
					"type": "function"
				},
				{
					"inputs": [],
					"name": "pause",
					"outputs": [],
					"stateMutability": "nonpayable",
					"type": "function"
				},
				{
					"inputs": [],
					"name": "paused",
					"outputs": [
						{
							"internalType": "bool",
							"name": "",
							"type": "bool"
						}
					],
					"stateMutability": "view",
					"type": "function"
				},
				{
					"inputs": [],
					"name": "privateFund",
					"outputs": [
						{
							"internalType": "uint256",
							"name": "",
							"type": "uint256"
						}
					],
					"stateMutability": "view",
					"type": "function"
				},
				{
					"inputs": [],
					"name": "publicFund",
					"outputs": [
						{
							"internalType": "uint256",
							"name": "",
							"type": "uint256"
						}
					],
					"stateMutability": "view",
					"type": "function"
				},
				{
					"inputs": [],
					"name": "renounceOwnership",
					"outputs": [],
					"stateMutability": "nonpayable",
					"type": "function"
				},
				{
					"inputs": [
						{
							"internalType": "address",
							"name": "newOwner",
							"type": "address"
						}
					],
					"name": "transferOwnership",
					"outputs": [],
					"stateMutability": "nonpayable",
					"type": "function"
				},
				{
					"inputs": [],
					"name": "unpause",
					"outputs": [],
					"stateMutability": "nonpayable",
					"type": "function"
				},
				{
					"inputs": [
						{
							"internalType": "uint256",
							"name": "amount",
							"type": "uint256"
						}
					],
					"name": "withdrawPrivateFund",
					"outputs": [],
					"stateMutability": "nonpayable",
					"type": "function"
				}
			],
			"devdoc": {
				"events": {
					"Paused(address)": {
						"details": "Emitted when the pause is triggered by `account`."
					},
					"Unpaused(address)": {
						"details": "Emitted when the pause is lifted by `account`."
					}
				},
				"kind": "dev",
				"methods": {
					"owner()": {
						"details": "Returns the address of the current owner."
					},
					"paused()": {
						"details": "Returns true if the contract is paused, and false otherwise."
					},
					"renounceOwnership()": {
						"details": "Leaves the contract without owner. It will not be possible to call `onlyOwner` functions anymore. Can only be called by the current owner. NOTE: Renouncing ownership will leave the contract without an owner, thereby removing any functionality that is only available to the owner."
					},
					"transferOwnership(address)": {
						"details": "Transfers ownership of the contract to a new account (`newOwner`). Can only be called by the current owner."
					}
				},
				"version": 1
			},
			"evm": {
				"assembly": "    /* \"Treasury.sol\":392:2638  contract Treasury is iTreasury, Ownable, Pausable, ReentrancyGuard {... */\n  mstore(0x40, 0x80)\n  callvalue\n  dup1\n  iszero\n  tag_1\n  jumpi\n  0x00\n  dup1\n  revert\ntag_1:\n  pop\n    /* \"@openzeppelin/contracts/access/Ownable.sol\":936:968  _transferOwnership(_msgSender()) */\n  tag_6\n    /* \"@openzeppelin/contracts/access/Ownable.sol\":955:967  _msgSender() */\n  tag_7\n    /* \"@openzeppelin/contracts/access/Ownable.sol\":955:965  _msgSender */\n  shl(0x20, tag_8)\n    /* \"@openzeppelin/contracts/access/Ownable.sol\":955:967  _msgSender() */\n  0x20\n  shr\n  jump\t// in\ntag_7:\n    /* \"@openzeppelin/contracts/access/Ownable.sol\":936:954  _transferOwnership */\n  shl(0x20, tag_9)\n    /* \"@openzeppelin/contracts/access/Ownable.sol\":936:968  _transferOwnership(_msgSender()) */\n  0x20\n  shr\n  jump\t// in\ntag_6:\n    /* \"@openzeppelin/contracts/security/Pausable.sol\":1006:1011  false */\n  0x00\n    /* \"@openzeppelin/contracts/security/Pausable.sol\":996:1003  _paused */\n  dup1\n  0x14\n    /* \"@openzeppelin/contracts/security/Pausable.sol\":996:1011  _paused = false */\n  0x0100\n  exp\n  dup2\n  sload\n  dup2\n  0xff\n  mul\n  not\n  and\n  swap1\n  dup4\n  iszero\n  iszero\n  mul\n  or\n  swap1\n  sstore\n  pop\n    /* \"@openzeppelin/contracts/security/ReentrancyGuard.sol\":1716:1717  1 */\n  0x01\n    /* \"@openzeppelin/contracts/security/ReentrancyGuard.sol\":1821:1828  _status */\n  dup1\n    /* \"@openzeppelin/contracts/security/ReentrancyGuard.sol\":1821:1843  _status = _NOT_ENTERED */\n  dup2\n  swap1\n  sstore\n  pop\n    /* \"Treasury.sol\":392:2638  contract Treasury is iTreasury, Ownable, Pausable, ReentrancyGuard {... */\n  jump(tag_12)\n    /* \"@openzeppelin/contracts/utils/Context.sol\":640:736  function _msgSender() internal view virtual returns (address) {... */\ntag_8:\n    /* \"@openzeppelin/contracts/utils/Context.sol\":693:700  address */\n  0x00\n    /* \"@openzeppelin/contracts/utils/Context.sol\":719:729  msg.sender */\n  caller\n    /* \"@openzeppelin/contracts/utils/Context.sol\":712:729  return msg.sender */\n  swap1\n  pop\n    /* \"@openzeppelin/contracts/utils/Context.sol\":640:736  function _msgSender() internal view virtual returns (address) {... */\n  swap1\n  jump\t// out\n    /* \"@openzeppelin/contracts/access/Ownable.sol\":2433:2620  function _transferOwnership(address newOwner) internal virtual {... */\ntag_9:\n    /* \"@openzeppelin/contracts/access/Ownable.sol\":2506:2522  address oldOwner */\n  0x00\n    /* \"@openzeppelin/contracts/access/Ownable.sol\":2525:2531  _owner */\n  dup1\n  0x00\n  swap1\n  sload\n  swap1\n  0x0100\n  exp\n  swap1\n  div\n  0xffffffffffffffffffffffffffffffffffffffff\n  and\n    /* \"@openzeppelin/contracts/access/Ownable.sol\":2506:2531  address oldOwner = _owner */\n  swap1\n  pop\n    /* \"@openzeppelin/contracts/access/Ownable.sol\":2550:2558  newOwner */\n  dup2\n    /* \"@openzeppelin/contracts/access/Ownable.sol\":2541:2547  _owner */\n  0x00\n  dup1\n    /* \"@openzeppelin/contracts/access/Ownable.sol\":2541:2558  _owner = newOwner */\n  0x0100\n  exp\n  dup2\n  sload\n  dup2\n  0xffffffffffffffffffffffffffffffffffffffff\n  mul\n  not\n  and\n  swap1\n  dup4\n  0xffffffffffffffffffffffffffffffffffffffff\n  and\n  mul\n  or\n  swap1\n  sstore\n  pop\n    /* \"@openzeppelin/contracts/access/Ownable.sol\":2604:2612  newOwner */\n  dup2\n    /* \"@openzeppelin/contracts/access/Ownable.sol\":2573:2613  OwnershipTransferred(oldOwner, newOwner) */\n  0xffffffffffffffffffffffffffffffffffffffff\n  and\n    /* \"@openzeppelin/contracts/access/Ownable.sol\":2594:2602  oldOwner */\n  dup2\n    /* \"@openzeppelin/contracts/access/Ownable.sol\":2573:2613  OwnershipTransferred(oldOwner, newOwner) */\n  0xffffffffffffffffffffffffffffffffffffffff\n  and\n  0x8be0079c531659141344cd1fd0a4f28419497f9722a3daafe3b4186f6b6457e0\n  mload(0x40)\n  mload(0x40)\n  dup1\n  swap2\n  sub\n  swap1\n  log3\n    /* \"@openzeppelin/contracts/access/Ownable.sol\":2496:2620  {... */\n  pop\n    /* \"@openzeppelin/contracts/access/Ownable.sol\":2433:2620  function _transferOwnership(address newOwner) internal virtual {... */\n  pop\n  jump\t// out\n    /* \"Treasury.sol\":392:2638  contract Treasury is iTreasury, Ownable, Pausable, ReentrancyGuard {... */\ntag_12:\n  dataSize(sub_0)\n  dup1\n  dataOffset(sub_0)\n  0x00\n  codecopy\n  0x00\n  return\nstop\n\nsub_0: assembly {\n        /* \"Treasury.sol\":392:2638  contract Treasury is iTreasury, Ownable, Pausable, ReentrancyGuard {... */\n      mstore(0x40, 0x80)\n      jumpi(tag_1, lt(calldatasize, 0x04))\n      shr(0xe0, calldataload(0x00))\n      dup1\n      0x715018a6\n      gt\n      tag_14\n      jumpi\n      dup1\n      0x715018a6\n      eq\n      tag_8\n      jumpi\n      dup1\n      0x760c764d\n      eq\n      tag_9\n      jumpi\n      dup1\n      0x8456cb59\n      eq\n      tag_10\n      jumpi\n      dup1\n      0x8da5cb5b\n      eq\n      tag_11\n      jumpi\n      dup1\n      0x98eaa4a7\n      eq\n      tag_12\n      jumpi\n      dup1\n      0xf2fde38b\n      eq\n      tag_13\n      jumpi\n      jump(tag_1)\n    tag_14:\n      dup1\n      0x015f009a\n      eq\n      tag_2\n      jumpi\n      dup1\n      0x3419628b\n      eq\n      tag_3\n      jumpi\n      dup1\n      0x3d2ba888\n      eq\n      tag_4\n      jumpi\n      dup1\n      0x3f4ba83a\n      eq\n      tag_5\n      jumpi\n      dup1\n      0x5c975abb\n      eq\n      tag_6\n      jumpi\n      dup1\n      0x68a18cc2\n      eq\n      tag_7\n      jumpi\n    tag_1:\n      0x00\n      dup1\n      revert\n        /* \"Treasury.sol\":665:691  uint256 public privateFund */\n    tag_2:\n      callvalue\n      dup1\n      iszero\n      tag_15\n      jumpi\n      0x00\n      dup1\n      revert\n    tag_15:\n      pop\n      tag_16\n      tag_17\n      jump\t// in\n    tag_16:\n      mload(0x40)\n      tag_18\n      swap2\n      swap1\n      tag_19\n      jump\t// in\n    tag_18:\n      mload(0x40)\n      dup1\n      swap2\n      sub\n      swap1\n      return\n        /* \"Treasury.sol\":2227:2522  function withdrawPrivateFund(uint256 amount) external override onlyOwner {... */\n    tag_3:\n      callvalue\n      dup1\n      iszero\n      tag_20\n      jumpi\n      0x00\n      dup1\n      revert\n    tag_20:\n      pop\n      tag_21\n      0x04\n      dup1\n      calldatasize\n      sub\n      dup2\n      add\n      swap1\n      tag_22\n      swap2\n      swap1\n      tag_23\n      jump\t// in\n    tag_22:\n      tag_24\n      jump\t// in\n    tag_21:\n      stop\n        /* \"Treasury.sol\":2528:2633  function getCombinedBalance() public view returns (uint256) {... */\n    tag_4:\n      callvalue\n      dup1\n      iszero\n      tag_25\n      jumpi\n      0x00\n      dup1\n      revert\n    tag_25:\n      pop\n      tag_26\n      tag_27\n      jump\t// in\n    tag_26:\n      mload(0x40)\n      tag_28\n      swap2\n      swap1\n      tag_19\n      jump\t// in\n    tag_28:\n      mload(0x40)\n      dup1\n      swap2\n      sub\n      swap1\n      return\n        /* \"Treasury.sol\":1623:1686  function unpause() public onlyOwner {... */\n    tag_5:\n      callvalue\n      dup1\n      iszero\n      tag_29\n      jumpi\n      0x00\n      dup1\n      revert\n    tag_29:\n      pop\n      tag_30\n      tag_31\n      jump\t// in\n    tag_30:\n      stop\n        /* \"@openzeppelin/contracts/security/Pausable.sol\":1615:1699  function paused() public view virtual returns (bool) {... */\n    tag_6:\n      callvalue\n      dup1\n      iszero\n      tag_32\n      jumpi\n      0x00\n      dup1\n      revert\n    tag_32:\n      pop\n      tag_33\n      tag_34\n      jump\t// in\n    tag_33:\n      mload(0x40)\n      tag_35\n      swap2\n      swap1\n      tag_36\n      jump\t// in\n    tag_35:\n      mload(0x40)\n      dup1\n      swap2\n      sub\n      swap1\n      return\n        /* \"Treasury.sol\":697:722  uint256 public publicFund */\n    tag_7:\n      callvalue\n      dup1\n      iszero\n      tag_37\n      jumpi\n      0x00\n      dup1\n      revert\n    tag_37:\n      pop\n      tag_38\n      tag_39\n      jump\t// in\n    tag_38:\n      mload(0x40)\n      tag_40\n      swap2\n      swap1\n      tag_19\n      jump\t// in\n    tag_40:\n      mload(0x40)\n      dup1\n      swap2\n      sub\n      swap1\n      return\n        /* \"@openzeppelin/contracts/access/Ownable.sol\":1831:1932  function renounceOwnership() public virtual onlyOwner {... */\n    tag_8:\n      callvalue\n      dup1\n      iszero\n      tag_41\n      jumpi\n      0x00\n      dup1\n      revert\n    tag_41:\n      pop\n      tag_42\n      tag_43\n      jump\t// in\n    tag_42:\n      stop\n        /* \"Treasury.sol\":1900:2221  function depositNFTRevenue() external  payable {... */\n    tag_9:\n      tag_44\n      tag_45\n      jump\t// in\n    tag_44:\n      stop\n        /* \"Treasury.sol\":1558:1617  function pause() public onlyOwner {... */\n    tag_10:\n      callvalue\n      dup1\n      iszero\n      tag_46\n      jumpi\n      0x00\n      dup1\n      revert\n    tag_46:\n      pop\n      tag_47\n      tag_48\n      jump\t// in\n    tag_47:\n      stop\n        /* \"@openzeppelin/contracts/access/Ownable.sol\":1201:1286  function owner() public view virtual returns (address) {... */\n    tag_11:\n      callvalue\n      dup1\n      iszero\n      tag_49\n      jumpi\n      0x00\n      dup1\n      revert\n    tag_49:\n      pop\n      tag_50\n      tag_51\n      jump\t// in\n    tag_50:\n      mload(0x40)\n      tag_52\n      swap2\n      swap1\n      tag_53\n      jump\t// in\n    tag_52:\n      mload(0x40)\n      dup1\n      swap2\n      sub\n      swap1\n      return\n        /* \"Treasury.sol\":1216:1353  function addAuthorizedContract(address contractAddress) external  onlyOwner {... */\n    tag_12:\n      callvalue\n      dup1\n      iszero\n      tag_54\n      jumpi\n      0x00\n      dup1\n      revert\n    tag_54:\n      pop\n      tag_55\n      0x04\n      dup1\n      calldatasize\n      sub\n      dup2\n      add\n      swap1\n      tag_56\n      swap2\n      swap1\n      tag_57\n      jump\t// in\n    tag_56:\n      tag_58\n      jump\t// in\n    tag_55:\n      stop\n        /* \"@openzeppelin/contracts/access/Ownable.sol\":2081:2279  function transferOwnership(address newOwner) public virtual onlyOwner {... */\n    tag_13:\n      callvalue\n      dup1\n      iszero\n      tag_59\n      jumpi\n      0x00\n      dup1\n      revert\n    tag_59:\n      pop\n      tag_60\n      0x04\n      dup1\n      calldatasize\n      sub\n      dup2\n      add\n      swap1\n      tag_61\n      swap2\n      swap1\n      tag_57\n      jump\t// in\n    tag_61:\n      tag_62\n      jump\t// in\n    tag_60:\n      stop\n        /* \"Treasury.sol\":665:691  uint256 public privateFund */\n    tag_17:\n      sload(0x02)\n      dup2\n      jump\t// out\n        /* \"Treasury.sol\":2227:2522  function withdrawPrivateFund(uint256 amount) external override onlyOwner {... */\n    tag_24:\n        /* \"@openzeppelin/contracts/access/Ownable.sol\":1094:1107  _checkOwner() */\n      tag_64\n        /* \"@openzeppelin/contracts/access/Ownable.sol\":1094:1105  _checkOwner */\n      tag_65\n        /* \"@openzeppelin/contracts/access/Ownable.sol\":1094:1107  _checkOwner() */\n      jump\t// in\n    tag_64:\n        /* \"Treasury.sol\":2405:2416  privateFund */\n      sload(0x02)\n        /* \"Treasury.sol\":2395:2401  amount */\n      dup2\n        /* \"Treasury.sol\":2395:2416  amount <= privateFund */\n      gt\n      iszero\n        /* \"Treasury.sol\":2387:2437  require(amount <= privateFund, \"Not enough funds\") */\n      tag_67\n      jumpi\n      mload(0x40)\n      0x08c379a000000000000000000000000000000000000000000000000000000000\n      dup2\n      mstore\n      0x04\n      add\n      tag_68\n      swap1\n      tag_69\n      jump\t// in\n    tag_68:\n      mload(0x40)\n      dup1\n      swap2\n      sub\n      swap1\n      revert\n    tag_67:\n        /* \"Treasury.sol\":2463:2469  amount */\n      dup1\n        /* \"Treasury.sol\":2448:2459  privateFund */\n      0x02\n      0x00\n        /* \"Treasury.sol\":2448:2469  privateFund -= amount */\n      dup3\n      dup3\n      sload\n      tag_70\n      swap2\n      swap1\n      tag_71\n      jump\t// in\n    tag_70:\n      swap3\n      pop\n      pop\n      dup2\n      swap1\n      sstore\n      pop\n        /* \"Treasury.sol\":2487:2497  msg.sender */\n      caller\n        /* \"Treasury.sol\":2479:2507  payable(msg.sender).transfer */\n      0xffffffffffffffffffffffffffffffffffffffff\n      and\n        /* \"Treasury.sol\":2479:2515  payable(msg.sender).transfer(amount) */\n      0x08fc\n        /* \"Treasury.sol\":2508:2514  amount */\n      dup3\n        /* \"Treasury.sol\":2479:2515  payable(msg.sender).transfer(amount) */\n      swap1\n      dup2\n      iszero\n      mul\n      swap1\n      mload(0x40)\n      0x00\n      mload(0x40)\n      dup1\n      dup4\n      sub\n      dup2\n      dup6\n      dup9\n      dup9\n      call\n      swap4\n      pop\n      pop\n      pop\n      pop\n      iszero\n      dup1\n      iszero\n      tag_73\n      jumpi\n      returndatasize\n      0x00\n      dup1\n      returndatacopy\n      revert(0x00, returndatasize)\n    tag_73:\n      pop\n        /* \"Treasury.sol\":2227:2522  function withdrawPrivateFund(uint256 amount) external override onlyOwner {... */\n      pop\n      jump\t// out\n        /* \"Treasury.sol\":2528:2633  function getCombinedBalance() public view returns (uint256) {... */\n    tag_27:\n        /* \"Treasury.sol\":2579:2586  uint256 */\n      0x00\n        /* \"Treasury.sol\":2605:2626  address(this).balance */\n      selfbalance\n        /* \"Treasury.sol\":2598:2626  return address(this).balance */\n      swap1\n      pop\n        /* \"Treasury.sol\":2528:2633  function getCombinedBalance() public view returns (uint256) {... */\n      swap1\n      jump\t// out\n        /* \"Treasury.sol\":1623:1686  function unpause() public onlyOwner {... */\n    tag_31:\n        /* \"@openzeppelin/contracts/access/Ownable.sol\":1094:1107  _checkOwner() */\n      tag_76\n        /* \"@openzeppelin/contracts/access/Ownable.sol\":1094:1105  _checkOwner */\n      tag_65\n        /* \"@openzeppelin/contracts/access/Ownable.sol\":1094:1107  _checkOwner() */\n      jump\t// in\n    tag_76:\n        /* \"Treasury.sol\":1669:1679  _unpause() */\n      tag_78\n        /* \"Treasury.sol\":1669:1677  _unpause */\n      tag_79\n        /* \"Treasury.sol\":1669:1679  _unpause() */\n      jump\t// in\n    tag_78:\n        /* \"Treasury.sol\":1623:1686  function unpause() public onlyOwner {... */\n      jump\t// out\n        /* \"@openzeppelin/contracts/security/Pausable.sol\":1615:1699  function paused() public view virtual returns (bool) {... */\n    tag_34:\n        /* \"@openzeppelin/contracts/security/Pausable.sol\":1662:1666  bool */\n      0x00\n        /* \"@openzeppelin/contracts/security/Pausable.sol\":1685:1692  _paused */\n      dup1\n      0x14\n      swap1\n      sload\n      swap1\n      0x0100\n      exp\n      swap1\n      div\n      0xff\n      and\n        /* \"@openzeppelin/contracts/security/Pausable.sol\":1678:1692  return _paused */\n      swap1\n      pop\n        /* \"@openzeppelin/contracts/security/Pausable.sol\":1615:1699  function paused() public view virtual returns (bool) {... */\n      swap1\n      jump\t// out\n        /* \"Treasury.sol\":697:722  uint256 public publicFund */\n    tag_39:\n      sload(0x03)\n      dup2\n      jump\t// out\n        /* \"@openzeppelin/contracts/access/Ownable.sol\":1831:1932  function renounceOwnership() public virtual onlyOwner {... */\n    tag_43:\n        /* \"@openzeppelin/contracts/access/Ownable.sol\":1094:1107  _checkOwner() */\n      tag_82\n        /* \"@openzeppelin/contracts/access/Ownable.sol\":1094:1105  _checkOwner */\n      tag_65\n        /* \"@openzeppelin/contracts/access/Ownable.sol\":1094:1107  _checkOwner() */\n      jump\t// in\n    tag_82:\n        /* \"@openzeppelin/contracts/access/Ownable.sol\":1895:1925  _transferOwnership(address(0)) */\n      tag_84\n        /* \"@openzeppelin/contracts/access/Ownable.sol\":1922:1923  0 */\n      0x00\n        /* \"@openzeppelin/contracts/access/Ownable.sol\":1895:1913  _transferOwnership */\n      tag_85\n        /* \"@openzeppelin/contracts/access/Ownable.sol\":1895:1925  _transferOwnership(address(0)) */\n      jump\t// in\n    tag_84:\n        /* \"@openzeppelin/contracts/access/Ownable.sol\":1831:1932  function renounceOwnership() public virtual onlyOwner {... */\n      jump\t// out\n        /* \"Treasury.sol\":1900:2221  function depositNFTRevenue() external  payable {... */\n    tag_45:\n        /* \"Treasury.sol\":2034:2053  uint256 publicShare */\n      0x00\n        /* \"Treasury.sol\":2117:2120  100 */\n      0x64\n        /* \"DoAConstants.sol\":3688:3690  60 */\n      0x3c\n        /* \"Treasury.sol\":2069:2113  uint256(DoAConstants.PUBLIC_FUND_PERCENTAGE) */\n      0xff\n      and\n        /* \"Treasury.sol\":2057:2066  msg.value */\n      callvalue\n        /* \"Treasury.sol\":2057:2113  msg.value * uint256(DoAConstants.PUBLIC_FUND_PERCENTAGE) */\n      tag_87\n      swap2\n      swap1\n      tag_88\n      jump\t// in\n    tag_87:\n        /* \"Treasury.sol\":2056:2120  (msg.value * uint256(DoAConstants.PUBLIC_FUND_PERCENTAGE)) / 100 */\n      tag_89\n      swap2\n      swap1\n      tag_90\n      jump\t// in\n    tag_89:\n        /* \"Treasury.sol\":2034:2120  uint256 publicShare = (msg.value * uint256(DoAConstants.PUBLIC_FUND_PERCENTAGE)) / 100 */\n      swap1\n      pop\n        /* \"Treasury.sol\":2153:2164  publicShare */\n      dup1\n        /* \"Treasury.sol\":2139:2149  publicFund */\n      0x03\n      0x00\n        /* \"Treasury.sol\":2139:2164  publicFund += publicShare */\n      dup3\n      dup3\n      sload\n      tag_91\n      swap2\n      swap1\n      tag_92\n      jump\t// in\n    tag_91:\n      swap3\n      pop\n      pop\n      dup2\n      swap1\n      sstore\n      pop\n        /* \"Treasury.sol\":2202:2213  publicShare */\n      dup1\n        /* \"Treasury.sol\":2190:2199  msg.value */\n      callvalue\n        /* \"Treasury.sol\":2190:2213  msg.value - publicShare */\n      tag_93\n      swap2\n      swap1\n      tag_71\n      jump\t// in\n    tag_93:\n        /* \"Treasury.sol\":2174:2185  privateFund */\n      0x02\n      0x00\n        /* \"Treasury.sol\":2174:2214  privateFund += (msg.value - publicShare) */\n      dup3\n      dup3\n      sload\n      tag_94\n      swap2\n      swap1\n      tag_92\n      jump\t// in\n    tag_94:\n      swap3\n      pop\n      pop\n      dup2\n      swap1\n      sstore\n      pop\n        /* \"Treasury.sol\":1947:2221  {... */\n      pop\n        /* \"Treasury.sol\":1900:2221  function depositNFTRevenue() external  payable {... */\n      jump\t// out\n        /* \"Treasury.sol\":1558:1617  function pause() public onlyOwner {... */\n    tag_48:\n        /* \"@openzeppelin/contracts/access/Ownable.sol\":1094:1107  _checkOwner() */\n      tag_96\n        /* \"@openzeppelin/contracts/access/Ownable.sol\":1094:1105  _checkOwner */\n      tag_65\n        /* \"@openzeppelin/contracts/access/Ownable.sol\":1094:1107  _checkOwner() */\n      jump\t// in\n    tag_96:\n        /* \"Treasury.sol\":1602:1610  _pause() */\n      tag_98\n        /* \"Treasury.sol\":1602:1608  _pause */\n      tag_99\n        /* \"Treasury.sol\":1602:1610  _pause() */\n      jump\t// in\n    tag_98:\n        /* \"Treasury.sol\":1558:1617  function pause() public onlyOwner {... */\n      jump\t// out\n        /* \"@openzeppelin/contracts/access/Ownable.sol\":1201:1286  function owner() public view virtual returns (address) {... */\n    tag_51:\n        /* \"@openzeppelin/contracts/access/Ownable.sol\":1247:1254  address */\n      0x00\n        /* \"@openzeppelin/contracts/access/Ownable.sol\":1273:1279  _owner */\n      dup1\n      0x00\n      swap1\n      sload\n      swap1\n      0x0100\n      exp\n      swap1\n      div\n      0xffffffffffffffffffffffffffffffffffffffff\n      and\n        /* \"@openzeppelin/contracts/access/Ownable.sol\":1266:1279  return _owner */\n      swap1\n      pop\n        /* \"@openzeppelin/contracts/access/Ownable.sol\":1201:1286  function owner() public view virtual returns (address) {... */\n      swap1\n      jump\t// out\n        /* \"Treasury.sol\":1216:1353  function addAuthorizedContract(address contractAddress) external  onlyOwner {... */\n    tag_58:\n        /* \"@openzeppelin/contracts/access/Ownable.sol\":1094:1107  _checkOwner() */\n      tag_102\n        /* \"@openzeppelin/contracts/access/Ownable.sol\":1094:1105  _checkOwner */\n      tag_65\n        /* \"@openzeppelin/contracts/access/Ownable.sol\":1094:1107  _checkOwner() */\n      jump\t// in\n    tag_102:\n        /* \"Treasury.sol\":1342:1346  true */\n      0x01\n        /* \"Treasury.sol\":1302:1322  _authorizedContracts */\n      0x04\n        /* \"Treasury.sol\":1302:1339  _authorizedContracts[contractAddress] */\n      0x00\n        /* \"Treasury.sol\":1323:1338  contractAddress */\n      dup4\n        /* \"Treasury.sol\":1302:1339  _authorizedContracts[contractAddress] */\n      0xffffffffffffffffffffffffffffffffffffffff\n      and\n      0xffffffffffffffffffffffffffffffffffffffff\n      and\n      dup2\n      mstore\n      0x20\n      add\n      swap1\n      dup2\n      mstore\n      0x20\n      add\n      0x00\n      keccak256\n      0x00\n        /* \"Treasury.sol\":1302:1346  _authorizedContracts[contractAddress] = true */\n      0x0100\n      exp\n      dup2\n      sload\n      dup2\n      0xff\n      mul\n      not\n      and\n      swap1\n      dup4\n      iszero\n      iszero\n      mul\n      or\n      swap1\n      sstore\n      pop\n        /* \"Treasury.sol\":1216:1353  function addAuthorizedContract(address contractAddress) external  onlyOwner {... */\n      pop\n      jump\t// out\n        /* \"@openzeppelin/contracts/access/Ownable.sol\":2081:2279  function transferOwnership(address newOwner) public virtual onlyOwner {... */\n    tag_62:\n        /* \"@openzeppelin/contracts/access/Ownable.sol\":1094:1107  _checkOwner() */\n      tag_105\n        /* \"@openzeppelin/contracts/access/Ownable.sol\":1094:1105  _checkOwner */\n      tag_65\n        /* \"@openzeppelin/contracts/access/Ownable.sol\":1094:1107  _checkOwner() */\n      jump\t// in\n    tag_105:\n        /* \"@openzeppelin/contracts/access/Ownable.sol\":2189:2190  0 */\n      0x00\n        /* \"@openzeppelin/contracts/access/Ownable.sol\":2169:2191  newOwner != address(0) */\n      0xffffffffffffffffffffffffffffffffffffffff\n      and\n        /* \"@openzeppelin/contracts/access/Ownable.sol\":2169:2177  newOwner */\n      dup2\n        /* \"@openzeppelin/contracts/access/Ownable.sol\":2169:2191  newOwner != address(0) */\n      0xffffffffffffffffffffffffffffffffffffffff\n      and\n      sub\n        /* \"@openzeppelin/contracts/access/Ownable.sol\":2161:2234  require(newOwner != address(0), \"Ownable: new owner is the zero address\") */\n      tag_107\n      jumpi\n      mload(0x40)\n      0x08c379a000000000000000000000000000000000000000000000000000000000\n      dup2\n      mstore\n      0x04\n      add\n      tag_108\n      swap1\n      tag_109\n      jump\t// in\n    tag_108:\n      mload(0x40)\n      dup1\n      swap2\n      sub\n      swap1\n      revert\n    tag_107:\n        /* \"@openzeppelin/contracts/access/Ownable.sol\":2244:2272  _transferOwnership(newOwner) */\n      tag_110\n        /* \"@openzeppelin/contracts/access/Ownable.sol\":2263:2271  newOwner */\n      dup2\n        /* \"@openzeppelin/contracts/access/Ownable.sol\":2244:2262  _transferOwnership */\n      tag_85\n        /* \"@openzeppelin/contracts/access/Ownable.sol\":2244:2272  _transferOwnership(newOwner) */\n      jump\t// in\n    tag_110:\n        /* \"@openzeppelin/contracts/access/Ownable.sol\":2081:2279  function transferOwnership(address newOwner) public virtual onlyOwner {... */\n      pop\n      jump\t// out\n        /* \"@openzeppelin/contracts/access/Ownable.sol\":1359:1489  function _checkOwner() internal view virtual {... */\n    tag_65:\n        /* \"@openzeppelin/contracts/access/Ownable.sol\":1433:1445  _msgSender() */\n      tag_112\n        /* \"@openzeppelin/contracts/access/Ownable.sol\":1433:1443  _msgSender */\n      tag_113\n        /* \"@openzeppelin/contracts/access/Ownable.sol\":1433:1445  _msgSender() */\n      jump\t// in\n    tag_112:\n        /* \"@openzeppelin/contracts/access/Ownable.sol\":1422:1445  owner() == _msgSender() */\n      0xffffffffffffffffffffffffffffffffffffffff\n      and\n        /* \"@openzeppelin/contracts/access/Ownable.sol\":1422:1429  owner() */\n      tag_114\n        /* \"@openzeppelin/contracts/access/Ownable.sol\":1422:1427  owner */\n      tag_51\n        /* \"@openzeppelin/contracts/access/Ownable.sol\":1422:1429  owner() */\n      jump\t// in\n    tag_114:\n        /* \"@openzeppelin/contracts/access/Ownable.sol\":1422:1445  owner() == _msgSender() */\n      0xffffffffffffffffffffffffffffffffffffffff\n      and\n      eq\n        /* \"@openzeppelin/contracts/access/Ownable.sol\":1414:1482  require(owner() == _msgSender(), \"Ownable: caller is not the owner\") */\n      tag_115\n      jumpi\n      mload(0x40)\n      0x08c379a000000000000000000000000000000000000000000000000000000000\n      dup2\n      mstore\n      0x04\n      add\n      tag_116\n      swap1\n      tag_117\n      jump\t// in\n    tag_116:\n      mload(0x40)\n      dup1\n      swap2\n      sub\n      swap1\n      revert\n    tag_115:\n        /* \"@openzeppelin/contracts/access/Ownable.sol\":1359:1489  function _checkOwner() internal view virtual {... */\n      jump\t// out\n        /* \"@openzeppelin/contracts/security/Pausable.sol\":2433:2550  function _unpause() internal virtual whenPaused {... */\n    tag_79:\n        /* \"@openzeppelin/contracts/security/Pausable.sol\":1486:1502  _requirePaused() */\n      tag_119\n        /* \"@openzeppelin/contracts/security/Pausable.sol\":1486:1500  _requirePaused */\n      tag_120\n        /* \"@openzeppelin/contracts/security/Pausable.sol\":1486:1502  _requirePaused() */\n      jump\t// in\n    tag_119:\n        /* \"@openzeppelin/contracts/security/Pausable.sol\":2501:2506  false */\n      0x00\n        /* \"@openzeppelin/contracts/security/Pausable.sol\":2491:2498  _paused */\n      dup1\n      0x14\n        /* \"@openzeppelin/contracts/security/Pausable.sol\":2491:2506  _paused = false */\n      0x0100\n      exp\n      dup2\n      sload\n      dup2\n      0xff\n      mul\n      not\n      and\n      swap1\n      dup4\n      iszero\n      iszero\n      mul\n      or\n      swap1\n      sstore\n      pop\n        /* \"@openzeppelin/contracts/security/Pausable.sol\":2521:2543  Unpaused(_msgSender()) */\n      0x5db9ee0a495bf2e6ff9c91a7834c1ba4fdd244a5e8aa4e537bd38aeae4b073aa\n        /* \"@openzeppelin/contracts/security/Pausable.sol\":2530:2542  _msgSender() */\n      tag_122\n        /* \"@openzeppelin/contracts/security/Pausable.sol\":2530:2540  _msgSender */\n      tag_113\n        /* \"@openzeppelin/contracts/security/Pausable.sol\":2530:2542  _msgSender() */\n      jump\t// in\n    tag_122:\n        /* \"@openzeppelin/contracts/security/Pausable.sol\":2521:2543  Unpaused(_msgSender()) */\n      mload(0x40)\n      tag_123\n      swap2\n      swap1\n      tag_53\n      jump\t// in\n    tag_123:\n      mload(0x40)\n      dup1\n      swap2\n      sub\n      swap1\n      log1\n        /* \"@openzeppelin/contracts/security/Pausable.sol\":2433:2550  function _unpause() internal virtual whenPaused {... */\n      jump\t// out\n        /* \"@openzeppelin/contracts/access/Ownable.sol\":2433:2620  function _transferOwnership(address newOwner) internal virtual {... */\n    tag_85:\n        /* \"@openzeppelin/contracts/access/Ownable.sol\":2506:2522  address oldOwner */\n      0x00\n        /* \"@openzeppelin/contracts/access/Ownable.sol\":2525:2531  _owner */\n      dup1\n      0x00\n      swap1\n      sload\n      swap1\n      0x0100\n      exp\n      swap1\n      div\n      0xffffffffffffffffffffffffffffffffffffffff\n      and\n        /* \"@openzeppelin/contracts/access/Ownable.sol\":2506:2531  address oldOwner = _owner */\n      swap1\n      pop\n        /* \"@openzeppelin/contracts/access/Ownable.sol\":2550:2558  newOwner */\n      dup2\n        /* \"@openzeppelin/contracts/access/Ownable.sol\":2541:2547  _owner */\n      0x00\n      dup1\n        /* \"@openzeppelin/contracts/access/Ownable.sol\":2541:2558  _owner = newOwner */\n      0x0100\n      exp\n      dup2\n      sload\n      dup2\n      0xffffffffffffffffffffffffffffffffffffffff\n      mul\n      not\n      and\n      swap1\n      dup4\n      0xffffffffffffffffffffffffffffffffffffffff\n      and\n      mul\n      or\n      swap1\n      sstore\n      pop\n        /* \"@openzeppelin/contracts/access/Ownable.sol\":2604:2612  newOwner */\n      dup2\n        /* \"@openzeppelin/contracts/access/Ownable.sol\":2573:2613  OwnershipTransferred(oldOwner, newOwner) */\n      0xffffffffffffffffffffffffffffffffffffffff\n      and\n        /* \"@openzeppelin/contracts/access/Ownable.sol\":2594:2602  oldOwner */\n      dup2\n        /* \"@openzeppelin/contracts/access/Ownable.sol\":2573:2613  OwnershipTransferred(oldOwner, newOwner) */\n      0xffffffffffffffffffffffffffffffffffffffff\n      and\n      0x8be0079c531659141344cd1fd0a4f28419497f9722a3daafe3b4186f6b6457e0\n      mload(0x40)\n      mload(0x40)\n      dup1\n      swap2\n      sub\n      swap1\n      log3\n        /* \"@openzeppelin/contracts/access/Ownable.sol\":2496:2620  {... */\n      pop\n        /* \"@openzeppelin/contracts/access/Ownable.sol\":2433:2620  function _transferOwnership(address newOwner) internal virtual {... */\n      pop\n      jump\t// out\n        /* \"@openzeppelin/contracts/security/Pausable.sol\":2186:2301  function _pause() internal virtual whenNotPaused {... */\n    tag_99:\n        /* \"@openzeppelin/contracts/security/Pausable.sol\":1239:1258  _requireNotPaused() */\n      tag_126\n        /* \"@openzeppelin/contracts/security/Pausable.sol\":1239:1256  _requireNotPaused */\n      tag_127\n        /* \"@openzeppelin/contracts/security/Pausable.sol\":1239:1258  _requireNotPaused() */\n      jump\t// in\n    tag_126:\n        /* \"@openzeppelin/contracts/security/Pausable.sol\":2255:2259  true */\n      0x01\n        /* \"@openzeppelin/contracts/security/Pausable.sol\":2245:2252  _paused */\n      0x00\n      0x14\n        /* \"@openzeppelin/contracts/security/Pausable.sol\":2245:2259  _paused = true */\n      0x0100\n      exp\n      dup2\n      sload\n      dup2\n      0xff\n      mul\n      not\n      and\n      swap1\n      dup4\n      iszero\n      iszero\n      mul\n      or\n      swap1\n      sstore\n      pop\n        /* \"@openzeppelin/contracts/security/Pausable.sol\":2274:2294  Paused(_msgSender()) */\n      0x62e78cea01bee320cd4e420270b5ea74000d11b0c9f74754ebdbfc544b05a258\n        /* \"@openzeppelin/contracts/security/Pausable.sol\":2281:2293  _msgSender() */\n      tag_129\n        /* \"@openzeppelin/contracts/security/Pausable.sol\":2281:2291  _msgSender */\n      tag_113\n        /* \"@openzeppelin/contracts/security/Pausable.sol\":2281:2293  _msgSender() */\n      jump\t// in\n    tag_129:\n        /* \"@openzeppelin/contracts/security/Pausable.sol\":2274:2294  Paused(_msgSender()) */\n      mload(0x40)\n      tag_130\n      swap2\n      swap1\n      tag_53\n      jump\t// in\n    tag_130:\n      mload(0x40)\n      dup1\n      swap2\n      sub\n      swap1\n      log1\n        /* \"@openzeppelin/contracts/security/Pausable.sol\":2186:2301  function _pause() internal virtual whenNotPaused {... */\n      jump\t// out\n        /* \"@openzeppelin/contracts/utils/Context.sol\":640:736  function _msgSender() internal view virtual returns (address) {... */\n    tag_113:\n        /* \"@openzeppelin/contracts/utils/Context.sol\":693:700  address */\n      0x00\n        /* \"@openzeppelin/contracts/utils/Context.sol\":719:729  msg.sender */\n      caller\n        /* \"@openzeppelin/contracts/utils/Context.sol\":712:729  return msg.sender */\n      swap1\n      pop\n        /* \"@openzeppelin/contracts/utils/Context.sol\":640:736  function _msgSender() internal view virtual returns (address) {... */\n      swap1\n      jump\t// out\n        /* \"@openzeppelin/contracts/security/Pausable.sol\":1945:2051  function _requirePaused() internal view virtual {... */\n    tag_120:\n        /* \"@openzeppelin/contracts/security/Pausable.sol\":2011:2019  paused() */\n      tag_133\n        /* \"@openzeppelin/contracts/security/Pausable.sol\":2011:2017  paused */\n      tag_34\n        /* \"@openzeppelin/contracts/security/Pausable.sol\":2011:2019  paused() */\n      jump\t// in\n    tag_133:\n        /* \"@openzeppelin/contracts/security/Pausable.sol\":2003:2044  require(paused(), \"Pausable: not paused\") */\n      tag_134\n      jumpi\n      mload(0x40)\n      0x08c379a000000000000000000000000000000000000000000000000000000000\n      dup2\n      mstore\n      0x04\n      add\n      tag_135\n      swap1\n      tag_136\n      jump\t// in\n    tag_135:\n      mload(0x40)\n      dup1\n      swap2\n      sub\n      swap1\n      revert\n    tag_134:\n        /* \"@openzeppelin/contracts/security/Pausable.sol\":1945:2051  function _requirePaused() internal view virtual {... */\n      jump\t// out\n        /* \"@openzeppelin/contracts/security/Pausable.sol\":1767:1873  function _requireNotPaused() internal view virtual {... */\n    tag_127:\n        /* \"@openzeppelin/contracts/security/Pausable.sol\":1837:1845  paused() */\n      tag_138\n        /* \"@openzeppelin/contracts/security/Pausable.sol\":1837:1843  paused */\n      tag_34\n        /* \"@openzeppelin/contracts/security/Pausable.sol\":1837:1845  paused() */\n      jump\t// in\n    tag_138:\n        /* \"@openzeppelin/contracts/security/Pausable.sol\":1836:1845  !paused() */\n      iszero\n        /* \"@openzeppelin/contracts/security/Pausable.sol\":1828:1866  require(!paused(), \"Pausable: paused\") */\n      tag_139\n      jumpi\n      mload(0x40)\n      0x08c379a000000000000000000000000000000000000000000000000000000000\n      dup2\n      mstore\n      0x04\n      add\n      tag_140\n      swap1\n      tag_141\n      jump\t// in\n    tag_140:\n      mload(0x40)\n      dup1\n      swap2\n      sub\n      swap1\n      revert\n    tag_139:\n        /* \"@openzeppelin/contracts/security/Pausable.sol\":1767:1873  function _requireNotPaused() internal view virtual {... */\n      jump\t// out\n        /* \"#utility.yul\":7:84   */\n    tag_142:\n        /* \"#utility.yul\":44:51   */\n      0x00\n        /* \"#utility.yul\":73:78   */\n      dup2\n        /* \"#utility.yul\":62:78   */\n      swap1\n      pop\n        /* \"#utility.yul\":7:84   */\n      swap2\n      swap1\n      pop\n      jump\t// out\n        /* \"#utility.yul\":90:208   */\n    tag_143:\n        /* \"#utility.yul\":177:201   */\n      tag_172\n        /* \"#utility.yul\":195:200   */\n      dup2\n        /* \"#utility.yul\":177:201   */\n      tag_142\n      jump\t// in\n    tag_172:\n        /* \"#utility.yul\":172:175   */\n      dup3\n        /* \"#utility.yul\":165:202   */\n      mstore\n        /* \"#utility.yul\":90:208   */\n      pop\n      pop\n      jump\t// out\n        /* \"#utility.yul\":214:436   */\n    tag_19:\n        /* \"#utility.yul\":307:311   */\n      0x00\n        /* \"#utility.yul\":345:347   */\n      0x20\n        /* \"#utility.yul\":334:343   */\n      dup3\n        /* \"#utility.yul\":330:348   */\n      add\n        /* \"#utility.yul\":322:348   */\n      swap1\n      pop\n        /* \"#utility.yul\":358:429   */\n      tag_174\n        /* \"#utility.yul\":426:427   */\n      0x00\n        /* \"#utility.yul\":415:424   */\n      dup4\n        /* \"#utility.yul\":411:428   */\n      add\n        /* \"#utility.yul\":402:408   */\n      dup5\n        /* \"#utility.yul\":358:429   */\n      tag_143\n      jump\t// in\n    tag_174:\n        /* \"#utility.yul\":214:436   */\n      swap3\n      swap2\n      pop\n      pop\n      jump\t// out\n        /* \"#utility.yul\":523:640   */\n    tag_145:\n        /* \"#utility.yul\":632:633   */\n      0x00\n        /* \"#utility.yul\":629:630   */\n      dup1\n        /* \"#utility.yul\":622:634   */\n      revert\n        /* \"#utility.yul\":769:891   */\n    tag_147:\n        /* \"#utility.yul\":842:866   */\n      tag_179\n        /* \"#utility.yul\":860:865   */\n      dup2\n        /* \"#utility.yul\":842:866   */\n      tag_142\n      jump\t// in\n    tag_179:\n        /* \"#utility.yul\":835:840   */\n      dup2\n        /* \"#utility.yul\":832:867   */\n      eq\n        /* \"#utility.yul\":822:885   */\n      tag_180\n      jumpi\n        /* \"#utility.yul\":881:882   */\n      0x00\n        /* \"#utility.yul\":878:879   */\n      dup1\n        /* \"#utility.yul\":871:883   */\n      revert\n        /* \"#utility.yul\":822:885   */\n    tag_180:\n        /* \"#utility.yul\":769:891   */\n      pop\n      jump\t// out\n        /* \"#utility.yul\":897:1036   */\n    tag_148:\n        /* \"#utility.yul\":943:948   */\n      0x00\n        /* \"#utility.yul\":981:987   */\n      dup2\n        /* \"#utility.yul\":968:988   */\n      calldataload\n        /* \"#utility.yul\":959:988   */\n      swap1\n      pop\n        /* \"#utility.yul\":997:1030   */\n      tag_182\n        /* \"#utility.yul\":1024:1029   */\n      dup2\n        /* \"#utility.yul\":997:1030   */\n      tag_147\n      jump\t// in\n    tag_182:\n        /* \"#utility.yul\":897:1036   */\n      swap3\n      swap2\n      pop\n      pop\n      jump\t// out\n        /* \"#utility.yul\":1042:1371   */\n    tag_23:\n        /* \"#utility.yul\":1101:1107   */\n      0x00\n        /* \"#utility.yul\":1150:1152   */\n      0x20\n        /* \"#utility.yul\":1138:1147   */\n      dup3\n        /* \"#utility.yul\":1129:1136   */\n      dup5\n        /* \"#utility.yul\":1125:1148   */\n      sub\n        /* \"#utility.yul\":1121:1153   */\n      slt\n        /* \"#utility.yul\":1118:1237   */\n      iszero\n      tag_184\n      jumpi\n        /* \"#utility.yul\":1156:1235   */\n      tag_185\n      tag_145\n      jump\t// in\n    tag_185:\n        /* \"#utility.yul\":1118:1237   */\n    tag_184:\n        /* \"#utility.yul\":1276:1277   */\n      0x00\n        /* \"#utility.yul\":1301:1354   */\n      tag_186\n        /* \"#utility.yul\":1346:1353   */\n      dup5\n        /* \"#utility.yul\":1337:1343   */\n      dup3\n        /* \"#utility.yul\":1326:1335   */\n      dup6\n        /* \"#utility.yul\":1322:1344   */\n      add\n        /* \"#utility.yul\":1301:1354   */\n      tag_148\n      jump\t// in\n    tag_186:\n        /* \"#utility.yul\":1291:1354   */\n      swap2\n      pop\n        /* \"#utility.yul\":1247:1364   */\n      pop\n        /* \"#utility.yul\":1042:1371   */\n      swap3\n      swap2\n      pop\n      pop\n      jump\t// out\n        /* \"#utility.yul\":1377:1467   */\n    tag_149:\n        /* \"#utility.yul\":1411:1418   */\n      0x00\n        /* \"#utility.yul\":1454:1459   */\n      dup2\n        /* \"#utility.yul\":1447:1460   */\n      iszero\n        /* \"#utility.yul\":1440:1461   */\n      iszero\n        /* \"#utility.yul\":1429:1461   */\n      swap1\n      pop\n        /* \"#utility.yul\":1377:1467   */\n      swap2\n      swap1\n      pop\n      jump\t// out\n        /* \"#utility.yul\":1473:1582   */\n    tag_150:\n        /* \"#utility.yul\":1554:1575   */\n      tag_189\n        /* \"#utility.yul\":1569:1574   */\n      dup2\n        /* \"#utility.yul\":1554:1575   */\n      tag_149\n      jump\t// in\n    tag_189:\n        /* \"#utility.yul\":1549:1552   */\n      dup3\n        /* \"#utility.yul\":1542:1576   */\n      mstore\n        /* \"#utility.yul\":1473:1582   */\n      pop\n      pop\n      jump\t// out\n        /* \"#utility.yul\":1588:1798   */\n    tag_36:\n        /* \"#utility.yul\":1675:1679   */\n      0x00\n        /* \"#utility.yul\":1713:1715   */\n      0x20\n        /* \"#utility.yul\":1702:1711   */\n      dup3\n        /* \"#utility.yul\":1698:1716   */\n      add\n        /* \"#utility.yul\":1690:1716   */\n      swap1\n      pop\n        /* \"#utility.yul\":1726:1791   */\n      tag_191\n        /* \"#utility.yul\":1788:1789   */\n      0x00\n        /* \"#utility.yul\":1777:1786   */\n      dup4\n        /* \"#utility.yul\":1773:1790   */\n      add\n        /* \"#utility.yul\":1764:1770   */\n      dup5\n        /* \"#utility.yul\":1726:1791   */\n      tag_150\n      jump\t// in\n    tag_191:\n        /* \"#utility.yul\":1588:1798   */\n      swap3\n      swap2\n      pop\n      pop\n      jump\t// out\n        /* \"#utility.yul\":1804:1930   */\n    tag_151:\n        /* \"#utility.yul\":1841:1848   */\n      0x00\n        /* \"#utility.yul\":1881:1923   */\n      0xffffffffffffffffffffffffffffffffffffffff\n        /* \"#utility.yul\":1874:1879   */\n      dup3\n        /* \"#utility.yul\":1870:1924   */\n      and\n        /* \"#utility.yul\":1859:1924   */\n      swap1\n      pop\n        /* \"#utility.yul\":1804:1930   */\n      swap2\n      swap1\n      pop\n      jump\t// out\n        /* \"#utility.yul\":1936:2032   */\n    tag_152:\n        /* \"#utility.yul\":1973:1980   */\n      0x00\n        /* \"#utility.yul\":2002:2026   */\n      tag_194\n        /* \"#utility.yul\":2020:2025   */\n      dup3\n        /* \"#utility.yul\":2002:2026   */\n      tag_151\n      jump\t// in\n    tag_194:\n        /* \"#utility.yul\":1991:2026   */\n      swap1\n      pop\n        /* \"#utility.yul\":1936:2032   */\n      swap2\n      swap1\n      pop\n      jump\t// out\n        /* \"#utility.yul\":2038:2156   */\n    tag_153:\n        /* \"#utility.yul\":2125:2149   */\n      tag_196\n        /* \"#utility.yul\":2143:2148   */\n      dup2\n        /* \"#utility.yul\":2125:2149   */\n      tag_152\n      jump\t// in\n    tag_196:\n        /* \"#utility.yul\":2120:2123   */\n      dup3\n        /* \"#utility.yul\":2113:2150   */\n      mstore\n        /* \"#utility.yul\":2038:2156   */\n      pop\n      pop\n      jump\t// out\n        /* \"#utility.yul\":2162:2384   */\n    tag_53:\n        /* \"#utility.yul\":2255:2259   */\n      0x00\n        /* \"#utility.yul\":2293:2295   */\n      0x20\n        /* \"#utility.yul\":2282:2291   */\n      dup3\n        /* \"#utility.yul\":2278:2296   */\n      add\n        /* \"#utility.yul\":2270:2296   */\n      swap1\n      pop\n        /* \"#utility.yul\":2306:2377   */\n      tag_198\n        /* \"#utility.yul\":2374:2375   */\n      0x00\n        /* \"#utility.yul\":2363:2372   */\n      dup4\n        /* \"#utility.yul\":2359:2376   */\n      add\n        /* \"#utility.yul\":2350:2356   */\n      dup5\n        /* \"#utility.yul\":2306:2377   */\n      tag_153\n      jump\t// in\n    tag_198:\n        /* \"#utility.yul\":2162:2384   */\n      swap3\n      swap2\n      pop\n      pop\n      jump\t// out\n        /* \"#utility.yul\":2390:2512   */\n    tag_154:\n        /* \"#utility.yul\":2463:2487   */\n      tag_200\n        /* \"#utility.yul\":2481:2486   */\n      dup2\n        /* \"#utility.yul\":2463:2487   */\n      tag_152\n      jump\t// in\n    tag_200:\n        /* \"#utility.yul\":2456:2461   */\n      dup2\n        /* \"#utility.yul\":2453:2488   */\n      eq\n        /* \"#utility.yul\":2443:2506   */\n      tag_201\n      jumpi\n        /* \"#utility.yul\":2502:2503   */\n      0x00\n        /* \"#utility.yul\":2499:2500   */\n      dup1\n        /* \"#utility.yul\":2492:2504   */\n      revert\n        /* \"#utility.yul\":2443:2506   */\n    tag_201:\n        /* \"#utility.yul\":2390:2512   */\n      pop\n      jump\t// out\n        /* \"#utility.yul\":2518:2657   */\n    tag_155:\n        /* \"#utility.yul\":2564:2569   */\n      0x00\n        /* \"#utility.yul\":2602:2608   */\n      dup2\n        /* \"#utility.yul\":2589:2609   */\n      calldataload\n        /* \"#utility.yul\":2580:2609   */\n      swap1\n      pop\n        /* \"#utility.yul\":2618:2651   */\n      tag_203\n        /* \"#utility.yul\":2645:2650   */\n      dup2\n        /* \"#utility.yul\":2618:2651   */\n      tag_154\n      jump\t// in\n    tag_203:\n        /* \"#utility.yul\":2518:2657   */\n      swap3\n      swap2\n      pop\n      pop\n      jump\t// out\n        /* \"#utility.yul\":2663:2992   */\n    tag_57:\n        /* \"#utility.yul\":2722:2728   */\n      0x00\n        /* \"#utility.yul\":2771:2773   */\n      0x20\n        /* \"#utility.yul\":2759:2768   */\n      dup3\n        /* \"#utility.yul\":2750:2757   */\n      dup5\n        /* \"#utility.yul\":2746:2769   */\n      sub\n        /* \"#utility.yul\":2742:2774   */\n      slt\n        /* \"#utility.yul\":2739:2858   */\n      iszero\n      tag_205\n      jumpi\n        /* \"#utility.yul\":2777:2856   */\n      tag_206\n      tag_145\n      jump\t// in\n    tag_206:\n        /* \"#utility.yul\":2739:2858   */\n    tag_205:\n        /* \"#utility.yul\":2897:2898   */\n      0x00\n        /* \"#utility.yul\":2922:2975   */\n      tag_207\n        /* \"#utility.yul\":2967:2974   */\n      dup5\n        /* \"#utility.yul\":2958:2964   */\n      dup3\n        /* \"#utility.yul\":2947:2956   */\n      dup6\n        /* \"#utility.yul\":2943:2965   */\n      add\n        /* \"#utility.yul\":2922:2975   */\n      tag_155\n      jump\t// in\n    tag_207:\n        /* \"#utility.yul\":2912:2975   */\n      swap2\n      pop\n        /* \"#utility.yul\":2868:2985   */\n      pop\n        /* \"#utility.yul\":2663:2992   */\n      swap3\n      swap2\n      pop\n      pop\n      jump\t// out\n        /* \"#utility.yul\":2998:3167   */\n    tag_156:\n        /* \"#utility.yul\":3082:3093   */\n      0x00\n        /* \"#utility.yul\":3116:3122   */\n      dup3\n        /* \"#utility.yul\":3111:3114   */\n      dup3\n        /* \"#utility.yul\":3104:3123   */\n      mstore\n        /* \"#utility.yul\":3156:3160   */\n      0x20\n        /* \"#utility.yul\":3151:3154   */\n      dup3\n        /* \"#utility.yul\":3147:3161   */\n      add\n        /* \"#utility.yul\":3132:3161   */\n      swap1\n      pop\n        /* \"#utility.yul\":2998:3167   */\n      swap3\n      swap2\n      pop\n      pop\n      jump\t// out\n        /* \"#utility.yul\":3173:3339   */\n    tag_157:\n        /* \"#utility.yul\":3313:3331   */\n      0x4e6f7420656e6f7567682066756e647300000000000000000000000000000000\n        /* \"#utility.yul\":3309:3310   */\n      0x00\n        /* \"#utility.yul\":3301:3307   */\n      dup3\n        /* \"#utility.yul\":3297:3311   */\n      add\n        /* \"#utility.yul\":3290:3332   */\n      mstore\n        /* \"#utility.yul\":3173:3339   */\n      pop\n      jump\t// out\n        /* \"#utility.yul\":3345:3711   */\n    tag_158:\n        /* \"#utility.yul\":3487:3490   */\n      0x00\n        /* \"#utility.yul\":3508:3575   */\n      tag_211\n        /* \"#utility.yul\":3572:3574   */\n      0x10\n        /* \"#utility.yul\":3567:3570   */\n      dup4\n        /* \"#utility.yul\":3508:3575   */\n      tag_156\n      jump\t// in\n    tag_211:\n        /* \"#utility.yul\":3501:3575   */\n      swap2\n      pop\n        /* \"#utility.yul\":3584:3677   */\n      tag_212\n        /* \"#utility.yul\":3673:3676   */\n      dup3\n        /* \"#utility.yul\":3584:3677   */\n      tag_157\n      jump\t// in\n    tag_212:\n        /* \"#utility.yul\":3702:3704   */\n      0x20\n        /* \"#utility.yul\":3697:3700   */\n      dup3\n        /* \"#utility.yul\":3693:3705   */\n      add\n        /* \"#utility.yul\":3686:3705   */\n      swap1\n      pop\n        /* \"#utility.yul\":3345:3711   */\n      swap2\n      swap1\n      pop\n      jump\t// out\n        /* \"#utility.yul\":3717:4136   */\n    tag_69:\n        /* \"#utility.yul\":3883:3887   */\n      0x00\n        /* \"#utility.yul\":3921:3923   */\n      0x20\n        /* \"#utility.yul\":3910:3919   */\n      dup3\n        /* \"#utility.yul\":3906:3924   */\n      add\n        /* \"#utility.yul\":3898:3924   */\n      swap1\n      pop\n        /* \"#utility.yul\":3970:3979   */\n      dup2\n        /* \"#utility.yul\":3964:3968   */\n      dup2\n        /* \"#utility.yul\":3960:3980   */\n      sub\n        /* \"#utility.yul\":3956:3957   */\n      0x00\n        /* \"#utility.yul\":3945:3954   */\n      dup4\n        /* \"#utility.yul\":3941:3958   */\n      add\n        /* \"#utility.yul\":3934:3981   */\n      mstore\n        /* \"#utility.yul\":3998:4129   */\n      tag_214\n        /* \"#utility.yul\":4124:4128   */\n      dup2\n        /* \"#utility.yul\":3998:4129   */\n      tag_158\n      jump\t// in\n    tag_214:\n        /* \"#utility.yul\":3990:4129   */\n      swap1\n      pop\n        /* \"#utility.yul\":3717:4136   */\n      swap2\n      swap1\n      pop\n      jump\t// out\n        /* \"#utility.yul\":4142:4322   */\n    tag_159:\n        /* \"#utility.yul\":4190:4267   */\n      0x4e487b7100000000000000000000000000000000000000000000000000000000\n        /* \"#utility.yul\":4187:4188   */\n      0x00\n        /* \"#utility.yul\":4180:4268   */\n      mstore\n        /* \"#utility.yul\":4287:4291   */\n      0x11\n        /* \"#utility.yul\":4284:4285   */\n      0x04\n        /* \"#utility.yul\":4277:4292   */\n      mstore\n        /* \"#utility.yul\":4311:4315   */\n      0x24\n        /* \"#utility.yul\":4308:4309   */\n      0x00\n        /* \"#utility.yul\":4301:4316   */\n      revert\n        /* \"#utility.yul\":4328:4522   */\n    tag_71:\n        /* \"#utility.yul\":4368:4372   */\n      0x00\n        /* \"#utility.yul\":4388:4408   */\n      tag_217\n        /* \"#utility.yul\":4406:4407   */\n      dup3\n        /* \"#utility.yul\":4388:4408   */\n      tag_142\n      jump\t// in\n    tag_217:\n        /* \"#utility.yul\":4383:4408   */\n      swap2\n      pop\n        /* \"#utility.yul\":4422:4442   */\n      tag_218\n        /* \"#utility.yul\":4440:4441   */\n      dup4\n        /* \"#utility.yul\":4422:4442   */\n      tag_142\n      jump\t// in\n    tag_218:\n        /* \"#utility.yul\":4417:4442   */\n      swap3\n      pop\n        /* \"#utility.yul\":4466:4467   */\n      dup3\n        /* \"#utility.yul\":4463:4464   */\n      dup3\n        /* \"#utility.yul\":4459:4468   */\n      sub\n        /* \"#utility.yul\":4451:4468   */\n      swap1\n      pop\n        /* \"#utility.yul\":4490:4491   */\n      dup2\n        /* \"#utility.yul\":4484:4488   */\n      dup2\n        /* \"#utility.yul\":4481:4492   */\n      gt\n        /* \"#utility.yul\":4478:4515   */\n      iszero\n      tag_219\n      jumpi\n        /* \"#utility.yul\":4495:4513   */\n      tag_220\n      tag_159\n      jump\t// in\n    tag_220:\n        /* \"#utility.yul\":4478:4515   */\n    tag_219:\n        /* \"#utility.yul\":4328:4522   */\n      swap3\n      swap2\n      pop\n      pop\n      jump\t// out\n        /* \"#utility.yul\":4528:4938   */\n    tag_88:\n        /* \"#utility.yul\":4568:4575   */\n      0x00\n        /* \"#utility.yul\":4591:4611   */\n      tag_222\n        /* \"#utility.yul\":4609:4610   */\n      dup3\n        /* \"#utility.yul\":4591:4611   */\n      tag_142\n      jump\t// in\n    tag_222:\n        /* \"#utility.yul\":4586:4611   */\n      swap2\n      pop\n        /* \"#utility.yul\":4625:4645   */\n      tag_223\n        /* \"#utility.yul\":4643:4644   */\n      dup4\n        /* \"#utility.yul\":4625:4645   */\n      tag_142\n      jump\t// in\n    tag_223:\n        /* \"#utility.yul\":4620:4645   */\n      swap3\n      pop\n        /* \"#utility.yul\":4680:4681   */\n      dup3\n        /* \"#utility.yul\":4677:4678   */\n      dup3\n        /* \"#utility.yul\":4673:4682   */\n      mul\n        /* \"#utility.yul\":4702:4732   */\n      tag_224\n        /* \"#utility.yul\":4720:4731   */\n      dup2\n        /* \"#utility.yul\":4702:4732   */\n      tag_142\n      jump\t// in\n    tag_224:\n        /* \"#utility.yul\":4691:4732   */\n      swap2\n      pop\n        /* \"#utility.yul\":4881:4882   */\n      dup3\n        /* \"#utility.yul\":4872:4879   */\n      dup3\n        /* \"#utility.yul\":4868:4883   */\n      div\n        /* \"#utility.yul\":4865:4866   */\n      dup5\n        /* \"#utility.yul\":4862:4884   */\n      eq\n        /* \"#utility.yul\":4842:4843   */\n      dup4\n        /* \"#utility.yul\":4835:4844   */\n      iszero\n        /* \"#utility.yul\":4815:4898   */\n      or\n        /* \"#utility.yul\":4792:4931   */\n      tag_225\n      jumpi\n        /* \"#utility.yul\":4911:4929   */\n      tag_226\n      tag_159\n      jump\t// in\n    tag_226:\n        /* \"#utility.yul\":4792:4931   */\n    tag_225:\n        /* \"#utility.yul\":4576:4938   */\n      pop\n        /* \"#utility.yul\":4528:4938   */\n      swap3\n      swap2\n      pop\n      pop\n      jump\t// out\n        /* \"#utility.yul\":4944:5124   */\n    tag_160:\n        /* \"#utility.yul\":4992:5069   */\n      0x4e487b7100000000000000000000000000000000000000000000000000000000\n        /* \"#utility.yul\":4989:4990   */\n      0x00\n        /* \"#utility.yul\":4982:5070   */\n      mstore\n        /* \"#utility.yul\":5089:5093   */\n      0x12\n        /* \"#utility.yul\":5086:5087   */\n      0x04\n        /* \"#utility.yul\":5079:5094   */\n      mstore\n        /* \"#utility.yul\":5113:5117   */\n      0x24\n        /* \"#utility.yul\":5110:5111   */\n      0x00\n        /* \"#utility.yul\":5103:5118   */\n      revert\n        /* \"#utility.yul\":5130:5315   */\n    tag_90:\n        /* \"#utility.yul\":5170:5171   */\n      0x00\n        /* \"#utility.yul\":5187:5207   */\n      tag_229\n        /* \"#utility.yul\":5205:5206   */\n      dup3\n        /* \"#utility.yul\":5187:5207   */\n      tag_142\n      jump\t// in\n    tag_229:\n        /* \"#utility.yul\":5182:5207   */\n      swap2\n      pop\n        /* \"#utility.yul\":5221:5241   */\n      tag_230\n        /* \"#utility.yul\":5239:5240   */\n      dup4\n        /* \"#utility.yul\":5221:5241   */\n      tag_142\n      jump\t// in\n    tag_230:\n        /* \"#utility.yul\":5216:5241   */\n      swap3\n      pop\n        /* \"#utility.yul\":5260:5261   */\n      dup3\n        /* \"#utility.yul\":5250:5285   */\n      tag_231\n      jumpi\n        /* \"#utility.yul\":5265:5283   */\n      tag_232\n      tag_160\n      jump\t// in\n    tag_232:\n        /* \"#utility.yul\":5250:5285   */\n    tag_231:\n        /* \"#utility.yul\":5307:5308   */\n      dup3\n        /* \"#utility.yul\":5304:5305   */\n      dup3\n        /* \"#utility.yul\":5300:5309   */\n      div\n        /* \"#utility.yul\":5295:5309   */\n      swap1\n      pop\n        /* \"#utility.yul\":5130:5315   */\n      swap3\n      swap2\n      pop\n      pop\n      jump\t// out\n        /* \"#utility.yul\":5321:5512   */\n    tag_92:\n        /* \"#utility.yul\":5361:5364   */\n      0x00\n        /* \"#utility.yul\":5380:5400   */\n      tag_234\n        /* \"#utility.yul\":5398:5399   */\n      dup3\n        /* \"#utility.yul\":5380:5400   */\n      tag_142\n      jump\t// in\n    tag_234:\n        /* \"#utility.yul\":5375:5400   */\n      swap2\n      pop\n        /* \"#utility.yul\":5414:5434   */\n      tag_235\n        /* \"#utility.yul\":5432:5433   */\n      dup4\n        /* \"#utility.yul\":5414:5434   */\n      tag_142\n      jump\t// in\n    tag_235:\n        /* \"#utility.yul\":5409:5434   */\n      swap3\n      pop\n        /* \"#utility.yul\":5457:5458   */\n      dup3\n        /* \"#utility.yul\":5454:5455   */\n      dup3\n        /* \"#utility.yul\":5450:5459   */\n      add\n        /* \"#utility.yul\":5443:5459   */\n      swap1\n      pop\n        /* \"#utility.yul\":5478:5481   */\n      dup1\n        /* \"#utility.yul\":5475:5476   */\n      dup3\n        /* \"#utility.yul\":5472:5482   */\n      gt\n        /* \"#utility.yul\":5469:5505   */\n      iszero\n      tag_236\n      jumpi\n        /* \"#utility.yul\":5485:5503   */\n      tag_237\n      tag_159\n      jump\t// in\n    tag_237:\n        /* \"#utility.yul\":5469:5505   */\n    tag_236:\n        /* \"#utility.yul\":5321:5512   */\n      swap3\n      swap2\n      pop\n      pop\n      jump\t// out\n        /* \"#utility.yul\":5518:5743   */\n    tag_161:\n        /* \"#utility.yul\":5658:5692   */\n      0x4f776e61626c653a206e6577206f776e657220697320746865207a65726f2061\n        /* \"#utility.yul\":5654:5655   */\n      0x00\n        /* \"#utility.yul\":5646:5652   */\n      dup3\n        /* \"#utility.yul\":5642:5656   */\n      add\n        /* \"#utility.yul\":5635:5693   */\n      mstore\n        /* \"#utility.yul\":5727:5735   */\n      0x6464726573730000000000000000000000000000000000000000000000000000\n        /* \"#utility.yul\":5722:5724   */\n      0x20\n        /* \"#utility.yul\":5714:5720   */\n      dup3\n        /* \"#utility.yul\":5710:5725   */\n      add\n        /* \"#utility.yul\":5703:5736   */\n      mstore\n        /* \"#utility.yul\":5518:5743   */\n      pop\n      jump\t// out\n        /* \"#utility.yul\":5749:6115   */\n    tag_162:\n        /* \"#utility.yul\":5891:5894   */\n      0x00\n        /* \"#utility.yul\":5912:5979   */\n      tag_240\n        /* \"#utility.yul\":5976:5978   */\n      0x26\n        /* \"#utility.yul\":5971:5974   */\n      dup4\n        /* \"#utility.yul\":5912:5979   */\n      tag_156\n      jump\t// in\n    tag_240:\n        /* \"#utility.yul\":5905:5979   */\n      swap2\n      pop\n        /* \"#utility.yul\":5988:6081   */\n      tag_241\n        /* \"#utility.yul\":6077:6080   */\n      dup3\n        /* \"#utility.yul\":5988:6081   */\n      tag_161\n      jump\t// in\n    tag_241:\n        /* \"#utility.yul\":6106:6108   */\n      0x40\n        /* \"#utility.yul\":6101:6104   */\n      dup3\n        /* \"#utility.yul\":6097:6109   */\n      add\n        /* \"#utility.yul\":6090:6109   */\n      swap1\n      pop\n        /* \"#utility.yul\":5749:6115   */\n      swap2\n      swap1\n      pop\n      jump\t// out\n        /* \"#utility.yul\":6121:6540   */\n    tag_109:\n        /* \"#utility.yul\":6287:6291   */\n      0x00\n        /* \"#utility.yul\":6325:6327   */\n      0x20\n        /* \"#utility.yul\":6314:6323   */\n      dup3\n        /* \"#utility.yul\":6310:6328   */\n      add\n        /* \"#utility.yul\":6302:6328   */\n      swap1\n      pop\n        /* \"#utility.yul\":6374:6383   */\n      dup2\n        /* \"#utility.yul\":6368:6372   */\n      dup2\n        /* \"#utility.yul\":6364:6384   */\n      sub\n        /* \"#utility.yul\":6360:6361   */\n      0x00\n        /* \"#utility.yul\":6349:6358   */\n      dup4\n        /* \"#utility.yul\":6345:6362   */\n      add\n        /* \"#utility.yul\":6338:6385   */\n      mstore\n        /* \"#utility.yul\":6402:6533   */\n      tag_243\n        /* \"#utility.yul\":6528:6532   */\n      dup2\n        /* \"#utility.yul\":6402:6533   */\n      tag_162\n      jump\t// in\n    tag_243:\n        /* \"#utility.yul\":6394:6533   */\n      swap1\n      pop\n        /* \"#utility.yul\":6121:6540   */\n      swap2\n      swap1\n      pop\n      jump\t// out\n        /* \"#utility.yul\":6546:6728   */\n    tag_163:\n        /* \"#utility.yul\":6686:6720   */\n      0x4f776e61626c653a2063616c6c6572206973206e6f7420746865206f776e6572\n        /* \"#utility.yul\":6682:6683   */\n      0x00\n        /* \"#utility.yul\":6674:6680   */\n      dup3\n        /* \"#utility.yul\":6670:6684   */\n      add\n        /* \"#utility.yul\":6663:6721   */\n      mstore\n        /* \"#utility.yul\":6546:6728   */\n      pop\n      jump\t// out\n        /* \"#utility.yul\":6734:7100   */\n    tag_164:\n        /* \"#utility.yul\":6876:6879   */\n      0x00\n        /* \"#utility.yul\":6897:6964   */\n      tag_246\n        /* \"#utility.yul\":6961:6963   */\n      0x20\n        /* \"#utility.yul\":6956:6959   */\n      dup4\n        /* \"#utility.yul\":6897:6964   */\n      tag_156\n      jump\t// in\n    tag_246:\n        /* \"#utility.yul\":6890:6964   */\n      swap2\n      pop\n        /* \"#utility.yul\":6973:7066   */\n      tag_247\n        /* \"#utility.yul\":7062:7065   */\n      dup3\n        /* \"#utility.yul\":6973:7066   */\n      tag_163\n      jump\t// in\n    tag_247:\n        /* \"#utility.yul\":7091:7093   */\n      0x20\n        /* \"#utility.yul\":7086:7089   */\n      dup3\n        /* \"#utility.yul\":7082:7094   */\n      add\n        /* \"#utility.yul\":7075:7094   */\n      swap1\n      pop\n        /* \"#utility.yul\":6734:7100   */\n      swap2\n      swap1\n      pop\n      jump\t// out\n        /* \"#utility.yul\":7106:7525   */\n    tag_117:\n        /* \"#utility.yul\":7272:7276   */\n      0x00\n        /* \"#utility.yul\":7310:7312   */\n      0x20\n        /* \"#utility.yul\":7299:7308   */\n      dup3\n        /* \"#utility.yul\":7295:7313   */\n      add\n        /* \"#utility.yul\":7287:7313   */\n      swap1\n      pop\n        /* \"#utility.yul\":7359:7368   */\n      dup2\n        /* \"#utility.yul\":7353:7357   */\n      dup2\n        /* \"#utility.yul\":7349:7369   */\n      sub\n        /* \"#utility.yul\":7345:7346   */\n      0x00\n        /* \"#utility.yul\":7334:7343   */\n      dup4\n        /* \"#utility.yul\":7330:7347   */\n      add\n        /* \"#utility.yul\":7323:7370   */\n      mstore\n        /* \"#utility.yul\":7387:7518   */\n      tag_249\n        /* \"#utility.yul\":7513:7517   */\n      dup2\n        /* \"#utility.yul\":7387:7518   */\n      tag_164\n      jump\t// in\n    tag_249:\n        /* \"#utility.yul\":7379:7518   */\n      swap1\n      pop\n        /* \"#utility.yul\":7106:7525   */\n      swap2\n      swap1\n      pop\n      jump\t// out\n        /* \"#utility.yul\":7531:7701   */\n    tag_165:\n        /* \"#utility.yul\":7671:7693   */\n      0x5061757361626c653a206e6f7420706175736564000000000000000000000000\n        /* \"#utility.yul\":7667:7668   */\n      0x00\n        /* \"#utility.yul\":7659:7665   */\n      dup3\n        /* \"#utility.yul\":7655:7669   */\n      add\n        /* \"#utility.yul\":7648:7694   */\n      mstore\n        /* \"#utility.yul\":7531:7701   */\n      pop\n      jump\t// out\n        /* \"#utility.yul\":7707:8073   */\n    tag_166:\n        /* \"#utility.yul\":7849:7852   */\n      0x00\n        /* \"#utility.yul\":7870:7937   */\n      tag_252\n        /* \"#utility.yul\":7934:7936   */\n      0x14\n        /* \"#utility.yul\":7929:7932   */\n      dup4\n        /* \"#utility.yul\":7870:7937   */\n      tag_156\n      jump\t// in\n    tag_252:\n        /* \"#utility.yul\":7863:7937   */\n      swap2\n      pop\n        /* \"#utility.yul\":7946:8039   */\n      tag_253\n        /* \"#utility.yul\":8035:8038   */\n      dup3\n        /* \"#utility.yul\":7946:8039   */\n      tag_165\n      jump\t// in\n    tag_253:\n        /* \"#utility.yul\":8064:8066   */\n      0x20\n        /* \"#utility.yul\":8059:8062   */\n      dup3\n        /* \"#utility.yul\":8055:8067   */\n      add\n        /* \"#utility.yul\":8048:8067   */\n      swap1\n      pop\n        /* \"#utility.yul\":7707:8073   */\n      swap2\n      swap1\n      pop\n      jump\t// out\n        /* \"#utility.yul\":8079:8498   */\n    tag_136:\n        /* \"#utility.yul\":8245:8249   */\n      0x00\n        /* \"#utility.yul\":8283:8285   */\n      0x20\n        /* \"#utility.yul\":8272:8281   */\n      dup3\n        /* \"#utility.yul\":8268:8286   */\n      add\n        /* \"#utility.yul\":8260:8286   */\n      swap1\n      pop\n        /* \"#utility.yul\":8332:8341   */\n      dup2\n        /* \"#utility.yul\":8326:8330   */\n      dup2\n        /* \"#utility.yul\":8322:8342   */\n      sub\n        /* \"#utility.yul\":8318:8319   */\n      0x00\n        /* \"#utility.yul\":8307:8316   */\n      dup4\n        /* \"#utility.yul\":8303:8320   */\n      add\n        /* \"#utility.yul\":8296:8343   */\n      mstore\n        /* \"#utility.yul\":8360:8491   */\n      tag_255\n        /* \"#utility.yul\":8486:8490   */\n      dup2\n        /* \"#utility.yul\":8360:8491   */\n      tag_166\n      jump\t// in\n    tag_255:\n        /* \"#utility.yul\":8352:8491   */\n      swap1\n      pop\n        /* \"#utility.yul\":8079:8498   */\n      swap2\n      swap1\n      pop\n      jump\t// out\n        /* \"#utility.yul\":8504:8670   */\n    tag_167:\n        /* \"#utility.yul\":8644:8662   */\n      0x5061757361626c653a2070617573656400000000000000000000000000000000\n        /* \"#utility.yul\":8640:8641   */\n      0x00\n        /* \"#utility.yul\":8632:8638   */\n      dup3\n        /* \"#utility.yul\":8628:8642   */\n      add\n        /* \"#utility.yul\":8621:8663   */\n      mstore\n        /* \"#utility.yul\":8504:8670   */\n      pop\n      jump\t// out\n        /* \"#utility.yul\":8676:9042   */\n    tag_168:\n        /* \"#utility.yul\":8818:8821   */\n      0x00\n        /* \"#utility.yul\":8839:8906   */\n      tag_258\n        /* \"#utility.yul\":8903:8905   */\n      0x10\n        /* \"#utility.yul\":8898:8901   */\n      dup4\n        /* \"#utility.yul\":8839:8906   */\n      tag_156\n      jump\t// in\n    tag_258:\n        /* \"#utility.yul\":8832:8906   */\n      swap2\n      pop\n        /* \"#utility.yul\":8915:9008   */\n      tag_259\n        /* \"#utility.yul\":9004:9007   */\n      dup3\n        /* \"#utility.yul\":8915:9008   */\n      tag_167\n      jump\t// in\n    tag_259:\n        /* \"#utility.yul\":9033:9035   */\n      0x20\n        /* \"#utility.yul\":9028:9031   */\n      dup3\n        /* \"#utility.yul\":9024:9036   */\n      add\n        /* \"#utility.yul\":9017:9036   */\n      swap1\n      pop\n        /* \"#utility.yul\":8676:9042   */\n      swap2\n      swap1\n      pop\n      jump\t// out\n        /* \"#utility.yul\":9048:9467   */\n    tag_141:\n        /* \"#utility.yul\":9214:9218   */\n      0x00\n        /* \"#utility.yul\":9252:9254   */\n      0x20\n        /* \"#utility.yul\":9241:9250   */\n      dup3\n        /* \"#utility.yul\":9237:9255   */\n      add\n        /* \"#utility.yul\":9229:9255   */\n      swap1\n      pop\n        /* \"#utility.yul\":9301:9310   */\n      dup2\n        /* \"#utility.yul\":9295:9299   */\n      dup2\n        /* \"#utility.yul\":9291:9311   */\n      sub\n        /* \"#utility.yul\":9287:9288   */\n      0x00\n        /* \"#utility.yul\":9276:9285   */\n      dup4\n        /* \"#utility.yul\":9272:9289   */\n      add\n        /* \"#utility.yul\":9265:9312   */\n      mstore\n        /* \"#utility.yul\":9329:9460   */\n      tag_261\n        /* \"#utility.yul\":9455:9459   */\n      dup2\n        /* \"#utility.yul\":9329:9460   */\n      tag_168\n      jump\t// in\n    tag_261:\n        /* \"#utility.yul\":9321:9460   */\n      swap1\n      pop\n        /* \"#utility.yul\":9048:9467   */\n      swap2\n      swap1\n      pop\n      jump\t// out\n\n    auxdata: 0xa2646970667358221220c356c12b9fc9c7e0ecd9763ffe5228e7817df16a1b851b4129ce76ebd0a56f0064736f6c63430008130033\n}\n",
				"bytecode": {
					"linkReferences": {},
					"object": "608060405234801561001057600080fd5b5061002d61002261005360201b60201c565b61005b60201b60201c565b60008060146101000a81548160ff0219169083151502179055506001808190555061011f565b600033905090565b60008060009054906101000a900473ffffffffffffffffffffffffffffffffffffffff169050816000806101000a81548173ffffffffffffffffffffffffffffffffffffffff021916908373ffffffffffffffffffffffffffffffffffffffff1602179055508173ffffffffffffffffffffffffffffffffffffffff168173ffffffffffffffffffffffffffffffffffffffff167f8be0079c531659141344cd1fd0a4f28419497f9722a3daafe3b4186f6b6457e060405160405180910390a35050565b610caf8061012e6000396000f3fe6080604052600436106100a75760003560e01c8063715018a611610064578063715018a614610198578063760c764d146101af5780638456cb59146101b95780638da5cb5b146101d057806398eaa4a7146101fb578063f2fde38b14610224576100a7565b8063015f009a146100ac5780633419628b146100d75780633d2ba888146101005780633f4ba83a1461012b5780635c975abb1461014257806368a18cc21461016d575b600080fd5b3480156100b857600080fd5b506100c161024d565b6040516100ce9190610789565b60405180910390f35b3480156100e357600080fd5b506100fe60048036038101906100f991906107d5565b610253565b005b34801561010c57600080fd5b50610115610303565b6040516101229190610789565b60405180910390f35b34801561013757600080fd5b5061014061030b565b005b34801561014e57600080fd5b5061015761031d565b604051610164919061081d565b60405180910390f35b34801561017957600080fd5b50610182610333565b60405161018f9190610789565b60405180910390f35b3480156101a457600080fd5b506101ad610339565b005b6101b761034d565b005b3480156101c557600080fd5b506101ce6103ad565b005b3480156101dc57600080fd5b506101e56103bf565b6040516101f29190610879565b60405180910390f35b34801561020757600080fd5b50610222600480360381019061021d91906108c0565b6103e8565b005b34801561023057600080fd5b5061024b600480360381019061024691906108c0565b61044b565b005b60025481565b61025b6104ce565b6002548111156102a0576040517f08c379a00000000000000000000000000000000000000000000000000000000081526004016102979061094a565b60405180910390fd5b80600260008282546102b29190610999565b925050819055503373ffffffffffffffffffffffffffffffffffffffff166108fc829081150290604051600060405180830381858888f193505050501580156102ff573d6000803e3d6000fd5b5050565b600047905090565b6103136104ce565b61031b61054c565b565b60008060149054906101000a900460ff16905090565b60035481565b6103416104ce565b61034b60006105ae565b565b60006064603c60ff163461036191906109cd565b61036b9190610a3e565b9050806003600082825461037f9190610a6f565b9250508190555080346103929190610999565b600260008282546103a39190610a6f565b9250508190555050565b6103b56104ce565b6103bd610672565b565b60008060009054906101000a900473ffffffffffffffffffffffffffffffffffffffff16905090565b6103f06104ce565b6001600460008373ffffffffffffffffffffffffffffffffffffffff1673ffffffffffffffffffffffffffffffffffffffff16815260200190815260200160002060006101000a81548160ff02191690831515021790555050565b6104536104ce565b600073ffffffffffffffffffffffffffffffffffffffff168173ffffffffffffffffffffffffffffffffffffffff16036104c2576040517f08c379a00000000000000000000000000000000000000000000000000000000081526004016104b990610b15565b60405180910390fd5b6104cb816105ae565b50565b6104d66106d5565b73ffffffffffffffffffffffffffffffffffffffff166104f46103bf565b73ffffffffffffffffffffffffffffffffffffffff161461054a576040517f08c379a000000000000000000000000000000000000000000000000000000000815260040161054190610b81565b60405180910390fd5b565b6105546106dd565b60008060146101000a81548160ff0219169083151502179055507f5db9ee0a495bf2e6ff9c91a7834c1ba4fdd244a5e8aa4e537bd38aeae4b073aa6105976106d5565b6040516105a49190610879565b60405180910390a1565b60008060009054906101000a900473ffffffffffffffffffffffffffffffffffffffff169050816000806101000a81548173ffffffffffffffffffffffffffffffffffffffff021916908373ffffffffffffffffffffffffffffffffffffffff1602179055508173ffffffffffffffffffffffffffffffffffffffff168173ffffffffffffffffffffffffffffffffffffffff167f8be0079c531659141344cd1fd0a4f28419497f9722a3daafe3b4186f6b6457e060405160405180910390a35050565b61067a610726565b6001600060146101000a81548160ff0219169083151502179055507f62e78cea01bee320cd4e420270b5ea74000d11b0c9f74754ebdbfc544b05a2586106be6106d5565b6040516106cb9190610879565b60405180910390a1565b600033905090565b6106e561031d565b610724576040517f08c379a000000000000000000000000000000000000000000000000000000000815260040161071b90610bed565b60405180910390fd5b565b61072e61031d565b1561076e576040517f08c379a000000000000000000000000000000000000000000000000000000000815260040161076590610c59565b60405180910390fd5b565b6000819050919050565b61078381610770565b82525050565b600060208201905061079e600083018461077a565b92915050565b600080fd5b6107b281610770565b81146107bd57600080fd5b50565b6000813590506107cf816107a9565b92915050565b6000602082840312156107eb576107ea6107a4565b5b60006107f9848285016107c0565b91505092915050565b60008115159050919050565b61081781610802565b82525050565b6000602082019050610832600083018461080e565b92915050565b600073ffffffffffffffffffffffffffffffffffffffff82169050919050565b600061086382610838565b9050919050565b61087381610858565b82525050565b600060208201905061088e600083018461086a565b92915050565b61089d81610858565b81146108a857600080fd5b50565b6000813590506108ba81610894565b92915050565b6000602082840312156108d6576108d56107a4565b5b60006108e4848285016108ab565b91505092915050565b600082825260208201905092915050565b7f4e6f7420656e6f7567682066756e647300000000000000000000000000000000600082015250565b60006109346010836108ed565b915061093f826108fe565b602082019050919050565b6000602082019050818103600083015261096381610927565b9050919050565b7f4e487b7100000000000000000000000000000000000000000000000000000000600052601160045260246000fd5b60006109a482610770565b91506109af83610770565b92508282039050818111156109c7576109c661096a565b5b92915050565b60006109d882610770565b91506109e383610770565b92508282026109f181610770565b91508282048414831517610a0857610a0761096a565b5b5092915050565b7f4e487b7100000000000000000000000000000000000000000000000000000000600052601260045260246000fd5b6000610a4982610770565b9150610a5483610770565b925082610a6457610a63610a0f565b5b828204905092915050565b6000610a7a82610770565b9150610a8583610770565b9250828201905080821115610a9d57610a9c61096a565b5b92915050565b7f4f776e61626c653a206e6577206f776e657220697320746865207a65726f206160008201527f6464726573730000000000000000000000000000000000000000000000000000602082015250565b6000610aff6026836108ed565b9150610b0a82610aa3565b604082019050919050565b60006020820190508181036000830152610b2e81610af2565b9050919050565b7f4f776e61626c653a2063616c6c6572206973206e6f7420746865206f776e6572600082015250565b6000610b6b6020836108ed565b9150610b7682610b35565b602082019050919050565b60006020820190508181036000830152610b9a81610b5e565b9050919050565b7f5061757361626c653a206e6f7420706175736564000000000000000000000000600082015250565b6000610bd76014836108ed565b9150610be282610ba1565b602082019050919050565b60006020820190508181036000830152610c0681610bca565b9050919050565b7f5061757361626c653a2070617573656400000000000000000000000000000000600082015250565b6000610c436010836108ed565b9150610c4e82610c0d565b602082019050919050565b60006020820190508181036000830152610c7281610c36565b905091905056fea2646970667358221220c356c12b9fc9c7e0ecd9763ffe5228e7817df16a1b851b4129ce76ebd0a56f0064736f6c63430008130033",
					"opcodes": "PUSH1 0x80 PUSH1 0x40 MSTORE CALLVALUE DUP1 ISZERO PUSH2 0x10 JUMPI PUSH1 0x0 DUP1 REVERT JUMPDEST POP PUSH2 0x2D PUSH2 0x22 PUSH2 0x53 PUSH1 0x20 SHL PUSH1 0x20 SHR JUMP JUMPDEST PUSH2 0x5B PUSH1 0x20 SHL PUSH1 0x20 SHR JUMP JUMPDEST PUSH1 0x0 DUP1 PUSH1 0x14 PUSH2 0x100 EXP DUP2 SLOAD DUP2 PUSH1 0xFF MUL NOT AND SWAP1 DUP4 ISZERO ISZERO MUL OR SWAP1 SSTORE POP PUSH1 0x1 DUP1 DUP2 SWAP1 SSTORE POP PUSH2 0x11F JUMP JUMPDEST PUSH1 0x0 CALLER SWAP1 POP SWAP1 JUMP JUMPDEST PUSH1 0x0 DUP1 PUSH1 0x0 SWAP1 SLOAD SWAP1 PUSH2 0x100 EXP SWAP1 DIV PUSH20 0xFFFFFFFFFFFFFFFFFFFFFFFFFFFFFFFFFFFFFFFF AND SWAP1 POP DUP2 PUSH1 0x0 DUP1 PUSH2 0x100 EXP DUP2 SLOAD DUP2 PUSH20 0xFFFFFFFFFFFFFFFFFFFFFFFFFFFFFFFFFFFFFFFF MUL NOT AND SWAP1 DUP4 PUSH20 0xFFFFFFFFFFFFFFFFFFFFFFFFFFFFFFFFFFFFFFFF AND MUL OR SWAP1 SSTORE POP DUP2 PUSH20 0xFFFFFFFFFFFFFFFFFFFFFFFFFFFFFFFFFFFFFFFF AND DUP2 PUSH20 0xFFFFFFFFFFFFFFFFFFFFFFFFFFFFFFFFFFFFFFFF AND PUSH32 0x8BE0079C531659141344CD1FD0A4F28419497F9722A3DAAFE3B4186F6B6457E0 PUSH1 0x40 MLOAD PUSH1 0x40 MLOAD DUP1 SWAP2 SUB SWAP1 LOG3 POP POP JUMP JUMPDEST PUSH2 0xCAF DUP1 PUSH2 0x12E PUSH1 0x0 CODECOPY PUSH1 0x0 RETURN INVALID PUSH1 0x80 PUSH1 0x40 MSTORE PUSH1 0x4 CALLDATASIZE LT PUSH2 0xA7 JUMPI PUSH1 0x0 CALLDATALOAD PUSH1 0xE0 SHR DUP1 PUSH4 0x715018A6 GT PUSH2 0x64 JUMPI DUP1 PUSH4 0x715018A6 EQ PUSH2 0x198 JUMPI DUP1 PUSH4 0x760C764D EQ PUSH2 0x1AF JUMPI DUP1 PUSH4 0x8456CB59 EQ PUSH2 0x1B9 JUMPI DUP1 PUSH4 0x8DA5CB5B EQ PUSH2 0x1D0 JUMPI DUP1 PUSH4 0x98EAA4A7 EQ PUSH2 0x1FB JUMPI DUP1 PUSH4 0xF2FDE38B EQ PUSH2 0x224 JUMPI PUSH2 0xA7 JUMP JUMPDEST DUP1 PUSH4 0x15F009A EQ PUSH2 0xAC JUMPI DUP1 PUSH4 0x3419628B EQ PUSH2 0xD7 JUMPI DUP1 PUSH4 0x3D2BA888 EQ PUSH2 0x100 JUMPI DUP1 PUSH4 0x3F4BA83A EQ PUSH2 0x12B JUMPI DUP1 PUSH4 0x5C975ABB EQ PUSH2 0x142 JUMPI DUP1 PUSH4 0x68A18CC2 EQ PUSH2 0x16D JUMPI JUMPDEST PUSH1 0x0 DUP1 REVERT JUMPDEST CALLVALUE DUP1 ISZERO PUSH2 0xB8 JUMPI PUSH1 0x0 DUP1 REVERT JUMPDEST POP PUSH2 0xC1 PUSH2 0x24D JUMP JUMPDEST PUSH1 0x40 MLOAD PUSH2 0xCE SWAP2 SWAP1 PUSH2 0x789 JUMP JUMPDEST PUSH1 0x40 MLOAD DUP1 SWAP2 SUB SWAP1 RETURN JUMPDEST CALLVALUE DUP1 ISZERO PUSH2 0xE3 JUMPI PUSH1 0x0 DUP1 REVERT JUMPDEST POP PUSH2 0xFE PUSH1 0x4 DUP1 CALLDATASIZE SUB DUP2 ADD SWAP1 PUSH2 0xF9 SWAP2 SWAP1 PUSH2 0x7D5 JUMP JUMPDEST PUSH2 0x253 JUMP JUMPDEST STOP JUMPDEST CALLVALUE DUP1 ISZERO PUSH2 0x10C JUMPI PUSH1 0x0 DUP1 REVERT JUMPDEST POP PUSH2 0x115 PUSH2 0x303 JUMP JUMPDEST PUSH1 0x40 MLOAD PUSH2 0x122 SWAP2 SWAP1 PUSH2 0x789 JUMP JUMPDEST PUSH1 0x40 MLOAD DUP1 SWAP2 SUB SWAP1 RETURN JUMPDEST CALLVALUE DUP1 ISZERO PUSH2 0x137 JUMPI PUSH1 0x0 DUP1 REVERT JUMPDEST POP PUSH2 0x140 PUSH2 0x30B JUMP JUMPDEST STOP JUMPDEST CALLVALUE DUP1 ISZERO PUSH2 0x14E JUMPI PUSH1 0x0 DUP1 REVERT JUMPDEST POP PUSH2 0x157 PUSH2 0x31D JUMP JUMPDEST PUSH1 0x40 MLOAD PUSH2 0x164 SWAP2 SWAP1 PUSH2 0x81D JUMP JUMPDEST PUSH1 0x40 MLOAD DUP1 SWAP2 SUB SWAP1 RETURN JUMPDEST CALLVALUE DUP1 ISZERO PUSH2 0x179 JUMPI PUSH1 0x0 DUP1 REVERT JUMPDEST POP PUSH2 0x182 PUSH2 0x333 JUMP JUMPDEST PUSH1 0x40 MLOAD PUSH2 0x18F SWAP2 SWAP1 PUSH2 0x789 JUMP JUMPDEST PUSH1 0x40 MLOAD DUP1 SWAP2 SUB SWAP1 RETURN JUMPDEST CALLVALUE DUP1 ISZERO PUSH2 0x1A4 JUMPI PUSH1 0x0 DUP1 REVERT JUMPDEST POP PUSH2 0x1AD PUSH2 0x339 JUMP JUMPDEST STOP JUMPDEST PUSH2 0x1B7 PUSH2 0x34D JUMP JUMPDEST STOP JUMPDEST CALLVALUE DUP1 ISZERO PUSH2 0x1C5 JUMPI PUSH1 0x0 DUP1 REVERT JUMPDEST POP PUSH2 0x1CE PUSH2 0x3AD JUMP JUMPDEST STOP JUMPDEST CALLVALUE DUP1 ISZERO PUSH2 0x1DC JUMPI PUSH1 0x0 DUP1 REVERT JUMPDEST POP PUSH2 0x1E5 PUSH2 0x3BF JUMP JUMPDEST PUSH1 0x40 MLOAD PUSH2 0x1F2 SWAP2 SWAP1 PUSH2 0x879 JUMP JUMPDEST PUSH1 0x40 MLOAD DUP1 SWAP2 SUB SWAP1 RETURN JUMPDEST CALLVALUE DUP1 ISZERO PUSH2 0x207 JUMPI PUSH1 0x0 DUP1 REVERT JUMPDEST POP PUSH2 0x222 PUSH1 0x4 DUP1 CALLDATASIZE SUB DUP2 ADD SWAP1 PUSH2 0x21D SWAP2 SWAP1 PUSH2 0x8C0 JUMP JUMPDEST PUSH2 0x3E8 JUMP JUMPDEST STOP JUMPDEST CALLVALUE DUP1 ISZERO PUSH2 0x230 JUMPI PUSH1 0x0 DUP1 REVERT JUMPDEST POP PUSH2 0x24B PUSH1 0x4 DUP1 CALLDATASIZE SUB DUP2 ADD SWAP1 PUSH2 0x246 SWAP2 SWAP1 PUSH2 0x8C0 JUMP JUMPDEST PUSH2 0x44B JUMP JUMPDEST STOP JUMPDEST PUSH1 0x2 SLOAD DUP2 JUMP JUMPDEST PUSH2 0x25B PUSH2 0x4CE JUMP JUMPDEST PUSH1 0x2 SLOAD DUP2 GT ISZERO PUSH2 0x2A0 JUMPI PUSH1 0x40 MLOAD PUSH32 0x8C379A000000000000000000000000000000000000000000000000000000000 DUP2 MSTORE PUSH1 0x4 ADD PUSH2 0x297 SWAP1 PUSH2 0x94A JUMP JUMPDEST PUSH1 0x40 MLOAD DUP1 SWAP2 SUB SWAP1 REVERT JUMPDEST DUP1 PUSH1 0x2 PUSH1 0x0 DUP3 DUP3 SLOAD PUSH2 0x2B2 SWAP2 SWAP1 PUSH2 0x999 JUMP JUMPDEST SWAP3 POP POP DUP2 SWAP1 SSTORE POP CALLER PUSH20 0xFFFFFFFFFFFFFFFFFFFFFFFFFFFFFFFFFFFFFFFF AND PUSH2 0x8FC DUP3 SWAP1 DUP2 ISZERO MUL SWAP1 PUSH1 0x40 MLOAD PUSH1 0x0 PUSH1 0x40 MLOAD DUP1 DUP4 SUB DUP2 DUP6 DUP9 DUP9 CALL SWAP4 POP POP POP POP ISZERO DUP1 ISZERO PUSH2 0x2FF JUMPI RETURNDATASIZE PUSH1 0x0 DUP1 RETURNDATACOPY RETURNDATASIZE PUSH1 0x0 REVERT JUMPDEST POP POP JUMP JUMPDEST PUSH1 0x0 SELFBALANCE SWAP1 POP SWAP1 JUMP JUMPDEST PUSH2 0x313 PUSH2 0x4CE JUMP JUMPDEST PUSH2 0x31B PUSH2 0x54C JUMP JUMPDEST JUMP JUMPDEST PUSH1 0x0 DUP1 PUSH1 0x14 SWAP1 SLOAD SWAP1 PUSH2 0x100 EXP SWAP1 DIV PUSH1 0xFF AND SWAP1 POP SWAP1 JUMP JUMPDEST PUSH1 0x3 SLOAD DUP2 JUMP JUMPDEST PUSH2 0x341 PUSH2 0x4CE JUMP JUMPDEST PUSH2 0x34B PUSH1 0x0 PUSH2 0x5AE JUMP JUMPDEST JUMP JUMPDEST PUSH1 0x0 PUSH1 0x64 PUSH1 0x3C PUSH1 0xFF AND CALLVALUE PUSH2 0x361 SWAP2 SWAP1 PUSH2 0x9CD JUMP JUMPDEST PUSH2 0x36B SWAP2 SWAP1 PUSH2 0xA3E JUMP JUMPDEST SWAP1 POP DUP1 PUSH1 0x3 PUSH1 0x0 DUP3 DUP3 SLOAD PUSH2 0x37F SWAP2 SWAP1 PUSH2 0xA6F JUMP JUMPDEST SWAP3 POP POP DUP2 SWAP1 SSTORE POP DUP1 CALLVALUE PUSH2 0x392 SWAP2 SWAP1 PUSH2 0x999 JUMP JUMPDEST PUSH1 0x2 PUSH1 0x0 DUP3 DUP3 SLOAD PUSH2 0x3A3 SWAP2 SWAP1 PUSH2 0xA6F JUMP JUMPDEST SWAP3 POP POP DUP2 SWAP1 SSTORE POP POP JUMP JUMPDEST PUSH2 0x3B5 PUSH2 0x4CE JUMP JUMPDEST PUSH2 0x3BD PUSH2 0x672 JUMP JUMPDEST JUMP JUMPDEST PUSH1 0x0 DUP1 PUSH1 0x0 SWAP1 SLOAD SWAP1 PUSH2 0x100 EXP SWAP1 DIV PUSH20 0xFFFFFFFFFFFFFFFFFFFFFFFFFFFFFFFFFFFFFFFF AND SWAP1 POP SWAP1 JUMP JUMPDEST PUSH2 0x3F0 PUSH2 0x4CE JUMP JUMPDEST PUSH1 0x1 PUSH1 0x4 PUSH1 0x0 DUP4 PUSH20 0xFFFFFFFFFFFFFFFFFFFFFFFFFFFFFFFFFFFFFFFF AND PUSH20 0xFFFFFFFFFFFFFFFFFFFFFFFFFFFFFFFFFFFFFFFF AND DUP2 MSTORE PUSH1 0x20 ADD SWAP1 DUP2 MSTORE PUSH1 0x20 ADD PUSH1 0x0 KECCAK256 PUSH1 0x0 PUSH2 0x100 EXP DUP2 SLOAD DUP2 PUSH1 0xFF MUL NOT AND SWAP1 DUP4 ISZERO ISZERO MUL OR SWAP1 SSTORE POP POP JUMP JUMPDEST PUSH2 0x453 PUSH2 0x4CE JUMP JUMPDEST PUSH1 0x0 PUSH20 0xFFFFFFFFFFFFFFFFFFFFFFFFFFFFFFFFFFFFFFFF AND DUP2 PUSH20 0xFFFFFFFFFFFFFFFFFFFFFFFFFFFFFFFFFFFFFFFF AND SUB PUSH2 0x4C2 JUMPI PUSH1 0x40 MLOAD PUSH32 0x8C379A000000000000000000000000000000000000000000000000000000000 DUP2 MSTORE PUSH1 0x4 ADD PUSH2 0x4B9 SWAP1 PUSH2 0xB15 JUMP JUMPDEST PUSH1 0x40 MLOAD DUP1 SWAP2 SUB SWAP1 REVERT JUMPDEST PUSH2 0x4CB DUP2 PUSH2 0x5AE JUMP JUMPDEST POP JUMP JUMPDEST PUSH2 0x4D6 PUSH2 0x6D5 JUMP JUMPDEST PUSH20 0xFFFFFFFFFFFFFFFFFFFFFFFFFFFFFFFFFFFFFFFF AND PUSH2 0x4F4 PUSH2 0x3BF JUMP JUMPDEST PUSH20 0xFFFFFFFFFFFFFFFFFFFFFFFFFFFFFFFFFFFFFFFF AND EQ PUSH2 0x54A JUMPI PUSH1 0x40 MLOAD PUSH32 0x8C379A000000000000000000000000000000000000000000000000000000000 DUP2 MSTORE PUSH1 0x4 ADD PUSH2 0x541 SWAP1 PUSH2 0xB81 JUMP JUMPDEST PUSH1 0x40 MLOAD DUP1 SWAP2 SUB SWAP1 REVERT JUMPDEST JUMP JUMPDEST PUSH2 0x554 PUSH2 0x6DD JUMP JUMPDEST PUSH1 0x0 DUP1 PUSH1 0x14 PUSH2 0x100 EXP DUP2 SLOAD DUP2 PUSH1 0xFF MUL NOT AND SWAP1 DUP4 ISZERO ISZERO MUL OR SWAP1 SSTORE POP PUSH32 0x5DB9EE0A495BF2E6FF9C91A7834C1BA4FDD244A5E8AA4E537BD38AEAE4B073AA PUSH2 0x597 PUSH2 0x6D5 JUMP JUMPDEST PUSH1 0x40 MLOAD PUSH2 0x5A4 SWAP2 SWAP1 PUSH2 0x879 JUMP JUMPDEST PUSH1 0x40 MLOAD DUP1 SWAP2 SUB SWAP1 LOG1 JUMP JUMPDEST PUSH1 0x0 DUP1 PUSH1 0x0 SWAP1 SLOAD SWAP1 PUSH2 0x100 EXP SWAP1 DIV PUSH20 0xFFFFFFFFFFFFFFFFFFFFFFFFFFFFFFFFFFFFFFFF AND SWAP1 POP DUP2 PUSH1 0x0 DUP1 PUSH2 0x100 EXP DUP2 SLOAD DUP2 PUSH20 0xFFFFFFFFFFFFFFFFFFFFFFFFFFFFFFFFFFFFFFFF MUL NOT AND SWAP1 DUP4 PUSH20 0xFFFFFFFFFFFFFFFFFFFFFFFFFFFFFFFFFFFFFFFF AND MUL OR SWAP1 SSTORE POP DUP2 PUSH20 0xFFFFFFFFFFFFFFFFFFFFFFFFFFFFFFFFFFFFFFFF AND DUP2 PUSH20 0xFFFFFFFFFFFFFFFFFFFFFFFFFFFFFFFFFFFFFFFF AND PUSH32 0x8BE0079C531659141344CD1FD0A4F28419497F9722A3DAAFE3B4186F6B6457E0 PUSH1 0x40 MLOAD PUSH1 0x40 MLOAD DUP1 SWAP2 SUB SWAP1 LOG3 POP POP JUMP JUMPDEST PUSH2 0x67A PUSH2 0x726 JUMP JUMPDEST PUSH1 0x1 PUSH1 0x0 PUSH1 0x14 PUSH2 0x100 EXP DUP2 SLOAD DUP2 PUSH1 0xFF MUL NOT AND SWAP1 DUP4 ISZERO ISZERO MUL OR SWAP1 SSTORE POP PUSH32 0x62E78CEA01BEE320CD4E420270B5EA74000D11B0C9F74754EBDBFC544B05A258 PUSH2 0x6BE PUSH2 0x6D5 JUMP JUMPDEST PUSH1 0x40 MLOAD PUSH2 0x6CB SWAP2 SWAP1 PUSH2 0x879 JUMP JUMPDEST PUSH1 0x40 MLOAD DUP1 SWAP2 SUB SWAP1 LOG1 JUMP JUMPDEST PUSH1 0x0 CALLER SWAP1 POP SWAP1 JUMP JUMPDEST PUSH2 0x6E5 PUSH2 0x31D JUMP JUMPDEST PUSH2 0x724 JUMPI PUSH1 0x40 MLOAD PUSH32 0x8C379A000000000000000000000000000000000000000000000000000000000 DUP2 MSTORE PUSH1 0x4 ADD PUSH2 0x71B SWAP1 PUSH2 0xBED JUMP JUMPDEST PUSH1 0x40 MLOAD DUP1 SWAP2 SUB SWAP1 REVERT JUMPDEST JUMP JUMPDEST PUSH2 0x72E PUSH2 0x31D JUMP JUMPDEST ISZERO PUSH2 0x76E JUMPI PUSH1 0x40 MLOAD PUSH32 0x8C379A000000000000000000000000000000000000000000000000000000000 DUP2 MSTORE PUSH1 0x4 ADD PUSH2 0x765 SWAP1 PUSH2 0xC59 JUMP JUMPDEST PUSH1 0x40 MLOAD DUP1 SWAP2 SUB SWAP1 REVERT JUMPDEST JUMP JUMPDEST PUSH1 0x0 DUP2 SWAP1 POP SWAP2 SWAP1 POP JUMP JUMPDEST PUSH2 0x783 DUP2 PUSH2 0x770 JUMP JUMPDEST DUP3 MSTORE POP POP JUMP JUMPDEST PUSH1 0x0 PUSH1 0x20 DUP3 ADD SWAP1 POP PUSH2 0x79E PUSH1 0x0 DUP4 ADD DUP5 PUSH2 0x77A JUMP JUMPDEST SWAP3 SWAP2 POP POP JUMP JUMPDEST PUSH1 0x0 DUP1 REVERT JUMPDEST PUSH2 0x7B2 DUP2 PUSH2 0x770 JUMP JUMPDEST DUP2 EQ PUSH2 0x7BD JUMPI PUSH1 0x0 DUP1 REVERT JUMPDEST POP JUMP JUMPDEST PUSH1 0x0 DUP2 CALLDATALOAD SWAP1 POP PUSH2 0x7CF DUP2 PUSH2 0x7A9 JUMP JUMPDEST SWAP3 SWAP2 POP POP JUMP JUMPDEST PUSH1 0x0 PUSH1 0x20 DUP3 DUP5 SUB SLT ISZERO PUSH2 0x7EB JUMPI PUSH2 0x7EA PUSH2 0x7A4 JUMP JUMPDEST JUMPDEST PUSH1 0x0 PUSH2 0x7F9 DUP5 DUP3 DUP6 ADD PUSH2 0x7C0 JUMP JUMPDEST SWAP2 POP POP SWAP3 SWAP2 POP POP JUMP JUMPDEST PUSH1 0x0 DUP2 ISZERO ISZERO SWAP1 POP SWAP2 SWAP1 POP JUMP JUMPDEST PUSH2 0x817 DUP2 PUSH2 0x802 JUMP JUMPDEST DUP3 MSTORE POP POP JUMP JUMPDEST PUSH1 0x0 PUSH1 0x20 DUP3 ADD SWAP1 POP PUSH2 0x832 PUSH1 0x0 DUP4 ADD DUP5 PUSH2 0x80E JUMP JUMPDEST SWAP3 SWAP2 POP POP JUMP JUMPDEST PUSH1 0x0 PUSH20 0xFFFFFFFFFFFFFFFFFFFFFFFFFFFFFFFFFFFFFFFF DUP3 AND SWAP1 POP SWAP2 SWAP1 POP JUMP JUMPDEST PUSH1 0x0 PUSH2 0x863 DUP3 PUSH2 0x838 JUMP JUMPDEST SWAP1 POP SWAP2 SWAP1 POP JUMP JUMPDEST PUSH2 0x873 DUP2 PUSH2 0x858 JUMP JUMPDEST DUP3 MSTORE POP POP JUMP JUMPDEST PUSH1 0x0 PUSH1 0x20 DUP3 ADD SWAP1 POP PUSH2 0x88E PUSH1 0x0 DUP4 ADD DUP5 PUSH2 0x86A JUMP JUMPDEST SWAP3 SWAP2 POP POP JUMP JUMPDEST PUSH2 0x89D DUP2 PUSH2 0x858 JUMP JUMPDEST DUP2 EQ PUSH2 0x8A8 JUMPI PUSH1 0x0 DUP1 REVERT JUMPDEST POP JUMP JUMPDEST PUSH1 0x0 DUP2 CALLDATALOAD SWAP1 POP PUSH2 0x8BA DUP2 PUSH2 0x894 JUMP JUMPDEST SWAP3 SWAP2 POP POP JUMP JUMPDEST PUSH1 0x0 PUSH1 0x20 DUP3 DUP5 SUB SLT ISZERO PUSH2 0x8D6 JUMPI PUSH2 0x8D5 PUSH2 0x7A4 JUMP JUMPDEST JUMPDEST PUSH1 0x0 PUSH2 0x8E4 DUP5 DUP3 DUP6 ADD PUSH2 0x8AB JUMP JUMPDEST SWAP2 POP POP SWAP3 SWAP2 POP POP JUMP JUMPDEST PUSH1 0x0 DUP3 DUP3 MSTORE PUSH1 0x20 DUP3 ADD SWAP1 POP SWAP3 SWAP2 POP POP JUMP JUMPDEST PUSH32 0x4E6F7420656E6F7567682066756E647300000000000000000000000000000000 PUSH1 0x0 DUP3 ADD MSTORE POP JUMP JUMPDEST PUSH1 0x0 PUSH2 0x934 PUSH1 0x10 DUP4 PUSH2 0x8ED JUMP JUMPDEST SWAP2 POP PUSH2 0x93F DUP3 PUSH2 0x8FE JUMP JUMPDEST PUSH1 0x20 DUP3 ADD SWAP1 POP SWAP2 SWAP1 POP JUMP JUMPDEST PUSH1 0x0 PUSH1 0x20 DUP3 ADD SWAP1 POP DUP2 DUP2 SUB PUSH1 0x0 DUP4 ADD MSTORE PUSH2 0x963 DUP2 PUSH2 0x927 JUMP JUMPDEST SWAP1 POP SWAP2 SWAP1 POP JUMP JUMPDEST PUSH32 0x4E487B7100000000000000000000000000000000000000000000000000000000 PUSH1 0x0 MSTORE PUSH1 0x11 PUSH1 0x4 MSTORE PUSH1 0x24 PUSH1 0x0 REVERT JUMPDEST PUSH1 0x0 PUSH2 0x9A4 DUP3 PUSH2 0x770 JUMP JUMPDEST SWAP2 POP PUSH2 0x9AF DUP4 PUSH2 0x770 JUMP JUMPDEST SWAP3 POP DUP3 DUP3 SUB SWAP1 POP DUP2 DUP2 GT ISZERO PUSH2 0x9C7 JUMPI PUSH2 0x9C6 PUSH2 0x96A JUMP JUMPDEST JUMPDEST SWAP3 SWAP2 POP POP JUMP JUMPDEST PUSH1 0x0 PUSH2 0x9D8 DUP3 PUSH2 0x770 JUMP JUMPDEST SWAP2 POP PUSH2 0x9E3 DUP4 PUSH2 0x770 JUMP JUMPDEST SWAP3 POP DUP3 DUP3 MUL PUSH2 0x9F1 DUP2 PUSH2 0x770 JUMP JUMPDEST SWAP2 POP DUP3 DUP3 DIV DUP5 EQ DUP4 ISZERO OR PUSH2 0xA08 JUMPI PUSH2 0xA07 PUSH2 0x96A JUMP JUMPDEST JUMPDEST POP SWAP3 SWAP2 POP POP JUMP JUMPDEST PUSH32 0x4E487B7100000000000000000000000000000000000000000000000000000000 PUSH1 0x0 MSTORE PUSH1 0x12 PUSH1 0x4 MSTORE PUSH1 0x24 PUSH1 0x0 REVERT JUMPDEST PUSH1 0x0 PUSH2 0xA49 DUP3 PUSH2 0x770 JUMP JUMPDEST SWAP2 POP PUSH2 0xA54 DUP4 PUSH2 0x770 JUMP JUMPDEST SWAP3 POP DUP3 PUSH2 0xA64 JUMPI PUSH2 0xA63 PUSH2 0xA0F JUMP JUMPDEST JUMPDEST DUP3 DUP3 DIV SWAP1 POP SWAP3 SWAP2 POP POP JUMP JUMPDEST PUSH1 0x0 PUSH2 0xA7A DUP3 PUSH2 0x770 JUMP JUMPDEST SWAP2 POP PUSH2 0xA85 DUP4 PUSH2 0x770 JUMP JUMPDEST SWAP3 POP DUP3 DUP3 ADD SWAP1 POP DUP1 DUP3 GT ISZERO PUSH2 0xA9D JUMPI PUSH2 0xA9C PUSH2 0x96A JUMP JUMPDEST JUMPDEST SWAP3 SWAP2 POP POP JUMP JUMPDEST PUSH32 0x4F776E61626C653A206E6577206F776E657220697320746865207A65726F2061 PUSH1 0x0 DUP3 ADD MSTORE PUSH32 0x6464726573730000000000000000000000000000000000000000000000000000 PUSH1 0x20 DUP3 ADD MSTORE POP JUMP JUMPDEST PUSH1 0x0 PUSH2 0xAFF PUSH1 0x26 DUP4 PUSH2 0x8ED JUMP JUMPDEST SWAP2 POP PUSH2 0xB0A DUP3 PUSH2 0xAA3 JUMP JUMPDEST PUSH1 0x40 DUP3 ADD SWAP1 POP SWAP2 SWAP1 POP JUMP JUMPDEST PUSH1 0x0 PUSH1 0x20 DUP3 ADD SWAP1 POP DUP2 DUP2 SUB PUSH1 0x0 DUP4 ADD MSTORE PUSH2 0xB2E DUP2 PUSH2 0xAF2 JUMP JUMPDEST SWAP1 POP SWAP2 SWAP1 POP JUMP JUMPDEST PUSH32 0x4F776E61626C653A2063616C6C6572206973206E6F7420746865206F776E6572 PUSH1 0x0 DUP3 ADD MSTORE POP JUMP JUMPDEST PUSH1 0x0 PUSH2 0xB6B PUSH1 0x20 DUP4 PUSH2 0x8ED JUMP JUMPDEST SWAP2 POP PUSH2 0xB76 DUP3 PUSH2 0xB35 JUMP JUMPDEST PUSH1 0x20 DUP3 ADD SWAP1 POP SWAP2 SWAP1 POP JUMP JUMPDEST PUSH1 0x0 PUSH1 0x20 DUP3 ADD SWAP1 POP DUP2 DUP2 SUB PUSH1 0x0 DUP4 ADD MSTORE PUSH2 0xB9A DUP2 PUSH2 0xB5E JUMP JUMPDEST SWAP1 POP SWAP2 SWAP1 POP JUMP JUMPDEST PUSH32 0x5061757361626C653A206E6F7420706175736564000000000000000000000000 PUSH1 0x0 DUP3 ADD MSTORE POP JUMP JUMPDEST PUSH1 0x0 PUSH2 0xBD7 PUSH1 0x14 DUP4 PUSH2 0x8ED JUMP JUMPDEST SWAP2 POP PUSH2 0xBE2 DUP3 PUSH2 0xBA1 JUMP JUMPDEST PUSH1 0x20 DUP3 ADD SWAP1 POP SWAP2 SWAP1 POP JUMP JUMPDEST PUSH1 0x0 PUSH1 0x20 DUP3 ADD SWAP1 POP DUP2 DUP2 SUB PUSH1 0x0 DUP4 ADD MSTORE PUSH2 0xC06 DUP2 PUSH2 0xBCA JUMP JUMPDEST SWAP1 POP SWAP2 SWAP1 POP JUMP JUMPDEST PUSH32 0x5061757361626C653A2070617573656400000000000000000000000000000000 PUSH1 0x0 DUP3 ADD MSTORE POP JUMP JUMPDEST PUSH1 0x0 PUSH2 0xC43 PUSH1 0x10 DUP4 PUSH2 0x8ED JUMP JUMPDEST SWAP2 POP PUSH2 0xC4E DUP3 PUSH2 0xC0D JUMP JUMPDEST PUSH1 0x20 DUP3 ADD SWAP1 POP SWAP2 SWAP1 POP JUMP JUMPDEST PUSH1 0x0 PUSH1 0x20 DUP3 ADD SWAP1 POP DUP2 DUP2 SUB PUSH1 0x0 DUP4 ADD MSTORE PUSH2 0xC72 DUP2 PUSH2 0xC36 JUMP JUMPDEST SWAP1 POP SWAP2 SWAP1 POP JUMP INVALID LOG2 PUSH5 0x6970667358 0x22 SLT KECCAK256 0xC3 JUMP 0xC1 0x2B SWAP16 0xC9 0xC7 0xE0 0xEC 0xD9 PUSH23 0x3FFE5228E7817DF16A1B851B4129CE76EBD0A56F006473 PUSH16 0x6C634300081300330000000000000000 "
				},
				"gasEstimates": {
					"creation": {
						"codeDepositCost": "649400",
						"executionCost": "infinite",
						"totalCost": "infinite"
					},
					"external": {
						"addAuthorizedContract(address)": "27164",
						"depositNFTRevenue()": "infinite",
						"getCombinedBalance()": "384",
						"owner()": "2588",
						"pause()": "infinite",
						"paused()": "2618",
						"privateFund()": "2430",
						"publicFund()": "2540",
						"renounceOwnership()": "30398",
						"transferOwnership(address)": "30854",
						"unpause()": "infinite",
						"withdrawPrivateFund(uint256)": "infinite"
					}
				},
				"methodIdentifiers": {
					"addAuthorizedContract(address)": "98eaa4a7",
					"depositNFTRevenue()": "760c764d",
					"getCombinedBalance()": "3d2ba888",
					"owner()": "8da5cb5b",
					"pause()": "8456cb59",
					"paused()": "5c975abb",
					"privateFund()": "015f009a",
					"publicFund()": "68a18cc2",
					"renounceOwnership()": "715018a6",
					"transferOwnership(address)": "f2fde38b",
					"unpause()": "3f4ba83a",
					"withdrawPrivateFund(uint256)": "3419628b"
				}
			},
			"storageLayout": {
				"storage": [
					{
						"astId": 7,
						"contract": "Treasury.sol:Treasury",
						"label": "_owner",
						"offset": 0,
						"slot": "0",
						"type": "t_address"
					},
					{
						"astId": 130,
						"contract": "Treasury.sol:Treasury",
						"label": "_paused",
						"offset": 20,
						"slot": "0",
						"type": "t_bool"
					},
					{
						"astId": 231,
						"contract": "Treasury.sol:Treasury",
						"label": "_status",
						"offset": 0,
						"slot": "1",
						"type": "t_uint256"
					},
					{
						"astId": 1764,
						"contract": "Treasury.sol:Treasury",
						"label": "privateFund",
						"offset": 0,
						"slot": "2",
						"type": "t_uint256"
					},
					{
						"astId": 1766,
						"contract": "Treasury.sol:Treasury",
						"label": "publicFund",
						"offset": 0,
						"slot": "3",
						"type": "t_uint256"
					},
					{
						"astId": 1770,
						"contract": "Treasury.sol:Treasury",
						"label": "_authorizedContracts",
						"offset": 0,
						"slot": "4",
						"type": "t_mapping(t_address,t_bool)"
					}
				],
				"types": {
					"t_address": {
						"encoding": "inplace",
						"label": "address",
						"numberOfBytes": "20"
					},
					"t_bool": {
						"encoding": "inplace",
						"label": "bool",
						"numberOfBytes": "1"
					},
					"t_mapping(t_address,t_bool)": {
						"encoding": "mapping",
						"key": "t_address",
						"label": "mapping(address => bool)",
						"numberOfBytes": "32",
						"value": "t_bool"
					},
					"t_uint256": {
						"encoding": "inplace",
						"label": "uint256",
						"numberOfBytes": "32"
					}
				}
			},
			"userdoc": {
				"kind": "user",
				"methods": {},
				"version": 1
			}
		}
	}
}