{
	"TokenMinter.sol": {
		"TokenMinter": {
			"abi": [
				{
					"inputs": [
						{
							"internalType": "address",
							"name": "doaCollectionAddress",
							"type": "address"
						},
						{
							"internalType": "address",
							"name": "treasuryAddress",
							"type": "address"
						},
						{
							"internalType": "address",
							"name": "memberRegistryAddress",
							"type": "address"
						}
					],
					"stateMutability": "nonpayable",
					"type": "constructor"
				},
				{
					"anonymous": false,
					"inputs": [
						{
							"indexed": true,
							"internalType": "address",
							"name": "previousOwner",
							"type": "address"
						},
						{
							"indexed": true,
							"internalType": "address",
							"name": "newOwner",
							"type": "address"
						}
					],
					"name": "OwnershipTransferred",
					"type": "event"
				},
				{
					"anonymous": false,
					"inputs": [
						{
							"indexed": false,
							"internalType": "address",
							"name": "account",
							"type": "address"
						}
					],
					"name": "Paused",
					"type": "event"
				},
				{
					"anonymous": false,
					"inputs": [
						{
							"indexed": false,
							"internalType": "address",
							"name": "account",
							"type": "address"
						}
					],
					"name": "Unpaused",
					"type": "event"
				},
				{
					"inputs": [],
					"name": "_areHerosMinted",
					"outputs": [
						{
							"internalType": "bool",
							"name": "",
							"type": "bool"
						}
					],
					"stateMutability": "view",
					"type": "function"
				},
				{
					"inputs": [],
					"name": "_commonNFTsMinted",
					"outputs": [
						{
							"internalType": "uint256",
							"name": "_value",
							"type": "uint256"
						}
					],
					"stateMutability": "view",
					"type": "function"
				},
				{
					"inputs": [],
					"name": "_heroNFTsMinted",
					"outputs": [
						{
							"internalType": "uint256",
							"name": "_value",
							"type": "uint256"
						}
					],
					"stateMutability": "view",
					"type": "function"
				},
				{
					"inputs": [],
					"name": "_is1stPublicRoundUnlocked",
					"outputs": [
						{
							"internalType": "bool",
							"name": "",
							"type": "bool"
						}
					],
					"stateMutability": "view",
					"type": "function"
				},
				{
					"inputs": [],
					"name": "_is2ndPublicRoundUnlocked",
					"outputs": [
						{
							"internalType": "bool",
							"name": "",
							"type": "bool"
						}
					],
					"stateMutability": "view",
					"type": "function"
				},
				{
					"inputs": [],
					"name": "_is3rdPublicRoundUnlocked",
					"outputs": [
						{
							"internalType": "bool",
							"name": "",
							"type": "bool"
						}
					],
					"stateMutability": "view",
					"type": "function"
				},
				{
					"inputs": [],
					"name": "_legendNFTsMinted",
					"outputs": [
						{
							"internalType": "uint256",
							"name": "_value",
							"type": "uint256"
						}
					],
					"stateMutability": "view",
					"type": "function"
				},
				{
					"inputs": [],
					"name": "_rareNFTsMinted",
					"outputs": [
						{
							"internalType": "uint256",
							"name": "_value",
							"type": "uint256"
						}
					],
					"stateMutability": "view",
					"type": "function"
				},
				{
					"inputs": [],
					"name": "_uncommonNFTsMinted",
					"outputs": [
						{
							"internalType": "uint256",
							"name": "_value",
							"type": "uint256"
						}
					],
					"stateMutability": "view",
					"type": "function"
				},
				{
					"inputs": [
						{
							"internalType": "address",
							"name": "contractAddress",
							"type": "address"
						}
					],
					"name": "addAuthorizedContract",
					"outputs": [],
					"stateMutability": "nonpayable",
					"type": "function"
				},
				{
					"inputs": [
						{
							"internalType": "uint256",
							"name": "numToMint",
							"type": "uint256"
						},
						{
							"internalType": "enum NFT_CLASS",
							"name": "classToMint",
							"type": "uint8"
						}
					],
					"name": "getMintIndexRange",
					"outputs": [
						{
							"internalType": "uint256",
							"name": "mintStartIndex",
							"type": "uint256"
						},
						{
							"internalType": "uint256",
							"name": "mintEndIndex",
							"type": "uint256"
						}
					],
					"stateMutability": "view",
					"type": "function"
				},
				{
					"inputs": [
						{
							"internalType": "address",
							"name": "toAddr",
							"type": "address"
						}
					],
					"name": "mintCommon",
					"outputs": [],
					"stateMutability": "payable",
					"type": "function"
				},
				{
					"inputs": [
						{
							"internalType": "address",
							"name": "toAddr",
							"type": "address"
						},
						{
							"internalType": "uint256",
							"name": "numToMint",
							"type": "uint256"
						}
					],
					"name": "mintCommons",
					"outputs": [],
					"stateMutability": "payable",
					"type": "function"
				},
				{
					"inputs": [
						{
							"internalType": "address",
							"name": "toAddr",
							"type": "address"
						}
					],
					"name": "mintHeros",
					"outputs": [],
					"stateMutability": "nonpayable",
					"type": "function"
				},
				{
					"inputs": [
						{
							"internalType": "address",
							"name": "toAddr",
							"type": "address"
						}
					],
					"name": "mintLegend",
					"outputs": [],
					"stateMutability": "payable",
					"type": "function"
				},
				{
					"inputs": [
						{
							"internalType": "address",
							"name": "toAddr",
							"type": "address"
						},
						{
							"internalType": "uint256",
							"name": "numToMint",
							"type": "uint256"
						}
					],
					"name": "mintLegends",
					"outputs": [],
					"stateMutability": "payable",
					"type": "function"
				},
				{
					"inputs": [
						{
							"internalType": "address",
							"name": "toAddr",
							"type": "address"
						}
					],
					"name": "mintRare",
					"outputs": [],
					"stateMutability": "payable",
					"type": "function"
				},
				{
					"inputs": [
						{
							"internalType": "address",
							"name": "toAddr",
							"type": "address"
						},
						{
							"internalType": "uint256",
							"name": "numToMint",
							"type": "uint256"
						}
					],
					"name": "mintRares",
					"outputs": [],
					"stateMutability": "payable",
					"type": "function"
				},
				{
					"inputs": [
						{
							"internalType": "address",
							"name": "toAddr",
							"type": "address"
						}
					],
					"name": "mintUncommon",
					"outputs": [],
					"stateMutability": "payable",
					"type": "function"
				},
				{
					"inputs": [
						{
							"internalType": "address",
							"name": "toAddr",
							"type": "address"
						},
						{
							"internalType": "uint256",
							"name": "numToMint",
							"type": "uint256"
						}
					],
					"name": "mintUncommons",
					"outputs": [],
					"stateMutability": "payable",
					"type": "function"
				},
				{
					"inputs": [],
					"name": "owner",
					"outputs": [
						{
							"internalType": "address",
							"name": "",
							"type": "address"
						}
					],
					"stateMutability": "view",
					"type": "function"
				},
				{
					"inputs": [],
					"name": "pause",
					"outputs": [],
					"stateMutability": "nonpayable",
					"type": "function"
				},
				{
					"inputs": [],
					"name": "paused",
					"outputs": [
						{
							"internalType": "bool",
							"name": "",
							"type": "bool"
						}
					],
					"stateMutability": "view",
					"type": "function"
				},
				{
					"inputs": [],
					"name": "renounceOwnership",
					"outputs": [],
					"stateMutability": "nonpayable",
					"type": "function"
				},
				{
					"inputs": [
						{
							"internalType": "address",
							"name": "newOwner",
							"type": "address"
						}
					],
					"name": "transferOwnership",
					"outputs": [],
					"stateMutability": "nonpayable",
					"type": "function"
				},
				{
					"inputs": [],
					"name": "unlock1stPublicRound",
					"outputs": [],
					"stateMutability": "nonpayable",
					"type": "function"
				},
				{
					"inputs": [],
					"name": "unlock2ndPublicRound",
					"outputs": [],
					"stateMutability": "nonpayable",
					"type": "function"
				},
				{
					"inputs": [],
					"name": "unpause",
					"outputs": [],
					"stateMutability": "nonpayable",
					"type": "function"
				}
			],
			"devdoc": {
				"events": {
					"Paused(address)": {
						"details": "Emitted when the pause is triggered by `account`."
					},
					"Unpaused(address)": {
						"details": "Emitted when the pause is lifted by `account`."
					}
				},
				"kind": "dev",
				"methods": {
					"owner()": {
						"details": "Returns the address of the current owner."
					},
					"paused()": {
						"details": "Returns true if the contract is paused, and false otherwise."
					},
					"renounceOwnership()": {
						"details": "Leaves the contract without owner. It will not be possible to call `onlyOwner` functions anymore. Can only be called by the current owner. NOTE: Renouncing ownership will leave the contract without an owner, thereby removing any functionality that is only available to the owner."
					},
					"transferOwnership(address)": {
						"details": "Transfers ownership of the contract to a new account (`newOwner`). Can only be called by the current owner."
					}
				},
				"version": 1
			},
			"evm": {
				"assembly": "    /* \"TokenMinter.sol\":486:11238  contract TokenMinter is iTokenMinter, Ownable, Pausable, ReentrancyGuard {... */\n  mstore(0x40, 0x80)\n    /* \"TokenMinter.sol\":2256:2624  constructor(address doaCollectionAddress, address treasuryAddress, address memberRegistryAddress)  {... */\n  callvalue\n  dup1\n  iszero\n  tag_1\n  jumpi\n  0x00\n  dup1\n  revert\ntag_1:\n  pop\n  mload(0x40)\n  sub(codesize, bytecodeSize)\n  dup1\n  bytecodeSize\n  dup4\n  codecopy\n  dup2\n  dup2\n  add\n  0x40\n  mstore\n  dup2\n  add\n  swap1\n  tag_2\n  swap2\n  swap1\n  tag_3\n  jump\t// in\ntag_2:\n    /* \"@openzeppelin/contracts/access/Ownable.sol\":936:968  _transferOwnership(_msgSender()) */\n  tag_9\n    /* \"@openzeppelin/contracts/access/Ownable.sol\":955:967  _msgSender() */\n  tag_10\n    /* \"@openzeppelin/contracts/access/Ownable.sol\":955:965  _msgSender */\n  shl(0x20, tag_11)\n    /* \"@openzeppelin/contracts/access/Ownable.sol\":955:967  _msgSender() */\n  0x20\n  shr\n  jump\t// in\ntag_10:\n    /* \"@openzeppelin/contracts/access/Ownable.sol\":936:954  _transferOwnership */\n  shl(0x20, tag_12)\n    /* \"@openzeppelin/contracts/access/Ownable.sol\":936:968  _transferOwnership(_msgSender()) */\n  0x20\n  shr\n  jump\t// in\ntag_9:\n    /* \"@openzeppelin/contracts/security/Pausable.sol\":1006:1011  false */\n  0x00\n    /* \"@openzeppelin/contracts/security/Pausable.sol\":996:1003  _paused */\n  dup1\n  0x14\n    /* \"@openzeppelin/contracts/security/Pausable.sol\":996:1011  _paused = false */\n  0x0100\n  exp\n  dup2\n  sload\n  dup2\n  0xff\n  mul\n  not\n  and\n  swap1\n  dup4\n  iszero\n  iszero\n  mul\n  or\n  swap1\n  sstore\n  pop\n    /* \"@openzeppelin/contracts/security/ReentrancyGuard.sol\":1716:1717  1 */\n  0x01\n    /* \"@openzeppelin/contracts/security/ReentrancyGuard.sol\":1821:1828  _status */\n  dup1\n    /* \"@openzeppelin/contracts/security/ReentrancyGuard.sol\":1821:1843  _status = _NOT_ENTERED */\n  dup2\n  swap1\n  sstore\n  pop\n    /* \"TokenMinter.sol\":2397:2417  doaCollectionAddress */\n  dup3\n    /* \"TokenMinter.sol\":2365:2379  _doaCollection */\n  0x02\n  0x00\n    /* \"TokenMinter.sol\":2365:2418  _doaCollection = iDoACollection(doaCollectionAddress) */\n  0x0100\n  exp\n  dup2\n  sload\n  dup2\n  0xffffffffffffffffffffffffffffffffffffffff\n  mul\n  not\n  and\n  swap1\n  dup4\n  0xffffffffffffffffffffffffffffffffffffffff\n  and\n  mul\n  or\n  swap1\n  sstore\n  pop\n    /* \"TokenMinter.sol\":2450:2465  treasuryAddress */\n  dup2\n    /* \"TokenMinter.sol\":2428:2437  _treasury */\n  0x03\n  0x00\n    /* \"TokenMinter.sol\":2428:2466  _treasury = iTreasury(treasuryAddress) */\n  0x0100\n  exp\n  dup2\n  sload\n  dup2\n  0xffffffffffffffffffffffffffffffffffffffff\n  mul\n  not\n  and\n  swap1\n  dup4\n  0xffffffffffffffffffffffffffffffffffffffff\n  and\n  mul\n  or\n  swap1\n  sstore\n  pop\n    /* \"TokenMinter.sol\":2510:2531  memberRegistryAddress */\n  dup1\n    /* \"TokenMinter.sol\":2476:2491  _memberRegistry */\n  0x04\n  0x00\n    /* \"TokenMinter.sol\":2476:2532  _memberRegistry = iMemberRegistry(memberRegistryAddress) */\n  0x0100\n  exp\n  dup2\n  sload\n  dup2\n  0xffffffffffffffffffffffffffffffffffffffff\n  mul\n  not\n  and\n  swap1\n  dup4\n  0xffffffffffffffffffffffffffffffffffffffff\n  and\n  mul\n  or\n  swap1\n  sstore\n  pop\n    /* \"TokenMinter.sol\":2578:2582  true */\n  0x01\n    /* \"TokenMinter.sol\":2543:2563  _authorizedContracts */\n  0x05\n    /* \"TokenMinter.sol\":2543:2575  _authorizedContracts[msg.sender] */\n  0x00\n    /* \"TokenMinter.sol\":2564:2574  msg.sender */\n  caller\n    /* \"TokenMinter.sol\":2543:2575  _authorizedContracts[msg.sender] */\n  0xffffffffffffffffffffffffffffffffffffffff\n  and\n  0xffffffffffffffffffffffffffffffffffffffff\n  and\n  dup2\n  mstore\n  0x20\n  add\n  swap1\n  dup2\n  mstore\n  0x20\n  add\n  0x00\n  keccak256\n  0x00\n    /* \"TokenMinter.sol\":2543:2582  _authorizedContracts[msg.sender] = true */\n  0x0100\n  exp\n  dup2\n  sload\n  dup2\n  0xff\n  mul\n  not\n  and\n  swap1\n  dup4\n  iszero\n  iszero\n  mul\n  or\n  swap1\n  sstore\n  pop\n    /* \"TokenMinter.sol\":2256:2624  constructor(address doaCollectionAddress, address treasuryAddress, address memberRegistryAddress)  {... */\n  pop\n  pop\n  pop\n    /* \"TokenMinter.sol\":486:11238  contract TokenMinter is iTokenMinter, Ownable, Pausable, ReentrancyGuard {... */\n  jump(tag_16)\n    /* \"@openzeppelin/contracts/utils/Context.sol\":640:736  function _msgSender() internal view virtual returns (address) {... */\ntag_11:\n    /* \"@openzeppelin/contracts/utils/Context.sol\":693:700  address */\n  0x00\n    /* \"@openzeppelin/contracts/utils/Context.sol\":719:729  msg.sender */\n  caller\n    /* \"@openzeppelin/contracts/utils/Context.sol\":712:729  return msg.sender */\n  swap1\n  pop\n    /* \"@openzeppelin/contracts/utils/Context.sol\":640:736  function _msgSender() internal view virtual returns (address) {... */\n  swap1\n  jump\t// out\n    /* \"@openzeppelin/contracts/access/Ownable.sol\":2433:2620  function _transferOwnership(address newOwner) internal virtual {... */\ntag_12:\n    /* \"@openzeppelin/contracts/access/Ownable.sol\":2506:2522  address oldOwner */\n  0x00\n    /* \"@openzeppelin/contracts/access/Ownable.sol\":2525:2531  _owner */\n  dup1\n  0x00\n  swap1\n  sload\n  swap1\n  0x0100\n  exp\n  swap1\n  div\n  0xffffffffffffffffffffffffffffffffffffffff\n  and\n    /* \"@openzeppelin/contracts/access/Ownable.sol\":2506:2531  address oldOwner = _owner */\n  swap1\n  pop\n    /* \"@openzeppelin/contracts/access/Ownable.sol\":2550:2558  newOwner */\n  dup2\n    /* \"@openzeppelin/contracts/access/Ownable.sol\":2541:2547  _owner */\n  0x00\n  dup1\n    /* \"@openzeppelin/contracts/access/Ownable.sol\":2541:2558  _owner = newOwner */\n  0x0100\n  exp\n  dup2\n  sload\n  dup2\n  0xffffffffffffffffffffffffffffffffffffffff\n  mul\n  not\n  and\n  swap1\n  dup4\n  0xffffffffffffffffffffffffffffffffffffffff\n  and\n  mul\n  or\n  swap1\n  sstore\n  pop\n    /* \"@openzeppelin/contracts/access/Ownable.sol\":2604:2612  newOwner */\n  dup2\n    /* \"@openzeppelin/contracts/access/Ownable.sol\":2573:2613  OwnershipTransferred(oldOwner, newOwner) */\n  0xffffffffffffffffffffffffffffffffffffffff\n  and\n    /* \"@openzeppelin/contracts/access/Ownable.sol\":2594:2602  oldOwner */\n  dup2\n    /* \"@openzeppelin/contracts/access/Ownable.sol\":2573:2613  OwnershipTransferred(oldOwner, newOwner) */\n  0xffffffffffffffffffffffffffffffffffffffff\n  and\n  0x8be0079c531659141344cd1fd0a4f28419497f9722a3daafe3b4186f6b6457e0\n  mload(0x40)\n  mload(0x40)\n  dup1\n  swap2\n  sub\n  swap1\n  log3\n    /* \"@openzeppelin/contracts/access/Ownable.sol\":2496:2620  {... */\n  pop\n    /* \"@openzeppelin/contracts/access/Ownable.sol\":2433:2620  function _transferOwnership(address newOwner) internal virtual {... */\n  pop\n  jump\t// out\n    /* \"#utility.yul\":88:205   */\ntag_20:\n    /* \"#utility.yul\":197:198   */\n  0x00\n    /* \"#utility.yul\":194:195   */\n  dup1\n    /* \"#utility.yul\":187:199   */\n  revert\n    /* \"#utility.yul\":334:460   */\ntag_22:\n    /* \"#utility.yul\":371:378   */\n  0x00\n    /* \"#utility.yul\":411:453   */\n  0xffffffffffffffffffffffffffffffffffffffff\n    /* \"#utility.yul\":404:409   */\n  dup3\n    /* \"#utility.yul\":400:454   */\n  and\n    /* \"#utility.yul\":389:454   */\n  swap1\n  pop\n    /* \"#utility.yul\":334:460   */\n  swap2\n  swap1\n  pop\n  jump\t// out\n    /* \"#utility.yul\":466:562   */\ntag_23:\n    /* \"#utility.yul\":503:510   */\n  0x00\n    /* \"#utility.yul\":532:556   */\n  tag_32\n    /* \"#utility.yul\":550:555   */\n  dup3\n    /* \"#utility.yul\":532:556   */\n  tag_22\n  jump\t// in\ntag_32:\n    /* \"#utility.yul\":521:556   */\n  swap1\n  pop\n    /* \"#utility.yul\":466:562   */\n  swap2\n  swap1\n  pop\n  jump\t// out\n    /* \"#utility.yul\":568:690   */\ntag_24:\n    /* \"#utility.yul\":641:665   */\n  tag_34\n    /* \"#utility.yul\":659:664   */\n  dup2\n    /* \"#utility.yul\":641:665   */\n  tag_23\n  jump\t// in\ntag_34:\n    /* \"#utility.yul\":634:639   */\n  dup2\n    /* \"#utility.yul\":631:666   */\n  eq\n    /* \"#utility.yul\":621:684   */\n  tag_35\n  jumpi\n    /* \"#utility.yul\":680:681   */\n  0x00\n    /* \"#utility.yul\":677:678   */\n  dup1\n    /* \"#utility.yul\":670:682   */\n  revert\n    /* \"#utility.yul\":621:684   */\ntag_35:\n    /* \"#utility.yul\":568:690   */\n  pop\n  jump\t// out\n    /* \"#utility.yul\":696:839   */\ntag_25:\n    /* \"#utility.yul\":753:758   */\n  0x00\n    /* \"#utility.yul\":784:790   */\n  dup2\n    /* \"#utility.yul\":778:791   */\n  mload\n    /* \"#utility.yul\":769:791   */\n  swap1\n  pop\n    /* \"#utility.yul\":800:833   */\n  tag_37\n    /* \"#utility.yul\":827:832   */\n  dup2\n    /* \"#utility.yul\":800:833   */\n  tag_24\n  jump\t// in\ntag_37:\n    /* \"#utility.yul\":696:839   */\n  swap3\n  swap2\n  pop\n  pop\n  jump\t// out\n    /* \"#utility.yul\":845:1508   */\ntag_3:\n    /* \"#utility.yul\":933:939   */\n  0x00\n    /* \"#utility.yul\":941:947   */\n  dup1\n    /* \"#utility.yul\":949:955   */\n  0x00\n    /* \"#utility.yul\":998:1000   */\n  0x60\n    /* \"#utility.yul\":986:995   */\n  dup5\n    /* \"#utility.yul\":977:984   */\n  dup7\n    /* \"#utility.yul\":973:996   */\n  sub\n    /* \"#utility.yul\":969:1001   */\n  slt\n    /* \"#utility.yul\":966:1085   */\n  iszero\n  tag_39\n  jumpi\n    /* \"#utility.yul\":1004:1083   */\n  tag_40\n  tag_20\n  jump\t// in\ntag_40:\n    /* \"#utility.yul\":966:1085   */\ntag_39:\n    /* \"#utility.yul\":1124:1125   */\n  0x00\n    /* \"#utility.yul\":1149:1213   */\n  tag_41\n    /* \"#utility.yul\":1205:1212   */\n  dup7\n    /* \"#utility.yul\":1196:1202   */\n  dup3\n    /* \"#utility.yul\":1185:1194   */\n  dup8\n    /* \"#utility.yul\":1181:1203   */\n  add\n    /* \"#utility.yul\":1149:1213   */\n  tag_25\n  jump\t// in\ntag_41:\n    /* \"#utility.yul\":1139:1213   */\n  swap4\n  pop\n    /* \"#utility.yul\":1095:1223   */\n  pop\n    /* \"#utility.yul\":1262:1264   */\n  0x20\n    /* \"#utility.yul\":1288:1352   */\n  tag_42\n    /* \"#utility.yul\":1344:1351   */\n  dup7\n    /* \"#utility.yul\":1335:1341   */\n  dup3\n    /* \"#utility.yul\":1324:1333   */\n  dup8\n    /* \"#utility.yul\":1320:1342   */\n  add\n    /* \"#utility.yul\":1288:1352   */\n  tag_25\n  jump\t// in\ntag_42:\n    /* \"#utility.yul\":1278:1352   */\n  swap3\n  pop\n    /* \"#utility.yul\":1233:1362   */\n  pop\n    /* \"#utility.yul\":1401:1403   */\n  0x40\n    /* \"#utility.yul\":1427:1491   */\n  tag_43\n    /* \"#utility.yul\":1483:1490   */\n  dup7\n    /* \"#utility.yul\":1474:1480   */\n  dup3\n    /* \"#utility.yul\":1463:1472   */\n  dup8\n    /* \"#utility.yul\":1459:1481   */\n  add\n    /* \"#utility.yul\":1427:1491   */\n  tag_25\n  jump\t// in\ntag_43:\n    /* \"#utility.yul\":1417:1491   */\n  swap2\n  pop\n    /* \"#utility.yul\":1372:1501   */\n  pop\n    /* \"#utility.yul\":845:1508   */\n  swap3\n  pop\n  swap3\n  pop\n  swap3\n  jump\t// out\n    /* \"TokenMinter.sol\":486:11238  contract TokenMinter is iTokenMinter, Ownable, Pausable, ReentrancyGuard {... */\ntag_16:\n  dataSize(sub_0)\n  dup1\n  dataOffset(sub_0)\n  0x00\n  codecopy\n  0x00\n  return\nstop\n\nsub_0: assembly {\n        /* \"TokenMinter.sol\":486:11238  contract TokenMinter is iTokenMinter, Ownable, Pausable, ReentrancyGuard {... */\n      mstore(0x40, 0x80)\n      jumpi(tag_1, lt(calldatasize, 0x04))\n      shr(0xe0, calldataload(0x00))\n      dup1\n      0x8d36f8f4\n      gt\n      tag_30\n      jumpi\n      dup1\n      0xc8d4fc60\n      gt\n      tag_31\n      jumpi\n      dup1\n      0xf17a6777\n      gt\n      tag_32\n      jumpi\n      dup1\n      0xf17a6777\n      eq\n      tag_26\n      jumpi\n      dup1\n      0xf2c5d797\n      eq\n      tag_27\n      jumpi\n      dup1\n      0xf2fde38b\n      eq\n      tag_28\n      jumpi\n      dup1\n      0xf78f680a\n      eq\n      tag_29\n      jumpi\n      jump(tag_1)\n    tag_32:\n      dup1\n      0xc8d4fc60\n      eq\n      tag_23\n      jumpi\n      dup1\n      0xd47e107e\n      eq\n      tag_24\n      jumpi\n      dup1\n      0xd87b320b\n      eq\n      tag_25\n      jumpi\n      jump(tag_1)\n    tag_31:\n      dup1\n      0x98eaa4a7\n      gt\n      tag_33\n      jumpi\n      dup1\n      0x98eaa4a7\n      eq\n      tag_19\n      jumpi\n      dup1\n      0x9f158a78\n      eq\n      tag_20\n      jumpi\n      dup1\n      0xa8372307\n      eq\n      tag_21\n      jumpi\n      dup1\n      0xbad688c6\n      eq\n      tag_22\n      jumpi\n      jump(tag_1)\n    tag_33:\n      dup1\n      0x8d36f8f4\n      eq\n      tag_16\n      jumpi\n      dup1\n      0x8da5cb5b\n      eq\n      tag_17\n      jumpi\n      dup1\n      0x953a6ca8\n      eq\n      tag_18\n      jumpi\n      jump(tag_1)\n    tag_30:\n      dup1\n      0x508f0628\n      gt\n      tag_34\n      jumpi\n      dup1\n      0x6f785cdf\n      gt\n      tag_35\n      jumpi\n      dup1\n      0x6f785cdf\n      eq\n      tag_12\n      jumpi\n      dup1\n      0x715018a6\n      eq\n      tag_13\n      jumpi\n      dup1\n      0x7e7f57f2\n      eq\n      tag_14\n      jumpi\n      dup1\n      0x8456cb59\n      eq\n      tag_15\n      jumpi\n      jump(tag_1)\n    tag_35:\n      dup1\n      0x508f0628\n      eq\n      tag_9\n      jumpi\n      dup1\n      0x5c975abb\n      eq\n      tag_10\n      jumpi\n      dup1\n      0x5eee43f0\n      eq\n      tag_11\n      jumpi\n      jump(tag_1)\n    tag_34:\n      dup1\n      0x28d3bd1b\n      gt\n      tag_36\n      jumpi\n      dup1\n      0x28d3bd1b\n      eq\n      tag_5\n      jumpi\n      dup1\n      0x329cc83f\n      eq\n      tag_6\n      jumpi\n      dup1\n      0x3a149127\n      eq\n      tag_7\n      jumpi\n      dup1\n      0x3f4ba83a\n      eq\n      tag_8\n      jumpi\n      jump(tag_1)\n    tag_36:\n      dup1\n      0x087bd107\n      eq\n      tag_2\n      jumpi\n      dup1\n      0x1592fb2a\n      eq\n      tag_3\n      jumpi\n      dup1\n      0x20a0c034\n      eq\n      tag_4\n      jumpi\n    tag_1:\n      0x00\n      dup1\n      revert\n        /* \"TokenMinter.sol\":1052:1091  Counters.Counter public _heroNFTsMinted */\n    tag_2:\n      callvalue\n      dup1\n      iszero\n      tag_37\n      jumpi\n      0x00\n      dup1\n      revert\n    tag_37:\n      pop\n      tag_38\n      tag_39\n      jump\t// in\n    tag_38:\n      mload(0x40)\n      tag_40\n      swap2\n      swap1\n      tag_41\n      jump\t// in\n    tag_40:\n      mload(0x40)\n      dup1\n      swap2\n      sub\n      swap1\n      return\n        /* \"TokenMinter.sol\":1097:1138  Counters.Counter public _legendNFTsMinted */\n    tag_3:\n      callvalue\n      dup1\n      iszero\n      tag_42\n      jumpi\n      0x00\n      dup1\n      revert\n    tag_42:\n      pop\n      tag_43\n      tag_44\n      jump\t// in\n    tag_43:\n      mload(0x40)\n      tag_45\n      swap2\n      swap1\n      tag_41\n      jump\t// in\n    tag_45:\n      mload(0x40)\n      dup1\n      swap2\n      sub\n      swap1\n      return\n        /* \"TokenMinter.sol\":9876:10027  function mintLegends(address toAddr, uint256 numToMint) external whenNotPaused  payable {... */\n    tag_4:\n      tag_46\n      0x04\n      dup1\n      calldatasize\n      sub\n      dup2\n      add\n      swap1\n      tag_47\n      swap2\n      swap1\n      tag_48\n      jump\t// in\n    tag_47:\n      tag_49\n      jump\t// in\n    tag_46:\n      stop\n        /* \"TokenMinter.sol\":3631:4605  function unlock2ndPublicRound() external  whenNotPaused nonReentrant {... */\n    tag_5:\n      callvalue\n      dup1\n      iszero\n      tag_50\n      jumpi\n      0x00\n      dup1\n      revert\n    tag_50:\n      pop\n      tag_51\n      tag_52\n      jump\t// in\n    tag_51:\n      stop\n        /* \"TokenMinter.sol\":4631:5019  function mintHeros(address toAddr) external  whenNotPaused nonReentrant {... */\n    tag_6:\n      callvalue\n      dup1\n      iszero\n      tag_53\n      jumpi\n      0x00\n      dup1\n      revert\n    tag_53:\n      pop\n      tag_54\n      0x04\n      dup1\n      calldatasize\n      sub\n      dup2\n      add\n      swap1\n      tag_55\n      swap2\n      swap1\n      tag_56\n      jump\t// in\n    tag_55:\n      tag_57\n      jump\t// in\n    tag_54:\n      stop\n        /* \"TokenMinter.sol\":1144:1183  Counters.Counter public _rareNFTsMinted */\n    tag_7:\n      callvalue\n      dup1\n      iszero\n      tag_58\n      jumpi\n      0x00\n      dup1\n      revert\n    tag_58:\n      pop\n      tag_59\n      tag_60\n      jump\t// in\n    tag_59:\n      mload(0x40)\n      tag_61\n      swap2\n      swap1\n      tag_41\n      jump\t// in\n    tag_61:\n      mload(0x40)\n      dup1\n      swap2\n      sub\n      swap1\n      return\n        /* \"TokenMinter.sol\":3042:3105  function unpause() public onlyOwner {... */\n    tag_8:\n      callvalue\n      dup1\n      iszero\n      tag_62\n      jumpi\n      0x00\n      dup1\n      revert\n    tag_62:\n      pop\n      tag_63\n      tag_64\n      jump\t// in\n    tag_63:\n      stop\n        /* \"TokenMinter.sol\":10615:10743  function mintUncommon(address toAddr) external  whenNotPaused  payable {... */\n    tag_9:\n      tag_65\n      0x04\n      dup1\n      calldatasize\n      sub\n      dup2\n      add\n      swap1\n      tag_66\n      swap2\n      swap1\n      tag_56\n      jump\t// in\n    tag_66:\n      tag_67\n      jump\t// in\n    tag_65:\n      stop\n        /* \"@openzeppelin/contracts/security/Pausable.sol\":1615:1699  function paused() public view virtual returns (bool) {... */\n    tag_10:\n      callvalue\n      dup1\n      iszero\n      tag_68\n      jumpi\n      0x00\n      dup1\n      revert\n    tag_68:\n      pop\n      tag_69\n      tag_70\n      jump\t// in\n    tag_69:\n      mload(0x40)\n      tag_71\n      swap2\n      swap1\n      tag_72\n      jump\t// in\n    tag_71:\n      mload(0x40)\n      dup1\n      swap2\n      sub\n      swap1\n      return\n        /* \"TokenMinter.sol\":1428:1465  bool public _is3rdPublicRoundUnlocked */\n    tag_11:\n      callvalue\n      dup1\n      iszero\n      tag_73\n      jumpi\n      0x00\n      dup1\n      revert\n    tag_73:\n      pop\n      tag_74\n      tag_75\n      jump\t// in\n    tag_74:\n      mload(0x40)\n      tag_76\n      swap2\n      swap1\n      tag_72\n      jump\t// in\n    tag_76:\n      mload(0x40)\n      dup1\n      swap2\n      sub\n      swap1\n      return\n        /* \"TokenMinter.sol\":1238:1279  Counters.Counter public _commonNFTsMinted */\n    tag_12:\n      callvalue\n      dup1\n      iszero\n      tag_77\n      jumpi\n      0x00\n      dup1\n      revert\n    tag_77:\n      pop\n      tag_78\n      tag_79\n      jump\t// in\n    tag_78:\n      mload(0x40)\n      tag_80\n      swap2\n      swap1\n      tag_41\n      jump\t// in\n    tag_80:\n      mload(0x40)\n      dup1\n      swap2\n      sub\n      swap1\n      return\n        /* \"@openzeppelin/contracts/access/Ownable.sol\":1831:1932  function renounceOwnership() public virtual onlyOwner {... */\n    tag_13:\n      callvalue\n      dup1\n      iszero\n      tag_81\n      jumpi\n      0x00\n      dup1\n      revert\n    tag_81:\n      pop\n      tag_82\n      tag_83\n      jump\t// in\n    tag_82:\n      stop\n        /* \"TokenMinter.sol\":3323:3624  function unlock1stPublicRound() external  whenNotPaused nonReentrant {... */\n    tag_14:\n      callvalue\n      dup1\n      iszero\n      tag_84\n      jumpi\n      0x00\n      dup1\n      revert\n    tag_84:\n      pop\n      tag_85\n      tag_86\n      jump\t// in\n    tag_85:\n      stop\n        /* \"TokenMinter.sol\":2977:3036  function pause() public onlyOwner {... */\n    tag_15:\n      callvalue\n      dup1\n      iszero\n      tag_87\n      jumpi\n      0x00\n      dup1\n      revert\n    tag_87:\n      pop\n      tag_88\n      tag_89\n      jump\t// in\n    tag_88:\n      stop\n        /* \"TokenMinter.sol\":10327:10447  function mintRare(address toAddr) external  whenNotPaused  payable {... */\n    tag_16:\n      tag_90\n      0x04\n      dup1\n      calldatasize\n      sub\n      dup2\n      add\n      swap1\n      tag_91\n      swap2\n      swap1\n      tag_56\n      jump\t// in\n    tag_91:\n      tag_92\n      jump\t// in\n    tag_90:\n      stop\n        /* \"@openzeppelin/contracts/access/Ownable.sol\":1201:1286  function owner() public view virtual returns (address) {... */\n    tag_17:\n      callvalue\n      dup1\n      iszero\n      tag_93\n      jumpi\n      0x00\n      dup1\n      revert\n    tag_93:\n      pop\n      tag_94\n      tag_95\n      jump\t// in\n    tag_94:\n      mload(0x40)\n      tag_96\n      swap2\n      swap1\n      tag_97\n      jump\t// in\n    tag_96:\n      mload(0x40)\n      dup1\n      swap2\n      sub\n      swap1\n      return\n        /* \"TokenMinter.sol\":1342:1379  bool public _is1stPublicRoundUnlocked */\n    tag_18:\n      callvalue\n      dup1\n      iszero\n      tag_98\n      jumpi\n      0x00\n      dup1\n      revert\n    tag_98:\n      pop\n      tag_99\n      tag_100\n      jump\t// in\n    tag_99:\n      mload(0x40)\n      tag_101\n      swap2\n      swap1\n      tag_72\n      jump\t// in\n    tag_101:\n      mload(0x40)\n      dup1\n      swap2\n      sub\n      swap1\n      return\n        /* \"TokenMinter.sol\":2631:2765  function addAuthorizedContract(address contractAddress) public onlyOwner {... */\n    tag_19:\n      callvalue\n      dup1\n      iszero\n      tag_102\n      jumpi\n      0x00\n      dup1\n      revert\n    tag_102:\n      pop\n      tag_103\n      0x04\n      dup1\n      calldatasize\n      sub\n      dup2\n      add\n      swap1\n      tag_104\n      swap2\n      swap1\n      tag_56\n      jump\t// in\n    tag_104:\n      tag_105\n      jump\t// in\n    tag_103:\n      stop\n        /* \"TokenMinter.sol\":1189:1232  Counters.Counter public _uncommonNFTsMinted */\n    tag_20:\n      callvalue\n      dup1\n      iszero\n      tag_106\n      jumpi\n      0x00\n      dup1\n      revert\n    tag_106:\n      pop\n      tag_107\n      tag_108\n      jump\t// in\n    tag_107:\n      mload(0x40)\n      tag_109\n      swap2\n      swap1\n      tag_41\n      jump\t// in\n    tag_109:\n      mload(0x40)\n      dup1\n      swap2\n      sub\n      swap1\n      return\n        /* \"TokenMinter.sol\":10042:10166  function mintLegend(address toAddr) external  whenNotPaused  payable {... */\n    tag_21:\n      tag_110\n      0x04\n      dup1\n      calldatasize\n      sub\n      dup2\n      add\n      swap1\n      tag_111\n      swap2\n      swap1\n      tag_56\n      jump\t// in\n    tag_111:\n      tag_112\n      jump\t// in\n    tag_110:\n      stop\n        /* \"TokenMinter.sol\":10749:10901  function mintCommons(address toAddr, uint256 numToMint) external  whenNotPaused  payable {... */\n    tag_22:\n      tag_113\n      0x04\n      dup1\n      calldatasize\n      sub\n      dup2\n      add\n      swap1\n      tag_114\n      swap2\n      swap1\n      tag_48\n      jump\t// in\n    tag_114:\n      tag_115\n      jump\t// in\n    tag_113:\n      stop\n        /* \"TokenMinter.sol\":1309:1336  bool public _areHerosMinted */\n    tag_23:\n      callvalue\n      dup1\n      iszero\n      tag_116\n      jumpi\n      0x00\n      dup1\n      revert\n    tag_116:\n      pop\n      tag_117\n      tag_118\n      jump\t// in\n    tag_117:\n      mload(0x40)\n      tag_119\n      swap2\n      swap1\n      tag_72\n      jump\t// in\n    tag_119:\n      mload(0x40)\n      dup1\n      swap2\n      sub\n      swap1\n      return\n        /* \"TokenMinter.sol\":10907:11031  function mintCommon(address toAddr) external  whenNotPaused  payable {... */\n    tag_24:\n      tag_120\n      0x04\n      dup1\n      calldatasize\n      sub\n      dup2\n      add\n      swap1\n      tag_121\n      swap2\n      swap1\n      tag_56\n      jump\t// in\n    tag_121:\n      tag_122\n      jump\t// in\n    tag_120:\n      stop\n        /* \"TokenMinter.sol\":5026:8354  function getMintIndexRange(uint256 numToMint, NFT_CLASS classToMint) public view whenNotPaused returns (uint256 mintStartIndex, uint256 mintEndIndex) {... */\n    tag_25:\n      callvalue\n      dup1\n      iszero\n      tag_123\n      jumpi\n      0x00\n      dup1\n      revert\n    tag_123:\n      pop\n      tag_124\n      0x04\n      dup1\n      calldatasize\n      sub\n      dup2\n      add\n      swap1\n      tag_125\n      swap2\n      swap1\n      tag_126\n      jump\t// in\n    tag_125:\n      tag_127\n      jump\t// in\n    tag_124:\n      mload(0x40)\n      tag_128\n      swap3\n      swap2\n      swap1\n      tag_129\n      jump\t// in\n    tag_128:\n      mload(0x40)\n      dup1\n      swap2\n      sub\n      swap1\n      return\n        /* \"TokenMinter.sol\":10453:10609  function mintUncommons(address toAddr, uint256 numToMint) external  whenNotPaused  payable {... */\n    tag_26:\n      tag_130\n      0x04\n      dup1\n      calldatasize\n      sub\n      dup2\n      add\n      swap1\n      tag_131\n      swap2\n      swap1\n      tag_48\n      jump\t// in\n    tag_131:\n      tag_132\n      jump\t// in\n    tag_130:\n      stop\n        /* \"TokenMinter.sol\":1385:1422  bool public _is2ndPublicRoundUnlocked */\n    tag_27:\n      callvalue\n      dup1\n      iszero\n      tag_133\n      jumpi\n      0x00\n      dup1\n      revert\n    tag_133:\n      pop\n      tag_134\n      tag_135\n      jump\t// in\n    tag_134:\n      mload(0x40)\n      tag_136\n      swap2\n      swap1\n      tag_72\n      jump\t// in\n    tag_136:\n      mload(0x40)\n      dup1\n      swap2\n      sub\n      swap1\n      return\n        /* \"@openzeppelin/contracts/access/Ownable.sol\":2081:2279  function transferOwnership(address newOwner) public virtual onlyOwner {... */\n    tag_28:\n      callvalue\n      dup1\n      iszero\n      tag_137\n      jumpi\n      0x00\n      dup1\n      revert\n    tag_137:\n      pop\n      tag_138\n      0x04\n      dup1\n      calldatasize\n      sub\n      dup2\n      add\n      swap1\n      tag_139\n      swap2\n      swap1\n      tag_56\n      jump\t// in\n    tag_139:\n      tag_140\n      jump\t// in\n    tag_138:\n      stop\n        /* \"TokenMinter.sol\":10173:10321  function mintRares(address toAddr, uint256 numToMint) external  whenNotPaused  payable {... */\n    tag_29:\n      tag_141\n      0x04\n      dup1\n      calldatasize\n      sub\n      dup2\n      add\n      swap1\n      tag_142\n      swap2\n      swap1\n      tag_48\n      jump\t// in\n    tag_142:\n      tag_143\n      jump\t// in\n    tag_141:\n      stop\n        /* \"TokenMinter.sol\":1052:1091  Counters.Counter public _heroNFTsMinted */\n    tag_39:\n      0x06\n      dup1\n      0x00\n      add\n      sload\n      swap1\n      pop\n      dup2\n      jump\t// out\n        /* \"TokenMinter.sol\":1097:1138  Counters.Counter public _legendNFTsMinted */\n    tag_44:\n      0x07\n      dup1\n      0x00\n      add\n      sload\n      swap1\n      pop\n      dup2\n      jump\t// out\n        /* \"TokenMinter.sol\":9876:10027  function mintLegends(address toAddr, uint256 numToMint) external whenNotPaused  payable {... */\n    tag_49:\n        /* \"@openzeppelin/contracts/security/Pausable.sol\":1239:1258  _requireNotPaused() */\n      tag_145\n        /* \"@openzeppelin/contracts/security/Pausable.sol\":1239:1256  _requireNotPaused */\n      tag_146\n        /* \"@openzeppelin/contracts/security/Pausable.sol\":1239:1258  _requireNotPaused() */\n      jump\t// in\n    tag_145:\n        /* \"TokenMinter.sol\":9974:10020  _mintNFTs(toAddr, numToMint, NFT_CLASS.LEGEND) */\n      tag_148\n        /* \"TokenMinter.sol\":9984:9990  toAddr */\n      dup3\n        /* \"TokenMinter.sol\":9992:10001  numToMint */\n      dup3\n        /* \"TokenMinter.sol\":10003:10019  NFT_CLASS.LEGEND */\n      0x01\n        /* \"TokenMinter.sol\":9974:9983  _mintNFTs */\n      tag_149\n        /* \"TokenMinter.sol\":9974:10020  _mintNFTs(toAddr, numToMint, NFT_CLASS.LEGEND) */\n      jump\t// in\n    tag_148:\n      pop\n        /* \"TokenMinter.sol\":9876:10027  function mintLegends(address toAddr, uint256 numToMint) external whenNotPaused  payable {... */\n      pop\n      pop\n      jump\t// out\n        /* \"TokenMinter.sol\":3631:4605  function unlock2ndPublicRound() external  whenNotPaused nonReentrant {... */\n    tag_52:\n        /* \"@openzeppelin/contracts/security/Pausable.sol\":1239:1258  _requireNotPaused() */\n      tag_151\n        /* \"@openzeppelin/contracts/security/Pausable.sol\":1239:1256  _requireNotPaused */\n      tag_146\n        /* \"@openzeppelin/contracts/security/Pausable.sol\":1239:1258  _requireNotPaused() */\n      jump\t// in\n    tag_151:\n        /* \"@openzeppelin/contracts/security/ReentrancyGuard.sol\":2261:2282  _nonReentrantBefore() */\n      tag_153\n        /* \"@openzeppelin/contracts/security/ReentrancyGuard.sol\":2261:2280  _nonReentrantBefore */\n      tag_154\n        /* \"@openzeppelin/contracts/security/ReentrancyGuard.sol\":2261:2282  _nonReentrantBefore() */\n      jump\t// in\n    tag_153:\n        /* \"TokenMinter.sol\":3718:3738  _authorizedContracts */\n      0x05\n        /* \"TokenMinter.sol\":3718:3750  _authorizedContracts[msg.sender] */\n      0x00\n        /* \"TokenMinter.sol\":3739:3749  msg.sender */\n      caller\n        /* \"TokenMinter.sol\":3718:3750  _authorizedContracts[msg.sender] */\n      0xffffffffffffffffffffffffffffffffffffffff\n      and\n      0xffffffffffffffffffffffffffffffffffffffff\n      and\n      dup2\n      mstore\n      0x20\n      add\n      swap1\n      dup2\n      mstore\n      0x20\n      add\n      0x00\n      keccak256\n      0x00\n      swap1\n      sload\n      swap1\n      0x0100\n      exp\n      swap1\n      div\n      0xff\n      and\n        /* \"TokenMinter.sol\":3710:3762  require(_authorizedContracts[msg.sender], \"No Auth\") */\n      tag_156\n      jumpi\n      mload(0x40)\n      0x08c379a000000000000000000000000000000000000000000000000000000000\n      dup2\n      mstore\n      0x04\n      add\n      tag_157\n      swap1\n      tag_158\n      jump\t// in\n    tag_157:\n      mload(0x40)\n      dup1\n      swap2\n      sub\n      swap1\n      revert\n    tag_156:\n        /* \"TokenMinter.sol\":3781:3806  _is2ndPublicRoundUnlocked */\n      0x0b\n      0x02\n      swap1\n      sload\n      swap1\n      0x0100\n      exp\n      swap1\n      div\n      0xff\n      and\n        /* \"TokenMinter.sol\":3780:3806  !_is2ndPublicRoundUnlocked */\n      iszero\n        /* \"TokenMinter.sol\":3772:3827  require(!_is2ndPublicRoundUnlocked, \"Already unlocked\") */\n      tag_159\n      jumpi\n      mload(0x40)\n      0x08c379a000000000000000000000000000000000000000000000000000000000\n      dup2\n      mstore\n      0x04\n      add\n      tag_160\n      swap1\n      tag_161\n      jump\t// in\n    tag_160:\n      mload(0x40)\n      dup1\n      swap2\n      sub\n      swap1\n      revert\n    tag_159:\n        /* \"TokenMinter.sol\":3897:3912  _areHerosMinted */\n      0x0b\n      0x00\n      swap1\n      sload\n      swap1\n      0x0100\n      exp\n      swap1\n      div\n      0xff\n      and\n        /* \"TokenMinter.sol\":3889:3933  require(_areHerosMinted, \"Heros not minted\") */\n      tag_162\n      jumpi\n      mload(0x40)\n      0x08c379a000000000000000000000000000000000000000000000000000000000\n      dup2\n      mstore\n      0x04\n      add\n      tag_163\n      swap1\n      tag_164\n      jump\t// in\n    tag_163:\n      mload(0x40)\n      dup1\n      swap2\n      sub\n      swap1\n      revert\n    tag_162:\n        /* \"TokenMinter.sol\":3951:3976  _is1stPublicRoundUnlocked */\n      0x0b\n      0x01\n      swap1\n      sload\n      swap1\n      0x0100\n      exp\n      swap1\n      div\n      0xff\n      and\n        /* \"TokenMinter.sol\":3951:4052  _is1stPublicRoundUnlocked && uint16(_legendNFTsMinted.current()) < DoAConstants.LEGEND_NFT_SUPPLY_1st */\n      dup1\n      iszero\n      tag_165\n      jumpi\n      pop\n        /* \"DoAConstants.sol\":881:882  1 */\n      0x01\n        /* \"TokenMinter.sol\":3980:4052  uint16(_legendNFTsMinted.current()) < DoAConstants.LEGEND_NFT_SUPPLY_1st */\n      0xffff\n      and\n        /* \"TokenMinter.sol\":3987:4014  _legendNFTsMinted.current() */\n      tag_166\n        /* \"TokenMinter.sol\":3987:4004  _legendNFTsMinted */\n      0x07\n        /* \"TokenMinter.sol\":3987:4012  _legendNFTsMinted.current */\n      tag_167\n        /* \"TokenMinter.sol\":3987:4014  _legendNFTsMinted.current() */\n      jump\t// in\n    tag_166:\n        /* \"TokenMinter.sol\":3980:4052  uint16(_legendNFTsMinted.current()) < DoAConstants.LEGEND_NFT_SUPPLY_1st */\n      0xffff\n      and\n      lt\n        /* \"TokenMinter.sol\":3951:4052  _is1stPublicRoundUnlocked && uint16(_legendNFTsMinted.current()) < DoAConstants.LEGEND_NFT_SUPPLY_1st */\n    tag_165:\n        /* \"TokenMinter.sol\":3943:4073  require(_is1stPublicRoundUnlocked && uint16(_legendNFTsMinted.current()) < DoAConstants.LEGEND_NFT_SUPPLY_1st, \"Unminted legends\") */\n      tag_168\n      jumpi\n      mload(0x40)\n      0x08c379a000000000000000000000000000000000000000000000000000000000\n      dup2\n      mstore\n      0x04\n      add\n      tag_169\n      swap1\n      tag_170\n      jump\t// in\n    tag_169:\n      mload(0x40)\n      dup1\n      swap2\n      sub\n      swap1\n      revert\n    tag_168:\n        /* \"TokenMinter.sol\":4091:4116  _is1stPublicRoundUnlocked */\n      0x0b\n      0x01\n      swap1\n      sload\n      swap1\n      0x0100\n      exp\n      swap1\n      div\n      0xff\n      and\n        /* \"TokenMinter.sol\":4091:4188  _is1stPublicRoundUnlocked && uint16(_rareNFTsMinted.current()) < DoAConstants.RARE_NFT_SUPPLY_1st */\n      dup1\n      iszero\n      tag_171\n      jumpi\n      pop\n        /* \"DoAConstants.sol\":933:934  5 */\n      0x05\n        /* \"TokenMinter.sol\":4120:4188  uint16(_rareNFTsMinted.current()) < DoAConstants.RARE_NFT_SUPPLY_1st */\n      0xffff\n      and\n        /* \"TokenMinter.sol\":4127:4152  _rareNFTsMinted.current() */\n      tag_172\n        /* \"TokenMinter.sol\":4127:4142  _rareNFTsMinted */\n      0x08\n        /* \"TokenMinter.sol\":4127:4150  _rareNFTsMinted.current */\n      tag_167\n        /* \"TokenMinter.sol\":4127:4152  _rareNFTsMinted.current() */\n      jump\t// in\n    tag_172:\n        /* \"TokenMinter.sol\":4120:4188  uint16(_rareNFTsMinted.current()) < DoAConstants.RARE_NFT_SUPPLY_1st */\n      0xffff\n      and\n      lt\n        /* \"TokenMinter.sol\":4091:4188  _is1stPublicRoundUnlocked && uint16(_rareNFTsMinted.current()) < DoAConstants.RARE_NFT_SUPPLY_1st */\n    tag_171:\n        /* \"TokenMinter.sol\":4083:4207  require(_is1stPublicRoundUnlocked && uint16(_rareNFTsMinted.current()) < DoAConstants.RARE_NFT_SUPPLY_1st, \"Unminted rares\") */\n      tag_173\n      jumpi\n      mload(0x40)\n      0x08c379a000000000000000000000000000000000000000000000000000000000\n      dup2\n      mstore\n      0x04\n      add\n      tag_174\n      swap1\n      tag_175\n      jump\t// in\n    tag_174:\n      mload(0x40)\n      dup1\n      swap2\n      sub\n      swap1\n      revert\n    tag_173:\n        /* \"TokenMinter.sol\":4225:4250  _is1stPublicRoundUnlocked */\n      0x0b\n      0x01\n      swap1\n      sload\n      swap1\n      0x0100\n      exp\n      swap1\n      div\n      0xff\n      and\n        /* \"TokenMinter.sol\":4225:4330  _is1stPublicRoundUnlocked && uint16(_uncommonNFTsMinted.current()) < DoAConstants.UNCOMMON_NFT_SUPPLY_1st */\n      dup1\n      iszero\n      tag_176\n      jumpi\n      pop\n        /* \"DoAConstants.sol\":989:991  25 */\n      0x19\n        /* \"TokenMinter.sol\":4254:4330  uint16(_uncommonNFTsMinted.current()) < DoAConstants.UNCOMMON_NFT_SUPPLY_1st */\n      0xffff\n      and\n        /* \"TokenMinter.sol\":4261:4290  _uncommonNFTsMinted.current() */\n      tag_177\n        /* \"TokenMinter.sol\":4261:4280  _uncommonNFTsMinted */\n      0x09\n        /* \"TokenMinter.sol\":4261:4288  _uncommonNFTsMinted.current */\n      tag_167\n        /* \"TokenMinter.sol\":4261:4290  _uncommonNFTsMinted.current() */\n      jump\t// in\n    tag_177:\n        /* \"TokenMinter.sol\":4254:4330  uint16(_uncommonNFTsMinted.current()) < DoAConstants.UNCOMMON_NFT_SUPPLY_1st */\n      0xffff\n      and\n      lt\n        /* \"TokenMinter.sol\":4225:4330  _is1stPublicRoundUnlocked && uint16(_uncommonNFTsMinted.current()) < DoAConstants.UNCOMMON_NFT_SUPPLY_1st */\n    tag_176:\n        /* \"TokenMinter.sol\":4217:4353  require(_is1stPublicRoundUnlocked && uint16(_uncommonNFTsMinted.current()) < DoAConstants.UNCOMMON_NFT_SUPPLY_1st, \"Unminted uncommons\") */\n      tag_178\n      jumpi\n      mload(0x40)\n      0x08c379a000000000000000000000000000000000000000000000000000000000\n      dup2\n      mstore\n      0x04\n      add\n      tag_179\n      swap1\n      tag_180\n      jump\t// in\n    tag_179:\n      mload(0x40)\n      dup1\n      swap2\n      sub\n      swap1\n      revert\n    tag_178:\n        /* \"TokenMinter.sol\":4371:4396  _is1stPublicRoundUnlocked */\n      0x0b\n      0x01\n      swap1\n      sload\n      swap1\n      0x0100\n      exp\n      swap1\n      div\n      0xff\n      and\n        /* \"TokenMinter.sol\":4371:4471  _is1stPublicRoundUnlocked && uint16(_commonNFTsMinted.current())< DoAConstants.COMMON_NFT_SUPPLY_1st */\n      dup1\n      iszero\n      tag_181\n      jumpi\n      pop\n        /* \"DoAConstants.sol\":1044:1047  125 */\n      0x7d\n        /* \"TokenMinter.sol\":4400:4471  uint16(_commonNFTsMinted.current())< DoAConstants.COMMON_NFT_SUPPLY_1st */\n      0xffff\n      and\n        /* \"TokenMinter.sol\":4407:4434  _commonNFTsMinted.current() */\n      tag_182\n        /* \"TokenMinter.sol\":4407:4424  _commonNFTsMinted */\n      0x0a\n        /* \"TokenMinter.sol\":4407:4432  _commonNFTsMinted.current */\n      tag_167\n        /* \"TokenMinter.sol\":4407:4434  _commonNFTsMinted.current() */\n      jump\t// in\n    tag_182:\n        /* \"TokenMinter.sol\":4400:4471  uint16(_commonNFTsMinted.current())< DoAConstants.COMMON_NFT_SUPPLY_1st */\n      0xffff\n      and\n      lt\n        /* \"TokenMinter.sol\":4371:4471  _is1stPublicRoundUnlocked && uint16(_commonNFTsMinted.current())< DoAConstants.COMMON_NFT_SUPPLY_1st */\n    tag_181:\n        /* \"TokenMinter.sol\":4363:4492  require(_is1stPublicRoundUnlocked && uint16(_commonNFTsMinted.current())< DoAConstants.COMMON_NFT_SUPPLY_1st, \"Unminted commons\") */\n      tag_183\n      jumpi\n      mload(0x40)\n      0x08c379a000000000000000000000000000000000000000000000000000000000\n      dup2\n      mstore\n      0x04\n      add\n      tag_184\n      swap1\n      tag_185\n      jump\t// in\n    tag_184:\n      mload(0x40)\n      dup1\n      swap2\n      sub\n      swap1\n      revert\n    tag_183:\n        /* \"TokenMinter.sol\":4531:4535  true */\n      0x01\n        /* \"TokenMinter.sol\":4503:4528  _is2ndPublicRoundUnlocked */\n      0x0b\n      0x02\n        /* \"TokenMinter.sol\":4503:4535  _is2ndPublicRoundUnlocked = true */\n      0x0100\n      exp\n      dup2\n      sload\n      dup2\n      0xff\n      mul\n      not\n      and\n      swap1\n      dup4\n      iszero\n      iszero\n      mul\n      or\n      swap1\n      sstore\n      pop\n        /* \"TokenMinter.sol\":4573:4578  false */\n      0x00\n        /* \"TokenMinter.sol\":4545:4570  _is1stPublicRoundUnlocked */\n      0x0b\n      0x01\n        /* \"TokenMinter.sol\":4545:4578  _is1stPublicRoundUnlocked = false */\n      0x0100\n      exp\n      dup2\n      sload\n      dup2\n      0xff\n      mul\n      not\n      and\n      swap1\n      dup4\n      iszero\n      iszero\n      mul\n      or\n      swap1\n      sstore\n      pop\n        /* \"@openzeppelin/contracts/security/ReentrancyGuard.sol\":2303:2323  _nonReentrantAfter() */\n      tag_186\n        /* \"@openzeppelin/contracts/security/ReentrancyGuard.sol\":2303:2321  _nonReentrantAfter */\n      tag_187\n        /* \"@openzeppelin/contracts/security/ReentrancyGuard.sol\":2303:2323  _nonReentrantAfter() */\n      jump\t// in\n    tag_186:\n        /* \"TokenMinter.sol\":3631:4605  function unlock2ndPublicRound() external  whenNotPaused nonReentrant {... */\n      jump\t// out\n        /* \"TokenMinter.sol\":4631:5019  function mintHeros(address toAddr) external  whenNotPaused nonReentrant {... */\n    tag_57:\n        /* \"@openzeppelin/contracts/security/Pausable.sol\":1239:1258  _requireNotPaused() */\n      tag_189\n        /* \"@openzeppelin/contracts/security/Pausable.sol\":1239:1256  _requireNotPaused */\n      tag_146\n        /* \"@openzeppelin/contracts/security/Pausable.sol\":1239:1258  _requireNotPaused() */\n      jump\t// in\n    tag_189:\n        /* \"@openzeppelin/contracts/security/ReentrancyGuard.sol\":2261:2282  _nonReentrantBefore() */\n      tag_191\n        /* \"@openzeppelin/contracts/security/ReentrancyGuard.sol\":2261:2280  _nonReentrantBefore */\n      tag_154\n        /* \"@openzeppelin/contracts/security/ReentrancyGuard.sol\":2261:2282  _nonReentrantBefore() */\n      jump\t// in\n    tag_191:\n        /* \"TokenMinter.sol\":4721:4741  _authorizedContracts */\n      0x05\n        /* \"TokenMinter.sol\":4721:4753  _authorizedContracts[msg.sender] */\n      0x00\n        /* \"TokenMinter.sol\":4742:4752  msg.sender */\n      caller\n        /* \"TokenMinter.sol\":4721:4753  _authorizedContracts[msg.sender] */\n      0xffffffffffffffffffffffffffffffffffffffff\n      and\n      0xffffffffffffffffffffffffffffffffffffffff\n      and\n      dup2\n      mstore\n      0x20\n      add\n      swap1\n      dup2\n      mstore\n      0x20\n      add\n      0x00\n      keccak256\n      0x00\n      swap1\n      sload\n      swap1\n      0x0100\n      exp\n      swap1\n      div\n      0xff\n      and\n        /* \"TokenMinter.sol\":4713:4765  require(_authorizedContracts[msg.sender], \"No Auth\") */\n      tag_193\n      jumpi\n      mload(0x40)\n      0x08c379a000000000000000000000000000000000000000000000000000000000\n      dup2\n      mstore\n      0x04\n      add\n      tag_194\n      swap1\n      tag_158\n      jump\t// in\n    tag_194:\n      mload(0x40)\n      dup1\n      swap2\n      sub\n      swap1\n      revert\n    tag_193:\n        /* \"TokenMinter.sol\":4784:4799  _areHerosMinted */\n      0x0b\n      0x00\n      swap1\n      sload\n      swap1\n      0x0100\n      exp\n      swap1\n      div\n      0xff\n      and\n        /* \"TokenMinter.sol\":4783:4799  !_areHerosMinted */\n      iszero\n        /* \"TokenMinter.sol\":4775:4818  require(!_areHerosMinted, \"Already minted\") */\n      tag_195\n      jumpi\n      mload(0x40)\n      0x08c379a000000000000000000000000000000000000000000000000000000000\n      dup2\n      mstore\n      0x04\n      add\n      tag_196\n      swap1\n      tag_197\n      jump\t// in\n    tag_196:\n      mload(0x40)\n      dup1\n      swap2\n      sub\n      swap1\n      revert\n    tag_195:\n        /* \"TokenMinter.sol\":4829:4846  uint256 numMinted */\n      0x00\n        /* \"TokenMinter.sol\":4849:4916  _mintNFTs(toAddr, DoAConstants.HERO_NFT_SUPPLY_1st, NFT_CLASS.HERO) */\n      tag_198\n        /* \"TokenMinter.sol\":4859:4865  toAddr */\n      dup3\n        /* \"DoAConstants.sol\":826:828  25 */\n      0x19\n        /* \"TokenMinter.sol\":4849:4916  _mintNFTs(toAddr, DoAConstants.HERO_NFT_SUPPLY_1st, NFT_CLASS.HERO) */\n      0xffff\n      and\n        /* \"TokenMinter.sol\":4901:4915  NFT_CLASS.HERO */\n      0x00\n        /* \"TokenMinter.sol\":4849:4858  _mintNFTs */\n      tag_149\n        /* \"TokenMinter.sol\":4849:4916  _mintNFTs(toAddr, DoAConstants.HERO_NFT_SUPPLY_1st, NFT_CLASS.HERO) */\n      jump\t// in\n    tag_198:\n        /* \"TokenMinter.sol\":4829:4916  uint256 numMinted = _mintNFTs(toAddr, DoAConstants.HERO_NFT_SUPPLY_1st, NFT_CLASS.HERO) */\n      swap1\n      pop\n        /* \"DoAConstants.sol\":826:828  25 */\n      0x19\n        /* \"TokenMinter.sol\":4930:4975  numMinted == DoAConstants.HERO_NFT_SUPPLY_1st */\n      0xffff\n      and\n        /* \"TokenMinter.sol\":4930:4939  numMinted */\n      dup2\n        /* \"TokenMinter.sol\":4930:4975  numMinted == DoAConstants.HERO_NFT_SUPPLY_1st */\n      sub\n        /* \"TokenMinter.sol\":4927:5011  if(numMinted == DoAConstants.HERO_NFT_SUPPLY_1st)... */\n      tag_199\n      jumpi\n        /* \"TokenMinter.sol\":5007:5011  true */\n      0x01\n        /* \"TokenMinter.sol\":4989:5004  _areHerosMinted */\n      0x0b\n      0x00\n        /* \"TokenMinter.sol\":4989:5011  _areHerosMinted = true */\n      0x0100\n      exp\n      dup2\n      sload\n      dup2\n      0xff\n      mul\n      not\n      and\n      swap1\n      dup4\n      iszero\n      iszero\n      mul\n      or\n      swap1\n      sstore\n      pop\n        /* \"TokenMinter.sol\":4927:5011  if(numMinted == DoAConstants.HERO_NFT_SUPPLY_1st)... */\n    tag_199:\n        /* \"TokenMinter.sol\":4703:5019  {... */\n      pop\n        /* \"@openzeppelin/contracts/security/ReentrancyGuard.sol\":2303:2323  _nonReentrantAfter() */\n      tag_200\n        /* \"@openzeppelin/contracts/security/ReentrancyGuard.sol\":2303:2321  _nonReentrantAfter */\n      tag_187\n        /* \"@openzeppelin/contracts/security/ReentrancyGuard.sol\":2303:2323  _nonReentrantAfter() */\n      jump\t// in\n    tag_200:\n        /* \"TokenMinter.sol\":4631:5019  function mintHeros(address toAddr) external  whenNotPaused nonReentrant {... */\n      pop\n      jump\t// out\n        /* \"TokenMinter.sol\":1144:1183  Counters.Counter public _rareNFTsMinted */\n    tag_60:\n      0x08\n      dup1\n      0x00\n      add\n      sload\n      swap1\n      pop\n      dup2\n      jump\t// out\n        /* \"TokenMinter.sol\":3042:3105  function unpause() public onlyOwner {... */\n    tag_64:\n        /* \"@openzeppelin/contracts/access/Ownable.sol\":1094:1107  _checkOwner() */\n      tag_202\n        /* \"@openzeppelin/contracts/access/Ownable.sol\":1094:1105  _checkOwner */\n      tag_203\n        /* \"@openzeppelin/contracts/access/Ownable.sol\":1094:1107  _checkOwner() */\n      jump\t// in\n    tag_202:\n        /* \"TokenMinter.sol\":3088:3098  _unpause() */\n      tag_205\n        /* \"TokenMinter.sol\":3088:3096  _unpause */\n      tag_206\n        /* \"TokenMinter.sol\":3088:3098  _unpause() */\n      jump\t// in\n    tag_205:\n        /* \"TokenMinter.sol\":3042:3105  function unpause() public onlyOwner {... */\n      jump\t// out\n        /* \"TokenMinter.sol\":10615:10743  function mintUncommon(address toAddr) external  whenNotPaused  payable {... */\n    tag_67:\n        /* \"@openzeppelin/contracts/security/Pausable.sol\":1239:1258  _requireNotPaused() */\n      tag_208\n        /* \"@openzeppelin/contracts/security/Pausable.sol\":1239:1256  _requireNotPaused */\n      tag_146\n        /* \"@openzeppelin/contracts/security/Pausable.sol\":1239:1258  _requireNotPaused() */\n      jump\t// in\n    tag_208:\n        /* \"TokenMinter.sol\":10696:10736  _mintNFTs(toAddr, 1, NFT_CLASS.UNCOMMON) */\n      tag_210\n        /* \"TokenMinter.sol\":10706:10712  toAddr */\n      dup2\n        /* \"TokenMinter.sol\":10714:10715  1 */\n      0x01\n        /* \"TokenMinter.sol\":10717:10735  NFT_CLASS.UNCOMMON */\n      0x03\n        /* \"TokenMinter.sol\":10696:10705  _mintNFTs */\n      tag_149\n        /* \"TokenMinter.sol\":10696:10736  _mintNFTs(toAddr, 1, NFT_CLASS.UNCOMMON) */\n      jump\t// in\n    tag_210:\n      pop\n        /* \"TokenMinter.sol\":10615:10743  function mintUncommon(address toAddr) external  whenNotPaused  payable {... */\n      pop\n      jump\t// out\n        /* \"@openzeppelin/contracts/security/Pausable.sol\":1615:1699  function paused() public view virtual returns (bool) {... */\n    tag_70:\n        /* \"@openzeppelin/contracts/security/Pausable.sol\":1662:1666  bool */\n      0x00\n        /* \"@openzeppelin/contracts/security/Pausable.sol\":1685:1692  _paused */\n      dup1\n      0x14\n      swap1\n      sload\n      swap1\n      0x0100\n      exp\n      swap1\n      div\n      0xff\n      and\n        /* \"@openzeppelin/contracts/security/Pausable.sol\":1678:1692  return _paused */\n      swap1\n      pop\n        /* \"@openzeppelin/contracts/security/Pausable.sol\":1615:1699  function paused() public view virtual returns (bool) {... */\n      swap1\n      jump\t// out\n        /* \"TokenMinter.sol\":1428:1465  bool public _is3rdPublicRoundUnlocked */\n    tag_75:\n      0x0b\n      0x03\n      swap1\n      sload\n      swap1\n      0x0100\n      exp\n      swap1\n      div\n      0xff\n      and\n      dup2\n      jump\t// out\n        /* \"TokenMinter.sol\":1238:1279  Counters.Counter public _commonNFTsMinted */\n    tag_79:\n      0x0a\n      dup1\n      0x00\n      add\n      sload\n      swap1\n      pop\n      dup2\n      jump\t// out\n        /* \"@openzeppelin/contracts/access/Ownable.sol\":1831:1932  function renounceOwnership() public virtual onlyOwner {... */\n    tag_83:\n        /* \"@openzeppelin/contracts/access/Ownable.sol\":1094:1107  _checkOwner() */\n      tag_213\n        /* \"@openzeppelin/contracts/access/Ownable.sol\":1094:1105  _checkOwner */\n      tag_203\n        /* \"@openzeppelin/contracts/access/Ownable.sol\":1094:1107  _checkOwner() */\n      jump\t// in\n    tag_213:\n        /* \"@openzeppelin/contracts/access/Ownable.sol\":1895:1925  _transferOwnership(address(0)) */\n      tag_215\n        /* \"@openzeppelin/contracts/access/Ownable.sol\":1922:1923  0 */\n      0x00\n        /* \"@openzeppelin/contracts/access/Ownable.sol\":1895:1913  _transferOwnership */\n      tag_216\n        /* \"@openzeppelin/contracts/access/Ownable.sol\":1895:1925  _transferOwnership(address(0)) */\n      jump\t// in\n    tag_215:\n        /* \"@openzeppelin/contracts/access/Ownable.sol\":1831:1932  function renounceOwnership() public virtual onlyOwner {... */\n      jump\t// out\n        /* \"TokenMinter.sol\":3323:3624  function unlock1stPublicRound() external  whenNotPaused nonReentrant {... */\n    tag_86:\n        /* \"@openzeppelin/contracts/security/Pausable.sol\":1239:1258  _requireNotPaused() */\n      tag_218\n        /* \"@openzeppelin/contracts/security/Pausable.sol\":1239:1256  _requireNotPaused */\n      tag_146\n        /* \"@openzeppelin/contracts/security/Pausable.sol\":1239:1258  _requireNotPaused() */\n      jump\t// in\n    tag_218:\n        /* \"@openzeppelin/contracts/security/ReentrancyGuard.sol\":2261:2282  _nonReentrantBefore() */\n      tag_220\n        /* \"@openzeppelin/contracts/security/ReentrancyGuard.sol\":2261:2280  _nonReentrantBefore */\n      tag_154\n        /* \"@openzeppelin/contracts/security/ReentrancyGuard.sol\":2261:2282  _nonReentrantBefore() */\n      jump\t// in\n    tag_220:\n        /* \"TokenMinter.sol\":3410:3430  _authorizedContracts */\n      0x05\n        /* \"TokenMinter.sol\":3410:3442  _authorizedContracts[msg.sender] */\n      0x00\n        /* \"TokenMinter.sol\":3431:3441  msg.sender */\n      caller\n        /* \"TokenMinter.sol\":3410:3442  _authorizedContracts[msg.sender] */\n      0xffffffffffffffffffffffffffffffffffffffff\n      and\n      0xffffffffffffffffffffffffffffffffffffffff\n      and\n      dup2\n      mstore\n      0x20\n      add\n      swap1\n      dup2\n      mstore\n      0x20\n      add\n      0x00\n      keccak256\n      0x00\n      swap1\n      sload\n      swap1\n      0x0100\n      exp\n      swap1\n      div\n      0xff\n      and\n        /* \"TokenMinter.sol\":3402:3454  require(_authorizedContracts[msg.sender], \"No Auth\") */\n      tag_222\n      jumpi\n      mload(0x40)\n      0x08c379a000000000000000000000000000000000000000000000000000000000\n      dup2\n      mstore\n      0x04\n      add\n      tag_223\n      swap1\n      tag_158\n      jump\t// in\n    tag_223:\n      mload(0x40)\n      dup1\n      swap2\n      sub\n      swap1\n      revert\n    tag_222:\n        /* \"TokenMinter.sol\":3473:3498  _is1stPublicRoundUnlocked */\n      0x0b\n      0x01\n      swap1\n      sload\n      swap1\n      0x0100\n      exp\n      swap1\n      div\n      0xff\n      and\n        /* \"TokenMinter.sol\":3472:3498  !_is1stPublicRoundUnlocked */\n      iszero\n        /* \"TokenMinter.sol\":3464:3519  require(!_is1stPublicRoundUnlocked, \"Already unlocked\") */\n      tag_224\n      jumpi\n      mload(0x40)\n      0x08c379a000000000000000000000000000000000000000000000000000000000\n      dup2\n      mstore\n      0x04\n      add\n      tag_225\n      swap1\n      tag_161\n      jump\t// in\n    tag_225:\n      mload(0x40)\n      dup1\n      swap2\n      sub\n      swap1\n      revert\n    tag_224:\n        /* \"TokenMinter.sol\":3538:3553  _areHerosMinted */\n      0x0b\n      0x00\n      swap1\n      sload\n      swap1\n      0x0100\n      exp\n      swap1\n      div\n      0xff\n      and\n        /* \"TokenMinter.sol\":3530:3574  require(_areHerosMinted, \"Heros not minted\") */\n      tag_226\n      jumpi\n      mload(0x40)\n      0x08c379a000000000000000000000000000000000000000000000000000000000\n      dup2\n      mstore\n      0x04\n      add\n      tag_227\n      swap1\n      tag_164\n      jump\t// in\n    tag_227:\n      mload(0x40)\n      dup1\n      swap2\n      sub\n      swap1\n      revert\n    tag_226:\n        /* \"TokenMinter.sol\":3613:3617  true */\n      0x01\n        /* \"TokenMinter.sol\":3585:3610  _is1stPublicRoundUnlocked */\n      0x0b\n      0x01\n        /* \"TokenMinter.sol\":3585:3617  _is1stPublicRoundUnlocked = true */\n      0x0100\n      exp\n      dup2\n      sload\n      dup2\n      0xff\n      mul\n      not\n      and\n      swap1\n      dup4\n      iszero\n      iszero\n      mul\n      or\n      swap1\n      sstore\n      pop\n        /* \"@openzeppelin/contracts/security/ReentrancyGuard.sol\":2303:2323  _nonReentrantAfter() */\n      tag_228\n        /* \"@openzeppelin/contracts/security/ReentrancyGuard.sol\":2303:2321  _nonReentrantAfter */\n      tag_187\n        /* \"@openzeppelin/contracts/security/ReentrancyGuard.sol\":2303:2323  _nonReentrantAfter() */\n      jump\t// in\n    tag_228:\n        /* \"TokenMinter.sol\":3323:3624  function unlock1stPublicRound() external  whenNotPaused nonReentrant {... */\n      jump\t// out\n        /* \"TokenMinter.sol\":2977:3036  function pause() public onlyOwner {... */\n    tag_89:\n        /* \"@openzeppelin/contracts/access/Ownable.sol\":1094:1107  _checkOwner() */\n      tag_230\n        /* \"@openzeppelin/contracts/access/Ownable.sol\":1094:1105  _checkOwner */\n      tag_203\n        /* \"@openzeppelin/contracts/access/Ownable.sol\":1094:1107  _checkOwner() */\n      jump\t// in\n    tag_230:\n        /* \"TokenMinter.sol\":3021:3029  _pause() */\n      tag_232\n        /* \"TokenMinter.sol\":3021:3027  _pause */\n      tag_233\n        /* \"TokenMinter.sol\":3021:3029  _pause() */\n      jump\t// in\n    tag_232:\n        /* \"TokenMinter.sol\":2977:3036  function pause() public onlyOwner {... */\n      jump\t// out\n        /* \"TokenMinter.sol\":10327:10447  function mintRare(address toAddr) external  whenNotPaused  payable {... */\n    tag_92:\n        /* \"@openzeppelin/contracts/security/Pausable.sol\":1239:1258  _requireNotPaused() */\n      tag_235\n        /* \"@openzeppelin/contracts/security/Pausable.sol\":1239:1256  _requireNotPaused */\n      tag_146\n        /* \"@openzeppelin/contracts/security/Pausable.sol\":1239:1258  _requireNotPaused() */\n      jump\t// in\n    tag_235:\n        /* \"TokenMinter.sol\":10404:10440  _mintNFTs(toAddr, 1, NFT_CLASS.RARE) */\n      tag_237\n        /* \"TokenMinter.sol\":10414:10420  toAddr */\n      dup2\n        /* \"TokenMinter.sol\":10422:10423  1 */\n      0x01\n        /* \"TokenMinter.sol\":10425:10439  NFT_CLASS.RARE */\n      0x02\n        /* \"TokenMinter.sol\":10404:10413  _mintNFTs */\n      tag_149\n        /* \"TokenMinter.sol\":10404:10440  _mintNFTs(toAddr, 1, NFT_CLASS.RARE) */\n      jump\t// in\n    tag_237:\n      pop\n        /* \"TokenMinter.sol\":10327:10447  function mintRare(address toAddr) external  whenNotPaused  payable {... */\n      pop\n      jump\t// out\n        /* \"@openzeppelin/contracts/access/Ownable.sol\":1201:1286  function owner() public view virtual returns (address) {... */\n    tag_95:\n        /* \"@openzeppelin/contracts/access/Ownable.sol\":1247:1254  address */\n      0x00\n        /* \"@openzeppelin/contracts/access/Ownable.sol\":1273:1279  _owner */\n      dup1\n      0x00\n      swap1\n      sload\n      swap1\n      0x0100\n      exp\n      swap1\n      div\n      0xffffffffffffffffffffffffffffffffffffffff\n      and\n        /* \"@openzeppelin/contracts/access/Ownable.sol\":1266:1279  return _owner */\n      swap1\n      pop\n        /* \"@openzeppelin/contracts/access/Ownable.sol\":1201:1286  function owner() public view virtual returns (address) {... */\n      swap1\n      jump\t// out\n        /* \"TokenMinter.sol\":1342:1379  bool public _is1stPublicRoundUnlocked */\n    tag_100:\n      0x0b\n      0x01\n      swap1\n      sload\n      swap1\n      0x0100\n      exp\n      swap1\n      div\n      0xff\n      and\n      dup2\n      jump\t// out\n        /* \"TokenMinter.sol\":2631:2765  function addAuthorizedContract(address contractAddress) public onlyOwner {... */\n    tag_105:\n        /* \"@openzeppelin/contracts/access/Ownable.sol\":1094:1107  _checkOwner() */\n      tag_240\n        /* \"@openzeppelin/contracts/access/Ownable.sol\":1094:1105  _checkOwner */\n      tag_203\n        /* \"@openzeppelin/contracts/access/Ownable.sol\":1094:1107  _checkOwner() */\n      jump\t// in\n    tag_240:\n        /* \"TokenMinter.sol\":2754:2758  true */\n      0x01\n        /* \"TokenMinter.sol\":2714:2734  _authorizedContracts */\n      0x05\n        /* \"TokenMinter.sol\":2714:2751  _authorizedContracts[contractAddress] */\n      0x00\n        /* \"TokenMinter.sol\":2735:2750  contractAddress */\n      dup4\n        /* \"TokenMinter.sol\":2714:2751  _authorizedContracts[contractAddress] */\n      0xffffffffffffffffffffffffffffffffffffffff\n      and\n      0xffffffffffffffffffffffffffffffffffffffff\n      and\n      dup2\n      mstore\n      0x20\n      add\n      swap1\n      dup2\n      mstore\n      0x20\n      add\n      0x00\n      keccak256\n      0x00\n        /* \"TokenMinter.sol\":2714:2758  _authorizedContracts[contractAddress] = true */\n      0x0100\n      exp\n      dup2\n      sload\n      dup2\n      0xff\n      mul\n      not\n      and\n      swap1\n      dup4\n      iszero\n      iszero\n      mul\n      or\n      swap1\n      sstore\n      pop\n        /* \"TokenMinter.sol\":2631:2765  function addAuthorizedContract(address contractAddress) public onlyOwner {... */\n      pop\n      jump\t// out\n        /* \"TokenMinter.sol\":1189:1232  Counters.Counter public _uncommonNFTsMinted */\n    tag_108:\n      0x09\n      dup1\n      0x00\n      add\n      sload\n      swap1\n      pop\n      dup2\n      jump\t// out\n        /* \"TokenMinter.sol\":10042:10166  function mintLegend(address toAddr) external  whenNotPaused  payable {... */\n    tag_112:\n        /* \"@openzeppelin/contracts/security/Pausable.sol\":1239:1258  _requireNotPaused() */\n      tag_243\n        /* \"@openzeppelin/contracts/security/Pausable.sol\":1239:1256  _requireNotPaused */\n      tag_146\n        /* \"@openzeppelin/contracts/security/Pausable.sol\":1239:1258  _requireNotPaused() */\n      jump\t// in\n    tag_243:\n        /* \"TokenMinter.sol\":10121:10159  _mintNFTs(toAddr, 1, NFT_CLASS.LEGEND) */\n      tag_245\n        /* \"TokenMinter.sol\":10131:10137  toAddr */\n      dup2\n        /* \"TokenMinter.sol\":10139:10140  1 */\n      0x01\n        /* \"TokenMinter.sol\":10142:10158  NFT_CLASS.LEGEND */\n      dup1\n        /* \"TokenMinter.sol\":10121:10130  _mintNFTs */\n      tag_149\n        /* \"TokenMinter.sol\":10121:10159  _mintNFTs(toAddr, 1, NFT_CLASS.LEGEND) */\n      jump\t// in\n    tag_245:\n      pop\n        /* \"TokenMinter.sol\":10042:10166  function mintLegend(address toAddr) external  whenNotPaused  payable {... */\n      pop\n      jump\t// out\n        /* \"TokenMinter.sol\":10749:10901  function mintCommons(address toAddr, uint256 numToMint) external  whenNotPaused  payable {... */\n    tag_115:\n        /* \"@openzeppelin/contracts/security/Pausable.sol\":1239:1258  _requireNotPaused() */\n      tag_247\n        /* \"@openzeppelin/contracts/security/Pausable.sol\":1239:1256  _requireNotPaused */\n      tag_146\n        /* \"@openzeppelin/contracts/security/Pausable.sol\":1239:1258  _requireNotPaused() */\n      jump\t// in\n    tag_247:\n        /* \"TokenMinter.sol\":10848:10894  _mintNFTs(toAddr, numToMint, NFT_CLASS.COMMON) */\n      tag_249\n        /* \"TokenMinter.sol\":10858:10864  toAddr */\n      dup3\n        /* \"TokenMinter.sol\":10866:10875  numToMint */\n      dup3\n        /* \"TokenMinter.sol\":10877:10893  NFT_CLASS.COMMON */\n      0x04\n        /* \"TokenMinter.sol\":10848:10857  _mintNFTs */\n      tag_149\n        /* \"TokenMinter.sol\":10848:10894  _mintNFTs(toAddr, numToMint, NFT_CLASS.COMMON) */\n      jump\t// in\n    tag_249:\n      pop\n        /* \"TokenMinter.sol\":10749:10901  function mintCommons(address toAddr, uint256 numToMint) external  whenNotPaused  payable {... */\n      pop\n      pop\n      jump\t// out\n        /* \"TokenMinter.sol\":1309:1336  bool public _areHerosMinted */\n    tag_118:\n      0x0b\n      0x00\n      swap1\n      sload\n      swap1\n      0x0100\n      exp\n      swap1\n      div\n      0xff\n      and\n      dup2\n      jump\t// out\n        /* \"TokenMinter.sol\":10907:11031  function mintCommon(address toAddr) external  whenNotPaused  payable {... */\n    tag_122:\n        /* \"@openzeppelin/contracts/security/Pausable.sol\":1239:1258  _requireNotPaused() */\n      tag_251\n        /* \"@openzeppelin/contracts/security/Pausable.sol\":1239:1256  _requireNotPaused */\n      tag_146\n        /* \"@openzeppelin/contracts/security/Pausable.sol\":1239:1258  _requireNotPaused() */\n      jump\t// in\n    tag_251:\n        /* \"TokenMinter.sol\":10986:11024  _mintNFTs(toAddr, 1, NFT_CLASS.COMMON) */\n      tag_253\n        /* \"TokenMinter.sol\":10996:11002  toAddr */\n      dup2\n        /* \"TokenMinter.sol\":11004:11005  1 */\n      0x01\n        /* \"TokenMinter.sol\":11007:11023  NFT_CLASS.COMMON */\n      0x04\n        /* \"TokenMinter.sol\":10986:10995  _mintNFTs */\n      tag_149\n        /* \"TokenMinter.sol\":10986:11024  _mintNFTs(toAddr, 1, NFT_CLASS.COMMON) */\n      jump\t// in\n    tag_253:\n      pop\n        /* \"TokenMinter.sol\":10907:11031  function mintCommon(address toAddr) external  whenNotPaused  payable {... */\n      pop\n      jump\t// out\n        /* \"TokenMinter.sol\":5026:8354  function getMintIndexRange(uint256 numToMint, NFT_CLASS classToMint) public view whenNotPaused returns (uint256 mintStartIndex, uint256 mintEndIndex) {... */\n    tag_127:\n        /* \"TokenMinter.sol\":5130:5152  uint256 mintStartIndex */\n      0x00\n        /* \"TokenMinter.sol\":5154:5174  uint256 mintEndIndex */\n      dup1\n        /* \"@openzeppelin/contracts/security/Pausable.sol\":1239:1258  _requireNotPaused() */\n      tag_255\n        /* \"@openzeppelin/contracts/security/Pausable.sol\":1239:1256  _requireNotPaused */\n      tag_146\n        /* \"@openzeppelin/contracts/security/Pausable.sol\":1239:1258  _requireNotPaused() */\n      jump\t// in\n    tag_255:\n        /* \"TokenMinter.sol\":5206:5207  0 */\n      0x00\n        /* \"TokenMinter.sol\":5194:5203  numToMint */\n      dup5\n        /* \"TokenMinter.sol\":5194:5207  numToMint > 0 */\n      gt\n        /* \"TokenMinter.sol\":5186:5223  require(numToMint > 0, \"numToMint 0\") */\n      tag_257\n      jumpi\n      mload(0x40)\n      0x08c379a000000000000000000000000000000000000000000000000000000000\n      dup2\n      mstore\n      0x04\n      add\n      tag_258\n      swap1\n      tag_259\n      jump\t// in\n    tag_258:\n      mload(0x40)\n      dup1\n      swap2\n      sub\n      swap1\n      revert\n    tag_257:\n        /* \"TokenMinter.sol\":5241:5256  _areHerosMinted */\n      0x0b\n      0x00\n      swap1\n      sload\n      swap1\n      0x0100\n      exp\n      swap1\n      div\n      0xff\n      and\n        /* \"TokenMinter.sol\":5233:5277  require(_areHerosMinted, \"Heros not minted\") */\n      tag_260\n      jumpi\n      mload(0x40)\n      0x08c379a000000000000000000000000000000000000000000000000000000000\n      dup2\n      mstore\n      0x04\n      add\n      tag_261\n      swap1\n      tag_164\n      jump\t// in\n    tag_261:\n      mload(0x40)\n      dup1\n      swap2\n      sub\n      swap1\n      revert\n    tag_260:\n        /* \"TokenMinter.sol\":5288:5307  uint16 currentCount */\n      0x00\n        /* \"TokenMinter.sol\":5317:5335  uint16 futureCount */\n      dup1\n        /* \"TokenMinter.sol\":5345:5371  uint256 classNFTSupply_1st */\n      0x00\n        /* \"TokenMinter.sol\":5381:5407  uint256 classNFTSupply_2nd */\n      dup1\n        /* \"TokenMinter.sol\":5417:5443  uint256 classNFTSupply_3rd */\n      0x00\n        /* \"TokenMinter.sol\":5520:5536  NFT_CLASS.LEGEND */\n      0x01\n        /* \"TokenMinter.sol\":5505:5536  classToMint == NFT_CLASS.LEGEND */\n      0x04\n      dup2\n      gt\n      iszero\n      tag_262\n      jumpi\n      tag_263\n      tag_264\n      jump\t// in\n    tag_263:\n    tag_262:\n        /* \"TokenMinter.sol\":5505:5516  classToMint */\n      dup9\n        /* \"TokenMinter.sol\":5505:5536  classToMint == NFT_CLASS.LEGEND */\n      0x04\n      dup2\n      gt\n      iszero\n      tag_265\n      jumpi\n      tag_266\n      tag_264\n      jump\t// in\n    tag_266:\n    tag_265:\n      sub\n        /* \"TokenMinter.sol\":5502:7883  if(classToMint == NFT_CLASS.LEGEND) {... */\n      tag_267\n      jumpi\n        /* \"TokenMinter.sol\":5578:5605  _legendNFTsMinted.current() */\n      tag_268\n        /* \"TokenMinter.sol\":5578:5595  _legendNFTsMinted */\n      0x07\n        /* \"TokenMinter.sol\":5578:5603  _legendNFTsMinted.current */\n      tag_167\n        /* \"TokenMinter.sol\":5578:5605  _legendNFTsMinted.current() */\n      jump\t// in\n    tag_268:\n        /* \"TokenMinter.sol\":5556:5606  currentCount = uint16(_legendNFTsMinted.current()) */\n      swap5\n      pop\n        /* \"TokenMinter.sol\":5660:5669  numToMint */\n      dup9\n        /* \"TokenMinter.sol\":5638:5650  currentCount */\n      dup6\n        /* \"TokenMinter.sol\":5638:5670  currentCount + uint16(numToMint) */\n      tag_269\n      swap2\n      swap1\n      tag_270\n      jump\t// in\n    tag_269:\n        /* \"TokenMinter.sol\":5624:5670  futureCount = currentCount + uint16(numToMint) */\n      swap4\n      pop\n        /* \"DoAConstants.sol\":881:882  1 */\n      0x01\n        /* \"TokenMinter.sol\":5689:5744  classNFTSupply_1st = DoAConstants.LEGEND_NFT_SUPPLY_1st */\n      0xffff\n      and\n      swap3\n      pop\n        /* \"DoAConstants.sol\":1187:1189  10 */\n      0x0a\n        /* \"TokenMinter.sol\":5762:5817  classNFTSupply_2nd = DoAConstants.LEGEND_NFT_SUPPLY_2nd */\n      0xffff\n      and\n      swap2\n      pop\n        /* \"DoAConstants.sol\":1497:1499  80 */\n      0x50\n        /* \"TokenMinter.sol\":5835:5890  classNFTSupply_3rd = DoAConstants.LEGEND_NFT_SUPPLY_3rd */\n      0xffff\n      and\n      swap1\n      pop\n        /* \"TokenMinter.sol\":5964:5976  currentCount */\n      dup5\n        /* \"DoAConstants.sol\":2208:2210  25 */\n      0x19\n        /* \"TokenMinter.sol\":5926:5976  DoAConstants.LEGEND_NFT_START_INDEX + currentCount */\n      tag_271\n      swap2\n      swap1\n      tag_270\n      jump\t// in\n    tag_271:\n        /* \"TokenMinter.sol\":5909:5976  mintStartIndex = DoAConstants.LEGEND_NFT_START_INDEX + currentCount */\n      0xffff\n      and\n      swap7\n      pop\n        /* \"TokenMinter.sol\":6061:6062  1 */\n      0x01\n        /* \"TokenMinter.sol\":6047:6058  futureCount */\n      dup5\n        /* \"DoAConstants.sol\":2208:2210  25 */\n      0x19\n        /* \"TokenMinter.sol\":6009:6058  DoAConstants.LEGEND_NFT_START_INDEX + futureCount */\n      tag_272\n      swap2\n      swap1\n      tag_270\n      jump\t// in\n    tag_272:\n        /* \"TokenMinter.sol\":6009:6062  DoAConstants.LEGEND_NFT_START_INDEX + futureCount - 1 */\n      tag_273\n      swap2\n      swap1\n      tag_274\n      jump\t// in\n    tag_273:\n        /* \"TokenMinter.sol\":5994:6062  mintEndIndex = DoAConstants.LEGEND_NFT_START_INDEX + futureCount - 1 */\n      0xffff\n      and\n      swap6\n      pop\n        /* \"TokenMinter.sol\":5502:7883  if(classToMint == NFT_CLASS.LEGEND) {... */\n      jump(tag_275)\n    tag_267:\n        /* \"TokenMinter.sol\":6105:6119  NFT_CLASS.RARE */\n      0x02\n        /* \"TokenMinter.sol\":6090:6119  classToMint == NFT_CLASS.RARE */\n      0x04\n      dup2\n      gt\n      iszero\n      tag_276\n      jumpi\n      tag_277\n      tag_264\n      jump\t// in\n    tag_277:\n    tag_276:\n        /* \"TokenMinter.sol\":6090:6101  classToMint */\n      dup9\n        /* \"TokenMinter.sol\":6090:6119  classToMint == NFT_CLASS.RARE */\n      0x04\n      dup2\n      gt\n      iszero\n      tag_278\n      jumpi\n      tag_279\n      tag_264\n      jump\t// in\n    tag_279:\n    tag_278:\n      sub\n        /* \"TokenMinter.sol\":6087:7883  if(classToMint == NFT_CLASS.RARE) {... */\n      tag_280\n      jumpi\n        /* \"TokenMinter.sol\":6161:6186  _rareNFTsMinted.current() */\n      tag_281\n        /* \"TokenMinter.sol\":6161:6176  _rareNFTsMinted */\n      0x08\n        /* \"TokenMinter.sol\":6161:6184  _rareNFTsMinted.current */\n      tag_167\n        /* \"TokenMinter.sol\":6161:6186  _rareNFTsMinted.current() */\n      jump\t// in\n    tag_281:\n        /* \"TokenMinter.sol\":6139:6187  currentCount = uint16(_rareNFTsMinted.current()) */\n      swap5\n      pop\n        /* \"TokenMinter.sol\":6241:6250  numToMint */\n      dup9\n        /* \"TokenMinter.sol\":6219:6231  currentCount */\n      dup6\n        /* \"TokenMinter.sol\":6219:6251  currentCount + uint16(numToMint) */\n      tag_282\n      swap2\n      swap1\n      tag_270\n      jump\t// in\n    tag_282:\n        /* \"TokenMinter.sol\":6205:6251  futureCount = currentCount + uint16(numToMint) */\n      swap4\n      pop\n        /* \"DoAConstants.sol\":933:934  5 */\n      0x05\n        /* \"TokenMinter.sol\":6270:6323  classNFTSupply_1st = DoAConstants.RARE_NFT_SUPPLY_1st */\n      0xffff\n      and\n      swap3\n      pop\n        /* \"DoAConstants.sol\":1240:1242  50 */\n      0x32\n        /* \"TokenMinter.sol\":6341:6394  classNFTSupply_2nd = DoAConstants.RARE_NFT_SUPPLY_2nd */\n      0xffff\n      and\n      swap2\n      pop\n        /* \"DoAConstants.sol\":1550:1553  400 */\n      0x0190\n        /* \"TokenMinter.sol\":6412:6465  classNFTSupply_3rd = DoAConstants.RARE_NFT_SUPPLY_3rd */\n      0xffff\n      and\n      swap1\n      pop\n        /* \"TokenMinter.sol\":6537:6549  currentCount */\n      dup5\n        /* \"DoAConstants.sol\":2262:2265  126 */\n      0x7e\n        /* \"TokenMinter.sol\":6501:6549  DoAConstants.RARE_NFT_START_INDEX + currentCount */\n      tag_283\n      swap2\n      swap1\n      tag_270\n      jump\t// in\n    tag_283:\n        /* \"TokenMinter.sol\":6484:6549  mintStartIndex = DoAConstants.RARE_NFT_START_INDEX + currentCount */\n      0xffff\n      and\n      swap7\n      pop\n        /* \"TokenMinter.sol\":6632:6633  1 */\n      0x01\n        /* \"TokenMinter.sol\":6618:6629  futureCount */\n      dup5\n        /* \"DoAConstants.sol\":2262:2265  126 */\n      0x7e\n        /* \"TokenMinter.sol\":6582:6629  DoAConstants.RARE_NFT_START_INDEX + futureCount */\n      tag_284\n      swap2\n      swap1\n      tag_270\n      jump\t// in\n    tag_284:\n        /* \"TokenMinter.sol\":6582:6633  DoAConstants.RARE_NFT_START_INDEX + futureCount - 1 */\n      tag_285\n      swap2\n      swap1\n      tag_274\n      jump\t// in\n    tag_285:\n        /* \"TokenMinter.sol\":6567:6633  mintEndIndex = DoAConstants.RARE_NFT_START_INDEX + futureCount - 1 */\n      0xffff\n      and\n      swap6\n      pop\n        /* \"TokenMinter.sol\":6087:7883  if(classToMint == NFT_CLASS.RARE) {... */\n      jump(tag_286)\n    tag_280:\n        /* \"TokenMinter.sol\":6676:6694  NFT_CLASS.UNCOMMON */\n      0x03\n        /* \"TokenMinter.sol\":6661:6694  classToMint == NFT_CLASS.UNCOMMON */\n      0x04\n      dup2\n      gt\n      iszero\n      tag_287\n      jumpi\n      tag_288\n      tag_264\n      jump\t// in\n    tag_288:\n    tag_287:\n        /* \"TokenMinter.sol\":6661:6672  classToMint */\n      dup9\n        /* \"TokenMinter.sol\":6661:6694  classToMint == NFT_CLASS.UNCOMMON */\n      0x04\n      dup2\n      gt\n      iszero\n      tag_289\n      jumpi\n      tag_290\n      tag_264\n      jump\t// in\n    tag_290:\n    tag_289:\n      sub\n        /* \"TokenMinter.sol\":6658:7883  if(classToMint == NFT_CLASS.UNCOMMON) {... */\n      tag_291\n      jumpi\n        /* \"TokenMinter.sol\":6736:6765  _uncommonNFTsMinted.current() */\n      tag_292\n        /* \"TokenMinter.sol\":6736:6755  _uncommonNFTsMinted */\n      0x09\n        /* \"TokenMinter.sol\":6736:6763  _uncommonNFTsMinted.current */\n      tag_167\n        /* \"TokenMinter.sol\":6736:6765  _uncommonNFTsMinted.current() */\n      jump\t// in\n    tag_292:\n        /* \"TokenMinter.sol\":6714:6766  currentCount = uint16(_uncommonNFTsMinted.current()) */\n      swap5\n      pop\n        /* \"TokenMinter.sol\":6820:6829  numToMint */\n      dup9\n        /* \"TokenMinter.sol\":6798:6810  currentCount */\n      dup6\n        /* \"TokenMinter.sol\":6798:6830  currentCount + uint16(numToMint) */\n      tag_293\n      swap2\n      swap1\n      tag_270\n      jump\t// in\n    tag_293:\n        /* \"TokenMinter.sol\":6784:6830  futureCount = currentCount + uint16(numToMint) */\n      swap4\n      pop\n        /* \"DoAConstants.sol\":989:991  25 */\n      0x19\n        /* \"TokenMinter.sol\":6849:6906  classNFTSupply_1st = DoAConstants.UNCOMMON_NFT_SUPPLY_1st */\n      0xffff\n      and\n      swap3\n      pop\n        /* \"DoAConstants.sol\":1297:1300  250 */\n      0xfa\n        /* \"TokenMinter.sol\":6924:6981  classNFTSupply_2nd = DoAConstants.UNCOMMON_NFT_SUPPLY_2nd */\n      0xffff\n      and\n      swap2\n      pop\n        /* \"DoAConstants.sol\":1608:1612  2000 */\n      0x07d0\n        /* \"TokenMinter.sol\":6999:7056  classNFTSupply_3rd = DoAConstants.UNCOMMON_NFT_SUPPLY_3rd */\n      0xffff\n      and\n      swap1\n      pop\n        /* \"TokenMinter.sol\":7132:7144  currentCount */\n      dup5\n        /* \"DoAConstants.sol\":2321:2324  627 */\n      0x0273\n        /* \"TokenMinter.sol\":7092:7144  DoAConstants.UNCOMMON_NFT_START_INDEX + currentCount */\n      tag_294\n      swap2\n      swap1\n      tag_270\n      jump\t// in\n    tag_294:\n        /* \"TokenMinter.sol\":7075:7144  mintStartIndex = DoAConstants.UNCOMMON_NFT_START_INDEX + currentCount */\n      0xffff\n      and\n      swap7\n      pop\n        /* \"TokenMinter.sol\":7231:7232  1 */\n      0x01\n        /* \"TokenMinter.sol\":7217:7228  futureCount */\n      dup5\n        /* \"DoAConstants.sol\":2321:2324  627 */\n      0x0273\n        /* \"TokenMinter.sol\":7177:7228  DoAConstants.UNCOMMON_NFT_START_INDEX + futureCount */\n      tag_295\n      swap2\n      swap1\n      tag_270\n      jump\t// in\n    tag_295:\n        /* \"TokenMinter.sol\":7177:7232  DoAConstants.UNCOMMON_NFT_START_INDEX + futureCount - 1 */\n      tag_296\n      swap2\n      swap1\n      tag_274\n      jump\t// in\n    tag_296:\n        /* \"TokenMinter.sol\":7162:7232  mintEndIndex = DoAConstants.UNCOMMON_NFT_START_INDEX + futureCount - 1 */\n      0xffff\n      and\n      swap6\n      pop\n        /* \"TokenMinter.sol\":6658:7883  if(classToMint == NFT_CLASS.UNCOMMON) {... */\n      jump(tag_297)\n    tag_291:\n        /* \"TokenMinter.sol\":7275:7291  NFT_CLASS.COMMON */\n      0x04\n        /* \"TokenMinter.sol\":7260:7291  classToMint == NFT_CLASS.COMMON */\n      dup1\n      dup2\n      gt\n      iszero\n      tag_298\n      jumpi\n      tag_299\n      tag_264\n      jump\t// in\n    tag_299:\n    tag_298:\n        /* \"TokenMinter.sol\":7260:7271  classToMint */\n      dup9\n        /* \"TokenMinter.sol\":7260:7291  classToMint == NFT_CLASS.COMMON */\n      0x04\n      dup2\n      gt\n      iszero\n      tag_300\n      jumpi\n      tag_301\n      tag_264\n      jump\t// in\n    tag_301:\n    tag_300:\n      sub\n        /* \"TokenMinter.sol\":7257:7883  if(classToMint == NFT_CLASS.COMMON) {... */\n      tag_302\n      jumpi\n        /* \"TokenMinter.sol\":7333:7360  _commonNFTsMinted.current() */\n      tag_303\n        /* \"TokenMinter.sol\":7333:7350  _commonNFTsMinted */\n      0x0a\n        /* \"TokenMinter.sol\":7333:7358  _commonNFTsMinted.current */\n      tag_167\n        /* \"TokenMinter.sol\":7333:7360  _commonNFTsMinted.current() */\n      jump\t// in\n    tag_303:\n        /* \"TokenMinter.sol\":7311:7361  currentCount = uint16(_commonNFTsMinted.current()) */\n      swap5\n      pop\n        /* \"TokenMinter.sol\":7415:7424  numToMint */\n      dup9\n        /* \"TokenMinter.sol\":7393:7405  currentCount */\n      dup6\n        /* \"TokenMinter.sol\":7393:7425  currentCount + uint16(numToMint) */\n      tag_304\n      swap2\n      swap1\n      tag_270\n      jump\t// in\n    tag_304:\n        /* \"TokenMinter.sol\":7379:7425  futureCount = currentCount + uint16(numToMint) */\n      swap4\n      pop\n        /* \"DoAConstants.sol\":1044:1047  125 */\n      0x7d\n        /* \"TokenMinter.sol\":7444:7499  classNFTSupply_1st = DoAConstants.COMMON_NFT_SUPPLY_1st */\n      0xffff\n      and\n      swap3\n      pop\n        /* \"DoAConstants.sol\":1353:1357  1250 */\n      0x04e2\n        /* \"TokenMinter.sol\":7517:7572  classNFTSupply_2nd = DoAConstants.COMMON_NFT_SUPPLY_2nd */\n      0xffff\n      and\n      swap2\n      pop\n        /* \"DoAConstants.sol\":1665:1669  5770 */\n      0x168a\n        /* \"TokenMinter.sol\":7590:7645  classNFTSupply_3rd = DoAConstants.COMMON_NFT_SUPPLY_3rd */\n      0xffff\n      and\n      swap1\n      pop\n        /* \"TokenMinter.sol\":7719:7731  currentCount */\n      dup5\n        /* \"DoAConstants.sol\":2378:2382  3128 */\n      0x0c38\n        /* \"TokenMinter.sol\":7681:7731  DoAConstants.COMMON_NFT_START_INDEX + currentCount */\n      tag_305\n      swap2\n      swap1\n      tag_270\n      jump\t// in\n    tag_305:\n        /* \"TokenMinter.sol\":7664:7731  mintStartIndex = DoAConstants.COMMON_NFT_START_INDEX + currentCount */\n      0xffff\n      and\n      swap7\n      pop\n        /* \"TokenMinter.sol\":7816:7817  1 */\n      0x01\n        /* \"TokenMinter.sol\":7802:7813  futureCount */\n      dup5\n        /* \"DoAConstants.sol\":2378:2382  3128 */\n      0x0c38\n        /* \"TokenMinter.sol\":7764:7813  DoAConstants.COMMON_NFT_START_INDEX + futureCount */\n      tag_306\n      swap2\n      swap1\n      tag_270\n      jump\t// in\n    tag_306:\n        /* \"TokenMinter.sol\":7764:7817  DoAConstants.COMMON_NFT_START_INDEX + futureCount - 1 */\n      tag_307\n      swap2\n      swap1\n      tag_274\n      jump\t// in\n    tag_307:\n        /* \"TokenMinter.sol\":7749:7817  mintEndIndex = DoAConstants.COMMON_NFT_START_INDEX + futureCount - 1 */\n      0xffff\n      and\n      swap6\n      pop\n        /* \"TokenMinter.sol\":7257:7883  if(classToMint == NFT_CLASS.COMMON) {... */\n      jump(tag_308)\n    tag_302:\n        /* \"TokenMinter.sol\":7860:7883  revert(\"Invalid class\") */\n      mload(0x40)\n      0x08c379a000000000000000000000000000000000000000000000000000000000\n      dup2\n      mstore\n      0x04\n      add\n      tag_309\n      swap1\n      tag_310\n      jump\t// in\n    tag_309:\n      mload(0x40)\n      dup1\n      swap2\n      sub\n      swap1\n      revert\n        /* \"TokenMinter.sol\":7257:7883  if(classToMint == NFT_CLASS.COMMON) {... */\n    tag_308:\n        /* \"TokenMinter.sol\":6658:7883  if(classToMint == NFT_CLASS.UNCOMMON) {... */\n    tag_297:\n        /* \"TokenMinter.sol\":6087:7883  if(classToMint == NFT_CLASS.RARE) {... */\n    tag_286:\n        /* \"TokenMinter.sol\":5502:7883  if(classToMint == NFT_CLASS.LEGEND) {... */\n    tag_275:\n        /* \"TokenMinter.sol\":7935:7960  _is1stPublicRoundUnlocked */\n      0x0b\n      0x01\n      swap1\n      sload\n      swap1\n      0x0100\n      exp\n      swap1\n      div\n      0xff\n      and\n        /* \"TokenMinter.sol\":7932:8346  if(_is1stPublicRoundUnlocked) ... */\n      iszero\n      tag_311\n      jumpi\n        /* \"TokenMinter.sol\":7998:8016  classNFTSupply_1st */\n      dup3\n        /* \"TokenMinter.sol\":7983:7994  futureCount */\n      dup5\n        /* \"TokenMinter.sol\":7983:8016  futureCount <= classNFTSupply_1st */\n      0xffff\n      and\n      gt\n      iszero\n        /* \"TokenMinter.sol\":7975:8040  require(futureCount <= classNFTSupply_1st, \"supply insufficient\") */\n      tag_312\n      jumpi\n      mload(0x40)\n      0x08c379a000000000000000000000000000000000000000000000000000000000\n      dup2\n      mstore\n      0x04\n      add\n      tag_313\n      swap1\n      tag_314\n      jump\t// in\n    tag_313:\n      mload(0x40)\n      dup1\n      swap2\n      sub\n      swap1\n      revert\n    tag_312:\n        /* \"TokenMinter.sol\":7932:8346  if(_is1stPublicRoundUnlocked) ... */\n      jump(tag_315)\n    tag_311:\n        /* \"TokenMinter.sol\":8058:8083  _is2ndPublicRoundUnlocked */\n      0x0b\n      0x02\n      swap1\n      sload\n      swap1\n      0x0100\n      exp\n      swap1\n      div\n      0xff\n      and\n        /* \"TokenMinter.sol\":8055:8346  if(_is2ndPublicRoundUnlocked) ... */\n      iszero\n      tag_316\n      jumpi\n        /* \"TokenMinter.sol\":8121:8139  classNFTSupply_2nd */\n      dup2\n        /* \"TokenMinter.sol\":8106:8117  futureCount */\n      dup5\n        /* \"TokenMinter.sol\":8106:8139  futureCount <= classNFTSupply_2nd */\n      0xffff\n      and\n      gt\n      iszero\n        /* \"TokenMinter.sol\":8098:8163  require(futureCount <= classNFTSupply_2nd, \"supply insufficient\") */\n      tag_317\n      jumpi\n      mload(0x40)\n      0x08c379a000000000000000000000000000000000000000000000000000000000\n      dup2\n      mstore\n      0x04\n      add\n      tag_318\n      swap1\n      tag_314\n      jump\t// in\n    tag_318:\n      mload(0x40)\n      dup1\n      swap2\n      sub\n      swap1\n      revert\n    tag_317:\n        /* \"TokenMinter.sol\":8055:8346  if(_is2ndPublicRoundUnlocked) ... */\n      jump(tag_319)\n    tag_316:\n        /* \"TokenMinter.sol\":8181:8206  _is3rdPublicRoundUnlocked */\n      0x0b\n      0x03\n      swap1\n      sload\n      swap1\n      0x0100\n      exp\n      swap1\n      div\n      0xff\n      and\n        /* \"TokenMinter.sol\":8178:8346  if(_is3rdPublicRoundUnlocked)... */\n      iszero\n      tag_320\n      jumpi\n        /* \"TokenMinter.sol\":8243:8261  classNFTSupply_3rd */\n      dup1\n        /* \"TokenMinter.sol\":8228:8239  futureCount */\n      dup5\n        /* \"TokenMinter.sol\":8228:8261  futureCount <= classNFTSupply_3rd */\n      0xffff\n      and\n      gt\n      iszero\n        /* \"TokenMinter.sol\":8220:8285  require(futureCount <= classNFTSupply_3rd, \"supply insufficient\") */\n      tag_321\n      jumpi\n      mload(0x40)\n      0x08c379a000000000000000000000000000000000000000000000000000000000\n      dup2\n      mstore\n      0x04\n      add\n      tag_322\n      swap1\n      tag_314\n      jump\t// in\n    tag_322:\n      mload(0x40)\n      dup1\n      swap2\n      sub\n      swap1\n      revert\n    tag_321:\n        /* \"TokenMinter.sol\":8178:8346  if(_is3rdPublicRoundUnlocked)... */\n      jump(tag_323)\n    tag_320:\n        /* \"TokenMinter.sol\":8312:8346  revert(\"no public round unlocked\") */\n      mload(0x40)\n      0x08c379a000000000000000000000000000000000000000000000000000000000\n      dup2\n      mstore\n      0x04\n      add\n      tag_324\n      swap1\n      tag_325\n      jump\t// in\n    tag_324:\n      mload(0x40)\n      dup1\n      swap2\n      sub\n      swap1\n      revert\n        /* \"TokenMinter.sol\":8178:8346  if(_is3rdPublicRoundUnlocked)... */\n    tag_323:\n        /* \"TokenMinter.sol\":8055:8346  if(_is2ndPublicRoundUnlocked) ... */\n    tag_319:\n        /* \"TokenMinter.sol\":7932:8346  if(_is1stPublicRoundUnlocked) ... */\n    tag_315:\n        /* \"TokenMinter.sol\":5176:8354  {... */\n      pop\n      pop\n      pop\n      pop\n      pop\n        /* \"TokenMinter.sol\":5026:8354  function getMintIndexRange(uint256 numToMint, NFT_CLASS classToMint) public view whenNotPaused returns (uint256 mintStartIndex, uint256 mintEndIndex) {... */\n      swap3\n      pop\n      swap3\n      swap1\n      pop\n      jump\t// out\n        /* \"TokenMinter.sol\":10453:10609  function mintUncommons(address toAddr, uint256 numToMint) external  whenNotPaused  payable {... */\n    tag_132:\n        /* \"@openzeppelin/contracts/security/Pausable.sol\":1239:1258  _requireNotPaused() */\n      tag_327\n        /* \"@openzeppelin/contracts/security/Pausable.sol\":1239:1256  _requireNotPaused */\n      tag_146\n        /* \"@openzeppelin/contracts/security/Pausable.sol\":1239:1258  _requireNotPaused() */\n      jump\t// in\n    tag_327:\n        /* \"TokenMinter.sol\":10554:10602  _mintNFTs(toAddr, numToMint, NFT_CLASS.UNCOMMON) */\n      tag_329\n        /* \"TokenMinter.sol\":10564:10570  toAddr */\n      dup3\n        /* \"TokenMinter.sol\":10572:10581  numToMint */\n      dup3\n        /* \"TokenMinter.sol\":10583:10601  NFT_CLASS.UNCOMMON */\n      0x03\n        /* \"TokenMinter.sol\":10554:10563  _mintNFTs */\n      tag_149\n        /* \"TokenMinter.sol\":10554:10602  _mintNFTs(toAddr, numToMint, NFT_CLASS.UNCOMMON) */\n      jump\t// in\n    tag_329:\n      pop\n        /* \"TokenMinter.sol\":10453:10609  function mintUncommons(address toAddr, uint256 numToMint) external  whenNotPaused  payable {... */\n      pop\n      pop\n      jump\t// out\n        /* \"TokenMinter.sol\":1385:1422  bool public _is2ndPublicRoundUnlocked */\n    tag_135:\n      0x0b\n      0x02\n      swap1\n      sload\n      swap1\n      0x0100\n      exp\n      swap1\n      div\n      0xff\n      and\n      dup2\n      jump\t// out\n        /* \"@openzeppelin/contracts/access/Ownable.sol\":2081:2279  function transferOwnership(address newOwner) public virtual onlyOwner {... */\n    tag_140:\n        /* \"@openzeppelin/contracts/access/Ownable.sol\":1094:1107  _checkOwner() */\n      tag_331\n        /* \"@openzeppelin/contracts/access/Ownable.sol\":1094:1105  _checkOwner */\n      tag_203\n        /* \"@openzeppelin/contracts/access/Ownable.sol\":1094:1107  _checkOwner() */\n      jump\t// in\n    tag_331:\n        /* \"@openzeppelin/contracts/access/Ownable.sol\":2189:2190  0 */\n      0x00\n        /* \"@openzeppelin/contracts/access/Ownable.sol\":2169:2191  newOwner != address(0) */\n      0xffffffffffffffffffffffffffffffffffffffff\n      and\n        /* \"@openzeppelin/contracts/access/Ownable.sol\":2169:2177  newOwner */\n      dup2\n        /* \"@openzeppelin/contracts/access/Ownable.sol\":2169:2191  newOwner != address(0) */\n      0xffffffffffffffffffffffffffffffffffffffff\n      and\n      sub\n        /* \"@openzeppelin/contracts/access/Ownable.sol\":2161:2234  require(newOwner != address(0), \"Ownable: new owner is the zero address\") */\n      tag_333\n      jumpi\n      mload(0x40)\n      0x08c379a000000000000000000000000000000000000000000000000000000000\n      dup2\n      mstore\n      0x04\n      add\n      tag_334\n      swap1\n      tag_335\n      jump\t// in\n    tag_334:\n      mload(0x40)\n      dup1\n      swap2\n      sub\n      swap1\n      revert\n    tag_333:\n        /* \"@openzeppelin/contracts/access/Ownable.sol\":2244:2272  _transferOwnership(newOwner) */\n      tag_336\n        /* \"@openzeppelin/contracts/access/Ownable.sol\":2263:2271  newOwner */\n      dup2\n        /* \"@openzeppelin/contracts/access/Ownable.sol\":2244:2262  _transferOwnership */\n      tag_216\n        /* \"@openzeppelin/contracts/access/Ownable.sol\":2244:2272  _transferOwnership(newOwner) */\n      jump\t// in\n    tag_336:\n        /* \"@openzeppelin/contracts/access/Ownable.sol\":2081:2279  function transferOwnership(address newOwner) public virtual onlyOwner {... */\n      pop\n      jump\t// out\n        /* \"TokenMinter.sol\":10173:10321  function mintRares(address toAddr, uint256 numToMint) external  whenNotPaused  payable {... */\n    tag_143:\n        /* \"@openzeppelin/contracts/security/Pausable.sol\":1239:1258  _requireNotPaused() */\n      tag_338\n        /* \"@openzeppelin/contracts/security/Pausable.sol\":1239:1256  _requireNotPaused */\n      tag_146\n        /* \"@openzeppelin/contracts/security/Pausable.sol\":1239:1258  _requireNotPaused() */\n      jump\t// in\n    tag_338:\n        /* \"TokenMinter.sol\":10270:10314  _mintNFTs(toAddr, numToMint, NFT_CLASS.RARE) */\n      tag_340\n        /* \"TokenMinter.sol\":10280:10286  toAddr */\n      dup3\n        /* \"TokenMinter.sol\":10288:10297  numToMint */\n      dup3\n        /* \"TokenMinter.sol\":10299:10313  NFT_CLASS.RARE */\n      0x02\n        /* \"TokenMinter.sol\":10270:10279  _mintNFTs */\n      tag_149\n        /* \"TokenMinter.sol\":10270:10314  _mintNFTs(toAddr, numToMint, NFT_CLASS.RARE) */\n      jump\t// in\n    tag_340:\n      pop\n        /* \"TokenMinter.sol\":10173:10321  function mintRares(address toAddr, uint256 numToMint) external  whenNotPaused  payable {... */\n      pop\n      pop\n      jump\t// out\n        /* \"@openzeppelin/contracts/security/Pausable.sol\":1767:1873  function _requireNotPaused() internal view virtual {... */\n    tag_146:\n        /* \"@openzeppelin/contracts/security/Pausable.sol\":1837:1845  paused() */\n      tag_342\n        /* \"@openzeppelin/contracts/security/Pausable.sol\":1837:1843  paused */\n      tag_70\n        /* \"@openzeppelin/contracts/security/Pausable.sol\":1837:1845  paused() */\n      jump\t// in\n    tag_342:\n        /* \"@openzeppelin/contracts/security/Pausable.sol\":1836:1845  !paused() */\n      iszero\n        /* \"@openzeppelin/contracts/security/Pausable.sol\":1828:1866  require(!paused(), \"Pausable: paused\") */\n      tag_343\n      jumpi\n      mload(0x40)\n      0x08c379a000000000000000000000000000000000000000000000000000000000\n      dup2\n      mstore\n      0x04\n      add\n      tag_344\n      swap1\n      tag_345\n      jump\t// in\n    tag_344:\n      mload(0x40)\n      dup1\n      swap2\n      sub\n      swap1\n      revert\n    tag_343:\n        /* \"@openzeppelin/contracts/security/Pausable.sol\":1767:1873  function _requireNotPaused() internal view virtual {... */\n      jump\t// out\n        /* \"TokenMinter.sol\":8361:9869  function _mintNFTs(address toAddr, uint256 numToMint, NFT_CLASS classToMint) private whenNotPaused  returns (uint256 numMinted){ ... */\n    tag_149:\n        /* \"TokenMinter.sol\":8470:8487  uint256 numMinted */\n      0x00\n        /* \"@openzeppelin/contracts/security/Pausable.sol\":1239:1258  _requireNotPaused() */\n      tag_347\n        /* \"@openzeppelin/contracts/security/Pausable.sol\":1239:1256  _requireNotPaused */\n      tag_146\n        /* \"@openzeppelin/contracts/security/Pausable.sol\":1239:1258  _requireNotPaused() */\n      jump\t// in\n    tag_347:\n        /* \"TokenMinter.sol\":8507:8522  _areHerosMinted */\n      0x0b\n      0x00\n      swap1\n      sload\n      swap1\n      0x0100\n      exp\n      swap1\n      div\n      0xff\n      and\n        /* \"TokenMinter.sol\":8499:8543  require(_areHerosMinted, \"Heros not minted\") */\n      tag_349\n      jumpi\n      mload(0x40)\n      0x08c379a000000000000000000000000000000000000000000000000000000000\n      dup2\n      mstore\n      0x04\n      add\n      tag_350\n      swap1\n      tag_164\n      jump\t// in\n    tag_350:\n      mload(0x40)\n      dup1\n      swap2\n      sub\n      swap1\n      revert\n    tag_349:\n        /* \"TokenMinter.sol\":8751:8773  uint256 mintStartIndex */\n      0x00\n        /* \"TokenMinter.sol\":8775:8795  uint256 mintEndIndex */\n      dup1\n        /* \"TokenMinter.sol\":8812:8853  getMintIndexRange(numToMint, classToMint) */\n      tag_351\n        /* \"TokenMinter.sol\":8830:8839  numToMint */\n      dup6\n        /* \"TokenMinter.sol\":8841:8852  classToMint */\n      dup6\n        /* \"TokenMinter.sol\":8812:8829  getMintIndexRange */\n      tag_127\n        /* \"TokenMinter.sol\":8812:8853  getMintIndexRange(numToMint, classToMint) */\n      jump\t// in\n    tag_351:\n        /* \"TokenMinter.sol\":8750:8853  (uint256 mintStartIndex, uint256 mintEndIndex) = ... */\n      swap2\n      pop\n      swap2\n      pop\n        /* \"TokenMinter.sol\":8865:8891  uint256 actualMintEndIndex */\n      0x00\n        /* \"TokenMinter.sol\":8894:8908  mintStartIndex */\n      dup3\n        /* \"TokenMinter.sol\":8865:8908  uint256 actualMintEndIndex = mintStartIndex */\n      swap1\n      pop\n        /* \"TokenMinter.sol\":8942:8962  uint256 currentIndex */\n      0x00\n        /* \"TokenMinter.sol\":8965:8979  mintStartIndex */\n      dup4\n        /* \"TokenMinter.sol\":8942:8979  uint256 currentIndex = mintStartIndex */\n      swap1\n      pop\n        /* \"TokenMinter.sol\":8938:9700  for(uint256 currentIndex = mintStartIndex; currentIndex <= mintEndIndex; currentIndex++) {... */\n    tag_352:\n        /* \"TokenMinter.sol\":8997:9009  mintEndIndex */\n      dup3\n        /* \"TokenMinter.sol\":8981:8993  currentIndex */\n      dup2\n        /* \"TokenMinter.sol\":8981:9009  currentIndex <= mintEndIndex */\n      gt\n        /* \"TokenMinter.sol\":8938:9700  for(uint256 currentIndex = mintStartIndex; currentIndex <= mintEndIndex; currentIndex++) {... */\n      tag_353\n      jumpi\n        /* \"TokenMinter.sol\":9054:9068  _doaCollection */\n      0x02\n      0x00\n      swap1\n      sload\n      swap1\n      0x0100\n      exp\n      swap1\n      div\n      0xffffffffffffffffffffffffffffffffffffffff\n      and\n        /* \"TokenMinter.sol\":9054:9077  _doaCollection.safeMint */\n      0xffffffffffffffffffffffffffffffffffffffff\n      and\n      0xa1448194\n        /* \"TokenMinter.sol\":9078:9084  toAddr */\n      dup10\n        /* \"TokenMinter.sol\":9086:9098  currentIndex */\n      dup4\n        /* \"TokenMinter.sol\":9054:9099  _doaCollection.safeMint(toAddr, currentIndex) */\n      mload(0x40)\n      dup4\n      0xffffffff\n      and\n      0xe0\n      shl\n      dup2\n      mstore\n      0x04\n      add\n      tag_355\n      swap3\n      swap2\n      swap1\n      tag_356\n      jump\t// in\n    tag_355:\n      0x00\n      mload(0x40)\n      dup1\n      dup4\n      sub\n      dup2\n      0x00\n      dup8\n      dup1\n      extcodesize\n      iszero\n      dup1\n      iszero\n      tag_357\n      jumpi\n      0x00\n      dup1\n      revert\n    tag_357:\n      pop\n      gas\n      call\n      iszero\n      dup1\n      iszero\n      tag_359\n      jumpi\n      returndatasize\n      0x00\n      dup1\n      returndatacopy\n      revert(0x00, returndatasize)\n    tag_359:\n      pop\n      pop\n      pop\n      pop\n        /* \"TokenMinter.sol\":9113:9128  _memberRegistry */\n      0x04\n      0x00\n      swap1\n      sload\n      swap1\n      0x0100\n      exp\n      swap1\n      div\n      0xffffffffffffffffffffffffffffffffffffffff\n      and\n        /* \"TokenMinter.sol\":9113:9138  _memberRegistry.nftMinted */\n      0xffffffffffffffffffffffffffffffffffffffff\n      and\n      0xbe1e1145\n        /* \"TokenMinter.sol\":9139:9145  toAddr */\n      dup10\n        /* \"TokenMinter.sol\":9147:9158  classToMint */\n      dup9\n        /* \"TokenMinter.sol\":9113:9159  _memberRegistry.nftMinted(toAddr, classToMint) */\n      mload(0x40)\n      dup4\n      0xffffffff\n      and\n      0xe0\n      shl\n      dup2\n      mstore\n      0x04\n      add\n      tag_360\n      swap3\n      swap2\n      swap1\n      tag_361\n      jump\t// in\n    tag_360:\n      0x00\n      mload(0x40)\n      dup1\n      dup4\n      sub\n      dup2\n      0x00\n      dup8\n      dup1\n      extcodesize\n      iszero\n      dup1\n      iszero\n      tag_362\n      jumpi\n      0x00\n      dup1\n      revert\n    tag_362:\n      pop\n      gas\n      call\n      iszero\n      dup1\n      iszero\n      tag_364\n      jumpi\n      returndatasize\n      0x00\n      dup1\n      returndatacopy\n      revert(0x00, returndatasize)\n    tag_364:\n      pop\n      pop\n      pop\n      pop\n        /* \"TokenMinter.sol\":9195:9207  currentIndex */\n      dup1\n        /* \"TokenMinter.sol\":9174:9207  actualMintEndIndex = currentIndex */\n      swap2\n      pop\n        /* \"TokenMinter.sol\":9283:9299  NFT_CLASS.LEGEND */\n      0x01\n        /* \"TokenMinter.sol\":9268:9299  classToMint == NFT_CLASS.LEGEND */\n      0x04\n      dup2\n      gt\n      iszero\n      tag_365\n      jumpi\n      tag_366\n      tag_264\n      jump\t// in\n    tag_366:\n    tag_365:\n        /* \"TokenMinter.sol\":9268:9279  classToMint */\n      dup7\n        /* \"TokenMinter.sol\":9268:9299  classToMint == NFT_CLASS.LEGEND */\n      0x04\n      dup2\n      gt\n      iszero\n      tag_367\n      jumpi\n      tag_368\n      tag_264\n      jump\t// in\n    tag_368:\n    tag_367:\n      sub\n        /* \"TokenMinter.sol\":9265:9688  if(classToMint == NFT_CLASS.LEGEND)... */\n      tag_369\n      jumpi\n        /* \"TokenMinter.sol\":9317:9346  _legendNFTsMinted.increment() */\n      tag_370\n        /* \"TokenMinter.sol\":9317:9334  _legendNFTsMinted */\n      0x07\n        /* \"TokenMinter.sol\":9317:9344  _legendNFTsMinted.increment */\n      tag_371\n        /* \"TokenMinter.sol\":9317:9346  _legendNFTsMinted.increment() */\n      jump\t// in\n    tag_370:\n        /* \"TokenMinter.sol\":9265:9688  if(classToMint == NFT_CLASS.LEGEND)... */\n      jump(tag_372)\n    tag_369:\n        /* \"TokenMinter.sol\":9383:9397  NFT_CLASS.RARE */\n      0x02\n        /* \"TokenMinter.sol\":9368:9397  classToMint == NFT_CLASS.RARE */\n      0x04\n      dup2\n      gt\n      iszero\n      tag_373\n      jumpi\n      tag_374\n      tag_264\n      jump\t// in\n    tag_374:\n    tag_373:\n        /* \"TokenMinter.sol\":9368:9379  classToMint */\n      dup7\n        /* \"TokenMinter.sol\":9368:9397  classToMint == NFT_CLASS.RARE */\n      0x04\n      dup2\n      gt\n      iszero\n      tag_375\n      jumpi\n      tag_376\n      tag_264\n      jump\t// in\n    tag_376:\n    tag_375:\n      sub\n        /* \"TokenMinter.sol\":9365:9688  if(classToMint == NFT_CLASS.RARE)... */\n      tag_377\n      jumpi\n        /* \"TokenMinter.sol\":9415:9442  _rareNFTsMinted.increment() */\n      tag_378\n        /* \"TokenMinter.sol\":9415:9430  _rareNFTsMinted */\n      0x08\n        /* \"TokenMinter.sol\":9415:9440  _rareNFTsMinted.increment */\n      tag_371\n        /* \"TokenMinter.sol\":9415:9442  _rareNFTsMinted.increment() */\n      jump\t// in\n    tag_378:\n        /* \"TokenMinter.sol\":9365:9688  if(classToMint == NFT_CLASS.RARE)... */\n      jump(tag_379)\n    tag_377:\n        /* \"TokenMinter.sol\":9479:9497  NFT_CLASS.UNCOMMON */\n      0x03\n        /* \"TokenMinter.sol\":9464:9497  classToMint == NFT_CLASS.UNCOMMON */\n      0x04\n      dup2\n      gt\n      iszero\n      tag_380\n      jumpi\n      tag_381\n      tag_264\n      jump\t// in\n    tag_381:\n    tag_380:\n        /* \"TokenMinter.sol\":9464:9475  classToMint */\n      dup7\n        /* \"TokenMinter.sol\":9464:9497  classToMint == NFT_CLASS.UNCOMMON */\n      0x04\n      dup2\n      gt\n      iszero\n      tag_382\n      jumpi\n      tag_383\n      tag_264\n      jump\t// in\n    tag_383:\n    tag_382:\n      sub\n        /* \"TokenMinter.sol\":9461:9688  if(classToMint == NFT_CLASS.UNCOMMON)... */\n      tag_384\n      jumpi\n        /* \"TokenMinter.sol\":9515:9546  _uncommonNFTsMinted.increment() */\n      tag_385\n        /* \"TokenMinter.sol\":9515:9534  _uncommonNFTsMinted */\n      0x09\n        /* \"TokenMinter.sol\":9515:9544  _uncommonNFTsMinted.increment */\n      tag_371\n        /* \"TokenMinter.sol\":9515:9546  _uncommonNFTsMinted.increment() */\n      jump\t// in\n    tag_385:\n        /* \"TokenMinter.sol\":9461:9688  if(classToMint == NFT_CLASS.UNCOMMON)... */\n      jump(tag_386)\n    tag_384:\n        /* \"TokenMinter.sol\":9583:9599  NFT_CLASS.COMMON */\n      0x04\n        /* \"TokenMinter.sol\":9568:9599  classToMint == NFT_CLASS.COMMON */\n      dup1\n      dup2\n      gt\n      iszero\n      tag_387\n      jumpi\n      tag_388\n      tag_264\n      jump\t// in\n    tag_388:\n    tag_387:\n        /* \"TokenMinter.sol\":9568:9579  classToMint */\n      dup7\n        /* \"TokenMinter.sol\":9568:9599  classToMint == NFT_CLASS.COMMON */\n      0x04\n      dup2\n      gt\n      iszero\n      tag_389\n      jumpi\n      tag_390\n      tag_264\n      jump\t// in\n    tag_390:\n    tag_389:\n      sub\n        /* \"TokenMinter.sol\":9565:9688  if(classToMint == NFT_CLASS.COMMON)... */\n      tag_391\n      jumpi\n        /* \"TokenMinter.sol\":9617:9646  _commonNFTsMinted.increment() */\n      tag_392\n        /* \"TokenMinter.sol\":9617:9634  _commonNFTsMinted */\n      0x0a\n        /* \"TokenMinter.sol\":9617:9644  _commonNFTsMinted.increment */\n      tag_371\n        /* \"TokenMinter.sol\":9617:9646  _commonNFTsMinted.increment() */\n      jump\t// in\n    tag_392:\n        /* \"TokenMinter.sol\":9565:9688  if(classToMint == NFT_CLASS.COMMON)... */\n      jump(tag_393)\n    tag_391:\n        /* \"TokenMinter.sol\":9665:9688  revert(\"Invalid class\") */\n      mload(0x40)\n      0x08c379a000000000000000000000000000000000000000000000000000000000\n      dup2\n      mstore\n      0x04\n      add\n      tag_394\n      swap1\n      tag_310\n      jump\t// in\n    tag_394:\n      mload(0x40)\n      dup1\n      swap2\n      sub\n      swap1\n      revert\n        /* \"TokenMinter.sol\":9565:9688  if(classToMint == NFT_CLASS.COMMON)... */\n    tag_393:\n        /* \"TokenMinter.sol\":9461:9688  if(classToMint == NFT_CLASS.UNCOMMON)... */\n    tag_386:\n        /* \"TokenMinter.sol\":9365:9688  if(classToMint == NFT_CLASS.RARE)... */\n    tag_379:\n        /* \"TokenMinter.sol\":9265:9688  if(classToMint == NFT_CLASS.LEGEND)... */\n    tag_372:\n        /* \"TokenMinter.sol\":9011:9025  currentIndex++ */\n      dup1\n      dup1\n      tag_395\n      swap1\n      tag_396\n      jump\t// in\n    tag_395:\n      swap2\n      pop\n      pop\n        /* \"TokenMinter.sol\":8938:9700  for(uint256 currentIndex = mintStartIndex; currentIndex <= mintEndIndex; currentIndex++) {... */\n      jump(tag_352)\n    tag_353:\n      pop\n        /* \"TokenMinter.sol\":9861:9862  1 */\n      0x01\n        /* \"TokenMinter.sol\":9844:9858  mintStartIndex */\n      dup4\n        /* \"TokenMinter.sol\":9823:9841  actualMintEndIndex */\n      dup3\n        /* \"TokenMinter.sol\":9823:9858  actualMintEndIndex - mintStartIndex */\n      tag_397\n      swap2\n      swap1\n      tag_398\n      jump\t// in\n    tag_397:\n        /* \"TokenMinter.sol\":9823:9862  actualMintEndIndex - mintStartIndex + 1 */\n      tag_399\n      swap2\n      swap1\n      tag_400\n      jump\t// in\n    tag_399:\n        /* \"TokenMinter.sol\":9811:9862  numMinted = actualMintEndIndex - mintStartIndex + 1 */\n      swap4\n      pop\n        /* \"TokenMinter.sol\":8488:9869  { ... */\n      pop\n      pop\n      pop\n        /* \"TokenMinter.sol\":8361:9869  function _mintNFTs(address toAddr, uint256 numToMint, NFT_CLASS classToMint) private whenNotPaused  returns (uint256 numMinted){ ... */\n      swap4\n      swap3\n      pop\n      pop\n      pop\n      jump\t// out\n        /* \"@openzeppelin/contracts/security/ReentrancyGuard.sol\":2336:2623  function _nonReentrantBefore() private {... */\n    tag_154:\n        /* \"@openzeppelin/contracts/security/ReentrancyGuard.sol\":1759:1760  2 */\n      0x02\n        /* \"@openzeppelin/contracts/security/ReentrancyGuard.sol\":2468:2475  _status */\n      sload(0x01)\n        /* \"@openzeppelin/contracts/security/ReentrancyGuard.sol\":2468:2487  _status != _ENTERED */\n      sub\n        /* \"@openzeppelin/contracts/security/ReentrancyGuard.sol\":2460:2523  require(_status != _ENTERED, \"ReentrancyGuard: reentrant call\") */\n      tag_402\n      jumpi\n      mload(0x40)\n      0x08c379a000000000000000000000000000000000000000000000000000000000\n      dup2\n      mstore\n      0x04\n      add\n      tag_403\n      swap1\n      tag_404\n      jump\t// in\n    tag_403:\n      mload(0x40)\n      dup1\n      swap2\n      sub\n      swap1\n      revert\n    tag_402:\n        /* \"@openzeppelin/contracts/security/ReentrancyGuard.sol\":1759:1760  2 */\n      0x02\n        /* \"@openzeppelin/contracts/security/ReentrancyGuard.sol\":2598:2605  _status */\n      0x01\n        /* \"@openzeppelin/contracts/security/ReentrancyGuard.sol\":2598:2616  _status = _ENTERED */\n      dup2\n      swap1\n      sstore\n      pop\n        /* \"@openzeppelin/contracts/security/ReentrancyGuard.sol\":2336:2623  function _nonReentrantBefore() private {... */\n      jump\t// out\n        /* \"@openzeppelin/contracts/utils/Counters.sol\":827:939  function current(Counter storage counter) internal view returns (uint256) {... */\n    tag_167:\n        /* \"@openzeppelin/contracts/utils/Counters.sol\":892:899  uint256 */\n      0x00\n        /* \"@openzeppelin/contracts/utils/Counters.sol\":918:925  counter */\n      dup2\n        /* \"@openzeppelin/contracts/utils/Counters.sol\":918:932  counter._value */\n      0x00\n      add\n      sload\n        /* \"@openzeppelin/contracts/utils/Counters.sol\":911:932  return counter._value */\n      swap1\n      pop\n        /* \"@openzeppelin/contracts/utils/Counters.sol\":827:939  function current(Counter storage counter) internal view returns (uint256) {... */\n      swap2\n      swap1\n      pop\n      jump\t// out\n        /* \"@openzeppelin/contracts/security/ReentrancyGuard.sol\":2629:2838  function _nonReentrantAfter() private {... */\n    tag_187:\n        /* \"@openzeppelin/contracts/security/ReentrancyGuard.sol\":1716:1717  1 */\n      0x01\n        /* \"@openzeppelin/contracts/security/ReentrancyGuard.sol\":2809:2816  _status */\n      dup1\n        /* \"@openzeppelin/contracts/security/ReentrancyGuard.sol\":2809:2831  _status = _NOT_ENTERED */\n      dup2\n      swap1\n      sstore\n      pop\n        /* \"@openzeppelin/contracts/security/ReentrancyGuard.sol\":2629:2838  function _nonReentrantAfter() private {... */\n      jump\t// out\n        /* \"@openzeppelin/contracts/access/Ownable.sol\":1359:1489  function _checkOwner() internal view virtual {... */\n    tag_203:\n        /* \"@openzeppelin/contracts/access/Ownable.sol\":1433:1445  _msgSender() */\n      tag_408\n        /* \"@openzeppelin/contracts/access/Ownable.sol\":1433:1443  _msgSender */\n      tag_409\n        /* \"@openzeppelin/contracts/access/Ownable.sol\":1433:1445  _msgSender() */\n      jump\t// in\n    tag_408:\n        /* \"@openzeppelin/contracts/access/Ownable.sol\":1422:1445  owner() == _msgSender() */\n      0xffffffffffffffffffffffffffffffffffffffff\n      and\n        /* \"@openzeppelin/contracts/access/Ownable.sol\":1422:1429  owner() */\n      tag_410\n        /* \"@openzeppelin/contracts/access/Ownable.sol\":1422:1427  owner */\n      tag_95\n        /* \"@openzeppelin/contracts/access/Ownable.sol\":1422:1429  owner() */\n      jump\t// in\n    tag_410:\n        /* \"@openzeppelin/contracts/access/Ownable.sol\":1422:1445  owner() == _msgSender() */\n      0xffffffffffffffffffffffffffffffffffffffff\n      and\n      eq\n        /* \"@openzeppelin/contracts/access/Ownable.sol\":1414:1482  require(owner() == _msgSender(), \"Ownable: caller is not the owner\") */\n      tag_411\n      jumpi\n      mload(0x40)\n      0x08c379a000000000000000000000000000000000000000000000000000000000\n      dup2\n      mstore\n      0x04\n      add\n      tag_412\n      swap1\n      tag_413\n      jump\t// in\n    tag_412:\n      mload(0x40)\n      dup1\n      swap2\n      sub\n      swap1\n      revert\n    tag_411:\n        /* \"@openzeppelin/contracts/access/Ownable.sol\":1359:1489  function _checkOwner() internal view virtual {... */\n      jump\t// out\n        /* \"@openzeppelin/contracts/security/Pausable.sol\":2433:2550  function _unpause() internal virtual whenPaused {... */\n    tag_206:\n        /* \"@openzeppelin/contracts/security/Pausable.sol\":1486:1502  _requirePaused() */\n      tag_415\n        /* \"@openzeppelin/contracts/security/Pausable.sol\":1486:1500  _requirePaused */\n      tag_416\n        /* \"@openzeppelin/contracts/security/Pausable.sol\":1486:1502  _requirePaused() */\n      jump\t// in\n    tag_415:\n        /* \"@openzeppelin/contracts/security/Pausable.sol\":2501:2506  false */\n      0x00\n        /* \"@openzeppelin/contracts/security/Pausable.sol\":2491:2498  _paused */\n      dup1\n      0x14\n        /* \"@openzeppelin/contracts/security/Pausable.sol\":2491:2506  _paused = false */\n      0x0100\n      exp\n      dup2\n      sload\n      dup2\n      0xff\n      mul\n      not\n      and\n      swap1\n      dup4\n      iszero\n      iszero\n      mul\n      or\n      swap1\n      sstore\n      pop\n        /* \"@openzeppelin/contracts/security/Pausable.sol\":2521:2543  Unpaused(_msgSender()) */\n      0x5db9ee0a495bf2e6ff9c91a7834c1ba4fdd244a5e8aa4e537bd38aeae4b073aa\n        /* \"@openzeppelin/contracts/security/Pausable.sol\":2530:2542  _msgSender() */\n      tag_418\n        /* \"@openzeppelin/contracts/security/Pausable.sol\":2530:2540  _msgSender */\n      tag_409\n        /* \"@openzeppelin/contracts/security/Pausable.sol\":2530:2542  _msgSender() */\n      jump\t// in\n    tag_418:\n        /* \"@openzeppelin/contracts/security/Pausable.sol\":2521:2543  Unpaused(_msgSender()) */\n      mload(0x40)\n      tag_419\n      swap2\n      swap1\n      tag_97\n      jump\t// in\n    tag_419:\n      mload(0x40)\n      dup1\n      swap2\n      sub\n      swap1\n      log1\n        /* \"@openzeppelin/contracts/security/Pausable.sol\":2433:2550  function _unpause() internal virtual whenPaused {... */\n      jump\t// out\n        /* \"@openzeppelin/contracts/access/Ownable.sol\":2433:2620  function _transferOwnership(address newOwner) internal virtual {... */\n    tag_216:\n        /* \"@openzeppelin/contracts/access/Ownable.sol\":2506:2522  address oldOwner */\n      0x00\n        /* \"@openzeppelin/contracts/access/Ownable.sol\":2525:2531  _owner */\n      dup1\n      0x00\n      swap1\n      sload\n      swap1\n      0x0100\n      exp\n      swap1\n      div\n      0xffffffffffffffffffffffffffffffffffffffff\n      and\n        /* \"@openzeppelin/contracts/access/Ownable.sol\":2506:2531  address oldOwner = _owner */\n      swap1\n      pop\n        /* \"@openzeppelin/contracts/access/Ownable.sol\":2550:2558  newOwner */\n      dup2\n        /* \"@openzeppelin/contracts/access/Ownable.sol\":2541:2547  _owner */\n      0x00\n      dup1\n        /* \"@openzeppelin/contracts/access/Ownable.sol\":2541:2558  _owner = newOwner */\n      0x0100\n      exp\n      dup2\n      sload\n      dup2\n      0xffffffffffffffffffffffffffffffffffffffff\n      mul\n      not\n      and\n      swap1\n      dup4\n      0xffffffffffffffffffffffffffffffffffffffff\n      and\n      mul\n      or\n      swap1\n      sstore\n      pop\n        /* \"@openzeppelin/contracts/access/Ownable.sol\":2604:2612  newOwner */\n      dup2\n        /* \"@openzeppelin/contracts/access/Ownable.sol\":2573:2613  OwnershipTransferred(oldOwner, newOwner) */\n      0xffffffffffffffffffffffffffffffffffffffff\n      and\n        /* \"@openzeppelin/contracts/access/Ownable.sol\":2594:2602  oldOwner */\n      dup2\n        /* \"@openzeppelin/contracts/access/Ownable.sol\":2573:2613  OwnershipTransferred(oldOwner, newOwner) */\n      0xffffffffffffffffffffffffffffffffffffffff\n      and\n      0x8be0079c531659141344cd1fd0a4f28419497f9722a3daafe3b4186f6b6457e0\n      mload(0x40)\n      mload(0x40)\n      dup1\n      swap2\n      sub\n      swap1\n      log3\n        /* \"@openzeppelin/contracts/access/Ownable.sol\":2496:2620  {... */\n      pop\n        /* \"@openzeppelin/contracts/access/Ownable.sol\":2433:2620  function _transferOwnership(address newOwner) internal virtual {... */\n      pop\n      jump\t// out\n        /* \"@openzeppelin/contracts/security/Pausable.sol\":2186:2301  function _pause() internal virtual whenNotPaused {... */\n    tag_233:\n        /* \"@openzeppelin/contracts/security/Pausable.sol\":1239:1258  _requireNotPaused() */\n      tag_422\n        /* \"@openzeppelin/contracts/security/Pausable.sol\":1239:1256  _requireNotPaused */\n      tag_146\n        /* \"@openzeppelin/contracts/security/Pausable.sol\":1239:1258  _requireNotPaused() */\n      jump\t// in\n    tag_422:\n        /* \"@openzeppelin/contracts/security/Pausable.sol\":2255:2259  true */\n      0x01\n        /* \"@openzeppelin/contracts/security/Pausable.sol\":2245:2252  _paused */\n      0x00\n      0x14\n        /* \"@openzeppelin/contracts/security/Pausable.sol\":2245:2259  _paused = true */\n      0x0100\n      exp\n      dup2\n      sload\n      dup2\n      0xff\n      mul\n      not\n      and\n      swap1\n      dup4\n      iszero\n      iszero\n      mul\n      or\n      swap1\n      sstore\n      pop\n        /* \"@openzeppelin/contracts/security/Pausable.sol\":2274:2294  Paused(_msgSender()) */\n      0x62e78cea01bee320cd4e420270b5ea74000d11b0c9f74754ebdbfc544b05a258\n        /* \"@openzeppelin/contracts/security/Pausable.sol\":2281:2293  _msgSender() */\n      tag_424\n        /* \"@openzeppelin/contracts/security/Pausable.sol\":2281:2291  _msgSender */\n      tag_409\n        /* \"@openzeppelin/contracts/security/Pausable.sol\":2281:2293  _msgSender() */\n      jump\t// in\n    tag_424:\n        /* \"@openzeppelin/contracts/security/Pausable.sol\":2274:2294  Paused(_msgSender()) */\n      mload(0x40)\n      tag_425\n      swap2\n      swap1\n      tag_97\n      jump\t// in\n    tag_425:\n      mload(0x40)\n      dup1\n      swap2\n      sub\n      swap1\n      log1\n        /* \"@openzeppelin/contracts/security/Pausable.sol\":2186:2301  function _pause() internal virtual whenNotPaused {... */\n      jump\t// out\n        /* \"@openzeppelin/contracts/utils/Counters.sol\":945:1068  function increment(Counter storage counter) internal {... */\n    tag_371:\n        /* \"@openzeppelin/contracts/utils/Counters.sol\":1050:1051  1 */\n      0x01\n        /* \"@openzeppelin/contracts/utils/Counters.sol\":1032:1039  counter */\n      dup2\n        /* \"@openzeppelin/contracts/utils/Counters.sol\":1032:1046  counter._value */\n      0x00\n      add\n      0x00\n        /* \"@openzeppelin/contracts/utils/Counters.sol\":1032:1051  counter._value += 1 */\n      dup3\n      dup3\n      sload\n      add\n      swap3\n      pop\n      pop\n      dup2\n      swap1\n      sstore\n      pop\n        /* \"@openzeppelin/contracts/utils/Counters.sol\":945:1068  function increment(Counter storage counter) internal {... */\n      pop\n      jump\t// out\n        /* \"@openzeppelin/contracts/utils/Context.sol\":640:736  function _msgSender() internal view virtual returns (address) {... */\n    tag_409:\n        /* \"@openzeppelin/contracts/utils/Context.sol\":693:700  address */\n      0x00\n        /* \"@openzeppelin/contracts/utils/Context.sol\":719:729  msg.sender */\n      caller\n        /* \"@openzeppelin/contracts/utils/Context.sol\":712:729  return msg.sender */\n      swap1\n      pop\n        /* \"@openzeppelin/contracts/utils/Context.sol\":640:736  function _msgSender() internal view virtual returns (address) {... */\n      swap1\n      jump\t// out\n        /* \"@openzeppelin/contracts/security/Pausable.sol\":1945:2051  function _requirePaused() internal view virtual {... */\n    tag_416:\n        /* \"@openzeppelin/contracts/security/Pausable.sol\":2011:2019  paused() */\n      tag_429\n        /* \"@openzeppelin/contracts/security/Pausable.sol\":2011:2017  paused */\n      tag_70\n        /* \"@openzeppelin/contracts/security/Pausable.sol\":2011:2019  paused() */\n      jump\t// in\n    tag_429:\n        /* \"@openzeppelin/contracts/security/Pausable.sol\":2003:2044  require(paused(), \"Pausable: not paused\") */\n      tag_430\n      jumpi\n      mload(0x40)\n      0x08c379a000000000000000000000000000000000000000000000000000000000\n      dup2\n      mstore\n      0x04\n      add\n      tag_431\n      swap1\n      tag_432\n      jump\t// in\n    tag_431:\n      mload(0x40)\n      dup1\n      swap2\n      sub\n      swap1\n      revert\n    tag_430:\n        /* \"@openzeppelin/contracts/security/Pausable.sol\":1945:2051  function _requirePaused() internal view virtual {... */\n      jump\t// out\n        /* \"#utility.yul\":7:84   */\n    tag_433:\n        /* \"#utility.yul\":44:51   */\n      0x00\n        /* \"#utility.yul\":73:78   */\n      dup2\n        /* \"#utility.yul\":62:78   */\n      swap1\n      pop\n        /* \"#utility.yul\":7:84   */\n      swap2\n      swap1\n      pop\n      jump\t// out\n        /* \"#utility.yul\":90:208   */\n    tag_434:\n        /* \"#utility.yul\":177:201   */\n      tag_493\n        /* \"#utility.yul\":195:200   */\n      dup2\n        /* \"#utility.yul\":177:201   */\n      tag_433\n      jump\t// in\n    tag_493:\n        /* \"#utility.yul\":172:175   */\n      dup3\n        /* \"#utility.yul\":165:202   */\n      mstore\n        /* \"#utility.yul\":90:208   */\n      pop\n      pop\n      jump\t// out\n        /* \"#utility.yul\":214:436   */\n    tag_41:\n        /* \"#utility.yul\":307:311   */\n      0x00\n        /* \"#utility.yul\":345:347   */\n      0x20\n        /* \"#utility.yul\":334:343   */\n      dup3\n        /* \"#utility.yul\":330:348   */\n      add\n        /* \"#utility.yul\":322:348   */\n      swap1\n      pop\n        /* \"#utility.yul\":358:429   */\n      tag_495\n        /* \"#utility.yul\":426:427   */\n      0x00\n        /* \"#utility.yul\":415:424   */\n      dup4\n        /* \"#utility.yul\":411:428   */\n      add\n        /* \"#utility.yul\":402:408   */\n      dup5\n        /* \"#utility.yul\":358:429   */\n      tag_434\n      jump\t// in\n    tag_495:\n        /* \"#utility.yul\":214:436   */\n      swap3\n      swap2\n      pop\n      pop\n      jump\t// out\n        /* \"#utility.yul\":523:640   */\n    tag_436:\n        /* \"#utility.yul\":632:633   */\n      0x00\n        /* \"#utility.yul\":629:630   */\n      dup1\n        /* \"#utility.yul\":622:634   */\n      revert\n        /* \"#utility.yul\":769:895   */\n    tag_438:\n        /* \"#utility.yul\":806:813   */\n      0x00\n        /* \"#utility.yul\":846:888   */\n      0xffffffffffffffffffffffffffffffffffffffff\n        /* \"#utility.yul\":839:844   */\n      dup3\n        /* \"#utility.yul\":835:889   */\n      and\n        /* \"#utility.yul\":824:889   */\n      swap1\n      pop\n        /* \"#utility.yul\":769:895   */\n      swap2\n      swap1\n      pop\n      jump\t// out\n        /* \"#utility.yul\":901:997   */\n    tag_439:\n        /* \"#utility.yul\":938:945   */\n      0x00\n        /* \"#utility.yul\":967:991   */\n      tag_501\n        /* \"#utility.yul\":985:990   */\n      dup3\n        /* \"#utility.yul\":967:991   */\n      tag_438\n      jump\t// in\n    tag_501:\n        /* \"#utility.yul\":956:991   */\n      swap1\n      pop\n        /* \"#utility.yul\":901:997   */\n      swap2\n      swap1\n      pop\n      jump\t// out\n        /* \"#utility.yul\":1003:1125   */\n    tag_440:\n        /* \"#utility.yul\":1076:1100   */\n      tag_503\n        /* \"#utility.yul\":1094:1099   */\n      dup2\n        /* \"#utility.yul\":1076:1100   */\n      tag_439\n      jump\t// in\n    tag_503:\n        /* \"#utility.yul\":1069:1074   */\n      dup2\n        /* \"#utility.yul\":1066:1101   */\n      eq\n        /* \"#utility.yul\":1056:1119   */\n      tag_504\n      jumpi\n        /* \"#utility.yul\":1115:1116   */\n      0x00\n        /* \"#utility.yul\":1112:1113   */\n      dup1\n        /* \"#utility.yul\":1105:1117   */\n      revert\n        /* \"#utility.yul\":1056:1119   */\n    tag_504:\n        /* \"#utility.yul\":1003:1125   */\n      pop\n      jump\t// out\n        /* \"#utility.yul\":1131:1270   */\n    tag_441:\n        /* \"#utility.yul\":1177:1182   */\n      0x00\n        /* \"#utility.yul\":1215:1221   */\n      dup2\n        /* \"#utility.yul\":1202:1222   */\n      calldataload\n        /* \"#utility.yul\":1193:1222   */\n      swap1\n      pop\n        /* \"#utility.yul\":1231:1264   */\n      tag_506\n        /* \"#utility.yul\":1258:1263   */\n      dup2\n        /* \"#utility.yul\":1231:1264   */\n      tag_440\n      jump\t// in\n    tag_506:\n        /* \"#utility.yul\":1131:1270   */\n      swap3\n      swap2\n      pop\n      pop\n      jump\t// out\n        /* \"#utility.yul\":1276:1398   */\n    tag_442:\n        /* \"#utility.yul\":1349:1373   */\n      tag_508\n        /* \"#utility.yul\":1367:1372   */\n      dup2\n        /* \"#utility.yul\":1349:1373   */\n      tag_433\n      jump\t// in\n    tag_508:\n        /* \"#utility.yul\":1342:1347   */\n      dup2\n        /* \"#utility.yul\":1339:1374   */\n      eq\n        /* \"#utility.yul\":1329:1392   */\n      tag_509\n      jumpi\n        /* \"#utility.yul\":1388:1389   */\n      0x00\n        /* \"#utility.yul\":1385:1386   */\n      dup1\n        /* \"#utility.yul\":1378:1390   */\n      revert\n        /* \"#utility.yul\":1329:1392   */\n    tag_509:\n        /* \"#utility.yul\":1276:1398   */\n      pop\n      jump\t// out\n        /* \"#utility.yul\":1404:1543   */\n    tag_443:\n        /* \"#utility.yul\":1450:1455   */\n      0x00\n        /* \"#utility.yul\":1488:1494   */\n      dup2\n        /* \"#utility.yul\":1475:1495   */\n      calldataload\n        /* \"#utility.yul\":1466:1495   */\n      swap1\n      pop\n        /* \"#utility.yul\":1504:1537   */\n      tag_511\n        /* \"#utility.yul\":1531:1536   */\n      dup2\n        /* \"#utility.yul\":1504:1537   */\n      tag_442\n      jump\t// in\n    tag_511:\n        /* \"#utility.yul\":1404:1543   */\n      swap3\n      swap2\n      pop\n      pop\n      jump\t// out\n        /* \"#utility.yul\":1549:2023   */\n    tag_48:\n        /* \"#utility.yul\":1617:1623   */\n      0x00\n        /* \"#utility.yul\":1625:1631   */\n      dup1\n        /* \"#utility.yul\":1674:1676   */\n      0x40\n        /* \"#utility.yul\":1662:1671   */\n      dup4\n        /* \"#utility.yul\":1653:1660   */\n      dup6\n        /* \"#utility.yul\":1649:1672   */\n      sub\n        /* \"#utility.yul\":1645:1677   */\n      slt\n        /* \"#utility.yul\":1642:1761   */\n      iszero\n      tag_513\n      jumpi\n        /* \"#utility.yul\":1680:1759   */\n      tag_514\n      tag_436\n      jump\t// in\n    tag_514:\n        /* \"#utility.yul\":1642:1761   */\n    tag_513:\n        /* \"#utility.yul\":1800:1801   */\n      0x00\n        /* \"#utility.yul\":1825:1878   */\n      tag_515\n        /* \"#utility.yul\":1870:1877   */\n      dup6\n        /* \"#utility.yul\":1861:1867   */\n      dup3\n        /* \"#utility.yul\":1850:1859   */\n      dup7\n        /* \"#utility.yul\":1846:1868   */\n      add\n        /* \"#utility.yul\":1825:1878   */\n      tag_441\n      jump\t// in\n    tag_515:\n        /* \"#utility.yul\":1815:1878   */\n      swap3\n      pop\n        /* \"#utility.yul\":1771:1888   */\n      pop\n        /* \"#utility.yul\":1927:1929   */\n      0x20\n        /* \"#utility.yul\":1953:2006   */\n      tag_516\n        /* \"#utility.yul\":1998:2005   */\n      dup6\n        /* \"#utility.yul\":1989:1995   */\n      dup3\n        /* \"#utility.yul\":1978:1987   */\n      dup7\n        /* \"#utility.yul\":1974:1996   */\n      add\n        /* \"#utility.yul\":1953:2006   */\n      tag_443\n      jump\t// in\n    tag_516:\n        /* \"#utility.yul\":1943:2006   */\n      swap2\n      pop\n        /* \"#utility.yul\":1898:2016   */\n      pop\n        /* \"#utility.yul\":1549:2023   */\n      swap3\n      pop\n      swap3\n      swap1\n      pop\n      jump\t// out\n        /* \"#utility.yul\":2029:2358   */\n    tag_56:\n        /* \"#utility.yul\":2088:2094   */\n      0x00\n        /* \"#utility.yul\":2137:2139   */\n      0x20\n        /* \"#utility.yul\":2125:2134   */\n      dup3\n        /* \"#utility.yul\":2116:2123   */\n      dup5\n        /* \"#utility.yul\":2112:2135   */\n      sub\n        /* \"#utility.yul\":2108:2140   */\n      slt\n        /* \"#utility.yul\":2105:2224   */\n      iszero\n      tag_518\n      jumpi\n        /* \"#utility.yul\":2143:2222   */\n      tag_519\n      tag_436\n      jump\t// in\n    tag_519:\n        /* \"#utility.yul\":2105:2224   */\n    tag_518:\n        /* \"#utility.yul\":2263:2264   */\n      0x00\n        /* \"#utility.yul\":2288:2341   */\n      tag_520\n        /* \"#utility.yul\":2333:2340   */\n      dup5\n        /* \"#utility.yul\":2324:2330   */\n      dup3\n        /* \"#utility.yul\":2313:2322   */\n      dup6\n        /* \"#utility.yul\":2309:2331   */\n      add\n        /* \"#utility.yul\":2288:2341   */\n      tag_441\n      jump\t// in\n    tag_520:\n        /* \"#utility.yul\":2278:2341   */\n      swap2\n      pop\n        /* \"#utility.yul\":2234:2351   */\n      pop\n        /* \"#utility.yul\":2029:2358   */\n      swap3\n      swap2\n      pop\n      pop\n      jump\t// out\n        /* \"#utility.yul\":2364:2454   */\n    tag_444:\n        /* \"#utility.yul\":2398:2405   */\n      0x00\n        /* \"#utility.yul\":2441:2446   */\n      dup2\n        /* \"#utility.yul\":2434:2447   */\n      iszero\n        /* \"#utility.yul\":2427:2448   */\n      iszero\n        /* \"#utility.yul\":2416:2448   */\n      swap1\n      pop\n        /* \"#utility.yul\":2364:2454   */\n      swap2\n      swap1\n      pop\n      jump\t// out\n        /* \"#utility.yul\":2460:2569   */\n    tag_445:\n        /* \"#utility.yul\":2541:2562   */\n      tag_523\n        /* \"#utility.yul\":2556:2561   */\n      dup2\n        /* \"#utility.yul\":2541:2562   */\n      tag_444\n      jump\t// in\n    tag_523:\n        /* \"#utility.yul\":2536:2539   */\n      dup3\n        /* \"#utility.yul\":2529:2563   */\n      mstore\n        /* \"#utility.yul\":2460:2569   */\n      pop\n      pop\n      jump\t// out\n        /* \"#utility.yul\":2575:2785   */\n    tag_72:\n        /* \"#utility.yul\":2662:2666   */\n      0x00\n        /* \"#utility.yul\":2700:2702   */\n      0x20\n        /* \"#utility.yul\":2689:2698   */\n      dup3\n        /* \"#utility.yul\":2685:2703   */\n      add\n        /* \"#utility.yul\":2677:2703   */\n      swap1\n      pop\n        /* \"#utility.yul\":2713:2778   */\n      tag_525\n        /* \"#utility.yul\":2775:2776   */\n      0x00\n        /* \"#utility.yul\":2764:2773   */\n      dup4\n        /* \"#utility.yul\":2760:2777   */\n      add\n        /* \"#utility.yul\":2751:2757   */\n      dup5\n        /* \"#utility.yul\":2713:2778   */\n      tag_445\n      jump\t// in\n    tag_525:\n        /* \"#utility.yul\":2575:2785   */\n      swap3\n      swap2\n      pop\n      pop\n      jump\t// out\n        /* \"#utility.yul\":2791:2909   */\n    tag_446:\n        /* \"#utility.yul\":2878:2902   */\n      tag_527\n        /* \"#utility.yul\":2896:2901   */\n      dup2\n        /* \"#utility.yul\":2878:2902   */\n      tag_439\n      jump\t// in\n    tag_527:\n        /* \"#utility.yul\":2873:2876   */\n      dup3\n        /* \"#utility.yul\":2866:2903   */\n      mstore\n        /* \"#utility.yul\":2791:2909   */\n      pop\n      pop\n      jump\t// out\n        /* \"#utility.yul\":2915:3137   */\n    tag_97:\n        /* \"#utility.yul\":3008:3012   */\n      0x00\n        /* \"#utility.yul\":3046:3048   */\n      0x20\n        /* \"#utility.yul\":3035:3044   */\n      dup3\n        /* \"#utility.yul\":3031:3049   */\n      add\n        /* \"#utility.yul\":3023:3049   */\n      swap1\n      pop\n        /* \"#utility.yul\":3059:3130   */\n      tag_529\n        /* \"#utility.yul\":3127:3128   */\n      0x00\n        /* \"#utility.yul\":3116:3125   */\n      dup4\n        /* \"#utility.yul\":3112:3129   */\n      add\n        /* \"#utility.yul\":3103:3109   */\n      dup5\n        /* \"#utility.yul\":3059:3130   */\n      tag_446\n      jump\t// in\n    tag_529:\n        /* \"#utility.yul\":2915:3137   */\n      swap3\n      swap2\n      pop\n      pop\n      jump\t// out\n        /* \"#utility.yul\":3143:3256   */\n    tag_447:\n        /* \"#utility.yul\":3230:3231   */\n      0x05\n        /* \"#utility.yul\":3223:3228   */\n      dup2\n        /* \"#utility.yul\":3220:3232   */\n      lt\n        /* \"#utility.yul\":3210:3250   */\n      tag_531\n      jumpi\n        /* \"#utility.yul\":3246:3247   */\n      0x00\n        /* \"#utility.yul\":3243:3244   */\n      dup1\n        /* \"#utility.yul\":3236:3248   */\n      revert\n        /* \"#utility.yul\":3210:3250   */\n    tag_531:\n        /* \"#utility.yul\":3143:3256   */\n      pop\n      jump\t// out\n        /* \"#utility.yul\":3262:3429   */\n    tag_448:\n        /* \"#utility.yul\":3322:3327   */\n      0x00\n        /* \"#utility.yul\":3360:3366   */\n      dup2\n        /* \"#utility.yul\":3347:3367   */\n      calldataload\n        /* \"#utility.yul\":3338:3367   */\n      swap1\n      pop\n        /* \"#utility.yul\":3376:3423   */\n      tag_533\n        /* \"#utility.yul\":3417:3422   */\n      dup2\n        /* \"#utility.yul\":3376:3423   */\n      tag_447\n      jump\t// in\n    tag_533:\n        /* \"#utility.yul\":3262:3429   */\n      swap3\n      swap2\n      pop\n      pop\n      jump\t// out\n        /* \"#utility.yul\":3435:3937   */\n    tag_126:\n        /* \"#utility.yul\":3517:3523   */\n      0x00\n        /* \"#utility.yul\":3525:3531   */\n      dup1\n        /* \"#utility.yul\":3574:3576   */\n      0x40\n        /* \"#utility.yul\":3562:3571   */\n      dup4\n        /* \"#utility.yul\":3553:3560   */\n      dup6\n        /* \"#utility.yul\":3549:3572   */\n      sub\n        /* \"#utility.yul\":3545:3577   */\n      slt\n        /* \"#utility.yul\":3542:3661   */\n      iszero\n      tag_535\n      jumpi\n        /* \"#utility.yul\":3580:3659   */\n      tag_536\n      tag_436\n      jump\t// in\n    tag_536:\n        /* \"#utility.yul\":3542:3661   */\n    tag_535:\n        /* \"#utility.yul\":3700:3701   */\n      0x00\n        /* \"#utility.yul\":3725:3778   */\n      tag_537\n        /* \"#utility.yul\":3770:3777   */\n      dup6\n        /* \"#utility.yul\":3761:3767   */\n      dup3\n        /* \"#utility.yul\":3750:3759   */\n      dup7\n        /* \"#utility.yul\":3746:3768   */\n      add\n        /* \"#utility.yul\":3725:3778   */\n      tag_443\n      jump\t// in\n    tag_537:\n        /* \"#utility.yul\":3715:3778   */\n      swap3\n      pop\n        /* \"#utility.yul\":3671:3788   */\n      pop\n        /* \"#utility.yul\":3827:3829   */\n      0x20\n        /* \"#utility.yul\":3853:3920   */\n      tag_538\n        /* \"#utility.yul\":3912:3919   */\n      dup6\n        /* \"#utility.yul\":3903:3909   */\n      dup3\n        /* \"#utility.yul\":3892:3901   */\n      dup7\n        /* \"#utility.yul\":3888:3910   */\n      add\n        /* \"#utility.yul\":3853:3920   */\n      tag_448\n      jump\t// in\n    tag_538:\n        /* \"#utility.yul\":3843:3920   */\n      swap2\n      pop\n        /* \"#utility.yul\":3798:3930   */\n      pop\n        /* \"#utility.yul\":3435:3937   */\n      swap3\n      pop\n      swap3\n      swap1\n      pop\n      jump\t// out\n        /* \"#utility.yul\":3943:4275   */\n    tag_129:\n        /* \"#utility.yul\":4064:4068   */\n      0x00\n        /* \"#utility.yul\":4102:4104   */\n      0x40\n        /* \"#utility.yul\":4091:4100   */\n      dup3\n        /* \"#utility.yul\":4087:4105   */\n      add\n        /* \"#utility.yul\":4079:4105   */\n      swap1\n      pop\n        /* \"#utility.yul\":4115:4186   */\n      tag_540\n        /* \"#utility.yul\":4183:4184   */\n      0x00\n        /* \"#utility.yul\":4172:4181   */\n      dup4\n        /* \"#utility.yul\":4168:4185   */\n      add\n        /* \"#utility.yul\":4159:4165   */\n      dup6\n        /* \"#utility.yul\":4115:4186   */\n      tag_434\n      jump\t// in\n    tag_540:\n        /* \"#utility.yul\":4196:4268   */\n      tag_541\n        /* \"#utility.yul\":4264:4266   */\n      0x20\n        /* \"#utility.yul\":4253:4262   */\n      dup4\n        /* \"#utility.yul\":4249:4267   */\n      add\n        /* \"#utility.yul\":4240:4246   */\n      dup5\n        /* \"#utility.yul\":4196:4268   */\n      tag_434\n      jump\t// in\n    tag_541:\n        /* \"#utility.yul\":3943:4275   */\n      swap4\n      swap3\n      pop\n      pop\n      pop\n      jump\t// out\n        /* \"#utility.yul\":4281:4450   */\n    tag_449:\n        /* \"#utility.yul\":4365:4376   */\n      0x00\n        /* \"#utility.yul\":4399:4405   */\n      dup3\n        /* \"#utility.yul\":4394:4397   */\n      dup3\n        /* \"#utility.yul\":4387:4406   */\n      mstore\n        /* \"#utility.yul\":4439:4443   */\n      0x20\n        /* \"#utility.yul\":4434:4437   */\n      dup3\n        /* \"#utility.yul\":4430:4444   */\n      add\n        /* \"#utility.yul\":4415:4444   */\n      swap1\n      pop\n        /* \"#utility.yul\":4281:4450   */\n      swap3\n      swap2\n      pop\n      pop\n      jump\t// out\n        /* \"#utility.yul\":4456:4613   */\n    tag_450:\n        /* \"#utility.yul\":4596:4605   */\n      0x4e6f204175746800000000000000000000000000000000000000000000000000\n        /* \"#utility.yul\":4592:4593   */\n      0x00\n        /* \"#utility.yul\":4584:4590   */\n      dup3\n        /* \"#utility.yul\":4580:4594   */\n      add\n        /* \"#utility.yul\":4573:4606   */\n      mstore\n        /* \"#utility.yul\":4456:4613   */\n      pop\n      jump\t// out\n        /* \"#utility.yul\":4619:4984   */\n    tag_451:\n        /* \"#utility.yul\":4761:4764   */\n      0x00\n        /* \"#utility.yul\":4782:4848   */\n      tag_545\n        /* \"#utility.yul\":4846:4847   */\n      0x07\n        /* \"#utility.yul\":4841:4844   */\n      dup4\n        /* \"#utility.yul\":4782:4848   */\n      tag_449\n      jump\t// in\n    tag_545:\n        /* \"#utility.yul\":4775:4848   */\n      swap2\n      pop\n        /* \"#utility.yul\":4857:4950   */\n      tag_546\n        /* \"#utility.yul\":4946:4949   */\n      dup3\n        /* \"#utility.yul\":4857:4950   */\n      tag_450\n      jump\t// in\n    tag_546:\n        /* \"#utility.yul\":4975:4977   */\n      0x20\n        /* \"#utility.yul\":4970:4973   */\n      dup3\n        /* \"#utility.yul\":4966:4978   */\n      add\n        /* \"#utility.yul\":4959:4978   */\n      swap1\n      pop\n        /* \"#utility.yul\":4619:4984   */\n      swap2\n      swap1\n      pop\n      jump\t// out\n        /* \"#utility.yul\":4990:5409   */\n    tag_158:\n        /* \"#utility.yul\":5156:5160   */\n      0x00\n        /* \"#utility.yul\":5194:5196   */\n      0x20\n        /* \"#utility.yul\":5183:5192   */\n      dup3\n        /* \"#utility.yul\":5179:5197   */\n      add\n        /* \"#utility.yul\":5171:5197   */\n      swap1\n      pop\n        /* \"#utility.yul\":5243:5252   */\n      dup2\n        /* \"#utility.yul\":5237:5241   */\n      dup2\n        /* \"#utility.yul\":5233:5253   */\n      sub\n        /* \"#utility.yul\":5229:5230   */\n      0x00\n        /* \"#utility.yul\":5218:5227   */\n      dup4\n        /* \"#utility.yul\":5214:5231   */\n      add\n        /* \"#utility.yul\":5207:5254   */\n      mstore\n        /* \"#utility.yul\":5271:5402   */\n      tag_548\n        /* \"#utility.yul\":5397:5401   */\n      dup2\n        /* \"#utility.yul\":5271:5402   */\n      tag_451\n      jump\t// in\n    tag_548:\n        /* \"#utility.yul\":5263:5402   */\n      swap1\n      pop\n        /* \"#utility.yul\":4990:5409   */\n      swap2\n      swap1\n      pop\n      jump\t// out\n        /* \"#utility.yul\":5415:5581   */\n    tag_452:\n        /* \"#utility.yul\":5555:5573   */\n      0x416c726561647920756e6c6f636b656400000000000000000000000000000000\n        /* \"#utility.yul\":5551:5552   */\n      0x00\n        /* \"#utility.yul\":5543:5549   */\n      dup3\n        /* \"#utility.yul\":5539:5553   */\n      add\n        /* \"#utility.yul\":5532:5574   */\n      mstore\n        /* \"#utility.yul\":5415:5581   */\n      pop\n      jump\t// out\n        /* \"#utility.yul\":5587:5953   */\n    tag_453:\n        /* \"#utility.yul\":5729:5732   */\n      0x00\n        /* \"#utility.yul\":5750:5817   */\n      tag_551\n        /* \"#utility.yul\":5814:5816   */\n      0x10\n        /* \"#utility.yul\":5809:5812   */\n      dup4\n        /* \"#utility.yul\":5750:5817   */\n      tag_449\n      jump\t// in\n    tag_551:\n        /* \"#utility.yul\":5743:5817   */\n      swap2\n      pop\n        /* \"#utility.yul\":5826:5919   */\n      tag_552\n        /* \"#utility.yul\":5915:5918   */\n      dup3\n        /* \"#utility.yul\":5826:5919   */\n      tag_452\n      jump\t// in\n    tag_552:\n        /* \"#utility.yul\":5944:5946   */\n      0x20\n        /* \"#utility.yul\":5939:5942   */\n      dup3\n        /* \"#utility.yul\":5935:5947   */\n      add\n        /* \"#utility.yul\":5928:5947   */\n      swap1\n      pop\n        /* \"#utility.yul\":5587:5953   */\n      swap2\n      swap1\n      pop\n      jump\t// out\n        /* \"#utility.yul\":5959:6378   */\n    tag_161:\n        /* \"#utility.yul\":6125:6129   */\n      0x00\n        /* \"#utility.yul\":6163:6165   */\n      0x20\n        /* \"#utility.yul\":6152:6161   */\n      dup3\n        /* \"#utility.yul\":6148:6166   */\n      add\n        /* \"#utility.yul\":6140:6166   */\n      swap1\n      pop\n        /* \"#utility.yul\":6212:6221   */\n      dup2\n        /* \"#utility.yul\":6206:6210   */\n      dup2\n        /* \"#utility.yul\":6202:6222   */\n      sub\n        /* \"#utility.yul\":6198:6199   */\n      0x00\n        /* \"#utility.yul\":6187:6196   */\n      dup4\n        /* \"#utility.yul\":6183:6200   */\n      add\n        /* \"#utility.yul\":6176:6223   */\n      mstore\n        /* \"#utility.yul\":6240:6371   */\n      tag_554\n        /* \"#utility.yul\":6366:6370   */\n      dup2\n        /* \"#utility.yul\":6240:6371   */\n      tag_453\n      jump\t// in\n    tag_554:\n        /* \"#utility.yul\":6232:6371   */\n      swap1\n      pop\n        /* \"#utility.yul\":5959:6378   */\n      swap2\n      swap1\n      pop\n      jump\t// out\n        /* \"#utility.yul\":6384:6550   */\n    tag_454:\n        /* \"#utility.yul\":6524:6542   */\n      0x4865726f73206e6f74206d696e74656400000000000000000000000000000000\n        /* \"#utility.yul\":6520:6521   */\n      0x00\n        /* \"#utility.yul\":6512:6518   */\n      dup3\n        /* \"#utility.yul\":6508:6522   */\n      add\n        /* \"#utility.yul\":6501:6543   */\n      mstore\n        /* \"#utility.yul\":6384:6550   */\n      pop\n      jump\t// out\n        /* \"#utility.yul\":6556:6922   */\n    tag_455:\n        /* \"#utility.yul\":6698:6701   */\n      0x00\n        /* \"#utility.yul\":6719:6786   */\n      tag_557\n        /* \"#utility.yul\":6783:6785   */\n      0x10\n        /* \"#utility.yul\":6778:6781   */\n      dup4\n        /* \"#utility.yul\":6719:6786   */\n      tag_449\n      jump\t// in\n    tag_557:\n        /* \"#utility.yul\":6712:6786   */\n      swap2\n      pop\n        /* \"#utility.yul\":6795:6888   */\n      tag_558\n        /* \"#utility.yul\":6884:6887   */\n      dup3\n        /* \"#utility.yul\":6795:6888   */\n      tag_454\n      jump\t// in\n    tag_558:\n        /* \"#utility.yul\":6913:6915   */\n      0x20\n        /* \"#utility.yul\":6908:6911   */\n      dup3\n        /* \"#utility.yul\":6904:6916   */\n      add\n        /* \"#utility.yul\":6897:6916   */\n      swap1\n      pop\n        /* \"#utility.yul\":6556:6922   */\n      swap2\n      swap1\n      pop\n      jump\t// out\n        /* \"#utility.yul\":6928:7347   */\n    tag_164:\n        /* \"#utility.yul\":7094:7098   */\n      0x00\n        /* \"#utility.yul\":7132:7134   */\n      0x20\n        /* \"#utility.yul\":7121:7130   */\n      dup3\n        /* \"#utility.yul\":7117:7135   */\n      add\n        /* \"#utility.yul\":7109:7135   */\n      swap1\n      pop\n        /* \"#utility.yul\":7181:7190   */\n      dup2\n        /* \"#utility.yul\":7175:7179   */\n      dup2\n        /* \"#utility.yul\":7171:7191   */\n      sub\n        /* \"#utility.yul\":7167:7168   */\n      0x00\n        /* \"#utility.yul\":7156:7165   */\n      dup4\n        /* \"#utility.yul\":7152:7169   */\n      add\n        /* \"#utility.yul\":7145:7192   */\n      mstore\n        /* \"#utility.yul\":7209:7340   */\n      tag_560\n        /* \"#utility.yul\":7335:7339   */\n      dup2\n        /* \"#utility.yul\":7209:7340   */\n      tag_455\n      jump\t// in\n    tag_560:\n        /* \"#utility.yul\":7201:7340   */\n      swap1\n      pop\n        /* \"#utility.yul\":6928:7347   */\n      swap2\n      swap1\n      pop\n      jump\t// out\n        /* \"#utility.yul\":7353:7519   */\n    tag_456:\n        /* \"#utility.yul\":7493:7511   */\n      0x556e6d696e746564206c6567656e647300000000000000000000000000000000\n        /* \"#utility.yul\":7489:7490   */\n      0x00\n        /* \"#utility.yul\":7481:7487   */\n      dup3\n        /* \"#utility.yul\":7477:7491   */\n      add\n        /* \"#utility.yul\":7470:7512   */\n      mstore\n        /* \"#utility.yul\":7353:7519   */\n      pop\n      jump\t// out\n        /* \"#utility.yul\":7525:7891   */\n    tag_457:\n        /* \"#utility.yul\":7667:7670   */\n      0x00\n        /* \"#utility.yul\":7688:7755   */\n      tag_563\n        /* \"#utility.yul\":7752:7754   */\n      0x10\n        /* \"#utility.yul\":7747:7750   */\n      dup4\n        /* \"#utility.yul\":7688:7755   */\n      tag_449\n      jump\t// in\n    tag_563:\n        /* \"#utility.yul\":7681:7755   */\n      swap2\n      pop\n        /* \"#utility.yul\":7764:7857   */\n      tag_564\n        /* \"#utility.yul\":7853:7856   */\n      dup3\n        /* \"#utility.yul\":7764:7857   */\n      tag_456\n      jump\t// in\n    tag_564:\n        /* \"#utility.yul\":7882:7884   */\n      0x20\n        /* \"#utility.yul\":7877:7880   */\n      dup3\n        /* \"#utility.yul\":7873:7885   */\n      add\n        /* \"#utility.yul\":7866:7885   */\n      swap1\n      pop\n        /* \"#utility.yul\":7525:7891   */\n      swap2\n      swap1\n      pop\n      jump\t// out\n        /* \"#utility.yul\":7897:8316   */\n    tag_170:\n        /* \"#utility.yul\":8063:8067   */\n      0x00\n        /* \"#utility.yul\":8101:8103   */\n      0x20\n        /* \"#utility.yul\":8090:8099   */\n      dup3\n        /* \"#utility.yul\":8086:8104   */\n      add\n        /* \"#utility.yul\":8078:8104   */\n      swap1\n      pop\n        /* \"#utility.yul\":8150:8159   */\n      dup2\n        /* \"#utility.yul\":8144:8148   */\n      dup2\n        /* \"#utility.yul\":8140:8160   */\n      sub\n        /* \"#utility.yul\":8136:8137   */\n      0x00\n        /* \"#utility.yul\":8125:8134   */\n      dup4\n        /* \"#utility.yul\":8121:8138   */\n      add\n        /* \"#utility.yul\":8114:8161   */\n      mstore\n        /* \"#utility.yul\":8178:8309   */\n      tag_566\n        /* \"#utility.yul\":8304:8308   */\n      dup2\n        /* \"#utility.yul\":8178:8309   */\n      tag_457\n      jump\t// in\n    tag_566:\n        /* \"#utility.yul\":8170:8309   */\n      swap1\n      pop\n        /* \"#utility.yul\":7897:8316   */\n      swap2\n      swap1\n      pop\n      jump\t// out\n        /* \"#utility.yul\":8322:8486   */\n    tag_458:\n        /* \"#utility.yul\":8462:8478   */\n      0x556e6d696e746564207261726573000000000000000000000000000000000000\n        /* \"#utility.yul\":8458:8459   */\n      0x00\n        /* \"#utility.yul\":8450:8456   */\n      dup3\n        /* \"#utility.yul\":8446:8460   */\n      add\n        /* \"#utility.yul\":8439:8479   */\n      mstore\n        /* \"#utility.yul\":8322:8486   */\n      pop\n      jump\t// out\n        /* \"#utility.yul\":8492:8858   */\n    tag_459:\n        /* \"#utility.yul\":8634:8637   */\n      0x00\n        /* \"#utility.yul\":8655:8722   */\n      tag_569\n        /* \"#utility.yul\":8719:8721   */\n      0x0e\n        /* \"#utility.yul\":8714:8717   */\n      dup4\n        /* \"#utility.yul\":8655:8722   */\n      tag_449\n      jump\t// in\n    tag_569:\n        /* \"#utility.yul\":8648:8722   */\n      swap2\n      pop\n        /* \"#utility.yul\":8731:8824   */\n      tag_570\n        /* \"#utility.yul\":8820:8823   */\n      dup3\n        /* \"#utility.yul\":8731:8824   */\n      tag_458\n      jump\t// in\n    tag_570:\n        /* \"#utility.yul\":8849:8851   */\n      0x20\n        /* \"#utility.yul\":8844:8847   */\n      dup3\n        /* \"#utility.yul\":8840:8852   */\n      add\n        /* \"#utility.yul\":8833:8852   */\n      swap1\n      pop\n        /* \"#utility.yul\":8492:8858   */\n      swap2\n      swap1\n      pop\n      jump\t// out\n        /* \"#utility.yul\":8864:9283   */\n    tag_175:\n        /* \"#utility.yul\":9030:9034   */\n      0x00\n        /* \"#utility.yul\":9068:9070   */\n      0x20\n        /* \"#utility.yul\":9057:9066   */\n      dup3\n        /* \"#utility.yul\":9053:9071   */\n      add\n        /* \"#utility.yul\":9045:9071   */\n      swap1\n      pop\n        /* \"#utility.yul\":9117:9126   */\n      dup2\n        /* \"#utility.yul\":9111:9115   */\n      dup2\n        /* \"#utility.yul\":9107:9127   */\n      sub\n        /* \"#utility.yul\":9103:9104   */\n      0x00\n        /* \"#utility.yul\":9092:9101   */\n      dup4\n        /* \"#utility.yul\":9088:9105   */\n      add\n        /* \"#utility.yul\":9081:9128   */\n      mstore\n        /* \"#utility.yul\":9145:9276   */\n      tag_572\n        /* \"#utility.yul\":9271:9275   */\n      dup2\n        /* \"#utility.yul\":9145:9276   */\n      tag_459\n      jump\t// in\n    tag_572:\n        /* \"#utility.yul\":9137:9276   */\n      swap1\n      pop\n        /* \"#utility.yul\":8864:9283   */\n      swap2\n      swap1\n      pop\n      jump\t// out\n        /* \"#utility.yul\":9289:9457   */\n    tag_460:\n        /* \"#utility.yul\":9429:9449   */\n      0x556e6d696e74656420756e636f6d6d6f6e730000000000000000000000000000\n        /* \"#utility.yul\":9425:9426   */\n      0x00\n        /* \"#utility.yul\":9417:9423   */\n      dup3\n        /* \"#utility.yul\":9413:9427   */\n      add\n        /* \"#utility.yul\":9406:9450   */\n      mstore\n        /* \"#utility.yul\":9289:9457   */\n      pop\n      jump\t// out\n        /* \"#utility.yul\":9463:9829   */\n    tag_461:\n        /* \"#utility.yul\":9605:9608   */\n      0x00\n        /* \"#utility.yul\":9626:9693   */\n      tag_575\n        /* \"#utility.yul\":9690:9692   */\n      0x12\n        /* \"#utility.yul\":9685:9688   */\n      dup4\n        /* \"#utility.yul\":9626:9693   */\n      tag_449\n      jump\t// in\n    tag_575:\n        /* \"#utility.yul\":9619:9693   */\n      swap2\n      pop\n        /* \"#utility.yul\":9702:9795   */\n      tag_576\n        /* \"#utility.yul\":9791:9794   */\n      dup3\n        /* \"#utility.yul\":9702:9795   */\n      tag_460\n      jump\t// in\n    tag_576:\n        /* \"#utility.yul\":9820:9822   */\n      0x20\n        /* \"#utility.yul\":9815:9818   */\n      dup3\n        /* \"#utility.yul\":9811:9823   */\n      add\n        /* \"#utility.yul\":9804:9823   */\n      swap1\n      pop\n        /* \"#utility.yul\":9463:9829   */\n      swap2\n      swap1\n      pop\n      jump\t// out\n        /* \"#utility.yul\":9835:10254   */\n    tag_180:\n        /* \"#utility.yul\":10001:10005   */\n      0x00\n        /* \"#utility.yul\":10039:10041   */\n      0x20\n        /* \"#utility.yul\":10028:10037   */\n      dup3\n        /* \"#utility.yul\":10024:10042   */\n      add\n        /* \"#utility.yul\":10016:10042   */\n      swap1\n      pop\n        /* \"#utility.yul\":10088:10097   */\n      dup2\n        /* \"#utility.yul\":10082:10086   */\n      dup2\n        /* \"#utility.yul\":10078:10098   */\n      sub\n        /* \"#utility.yul\":10074:10075   */\n      0x00\n        /* \"#utility.yul\":10063:10072   */\n      dup4\n        /* \"#utility.yul\":10059:10076   */\n      add\n        /* \"#utility.yul\":10052:10099   */\n      mstore\n        /* \"#utility.yul\":10116:10247   */\n      tag_578\n        /* \"#utility.yul\":10242:10246   */\n      dup2\n        /* \"#utility.yul\":10116:10247   */\n      tag_461\n      jump\t// in\n    tag_578:\n        /* \"#utility.yul\":10108:10247   */\n      swap1\n      pop\n        /* \"#utility.yul\":9835:10254   */\n      swap2\n      swap1\n      pop\n      jump\t// out\n        /* \"#utility.yul\":10260:10426   */\n    tag_462:\n        /* \"#utility.yul\":10400:10418   */\n      0x556e6d696e74656420636f6d6d6f6e7300000000000000000000000000000000\n        /* \"#utility.yul\":10396:10397   */\n      0x00\n        /* \"#utility.yul\":10388:10394   */\n      dup3\n        /* \"#utility.yul\":10384:10398   */\n      add\n        /* \"#utility.yul\":10377:10419   */\n      mstore\n        /* \"#utility.yul\":10260:10426   */\n      pop\n      jump\t// out\n        /* \"#utility.yul\":10432:10798   */\n    tag_463:\n        /* \"#utility.yul\":10574:10577   */\n      0x00\n        /* \"#utility.yul\":10595:10662   */\n      tag_581\n        /* \"#utility.yul\":10659:10661   */\n      0x10\n        /* \"#utility.yul\":10654:10657   */\n      dup4\n        /* \"#utility.yul\":10595:10662   */\n      tag_449\n      jump\t// in\n    tag_581:\n        /* \"#utility.yul\":10588:10662   */\n      swap2\n      pop\n        /* \"#utility.yul\":10671:10764   */\n      tag_582\n        /* \"#utility.yul\":10760:10763   */\n      dup3\n        /* \"#utility.yul\":10671:10764   */\n      tag_462\n      jump\t// in\n    tag_582:\n        /* \"#utility.yul\":10789:10791   */\n      0x20\n        /* \"#utility.yul\":10784:10787   */\n      dup3\n        /* \"#utility.yul\":10780:10792   */\n      add\n        /* \"#utility.yul\":10773:10792   */\n      swap1\n      pop\n        /* \"#utility.yul\":10432:10798   */\n      swap2\n      swap1\n      pop\n      jump\t// out\n        /* \"#utility.yul\":10804:11223   */\n    tag_185:\n        /* \"#utility.yul\":10970:10974   */\n      0x00\n        /* \"#utility.yul\":11008:11010   */\n      0x20\n        /* \"#utility.yul\":10997:11006   */\n      dup3\n        /* \"#utility.yul\":10993:11011   */\n      add\n        /* \"#utility.yul\":10985:11011   */\n      swap1\n      pop\n        /* \"#utility.yul\":11057:11066   */\n      dup2\n        /* \"#utility.yul\":11051:11055   */\n      dup2\n        /* \"#utility.yul\":11047:11067   */\n      sub\n        /* \"#utility.yul\":11043:11044   */\n      0x00\n        /* \"#utility.yul\":11032:11041   */\n      dup4\n        /* \"#utility.yul\":11028:11045   */\n      add\n        /* \"#utility.yul\":11021:11068   */\n      mstore\n        /* \"#utility.yul\":11085:11216   */\n      tag_584\n        /* \"#utility.yul\":11211:11215   */\n      dup2\n        /* \"#utility.yul\":11085:11216   */\n      tag_463\n      jump\t// in\n    tag_584:\n        /* \"#utility.yul\":11077:11216   */\n      swap1\n      pop\n        /* \"#utility.yul\":10804:11223   */\n      swap2\n      swap1\n      pop\n      jump\t// out\n        /* \"#utility.yul\":11229:11393   */\n    tag_464:\n        /* \"#utility.yul\":11369:11385   */\n      0x416c7265616479206d696e746564000000000000000000000000000000000000\n        /* \"#utility.yul\":11365:11366   */\n      0x00\n        /* \"#utility.yul\":11357:11363   */\n      dup3\n        /* \"#utility.yul\":11353:11367   */\n      add\n        /* \"#utility.yul\":11346:11386   */\n      mstore\n        /* \"#utility.yul\":11229:11393   */\n      pop\n      jump\t// out\n        /* \"#utility.yul\":11399:11765   */\n    tag_465:\n        /* \"#utility.yul\":11541:11544   */\n      0x00\n        /* \"#utility.yul\":11562:11629   */\n      tag_587\n        /* \"#utility.yul\":11626:11628   */\n      0x0e\n        /* \"#utility.yul\":11621:11624   */\n      dup4\n        /* \"#utility.yul\":11562:11629   */\n      tag_449\n      jump\t// in\n    tag_587:\n        /* \"#utility.yul\":11555:11629   */\n      swap2\n      pop\n        /* \"#utility.yul\":11638:11731   */\n      tag_588\n        /* \"#utility.yul\":11727:11730   */\n      dup3\n        /* \"#utility.yul\":11638:11731   */\n      tag_464\n      jump\t// in\n    tag_588:\n        /* \"#utility.yul\":11756:11758   */\n      0x20\n        /* \"#utility.yul\":11751:11754   */\n      dup3\n        /* \"#utility.yul\":11747:11759   */\n      add\n        /* \"#utility.yul\":11740:11759   */\n      swap1\n      pop\n        /* \"#utility.yul\":11399:11765   */\n      swap2\n      swap1\n      pop\n      jump\t// out\n        /* \"#utility.yul\":11771:12190   */\n    tag_197:\n        /* \"#utility.yul\":11937:11941   */\n      0x00\n        /* \"#utility.yul\":11975:11977   */\n      0x20\n        /* \"#utility.yul\":11964:11973   */\n      dup3\n        /* \"#utility.yul\":11960:11978   */\n      add\n        /* \"#utility.yul\":11952:11978   */\n      swap1\n      pop\n        /* \"#utility.yul\":12024:12033   */\n      dup2\n        /* \"#utility.yul\":12018:12022   */\n      dup2\n        /* \"#utility.yul\":12014:12034   */\n      sub\n        /* \"#utility.yul\":12010:12011   */\n      0x00\n        /* \"#utility.yul\":11999:12008   */\n      dup4\n        /* \"#utility.yul\":11995:12012   */\n      add\n        /* \"#utility.yul\":11988:12035   */\n      mstore\n        /* \"#utility.yul\":12052:12183   */\n      tag_590\n        /* \"#utility.yul\":12178:12182   */\n      dup2\n        /* \"#utility.yul\":12052:12183   */\n      tag_465\n      jump\t// in\n    tag_590:\n        /* \"#utility.yul\":12044:12183   */\n      swap1\n      pop\n        /* \"#utility.yul\":11771:12190   */\n      swap2\n      swap1\n      pop\n      jump\t// out\n        /* \"#utility.yul\":12196:12357   */\n    tag_466:\n        /* \"#utility.yul\":12336:12349   */\n      0x6e756d546f4d696e742030000000000000000000000000000000000000000000\n        /* \"#utility.yul\":12332:12333   */\n      0x00\n        /* \"#utility.yul\":12324:12330   */\n      dup3\n        /* \"#utility.yul\":12320:12334   */\n      add\n        /* \"#utility.yul\":12313:12350   */\n      mstore\n        /* \"#utility.yul\":12196:12357   */\n      pop\n      jump\t// out\n        /* \"#utility.yul\":12363:12729   */\n    tag_467:\n        /* \"#utility.yul\":12505:12508   */\n      0x00\n        /* \"#utility.yul\":12526:12593   */\n      tag_593\n        /* \"#utility.yul\":12590:12592   */\n      0x0b\n        /* \"#utility.yul\":12585:12588   */\n      dup4\n        /* \"#utility.yul\":12526:12593   */\n      tag_449\n      jump\t// in\n    tag_593:\n        /* \"#utility.yul\":12519:12593   */\n      swap2\n      pop\n        /* \"#utility.yul\":12602:12695   */\n      tag_594\n        /* \"#utility.yul\":12691:12694   */\n      dup3\n        /* \"#utility.yul\":12602:12695   */\n      tag_466\n      jump\t// in\n    tag_594:\n        /* \"#utility.yul\":12720:12722   */\n      0x20\n        /* \"#utility.yul\":12715:12718   */\n      dup3\n        /* \"#utility.yul\":12711:12723   */\n      add\n        /* \"#utility.yul\":12704:12723   */\n      swap1\n      pop\n        /* \"#utility.yul\":12363:12729   */\n      swap2\n      swap1\n      pop\n      jump\t// out\n        /* \"#utility.yul\":12735:13154   */\n    tag_259:\n        /* \"#utility.yul\":12901:12905   */\n      0x00\n        /* \"#utility.yul\":12939:12941   */\n      0x20\n        /* \"#utility.yul\":12928:12937   */\n      dup3\n        /* \"#utility.yul\":12924:12942   */\n      add\n        /* \"#utility.yul\":12916:12942   */\n      swap1\n      pop\n        /* \"#utility.yul\":12988:12997   */\n      dup2\n        /* \"#utility.yul\":12982:12986   */\n      dup2\n        /* \"#utility.yul\":12978:12998   */\n      sub\n        /* \"#utility.yul\":12974:12975   */\n      0x00\n        /* \"#utility.yul\":12963:12972   */\n      dup4\n        /* \"#utility.yul\":12959:12976   */\n      add\n        /* \"#utility.yul\":12952:12999   */\n      mstore\n        /* \"#utility.yul\":13016:13147   */\n      tag_596\n        /* \"#utility.yul\":13142:13146   */\n      dup2\n        /* \"#utility.yul\":13016:13147   */\n      tag_467\n      jump\t// in\n    tag_596:\n        /* \"#utility.yul\":13008:13147   */\n      swap1\n      pop\n        /* \"#utility.yul\":12735:13154   */\n      swap2\n      swap1\n      pop\n      jump\t// out\n        /* \"#utility.yul\":13160:13340   */\n    tag_264:\n        /* \"#utility.yul\":13208:13285   */\n      0x4e487b7100000000000000000000000000000000000000000000000000000000\n        /* \"#utility.yul\":13205:13206   */\n      0x00\n        /* \"#utility.yul\":13198:13286   */\n      mstore\n        /* \"#utility.yul\":13305:13309   */\n      0x21\n        /* \"#utility.yul\":13302:13303   */\n      0x04\n        /* \"#utility.yul\":13295:13310   */\n      mstore\n        /* \"#utility.yul\":13329:13333   */\n      0x24\n        /* \"#utility.yul\":13326:13327   */\n      0x00\n        /* \"#utility.yul\":13319:13334   */\n      revert\n        /* \"#utility.yul\":13346:13435   */\n    tag_468:\n        /* \"#utility.yul\":13382:13389   */\n      0x00\n        /* \"#utility.yul\":13422:13428   */\n      0xffff\n        /* \"#utility.yul\":13415:13420   */\n      dup3\n        /* \"#utility.yul\":13411:13429   */\n      and\n        /* \"#utility.yul\":13400:13429   */\n      swap1\n      pop\n        /* \"#utility.yul\":13346:13435   */\n      swap2\n      swap1\n      pop\n      jump\t// out\n        /* \"#utility.yul\":13441:13621   */\n    tag_469:\n        /* \"#utility.yul\":13489:13566   */\n      0x4e487b7100000000000000000000000000000000000000000000000000000000\n        /* \"#utility.yul\":13486:13487   */\n      0x00\n        /* \"#utility.yul\":13479:13567   */\n      mstore\n        /* \"#utility.yul\":13586:13590   */\n      0x11\n        /* \"#utility.yul\":13583:13584   */\n      0x04\n        /* \"#utility.yul\":13576:13591   */\n      mstore\n        /* \"#utility.yul\":13610:13614   */\n      0x24\n        /* \"#utility.yul\":13607:13608   */\n      0x00\n        /* \"#utility.yul\":13600:13615   */\n      revert\n        /* \"#utility.yul\":13627:13820   */\n    tag_270:\n        /* \"#utility.yul\":13666:13669   */\n      0x00\n        /* \"#utility.yul\":13685:13704   */\n      tag_601\n        /* \"#utility.yul\":13702:13703   */\n      dup3\n        /* \"#utility.yul\":13685:13704   */\n      tag_468\n      jump\t// in\n    tag_601:\n        /* \"#utility.yul\":13680:13704   */\n      swap2\n      pop\n        /* \"#utility.yul\":13718:13737   */\n      tag_602\n        /* \"#utility.yul\":13735:13736   */\n      dup4\n        /* \"#utility.yul\":13718:13737   */\n      tag_468\n      jump\t// in\n    tag_602:\n        /* \"#utility.yul\":13713:13737   */\n      swap3\n      pop\n        /* \"#utility.yul\":13760:13761   */\n      dup3\n        /* \"#utility.yul\":13757:13758   */\n      dup3\n        /* \"#utility.yul\":13753:13762   */\n      add\n        /* \"#utility.yul\":13746:13762   */\n      swap1\n      pop\n        /* \"#utility.yul\":13783:13789   */\n      0xffff\n        /* \"#utility.yul\":13778:13781   */\n      dup2\n        /* \"#utility.yul\":13775:13790   */\n      gt\n        /* \"#utility.yul\":13772:13813   */\n      iszero\n      tag_603\n      jumpi\n        /* \"#utility.yul\":13793:13811   */\n      tag_604\n      tag_469\n      jump\t// in\n    tag_604:\n        /* \"#utility.yul\":13772:13813   */\n    tag_603:\n        /* \"#utility.yul\":13627:13820   */\n      swap3\n      swap2\n      pop\n      pop\n      jump\t// out\n        /* \"#utility.yul\":13826:14022   */\n    tag_274:\n        /* \"#utility.yul\":13865:13869   */\n      0x00\n        /* \"#utility.yul\":13885:13904   */\n      tag_606\n        /* \"#utility.yul\":13902:13903   */\n      dup3\n        /* \"#utility.yul\":13885:13904   */\n      tag_468\n      jump\t// in\n    tag_606:\n        /* \"#utility.yul\":13880:13904   */\n      swap2\n      pop\n        /* \"#utility.yul\":13918:13937   */\n      tag_607\n        /* \"#utility.yul\":13935:13936   */\n      dup4\n        /* \"#utility.yul\":13918:13937   */\n      tag_468\n      jump\t// in\n    tag_607:\n        /* \"#utility.yul\":13913:13937   */\n      swap3\n      pop\n        /* \"#utility.yul\":13961:13962   */\n      dup3\n        /* \"#utility.yul\":13958:13959   */\n      dup3\n        /* \"#utility.yul\":13954:13963   */\n      sub\n        /* \"#utility.yul\":13946:13963   */\n      swap1\n      pop\n        /* \"#utility.yul\":13985:13991   */\n      0xffff\n        /* \"#utility.yul\":13979:13983   */\n      dup2\n        /* \"#utility.yul\":13976:13992   */\n      gt\n        /* \"#utility.yul\":13973:14015   */\n      iszero\n      tag_608\n      jumpi\n        /* \"#utility.yul\":13995:14013   */\n      tag_609\n      tag_469\n      jump\t// in\n    tag_609:\n        /* \"#utility.yul\":13973:14015   */\n    tag_608:\n        /* \"#utility.yul\":13826:14022   */\n      swap3\n      swap2\n      pop\n      pop\n      jump\t// out\n        /* \"#utility.yul\":14028:14191   */\n    tag_470:\n        /* \"#utility.yul\":14168:14183   */\n      0x496e76616c696420636c61737300000000000000000000000000000000000000\n        /* \"#utility.yul\":14164:14165   */\n      0x00\n        /* \"#utility.yul\":14156:14162   */\n      dup3\n        /* \"#utility.yul\":14152:14166   */\n      add\n        /* \"#utility.yul\":14145:14184   */\n      mstore\n        /* \"#utility.yul\":14028:14191   */\n      pop\n      jump\t// out\n        /* \"#utility.yul\":14197:14563   */\n    tag_471:\n        /* \"#utility.yul\":14339:14342   */\n      0x00\n        /* \"#utility.yul\":14360:14427   */\n      tag_612\n        /* \"#utility.yul\":14424:14426   */\n      0x0d\n        /* \"#utility.yul\":14419:14422   */\n      dup4\n        /* \"#utility.yul\":14360:14427   */\n      tag_449\n      jump\t// in\n    tag_612:\n        /* \"#utility.yul\":14353:14427   */\n      swap2\n      pop\n        /* \"#utility.yul\":14436:14529   */\n      tag_613\n        /* \"#utility.yul\":14525:14528   */\n      dup3\n        /* \"#utility.yul\":14436:14529   */\n      tag_470\n      jump\t// in\n    tag_613:\n        /* \"#utility.yul\":14554:14556   */\n      0x20\n        /* \"#utility.yul\":14549:14552   */\n      dup3\n        /* \"#utility.yul\":14545:14557   */\n      add\n        /* \"#utility.yul\":14538:14557   */\n      swap1\n      pop\n        /* \"#utility.yul\":14197:14563   */\n      swap2\n      swap1\n      pop\n      jump\t// out\n        /* \"#utility.yul\":14569:14988   */\n    tag_310:\n        /* \"#utility.yul\":14735:14739   */\n      0x00\n        /* \"#utility.yul\":14773:14775   */\n      0x20\n        /* \"#utility.yul\":14762:14771   */\n      dup3\n        /* \"#utility.yul\":14758:14776   */\n      add\n        /* \"#utility.yul\":14750:14776   */\n      swap1\n      pop\n        /* \"#utility.yul\":14822:14831   */\n      dup2\n        /* \"#utility.yul\":14816:14820   */\n      dup2\n        /* \"#utility.yul\":14812:14832   */\n      sub\n        /* \"#utility.yul\":14808:14809   */\n      0x00\n        /* \"#utility.yul\":14797:14806   */\n      dup4\n        /* \"#utility.yul\":14793:14810   */\n      add\n        /* \"#utility.yul\":14786:14833   */\n      mstore\n        /* \"#utility.yul\":14850:14981   */\n      tag_615\n        /* \"#utility.yul\":14976:14980   */\n      dup2\n        /* \"#utility.yul\":14850:14981   */\n      tag_471\n      jump\t// in\n    tag_615:\n        /* \"#utility.yul\":14842:14981   */\n      swap1\n      pop\n        /* \"#utility.yul\":14569:14988   */\n      swap2\n      swap1\n      pop\n      jump\t// out\n        /* \"#utility.yul\":14994:15163   */\n    tag_472:\n        /* \"#utility.yul\":15134:15155   */\n      0x737570706c7920696e73756666696369656e7400000000000000000000000000\n        /* \"#utility.yul\":15130:15131   */\n      0x00\n        /* \"#utility.yul\":15122:15128   */\n      dup3\n        /* \"#utility.yul\":15118:15132   */\n      add\n        /* \"#utility.yul\":15111:15156   */\n      mstore\n        /* \"#utility.yul\":14994:15163   */\n      pop\n      jump\t// out\n        /* \"#utility.yul\":15169:15535   */\n    tag_473:\n        /* \"#utility.yul\":15311:15314   */\n      0x00\n        /* \"#utility.yul\":15332:15399   */\n      tag_618\n        /* \"#utility.yul\":15396:15398   */\n      0x13\n        /* \"#utility.yul\":15391:15394   */\n      dup4\n        /* \"#utility.yul\":15332:15399   */\n      tag_449\n      jump\t// in\n    tag_618:\n        /* \"#utility.yul\":15325:15399   */\n      swap2\n      pop\n        /* \"#utility.yul\":15408:15501   */\n      tag_619\n        /* \"#utility.yul\":15497:15500   */\n      dup3\n        /* \"#utility.yul\":15408:15501   */\n      tag_472\n      jump\t// in\n    tag_619:\n        /* \"#utility.yul\":15526:15528   */\n      0x20\n        /* \"#utility.yul\":15521:15524   */\n      dup3\n        /* \"#utility.yul\":15517:15529   */\n      add\n        /* \"#utility.yul\":15510:15529   */\n      swap1\n      pop\n        /* \"#utility.yul\":15169:15535   */\n      swap2\n      swap1\n      pop\n      jump\t// out\n        /* \"#utility.yul\":15541:15960   */\n    tag_314:\n        /* \"#utility.yul\":15707:15711   */\n      0x00\n        /* \"#utility.yul\":15745:15747   */\n      0x20\n        /* \"#utility.yul\":15734:15743   */\n      dup3\n        /* \"#utility.yul\":15730:15748   */\n      add\n        /* \"#utility.yul\":15722:15748   */\n      swap1\n      pop\n        /* \"#utility.yul\":15794:15803   */\n      dup2\n        /* \"#utility.yul\":15788:15792   */\n      dup2\n        /* \"#utility.yul\":15784:15804   */\n      sub\n        /* \"#utility.yul\":15780:15781   */\n      0x00\n        /* \"#utility.yul\":15769:15778   */\n      dup4\n        /* \"#utility.yul\":15765:15782   */\n      add\n        /* \"#utility.yul\":15758:15805   */\n      mstore\n        /* \"#utility.yul\":15822:15953   */\n      tag_621\n        /* \"#utility.yul\":15948:15952   */\n      dup2\n        /* \"#utility.yul\":15822:15953   */\n      tag_473\n      jump\t// in\n    tag_621:\n        /* \"#utility.yul\":15814:15953   */\n      swap1\n      pop\n        /* \"#utility.yul\":15541:15960   */\n      swap2\n      swap1\n      pop\n      jump\t// out\n        /* \"#utility.yul\":15966:16140   */\n    tag_474:\n        /* \"#utility.yul\":16106:16132   */\n      0x6e6f207075626c696320726f756e6420756e6c6f636b65640000000000000000\n        /* \"#utility.yul\":16102:16103   */\n      0x00\n        /* \"#utility.yul\":16094:16100   */\n      dup3\n        /* \"#utility.yul\":16090:16104   */\n      add\n        /* \"#utility.yul\":16083:16133   */\n      mstore\n        /* \"#utility.yul\":15966:16140   */\n      pop\n      jump\t// out\n        /* \"#utility.yul\":16146:16512   */\n    tag_475:\n        /* \"#utility.yul\":16288:16291   */\n      0x00\n        /* \"#utility.yul\":16309:16376   */\n      tag_624\n        /* \"#utility.yul\":16373:16375   */\n      0x18\n        /* \"#utility.yul\":16368:16371   */\n      dup4\n        /* \"#utility.yul\":16309:16376   */\n      tag_449\n      jump\t// in\n    tag_624:\n        /* \"#utility.yul\":16302:16376   */\n      swap2\n      pop\n        /* \"#utility.yul\":16385:16478   */\n      tag_625\n        /* \"#utility.yul\":16474:16477   */\n      dup3\n        /* \"#utility.yul\":16385:16478   */\n      tag_474\n      jump\t// in\n    tag_625:\n        /* \"#utility.yul\":16503:16505   */\n      0x20\n        /* \"#utility.yul\":16498:16501   */\n      dup3\n        /* \"#utility.yul\":16494:16506   */\n      add\n        /* \"#utility.yul\":16487:16506   */\n      swap1\n      pop\n        /* \"#utility.yul\":16146:16512   */\n      swap2\n      swap1\n      pop\n      jump\t// out\n        /* \"#utility.yul\":16518:16937   */\n    tag_325:\n        /* \"#utility.yul\":16684:16688   */\n      0x00\n        /* \"#utility.yul\":16722:16724   */\n      0x20\n        /* \"#utility.yul\":16711:16720   */\n      dup3\n        /* \"#utility.yul\":16707:16725   */\n      add\n        /* \"#utility.yul\":16699:16725   */\n      swap1\n      pop\n        /* \"#utility.yul\":16771:16780   */\n      dup2\n        /* \"#utility.yul\":16765:16769   */\n      dup2\n        /* \"#utility.yul\":16761:16781   */\n      sub\n        /* \"#utility.yul\":16757:16758   */\n      0x00\n        /* \"#utility.yul\":16746:16755   */\n      dup4\n        /* \"#utility.yul\":16742:16759   */\n      add\n        /* \"#utility.yul\":16735:16782   */\n      mstore\n        /* \"#utility.yul\":16799:16930   */\n      tag_627\n        /* \"#utility.yul\":16925:16929   */\n      dup2\n        /* \"#utility.yul\":16799:16930   */\n      tag_475\n      jump\t// in\n    tag_627:\n        /* \"#utility.yul\":16791:16930   */\n      swap1\n      pop\n        /* \"#utility.yul\":16518:16937   */\n      swap2\n      swap1\n      pop\n      jump\t// out\n        /* \"#utility.yul\":16943:17168   */\n    tag_476:\n        /* \"#utility.yul\":17083:17117   */\n      0x4f776e61626c653a206e6577206f776e657220697320746865207a65726f2061\n        /* \"#utility.yul\":17079:17080   */\n      0x00\n        /* \"#utility.yul\":17071:17077   */\n      dup3\n        /* \"#utility.yul\":17067:17081   */\n      add\n        /* \"#utility.yul\":17060:17118   */\n      mstore\n        /* \"#utility.yul\":17152:17160   */\n      0x6464726573730000000000000000000000000000000000000000000000000000\n        /* \"#utility.yul\":17147:17149   */\n      0x20\n        /* \"#utility.yul\":17139:17145   */\n      dup3\n        /* \"#utility.yul\":17135:17150   */\n      add\n        /* \"#utility.yul\":17128:17161   */\n      mstore\n        /* \"#utility.yul\":16943:17168   */\n      pop\n      jump\t// out\n        /* \"#utility.yul\":17174:17540   */\n    tag_477:\n        /* \"#utility.yul\":17316:17319   */\n      0x00\n        /* \"#utility.yul\":17337:17404   */\n      tag_630\n        /* \"#utility.yul\":17401:17403   */\n      0x26\n        /* \"#utility.yul\":17396:17399   */\n      dup4\n        /* \"#utility.yul\":17337:17404   */\n      tag_449\n      jump\t// in\n    tag_630:\n        /* \"#utility.yul\":17330:17404   */\n      swap2\n      pop\n        /* \"#utility.yul\":17413:17506   */\n      tag_631\n        /* \"#utility.yul\":17502:17505   */\n      dup3\n        /* \"#utility.yul\":17413:17506   */\n      tag_476\n      jump\t// in\n    tag_631:\n        /* \"#utility.yul\":17531:17533   */\n      0x40\n        /* \"#utility.yul\":17526:17529   */\n      dup3\n        /* \"#utility.yul\":17522:17534   */\n      add\n        /* \"#utility.yul\":17515:17534   */\n      swap1\n      pop\n        /* \"#utility.yul\":17174:17540   */\n      swap2\n      swap1\n      pop\n      jump\t// out\n        /* \"#utility.yul\":17546:17965   */\n    tag_335:\n        /* \"#utility.yul\":17712:17716   */\n      0x00\n        /* \"#utility.yul\":17750:17752   */\n      0x20\n        /* \"#utility.yul\":17739:17748   */\n      dup3\n        /* \"#utility.yul\":17735:17753   */\n      add\n        /* \"#utility.yul\":17727:17753   */\n      swap1\n      pop\n        /* \"#utility.yul\":17799:17808   */\n      dup2\n        /* \"#utility.yul\":17793:17797   */\n      dup2\n        /* \"#utility.yul\":17789:17809   */\n      sub\n        /* \"#utility.yul\":17785:17786   */\n      0x00\n        /* \"#utility.yul\":17774:17783   */\n      dup4\n        /* \"#utility.yul\":17770:17787   */\n      add\n        /* \"#utility.yul\":17763:17810   */\n      mstore\n        /* \"#utility.yul\":17827:17958   */\n      tag_633\n        /* \"#utility.yul\":17953:17957   */\n      dup2\n        /* \"#utility.yul\":17827:17958   */\n      tag_477\n      jump\t// in\n    tag_633:\n        /* \"#utility.yul\":17819:17958   */\n      swap1\n      pop\n        /* \"#utility.yul\":17546:17965   */\n      swap2\n      swap1\n      pop\n      jump\t// out\n        /* \"#utility.yul\":17971:18137   */\n    tag_478:\n        /* \"#utility.yul\":18111:18129   */\n      0x5061757361626c653a2070617573656400000000000000000000000000000000\n        /* \"#utility.yul\":18107:18108   */\n      0x00\n        /* \"#utility.yul\":18099:18105   */\n      dup3\n        /* \"#utility.yul\":18095:18109   */\n      add\n        /* \"#utility.yul\":18088:18130   */\n      mstore\n        /* \"#utility.yul\":17971:18137   */\n      pop\n      jump\t// out\n        /* \"#utility.yul\":18143:18509   */\n    tag_479:\n        /* \"#utility.yul\":18285:18288   */\n      0x00\n        /* \"#utility.yul\":18306:18373   */\n      tag_636\n        /* \"#utility.yul\":18370:18372   */\n      0x10\n        /* \"#utility.yul\":18365:18368   */\n      dup4\n        /* \"#utility.yul\":18306:18373   */\n      tag_449\n      jump\t// in\n    tag_636:\n        /* \"#utility.yul\":18299:18373   */\n      swap2\n      pop\n        /* \"#utility.yul\":18382:18475   */\n      tag_637\n        /* \"#utility.yul\":18471:18474   */\n      dup3\n        /* \"#utility.yul\":18382:18475   */\n      tag_478\n      jump\t// in\n    tag_637:\n        /* \"#utility.yul\":18500:18502   */\n      0x20\n        /* \"#utility.yul\":18495:18498   */\n      dup3\n        /* \"#utility.yul\":18491:18503   */\n      add\n        /* \"#utility.yul\":18484:18503   */\n      swap1\n      pop\n        /* \"#utility.yul\":18143:18509   */\n      swap2\n      swap1\n      pop\n      jump\t// out\n        /* \"#utility.yul\":18515:18934   */\n    tag_345:\n        /* \"#utility.yul\":18681:18685   */\n      0x00\n        /* \"#utility.yul\":18719:18721   */\n      0x20\n        /* \"#utility.yul\":18708:18717   */\n      dup3\n        /* \"#utility.yul\":18704:18722   */\n      add\n        /* \"#utility.yul\":18696:18722   */\n      swap1\n      pop\n        /* \"#utility.yul\":18768:18777   */\n      dup2\n        /* \"#utility.yul\":18762:18766   */\n      dup2\n        /* \"#utility.yul\":18758:18778   */\n      sub\n        /* \"#utility.yul\":18754:18755   */\n      0x00\n        /* \"#utility.yul\":18743:18752   */\n      dup4\n        /* \"#utility.yul\":18739:18756   */\n      add\n        /* \"#utility.yul\":18732:18779   */\n      mstore\n        /* \"#utility.yul\":18796:18927   */\n      tag_639\n        /* \"#utility.yul\":18922:18926   */\n      dup2\n        /* \"#utility.yul\":18796:18927   */\n      tag_479\n      jump\t// in\n    tag_639:\n        /* \"#utility.yul\":18788:18927   */\n      swap1\n      pop\n        /* \"#utility.yul\":18515:18934   */\n      swap2\n      swap1\n      pop\n      jump\t// out\n        /* \"#utility.yul\":18940:19272   */\n    tag_356:\n        /* \"#utility.yul\":19061:19065   */\n      0x00\n        /* \"#utility.yul\":19099:19101   */\n      0x40\n        /* \"#utility.yul\":19088:19097   */\n      dup3\n        /* \"#utility.yul\":19084:19102   */\n      add\n        /* \"#utility.yul\":19076:19102   */\n      swap1\n      pop\n        /* \"#utility.yul\":19112:19183   */\n      tag_641\n        /* \"#utility.yul\":19180:19181   */\n      0x00\n        /* \"#utility.yul\":19169:19178   */\n      dup4\n        /* \"#utility.yul\":19165:19182   */\n      add\n        /* \"#utility.yul\":19156:19162   */\n      dup6\n        /* \"#utility.yul\":19112:19183   */\n      tag_446\n      jump\t// in\n    tag_641:\n        /* \"#utility.yul\":19193:19265   */\n      tag_642\n        /* \"#utility.yul\":19261:19263   */\n      0x20\n        /* \"#utility.yul\":19250:19259   */\n      dup4\n        /* \"#utility.yul\":19246:19264   */\n      add\n        /* \"#utility.yul\":19237:19243   */\n      dup5\n        /* \"#utility.yul\":19193:19265   */\n      tag_434\n      jump\t// in\n    tag_642:\n        /* \"#utility.yul\":18940:19272   */\n      swap4\n      swap3\n      pop\n      pop\n      pop\n      jump\t// out\n        /* \"#utility.yul\":19278:19397   */\n    tag_480:\n        /* \"#utility.yul\":19365:19366   */\n      0x05\n        /* \"#utility.yul\":19358:19363   */\n      dup2\n        /* \"#utility.yul\":19355:19367   */\n      lt\n        /* \"#utility.yul\":19345:19391   */\n      tag_644\n      jumpi\n        /* \"#utility.yul\":19371:19389   */\n      tag_645\n      tag_264\n      jump\t// in\n    tag_645:\n        /* \"#utility.yul\":19345:19391   */\n    tag_644:\n        /* \"#utility.yul\":19278:19397   */\n      pop\n      jump\t// out\n        /* \"#utility.yul\":19403:19542   */\n    tag_481:\n        /* \"#utility.yul\":19454:19461   */\n      0x00\n        /* \"#utility.yul\":19483:19488   */\n      dup2\n        /* \"#utility.yul\":19472:19488   */\n      swap1\n      pop\n        /* \"#utility.yul\":19489:19536   */\n      tag_647\n        /* \"#utility.yul\":19530:19535   */\n      dup3\n        /* \"#utility.yul\":19489:19536   */\n      tag_480\n      jump\t// in\n    tag_647:\n        /* \"#utility.yul\":19403:19542   */\n      swap2\n      swap1\n      pop\n      jump\t// out\n        /* \"#utility.yul\":19548:19687   */\n    tag_482:\n        /* \"#utility.yul\":19610:19619   */\n      0x00\n        /* \"#utility.yul\":19643:19681   */\n      tag_649\n        /* \"#utility.yul\":19675:19680   */\n      dup3\n        /* \"#utility.yul\":19643:19681   */\n      tag_481\n      jump\t// in\n    tag_649:\n        /* \"#utility.yul\":19630:19681   */\n      swap1\n      pop\n        /* \"#utility.yul\":19548:19687   */\n      swap2\n      swap1\n      pop\n      jump\t// out\n        /* \"#utility.yul\":19693:19848   */\n    tag_483:\n        /* \"#utility.yul\":19792:19841   */\n      tag_651\n        /* \"#utility.yul\":19835:19840   */\n      dup2\n        /* \"#utility.yul\":19792:19841   */\n      tag_482\n      jump\t// in\n    tag_651:\n        /* \"#utility.yul\":19787:19790   */\n      dup3\n        /* \"#utility.yul\":19780:19842   */\n      mstore\n        /* \"#utility.yul\":19693:19848   */\n      pop\n      pop\n      jump\t// out\n        /* \"#utility.yul\":19854:20210   */\n    tag_361:\n        /* \"#utility.yul\":19987:19991   */\n      0x00\n        /* \"#utility.yul\":20025:20027   */\n      0x40\n        /* \"#utility.yul\":20014:20023   */\n      dup3\n        /* \"#utility.yul\":20010:20028   */\n      add\n        /* \"#utility.yul\":20002:20028   */\n      swap1\n      pop\n        /* \"#utility.yul\":20038:20109   */\n      tag_653\n        /* \"#utility.yul\":20106:20107   */\n      0x00\n        /* \"#utility.yul\":20095:20104   */\n      dup4\n        /* \"#utility.yul\":20091:20108   */\n      add\n        /* \"#utility.yul\":20082:20088   */\n      dup6\n        /* \"#utility.yul\":20038:20109   */\n      tag_446\n      jump\t// in\n    tag_653:\n        /* \"#utility.yul\":20119:20203   */\n      tag_654\n        /* \"#utility.yul\":20199:20201   */\n      0x20\n        /* \"#utility.yul\":20188:20197   */\n      dup4\n        /* \"#utility.yul\":20184:20202   */\n      add\n        /* \"#utility.yul\":20175:20181   */\n      dup5\n        /* \"#utility.yul\":20119:20203   */\n      tag_483\n      jump\t// in\n    tag_654:\n        /* \"#utility.yul\":19854:20210   */\n      swap4\n      swap3\n      pop\n      pop\n      pop\n      jump\t// out\n        /* \"#utility.yul\":20216:20449   */\n    tag_396:\n        /* \"#utility.yul\":20255:20258   */\n      0x00\n        /* \"#utility.yul\":20278:20302   */\n      tag_656\n        /* \"#utility.yul\":20296:20301   */\n      dup3\n        /* \"#utility.yul\":20278:20302   */\n      tag_433\n      jump\t// in\n    tag_656:\n        /* \"#utility.yul\":20269:20302   */\n      swap2\n      pop\n        /* \"#utility.yul\":20324:20390   */\n      0xffffffffffffffffffffffffffffffffffffffffffffffffffffffffffffffff\n        /* \"#utility.yul\":20317:20322   */\n      dup3\n        /* \"#utility.yul\":20314:20391   */\n      sub\n        /* \"#utility.yul\":20311:20414   */\n      tag_657\n      jumpi\n        /* \"#utility.yul\":20394:20412   */\n      tag_658\n      tag_469\n      jump\t// in\n    tag_658:\n        /* \"#utility.yul\":20311:20414   */\n    tag_657:\n        /* \"#utility.yul\":20441:20442   */\n      0x01\n        /* \"#utility.yul\":20434:20439   */\n      dup3\n        /* \"#utility.yul\":20430:20443   */\n      add\n        /* \"#utility.yul\":20423:20443   */\n      swap1\n      pop\n        /* \"#utility.yul\":20216:20449   */\n      swap2\n      swap1\n      pop\n      jump\t// out\n        /* \"#utility.yul\":20455:20649   */\n    tag_398:\n        /* \"#utility.yul\":20495:20499   */\n      0x00\n        /* \"#utility.yul\":20515:20535   */\n      tag_660\n        /* \"#utility.yul\":20533:20534   */\n      dup3\n        /* \"#utility.yul\":20515:20535   */\n      tag_433\n      jump\t// in\n    tag_660:\n        /* \"#utility.yul\":20510:20535   */\n      swap2\n      pop\n        /* \"#utility.yul\":20549:20569   */\n      tag_661\n        /* \"#utility.yul\":20567:20568   */\n      dup4\n        /* \"#utility.yul\":20549:20569   */\n      tag_433\n      jump\t// in\n    tag_661:\n        /* \"#utility.yul\":20544:20569   */\n      swap3\n      pop\n        /* \"#utility.yul\":20593:20594   */\n      dup3\n        /* \"#utility.yul\":20590:20591   */\n      dup3\n        /* \"#utility.yul\":20586:20595   */\n      sub\n        /* \"#utility.yul\":20578:20595   */\n      swap1\n      pop\n        /* \"#utility.yul\":20617:20618   */\n      dup2\n        /* \"#utility.yul\":20611:20615   */\n      dup2\n        /* \"#utility.yul\":20608:20619   */\n      gt\n        /* \"#utility.yul\":20605:20642   */\n      iszero\n      tag_662\n      jumpi\n        /* \"#utility.yul\":20622:20640   */\n      tag_663\n      tag_469\n      jump\t// in\n    tag_663:\n        /* \"#utility.yul\":20605:20642   */\n    tag_662:\n        /* \"#utility.yul\":20455:20649   */\n      swap3\n      swap2\n      pop\n      pop\n      jump\t// out\n        /* \"#utility.yul\":20655:20846   */\n    tag_400:\n        /* \"#utility.yul\":20695:20698   */\n      0x00\n        /* \"#utility.yul\":20714:20734   */\n      tag_665\n        /* \"#utility.yul\":20732:20733   */\n      dup3\n        /* \"#utility.yul\":20714:20734   */\n      tag_433\n      jump\t// in\n    tag_665:\n        /* \"#utility.yul\":20709:20734   */\n      swap2\n      pop\n        /* \"#utility.yul\":20748:20768   */\n      tag_666\n        /* \"#utility.yul\":20766:20767   */\n      dup4\n        /* \"#utility.yul\":20748:20768   */\n      tag_433\n      jump\t// in\n    tag_666:\n        /* \"#utility.yul\":20743:20768   */\n      swap3\n      pop\n        /* \"#utility.yul\":20791:20792   */\n      dup3\n        /* \"#utility.yul\":20788:20789   */\n      dup3\n        /* \"#utility.yul\":20784:20793   */\n      add\n        /* \"#utility.yul\":20777:20793   */\n      swap1\n      pop\n        /* \"#utility.yul\":20812:20815   */\n      dup1\n        /* \"#utility.yul\":20809:20810   */\n      dup3\n        /* \"#utility.yul\":20806:20816   */\n      gt\n        /* \"#utility.yul\":20803:20839   */\n      iszero\n      tag_667\n      jumpi\n        /* \"#utility.yul\":20819:20837   */\n      tag_668\n      tag_469\n      jump\t// in\n    tag_668:\n        /* \"#utility.yul\":20803:20839   */\n    tag_667:\n        /* \"#utility.yul\":20655:20846   */\n      swap3\n      swap2\n      pop\n      pop\n      jump\t// out\n        /* \"#utility.yul\":20852:21033   */\n    tag_484:\n        /* \"#utility.yul\":20992:21025   */\n      0x5265656e7472616e637947756172643a207265656e7472616e742063616c6c00\n        /* \"#utility.yul\":20988:20989   */\n      0x00\n        /* \"#utility.yul\":20980:20986   */\n      dup3\n        /* \"#utility.yul\":20976:20990   */\n      add\n        /* \"#utility.yul\":20969:21026   */\n      mstore\n        /* \"#utility.yul\":20852:21033   */\n      pop\n      jump\t// out\n        /* \"#utility.yul\":21039:21405   */\n    tag_485:\n        /* \"#utility.yul\":21181:21184   */\n      0x00\n        /* \"#utility.yul\":21202:21269   */\n      tag_671\n        /* \"#utility.yul\":21266:21268   */\n      0x1f\n        /* \"#utility.yul\":21261:21264   */\n      dup4\n        /* \"#utility.yul\":21202:21269   */\n      tag_449\n      jump\t// in\n    tag_671:\n        /* \"#utility.yul\":21195:21269   */\n      swap2\n      pop\n        /* \"#utility.yul\":21278:21371   */\n      tag_672\n        /* \"#utility.yul\":21367:21370   */\n      dup3\n        /* \"#utility.yul\":21278:21371   */\n      tag_484\n      jump\t// in\n    tag_672:\n        /* \"#utility.yul\":21396:21398   */\n      0x20\n        /* \"#utility.yul\":21391:21394   */\n      dup3\n        /* \"#utility.yul\":21387:21399   */\n      add\n        /* \"#utility.yul\":21380:21399   */\n      swap1\n      pop\n        /* \"#utility.yul\":21039:21405   */\n      swap2\n      swap1\n      pop\n      jump\t// out\n        /* \"#utility.yul\":21411:21830   */\n    tag_404:\n        /* \"#utility.yul\":21577:21581   */\n      0x00\n        /* \"#utility.yul\":21615:21617   */\n      0x20\n        /* \"#utility.yul\":21604:21613   */\n      dup3\n        /* \"#utility.yul\":21600:21618   */\n      add\n        /* \"#utility.yul\":21592:21618   */\n      swap1\n      pop\n        /* \"#utility.yul\":21664:21673   */\n      dup2\n        /* \"#utility.yul\":21658:21662   */\n      dup2\n        /* \"#utility.yul\":21654:21674   */\n      sub\n        /* \"#utility.yul\":21650:21651   */\n      0x00\n        /* \"#utility.yul\":21639:21648   */\n      dup4\n        /* \"#utility.yul\":21635:21652   */\n      add\n        /* \"#utility.yul\":21628:21675   */\n      mstore\n        /* \"#utility.yul\":21692:21823   */\n      tag_674\n        /* \"#utility.yul\":21818:21822   */\n      dup2\n        /* \"#utility.yul\":21692:21823   */\n      tag_485\n      jump\t// in\n    tag_674:\n        /* \"#utility.yul\":21684:21823   */\n      swap1\n      pop\n        /* \"#utility.yul\":21411:21830   */\n      swap2\n      swap1\n      pop\n      jump\t// out\n        /* \"#utility.yul\":21836:22018   */\n    tag_486:\n        /* \"#utility.yul\":21976:22010   */\n      0x4f776e61626c653a2063616c6c6572206973206e6f7420746865206f776e6572\n        /* \"#utility.yul\":21972:21973   */\n      0x00\n        /* \"#utility.yul\":21964:21970   */\n      dup3\n        /* \"#utility.yul\":21960:21974   */\n      add\n        /* \"#utility.yul\":21953:22011   */\n      mstore\n        /* \"#utility.yul\":21836:22018   */\n      pop\n      jump\t// out\n        /* \"#utility.yul\":22024:22390   */\n    tag_487:\n        /* \"#utility.yul\":22166:22169   */\n      0x00\n        /* \"#utility.yul\":22187:22254   */\n      tag_677\n        /* \"#utility.yul\":22251:22253   */\n      0x20\n        /* \"#utility.yul\":22246:22249   */\n      dup4\n        /* \"#utility.yul\":22187:22254   */\n      tag_449\n      jump\t// in\n    tag_677:\n        /* \"#utility.yul\":22180:22254   */\n      swap2\n      pop\n        /* \"#utility.yul\":22263:22356   */\n      tag_678\n        /* \"#utility.yul\":22352:22355   */\n      dup3\n        /* \"#utility.yul\":22263:22356   */\n      tag_486\n      jump\t// in\n    tag_678:\n        /* \"#utility.yul\":22381:22383   */\n      0x20\n        /* \"#utility.yul\":22376:22379   */\n      dup3\n        /* \"#utility.yul\":22372:22384   */\n      add\n        /* \"#utility.yul\":22365:22384   */\n      swap1\n      pop\n        /* \"#utility.yul\":22024:22390   */\n      swap2\n      swap1\n      pop\n      jump\t// out\n        /* \"#utility.yul\":22396:22815   */\n    tag_413:\n        /* \"#utility.yul\":22562:22566   */\n      0x00\n        /* \"#utility.yul\":22600:22602   */\n      0x20\n        /* \"#utility.yul\":22589:22598   */\n      dup3\n        /* \"#utility.yul\":22585:22603   */\n      add\n        /* \"#utility.yul\":22577:22603   */\n      swap1\n      pop\n        /* \"#utility.yul\":22649:22658   */\n      dup2\n        /* \"#utility.yul\":22643:22647   */\n      dup2\n        /* \"#utility.yul\":22639:22659   */\n      sub\n        /* \"#utility.yul\":22635:22636   */\n      0x00\n        /* \"#utility.yul\":22624:22633   */\n      dup4\n        /* \"#utility.yul\":22620:22637   */\n      add\n        /* \"#utility.yul\":22613:22660   */\n      mstore\n        /* \"#utility.yul\":22677:22808   */\n      tag_680\n        /* \"#utility.yul\":22803:22807   */\n      dup2\n        /* \"#utility.yul\":22677:22808   */\n      tag_487\n      jump\t// in\n    tag_680:\n        /* \"#utility.yul\":22669:22808   */\n      swap1\n      pop\n        /* \"#utility.yul\":22396:22815   */\n      swap2\n      swap1\n      pop\n      jump\t// out\n        /* \"#utility.yul\":22821:22991   */\n    tag_488:\n        /* \"#utility.yul\":22961:22983   */\n      0x5061757361626c653a206e6f7420706175736564000000000000000000000000\n        /* \"#utility.yul\":22957:22958   */\n      0x00\n        /* \"#utility.yul\":22949:22955   */\n      dup3\n        /* \"#utility.yul\":22945:22959   */\n      add\n        /* \"#utility.yul\":22938:22984   */\n      mstore\n        /* \"#utility.yul\":22821:22991   */\n      pop\n      jump\t// out\n        /* \"#utility.yul\":22997:23363   */\n    tag_489:\n        /* \"#utility.yul\":23139:23142   */\n      0x00\n        /* \"#utility.yul\":23160:23227   */\n      tag_683\n        /* \"#utility.yul\":23224:23226   */\n      0x14\n        /* \"#utility.yul\":23219:23222   */\n      dup4\n        /* \"#utility.yul\":23160:23227   */\n      tag_449\n      jump\t// in\n    tag_683:\n        /* \"#utility.yul\":23153:23227   */\n      swap2\n      pop\n        /* \"#utility.yul\":23236:23329   */\n      tag_684\n        /* \"#utility.yul\":23325:23328   */\n      dup3\n        /* \"#utility.yul\":23236:23329   */\n      tag_488\n      jump\t// in\n    tag_684:\n        /* \"#utility.yul\":23354:23356   */\n      0x20\n        /* \"#utility.yul\":23349:23352   */\n      dup3\n        /* \"#utility.yul\":23345:23357   */\n      add\n        /* \"#utility.yul\":23338:23357   */\n      swap1\n      pop\n        /* \"#utility.yul\":22997:23363   */\n      swap2\n      swap1\n      pop\n      jump\t// out\n        /* \"#utility.yul\":23369:23788   */\n    tag_432:\n        /* \"#utility.yul\":23535:23539   */\n      0x00\n        /* \"#utility.yul\":23573:23575   */\n      0x20\n        /* \"#utility.yul\":23562:23571   */\n      dup3\n        /* \"#utility.yul\":23558:23576   */\n      add\n        /* \"#utility.yul\":23550:23576   */\n      swap1\n      pop\n        /* \"#utility.yul\":23622:23631   */\n      dup2\n        /* \"#utility.yul\":23616:23620   */\n      dup2\n        /* \"#utility.yul\":23612:23632   */\n      sub\n        /* \"#utility.yul\":23608:23609   */\n      0x00\n        /* \"#utility.yul\":23597:23606   */\n      dup4\n        /* \"#utility.yul\":23593:23610   */\n      add\n        /* \"#utility.yul\":23586:23633   */\n      mstore\n        /* \"#utility.yul\":23650:23781   */\n      tag_686\n        /* \"#utility.yul\":23776:23780   */\n      dup2\n        /* \"#utility.yul\":23650:23781   */\n      tag_489\n      jump\t// in\n    tag_686:\n        /* \"#utility.yul\":23642:23781   */\n      swap1\n      pop\n        /* \"#utility.yul\":23369:23788   */\n      swap2\n      swap1\n      pop\n      jump\t// out\n\n    auxdata: 0xa264697066735822122087297737bc07377cdea28d7b69ca2139cb1fb07248ae0a21c497658dc4e5741864736f6c63430008130033\n}\n",
				"bytecode": {
					"linkReferences": {},
					"object": "60806040523480156200001157600080fd5b50604051620027ea380380620027ea8339818101604052810190620000379190620002d2565b620000576200004b6200019c60201b60201c565b620001a460201b60201c565b60008060146101000a81548160ff0219169083151502179055506001808190555082600260006101000a81548173ffffffffffffffffffffffffffffffffffffffff021916908373ffffffffffffffffffffffffffffffffffffffff16021790555081600360006101000a81548173ffffffffffffffffffffffffffffffffffffffff021916908373ffffffffffffffffffffffffffffffffffffffff16021790555080600460006101000a81548173ffffffffffffffffffffffffffffffffffffffff021916908373ffffffffffffffffffffffffffffffffffffffff1602179055506001600560003373ffffffffffffffffffffffffffffffffffffffff1673ffffffffffffffffffffffffffffffffffffffff16815260200190815260200160002060006101000a81548160ff0219169083151502179055505050506200032e565b600033905090565b60008060009054906101000a900473ffffffffffffffffffffffffffffffffffffffff169050816000806101000a81548173ffffffffffffffffffffffffffffffffffffffff021916908373ffffffffffffffffffffffffffffffffffffffff1602179055508173ffffffffffffffffffffffffffffffffffffffff168173ffffffffffffffffffffffffffffffffffffffff167f8be0079c531659141344cd1fd0a4f28419497f9722a3daafe3b4186f6b6457e060405160405180910390a35050565b600080fd5b600073ffffffffffffffffffffffffffffffffffffffff82169050919050565b60006200029a826200026d565b9050919050565b620002ac816200028d565b8114620002b857600080fd5b50565b600081519050620002cc81620002a1565b92915050565b600080600060608486031215620002ee57620002ed62000268565b5b6000620002fe86828701620002bb565b93505060206200031186828701620002bb565b92505060406200032486828701620002bb565b9150509250925092565b6124ac806200033e6000396000f3fe6080604052600436106101b75760003560e01c80638d36f8f4116100ec578063c8d4fc601161008a578063f17a677711610064578063f17a677714610515578063f2c5d79714610531578063f2fde38b1461055c578063f78f680a14610585576101b7565b8063c8d4fc6014610490578063d47e107e146104bb578063d87b320b146104d7576101b7565b806398eaa4a7116100c657806398eaa4a7146104045780639f158a781461042d578063a837230714610458578063bad688c614610474576101b7565b80638d36f8f4146103925780638da5cb5b146103ae578063953a6ca8146103d9576101b7565b8063508f0628116101595780636f785cdf116101335780636f785cdf14610322578063715018a61461034d5780637e7f57f2146103645780638456cb591461037b576101b7565b8063508f0628146102b05780635c975abb146102cc5780635eee43f0146102f7576101b7565b806328d3bd1b1161019557806328d3bd1b1461022e578063329cc83f146102455780633a1491271461026e5780633f4ba83a14610299576101b7565b8063087bd107146101bc5780631592fb2a146101e757806320a0c03414610212575b600080fd5b3480156101c857600080fd5b506101d16105a1565b6040516101de91906118ec565b60405180910390f35b3480156101f357600080fd5b506101fc6105ad565b60405161020991906118ec565b60405180910390f35b61022c60048036038101906102279190611996565b6105b9565b005b34801561023a57600080fd5b506102436105d2565b005b34801561025157600080fd5b5061026c600480360381019061026791906119d6565b6108fd565b005b34801561027a57600080fd5b50610283610a32565b60405161029091906118ec565b60405180910390f35b3480156102a557600080fd5b506102ae610a3e565b005b6102ca60048036038101906102c591906119d6565b610a50565b005b3480156102d857600080fd5b506102e1610a69565b6040516102ee9190611a1e565b60405180910390f35b34801561030357600080fd5b5061030c610a7f565b6040516103199190611a1e565b60405180910390f35b34801561032e57600080fd5b50610337610a92565b60405161034491906118ec565b60405180910390f35b34801561035957600080fd5b50610362610a9e565b005b34801561037057600080fd5b50610379610ab2565b005b34801561038757600080fd5b50610390610c12565b005b6103ac60048036038101906103a791906119d6565b610c24565b005b3480156103ba57600080fd5b506103c3610c3d565b6040516103d09190611a48565b60405180910390f35b3480156103e557600080fd5b506103ee610c66565b6040516103fb9190611a1e565b60405180910390f35b34801561041057600080fd5b5061042b600480360381019061042691906119d6565b610c79565b005b34801561043957600080fd5b50610442610cdc565b60405161044f91906118ec565b60405180910390f35b610472600480360381019061046d91906119d6565b610ce8565b005b61048e60048036038101906104899190611996565b610d00565b005b34801561049c57600080fd5b506104a5610d19565b6040516104b29190611a1e565b60405180910390f35b6104d560048036038101906104d091906119d6565b610d2c565b005b3480156104e357600080fd5b506104fe60048036038101906104f99190611a88565b610d45565b60405161050c929190611ac8565b60405180910390f35b61052f600480360381019061052a9190611996565b6111ef565b005b34801561053d57600080fd5b50610546611208565b6040516105539190611a1e565b60405180910390f35b34801561056857600080fd5b50610583600480360381019061057e91906119d6565b61121b565b005b61059f600480360381019061059a9190611996565b61129e565b005b60068060000154905081565b60078060000154905081565b6105c16112b7565b6105cd82826001611301565b505050565b6105da6112b7565b6105e26115ff565b600560003373ffffffffffffffffffffffffffffffffffffffff1673ffffffffffffffffffffffffffffffffffffffff16815260200190815260200160002060009054906101000a900460ff1661066e576040517f08c379a000000000000000000000000000000000000000000000000000000000815260040161066590611b4e565b60405180910390fd5b600b60029054906101000a900460ff16156106be576040517f08c379a00000000000000000000000000000000000000000000000000000000081526004016106b590611bba565b60405180910390fd5b600b60009054906101000a900460ff1661070d576040517f08c379a000000000000000000000000000000000000000000000000000000000815260040161070490611c26565b60405180910390fd5b600b60019054906101000a900460ff16801561073a5750600161ffff16610734600761164e565b61ffff16105b610779576040517f08c379a000000000000000000000000000000000000000000000000000000000815260040161077090611c92565b60405180910390fd5b600b60019054906101000a900460ff1680156107a65750600561ffff166107a0600861164e565b61ffff16105b6107e5576040517f08c379a00000000000000000000000000000000000000000000000000000000081526004016107dc90611cfe565b60405180910390fd5b600b60019054906101000a900460ff1680156108125750601961ffff1661080c600961164e565b61ffff16105b610851576040517f08c379a000000000000000000000000000000000000000000000000000000000815260040161084890611d6a565b60405180910390fd5b600b60019054906101000a900460ff16801561087e5750607d61ffff16610878600a61164e565b61ffff16105b6108bd576040517f08c379a00000000000000000000000000000000000000000000000000000000081526004016108b490611dd6565b60405180910390fd5b6001600b60026101000a81548160ff0219169083151502179055506000600b60016101000a81548160ff0219169083151502179055506108fb61165c565b565b6109056112b7565b61090d6115ff565b600560003373ffffffffffffffffffffffffffffffffffffffff1673ffffffffffffffffffffffffffffffffffffffff16815260200190815260200160002060009054906101000a900460ff16610999576040517f08c379a000000000000000000000000000000000000000000000000000000000815260040161099090611b4e565b60405180910390fd5b600b60009054906101000a900460ff16156109e9576040517f08c379a00000000000000000000000000000000000000000000000000000000081526004016109e090611e42565b60405180910390fd5b60006109fc82601961ffff166000611301565b9050601961ffff168103610a26576001600b60006101000a81548160ff0219169083151502179055505b50610a2f61165c565b50565b60088060000154905081565b610a46611665565b610a4e6116e3565b565b610a586112b7565b610a658160016003611301565b5050565b60008060149054906101000a900460ff16905090565b600b60039054906101000a900460ff1681565b600a8060000154905081565b610aa6611665565b610ab06000611745565b565b610aba6112b7565b610ac26115ff565b600560003373ffffffffffffffffffffffffffffffffffffffff1673ffffffffffffffffffffffffffffffffffffffff16815260200190815260200160002060009054906101000a900460ff16610b4e576040517f08c379a0000000000000000000000000000000000000000000000000000000008152600401610b4590611b4e565b60405180910390fd5b600b60019054906101000a900460ff1615610b9e576040517f08c379a0000000000000000000000000000000000000000000000000000000008152600401610b9590611bba565b60405180910390fd5b600b60009054906101000a900460ff16610bed576040517f08c379a0000000000000000000000000000000000000000000000000000000008152600401610be490611c26565b60405180910390fd5b6001600b60016101000a81548160ff021916908315150217905550610c1061165c565b565b610c1a611665565b610c22611809565b565b610c2c6112b7565b610c398160016002611301565b5050565b60008060009054906101000a900473ffffffffffffffffffffffffffffffffffffffff16905090565b600b60019054906101000a900460ff1681565b610c81611665565b6001600560008373ffffffffffffffffffffffffffffffffffffffff1673ffffffffffffffffffffffffffffffffffffffff16815260200190815260200160002060006101000a81548160ff02191690831515021790555050565b60098060000154905081565b610cf06112b7565b610cfc81600180611301565b5050565b610d086112b7565b610d1482826004611301565b505050565b600b60009054906101000a900460ff1681565b610d346112b7565b610d418160016004611301565b5050565b600080610d506112b7565b60008411610d93576040517f08c379a0000000000000000000000000000000000000000000000000000000008152600401610d8a90611eae565b60405180910390fd5b600b60009054906101000a900460ff16610de2576040517f08c379a0000000000000000000000000000000000000000000000000000000008152600401610dd990611c26565b60405180910390fd5b600080600080600060016004811115610dfe57610dfd611ece565b5b886004811115610e1157610e10611ece565b5b03610e7f57610e20600761164e565b94508885610e2e9190611f3a565b9350600161ffff169250600a61ffff169150605061ffff169050846019610e559190611f3a565b61ffff1696506001846019610e6a9190611f3a565b610e749190611f70565b61ffff169550611083565b60026004811115610e9357610e92611ece565b5b886004811115610ea657610ea5611ece565b5b03610f1557610eb5600861164e565b94508885610ec39190611f3a565b9350600561ffff169250603261ffff16915061019061ffff16905084607e610eeb9190611f3a565b61ffff169650600184607e610f009190611f3a565b610f0a9190611f70565b61ffff169550611082565b60036004811115610f2957610f28611ece565b5b886004811115610f3c57610f3b611ece565b5b03610fad57610f4b600961164e565b94508885610f599190611f3a565b9350601961ffff16925060fa61ffff1691506107d061ffff16905084610273610f829190611f3a565b61ffff169650600184610273610f989190611f3a565b610fa29190611f70565b61ffff169550611081565b600480811115610fc057610fbf611ece565b5b886004811115610fd357610fd2611ece565b5b0361104557610fe2600a61164e565b94508885610ff09190611f3a565b9350607d61ffff1692506104e261ffff16915061168a61ffff16905084610c3861101a9190611f3a565b61ffff169650600184610c386110309190611f3a565b61103a9190611f70565b61ffff169550611080565b6040517f08c379a000000000000000000000000000000000000000000000000000000000815260040161107790611ff2565b60405180910390fd5b5b5b5b600b60019054906101000a900460ff16156110e457828461ffff1611156110df576040517f08c379a00000000000000000000000000000000000000000000000000000000081526004016110d69061205e565b60405180910390fd5b6111e3565b600b60029054906101000a900460ff161561114557818461ffff161115611140576040517f08c379a00000000000000000000000000000000000000000000000000000000081526004016111379061205e565b60405180910390fd5b6111e2565b600b60039054906101000a900460ff16156111a657808461ffff1611156111a1576040517f08c379a00000000000000000000000000000000000000000000000000000000081526004016111989061205e565b60405180910390fd5b6111e1565b6040517f08c379a00000000000000000000000000000000000000000000000000000000081526004016111d8906120ca565b60405180910390fd5b5b5b50505050509250929050565b6111f76112b7565b61120382826003611301565b505050565b600b60029054906101000a900460ff1681565b611223611665565b600073ffffffffffffffffffffffffffffffffffffffff168173ffffffffffffffffffffffffffffffffffffffff1603611292576040517f08c379a00000000000000000000000000000000000000000000000000000000081526004016112899061215c565b60405180910390fd5b61129b81611745565b50565b6112a66112b7565b6112b282826002611301565b505050565b6112bf610a69565b156112ff576040517f08c379a00000000000000000000000000000000000000000000000000000000081526004016112f6906121c8565b60405180910390fd5b565b600061130b6112b7565b600b60009054906101000a900460ff1661135a576040517f08c379a000000000000000000000000000000000000000000000000000000000815260040161135190611c26565b60405180910390fd5b6000806113678585610d45565b91509150600082905060008390505b8281116115da57600260009054906101000a900473ffffffffffffffffffffffffffffffffffffffff1673ffffffffffffffffffffffffffffffffffffffff1663a144819489836040518363ffffffff1660e01b81526004016113da9291906121e8565b600060405180830381600087803b1580156113f457600080fd5b505af1158015611408573d6000803e3d6000fd5b50505050600460009054906101000a900473ffffffffffffffffffffffffffffffffffffffff1673ffffffffffffffffffffffffffffffffffffffff1663be1e114589886040518363ffffffff1660e01b8152600401611469929190612259565b600060405180830381600087803b15801561148357600080fd5b505af1158015611497573d6000803e3d6000fd5b50505050809150600160048111156114b2576114b1611ece565b5b8660048111156114c5576114c4611ece565b5b036114d9576114d4600761186c565b6115c7565b600260048111156114ed576114ec611ece565b5b866004811115611500576114ff611ece565b5b036115145761150f600861186c565b6115c6565b6003600481111561152857611527611ece565b5b86600481111561153b5761153a611ece565b5b0361154f5761154a600961186c565b6115c5565b60048081111561156257611561611ece565b5b86600481111561157557611574611ece565b5b0361158957611584600a61186c565b6115c4565b6040517f08c379a00000000000000000000000000000000000000000000000000000000081526004016115bb90611ff2565b60405180910390fd5b5b5b5b80806115d290612282565b915050611376565b50600183826115e991906122ca565b6115f391906122fe565b93505050509392505050565b600260015403611644576040517f08c379a000000000000000000000000000000000000000000000000000000000815260040161163b9061237e565b60405180910390fd5b6002600181905550565b600081600001549050919050565b60018081905550565b61166d611882565b73ffffffffffffffffffffffffffffffffffffffff1661168b610c3d565b73ffffffffffffffffffffffffffffffffffffffff16146116e1576040517f08c379a00000000000000000000000000000000000000000000000000000000081526004016116d8906123ea565b60405180910390fd5b565b6116eb61188a565b60008060146101000a81548160ff0219169083151502179055507f5db9ee0a495bf2e6ff9c91a7834c1ba4fdd244a5e8aa4e537bd38aeae4b073aa61172e611882565b60405161173b9190611a48565b60405180910390a1565b60008060009054906101000a900473ffffffffffffffffffffffffffffffffffffffff169050816000806101000a81548173ffffffffffffffffffffffffffffffffffffffff021916908373ffffffffffffffffffffffffffffffffffffffff1602179055508173ffffffffffffffffffffffffffffffffffffffff168173ffffffffffffffffffffffffffffffffffffffff167f8be0079c531659141344cd1fd0a4f28419497f9722a3daafe3b4186f6b6457e060405160405180910390a35050565b6118116112b7565b6001600060146101000a81548160ff0219169083151502179055507f62e78cea01bee320cd4e420270b5ea74000d11b0c9f74754ebdbfc544b05a258611855611882565b6040516118629190611a48565b60405180910390a1565b6001816000016000828254019250508190555050565b600033905090565b611892610a69565b6118d1576040517f08c379a00000000000000000000000000000000000000000000000000000000081526004016118c890612456565b60405180910390fd5b565b6000819050919050565b6118e6816118d3565b82525050565b600060208201905061190160008301846118dd565b92915050565b600080fd5b600073ffffffffffffffffffffffffffffffffffffffff82169050919050565b60006119378261190c565b9050919050565b6119478161192c565b811461195257600080fd5b50565b6000813590506119648161193e565b92915050565b611973816118d3565b811461197e57600080fd5b50565b6000813590506119908161196a565b92915050565b600080604083850312156119ad576119ac611907565b5b60006119bb85828601611955565b92505060206119cc85828601611981565b9150509250929050565b6000602082840312156119ec576119eb611907565b5b60006119fa84828501611955565b91505092915050565b60008115159050919050565b611a1881611a03565b82525050565b6000602082019050611a336000830184611a0f565b92915050565b611a428161192c565b82525050565b6000602082019050611a5d6000830184611a39565b92915050565b60058110611a7057600080fd5b50565b600081359050611a8281611a63565b92915050565b60008060408385031215611a9f57611a9e611907565b5b6000611aad85828601611981565b9250506020611abe85828601611a73565b9150509250929050565b6000604082019050611add60008301856118dd565b611aea60208301846118dd565b9392505050565b600082825260208201905092915050565b7f4e6f204175746800000000000000000000000000000000000000000000000000600082015250565b6000611b38600783611af1565b9150611b4382611b02565b602082019050919050565b60006020820190508181036000830152611b6781611b2b565b9050919050565b7f416c726561647920756e6c6f636b656400000000000000000000000000000000600082015250565b6000611ba4601083611af1565b9150611baf82611b6e565b602082019050919050565b60006020820190508181036000830152611bd381611b97565b9050919050565b7f4865726f73206e6f74206d696e74656400000000000000000000000000000000600082015250565b6000611c10601083611af1565b9150611c1b82611bda565b602082019050919050565b60006020820190508181036000830152611c3f81611c03565b9050919050565b7f556e6d696e746564206c6567656e647300000000000000000000000000000000600082015250565b6000611c7c601083611af1565b9150611c8782611c46565b602082019050919050565b60006020820190508181036000830152611cab81611c6f565b9050919050565b7f556e6d696e746564207261726573000000000000000000000000000000000000600082015250565b6000611ce8600e83611af1565b9150611cf382611cb2565b602082019050919050565b60006020820190508181036000830152611d1781611cdb565b9050919050565b7f556e6d696e74656420756e636f6d6d6f6e730000000000000000000000000000600082015250565b6000611d54601283611af1565b9150611d5f82611d1e565b602082019050919050565b60006020820190508181036000830152611d8381611d47565b9050919050565b7f556e6d696e74656420636f6d6d6f6e7300000000000000000000000000000000600082015250565b6000611dc0601083611af1565b9150611dcb82611d8a565b602082019050919050565b60006020820190508181036000830152611def81611db3565b9050919050565b7f416c7265616479206d696e746564000000000000000000000000000000000000600082015250565b6000611e2c600e83611af1565b9150611e3782611df6565b602082019050919050565b60006020820190508181036000830152611e5b81611e1f565b9050919050565b7f6e756d546f4d696e742030000000000000000000000000000000000000000000600082015250565b6000611e98600b83611af1565b9150611ea382611e62565b602082019050919050565b60006020820190508181036000830152611ec781611e8b565b9050919050565b7f4e487b7100000000000000000000000000000000000000000000000000000000600052602160045260246000fd5b600061ffff82169050919050565b7f4e487b7100000000000000000000000000000000000000000000000000000000600052601160045260246000fd5b6000611f4582611efd565b9150611f5083611efd565b9250828201905061ffff811115611f6a57611f69611f0b565b5b92915050565b6000611f7b82611efd565b9150611f8683611efd565b9250828203905061ffff811115611fa057611f9f611f0b565b5b92915050565b7f496e76616c696420636c61737300000000000000000000000000000000000000600082015250565b6000611fdc600d83611af1565b9150611fe782611fa6565b602082019050919050565b6000602082019050818103600083015261200b81611fcf565b9050919050565b7f737570706c7920696e73756666696369656e7400000000000000000000000000600082015250565b6000612048601383611af1565b915061205382612012565b602082019050919050565b600060208201905081810360008301526120778161203b565b9050919050565b7f6e6f207075626c696320726f756e6420756e6c6f636b65640000000000000000600082015250565b60006120b4601883611af1565b91506120bf8261207e565b602082019050919050565b600060208201905081810360008301526120e3816120a7565b9050919050565b7f4f776e61626c653a206e6577206f776e657220697320746865207a65726f206160008201527f6464726573730000000000000000000000000000000000000000000000000000602082015250565b6000612146602683611af1565b9150612151826120ea565b604082019050919050565b6000602082019050818103600083015261217581612139565b9050919050565b7f5061757361626c653a2070617573656400000000000000000000000000000000600082015250565b60006121b2601083611af1565b91506121bd8261217c565b602082019050919050565b600060208201905081810360008301526121e1816121a5565b9050919050565b60006040820190506121fd6000830185611a39565b61220a60208301846118dd565b9392505050565b6005811061222257612221611ece565b5b50565b600081905061223382612211565b919050565b600061224382612225565b9050919050565b61225381612238565b82525050565b600060408201905061226e6000830185611a39565b61227b602083018461224a565b9392505050565b600061228d826118d3565b91507fffffffffffffffffffffffffffffffffffffffffffffffffffffffffffffffff82036122bf576122be611f0b565b5b600182019050919050565b60006122d5826118d3565b91506122e0836118d3565b92508282039050818111156122f8576122f7611f0b565b5b92915050565b6000612309826118d3565b9150612314836118d3565b925082820190508082111561232c5761232b611f0b565b5b92915050565b7f5265656e7472616e637947756172643a207265656e7472616e742063616c6c00600082015250565b6000612368601f83611af1565b915061237382612332565b602082019050919050565b600060208201905081810360008301526123978161235b565b9050919050565b7f4f776e61626c653a2063616c6c6572206973206e6f7420746865206f776e6572600082015250565b60006123d4602083611af1565b91506123df8261239e565b602082019050919050565b60006020820190508181036000830152612403816123c7565b9050919050565b7f5061757361626c653a206e6f7420706175736564000000000000000000000000600082015250565b6000612440601483611af1565b915061244b8261240a565b602082019050919050565b6000602082019050818103600083015261246f81612433565b905091905056fea264697066735822122087297737bc07377cdea28d7b69ca2139cb1fb07248ae0a21c497658dc4e5741864736f6c63430008130033",
					"opcodes": "PUSH1 0x80 PUSH1 0x40 MSTORE CALLVALUE DUP1 ISZERO PUSH3 0x11 JUMPI PUSH1 0x0 DUP1 REVERT JUMPDEST POP PUSH1 0x40 MLOAD PUSH3 0x27EA CODESIZE SUB DUP1 PUSH3 0x27EA DUP4 CODECOPY DUP2 DUP2 ADD PUSH1 0x40 MSTORE DUP2 ADD SWAP1 PUSH3 0x37 SWAP2 SWAP1 PUSH3 0x2D2 JUMP JUMPDEST PUSH3 0x57 PUSH3 0x4B PUSH3 0x19C PUSH1 0x20 SHL PUSH1 0x20 SHR JUMP JUMPDEST PUSH3 0x1A4 PUSH1 0x20 SHL PUSH1 0x20 SHR JUMP JUMPDEST PUSH1 0x0 DUP1 PUSH1 0x14 PUSH2 0x100 EXP DUP2 SLOAD DUP2 PUSH1 0xFF MUL NOT AND SWAP1 DUP4 ISZERO ISZERO MUL OR SWAP1 SSTORE POP PUSH1 0x1 DUP1 DUP2 SWAP1 SSTORE POP DUP3 PUSH1 0x2 PUSH1 0x0 PUSH2 0x100 EXP DUP2 SLOAD DUP2 PUSH20 0xFFFFFFFFFFFFFFFFFFFFFFFFFFFFFFFFFFFFFFFF MUL NOT AND SWAP1 DUP4 PUSH20 0xFFFFFFFFFFFFFFFFFFFFFFFFFFFFFFFFFFFFFFFF AND MUL OR SWAP1 SSTORE POP DUP2 PUSH1 0x3 PUSH1 0x0 PUSH2 0x100 EXP DUP2 SLOAD DUP2 PUSH20 0xFFFFFFFFFFFFFFFFFFFFFFFFFFFFFFFFFFFFFFFF MUL NOT AND SWAP1 DUP4 PUSH20 0xFFFFFFFFFFFFFFFFFFFFFFFFFFFFFFFFFFFFFFFF AND MUL OR SWAP1 SSTORE POP DUP1 PUSH1 0x4 PUSH1 0x0 PUSH2 0x100 EXP DUP2 SLOAD DUP2 PUSH20 0xFFFFFFFFFFFFFFFFFFFFFFFFFFFFFFFFFFFFFFFF MUL NOT AND SWAP1 DUP4 PUSH20 0xFFFFFFFFFFFFFFFFFFFFFFFFFFFFFFFFFFFFFFFF AND MUL OR SWAP1 SSTORE POP PUSH1 0x1 PUSH1 0x5 PUSH1 0x0 CALLER PUSH20 0xFFFFFFFFFFFFFFFFFFFFFFFFFFFFFFFFFFFFFFFF AND PUSH20 0xFFFFFFFFFFFFFFFFFFFFFFFFFFFFFFFFFFFFFFFF AND DUP2 MSTORE PUSH1 0x20 ADD SWAP1 DUP2 MSTORE PUSH1 0x20 ADD PUSH1 0x0 KECCAK256 PUSH1 0x0 PUSH2 0x100 EXP DUP2 SLOAD DUP2 PUSH1 0xFF MUL NOT AND SWAP1 DUP4 ISZERO ISZERO MUL OR SWAP1 SSTORE POP POP POP POP PUSH3 0x32E JUMP JUMPDEST PUSH1 0x0 CALLER SWAP1 POP SWAP1 JUMP JUMPDEST PUSH1 0x0 DUP1 PUSH1 0x0 SWAP1 SLOAD SWAP1 PUSH2 0x100 EXP SWAP1 DIV PUSH20 0xFFFFFFFFFFFFFFFFFFFFFFFFFFFFFFFFFFFFFFFF AND SWAP1 POP DUP2 PUSH1 0x0 DUP1 PUSH2 0x100 EXP DUP2 SLOAD DUP2 PUSH20 0xFFFFFFFFFFFFFFFFFFFFFFFFFFFFFFFFFFFFFFFF MUL NOT AND SWAP1 DUP4 PUSH20 0xFFFFFFFFFFFFFFFFFFFFFFFFFFFFFFFFFFFFFFFF AND MUL OR SWAP1 SSTORE POP DUP2 PUSH20 0xFFFFFFFFFFFFFFFFFFFFFFFFFFFFFFFFFFFFFFFF AND DUP2 PUSH20 0xFFFFFFFFFFFFFFFFFFFFFFFFFFFFFFFFFFFFFFFF AND PUSH32 0x8BE0079C531659141344CD1FD0A4F28419497F9722A3DAAFE3B4186F6B6457E0 PUSH1 0x40 MLOAD PUSH1 0x40 MLOAD DUP1 SWAP2 SUB SWAP1 LOG3 POP POP JUMP JUMPDEST PUSH1 0x0 DUP1 REVERT JUMPDEST PUSH1 0x0 PUSH20 0xFFFFFFFFFFFFFFFFFFFFFFFFFFFFFFFFFFFFFFFF DUP3 AND SWAP1 POP SWAP2 SWAP1 POP JUMP JUMPDEST PUSH1 0x0 PUSH3 0x29A DUP3 PUSH3 0x26D JUMP JUMPDEST SWAP1 POP SWAP2 SWAP1 POP JUMP JUMPDEST PUSH3 0x2AC DUP2 PUSH3 0x28D JUMP JUMPDEST DUP2 EQ PUSH3 0x2B8 JUMPI PUSH1 0x0 DUP1 REVERT JUMPDEST POP JUMP JUMPDEST PUSH1 0x0 DUP2 MLOAD SWAP1 POP PUSH3 0x2CC DUP2 PUSH3 0x2A1 JUMP JUMPDEST SWAP3 SWAP2 POP POP JUMP JUMPDEST PUSH1 0x0 DUP1 PUSH1 0x0 PUSH1 0x60 DUP5 DUP7 SUB SLT ISZERO PUSH3 0x2EE JUMPI PUSH3 0x2ED PUSH3 0x268 JUMP JUMPDEST JUMPDEST PUSH1 0x0 PUSH3 0x2FE DUP7 DUP3 DUP8 ADD PUSH3 0x2BB JUMP JUMPDEST SWAP4 POP POP PUSH1 0x20 PUSH3 0x311 DUP7 DUP3 DUP8 ADD PUSH3 0x2BB JUMP JUMPDEST SWAP3 POP POP PUSH1 0x40 PUSH3 0x324 DUP7 DUP3 DUP8 ADD PUSH3 0x2BB JUMP JUMPDEST SWAP2 POP POP SWAP3 POP SWAP3 POP SWAP3 JUMP JUMPDEST PUSH2 0x24AC DUP1 PUSH3 0x33E PUSH1 0x0 CODECOPY PUSH1 0x0 RETURN INVALID PUSH1 0x80 PUSH1 0x40 MSTORE PUSH1 0x4 CALLDATASIZE LT PUSH2 0x1B7 JUMPI PUSH1 0x0 CALLDATALOAD PUSH1 0xE0 SHR DUP1 PUSH4 0x8D36F8F4 GT PUSH2 0xEC JUMPI DUP1 PUSH4 0xC8D4FC60 GT PUSH2 0x8A JUMPI DUP1 PUSH4 0xF17A6777 GT PUSH2 0x64 JUMPI DUP1 PUSH4 0xF17A6777 EQ PUSH2 0x515 JUMPI DUP1 PUSH4 0xF2C5D797 EQ PUSH2 0x531 JUMPI DUP1 PUSH4 0xF2FDE38B EQ PUSH2 0x55C JUMPI DUP1 PUSH4 0xF78F680A EQ PUSH2 0x585 JUMPI PUSH2 0x1B7 JUMP JUMPDEST DUP1 PUSH4 0xC8D4FC60 EQ PUSH2 0x490 JUMPI DUP1 PUSH4 0xD47E107E EQ PUSH2 0x4BB JUMPI DUP1 PUSH4 0xD87B320B EQ PUSH2 0x4D7 JUMPI PUSH2 0x1B7 JUMP JUMPDEST DUP1 PUSH4 0x98EAA4A7 GT PUSH2 0xC6 JUMPI DUP1 PUSH4 0x98EAA4A7 EQ PUSH2 0x404 JUMPI DUP1 PUSH4 0x9F158A78 EQ PUSH2 0x42D JUMPI DUP1 PUSH4 0xA8372307 EQ PUSH2 0x458 JUMPI DUP1 PUSH4 0xBAD688C6 EQ PUSH2 0x474 JUMPI PUSH2 0x1B7 JUMP JUMPDEST DUP1 PUSH4 0x8D36F8F4 EQ PUSH2 0x392 JUMPI DUP1 PUSH4 0x8DA5CB5B EQ PUSH2 0x3AE JUMPI DUP1 PUSH4 0x953A6CA8 EQ PUSH2 0x3D9 JUMPI PUSH2 0x1B7 JUMP JUMPDEST DUP1 PUSH4 0x508F0628 GT PUSH2 0x159 JUMPI DUP1 PUSH4 0x6F785CDF GT PUSH2 0x133 JUMPI DUP1 PUSH4 0x6F785CDF EQ PUSH2 0x322 JUMPI DUP1 PUSH4 0x715018A6 EQ PUSH2 0x34D JUMPI DUP1 PUSH4 0x7E7F57F2 EQ PUSH2 0x364 JUMPI DUP1 PUSH4 0x8456CB59 EQ PUSH2 0x37B JUMPI PUSH2 0x1B7 JUMP JUMPDEST DUP1 PUSH4 0x508F0628 EQ PUSH2 0x2B0 JUMPI DUP1 PUSH4 0x5C975ABB EQ PUSH2 0x2CC JUMPI DUP1 PUSH4 0x5EEE43F0 EQ PUSH2 0x2F7 JUMPI PUSH2 0x1B7 JUMP JUMPDEST DUP1 PUSH4 0x28D3BD1B GT PUSH2 0x195 JUMPI DUP1 PUSH4 0x28D3BD1B EQ PUSH2 0x22E JUMPI DUP1 PUSH4 0x329CC83F EQ PUSH2 0x245 JUMPI DUP1 PUSH4 0x3A149127 EQ PUSH2 0x26E JUMPI DUP1 PUSH4 0x3F4BA83A EQ PUSH2 0x299 JUMPI PUSH2 0x1B7 JUMP JUMPDEST DUP1 PUSH4 0x87BD107 EQ PUSH2 0x1BC JUMPI DUP1 PUSH4 0x1592FB2A EQ PUSH2 0x1E7 JUMPI DUP1 PUSH4 0x20A0C034 EQ PUSH2 0x212 JUMPI JUMPDEST PUSH1 0x0 DUP1 REVERT JUMPDEST CALLVALUE DUP1 ISZERO PUSH2 0x1C8 JUMPI PUSH1 0x0 DUP1 REVERT JUMPDEST POP PUSH2 0x1D1 PUSH2 0x5A1 JUMP JUMPDEST PUSH1 0x40 MLOAD PUSH2 0x1DE SWAP2 SWAP1 PUSH2 0x18EC JUMP JUMPDEST PUSH1 0x40 MLOAD DUP1 SWAP2 SUB SWAP1 RETURN JUMPDEST CALLVALUE DUP1 ISZERO PUSH2 0x1F3 JUMPI PUSH1 0x0 DUP1 REVERT JUMPDEST POP PUSH2 0x1FC PUSH2 0x5AD JUMP JUMPDEST PUSH1 0x40 MLOAD PUSH2 0x209 SWAP2 SWAP1 PUSH2 0x18EC JUMP JUMPDEST PUSH1 0x40 MLOAD DUP1 SWAP2 SUB SWAP1 RETURN JUMPDEST PUSH2 0x22C PUSH1 0x4 DUP1 CALLDATASIZE SUB DUP2 ADD SWAP1 PUSH2 0x227 SWAP2 SWAP1 PUSH2 0x1996 JUMP JUMPDEST PUSH2 0x5B9 JUMP JUMPDEST STOP JUMPDEST CALLVALUE DUP1 ISZERO PUSH2 0x23A JUMPI PUSH1 0x0 DUP1 REVERT JUMPDEST POP PUSH2 0x243 PUSH2 0x5D2 JUMP JUMPDEST STOP JUMPDEST CALLVALUE DUP1 ISZERO PUSH2 0x251 JUMPI PUSH1 0x0 DUP1 REVERT JUMPDEST POP PUSH2 0x26C PUSH1 0x4 DUP1 CALLDATASIZE SUB DUP2 ADD SWAP1 PUSH2 0x267 SWAP2 SWAP1 PUSH2 0x19D6 JUMP JUMPDEST PUSH2 0x8FD JUMP JUMPDEST STOP JUMPDEST CALLVALUE DUP1 ISZERO PUSH2 0x27A JUMPI PUSH1 0x0 DUP1 REVERT JUMPDEST POP PUSH2 0x283 PUSH2 0xA32 JUMP JUMPDEST PUSH1 0x40 MLOAD PUSH2 0x290 SWAP2 SWAP1 PUSH2 0x18EC JUMP JUMPDEST PUSH1 0x40 MLOAD DUP1 SWAP2 SUB SWAP1 RETURN JUMPDEST CALLVALUE DUP1 ISZERO PUSH2 0x2A5 JUMPI PUSH1 0x0 DUP1 REVERT JUMPDEST POP PUSH2 0x2AE PUSH2 0xA3E JUMP JUMPDEST STOP JUMPDEST PUSH2 0x2CA PUSH1 0x4 DUP1 CALLDATASIZE SUB DUP2 ADD SWAP1 PUSH2 0x2C5 SWAP2 SWAP1 PUSH2 0x19D6 JUMP JUMPDEST PUSH2 0xA50 JUMP JUMPDEST STOP JUMPDEST CALLVALUE DUP1 ISZERO PUSH2 0x2D8 JUMPI PUSH1 0x0 DUP1 REVERT JUMPDEST POP PUSH2 0x2E1 PUSH2 0xA69 JUMP JUMPDEST PUSH1 0x40 MLOAD PUSH2 0x2EE SWAP2 SWAP1 PUSH2 0x1A1E JUMP JUMPDEST PUSH1 0x40 MLOAD DUP1 SWAP2 SUB SWAP1 RETURN JUMPDEST CALLVALUE DUP1 ISZERO PUSH2 0x303 JUMPI PUSH1 0x0 DUP1 REVERT JUMPDEST POP PUSH2 0x30C PUSH2 0xA7F JUMP JUMPDEST PUSH1 0x40 MLOAD PUSH2 0x319 SWAP2 SWAP1 PUSH2 0x1A1E JUMP JUMPDEST PUSH1 0x40 MLOAD DUP1 SWAP2 SUB SWAP1 RETURN JUMPDEST CALLVALUE DUP1 ISZERO PUSH2 0x32E JUMPI PUSH1 0x0 DUP1 REVERT JUMPDEST POP PUSH2 0x337 PUSH2 0xA92 JUMP JUMPDEST PUSH1 0x40 MLOAD PUSH2 0x344 SWAP2 SWAP1 PUSH2 0x18EC JUMP JUMPDEST PUSH1 0x40 MLOAD DUP1 SWAP2 SUB SWAP1 RETURN JUMPDEST CALLVALUE DUP1 ISZERO PUSH2 0x359 JUMPI PUSH1 0x0 DUP1 REVERT JUMPDEST POP PUSH2 0x362 PUSH2 0xA9E JUMP JUMPDEST STOP JUMPDEST CALLVALUE DUP1 ISZERO PUSH2 0x370 JUMPI PUSH1 0x0 DUP1 REVERT JUMPDEST POP PUSH2 0x379 PUSH2 0xAB2 JUMP JUMPDEST STOP JUMPDEST CALLVALUE DUP1 ISZERO PUSH2 0x387 JUMPI PUSH1 0x0 DUP1 REVERT JUMPDEST POP PUSH2 0x390 PUSH2 0xC12 JUMP JUMPDEST STOP JUMPDEST PUSH2 0x3AC PUSH1 0x4 DUP1 CALLDATASIZE SUB DUP2 ADD SWAP1 PUSH2 0x3A7 SWAP2 SWAP1 PUSH2 0x19D6 JUMP JUMPDEST PUSH2 0xC24 JUMP JUMPDEST STOP JUMPDEST CALLVALUE DUP1 ISZERO PUSH2 0x3BA JUMPI PUSH1 0x0 DUP1 REVERT JUMPDEST POP PUSH2 0x3C3 PUSH2 0xC3D JUMP JUMPDEST PUSH1 0x40 MLOAD PUSH2 0x3D0 SWAP2 SWAP1 PUSH2 0x1A48 JUMP JUMPDEST PUSH1 0x40 MLOAD DUP1 SWAP2 SUB SWAP1 RETURN JUMPDEST CALLVALUE DUP1 ISZERO PUSH2 0x3E5 JUMPI PUSH1 0x0 DUP1 REVERT JUMPDEST POP PUSH2 0x3EE PUSH2 0xC66 JUMP JUMPDEST PUSH1 0x40 MLOAD PUSH2 0x3FB SWAP2 SWAP1 PUSH2 0x1A1E JUMP JUMPDEST PUSH1 0x40 MLOAD DUP1 SWAP2 SUB SWAP1 RETURN JUMPDEST CALLVALUE DUP1 ISZERO PUSH2 0x410 JUMPI PUSH1 0x0 DUP1 REVERT JUMPDEST POP PUSH2 0x42B PUSH1 0x4 DUP1 CALLDATASIZE SUB DUP2 ADD SWAP1 PUSH2 0x426 SWAP2 SWAP1 PUSH2 0x19D6 JUMP JUMPDEST PUSH2 0xC79 JUMP JUMPDEST STOP JUMPDEST CALLVALUE DUP1 ISZERO PUSH2 0x439 JUMPI PUSH1 0x0 DUP1 REVERT JUMPDEST POP PUSH2 0x442 PUSH2 0xCDC JUMP JUMPDEST PUSH1 0x40 MLOAD PUSH2 0x44F SWAP2 SWAP1 PUSH2 0x18EC JUMP JUMPDEST PUSH1 0x40 MLOAD DUP1 SWAP2 SUB SWAP1 RETURN JUMPDEST PUSH2 0x472 PUSH1 0x4 DUP1 CALLDATASIZE SUB DUP2 ADD SWAP1 PUSH2 0x46D SWAP2 SWAP1 PUSH2 0x19D6 JUMP JUMPDEST PUSH2 0xCE8 JUMP JUMPDEST STOP JUMPDEST PUSH2 0x48E PUSH1 0x4 DUP1 CALLDATASIZE SUB DUP2 ADD SWAP1 PUSH2 0x489 SWAP2 SWAP1 PUSH2 0x1996 JUMP JUMPDEST PUSH2 0xD00 JUMP JUMPDEST STOP JUMPDEST CALLVALUE DUP1 ISZERO PUSH2 0x49C JUMPI PUSH1 0x0 DUP1 REVERT JUMPDEST POP PUSH2 0x4A5 PUSH2 0xD19 JUMP JUMPDEST PUSH1 0x40 MLOAD PUSH2 0x4B2 SWAP2 SWAP1 PUSH2 0x1A1E JUMP JUMPDEST PUSH1 0x40 MLOAD DUP1 SWAP2 SUB SWAP1 RETURN JUMPDEST PUSH2 0x4D5 PUSH1 0x4 DUP1 CALLDATASIZE SUB DUP2 ADD SWAP1 PUSH2 0x4D0 SWAP2 SWAP1 PUSH2 0x19D6 JUMP JUMPDEST PUSH2 0xD2C JUMP JUMPDEST STOP JUMPDEST CALLVALUE DUP1 ISZERO PUSH2 0x4E3 JUMPI PUSH1 0x0 DUP1 REVERT JUMPDEST POP PUSH2 0x4FE PUSH1 0x4 DUP1 CALLDATASIZE SUB DUP2 ADD SWAP1 PUSH2 0x4F9 SWAP2 SWAP1 PUSH2 0x1A88 JUMP JUMPDEST PUSH2 0xD45 JUMP JUMPDEST PUSH1 0x40 MLOAD PUSH2 0x50C SWAP3 SWAP2 SWAP1 PUSH2 0x1AC8 JUMP JUMPDEST PUSH1 0x40 MLOAD DUP1 SWAP2 SUB SWAP1 RETURN JUMPDEST PUSH2 0x52F PUSH1 0x4 DUP1 CALLDATASIZE SUB DUP2 ADD SWAP1 PUSH2 0x52A SWAP2 SWAP1 PUSH2 0x1996 JUMP JUMPDEST PUSH2 0x11EF JUMP JUMPDEST STOP JUMPDEST CALLVALUE DUP1 ISZERO PUSH2 0x53D JUMPI PUSH1 0x0 DUP1 REVERT JUMPDEST POP PUSH2 0x546 PUSH2 0x1208 JUMP JUMPDEST PUSH1 0x40 MLOAD PUSH2 0x553 SWAP2 SWAP1 PUSH2 0x1A1E JUMP JUMPDEST PUSH1 0x40 MLOAD DUP1 SWAP2 SUB SWAP1 RETURN JUMPDEST CALLVALUE DUP1 ISZERO PUSH2 0x568 JUMPI PUSH1 0x0 DUP1 REVERT JUMPDEST POP PUSH2 0x583 PUSH1 0x4 DUP1 CALLDATASIZE SUB DUP2 ADD SWAP1 PUSH2 0x57E SWAP2 SWAP1 PUSH2 0x19D6 JUMP JUMPDEST PUSH2 0x121B JUMP JUMPDEST STOP JUMPDEST PUSH2 0x59F PUSH1 0x4 DUP1 CALLDATASIZE SUB DUP2 ADD SWAP1 PUSH2 0x59A SWAP2 SWAP1 PUSH2 0x1996 JUMP JUMPDEST PUSH2 0x129E JUMP JUMPDEST STOP JUMPDEST PUSH1 0x6 DUP1 PUSH1 0x0 ADD SLOAD SWAP1 POP DUP2 JUMP JUMPDEST PUSH1 0x7 DUP1 PUSH1 0x0 ADD SLOAD SWAP1 POP DUP2 JUMP JUMPDEST PUSH2 0x5C1 PUSH2 0x12B7 JUMP JUMPDEST PUSH2 0x5CD DUP3 DUP3 PUSH1 0x1 PUSH2 0x1301 JUMP JUMPDEST POP POP POP JUMP JUMPDEST PUSH2 0x5DA PUSH2 0x12B7 JUMP JUMPDEST PUSH2 0x5E2 PUSH2 0x15FF JUMP JUMPDEST PUSH1 0x5 PUSH1 0x0 CALLER PUSH20 0xFFFFFFFFFFFFFFFFFFFFFFFFFFFFFFFFFFFFFFFF AND PUSH20 0xFFFFFFFFFFFFFFFFFFFFFFFFFFFFFFFFFFFFFFFF AND DUP2 MSTORE PUSH1 0x20 ADD SWAP1 DUP2 MSTORE PUSH1 0x20 ADD PUSH1 0x0 KECCAK256 PUSH1 0x0 SWAP1 SLOAD SWAP1 PUSH2 0x100 EXP SWAP1 DIV PUSH1 0xFF AND PUSH2 0x66E JUMPI PUSH1 0x40 MLOAD PUSH32 0x8C379A000000000000000000000000000000000000000000000000000000000 DUP2 MSTORE PUSH1 0x4 ADD PUSH2 0x665 SWAP1 PUSH2 0x1B4E JUMP JUMPDEST PUSH1 0x40 MLOAD DUP1 SWAP2 SUB SWAP1 REVERT JUMPDEST PUSH1 0xB PUSH1 0x2 SWAP1 SLOAD SWAP1 PUSH2 0x100 EXP SWAP1 DIV PUSH1 0xFF AND ISZERO PUSH2 0x6BE JUMPI PUSH1 0x40 MLOAD PUSH32 0x8C379A000000000000000000000000000000000000000000000000000000000 DUP2 MSTORE PUSH1 0x4 ADD PUSH2 0x6B5 SWAP1 PUSH2 0x1BBA JUMP JUMPDEST PUSH1 0x40 MLOAD DUP1 SWAP2 SUB SWAP1 REVERT JUMPDEST PUSH1 0xB PUSH1 0x0 SWAP1 SLOAD SWAP1 PUSH2 0x100 EXP SWAP1 DIV PUSH1 0xFF AND PUSH2 0x70D JUMPI PUSH1 0x40 MLOAD PUSH32 0x8C379A000000000000000000000000000000000000000000000000000000000 DUP2 MSTORE PUSH1 0x4 ADD PUSH2 0x704 SWAP1 PUSH2 0x1C26 JUMP JUMPDEST PUSH1 0x40 MLOAD DUP1 SWAP2 SUB SWAP1 REVERT JUMPDEST PUSH1 0xB PUSH1 0x1 SWAP1 SLOAD SWAP1 PUSH2 0x100 EXP SWAP1 DIV PUSH1 0xFF AND DUP1 ISZERO PUSH2 0x73A JUMPI POP PUSH1 0x1 PUSH2 0xFFFF AND PUSH2 0x734 PUSH1 0x7 PUSH2 0x164E JUMP JUMPDEST PUSH2 0xFFFF AND LT JUMPDEST PUSH2 0x779 JUMPI PUSH1 0x40 MLOAD PUSH32 0x8C379A000000000000000000000000000000000000000000000000000000000 DUP2 MSTORE PUSH1 0x4 ADD PUSH2 0x770 SWAP1 PUSH2 0x1C92 JUMP JUMPDEST PUSH1 0x40 MLOAD DUP1 SWAP2 SUB SWAP1 REVERT JUMPDEST PUSH1 0xB PUSH1 0x1 SWAP1 SLOAD SWAP1 PUSH2 0x100 EXP SWAP1 DIV PUSH1 0xFF AND DUP1 ISZERO PUSH2 0x7A6 JUMPI POP PUSH1 0x5 PUSH2 0xFFFF AND PUSH2 0x7A0 PUSH1 0x8 PUSH2 0x164E JUMP JUMPDEST PUSH2 0xFFFF AND LT JUMPDEST PUSH2 0x7E5 JUMPI PUSH1 0x40 MLOAD PUSH32 0x8C379A000000000000000000000000000000000000000000000000000000000 DUP2 MSTORE PUSH1 0x4 ADD PUSH2 0x7DC SWAP1 PUSH2 0x1CFE JUMP JUMPDEST PUSH1 0x40 MLOAD DUP1 SWAP2 SUB SWAP1 REVERT JUMPDEST PUSH1 0xB PUSH1 0x1 SWAP1 SLOAD SWAP1 PUSH2 0x100 EXP SWAP1 DIV PUSH1 0xFF AND DUP1 ISZERO PUSH2 0x812 JUMPI POP PUSH1 0x19 PUSH2 0xFFFF AND PUSH2 0x80C PUSH1 0x9 PUSH2 0x164E JUMP JUMPDEST PUSH2 0xFFFF AND LT JUMPDEST PUSH2 0x851 JUMPI PUSH1 0x40 MLOAD PUSH32 0x8C379A000000000000000000000000000000000000000000000000000000000 DUP2 MSTORE PUSH1 0x4 ADD PUSH2 0x848 SWAP1 PUSH2 0x1D6A JUMP JUMPDEST PUSH1 0x40 MLOAD DUP1 SWAP2 SUB SWAP1 REVERT JUMPDEST PUSH1 0xB PUSH1 0x1 SWAP1 SLOAD SWAP1 PUSH2 0x100 EXP SWAP1 DIV PUSH1 0xFF AND DUP1 ISZERO PUSH2 0x87E JUMPI POP PUSH1 0x7D PUSH2 0xFFFF AND PUSH2 0x878 PUSH1 0xA PUSH2 0x164E JUMP JUMPDEST PUSH2 0xFFFF AND LT JUMPDEST PUSH2 0x8BD JUMPI PUSH1 0x40 MLOAD PUSH32 0x8C379A000000000000000000000000000000000000000000000000000000000 DUP2 MSTORE PUSH1 0x4 ADD PUSH2 0x8B4 SWAP1 PUSH2 0x1DD6 JUMP JUMPDEST PUSH1 0x40 MLOAD DUP1 SWAP2 SUB SWAP1 REVERT JUMPDEST PUSH1 0x1 PUSH1 0xB PUSH1 0x2 PUSH2 0x100 EXP DUP2 SLOAD DUP2 PUSH1 0xFF MUL NOT AND SWAP1 DUP4 ISZERO ISZERO MUL OR SWAP1 SSTORE POP PUSH1 0x0 PUSH1 0xB PUSH1 0x1 PUSH2 0x100 EXP DUP2 SLOAD DUP2 PUSH1 0xFF MUL NOT AND SWAP1 DUP4 ISZERO ISZERO MUL OR SWAP1 SSTORE POP PUSH2 0x8FB PUSH2 0x165C JUMP JUMPDEST JUMP JUMPDEST PUSH2 0x905 PUSH2 0x12B7 JUMP JUMPDEST PUSH2 0x90D PUSH2 0x15FF JUMP JUMPDEST PUSH1 0x5 PUSH1 0x0 CALLER PUSH20 0xFFFFFFFFFFFFFFFFFFFFFFFFFFFFFFFFFFFFFFFF AND PUSH20 0xFFFFFFFFFFFFFFFFFFFFFFFFFFFFFFFFFFFFFFFF AND DUP2 MSTORE PUSH1 0x20 ADD SWAP1 DUP2 MSTORE PUSH1 0x20 ADD PUSH1 0x0 KECCAK256 PUSH1 0x0 SWAP1 SLOAD SWAP1 PUSH2 0x100 EXP SWAP1 DIV PUSH1 0xFF AND PUSH2 0x999 JUMPI PUSH1 0x40 MLOAD PUSH32 0x8C379A000000000000000000000000000000000000000000000000000000000 DUP2 MSTORE PUSH1 0x4 ADD PUSH2 0x990 SWAP1 PUSH2 0x1B4E JUMP JUMPDEST PUSH1 0x40 MLOAD DUP1 SWAP2 SUB SWAP1 REVERT JUMPDEST PUSH1 0xB PUSH1 0x0 SWAP1 SLOAD SWAP1 PUSH2 0x100 EXP SWAP1 DIV PUSH1 0xFF AND ISZERO PUSH2 0x9E9 JUMPI PUSH1 0x40 MLOAD PUSH32 0x8C379A000000000000000000000000000000000000000000000000000000000 DUP2 MSTORE PUSH1 0x4 ADD PUSH2 0x9E0 SWAP1 PUSH2 0x1E42 JUMP JUMPDEST PUSH1 0x40 MLOAD DUP1 SWAP2 SUB SWAP1 REVERT JUMPDEST PUSH1 0x0 PUSH2 0x9FC DUP3 PUSH1 0x19 PUSH2 0xFFFF AND PUSH1 0x0 PUSH2 0x1301 JUMP JUMPDEST SWAP1 POP PUSH1 0x19 PUSH2 0xFFFF AND DUP2 SUB PUSH2 0xA26 JUMPI PUSH1 0x1 PUSH1 0xB PUSH1 0x0 PUSH2 0x100 EXP DUP2 SLOAD DUP2 PUSH1 0xFF MUL NOT AND SWAP1 DUP4 ISZERO ISZERO MUL OR SWAP1 SSTORE POP JUMPDEST POP PUSH2 0xA2F PUSH2 0x165C JUMP JUMPDEST POP JUMP JUMPDEST PUSH1 0x8 DUP1 PUSH1 0x0 ADD SLOAD SWAP1 POP DUP2 JUMP JUMPDEST PUSH2 0xA46 PUSH2 0x1665 JUMP JUMPDEST PUSH2 0xA4E PUSH2 0x16E3 JUMP JUMPDEST JUMP JUMPDEST PUSH2 0xA58 PUSH2 0x12B7 JUMP JUMPDEST PUSH2 0xA65 DUP2 PUSH1 0x1 PUSH1 0x3 PUSH2 0x1301 JUMP JUMPDEST POP POP JUMP JUMPDEST PUSH1 0x0 DUP1 PUSH1 0x14 SWAP1 SLOAD SWAP1 PUSH2 0x100 EXP SWAP1 DIV PUSH1 0xFF AND SWAP1 POP SWAP1 JUMP JUMPDEST PUSH1 0xB PUSH1 0x3 SWAP1 SLOAD SWAP1 PUSH2 0x100 EXP SWAP1 DIV PUSH1 0xFF AND DUP2 JUMP JUMPDEST PUSH1 0xA DUP1 PUSH1 0x0 ADD SLOAD SWAP1 POP DUP2 JUMP JUMPDEST PUSH2 0xAA6 PUSH2 0x1665 JUMP JUMPDEST PUSH2 0xAB0 PUSH1 0x0 PUSH2 0x1745 JUMP JUMPDEST JUMP JUMPDEST PUSH2 0xABA PUSH2 0x12B7 JUMP JUMPDEST PUSH2 0xAC2 PUSH2 0x15FF JUMP JUMPDEST PUSH1 0x5 PUSH1 0x0 CALLER PUSH20 0xFFFFFFFFFFFFFFFFFFFFFFFFFFFFFFFFFFFFFFFF AND PUSH20 0xFFFFFFFFFFFFFFFFFFFFFFFFFFFFFFFFFFFFFFFF AND DUP2 MSTORE PUSH1 0x20 ADD SWAP1 DUP2 MSTORE PUSH1 0x20 ADD PUSH1 0x0 KECCAK256 PUSH1 0x0 SWAP1 SLOAD SWAP1 PUSH2 0x100 EXP SWAP1 DIV PUSH1 0xFF AND PUSH2 0xB4E JUMPI PUSH1 0x40 MLOAD PUSH32 0x8C379A000000000000000000000000000000000000000000000000000000000 DUP2 MSTORE PUSH1 0x4 ADD PUSH2 0xB45 SWAP1 PUSH2 0x1B4E JUMP JUMPDEST PUSH1 0x40 MLOAD DUP1 SWAP2 SUB SWAP1 REVERT JUMPDEST PUSH1 0xB PUSH1 0x1 SWAP1 SLOAD SWAP1 PUSH2 0x100 EXP SWAP1 DIV PUSH1 0xFF AND ISZERO PUSH2 0xB9E JUMPI PUSH1 0x40 MLOAD PUSH32 0x8C379A000000000000000000000000000000000000000000000000000000000 DUP2 MSTORE PUSH1 0x4 ADD PUSH2 0xB95 SWAP1 PUSH2 0x1BBA JUMP JUMPDEST PUSH1 0x40 MLOAD DUP1 SWAP2 SUB SWAP1 REVERT JUMPDEST PUSH1 0xB PUSH1 0x0 SWAP1 SLOAD SWAP1 PUSH2 0x100 EXP SWAP1 DIV PUSH1 0xFF AND PUSH2 0xBED JUMPI PUSH1 0x40 MLOAD PUSH32 0x8C379A000000000000000000000000000000000000000000000000000000000 DUP2 MSTORE PUSH1 0x4 ADD PUSH2 0xBE4 SWAP1 PUSH2 0x1C26 JUMP JUMPDEST PUSH1 0x40 MLOAD DUP1 SWAP2 SUB SWAP1 REVERT JUMPDEST PUSH1 0x1 PUSH1 0xB PUSH1 0x1 PUSH2 0x100 EXP DUP2 SLOAD DUP2 PUSH1 0xFF MUL NOT AND SWAP1 DUP4 ISZERO ISZERO MUL OR SWAP1 SSTORE POP PUSH2 0xC10 PUSH2 0x165C JUMP JUMPDEST JUMP JUMPDEST PUSH2 0xC1A PUSH2 0x1665 JUMP JUMPDEST PUSH2 0xC22 PUSH2 0x1809 JUMP JUMPDEST JUMP JUMPDEST PUSH2 0xC2C PUSH2 0x12B7 JUMP JUMPDEST PUSH2 0xC39 DUP2 PUSH1 0x1 PUSH1 0x2 PUSH2 0x1301 JUMP JUMPDEST POP POP JUMP JUMPDEST PUSH1 0x0 DUP1 PUSH1 0x0 SWAP1 SLOAD SWAP1 PUSH2 0x100 EXP SWAP1 DIV PUSH20 0xFFFFFFFFFFFFFFFFFFFFFFFFFFFFFFFFFFFFFFFF AND SWAP1 POP SWAP1 JUMP JUMPDEST PUSH1 0xB PUSH1 0x1 SWAP1 SLOAD SWAP1 PUSH2 0x100 EXP SWAP1 DIV PUSH1 0xFF AND DUP2 JUMP JUMPDEST PUSH2 0xC81 PUSH2 0x1665 JUMP JUMPDEST PUSH1 0x1 PUSH1 0x5 PUSH1 0x0 DUP4 PUSH20 0xFFFFFFFFFFFFFFFFFFFFFFFFFFFFFFFFFFFFFFFF AND PUSH20 0xFFFFFFFFFFFFFFFFFFFFFFFFFFFFFFFFFFFFFFFF AND DUP2 MSTORE PUSH1 0x20 ADD SWAP1 DUP2 MSTORE PUSH1 0x20 ADD PUSH1 0x0 KECCAK256 PUSH1 0x0 PUSH2 0x100 EXP DUP2 SLOAD DUP2 PUSH1 0xFF MUL NOT AND SWAP1 DUP4 ISZERO ISZERO MUL OR SWAP1 SSTORE POP POP JUMP JUMPDEST PUSH1 0x9 DUP1 PUSH1 0x0 ADD SLOAD SWAP1 POP DUP2 JUMP JUMPDEST PUSH2 0xCF0 PUSH2 0x12B7 JUMP JUMPDEST PUSH2 0xCFC DUP2 PUSH1 0x1 DUP1 PUSH2 0x1301 JUMP JUMPDEST POP POP JUMP JUMPDEST PUSH2 0xD08 PUSH2 0x12B7 JUMP JUMPDEST PUSH2 0xD14 DUP3 DUP3 PUSH1 0x4 PUSH2 0x1301 JUMP JUMPDEST POP POP POP JUMP JUMPDEST PUSH1 0xB PUSH1 0x0 SWAP1 SLOAD SWAP1 PUSH2 0x100 EXP SWAP1 DIV PUSH1 0xFF AND DUP2 JUMP JUMPDEST PUSH2 0xD34 PUSH2 0x12B7 JUMP JUMPDEST PUSH2 0xD41 DUP2 PUSH1 0x1 PUSH1 0x4 PUSH2 0x1301 JUMP JUMPDEST POP POP JUMP JUMPDEST PUSH1 0x0 DUP1 PUSH2 0xD50 PUSH2 0x12B7 JUMP JUMPDEST PUSH1 0x0 DUP5 GT PUSH2 0xD93 JUMPI PUSH1 0x40 MLOAD PUSH32 0x8C379A000000000000000000000000000000000000000000000000000000000 DUP2 MSTORE PUSH1 0x4 ADD PUSH2 0xD8A SWAP1 PUSH2 0x1EAE JUMP JUMPDEST PUSH1 0x40 MLOAD DUP1 SWAP2 SUB SWAP1 REVERT JUMPDEST PUSH1 0xB PUSH1 0x0 SWAP1 SLOAD SWAP1 PUSH2 0x100 EXP SWAP1 DIV PUSH1 0xFF AND PUSH2 0xDE2 JUMPI PUSH1 0x40 MLOAD PUSH32 0x8C379A000000000000000000000000000000000000000000000000000000000 DUP2 MSTORE PUSH1 0x4 ADD PUSH2 0xDD9 SWAP1 PUSH2 0x1C26 JUMP JUMPDEST PUSH1 0x40 MLOAD DUP1 SWAP2 SUB SWAP1 REVERT JUMPDEST PUSH1 0x0 DUP1 PUSH1 0x0 DUP1 PUSH1 0x0 PUSH1 0x1 PUSH1 0x4 DUP2 GT ISZERO PUSH2 0xDFE JUMPI PUSH2 0xDFD PUSH2 0x1ECE JUMP JUMPDEST JUMPDEST DUP9 PUSH1 0x4 DUP2 GT ISZERO PUSH2 0xE11 JUMPI PUSH2 0xE10 PUSH2 0x1ECE JUMP JUMPDEST JUMPDEST SUB PUSH2 0xE7F JUMPI PUSH2 0xE20 PUSH1 0x7 PUSH2 0x164E JUMP JUMPDEST SWAP5 POP DUP9 DUP6 PUSH2 0xE2E SWAP2 SWAP1 PUSH2 0x1F3A JUMP JUMPDEST SWAP4 POP PUSH1 0x1 PUSH2 0xFFFF AND SWAP3 POP PUSH1 0xA PUSH2 0xFFFF AND SWAP2 POP PUSH1 0x50 PUSH2 0xFFFF AND SWAP1 POP DUP5 PUSH1 0x19 PUSH2 0xE55 SWAP2 SWAP1 PUSH2 0x1F3A JUMP JUMPDEST PUSH2 0xFFFF AND SWAP7 POP PUSH1 0x1 DUP5 PUSH1 0x19 PUSH2 0xE6A SWAP2 SWAP1 PUSH2 0x1F3A JUMP JUMPDEST PUSH2 0xE74 SWAP2 SWAP1 PUSH2 0x1F70 JUMP JUMPDEST PUSH2 0xFFFF AND SWAP6 POP PUSH2 0x1083 JUMP JUMPDEST PUSH1 0x2 PUSH1 0x4 DUP2 GT ISZERO PUSH2 0xE93 JUMPI PUSH2 0xE92 PUSH2 0x1ECE JUMP JUMPDEST JUMPDEST DUP9 PUSH1 0x4 DUP2 GT ISZERO PUSH2 0xEA6 JUMPI PUSH2 0xEA5 PUSH2 0x1ECE JUMP JUMPDEST JUMPDEST SUB PUSH2 0xF15 JUMPI PUSH2 0xEB5 PUSH1 0x8 PUSH2 0x164E JUMP JUMPDEST SWAP5 POP DUP9 DUP6 PUSH2 0xEC3 SWAP2 SWAP1 PUSH2 0x1F3A JUMP JUMPDEST SWAP4 POP PUSH1 0x5 PUSH2 0xFFFF AND SWAP3 POP PUSH1 0x32 PUSH2 0xFFFF AND SWAP2 POP PUSH2 0x190 PUSH2 0xFFFF AND SWAP1 POP DUP5 PUSH1 0x7E PUSH2 0xEEB SWAP2 SWAP1 PUSH2 0x1F3A JUMP JUMPDEST PUSH2 0xFFFF AND SWAP7 POP PUSH1 0x1 DUP5 PUSH1 0x7E PUSH2 0xF00 SWAP2 SWAP1 PUSH2 0x1F3A JUMP JUMPDEST PUSH2 0xF0A SWAP2 SWAP1 PUSH2 0x1F70 JUMP JUMPDEST PUSH2 0xFFFF AND SWAP6 POP PUSH2 0x1082 JUMP JUMPDEST PUSH1 0x3 PUSH1 0x4 DUP2 GT ISZERO PUSH2 0xF29 JUMPI PUSH2 0xF28 PUSH2 0x1ECE JUMP JUMPDEST JUMPDEST DUP9 PUSH1 0x4 DUP2 GT ISZERO PUSH2 0xF3C JUMPI PUSH2 0xF3B PUSH2 0x1ECE JUMP JUMPDEST JUMPDEST SUB PUSH2 0xFAD JUMPI PUSH2 0xF4B PUSH1 0x9 PUSH2 0x164E JUMP JUMPDEST SWAP5 POP DUP9 DUP6 PUSH2 0xF59 SWAP2 SWAP1 PUSH2 0x1F3A JUMP JUMPDEST SWAP4 POP PUSH1 0x19 PUSH2 0xFFFF AND SWAP3 POP PUSH1 0xFA PUSH2 0xFFFF AND SWAP2 POP PUSH2 0x7D0 PUSH2 0xFFFF AND SWAP1 POP DUP5 PUSH2 0x273 PUSH2 0xF82 SWAP2 SWAP1 PUSH2 0x1F3A JUMP JUMPDEST PUSH2 0xFFFF AND SWAP7 POP PUSH1 0x1 DUP5 PUSH2 0x273 PUSH2 0xF98 SWAP2 SWAP1 PUSH2 0x1F3A JUMP JUMPDEST PUSH2 0xFA2 SWAP2 SWAP1 PUSH2 0x1F70 JUMP JUMPDEST PUSH2 0xFFFF AND SWAP6 POP PUSH2 0x1081 JUMP JUMPDEST PUSH1 0x4 DUP1 DUP2 GT ISZERO PUSH2 0xFC0 JUMPI PUSH2 0xFBF PUSH2 0x1ECE JUMP JUMPDEST JUMPDEST DUP9 PUSH1 0x4 DUP2 GT ISZERO PUSH2 0xFD3 JUMPI PUSH2 0xFD2 PUSH2 0x1ECE JUMP JUMPDEST JUMPDEST SUB PUSH2 0x1045 JUMPI PUSH2 0xFE2 PUSH1 0xA PUSH2 0x164E JUMP JUMPDEST SWAP5 POP DUP9 DUP6 PUSH2 0xFF0 SWAP2 SWAP1 PUSH2 0x1F3A JUMP JUMPDEST SWAP4 POP PUSH1 0x7D PUSH2 0xFFFF AND SWAP3 POP PUSH2 0x4E2 PUSH2 0xFFFF AND SWAP2 POP PUSH2 0x168A PUSH2 0xFFFF AND SWAP1 POP DUP5 PUSH2 0xC38 PUSH2 0x101A SWAP2 SWAP1 PUSH2 0x1F3A JUMP JUMPDEST PUSH2 0xFFFF AND SWAP7 POP PUSH1 0x1 DUP5 PUSH2 0xC38 PUSH2 0x1030 SWAP2 SWAP1 PUSH2 0x1F3A JUMP JUMPDEST PUSH2 0x103A SWAP2 SWAP1 PUSH2 0x1F70 JUMP JUMPDEST PUSH2 0xFFFF AND SWAP6 POP PUSH2 0x1080 JUMP JUMPDEST PUSH1 0x40 MLOAD PUSH32 0x8C379A000000000000000000000000000000000000000000000000000000000 DUP2 MSTORE PUSH1 0x4 ADD PUSH2 0x1077 SWAP1 PUSH2 0x1FF2 JUMP JUMPDEST PUSH1 0x40 MLOAD DUP1 SWAP2 SUB SWAP1 REVERT JUMPDEST JUMPDEST JUMPDEST JUMPDEST PUSH1 0xB PUSH1 0x1 SWAP1 SLOAD SWAP1 PUSH2 0x100 EXP SWAP1 DIV PUSH1 0xFF AND ISZERO PUSH2 0x10E4 JUMPI DUP3 DUP5 PUSH2 0xFFFF AND GT ISZERO PUSH2 0x10DF JUMPI PUSH1 0x40 MLOAD PUSH32 0x8C379A000000000000000000000000000000000000000000000000000000000 DUP2 MSTORE PUSH1 0x4 ADD PUSH2 0x10D6 SWAP1 PUSH2 0x205E JUMP JUMPDEST PUSH1 0x40 MLOAD DUP1 SWAP2 SUB SWAP1 REVERT JUMPDEST PUSH2 0x11E3 JUMP JUMPDEST PUSH1 0xB PUSH1 0x2 SWAP1 SLOAD SWAP1 PUSH2 0x100 EXP SWAP1 DIV PUSH1 0xFF AND ISZERO PUSH2 0x1145 JUMPI DUP2 DUP5 PUSH2 0xFFFF AND GT ISZERO PUSH2 0x1140 JUMPI PUSH1 0x40 MLOAD PUSH32 0x8C379A000000000000000000000000000000000000000000000000000000000 DUP2 MSTORE PUSH1 0x4 ADD PUSH2 0x1137 SWAP1 PUSH2 0x205E JUMP JUMPDEST PUSH1 0x40 MLOAD DUP1 SWAP2 SUB SWAP1 REVERT JUMPDEST PUSH2 0x11E2 JUMP JUMPDEST PUSH1 0xB PUSH1 0x3 SWAP1 SLOAD SWAP1 PUSH2 0x100 EXP SWAP1 DIV PUSH1 0xFF AND ISZERO PUSH2 0x11A6 JUMPI DUP1 DUP5 PUSH2 0xFFFF AND GT ISZERO PUSH2 0x11A1 JUMPI PUSH1 0x40 MLOAD PUSH32 0x8C379A000000000000000000000000000000000000000000000000000000000 DUP2 MSTORE PUSH1 0x4 ADD PUSH2 0x1198 SWAP1 PUSH2 0x205E JUMP JUMPDEST PUSH1 0x40 MLOAD DUP1 SWAP2 SUB SWAP1 REVERT JUMPDEST PUSH2 0x11E1 JUMP JUMPDEST PUSH1 0x40 MLOAD PUSH32 0x8C379A000000000000000000000000000000000000000000000000000000000 DUP2 MSTORE PUSH1 0x4 ADD PUSH2 0x11D8 SWAP1 PUSH2 0x20CA JUMP JUMPDEST PUSH1 0x40 MLOAD DUP1 SWAP2 SUB SWAP1 REVERT JUMPDEST JUMPDEST JUMPDEST POP POP POP POP POP SWAP3 POP SWAP3 SWAP1 POP JUMP JUMPDEST PUSH2 0x11F7 PUSH2 0x12B7 JUMP JUMPDEST PUSH2 0x1203 DUP3 DUP3 PUSH1 0x3 PUSH2 0x1301 JUMP JUMPDEST POP POP POP JUMP JUMPDEST PUSH1 0xB PUSH1 0x2 SWAP1 SLOAD SWAP1 PUSH2 0x100 EXP SWAP1 DIV PUSH1 0xFF AND DUP2 JUMP JUMPDEST PUSH2 0x1223 PUSH2 0x1665 JUMP JUMPDEST PUSH1 0x0 PUSH20 0xFFFFFFFFFFFFFFFFFFFFFFFFFFFFFFFFFFFFFFFF AND DUP2 PUSH20 0xFFFFFFFFFFFFFFFFFFFFFFFFFFFFFFFFFFFFFFFF AND SUB PUSH2 0x1292 JUMPI PUSH1 0x40 MLOAD PUSH32 0x8C379A000000000000000000000000000000000000000000000000000000000 DUP2 MSTORE PUSH1 0x4 ADD PUSH2 0x1289 SWAP1 PUSH2 0x215C JUMP JUMPDEST PUSH1 0x40 MLOAD DUP1 SWAP2 SUB SWAP1 REVERT JUMPDEST PUSH2 0x129B DUP2 PUSH2 0x1745 JUMP JUMPDEST POP JUMP JUMPDEST PUSH2 0x12A6 PUSH2 0x12B7 JUMP JUMPDEST PUSH2 0x12B2 DUP3 DUP3 PUSH1 0x2 PUSH2 0x1301 JUMP JUMPDEST POP POP POP JUMP JUMPDEST PUSH2 0x12BF PUSH2 0xA69 JUMP JUMPDEST ISZERO PUSH2 0x12FF JUMPI PUSH1 0x40 MLOAD PUSH32 0x8C379A000000000000000000000000000000000000000000000000000000000 DUP2 MSTORE PUSH1 0x4 ADD PUSH2 0x12F6 SWAP1 PUSH2 0x21C8 JUMP JUMPDEST PUSH1 0x40 MLOAD DUP1 SWAP2 SUB SWAP1 REVERT JUMPDEST JUMP JUMPDEST PUSH1 0x0 PUSH2 0x130B PUSH2 0x12B7 JUMP JUMPDEST PUSH1 0xB PUSH1 0x0 SWAP1 SLOAD SWAP1 PUSH2 0x100 EXP SWAP1 DIV PUSH1 0xFF AND PUSH2 0x135A JUMPI PUSH1 0x40 MLOAD PUSH32 0x8C379A000000000000000000000000000000000000000000000000000000000 DUP2 MSTORE PUSH1 0x4 ADD PUSH2 0x1351 SWAP1 PUSH2 0x1C26 JUMP JUMPDEST PUSH1 0x40 MLOAD DUP1 SWAP2 SUB SWAP1 REVERT JUMPDEST PUSH1 0x0 DUP1 PUSH2 0x1367 DUP6 DUP6 PUSH2 0xD45 JUMP JUMPDEST SWAP2 POP SWAP2 POP PUSH1 0x0 DUP3 SWAP1 POP PUSH1 0x0 DUP4 SWAP1 POP JUMPDEST DUP3 DUP2 GT PUSH2 0x15DA JUMPI PUSH1 0x2 PUSH1 0x0 SWAP1 SLOAD SWAP1 PUSH2 0x100 EXP SWAP1 DIV PUSH20 0xFFFFFFFFFFFFFFFFFFFFFFFFFFFFFFFFFFFFFFFF AND PUSH20 0xFFFFFFFFFFFFFFFFFFFFFFFFFFFFFFFFFFFFFFFF AND PUSH4 0xA1448194 DUP10 DUP4 PUSH1 0x40 MLOAD DUP4 PUSH4 0xFFFFFFFF AND PUSH1 0xE0 SHL DUP2 MSTORE PUSH1 0x4 ADD PUSH2 0x13DA SWAP3 SWAP2 SWAP1 PUSH2 0x21E8 JUMP JUMPDEST PUSH1 0x0 PUSH1 0x40 MLOAD DUP1 DUP4 SUB DUP2 PUSH1 0x0 DUP8 DUP1 EXTCODESIZE ISZERO DUP1 ISZERO PUSH2 0x13F4 JUMPI PUSH1 0x0 DUP1 REVERT JUMPDEST POP GAS CALL ISZERO DUP1 ISZERO PUSH2 0x1408 JUMPI RETURNDATASIZE PUSH1 0x0 DUP1 RETURNDATACOPY RETURNDATASIZE PUSH1 0x0 REVERT JUMPDEST POP POP POP POP PUSH1 0x4 PUSH1 0x0 SWAP1 SLOAD SWAP1 PUSH2 0x100 EXP SWAP1 DIV PUSH20 0xFFFFFFFFFFFFFFFFFFFFFFFFFFFFFFFFFFFFFFFF AND PUSH20 0xFFFFFFFFFFFFFFFFFFFFFFFFFFFFFFFFFFFFFFFF AND PUSH4 0xBE1E1145 DUP10 DUP9 PUSH1 0x40 MLOAD DUP4 PUSH4 0xFFFFFFFF AND PUSH1 0xE0 SHL DUP2 MSTORE PUSH1 0x4 ADD PUSH2 0x1469 SWAP3 SWAP2 SWAP1 PUSH2 0x2259 JUMP JUMPDEST PUSH1 0x0 PUSH1 0x40 MLOAD DUP1 DUP4 SUB DUP2 PUSH1 0x0 DUP8 DUP1 EXTCODESIZE ISZERO DUP1 ISZERO PUSH2 0x1483 JUMPI PUSH1 0x0 DUP1 REVERT JUMPDEST POP GAS CALL ISZERO DUP1 ISZERO PUSH2 0x1497 JUMPI RETURNDATASIZE PUSH1 0x0 DUP1 RETURNDATACOPY RETURNDATASIZE PUSH1 0x0 REVERT JUMPDEST POP POP POP POP DUP1 SWAP2 POP PUSH1 0x1 PUSH1 0x4 DUP2 GT ISZERO PUSH2 0x14B2 JUMPI PUSH2 0x14B1 PUSH2 0x1ECE JUMP JUMPDEST JUMPDEST DUP7 PUSH1 0x4 DUP2 GT ISZERO PUSH2 0x14C5 JUMPI PUSH2 0x14C4 PUSH2 0x1ECE JUMP JUMPDEST JUMPDEST SUB PUSH2 0x14D9 JUMPI PUSH2 0x14D4 PUSH1 0x7 PUSH2 0x186C JUMP JUMPDEST PUSH2 0x15C7 JUMP JUMPDEST PUSH1 0x2 PUSH1 0x4 DUP2 GT ISZERO PUSH2 0x14ED JUMPI PUSH2 0x14EC PUSH2 0x1ECE JUMP JUMPDEST JUMPDEST DUP7 PUSH1 0x4 DUP2 GT ISZERO PUSH2 0x1500 JUMPI PUSH2 0x14FF PUSH2 0x1ECE JUMP JUMPDEST JUMPDEST SUB PUSH2 0x1514 JUMPI PUSH2 0x150F PUSH1 0x8 PUSH2 0x186C JUMP JUMPDEST PUSH2 0x15C6 JUMP JUMPDEST PUSH1 0x3 PUSH1 0x4 DUP2 GT ISZERO PUSH2 0x1528 JUMPI PUSH2 0x1527 PUSH2 0x1ECE JUMP JUMPDEST JUMPDEST DUP7 PUSH1 0x4 DUP2 GT ISZERO PUSH2 0x153B JUMPI PUSH2 0x153A PUSH2 0x1ECE JUMP JUMPDEST JUMPDEST SUB PUSH2 0x154F JUMPI PUSH2 0x154A PUSH1 0x9 PUSH2 0x186C JUMP JUMPDEST PUSH2 0x15C5 JUMP JUMPDEST PUSH1 0x4 DUP1 DUP2 GT ISZERO PUSH2 0x1562 JUMPI PUSH2 0x1561 PUSH2 0x1ECE JUMP JUMPDEST JUMPDEST DUP7 PUSH1 0x4 DUP2 GT ISZERO PUSH2 0x1575 JUMPI PUSH2 0x1574 PUSH2 0x1ECE JUMP JUMPDEST JUMPDEST SUB PUSH2 0x1589 JUMPI PUSH2 0x1584 PUSH1 0xA PUSH2 0x186C JUMP JUMPDEST PUSH2 0x15C4 JUMP JUMPDEST PUSH1 0x40 MLOAD PUSH32 0x8C379A000000000000000000000000000000000000000000000000000000000 DUP2 MSTORE PUSH1 0x4 ADD PUSH2 0x15BB SWAP1 PUSH2 0x1FF2 JUMP JUMPDEST PUSH1 0x40 MLOAD DUP1 SWAP2 SUB SWAP1 REVERT JUMPDEST JUMPDEST JUMPDEST JUMPDEST DUP1 DUP1 PUSH2 0x15D2 SWAP1 PUSH2 0x2282 JUMP JUMPDEST SWAP2 POP POP PUSH2 0x1376 JUMP JUMPDEST POP PUSH1 0x1 DUP4 DUP3 PUSH2 0x15E9 SWAP2 SWAP1 PUSH2 0x22CA JUMP JUMPDEST PUSH2 0x15F3 SWAP2 SWAP1 PUSH2 0x22FE JUMP JUMPDEST SWAP4 POP POP POP POP SWAP4 SWAP3 POP POP POP JUMP JUMPDEST PUSH1 0x2 PUSH1 0x1 SLOAD SUB PUSH2 0x1644 JUMPI PUSH1 0x40 MLOAD PUSH32 0x8C379A000000000000000000000000000000000000000000000000000000000 DUP2 MSTORE PUSH1 0x4 ADD PUSH2 0x163B SWAP1 PUSH2 0x237E JUMP JUMPDEST PUSH1 0x40 MLOAD DUP1 SWAP2 SUB SWAP1 REVERT JUMPDEST PUSH1 0x2 PUSH1 0x1 DUP2 SWAP1 SSTORE POP JUMP JUMPDEST PUSH1 0x0 DUP2 PUSH1 0x0 ADD SLOAD SWAP1 POP SWAP2 SWAP1 POP JUMP JUMPDEST PUSH1 0x1 DUP1 DUP2 SWAP1 SSTORE POP JUMP JUMPDEST PUSH2 0x166D PUSH2 0x1882 JUMP JUMPDEST PUSH20 0xFFFFFFFFFFFFFFFFFFFFFFFFFFFFFFFFFFFFFFFF AND PUSH2 0x168B PUSH2 0xC3D JUMP JUMPDEST PUSH20 0xFFFFFFFFFFFFFFFFFFFFFFFFFFFFFFFFFFFFFFFF AND EQ PUSH2 0x16E1 JUMPI PUSH1 0x40 MLOAD PUSH32 0x8C379A000000000000000000000000000000000000000000000000000000000 DUP2 MSTORE PUSH1 0x4 ADD PUSH2 0x16D8 SWAP1 PUSH2 0x23EA JUMP JUMPDEST PUSH1 0x40 MLOAD DUP1 SWAP2 SUB SWAP1 REVERT JUMPDEST JUMP JUMPDEST PUSH2 0x16EB PUSH2 0x188A JUMP JUMPDEST PUSH1 0x0 DUP1 PUSH1 0x14 PUSH2 0x100 EXP DUP2 SLOAD DUP2 PUSH1 0xFF MUL NOT AND SWAP1 DUP4 ISZERO ISZERO MUL OR SWAP1 SSTORE POP PUSH32 0x5DB9EE0A495BF2E6FF9C91A7834C1BA4FDD244A5E8AA4E537BD38AEAE4B073AA PUSH2 0x172E PUSH2 0x1882 JUMP JUMPDEST PUSH1 0x40 MLOAD PUSH2 0x173B SWAP2 SWAP1 PUSH2 0x1A48 JUMP JUMPDEST PUSH1 0x40 MLOAD DUP1 SWAP2 SUB SWAP1 LOG1 JUMP JUMPDEST PUSH1 0x0 DUP1 PUSH1 0x0 SWAP1 SLOAD SWAP1 PUSH2 0x100 EXP SWAP1 DIV PUSH20 0xFFFFFFFFFFFFFFFFFFFFFFFFFFFFFFFFFFFFFFFF AND SWAP1 POP DUP2 PUSH1 0x0 DUP1 PUSH2 0x100 EXP DUP2 SLOAD DUP2 PUSH20 0xFFFFFFFFFFFFFFFFFFFFFFFFFFFFFFFFFFFFFFFF MUL NOT AND SWAP1 DUP4 PUSH20 0xFFFFFFFFFFFFFFFFFFFFFFFFFFFFFFFFFFFFFFFF AND MUL OR SWAP1 SSTORE POP DUP2 PUSH20 0xFFFFFFFFFFFFFFFFFFFFFFFFFFFFFFFFFFFFFFFF AND DUP2 PUSH20 0xFFFFFFFFFFFFFFFFFFFFFFFFFFFFFFFFFFFFFFFF AND PUSH32 0x8BE0079C531659141344CD1FD0A4F28419497F9722A3DAAFE3B4186F6B6457E0 PUSH1 0x40 MLOAD PUSH1 0x40 MLOAD DUP1 SWAP2 SUB SWAP1 LOG3 POP POP JUMP JUMPDEST PUSH2 0x1811 PUSH2 0x12B7 JUMP JUMPDEST PUSH1 0x1 PUSH1 0x0 PUSH1 0x14 PUSH2 0x100 EXP DUP2 SLOAD DUP2 PUSH1 0xFF MUL NOT AND SWAP1 DUP4 ISZERO ISZERO MUL OR SWAP1 SSTORE POP PUSH32 0x62E78CEA01BEE320CD4E420270B5EA74000D11B0C9F74754EBDBFC544B05A258 PUSH2 0x1855 PUSH2 0x1882 JUMP JUMPDEST PUSH1 0x40 MLOAD PUSH2 0x1862 SWAP2 SWAP1 PUSH2 0x1A48 JUMP JUMPDEST PUSH1 0x40 MLOAD DUP1 SWAP2 SUB SWAP1 LOG1 JUMP JUMPDEST PUSH1 0x1 DUP2 PUSH1 0x0 ADD PUSH1 0x0 DUP3 DUP3 SLOAD ADD SWAP3 POP POP DUP2 SWAP1 SSTORE POP POP JUMP JUMPDEST PUSH1 0x0 CALLER SWAP1 POP SWAP1 JUMP JUMPDEST PUSH2 0x1892 PUSH2 0xA69 JUMP JUMPDEST PUSH2 0x18D1 JUMPI PUSH1 0x40 MLOAD PUSH32 0x8C379A000000000000000000000000000000000000000000000000000000000 DUP2 MSTORE PUSH1 0x4 ADD PUSH2 0x18C8 SWAP1 PUSH2 0x2456 JUMP JUMPDEST PUSH1 0x40 MLOAD DUP1 SWAP2 SUB SWAP1 REVERT JUMPDEST JUMP JUMPDEST PUSH1 0x0 DUP2 SWAP1 POP SWAP2 SWAP1 POP JUMP JUMPDEST PUSH2 0x18E6 DUP2 PUSH2 0x18D3 JUMP JUMPDEST DUP3 MSTORE POP POP JUMP JUMPDEST PUSH1 0x0 PUSH1 0x20 DUP3 ADD SWAP1 POP PUSH2 0x1901 PUSH1 0x0 DUP4 ADD DUP5 PUSH2 0x18DD JUMP JUMPDEST SWAP3 SWAP2 POP POP JUMP JUMPDEST PUSH1 0x0 DUP1 REVERT JUMPDEST PUSH1 0x0 PUSH20 0xFFFFFFFFFFFFFFFFFFFFFFFFFFFFFFFFFFFFFFFF DUP3 AND SWAP1 POP SWAP2 SWAP1 POP JUMP JUMPDEST PUSH1 0x0 PUSH2 0x1937 DUP3 PUSH2 0x190C JUMP JUMPDEST SWAP1 POP SWAP2 SWAP1 POP JUMP JUMPDEST PUSH2 0x1947 DUP2 PUSH2 0x192C JUMP JUMPDEST DUP2 EQ PUSH2 0x1952 JUMPI PUSH1 0x0 DUP1 REVERT JUMPDEST POP JUMP JUMPDEST PUSH1 0x0 DUP2 CALLDATALOAD SWAP1 POP PUSH2 0x1964 DUP2 PUSH2 0x193E JUMP JUMPDEST SWAP3 SWAP2 POP POP JUMP JUMPDEST PUSH2 0x1973 DUP2 PUSH2 0x18D3 JUMP JUMPDEST DUP2 EQ PUSH2 0x197E JUMPI PUSH1 0x0 DUP1 REVERT JUMPDEST POP JUMP JUMPDEST PUSH1 0x0 DUP2 CALLDATALOAD SWAP1 POP PUSH2 0x1990 DUP2 PUSH2 0x196A JUMP JUMPDEST SWAP3 SWAP2 POP POP JUMP JUMPDEST PUSH1 0x0 DUP1 PUSH1 0x40 DUP4 DUP6 SUB SLT ISZERO PUSH2 0x19AD JUMPI PUSH2 0x19AC PUSH2 0x1907 JUMP JUMPDEST JUMPDEST PUSH1 0x0 PUSH2 0x19BB DUP6 DUP3 DUP7 ADD PUSH2 0x1955 JUMP JUMPDEST SWAP3 POP POP PUSH1 0x20 PUSH2 0x19CC DUP6 DUP3 DUP7 ADD PUSH2 0x1981 JUMP JUMPDEST SWAP2 POP POP SWAP3 POP SWAP3 SWAP1 POP JUMP JUMPDEST PUSH1 0x0 PUSH1 0x20 DUP3 DUP5 SUB SLT ISZERO PUSH2 0x19EC JUMPI PUSH2 0x19EB PUSH2 0x1907 JUMP JUMPDEST JUMPDEST PUSH1 0x0 PUSH2 0x19FA DUP5 DUP3 DUP6 ADD PUSH2 0x1955 JUMP JUMPDEST SWAP2 POP POP SWAP3 SWAP2 POP POP JUMP JUMPDEST PUSH1 0x0 DUP2 ISZERO ISZERO SWAP1 POP SWAP2 SWAP1 POP JUMP JUMPDEST PUSH2 0x1A18 DUP2 PUSH2 0x1A03 JUMP JUMPDEST DUP3 MSTORE POP POP JUMP JUMPDEST PUSH1 0x0 PUSH1 0x20 DUP3 ADD SWAP1 POP PUSH2 0x1A33 PUSH1 0x0 DUP4 ADD DUP5 PUSH2 0x1A0F JUMP JUMPDEST SWAP3 SWAP2 POP POP JUMP JUMPDEST PUSH2 0x1A42 DUP2 PUSH2 0x192C JUMP JUMPDEST DUP3 MSTORE POP POP JUMP JUMPDEST PUSH1 0x0 PUSH1 0x20 DUP3 ADD SWAP1 POP PUSH2 0x1A5D PUSH1 0x0 DUP4 ADD DUP5 PUSH2 0x1A39 JUMP JUMPDEST SWAP3 SWAP2 POP POP JUMP JUMPDEST PUSH1 0x5 DUP2 LT PUSH2 0x1A70 JUMPI PUSH1 0x0 DUP1 REVERT JUMPDEST POP JUMP JUMPDEST PUSH1 0x0 DUP2 CALLDATALOAD SWAP1 POP PUSH2 0x1A82 DUP2 PUSH2 0x1A63 JUMP JUMPDEST SWAP3 SWAP2 POP POP JUMP JUMPDEST PUSH1 0x0 DUP1 PUSH1 0x40 DUP4 DUP6 SUB SLT ISZERO PUSH2 0x1A9F JUMPI PUSH2 0x1A9E PUSH2 0x1907 JUMP JUMPDEST JUMPDEST PUSH1 0x0 PUSH2 0x1AAD DUP6 DUP3 DUP7 ADD PUSH2 0x1981 JUMP JUMPDEST SWAP3 POP POP PUSH1 0x20 PUSH2 0x1ABE DUP6 DUP3 DUP7 ADD PUSH2 0x1A73 JUMP JUMPDEST SWAP2 POP POP SWAP3 POP SWAP3 SWAP1 POP JUMP JUMPDEST PUSH1 0x0 PUSH1 0x40 DUP3 ADD SWAP1 POP PUSH2 0x1ADD PUSH1 0x0 DUP4 ADD DUP6 PUSH2 0x18DD JUMP JUMPDEST PUSH2 0x1AEA PUSH1 0x20 DUP4 ADD DUP5 PUSH2 0x18DD JUMP JUMPDEST SWAP4 SWAP3 POP POP POP JUMP JUMPDEST PUSH1 0x0 DUP3 DUP3 MSTORE PUSH1 0x20 DUP3 ADD SWAP1 POP SWAP3 SWAP2 POP POP JUMP JUMPDEST PUSH32 0x4E6F204175746800000000000000000000000000000000000000000000000000 PUSH1 0x0 DUP3 ADD MSTORE POP JUMP JUMPDEST PUSH1 0x0 PUSH2 0x1B38 PUSH1 0x7 DUP4 PUSH2 0x1AF1 JUMP JUMPDEST SWAP2 POP PUSH2 0x1B43 DUP3 PUSH2 0x1B02 JUMP JUMPDEST PUSH1 0x20 DUP3 ADD SWAP1 POP SWAP2 SWAP1 POP JUMP JUMPDEST PUSH1 0x0 PUSH1 0x20 DUP3 ADD SWAP1 POP DUP2 DUP2 SUB PUSH1 0x0 DUP4 ADD MSTORE PUSH2 0x1B67 DUP2 PUSH2 0x1B2B JUMP JUMPDEST SWAP1 POP SWAP2 SWAP1 POP JUMP JUMPDEST PUSH32 0x416C726561647920756E6C6F636B656400000000000000000000000000000000 PUSH1 0x0 DUP3 ADD MSTORE POP JUMP JUMPDEST PUSH1 0x0 PUSH2 0x1BA4 PUSH1 0x10 DUP4 PUSH2 0x1AF1 JUMP JUMPDEST SWAP2 POP PUSH2 0x1BAF DUP3 PUSH2 0x1B6E JUMP JUMPDEST PUSH1 0x20 DUP3 ADD SWAP1 POP SWAP2 SWAP1 POP JUMP JUMPDEST PUSH1 0x0 PUSH1 0x20 DUP3 ADD SWAP1 POP DUP2 DUP2 SUB PUSH1 0x0 DUP4 ADD MSTORE PUSH2 0x1BD3 DUP2 PUSH2 0x1B97 JUMP JUMPDEST SWAP1 POP SWAP2 SWAP1 POP JUMP JUMPDEST PUSH32 0x4865726F73206E6F74206D696E74656400000000000000000000000000000000 PUSH1 0x0 DUP3 ADD MSTORE POP JUMP JUMPDEST PUSH1 0x0 PUSH2 0x1C10 PUSH1 0x10 DUP4 PUSH2 0x1AF1 JUMP JUMPDEST SWAP2 POP PUSH2 0x1C1B DUP3 PUSH2 0x1BDA JUMP JUMPDEST PUSH1 0x20 DUP3 ADD SWAP1 POP SWAP2 SWAP1 POP JUMP JUMPDEST PUSH1 0x0 PUSH1 0x20 DUP3 ADD SWAP1 POP DUP2 DUP2 SUB PUSH1 0x0 DUP4 ADD MSTORE PUSH2 0x1C3F DUP2 PUSH2 0x1C03 JUMP JUMPDEST SWAP1 POP SWAP2 SWAP1 POP JUMP JUMPDEST PUSH32 0x556E6D696E746564206C6567656E647300000000000000000000000000000000 PUSH1 0x0 DUP3 ADD MSTORE POP JUMP JUMPDEST PUSH1 0x0 PUSH2 0x1C7C PUSH1 0x10 DUP4 PUSH2 0x1AF1 JUMP JUMPDEST SWAP2 POP PUSH2 0x1C87 DUP3 PUSH2 0x1C46 JUMP JUMPDEST PUSH1 0x20 DUP3 ADD SWAP1 POP SWAP2 SWAP1 POP JUMP JUMPDEST PUSH1 0x0 PUSH1 0x20 DUP3 ADD SWAP1 POP DUP2 DUP2 SUB PUSH1 0x0 DUP4 ADD MSTORE PUSH2 0x1CAB DUP2 PUSH2 0x1C6F JUMP JUMPDEST SWAP1 POP SWAP2 SWAP1 POP JUMP JUMPDEST PUSH32 0x556E6D696E746564207261726573000000000000000000000000000000000000 PUSH1 0x0 DUP3 ADD MSTORE POP JUMP JUMPDEST PUSH1 0x0 PUSH2 0x1CE8 PUSH1 0xE DUP4 PUSH2 0x1AF1 JUMP JUMPDEST SWAP2 POP PUSH2 0x1CF3 DUP3 PUSH2 0x1CB2 JUMP JUMPDEST PUSH1 0x20 DUP3 ADD SWAP1 POP SWAP2 SWAP1 POP JUMP JUMPDEST PUSH1 0x0 PUSH1 0x20 DUP3 ADD SWAP1 POP DUP2 DUP2 SUB PUSH1 0x0 DUP4 ADD MSTORE PUSH2 0x1D17 DUP2 PUSH2 0x1CDB JUMP JUMPDEST SWAP1 POP SWAP2 SWAP1 POP JUMP JUMPDEST PUSH32 0x556E6D696E74656420756E636F6D6D6F6E730000000000000000000000000000 PUSH1 0x0 DUP3 ADD MSTORE POP JUMP JUMPDEST PUSH1 0x0 PUSH2 0x1D54 PUSH1 0x12 DUP4 PUSH2 0x1AF1 JUMP JUMPDEST SWAP2 POP PUSH2 0x1D5F DUP3 PUSH2 0x1D1E JUMP JUMPDEST PUSH1 0x20 DUP3 ADD SWAP1 POP SWAP2 SWAP1 POP JUMP JUMPDEST PUSH1 0x0 PUSH1 0x20 DUP3 ADD SWAP1 POP DUP2 DUP2 SUB PUSH1 0x0 DUP4 ADD MSTORE PUSH2 0x1D83 DUP2 PUSH2 0x1D47 JUMP JUMPDEST SWAP1 POP SWAP2 SWAP1 POP JUMP JUMPDEST PUSH32 0x556E6D696E74656420636F6D6D6F6E7300000000000000000000000000000000 PUSH1 0x0 DUP3 ADD MSTORE POP JUMP JUMPDEST PUSH1 0x0 PUSH2 0x1DC0 PUSH1 0x10 DUP4 PUSH2 0x1AF1 JUMP JUMPDEST SWAP2 POP PUSH2 0x1DCB DUP3 PUSH2 0x1D8A JUMP JUMPDEST PUSH1 0x20 DUP3 ADD SWAP1 POP SWAP2 SWAP1 POP JUMP JUMPDEST PUSH1 0x0 PUSH1 0x20 DUP3 ADD SWAP1 POP DUP2 DUP2 SUB PUSH1 0x0 DUP4 ADD MSTORE PUSH2 0x1DEF DUP2 PUSH2 0x1DB3 JUMP JUMPDEST SWAP1 POP SWAP2 SWAP1 POP JUMP JUMPDEST PUSH32 0x416C7265616479206D696E746564000000000000000000000000000000000000 PUSH1 0x0 DUP3 ADD MSTORE POP JUMP JUMPDEST PUSH1 0x0 PUSH2 0x1E2C PUSH1 0xE DUP4 PUSH2 0x1AF1 JUMP JUMPDEST SWAP2 POP PUSH2 0x1E37 DUP3 PUSH2 0x1DF6 JUMP JUMPDEST PUSH1 0x20 DUP3 ADD SWAP1 POP SWAP2 SWAP1 POP JUMP JUMPDEST PUSH1 0x0 PUSH1 0x20 DUP3 ADD SWAP1 POP DUP2 DUP2 SUB PUSH1 0x0 DUP4 ADD MSTORE PUSH2 0x1E5B DUP2 PUSH2 0x1E1F JUMP JUMPDEST SWAP1 POP SWAP2 SWAP1 POP JUMP JUMPDEST PUSH32 0x6E756D546F4D696E742030000000000000000000000000000000000000000000 PUSH1 0x0 DUP3 ADD MSTORE POP JUMP JUMPDEST PUSH1 0x0 PUSH2 0x1E98 PUSH1 0xB DUP4 PUSH2 0x1AF1 JUMP JUMPDEST SWAP2 POP PUSH2 0x1EA3 DUP3 PUSH2 0x1E62 JUMP JUMPDEST PUSH1 0x20 DUP3 ADD SWAP1 POP SWAP2 SWAP1 POP JUMP JUMPDEST PUSH1 0x0 PUSH1 0x20 DUP3 ADD SWAP1 POP DUP2 DUP2 SUB PUSH1 0x0 DUP4 ADD MSTORE PUSH2 0x1EC7 DUP2 PUSH2 0x1E8B JUMP JUMPDEST SWAP1 POP SWAP2 SWAP1 POP JUMP JUMPDEST PUSH32 0x4E487B7100000000000000000000000000000000000000000000000000000000 PUSH1 0x0 MSTORE PUSH1 0x21 PUSH1 0x4 MSTORE PUSH1 0x24 PUSH1 0x0 REVERT JUMPDEST PUSH1 0x0 PUSH2 0xFFFF DUP3 AND SWAP1 POP SWAP2 SWAP1 POP JUMP JUMPDEST PUSH32 0x4E487B7100000000000000000000000000000000000000000000000000000000 PUSH1 0x0 MSTORE PUSH1 0x11 PUSH1 0x4 MSTORE PUSH1 0x24 PUSH1 0x0 REVERT JUMPDEST PUSH1 0x0 PUSH2 0x1F45 DUP3 PUSH2 0x1EFD JUMP JUMPDEST SWAP2 POP PUSH2 0x1F50 DUP4 PUSH2 0x1EFD JUMP JUMPDEST SWAP3 POP DUP3 DUP3 ADD SWAP1 POP PUSH2 0xFFFF DUP2 GT ISZERO PUSH2 0x1F6A JUMPI PUSH2 0x1F69 PUSH2 0x1F0B JUMP JUMPDEST JUMPDEST SWAP3 SWAP2 POP POP JUMP JUMPDEST PUSH1 0x0 PUSH2 0x1F7B DUP3 PUSH2 0x1EFD JUMP JUMPDEST SWAP2 POP PUSH2 0x1F86 DUP4 PUSH2 0x1EFD JUMP JUMPDEST SWAP3 POP DUP3 DUP3 SUB SWAP1 POP PUSH2 0xFFFF DUP2 GT ISZERO PUSH2 0x1FA0 JUMPI PUSH2 0x1F9F PUSH2 0x1F0B JUMP JUMPDEST JUMPDEST SWAP3 SWAP2 POP POP JUMP JUMPDEST PUSH32 0x496E76616C696420636C61737300000000000000000000000000000000000000 PUSH1 0x0 DUP3 ADD MSTORE POP JUMP JUMPDEST PUSH1 0x0 PUSH2 0x1FDC PUSH1 0xD DUP4 PUSH2 0x1AF1 JUMP JUMPDEST SWAP2 POP PUSH2 0x1FE7 DUP3 PUSH2 0x1FA6 JUMP JUMPDEST PUSH1 0x20 DUP3 ADD SWAP1 POP SWAP2 SWAP1 POP JUMP JUMPDEST PUSH1 0x0 PUSH1 0x20 DUP3 ADD SWAP1 POP DUP2 DUP2 SUB PUSH1 0x0 DUP4 ADD MSTORE PUSH2 0x200B DUP2 PUSH2 0x1FCF JUMP JUMPDEST SWAP1 POP SWAP2 SWAP1 POP JUMP JUMPDEST PUSH32 0x737570706C7920696E73756666696369656E7400000000000000000000000000 PUSH1 0x0 DUP3 ADD MSTORE POP JUMP JUMPDEST PUSH1 0x0 PUSH2 0x2048 PUSH1 0x13 DUP4 PUSH2 0x1AF1 JUMP JUMPDEST SWAP2 POP PUSH2 0x2053 DUP3 PUSH2 0x2012 JUMP JUMPDEST PUSH1 0x20 DUP3 ADD SWAP1 POP SWAP2 SWAP1 POP JUMP JUMPDEST PUSH1 0x0 PUSH1 0x20 DUP3 ADD SWAP1 POP DUP2 DUP2 SUB PUSH1 0x0 DUP4 ADD MSTORE PUSH2 0x2077 DUP2 PUSH2 0x203B JUMP JUMPDEST SWAP1 POP SWAP2 SWAP1 POP JUMP JUMPDEST PUSH32 0x6E6F207075626C696320726F756E6420756E6C6F636B65640000000000000000 PUSH1 0x0 DUP3 ADD MSTORE POP JUMP JUMPDEST PUSH1 0x0 PUSH2 0x20B4 PUSH1 0x18 DUP4 PUSH2 0x1AF1 JUMP JUMPDEST SWAP2 POP PUSH2 0x20BF DUP3 PUSH2 0x207E JUMP JUMPDEST PUSH1 0x20 DUP3 ADD SWAP1 POP SWAP2 SWAP1 POP JUMP JUMPDEST PUSH1 0x0 PUSH1 0x20 DUP3 ADD SWAP1 POP DUP2 DUP2 SUB PUSH1 0x0 DUP4 ADD MSTORE PUSH2 0x20E3 DUP2 PUSH2 0x20A7 JUMP JUMPDEST SWAP1 POP SWAP2 SWAP1 POP JUMP JUMPDEST PUSH32 0x4F776E61626C653A206E6577206F776E657220697320746865207A65726F2061 PUSH1 0x0 DUP3 ADD MSTORE PUSH32 0x6464726573730000000000000000000000000000000000000000000000000000 PUSH1 0x20 DUP3 ADD MSTORE POP JUMP JUMPDEST PUSH1 0x0 PUSH2 0x2146 PUSH1 0x26 DUP4 PUSH2 0x1AF1 JUMP JUMPDEST SWAP2 POP PUSH2 0x2151 DUP3 PUSH2 0x20EA JUMP JUMPDEST PUSH1 0x40 DUP3 ADD SWAP1 POP SWAP2 SWAP1 POP JUMP JUMPDEST PUSH1 0x0 PUSH1 0x20 DUP3 ADD SWAP1 POP DUP2 DUP2 SUB PUSH1 0x0 DUP4 ADD MSTORE PUSH2 0x2175 DUP2 PUSH2 0x2139 JUMP JUMPDEST SWAP1 POP SWAP2 SWAP1 POP JUMP JUMPDEST PUSH32 0x5061757361626C653A2070617573656400000000000000000000000000000000 PUSH1 0x0 DUP3 ADD MSTORE POP JUMP JUMPDEST PUSH1 0x0 PUSH2 0x21B2 PUSH1 0x10 DUP4 PUSH2 0x1AF1 JUMP JUMPDEST SWAP2 POP PUSH2 0x21BD DUP3 PUSH2 0x217C JUMP JUMPDEST PUSH1 0x20 DUP3 ADD SWAP1 POP SWAP2 SWAP1 POP JUMP JUMPDEST PUSH1 0x0 PUSH1 0x20 DUP3 ADD SWAP1 POP DUP2 DUP2 SUB PUSH1 0x0 DUP4 ADD MSTORE PUSH2 0x21E1 DUP2 PUSH2 0x21A5 JUMP JUMPDEST SWAP1 POP SWAP2 SWAP1 POP JUMP JUMPDEST PUSH1 0x0 PUSH1 0x40 DUP3 ADD SWAP1 POP PUSH2 0x21FD PUSH1 0x0 DUP4 ADD DUP6 PUSH2 0x1A39 JUMP JUMPDEST PUSH2 0x220A PUSH1 0x20 DUP4 ADD DUP5 PUSH2 0x18DD JUMP JUMPDEST SWAP4 SWAP3 POP POP POP JUMP JUMPDEST PUSH1 0x5 DUP2 LT PUSH2 0x2222 JUMPI PUSH2 0x2221 PUSH2 0x1ECE JUMP JUMPDEST JUMPDEST POP JUMP JUMPDEST PUSH1 0x0 DUP2 SWAP1 POP PUSH2 0x2233 DUP3 PUSH2 0x2211 JUMP JUMPDEST SWAP2 SWAP1 POP JUMP JUMPDEST PUSH1 0x0 PUSH2 0x2243 DUP3 PUSH2 0x2225 JUMP JUMPDEST SWAP1 POP SWAP2 SWAP1 POP JUMP JUMPDEST PUSH2 0x2253 DUP2 PUSH2 0x2238 JUMP JUMPDEST DUP3 MSTORE POP POP JUMP JUMPDEST PUSH1 0x0 PUSH1 0x40 DUP3 ADD SWAP1 POP PUSH2 0x226E PUSH1 0x0 DUP4 ADD DUP6 PUSH2 0x1A39 JUMP JUMPDEST PUSH2 0x227B PUSH1 0x20 DUP4 ADD DUP5 PUSH2 0x224A JUMP JUMPDEST SWAP4 SWAP3 POP POP POP JUMP JUMPDEST PUSH1 0x0 PUSH2 0x228D DUP3 PUSH2 0x18D3 JUMP JUMPDEST SWAP2 POP PUSH32 0xFFFFFFFFFFFFFFFFFFFFFFFFFFFFFFFFFFFFFFFFFFFFFFFFFFFFFFFFFFFFFFFF DUP3 SUB PUSH2 0x22BF JUMPI PUSH2 0x22BE PUSH2 0x1F0B JUMP JUMPDEST JUMPDEST PUSH1 0x1 DUP3 ADD SWAP1 POP SWAP2 SWAP1 POP JUMP JUMPDEST PUSH1 0x0 PUSH2 0x22D5 DUP3 PUSH2 0x18D3 JUMP JUMPDEST SWAP2 POP PUSH2 0x22E0 DUP4 PUSH2 0x18D3 JUMP JUMPDEST SWAP3 POP DUP3 DUP3 SUB SWAP1 POP DUP2 DUP2 GT ISZERO PUSH2 0x22F8 JUMPI PUSH2 0x22F7 PUSH2 0x1F0B JUMP JUMPDEST JUMPDEST SWAP3 SWAP2 POP POP JUMP JUMPDEST PUSH1 0x0 PUSH2 0x2309 DUP3 PUSH2 0x18D3 JUMP JUMPDEST SWAP2 POP PUSH2 0x2314 DUP4 PUSH2 0x18D3 JUMP JUMPDEST SWAP3 POP DUP3 DUP3 ADD SWAP1 POP DUP1 DUP3 GT ISZERO PUSH2 0x232C JUMPI PUSH2 0x232B PUSH2 0x1F0B JUMP JUMPDEST JUMPDEST SWAP3 SWAP2 POP POP JUMP JUMPDEST PUSH32 0x5265656E7472616E637947756172643A207265656E7472616E742063616C6C00 PUSH1 0x0 DUP3 ADD MSTORE POP JUMP JUMPDEST PUSH1 0x0 PUSH2 0x2368 PUSH1 0x1F DUP4 PUSH2 0x1AF1 JUMP JUMPDEST SWAP2 POP PUSH2 0x2373 DUP3 PUSH2 0x2332 JUMP JUMPDEST PUSH1 0x20 DUP3 ADD SWAP1 POP SWAP2 SWAP1 POP JUMP JUMPDEST PUSH1 0x0 PUSH1 0x20 DUP3 ADD SWAP1 POP DUP2 DUP2 SUB PUSH1 0x0 DUP4 ADD MSTORE PUSH2 0x2397 DUP2 PUSH2 0x235B JUMP JUMPDEST SWAP1 POP SWAP2 SWAP1 POP JUMP JUMPDEST PUSH32 0x4F776E61626C653A2063616C6C6572206973206E6F7420746865206F776E6572 PUSH1 0x0 DUP3 ADD MSTORE POP JUMP JUMPDEST PUSH1 0x0 PUSH2 0x23D4 PUSH1 0x20 DUP4 PUSH2 0x1AF1 JUMP JUMPDEST SWAP2 POP PUSH2 0x23DF DUP3 PUSH2 0x239E JUMP JUMPDEST PUSH1 0x20 DUP3 ADD SWAP1 POP SWAP2 SWAP1 POP JUMP JUMPDEST PUSH1 0x0 PUSH1 0x20 DUP3 ADD SWAP1 POP DUP2 DUP2 SUB PUSH1 0x0 DUP4 ADD MSTORE PUSH2 0x2403 DUP2 PUSH2 0x23C7 JUMP JUMPDEST SWAP1 POP SWAP2 SWAP1 POP JUMP JUMPDEST PUSH32 0x5061757361626C653A206E6F7420706175736564000000000000000000000000 PUSH1 0x0 DUP3 ADD MSTORE POP JUMP JUMPDEST PUSH1 0x0 PUSH2 0x2440 PUSH1 0x14 DUP4 PUSH2 0x1AF1 JUMP JUMPDEST SWAP2 POP PUSH2 0x244B DUP3 PUSH2 0x240A JUMP JUMPDEST PUSH1 0x20 DUP3 ADD SWAP1 POP SWAP2 SWAP1 POP JUMP JUMPDEST PUSH1 0x0 PUSH1 0x20 DUP3 ADD SWAP1 POP DUP2 DUP2 SUB PUSH1 0x0 DUP4 ADD MSTORE PUSH2 0x246F DUP2 PUSH2 0x2433 JUMP JUMPDEST SWAP1 POP SWAP2 SWAP1 POP JUMP INVALID LOG2 PUSH5 0x6970667358 0x22 SLT KECCAK256 DUP8 0x29 PUSH24 0x37BC07377CDEA28D7B69CA2139CB1FB07248AE0A21C49765 DUP14 0xC4 0xE5 PUSH21 0x1864736F6C63430008130033000000000000000000 "
				},
				"gasEstimates": {
					"creation": {
						"codeDepositCost": "1877600",
						"executionCost": "infinite",
						"totalCost": "infinite"
					},
					"external": {
						"_areHerosMinted()": "2516",
						"_commonNFTsMinted()": "2488",
						"_heroNFTsMinted()": "2490",
						"_is1stPublicRoundUnlocked()": "2611",
						"_is2ndPublicRoundUnlocked()": "2587",
						"_is3rdPublicRoundUnlocked()": "2611",
						"_legendNFTsMinted()": "2512",
						"_rareNFTsMinted()": "2533",
						"_uncommonNFTsMinted()": "2510",
						"addAuthorizedContract(address)": "27121",
						"getMintIndexRange(uint256,uint8)": "infinite",
						"mintCommon(address)": "infinite",
						"mintCommons(address,uint256)": "infinite",
						"mintHeros(address)": "infinite",
						"mintLegend(address)": "infinite",
						"mintLegends(address,uint256)": "infinite",
						"mintRare(address)": "infinite",
						"mintRares(address,uint256)": "infinite",
						"mintUncommon(address)": "infinite",
						"mintUncommons(address,uint256)": "infinite",
						"owner()": "2590",
						"pause()": "infinite",
						"paused()": "2597",
						"renounceOwnership()": "30465",
						"transferOwnership(address)": "30832",
						"unlock1stPublicRound()": "62715",
						"unlock2ndPublicRound()": "infinite",
						"unpause()": "infinite"
					},
					"internal": {
						"_mintNFTs(address,uint256,enum NFT_CLASS)": "infinite"
					}
				},
				"methodIdentifiers": {
					"_areHerosMinted()": "c8d4fc60",
					"_commonNFTsMinted()": "6f785cdf",
					"_heroNFTsMinted()": "087bd107",
					"_is1stPublicRoundUnlocked()": "953a6ca8",
					"_is2ndPublicRoundUnlocked()": "f2c5d797",
					"_is3rdPublicRoundUnlocked()": "5eee43f0",
					"_legendNFTsMinted()": "1592fb2a",
					"_rareNFTsMinted()": "3a149127",
					"_uncommonNFTsMinted()": "9f158a78",
					"addAuthorizedContract(address)": "98eaa4a7",
					"getMintIndexRange(uint256,uint8)": "d87b320b",
					"mintCommon(address)": "d47e107e",
					"mintCommons(address,uint256)": "bad688c6",
					"mintHeros(address)": "329cc83f",
					"mintLegend(address)": "a8372307",
					"mintLegends(address,uint256)": "20a0c034",
					"mintRare(address)": "8d36f8f4",
					"mintRares(address,uint256)": "f78f680a",
					"mintUncommon(address)": "508f0628",
					"mintUncommons(address,uint256)": "f17a6777",
					"owner()": "8da5cb5b",
					"pause()": "8456cb59",
					"paused()": "5c975abb",
					"renounceOwnership()": "715018a6",
					"transferOwnership(address)": "f2fde38b",
					"unlock1stPublicRound()": "7e7f57f2",
					"unlock2ndPublicRound()": "28d3bd1b",
					"unpause()": "3f4ba83a"
				}
			},
			"storageLayout": {
				"storage": [
					{
						"astId": 7,
						"contract": "TokenMinter.sol:TokenMinter",
						"label": "_owner",
						"offset": 0,
						"slot": "0",
						"type": "t_address"
					},
					{
						"astId": 130,
						"contract": "TokenMinter.sol:TokenMinter",
						"label": "_paused",
						"offset": 20,
						"slot": "0",
						"type": "t_bool"
					},
					{
						"astId": 231,
						"contract": "TokenMinter.sol:TokenMinter",
						"label": "_status",
						"offset": 0,
						"slot": "1",
						"type": "t_uint256"
					},
					{
						"astId": 1958,
						"contract": "TokenMinter.sol:TokenMinter",
						"label": "_doaCollection",
						"offset": 0,
						"slot": "2",
						"type": "t_contract(iDoACollection)2921"
					},
					{
						"astId": 1961,
						"contract": "TokenMinter.sol:TokenMinter",
						"label": "_treasury",
						"offset": 0,
						"slot": "3",
						"type": "t_contract(iTreasury)3031"
					},
					{
						"astId": 1964,
						"contract": "TokenMinter.sol:TokenMinter",
						"label": "_memberRegistry",
						"offset": 0,
						"slot": "4",
						"type": "t_contract(iMemberRegistry)2958"
					},
					{
						"astId": 1968,
						"contract": "TokenMinter.sol:TokenMinter",
						"label": "_authorizedContracts",
						"offset": 0,
						"slot": "5",
						"type": "t_mapping(t_address,t_bool)"
					},
					{
						"astId": 1971,
						"contract": "TokenMinter.sol:TokenMinter",
						"label": "_heroNFTsMinted",
						"offset": 0,
						"slot": "6",
						"type": "t_struct(Counter)476_storage"
					},
					{
						"astId": 1974,
						"contract": "TokenMinter.sol:TokenMinter",
						"label": "_legendNFTsMinted",
						"offset": 0,
						"slot": "7",
						"type": "t_struct(Counter)476_storage"
					},
					{
						"astId": 1977,
						"contract": "TokenMinter.sol:TokenMinter",
						"label": "_rareNFTsMinted",
						"offset": 0,
						"slot": "8",
						"type": "t_struct(Counter)476_storage"
					},
					{
						"astId": 1980,
						"contract": "TokenMinter.sol:TokenMinter",
						"label": "_uncommonNFTsMinted",
						"offset": 0,
						"slot": "9",
						"type": "t_struct(Counter)476_storage"
					},
					{
						"astId": 1983,
						"contract": "TokenMinter.sol:TokenMinter",
						"label": "_commonNFTsMinted",
						"offset": 0,
						"slot": "10",
						"type": "t_struct(Counter)476_storage"
					},
					{
						"astId": 1985,
						"contract": "TokenMinter.sol:TokenMinter",
						"label": "_areHerosMinted",
						"offset": 0,
						"slot": "11",
						"type": "t_bool"
					},
					{
						"astId": 1987,
						"contract": "TokenMinter.sol:TokenMinter",
						"label": "_is1stPublicRoundUnlocked",
						"offset": 1,
						"slot": "11",
						"type": "t_bool"
					},
					{
						"astId": 1989,
						"contract": "TokenMinter.sol:TokenMinter",
						"label": "_is2ndPublicRoundUnlocked",
						"offset": 2,
						"slot": "11",
						"type": "t_bool"
					},
					{
						"astId": 1991,
						"contract": "TokenMinter.sol:TokenMinter",
						"label": "_is3rdPublicRoundUnlocked",
						"offset": 3,
						"slot": "11",
						"type": "t_bool"
					}
				],
				"types": {
					"t_address": {
						"encoding": "inplace",
						"label": "address",
						"numberOfBytes": "20"
					},
					"t_bool": {
						"encoding": "inplace",
						"label": "bool",
						"numberOfBytes": "1"
					},
					"t_contract(iDoACollection)2921": {
						"encoding": "inplace",
						"label": "contract iDoACollection",
						"numberOfBytes": "20"
					},
					"t_contract(iMemberRegistry)2958": {
						"encoding": "inplace",
						"label": "contract iMemberRegistry",
						"numberOfBytes": "20"
					},
					"t_contract(iTreasury)3031": {
						"encoding": "inplace",
						"label": "contract iTreasury",
						"numberOfBytes": "20"
					},
					"t_mapping(t_address,t_bool)": {
						"encoding": "mapping",
						"key": "t_address",
						"label": "mapping(address => bool)",
						"numberOfBytes": "32",
						"value": "t_bool"
					},
					"t_struct(Counter)476_storage": {
						"encoding": "inplace",
						"label": "struct Counters.Counter",
						"members": [
							{
								"astId": 475,
								"contract": "TokenMinter.sol:TokenMinter",
								"label": "_value",
								"offset": 0,
								"slot": "0",
								"type": "t_uint256"
							}
						],
						"numberOfBytes": "32"
					},
					"t_uint256": {
						"encoding": "inplace",
						"label": "uint256",
						"numberOfBytes": "32"
					}
				}
			},
			"userdoc": {
				"kind": "user",
				"methods": {},
				"version": 1
			}
		}
	}
}