{
	"data": {
		"bytecode": {
			"linkReferences": {
				"DoAConstants.sol": {
					"DoAConstants": [
						{
							"length": 20,
							"start": 5320
						},
						{
							"length": 20,
							"start": 27120
						}
					]
				},
				"remix_accounts.sol": {
					"TestsAccounts": [
						{
							"length": 20,
							"start": 4629
						}
					]
				},
				"remix_tests.sol": {
					"Assert": [
						{
							"length": 20,
							"start": 6313
						},
						{
							"length": 20,
							"start": 6771
						},
						{
							"length": 20,
							"start": 7273
						},
						{
							"length": 20,
							"start": 7461
						},
						{
							"length": 20,
							"start": 7596
						},
						{
							"length": 20,
							"start": 7906
						}
					]
				}
			},
			"object": "60806040523480156200001157600080fd5b506040518060400160405280601181526020017f446175676874657273206f6620417279610000000000000000000000000000008152506040518060400160405280600381526020017f446f41000000000000000000000000000000000000000000000000000000000081525081600090816200008f919062000485565b508060019081620000a1919062000485565b5050506000600b60006101000a81548160ff021916908315150217905550620000df620000d36200013d60201b60201c565b6200014560201b60201c565b6001600c60003373ffffffffffffffffffffffffffffffffffffffff1673ffffffffffffffffffffffffffffffffffffffff16815260200190815260200160002060006101000a81548160ff0219169083151502179055506200056c565b600033905090565b6000600b60019054906101000a900473ffffffffffffffffffffffffffffffffffffffff16905081600b60016101000a81548173ffffffffffffffffffffffffffffffffffffffff021916908373ffffffffffffffffffffffffffffffffffffffff1602179055508173ffffffffffffffffffffffffffffffffffffffff168173ffffffffffffffffffffffffffffffffffffffff167f8be0079c531659141344cd1fd0a4f28419497f9722a3daafe3b4186f6b6457e060405160405180910390a35050565b600081519050919050565b7f4e487b7100000000000000000000000000000000000000000000000000000000600052604160045260246000fd5b7f4e487b7100000000000000000000000000000000000000000000000000000000600052602260045260246000fd5b600060028204905060018216806200028d57607f821691505b602082108103620002a357620002a262000245565b5b50919050565b60008190508160005260206000209050919050565b60006020601f8301049050919050565b600082821b905092915050565b6000600883026200030d7fffffffffffffffffffffffffffffffffffffffffffffffffffffffffffffffff82620002ce565b620003198683620002ce565b95508019841693508086168417925050509392505050565b6000819050919050565b6000819050919050565b600062000366620003606200035a8462000331565b6200033b565b62000331565b9050919050565b6000819050919050565b620003828362000345565b6200039a62000391826200036d565b848454620002db565b825550505050565b600090565b620003b1620003a2565b620003be81848462000377565b505050565b5b81811015620003e657620003da600082620003a7565b600181019050620003c4565b5050565b601f8211156200043557620003ff81620002a9565b6200040a84620002be565b810160208510156200041a578190505b620004326200042985620002be565b830182620003c3565b50505b505050565b600082821c905092915050565b60006200045a600019846008026200043a565b1980831691505092915050565b600062000475838362000447565b9150826002028217905092915050565b62000490826200020b565b67ffffffffffffffff811115620004ac57620004ab62000216565b5b620004b8825462000274565b620004c5828285620003ea565b600060209050601f831160018114620004fd5760008415620004e8578287015190505b620004f4858262000467565b86555062000564565b601f1984166200050d86620002a9565b60005b82811015620005375784890151825560018201915060208501945060208101905062000510565b8683101562000557578489015162000553601f89168262000447565b8355505b6001600288020188555050505b505050505050565b619589806200057c6000396000f3fe60806040523480156200001157600080fd5b5060043610620002085760003560e01c806370a08231116200011d578063a144819411620000b1578063de739cf6116200007b578063de739cf614620005a3578063e985e9c514620005af578063f2fde38b14620005e5578063f9f4995214620006055762000208565b8063a1448194146200050d578063a22cb465146200052d578063b88d4fde146200054d578063c87b56dd146200056d5762000208565b80638456cb5911620000f35780638456cb59146200049d5780638da5cb5b14620004a957806395d89b4114620004cb57806398eaa4a714620004ed5762000208565b806370a08231146200044f578063715018a614620004855780637fea0d4b14620004915762000208565b80632f745c5911620001a157806342966c68116200016b57806342966c6814620003a15780634f6ccce714620003c15780635c975abb14620003f75780636352211e14620004195762000208565b80632f745c59146200031f5780633f4ba83a146200035557806340d097c3146200036157806342842e0e14620003815762000208565b8063095ea7b311620001e3578063095ea7b3146200029b57806318160ddd14620002bb578063222acad414620002dd57806323b872dd14620002ff5762000208565b806301ffc9a7146200020d57806306fdde031462000243578063081812fc1462000265575b600080fd5b6200022b6004803603810190620002259190620035cb565b62000625565b6040516200023a91906200361a565b60405180910390f35b6200024d62000639565b6040516200025c9190620036d1565b60405180910390f35b6200028360048036038101906200027d919062003730565b620006d3565b604051620002929190620037a7565b60405180910390f35b620002b96004803603810190620002b39190620037f5565b6200071b565b005b620002c562000843565b604051620002d491906200384d565b60405180910390f35b620002e762000850565b604051620002f69190620038d5565b60405180910390f35b6200031d6004803603810190620003179190620038f2565b62000876565b005b6200033d6004803603810190620003379190620037f5565b620008df565b6040516200034c91906200384d565b60405180910390f35b6200035f62000989565b005b6200037f60048036038101906200037991906200394e565b6200099f565b005b6200039f6004803603810190620003999190620038f2565b620009b7565b005b620003bf6004803603810190620003b9919062003730565b620009d9565b005b620003df6004803603810190620003d9919062003730565b62000a3e565b604051620003ee91906200384d565b60405180910390f35b6200040162000ab7565b6040516200041091906200361a565b60405180910390f35b62000437600480360381019062000431919062003730565b62000ace565b604051620004469190620037a7565b60405180910390f35b6200046d60048036038101906200046791906200394e565b62000b59565b6040516200047c91906200384d565b60405180910390f35b6200048f62000c13565b005b6200049b62000c2b565b005b620004a762000d57565b005b620004b362000d6d565b604051620004c29190620037a7565b60405180910390f35b620004d562000d97565b604051620004e49190620036d1565b60405180910390f35b6200050b60048036038101906200050591906200394e565b62000e31565b005b6200052b6004803603810190620005259190620037f5565b62000e96565b005b6200054b6004803603810190620005459190620039b1565b62000ea6565b005b6200056b600480360381019062000565919062003b49565b62000ec0565b005b6200058b600480360381019062000585919062003730565b62000f2b565b6040516200059a9190620036d1565b60405180910390f35b620005ad62001278565b005b620005cd6004803603810190620005c7919062003bda565b62001a7a565b604051620005dc91906200361a565b60405180910390f35b620006036004803603810190620005fd91906200394e565b62001b0e565b005b6200062360048036038101906200061d9190620037f5565b62001b98565b005b6000620006328262001bf4565b9050919050565b6060600080546200064a9062003c50565b80601f0160208091040260200160405190810160405280929190818152602001828054620006789062003c50565b8015620006c95780601f106200069d57610100808354040283529160200191620006c9565b820191906000526020600020905b815481529060010190602001808311620006ab57829003601f168201915b5050505050905090565b6000620006e08262001c71565b6004600083815260200190815260200160002060009054906101000a900473ffffffffffffffffffffffffffffffffffffffff169050919050565b6000620007288262000ace565b90508073ffffffffffffffffffffffffffffffffffffffff168373ffffffffffffffffffffffffffffffffffffffff16036200079b576040517f08c379a0000000000000000000000000000000000000000000000000000000008152600401620007929062003cfb565b60405180910390fd5b8073ffffffffffffffffffffffffffffffffffffffff16620007bc62001cc1565b73ffffffffffffffffffffffffffffffffffffffff161480620007f05750620007ef81620007e962001cc1565b62001a7a565b5b62000832576040517f08c379a0000000000000000000000000000000000000000000000000000000008152600401620008299062003d93565b60405180910390fd5b6200083e838362001cc9565b505050565b6000600880549050905090565b600d60009054906101000a900473ffffffffffffffffffffffffffffffffffffffff1681565b6200088b6200088462001cc1565b8262001d84565b620008cd576040517f08c379a0000000000000000000000000000000000000000000000000000000008152600401620008c49062003e2b565b60405180910390fd5b620008da83838362001e21565b505050565b6000620008ec8362000b59565b821062000930576040517f08c379a0000000000000000000000000000000000000000000000000000000008152600401620009279062003ec3565b60405180910390fd5b600660008473ffffffffffffffffffffffffffffffffffffffff1673ffffffffffffffffffffffffffffffffffffffff168152602001908152602001600020600083815260200190815260200160002054905092915050565b620009936200212b565b6200099d620021b0565b565b620009b481620009ae62000843565b62002219565b50565b620009d48383836040518060200160405280600081525062000ec0565b505050565b620009ee620009e762001cc1565b8262001d84565b62000a30576040517f08c379a000000000000000000000000000000000000000000000000000000000815260040162000a279062003e2b565b60405180910390fd5b62000a3b8162002239565b50565b600062000a4a62000843565b821062000a8e576040517f08c379a000000000000000000000000000000000000000000000000000000000815260040162000a859062003f5b565b60405180910390fd5b6008828154811062000aa55762000aa462003f7d565b5b90600052602060002001549050919050565b6000600b60009054906101000a900460ff16905090565b60008062000adc8362002247565b9050600073ffffffffffffffffffffffffffffffffffffffff168173ffffffffffffffffffffffffffffffffffffffff160362000b50576040517f08c379a000000000000000000000000000000000000000000000000000000000815260040162000b479062003ffc565b60405180910390fd5b80915050919050565b60008073ffffffffffffffffffffffffffffffffffffffff168273ffffffffffffffffffffffffffffffffffffffff160362000bcc576040517f08c379a000000000000000000000000000000000000000000000000000000000815260040162000bc39062004094565b60405180910390fd5b600360008373ffffffffffffffffffffffffffffffffffffffff1673ffffffffffffffffffffffffffffffffffffffff168152602001908152602001600020549050919050565b62000c1d6200212b565b62000c29600062002284565b565b60405162000c3990620034e7565b604051809103906000f08015801562000c56573d6000803e3d6000fd5b50600d60006101000a81548173ffffffffffffffffffffffffffffffffffffffff021916908373ffffffffffffffffffffffffffffffffffffffff16021790555073__$1068a87eb54ed04c4e435de35b2ebf536f$__63ce88b14560006040518263ffffffff1660e01b815260040162000cd19190620040f9565b602060405180830381865af415801562000cef573d6000803e3d6000fd5b505050506040513d601f19601f8201168201806040525081019062000d1591906200412d565b600e60006101000a81548173ffffffffffffffffffffffffffffffffffffffff021916908373ffffffffffffffffffffffffffffffffffffffff160217905550565b62000d616200212b565b62000d6b6200234a565b565b6000600b60019054906101000a900473ffffffffffffffffffffffffffffffffffffffff16905090565b60606001805462000da89062003c50565b80601f016020809104026020016040519081016040528092919081815260200182805462000dd69062003c50565b801562000e275780601f1062000dfb5761010080835404028352916020019162000e27565b820191906000526020600020905b81548152906001019060200180831162000e0957829003601f168201915b5050505050905090565b62000e3b6200212b565b6001600c60008373ffffffffffffffffffffffffffffffffffffffff1673ffffffffffffffffffffffffffffffffffffffff16815260200190815260200160002060006101000a81548160ff02191690831515021790555050565b62000ea2828262002219565b5050565b62000ebc62000eb462001cc1565b8383620023b3565b5050565b62000ed562000ece62001cc1565b8362001d84565b62000f17576040517f08c379a000000000000000000000000000000000000000000000000000000000815260040162000f0e9062003e2b565b60405180910390fd5b62000f258484848462002524565b50505050565b606062000f388262001c71565b600062000f4462002587565b90506060600073__$5aeaec1fdbc9a10e305638fb861dbb6f26$__63ed944cb6866040518263ffffffff1660e01b815260040162000f83919062004170565b602060405180830381865af415801562000fa1573d6000803e3d6000fd5b505050506040513d601f19601f8201168201806040525081019062000fc79190620041b5565b90506000600481111562000fe05762000fdf620041e7565b5b81600481111562000ff65762000ff5620041e7565b5b036200103a576040518060400160405280600e81526020017f2f6865726f2f6d6574616461746100000000000000000000000000000000000081525091506200123e565b60016004811115620010515762001050620041e7565b5b816004811115620010675762001066620041e7565b5b03620010ab576040518060400160405280601081526020017f2f6c6567656e642f6d657461646174610000000000000000000000000000000081525091506200123d565b60026004811115620010c257620010c1620041e7565b5b816004811115620010d857620010d7620041e7565b5b036200111c576040518060400160405280600e81526020017f2f726172652f6d6574616461746100000000000000000000000000000000000081525091506200123c565b60036004811115620011335762001132620041e7565b5b816004811115620011495762001148620041e7565b5b036200118d576040518060400160405280601281526020017f2f756e636f6d6d6f6e2f6d65746164617461000000000000000000000000000081525091506200123b565b600480811115620011a357620011a2620041e7565b5b816004811115620011b957620011b8620041e7565b5b03620011fd576040518060400160405280601081526020017f2f636f6d6d6f6e2f6d657461646174610000000000000000000000000000000081525091506200123a565b6040517f08c379a0000000000000000000000000000000000000000000000000000000008152600401620012319062004266565b60405180910390fd5b5b5b5b5b82826200124b87620025c4565b6040516020016200125f939291906200436a565b6040516020818303038152906040529350505050919050565b600d60009054906101000a900473ffffffffffffffffffffffffffffffffffffffff1673ffffffffffffffffffffffffffffffffffffffff166340d097c3600e60009054906101000a900473ffffffffffffffffffffffffffffffffffffffff166040518263ffffffff1660e01b8152600401620012f79190620037a7565b600060405180830381600087803b1580156200131257600080fd5b505af115801562001327573d6000803e3d6000fd5b5050505073__$acbfb1c35000d78352310b16a054a6b106$__63abcd7960600d60009054906101000a900473ffffffffffffffffffffffffffffffffffffffff1673ffffffffffffffffffffffffffffffffffffffff166318160ddd6040518163ffffffff1660e01b8152600401602060405180830381865afa158015620013b3573d6000803e3d6000fd5b505050506040513d601f19601f82011682018060405250810190620013d99190620043d2565b60016040518363ffffffff1660e01b8152600401620013fa929190620044a8565b602060405180830381865af415801562001418573d6000803e3d6000fd5b505050506040513d601f19601f820116820180604052508101906200143e919062004501565b50600d60009054906101000a900473ffffffffffffffffffffffffffffffffffffffff1673ffffffffffffffffffffffffffffffffffffffff1663f9f49952600e60009054906101000a900473ffffffffffffffffffffffffffffffffffffffff1660056040518363ffffffff1660e01b8152600401620014c192919062004576565b600060405180830381600087803b158015620014dc57600080fd5b505af1158015620014f1573d6000803e3d6000fd5b5050505073__$acbfb1c35000d78352310b16a054a6b106$__63abcd7960600d60009054906101000a900473ffffffffffffffffffffffffffffffffffffffff1673ffffffffffffffffffffffffffffffffffffffff166318160ddd6040518163ffffffff1660e01b8152600401602060405180830381865afa1580156200157d573d6000803e3d6000fd5b505050506040513d601f19601f82011682018060405250810190620015a39190620043d2565b60066040518363ffffffff1660e01b8152600401620015c492919062004636565b602060405180830381865af4158015620015e2573d6000803e3d6000fd5b505050506040513d601f19601f8201168201806040525081019062001608919062004501565b50600d60009054906101000a900473ffffffffffffffffffffffffffffffffffffffff1673ffffffffffffffffffffffffffffffffffffffff1663a1448194600e60009054906101000a900473ffffffffffffffffffffffffffffffffffffffff1660036040518363ffffffff1660e01b81526004016200168b929190620046bb565b600060405180830381600087803b158015620016a657600080fd5b505af1925050508015620016b8575060015b6200182e57620016c7620046f5565b806308c379a003620017715750620016de6200471a565b80620016eb575062001773565b73__$acbfb1c35000d78352310b16a054a6b106$__6339df137f60016040518263ffffffff1660e01b815260040162001725919062004816565b602060405180830381865af415801562001743573d6000803e3d6000fd5b505050506040513d601f19601f8201168201806040525081019062001769919062004501565b505062001828565b505b3d8060008114620017a1576040519150601f19603f3d011682016040523d82523d6000602084013e620017a6565b606091505b5073__$acbfb1c35000d78352310b16a054a6b106$__6339df137f60006040518263ffffffff1660e01b8152600401620017e1919062004898565b602060405180830381865af4158015620017ff573d6000803e3d6000fd5b505050506040513d601f19601f8201168201806040525081019062001825919062004501565b50505b620018ae565b73__$acbfb1c35000d78352310b16a054a6b106$__6339df137f60006040518263ffffffff1660e01b81526004016200186891906200491a565b602060405180830381865af415801562001886573d6000803e3d6000fd5b505050506040513d601f19601f82011682018060405250810190620018ac919062004501565b505b600d60009054906101000a900473ffffffffffffffffffffffffffffffffffffffff1673ffffffffffffffffffffffffffffffffffffffff1663a1448194600e60009054906101000a900473ffffffffffffffffffffffffffffffffffffffff1660086040518363ffffffff1660e01b8152600401620019309291906200498f565b600060405180830381600087803b1580156200194b57600080fd5b505af115801562001960573d6000803e3d6000fd5b5050505073__$acbfb1c35000d78352310b16a054a6b106$__63abcd7960600d60009054906101000a900473ffffffffffffffffffffffffffffffffffffffff1673ffffffffffffffffffffffffffffffffffffffff166318160ddd6040518163ffffffff1660e01b8152600401602060405180830381865afa158015620019ec573d6000803e3d6000fd5b505050506040513d601f19601f8201168201806040525081019062001a129190620043d2565b60076040518363ffffffff1660e01b815260040162001a3392919062004a4f565b602060405180830381865af415801562001a51573d6000803e3d6000fd5b505050506040513d601f19601f8201168201806040525081019062001a77919062004501565b50565b6000600560008473ffffffffffffffffffffffffffffffffffffffff1673ffffffffffffffffffffffffffffffffffffffff16815260200190815260200160002060008373ffffffffffffffffffffffffffffffffffffffff1673ffffffffffffffffffffffffffffffffffffffff16815260200190815260200160002060009054906101000a900460ff16905092915050565b62001b186200212b565b600073ffffffffffffffffffffffffffffffffffffffff168173ffffffffffffffffffffffffffffffffffffffff160362001b8a576040517f08c379a000000000000000000000000000000000000000000000000000000000815260040162001b819062004b07565b60405180910390fd5b62001b958162002284565b50565b600062001ba462000843565b905060005b60018362001bb8919062004b58565b811162001bee5762001bd884828462001bd2919062004b93565b62002219565b808062001be59062004bce565b91505062001ba9565b50505050565b60007f780e9d63000000000000000000000000000000000000000000000000000000007bffffffffffffffffffffffffffffffffffffffffffffffffffffffff1916827bffffffffffffffffffffffffffffffffffffffffffffffffffffffff1916148062001c6a575062001c69826200269d565b5b9050919050565b62001c7c8162002783565b62001cbe576040517f08c379a000000000000000000000000000000000000000000000000000000000815260040162001cb59062003ffc565b60405180910390fd5b50565b600033905090565b816004600083815260200190815260200160002060006101000a81548173ffffffffffffffffffffffffffffffffffffffff021916908373ffffffffffffffffffffffffffffffffffffffff160217905550808273ffffffffffffffffffffffffffffffffffffffff1662001d3e8362000ace565b73ffffffffffffffffffffffffffffffffffffffff167f8c5be1e5ebec7d5bd14f71427d1e84f3dd0314c0f7b2291e5b200ac8c7c3b92560405160405180910390a45050565b60008062001d928362000ace565b90508073ffffffffffffffffffffffffffffffffffffffff168473ffffffffffffffffffffffffffffffffffffffff16148062001dd7575062001dd6818562001a7a565b5b8062001e1857508373ffffffffffffffffffffffffffffffffffffffff1662001e0084620006d3565b73ffffffffffffffffffffffffffffffffffffffff16145b91505092915050565b8273ffffffffffffffffffffffffffffffffffffffff1662001e438262000ace565b73ffffffffffffffffffffffffffffffffffffffff161462001e9c576040517f08c379a000000000000000000000000000000000000000000000000000000000815260040162001e939062004c91565b60405180910390fd5b600073ffffffffffffffffffffffffffffffffffffffff168273ffffffffffffffffffffffffffffffffffffffff160362001f0e576040517f08c379a000000000000000000000000000000000000000000000000000000000815260040162001f059062004d29565b60405180910390fd5b62001f1d8383836001620027c6565b8273ffffffffffffffffffffffffffffffffffffffff1662001f3f8262000ace565b73ffffffffffffffffffffffffffffffffffffffff161462001f98576040517f08c379a000000000000000000000000000000000000000000000000000000000815260040162001f8f9062004c91565b60405180910390fd5b6004600082815260200190815260200160002060006101000a81549073ffffffffffffffffffffffffffffffffffffffff02191690556001600360008573ffffffffffffffffffffffffffffffffffffffff1673ffffffffffffffffffffffffffffffffffffffff168152602001908152602001600020600082825403925050819055506001600360008473ffffffffffffffffffffffffffffffffffffffff1673ffffffffffffffffffffffffffffffffffffffff16815260200190815260200160002060008282540192505081905550816002600083815260200190815260200160002060006101000a81548173ffffffffffffffffffffffffffffffffffffffff021916908373ffffffffffffffffffffffffffffffffffffffff160217905550808273ffffffffffffffffffffffffffffffffffffffff168473ffffffffffffffffffffffffffffffffffffffff167fddf252ad1be2c89b69c2b068fc378daa952ba7f163c4a11628f55a4df523b3ef60405160405180910390a4620021268383836001620027e4565b505050565b6200213562001cc1565b73ffffffffffffffffffffffffffffffffffffffff166200215562000d6d565b73ffffffffffffffffffffffffffffffffffffffff1614620021ae576040517f08c379a0000000000000000000000000000000000000000000000000000000008152600401620021a59062004d9b565b60405180910390fd5b565b620021ba620027ea565b6000600b60006101000a81548160ff0219169083151502179055507f5db9ee0a495bf2e6ff9c91a7834c1ba4fdd244a5e8aa4e537bd38aeae4b073aa6200220062001cc1565b6040516200220f9190620037a7565b60405180910390a1565b6200223582826040518060200160405280600081525062002838565b5050565b62002244816200289a565b50565b60006002600083815260200190815260200160002060009054906101000a900473ffffffffffffffffffffffffffffffffffffffff169050919050565b6000600b60019054906101000a900473ffffffffffffffffffffffffffffffffffffffff16905081600b60016101000a81548173ffffffffffffffffffffffffffffffffffffffff021916908373ffffffffffffffffffffffffffffffffffffffff1602179055508173ffffffffffffffffffffffffffffffffffffffff168173ffffffffffffffffffffffffffffffffffffffff167f8be0079c531659141344cd1fd0a4f28419497f9722a3daafe3b4186f6b6457e060405160405180910390a35050565b62002354620028f4565b6001600b60006101000a81548160ff0219169083151502179055507f62e78cea01bee320cd4e420270b5ea74000d11b0c9f74754ebdbfc544b05a2586200239a62001cc1565b604051620023a99190620037a7565b60405180910390a1565b8173ffffffffffffffffffffffffffffffffffffffff168373ffffffffffffffffffffffffffffffffffffffff160362002424576040517f08c379a00000000000000000000000000000000000000000000000000000000081526004016200241b9062004e0d565b60405180910390fd5b80600560008573ffffffffffffffffffffffffffffffffffffffff1673ffffffffffffffffffffffffffffffffffffffff16815260200190815260200160002060008473ffffffffffffffffffffffffffffffffffffffff1673ffffffffffffffffffffffffffffffffffffffff16815260200190815260200160002060006101000a81548160ff0219169083151502179055508173ffffffffffffffffffffffffffffffffffffffff168373ffffffffffffffffffffffffffffffffffffffff167f17307eab39ab6107e8899845ad3d59bd9653f200f220920489ca2b5937696c31836040516200251791906200361a565b60405180910390a3505050565b6200253184848462001e21565b6200253f8484848462002943565b62002581576040517f08c379a0000000000000000000000000000000000000000000000000000000008152600401620025789062004ea5565b60405180910390fd5b50505050565b60606040518060400160405280601581526020017f697066733a2f2f3c686173683e2f646f612f6e66740000000000000000000000815250905090565b606060006001620025d58462002adb565b01905060008167ffffffffffffffff811115620025f757620025f662003a02565b5b6040519080825280601f01601f1916602001820160405280156200262a5781602001600182028036833780820191505090505b509050600082602001820190505b60011562002692578080600190039150507f3031323334353637383961626364656600000000000000000000000000000000600a86061a8153600a858162002685576200268462004ec7565b5b0494506000850362002638575b819350505050919050565b60007f80ac58cd000000000000000000000000000000000000000000000000000000007bffffffffffffffffffffffffffffffffffffffffffffffffffffffff1916827bffffffffffffffffffffffffffffffffffffffffffffffffffffffff191614806200276957507f5b5e139f000000000000000000000000000000000000000000000000000000007bffffffffffffffffffffffffffffffffffffffffffffffffffffffff1916827bffffffffffffffffffffffffffffffffffffffffffffffffffffffff1916145b806200277c57506200277b8262002c47565b5b9050919050565b60008073ffffffffffffffffffffffffffffffffffffffff16620027a78362002247565b73ffffffffffffffffffffffffffffffffffffffff1614159050919050565b620027d0620028f4565b620027de8484848462002cb1565b50505050565b50505050565b620027f462000ab7565b62002836576040517f08c379a00000000000000000000000000000000000000000000000000000000081526004016200282d9062004f46565b60405180910390fd5b565b62002844838362002e22565b62002853600084848462002943565b62002895576040517f08c379a00000000000000000000000000000000000000000000000000000000081526004016200288c9062004ea5565b60405180910390fd5b505050565b620028a58162003050565b6000600a60008381526020019081526020016000208054620028c79062003c50565b905014620028f157600a60008281526020019081526020016000206000620028f09190620034f5565b5b50565b620028fe62000ab7565b1562002941576040517f08c379a0000000000000000000000000000000000000000000000000000000008152600401620029389062004fb8565b60405180910390fd5b565b6000620029668473ffffffffffffffffffffffffffffffffffffffff16620031a6565b1562002ace578373ffffffffffffffffffffffffffffffffffffffff1663150b7a026200299262001cc1565b8786866040518563ffffffff1660e01b8152600401620029b6949392919062005037565b6020604051808303816000875af1925050508015620029f557506040513d601f19601f82011682018060405250810190620029f29190620050a2565b60015b62002a7d573d806000811462002a28576040519150601f19603f3d011682016040523d82523d6000602084013e62002a2d565b606091505b50600081510362002a75576040517f08c379a000000000000000000000000000000000000000000000000000000000815260040162002a6c9062004ea5565b60405180910390fd5b805181602001fd5b63150b7a0260e01b7bffffffffffffffffffffffffffffffffffffffffffffffffffffffff1916817bffffffffffffffffffffffffffffffffffffffffffffffffffffffff19161491505062002ad3565b600190505b949350505050565b600080600090507a184f03e93ff9f4daa797ed6e38ed64bf6a1f010000000000000000831062002b3d577a184f03e93ff9f4daa797ed6e38ed64bf6a1f010000000000000000838162002b335762002b3262004ec7565b5b0492506040810190505b6d04ee2d6d415b85acef8100000000831062002b7e576d04ee2d6d415b85acef8100000000838162002b745762002b7362004ec7565b5b0492506020810190505b662386f26fc10000831062002bb157662386f26fc10000838162002ba75762002ba662004ec7565b5b0492506010810190505b6305f5e100831062002bde576305f5e100838162002bd45762002bd362004ec7565b5b0492506008810190505b612710831062002c0757612710838162002bfd5762002bfc62004ec7565b5b0492506004810190505b6064831062002c2e576064838162002c245762002c2362004ec7565b5b0492506002810190505b600a831062002c3e576001810190505b80915050919050565b60007f01ffc9a7000000000000000000000000000000000000000000000000000000007bffffffffffffffffffffffffffffffffffffffffffffffffffffffff1916827bffffffffffffffffffffffffffffffffffffffffffffffffffffffff1916149050919050565b62002cbf84848484620031c9565b600181111562002d06576040517f08c379a000000000000000000000000000000000000000000000000000000000815260040162002cfd906200514a565b60405180910390fd5b6000829050600073ffffffffffffffffffffffffffffffffffffffff168573ffffffffffffffffffffffffffffffffffffffff160362002d515762002d4b81620031cf565b62002d93565b8373ffffffffffffffffffffffffffffffffffffffff168573ffffffffffffffffffffffffffffffffffffffff161462002d925762002d91858262003218565b5b5b600073ffffffffffffffffffffffffffffffffffffffff168473ffffffffffffffffffffffffffffffffffffffff160362002dd95762002dd3816200338a565b62002e1b565b8473ffffffffffffffffffffffffffffffffffffffff168473ffffffffffffffffffffffffffffffffffffffff161462002e1a5762002e19848262003466565b5b5b5050505050565b600073ffffffffffffffffffffffffffffffffffffffff168273ffffffffffffffffffffffffffffffffffffffff160362002e94576040517f08c379a000000000000000000000000000000000000000000000000000000000815260040162002e8b90620051bc565b60405180910390fd5b62002e9f8162002783565b1562002ee2576040517f08c379a000000000000000000000000000000000000000000000000000000000815260040162002ed9906200522e565b60405180910390fd5b62002ef2600083836001620027c6565b62002efd8162002783565b1562002f40576040517f08c379a000000000000000000000000000000000000000000000000000000000815260040162002f37906200522e565b60405180910390fd5b6001600360008473ffffffffffffffffffffffffffffffffffffffff1673ffffffffffffffffffffffffffffffffffffffff16815260200190815260200160002060008282540192505081905550816002600083815260200190815260200160002060006101000a81548173ffffffffffffffffffffffffffffffffffffffff021916908373ffffffffffffffffffffffffffffffffffffffff160217905550808273ffffffffffffffffffffffffffffffffffffffff16600073ffffffffffffffffffffffffffffffffffffffff167fddf252ad1be2c89b69c2b068fc378daa952ba7f163c4a11628f55a4df523b3ef60405160405180910390a46200304c600083836001620027e4565b5050565b60006200305d8262000ace565b90506200306f816000846001620027c6565b6200307a8262000ace565b90506004600083815260200190815260200160002060006101000a81549073ffffffffffffffffffffffffffffffffffffffff02191690556001600360008373ffffffffffffffffffffffffffffffffffffffff1673ffffffffffffffffffffffffffffffffffffffff168152602001908152602001600020600082825403925050819055506002600083815260200190815260200160002060006101000a81549073ffffffffffffffffffffffffffffffffffffffff021916905581600073ffffffffffffffffffffffffffffffffffffffff168273ffffffffffffffffffffffffffffffffffffffff167fddf252ad1be2c89b69c2b068fc378daa952ba7f163c4a11628f55a4df523b3ef60405160405180910390a4620031a2816000846001620027e4565b5050565b6000808273ffffffffffffffffffffffffffffffffffffffff163b119050919050565b50505050565b6008805490506009600083815260200190815260200160002081905550600881908060018154018082558091505060019003906000526020600020016000909190919091505550565b60006001620032278462000b59565b62003233919062004b58565b905060006007600084815260200190815260200160002054905081811462003319576000600660008673ffffffffffffffffffffffffffffffffffffffff1673ffffffffffffffffffffffffffffffffffffffff168152602001908152602001600020600084815260200190815260200160002054905080600660008773ffffffffffffffffffffffffffffffffffffffff1673ffffffffffffffffffffffffffffffffffffffff168152602001908152602001600020600084815260200190815260200160002081905550816007600083815260200190815260200160002081905550505b6007600084815260200190815260200160002060009055600660008573ffffffffffffffffffffffffffffffffffffffff1673ffffffffffffffffffffffffffffffffffffffff16815260200190815260200160002060008381526020019081526020016000206000905550505050565b60006001600880549050620033a0919062004b58565b9050600060096000848152602001908152602001600020549050600060088381548110620033d357620033d262003f7d565b5b906000526020600020015490508060088381548110620033f857620033f762003f7d565b5b9060005260206000200181905550816009600083815260200190815260200160002081905550600960008581526020019081526020016000206000905560088054806200344a576200344962005250565b5b6001900381819060005260206000200160009055905550505050565b6000620034738362000b59565b905081600660008573ffffffffffffffffffffffffffffffffffffffff1673ffffffffffffffffffffffffffffffffffffffff168152602001908152602001600020600083815260200190815260200160002081905550806007600084815260200190815260200160002081905550505050565b6142d4806200528083390190565b508054620035039062003c50565b6000825580601f1062003517575062003538565b601f0160209004906000526020600020908101906200353791906200353b565b5b50565b5b80821115620035565760008160009055506001016200353c565b5090565b6000604051905090565b600080fd5b600080fd5b60007fffffffff0000000000000000000000000000000000000000000000000000000082169050919050565b620035a5816200356e565b8114620035b157600080fd5b50565b600081359050620035c5816200359a565b92915050565b600060208284031215620035e457620035e362003564565b5b6000620035f484828501620035b4565b91505092915050565b60008115159050919050565b6200361481620035fd565b82525050565b600060208201905062003631600083018462003609565b92915050565b600081519050919050565b600082825260208201905092915050565b60005b838110156200367357808201518184015260208101905062003656565b60008484015250505050565b6000601f19601f8301169050919050565b60006200369d8262003637565b620036a9818562003642565b9350620036bb81856020860162003653565b620036c6816200367f565b840191505092915050565b60006020820190508181036000830152620036ed818462003690565b905092915050565b6000819050919050565b6200370a81620036f5565b81146200371657600080fd5b50565b6000813590506200372a81620036ff565b92915050565b60006020828403121562003749576200374862003564565b5b6000620037598482850162003719565b91505092915050565b600073ffffffffffffffffffffffffffffffffffffffff82169050919050565b60006200378f8262003762565b9050919050565b620037a18162003782565b82525050565b6000602082019050620037be600083018462003796565b92915050565b620037cf8162003782565b8114620037db57600080fd5b50565b600081359050620037ef81620037c4565b92915050565b600080604083850312156200380f576200380e62003564565b5b60006200381f85828601620037de565b9250506020620038328582860162003719565b9150509250929050565b6200384781620036f5565b82525050565b60006020820190506200386460008301846200383c565b92915050565b6000819050919050565b6000620038956200388f620038898462003762565b6200386a565b62003762565b9050919050565b6000620038a98262003874565b9050919050565b6000620038bd826200389c565b9050919050565b620038cf81620038b0565b82525050565b6000602082019050620038ec6000830184620038c4565b92915050565b6000806000606084860312156200390e576200390d62003564565b5b60006200391e86828701620037de565b93505060206200393186828701620037de565b9250506040620039448682870162003719565b9150509250925092565b60006020828403121562003967576200396662003564565b5b60006200397784828501620037de565b91505092915050565b6200398b81620035fd565b81146200399757600080fd5b50565b600081359050620039ab8162003980565b92915050565b60008060408385031215620039cb57620039ca62003564565b5b6000620039db85828601620037de565b9250506020620039ee858286016200399a565b9150509250929050565b600080fd5b600080fd5b7f4e487b7100000000000000000000000000000000000000000000000000000000600052604160045260246000fd5b62003a3c826200367f565b810181811067ffffffffffffffff8211171562003a5e5762003a5d62003a02565b5b80604052505050565b600062003a736200355a565b905062003a81828262003a31565b919050565b600067ffffffffffffffff82111562003aa45762003aa362003a02565b5b62003aaf826200367f565b9050602081019050919050565b82818337600083830152505050565b600062003ae262003adc8462003a86565b62003a67565b90508281526020810184848401111562003b015762003b00620039fd565b5b62003b0e84828562003abc565b509392505050565b600082601f83011262003b2e5762003b2d620039f8565b5b813562003b4084826020860162003acb565b91505092915050565b6000806000806080858703121562003b665762003b6562003564565b5b600062003b7687828801620037de565b945050602062003b8987828801620037de565b935050604062003b9c8782880162003719565b925050606085013567ffffffffffffffff81111562003bc05762003bbf62003569565b5b62003bce8782880162003b16565b91505092959194509250565b6000806040838503121562003bf45762003bf362003564565b5b600062003c0485828601620037de565b925050602062003c1785828601620037de565b9150509250929050565b7f4e487b7100000000000000000000000000000000000000000000000000000000600052602260045260246000fd5b6000600282049050600182168062003c6957607f821691505b60208210810362003c7f5762003c7e62003c21565b5b50919050565b7f4552433732313a20617070726f76616c20746f2063757272656e74206f776e6560008201527f7200000000000000000000000000000000000000000000000000000000000000602082015250565b600062003ce360218362003642565b915062003cf08262003c85565b604082019050919050565b6000602082019050818103600083015262003d168162003cd4565b9050919050565b7f4552433732313a20617070726f76652063616c6c6572206973206e6f7420746f60008201527f6b656e206f776e6572206f7220617070726f76656420666f7220616c6c000000602082015250565b600062003d7b603d8362003642565b915062003d888262003d1d565b604082019050919050565b6000602082019050818103600083015262003dae8162003d6c565b9050919050565b7f4552433732313a2063616c6c6572206973206e6f7420746f6b656e206f776e6560008201527f72206f7220617070726f76656400000000000000000000000000000000000000602082015250565b600062003e13602d8362003642565b915062003e208262003db5565b604082019050919050565b6000602082019050818103600083015262003e468162003e04565b9050919050565b7f455243373231456e756d657261626c653a206f776e657220696e646578206f7560008201527f74206f6620626f756e6473000000000000000000000000000000000000000000602082015250565b600062003eab602b8362003642565b915062003eb88262003e4d565b604082019050919050565b6000602082019050818103600083015262003ede8162003e9c565b9050919050565b7f455243373231456e756d657261626c653a20676c6f62616c20696e646578206f60008201527f7574206f6620626f756e64730000000000000000000000000000000000000000602082015250565b600062003f43602c8362003642565b915062003f508262003ee5565b604082019050919050565b6000602082019050818103600083015262003f768162003f34565b9050919050565b7f4e487b7100000000000000000000000000000000000000000000000000000000600052603260045260246000fd5b7f4552433732313a20696e76616c696420746f6b656e2049440000000000000000600082015250565b600062003fe460188362003642565b915062003ff18262003fac565b602082019050919050565b60006020820190508181036000830152620040178162003fd5565b9050919050565b7f4552433732313a2061646472657373207a65726f206973206e6f74206120766160008201527f6c6964206f776e65720000000000000000000000000000000000000000000000602082015250565b60006200407c60298362003642565b915062004089826200401e565b604082019050919050565b60006020820190508181036000830152620040af816200406d565b9050919050565b6000819050919050565b6000620040e1620040db620040d584620040b6565b6200386a565b620036f5565b9050919050565b620040f381620040c0565b82525050565b6000602082019050620041106000830184620040e8565b92915050565b6000815190506200412781620037c4565b92915050565b60006020828403121562004146576200414562003564565b5b6000620041568482850162004116565b91505092915050565b6200416a81620036f5565b82525050565b60006020820190506200418760008301846200415f565b92915050565b600581106200419b57600080fd5b50565b600081519050620041af816200418d565b92915050565b600060208284031215620041ce57620041cd62003564565b5b6000620041de848285016200419e565b91505092915050565b7f4e487b7100000000000000000000000000000000000000000000000000000000600052602160045260246000fd5b7f496e76616c696420436c61737300000000000000000000000000000000000000600082015250565b60006200424e600d8362003642565b91506200425b8262004216565b602082019050919050565b6000602082019050818103600083015262004281816200423f565b9050919050565b600081905092915050565b6000620042a08262003637565b620042ac818562004288565b9350620042be81856020860162003653565b80840191505092915050565b7f2f00000000000000000000000000000000000000000000000000000000000000600082015250565b60006200430260018362004288565b91506200430f82620042ca565b600182019050919050565b7f2e6a736f6e000000000000000000000000000000000000000000000000000000600082015250565b60006200435260058362004288565b91506200435f826200431a565b600582019050919050565b600062004378828662004293565b915062004386828562004293565b91506200439382620042f3565b9150620043a1828462004293565b9150620043ae8262004343565b9150819050949350505050565b600081519050620043cc81620036ff565b92915050565b600060208284031215620043eb57620043ea62003564565b5b6000620043fb84828501620043bb565b91505092915050565b6000819050919050565b60006200442f62004429620044238462004404565b6200386a565b620036f5565b9050919050565b62004441816200440e565b82525050565b600082825260208201905092915050565b7f53686f756c642062652031000000000000000000000000000000000000000000600082015250565b600062004490600b8362004447565b91506200449d8262004458565b602082019050919050565b6000606082019050620044bf60008301856200415f565b620044ce602083018462004436565b8181036040830152620044e18162004481565b90509392505050565b600081519050620044fb8162003980565b92915050565b6000602082840312156200451a576200451962003564565b5b60006200452a84828501620044ea565b91505092915050565b6000819050919050565b60006200455e62004558620045528462004533565b6200386a565b620036f5565b9050919050565b62004570816200453d565b82525050565b60006040820190506200458d600083018562003796565b6200459c602083018462004565565b9392505050565b6000819050919050565b6000620045ce620045c8620045c284620045a3565b6200386a565b620036f5565b9050919050565b620045e081620045ad565b82525050565b7f53686f756c642062652036000000000000000000000000000000000000000000600082015250565b60006200461e600b8362004447565b91506200462b82620045e6565b602082019050919050565b60006060820190506200464d60008301856200415f565b6200465c6020830184620045d5565b81810360408301526200466f816200460f565b90509392505050565b6000819050919050565b6000620046a36200469d620046978462004678565b6200386a565b620036f5565b9050919050565b620046b58162004682565b82525050565b6000604082019050620046d2600083018562003796565b620046e16020830184620046aa565b9392505050565b60008160e01c9050919050565b600060033d1115620047175760046000803e62004714600051620046e8565b90505b90565b600060443d10620047b2576200472f6200355a565b60043d036004823e80513d602482011167ffffffffffffffff8211171562004759575050620047b2565b808201805167ffffffffffffffff811115620047795750505050620047b2565b80602083010160043d03850181111562004798575050505050620047b2565b620047a98260200185018662003a31565b82955050505050505b90565b620047c081620035fd565b82525050565b7f73686f756c64206661696c20666f722033000000000000000000000000000000600082015250565b6000620047fe60118362004447565b91506200480b82620047c6565b602082019050919050565b60006040820190506200482d6000830184620047b5565b81810360208301526200484081620047ef565b905092915050565b7f6661696c656420756e6578706563746564000000000000000000000000000000600082015250565b60006200488060118362004447565b91506200488d8262004848565b602082019050919050565b6000604082019050620048af6000830184620047b5565b8181036020830152620048c28162004871565b905092915050565b7f3320616c7265616479206d696e74656400000000000000000000000000000000600082015250565b60006200490260108362004447565b91506200490f82620048ca565b602082019050919050565b6000604082019050620049316000830184620047b5565b81810360208301526200494481620048f3565b905092915050565b6000819050919050565b600062004977620049716200496b846200494c565b6200386a565b620036f5565b9050919050565b620049898162004956565b82525050565b6000604082019050620049a6600083018562003796565b620049b560208301846200497e565b9392505050565b6000819050919050565b6000620049e7620049e1620049db84620049bc565b6200386a565b620036f5565b9050919050565b620049f981620049c6565b82525050565b7f53686f756c642062652037000000000000000000000000000000000000000000600082015250565b600062004a37600b8362004447565b915062004a4482620049ff565b602082019050919050565b600060608201905062004a6660008301856200415f565b62004a756020830184620049ee565b818103604083015262004a888162004a28565b90509392505050565b7f4f776e61626c653a206e6577206f776e657220697320746865207a65726f206160008201527f6464726573730000000000000000000000000000000000000000000000000000602082015250565b600062004aef60268362003642565b915062004afc8262004a91565b604082019050919050565b6000602082019050818103600083015262004b228162004ae0565b9050919050565b7f4e487b7100000000000000000000000000000000000000000000000000000000600052601160045260246000fd5b600062004b6582620036f5565b915062004b7283620036f5565b925082820390508181111562004b8d5762004b8c62004b29565b5b92915050565b600062004ba082620036f5565b915062004bad83620036f5565b925082820190508082111562004bc85762004bc762004b29565b5b92915050565b600062004bdb82620036f5565b91507fffffffffffffffffffffffffffffffffffffffffffffffffffffffffffffffff820362004c105762004c0f62004b29565b5b600182019050919050565b7f4552433732313a207472616e736665722066726f6d20696e636f72726563742060008201527f6f776e6572000000000000000000000000000000000000000000000000000000602082015250565b600062004c7960258362003642565b915062004c868262004c1b565b604082019050919050565b6000602082019050818103600083015262004cac8162004c6a565b9050919050565b7f4552433732313a207472616e7366657220746f20746865207a65726f2061646460008201527f7265737300000000000000000000000000000000000000000000000000000000602082015250565b600062004d1160248362003642565b915062004d1e8262004cb3565b604082019050919050565b6000602082019050818103600083015262004d448162004d02565b9050919050565b7f4f776e61626c653a2063616c6c6572206973206e6f7420746865206f776e6572600082015250565b600062004d8360208362003642565b915062004d908262004d4b565b602082019050919050565b6000602082019050818103600083015262004db68162004d74565b9050919050565b7f4552433732313a20617070726f766520746f2063616c6c657200000000000000600082015250565b600062004df560198362003642565b915062004e028262004dbd565b602082019050919050565b6000602082019050818103600083015262004e288162004de6565b9050919050565b7f4552433732313a207472616e7366657220746f206e6f6e20455243373231526560008201527f63656976657220696d706c656d656e7465720000000000000000000000000000602082015250565b600062004e8d60328362003642565b915062004e9a8262004e2f565b604082019050919050565b6000602082019050818103600083015262004ec08162004e7e565b9050919050565b7f4e487b7100000000000000000000000000000000000000000000000000000000600052601260045260246000fd5b7f5061757361626c653a206e6f7420706175736564000000000000000000000000600082015250565b600062004f2e60148362003642565b915062004f3b8262004ef6565b602082019050919050565b6000602082019050818103600083015262004f618162004f1f565b9050919050565b7f5061757361626c653a2070617573656400000000000000000000000000000000600082015250565b600062004fa060108362003642565b915062004fad8262004f68565b602082019050919050565b6000602082019050818103600083015262004fd38162004f91565b9050919050565b600081519050919050565b600082825260208201905092915050565b6000620050038262004fda565b6200500f818562004fe5565b93506200502181856020860162003653565b6200502c816200367f565b840191505092915050565b60006080820190506200504e600083018762003796565b6200505d602083018662003796565b6200506c60408301856200383c565b818103606083015262005080818462004ff6565b905095945050505050565b6000815190506200509c816200359a565b92915050565b600060208284031215620050bb57620050ba62003564565b5b6000620050cb848285016200508b565b91505092915050565b7f455243373231456e756d657261626c653a20636f6e736563757469766520747260008201527f616e7366657273206e6f7420737570706f727465640000000000000000000000602082015250565b60006200513260358362003642565b91506200513f82620050d4565b604082019050919050565b60006020820190508181036000830152620051658162005123565b9050919050565b7f4552433732313a206d696e7420746f20746865207a65726f2061646472657373600082015250565b6000620051a460208362003642565b9150620051b1826200516c565b602082019050919050565b60006020820190508181036000830152620051d78162005195565b9050919050565b7f4552433732313a20746f6b656e20616c7265616479206d696e74656400000000600082015250565b600062005216601c8362003642565b91506200522382620051de565b602082019050919050565b60006020820190508181036000830152620052498162005207565b9050919050565b7f4e487b7100000000000000000000000000000000000000000000000000000000600052603160045260246000fdfe60806040523480156200001157600080fd5b506040518060400160405280601181526020017f446175676874657273206f6620417279610000000000000000000000000000008152506040518060400160405280600381526020017f446f41000000000000000000000000000000000000000000000000000000000081525081600090816200008f919062000485565b508060019081620000a1919062000485565b5050506000600b60006101000a81548160ff021916908315150217905550620000df620000d36200013d60201b60201c565b6200014560201b60201c565b6001600c60003373ffffffffffffffffffffffffffffffffffffffff1673ffffffffffffffffffffffffffffffffffffffff16815260200190815260200160002060006101000a81548160ff0219169083151502179055506200056c565b600033905090565b6000600b60019054906101000a900473ffffffffffffffffffffffffffffffffffffffff16905081600b60016101000a81548173ffffffffffffffffffffffffffffffffffffffff021916908373ffffffffffffffffffffffffffffffffffffffff1602179055508173ffffffffffffffffffffffffffffffffffffffff168173ffffffffffffffffffffffffffffffffffffffff167f8be0079c531659141344cd1fd0a4f28419497f9722a3daafe3b4186f6b6457e060405160405180910390a35050565b600081519050919050565b7f4e487b7100000000000000000000000000000000000000000000000000000000600052604160045260246000fd5b7f4e487b7100000000000000000000000000000000000000000000000000000000600052602260045260246000fd5b600060028204905060018216806200028d57607f821691505b602082108103620002a357620002a262000245565b5b50919050565b60008190508160005260206000209050919050565b60006020601f8301049050919050565b600082821b905092915050565b6000600883026200030d7fffffffffffffffffffffffffffffffffffffffffffffffffffffffffffffffff82620002ce565b620003198683620002ce565b95508019841693508086168417925050509392505050565b6000819050919050565b6000819050919050565b600062000366620003606200035a8462000331565b6200033b565b62000331565b9050919050565b6000819050919050565b620003828362000345565b6200039a62000391826200036d565b848454620002db565b825550505050565b600090565b620003b1620003a2565b620003be81848462000377565b505050565b5b81811015620003e657620003da600082620003a7565b600181019050620003c4565b5050565b601f8211156200043557620003ff81620002a9565b6200040a84620002be565b810160208510156200041a578190505b620004326200042985620002be565b830182620003c3565b50505b505050565b600082821c905092915050565b60006200045a600019846008026200043a565b1980831691505092915050565b600062000475838362000447565b9150826002028217905092915050565b62000490826200020b565b67ffffffffffffffff811115620004ac57620004ab62000216565b5b620004b8825462000274565b620004c5828285620003ea565b600060209050601f831160018114620004fd5760008415620004e8578287015190505b620004f4858262000467565b86555062000564565b601f1984166200050d86620002a9565b60005b82811015620005375784890151825560018201915060208501945060208101905062000510565b8683101562000557578489015162000553601f89168262000447565b8355505b6001600288020188555050505b505050505050565b613d58806200057c6000396000f3fe608060405234801561001057600080fd5b50600436106101a95760003560e01c80636352211e116100f9578063a144819411610097578063c87b56dd11610071578063c87b56dd1461047e578063e985e9c5146104ae578063f2fde38b146104de578063f9f49952146104fa576101a9565b8063a14481941461042a578063a22cb46514610446578063b88d4fde14610462576101a9565b80638456cb59116100d35780638456cb59146103c85780638da5cb5b146103d257806395d89b41146103f057806398eaa4a71461040e576101a9565b80636352211e1461035e57806370a082311461038e578063715018a6146103be576101a9565b80632f745c591161016657806342842e0e1161014057806342842e0e146102d857806342966c68146102f45780634f6ccce7146103105780635c975abb14610340576101a9565b80632f745c59146102825780633f4ba83a146102b257806340d097c3146102bc576101a9565b806301ffc9a7146101ae57806306fdde03146101de578063081812fc146101fc578063095ea7b31461022c57806318160ddd1461024857806323b872dd14610266575b600080fd5b6101c860048036038101906101c391906129b9565b610516565b6040516101d59190612a01565b60405180910390f35b6101e6610528565b6040516101f39190612aac565b60405180910390f35b61021660048036038101906102119190612b04565b6105ba565b6040516102239190612b72565b60405180910390f35b61024660048036038101906102419190612bb9565b610600565b005b610250610717565b60405161025d9190612c08565b60405180910390f35b610280600480360381019061027b9190612c23565b610724565b005b61029c60048036038101906102979190612bb9565b610784565b6040516102a99190612c08565b60405180910390f35b6102ba610829565b005b6102d660048036038101906102d19190612c76565b61083b565b005b6102f260048036038101906102ed9190612c23565b61084f565b005b61030e60048036038101906103099190612b04565b61086f565b005b61032a60048036038101906103259190612b04565b6108cb565b6040516103379190612c08565b60405180910390f35b61034861093c565b6040516103559190612a01565b60405180910390f35b61037860048036038101906103739190612b04565b610953565b6040516103859190612b72565b60405180910390f35b6103a860048036038101906103a39190612c76565b6109d9565b6040516103b59190612c08565b60405180910390f35b6103c6610a90565b005b6103d0610aa4565b005b6103da610ab6565b6040516103e79190612b72565b60405180910390f35b6103f8610ae0565b6040516104059190612aac565b60405180910390f35b61042860048036038101906104239190612c76565b610b72565b005b610444600480360381019061043f9190612bb9565b610bd5565b005b610460600480360381019061045b9190612ccf565b610be3565b005b61047c60048036038101906104779190612e44565b610bf9565b005b61049860048036038101906104939190612b04565b610c5b565b6040516104a59190612aac565b60405180910390f35b6104c860048036038101906104c39190612ec7565b610f71565b6040516104d59190612a01565b60405180910390f35b6104f860048036038101906104f39190612c76565b611005565b005b610514600480360381019061050f9190612bb9565b611088565b005b6000610521826110d8565b9050919050565b60606000805461053790612f36565b80601f016020809104026020016040519081016040528092919081815260200182805461056390612f36565b80156105b05780601f10610585576101008083540402835291602001916105b0565b820191906000526020600020905b81548152906001019060200180831161059357829003601f168201915b5050505050905090565b60006105c582611152565b6004600083815260200190815260200160002060009054906101000a900473ffffffffffffffffffffffffffffffffffffffff169050919050565b600061060b82610953565b90508073ffffffffffffffffffffffffffffffffffffffff168373ffffffffffffffffffffffffffffffffffffffff160361067b576040517f08c379a000000000000000000000000000000000000000000000000000000000815260040161067290612fd9565b60405180910390fd5b8073ffffffffffffffffffffffffffffffffffffffff1661069a61119d565b73ffffffffffffffffffffffffffffffffffffffff1614806106c957506106c8816106c361119d565b610f71565b5b610708576040517f08c379a00000000000000000000000000000000000000000000000000000000081526004016106ff9061306b565b60405180910390fd5b61071283836111a5565b505050565b6000600880549050905090565b61073561072f61119d565b8261125e565b610774576040517f08c379a000000000000000000000000000000000000000000000000000000000815260040161076b906130fd565b60405180910390fd5b61077f8383836112f3565b505050565b600061078f836109d9565b82106107d0576040517f08c379a00000000000000000000000000000000000000000000000000000000081526004016107c79061318f565b60405180910390fd5b600660008473ffffffffffffffffffffffffffffffffffffffff1673ffffffffffffffffffffffffffffffffffffffff168152602001908152602001600020600083815260200190815260200160002054905092915050565b6108316115ec565b61083961166a565b565b61084c81610847610717565b6116cd565b50565b61086a83838360405180602001604052806000815250610bf9565b505050565b61088061087a61119d565b8261125e565b6108bf576040517f08c379a00000000000000000000000000000000000000000000000000000000081526004016108b6906130fd565b60405180910390fd5b6108c8816116eb565b50565b60006108d5610717565b8210610916576040517f08c379a000000000000000000000000000000000000000000000000000000000815260040161090d90613221565b60405180910390fd5b6008828154811061092a57610929613241565b5b90600052602060002001549050919050565b6000600b60009054906101000a900460ff16905090565b60008061095f836116f7565b9050600073ffffffffffffffffffffffffffffffffffffffff168173ffffffffffffffffffffffffffffffffffffffff16036109d0576040517f08c379a00000000000000000000000000000000000000000000000000000000081526004016109c7906132bc565b60405180910390fd5b80915050919050565b60008073ffffffffffffffffffffffffffffffffffffffff168273ffffffffffffffffffffffffffffffffffffffff1603610a49576040517f08c379a0000000000000000000000000000000000000000000000000000000008152600401610a409061334e565b60405180910390fd5b600360008373ffffffffffffffffffffffffffffffffffffffff1673ffffffffffffffffffffffffffffffffffffffff168152602001908152602001600020549050919050565b610a986115ec565b610aa26000611734565b565b610aac6115ec565b610ab46117fa565b565b6000600b60019054906101000a900473ffffffffffffffffffffffffffffffffffffffff16905090565b606060018054610aef90612f36565b80601f0160208091040260200160405190810160405280929190818152602001828054610b1b90612f36565b8015610b685780601f10610b3d57610100808354040283529160200191610b68565b820191906000526020600020905b815481529060010190602001808311610b4b57829003601f168201915b5050505050905090565b610b7a6115ec565b6001600c60008373ffffffffffffffffffffffffffffffffffffffff1673ffffffffffffffffffffffffffffffffffffffff16815260200190815260200160002060006101000a81548160ff02191690831515021790555050565b610bdf82826116cd565b5050565b610bf5610bee61119d565b838361185d565b5050565b610c0a610c0461119d565b8361125e565b610c49576040517f08c379a0000000000000000000000000000000000000000000000000000000008152600401610c40906130fd565b60405180910390fd5b610c55848484846119c9565b50505050565b6060610c6682611152565b6000610c70611a25565b90506060600073__$5aeaec1fdbc9a10e305638fb861dbb6f26$__63ed944cb6866040518263ffffffff1660e01b8152600401610cad919061337d565b602060405180830381865af4158015610cca573d6000803e3d6000fd5b505050506040513d601f19601f82011682018060405250810190610cee91906133bd565b905060006004811115610d0457610d036133ea565b5b816004811115610d1757610d166133ea565b5b03610d59576040518060400160405280600e81526020017f2f6865726f2f6d657461646174610000000000000000000000000000000000008152509150610f3b565b60016004811115610d6d57610d6c6133ea565b5b816004811115610d8057610d7f6133ea565b5b03610dc2576040518060400160405280601081526020017f2f6c6567656e642f6d65746164617461000000000000000000000000000000008152509150610f3a565b60026004811115610dd657610dd56133ea565b5b816004811115610de957610de86133ea565b5b03610e2b576040518060400160405280600e81526020017f2f726172652f6d657461646174610000000000000000000000000000000000008152509150610f39565b60036004811115610e3f57610e3e6133ea565b5b816004811115610e5257610e516133ea565b5b03610e94576040518060400160405280601281526020017f2f756e636f6d6d6f6e2f6d6574616461746100000000000000000000000000008152509150610f38565b600480811115610ea757610ea66133ea565b5b816004811115610eba57610eb96133ea565b5b03610efc576040518060400160405280601081526020017f2f636f6d6d6f6e2f6d65746164617461000000000000000000000000000000008152509150610f37565b6040517f08c379a0000000000000000000000000000000000000000000000000000000008152600401610f2e90613465565b60405180910390fd5b5b5b5b5b8282610f4687611a62565b604051602001610f5893929190613559565b6040516020818303038152906040529350505050919050565b6000600560008473ffffffffffffffffffffffffffffffffffffffff1673ffffffffffffffffffffffffffffffffffffffff16815260200190815260200160002060008373ffffffffffffffffffffffffffffffffffffffff1673ffffffffffffffffffffffffffffffffffffffff16815260200190815260200160002060009054906101000a900460ff16905092915050565b61100d6115ec565b600073ffffffffffffffffffffffffffffffffffffffff168173ffffffffffffffffffffffffffffffffffffffff160361107c576040517f08c379a000000000000000000000000000000000000000000000000000000000815260040161107390613612565b60405180910390fd5b61108581611734565b50565b6000611092610717565b905060005b6001836110a49190613661565b81116110d2576110bf8482846110ba9190613695565b6116cd565b80806110ca906136c9565b915050611097565b50505050565b60007f780e9d63000000000000000000000000000000000000000000000000000000007bffffffffffffffffffffffffffffffffffffffffffffffffffffffff1916827bffffffffffffffffffffffffffffffffffffffffffffffffffffffff1916148061114b575061114a82611b30565b5b9050919050565b61115b81611c12565b61119a576040517f08c379a0000000000000000000000000000000000000000000000000000000008152600401611191906132bc565b60405180910390fd5b50565b600033905090565b816004600083815260200190815260200160002060006101000a81548173ffffffffffffffffffffffffffffffffffffffff021916908373ffffffffffffffffffffffffffffffffffffffff160217905550808273ffffffffffffffffffffffffffffffffffffffff1661121883610953565b73ffffffffffffffffffffffffffffffffffffffff167f8c5be1e5ebec7d5bd14f71427d1e84f3dd0314c0f7b2291e5b200ac8c7c3b92560405160405180910390a45050565b60008061126a83610953565b90508073ffffffffffffffffffffffffffffffffffffffff168473ffffffffffffffffffffffffffffffffffffffff1614806112ac57506112ab8185610f71565b5b806112ea57508373ffffffffffffffffffffffffffffffffffffffff166112d2846105ba565b73ffffffffffffffffffffffffffffffffffffffff16145b91505092915050565b8273ffffffffffffffffffffffffffffffffffffffff1661131382610953565b73ffffffffffffffffffffffffffffffffffffffff1614611369576040517f08c379a000000000000000000000000000000000000000000000000000000000815260040161136090613783565b60405180910390fd5b600073ffffffffffffffffffffffffffffffffffffffff168273ffffffffffffffffffffffffffffffffffffffff16036113d8576040517f08c379a00000000000000000000000000000000000000000000000000000000081526004016113cf90613815565b60405180910390fd5b6113e58383836001611c53565b8273ffffffffffffffffffffffffffffffffffffffff1661140582610953565b73ffffffffffffffffffffffffffffffffffffffff161461145b576040517f08c379a000000000000000000000000000000000000000000000000000000000815260040161145290613783565b60405180910390fd5b6004600082815260200190815260200160002060006101000a81549073ffffffffffffffffffffffffffffffffffffffff02191690556001600360008573ffffffffffffffffffffffffffffffffffffffff1673ffffffffffffffffffffffffffffffffffffffff168152602001908152602001600020600082825403925050819055506001600360008473ffffffffffffffffffffffffffffffffffffffff1673ffffffffffffffffffffffffffffffffffffffff16815260200190815260200160002060008282540192505081905550816002600083815260200190815260200160002060006101000a81548173ffffffffffffffffffffffffffffffffffffffff021916908373ffffffffffffffffffffffffffffffffffffffff160217905550808273ffffffffffffffffffffffffffffffffffffffff168473ffffffffffffffffffffffffffffffffffffffff167fddf252ad1be2c89b69c2b068fc378daa952ba7f163c4a11628f55a4df523b3ef60405160405180910390a46115e78383836001611c6d565b505050565b6115f461119d565b73ffffffffffffffffffffffffffffffffffffffff16611612610ab6565b73ffffffffffffffffffffffffffffffffffffffff1614611668576040517f08c379a000000000000000000000000000000000000000000000000000000000815260040161165f90613881565b60405180910390fd5b565b611672611c73565b6000600b60006101000a81548160ff0219169083151502179055507f5db9ee0a495bf2e6ff9c91a7834c1ba4fdd244a5e8aa4e537bd38aeae4b073aa6116b661119d565b6040516116c39190612b72565b60405180910390a1565b6116e7828260405180602001604052806000815250611cbc565b5050565b6116f481611d17565b50565b60006002600083815260200190815260200160002060009054906101000a900473ffffffffffffffffffffffffffffffffffffffff169050919050565b6000600b60019054906101000a900473ffffffffffffffffffffffffffffffffffffffff16905081600b60016101000a81548173ffffffffffffffffffffffffffffffffffffffff021916908373ffffffffffffffffffffffffffffffffffffffff1602179055508173ffffffffffffffffffffffffffffffffffffffff168173ffffffffffffffffffffffffffffffffffffffff167f8be0079c531659141344cd1fd0a4f28419497f9722a3daafe3b4186f6b6457e060405160405180910390a35050565b611802611d6a565b6001600b60006101000a81548160ff0219169083151502179055507f62e78cea01bee320cd4e420270b5ea74000d11b0c9f74754ebdbfc544b05a25861184661119d565b6040516118539190612b72565b60405180910390a1565b8173ffffffffffffffffffffffffffffffffffffffff168373ffffffffffffffffffffffffffffffffffffffff16036118cb576040517f08c379a00000000000000000000000000000000000000000000000000000000081526004016118c2906138ed565b60405180910390fd5b80600560008573ffffffffffffffffffffffffffffffffffffffff1673ffffffffffffffffffffffffffffffffffffffff16815260200190815260200160002060008473ffffffffffffffffffffffffffffffffffffffff1673ffffffffffffffffffffffffffffffffffffffff16815260200190815260200160002060006101000a81548160ff0219169083151502179055508173ffffffffffffffffffffffffffffffffffffffff168373ffffffffffffffffffffffffffffffffffffffff167f17307eab39ab6107e8899845ad3d59bd9653f200f220920489ca2b5937696c31836040516119bc9190612a01565b60405180910390a3505050565b6119d48484846112f3565b6119e084848484611db4565b611a1f576040517f08c379a0000000000000000000000000000000000000000000000000000000008152600401611a169061397f565b60405180910390fd5b50505050565b60606040518060400160405280601581526020017f697066733a2f2f3c686173683e2f646f612f6e66740000000000000000000000815250905090565b606060006001611a7184611f3b565b01905060008167ffffffffffffffff811115611a9057611a8f612d19565b5b6040519080825280601f01601f191660200182016040528015611ac25781602001600182028036833780820191505090505b509050600082602001820190505b600115611b25578080600190039150507f3031323334353637383961626364656600000000000000000000000000000000600a86061a8153600a8581611b1957611b1861399f565b5b04945060008503611ad0575b819350505050919050565b60007f80ac58cd000000000000000000000000000000000000000000000000000000007bffffffffffffffffffffffffffffffffffffffffffffffffffffffff1916827bffffffffffffffffffffffffffffffffffffffffffffffffffffffff19161480611bfb57507f5b5e139f000000000000000000000000000000000000000000000000000000007bffffffffffffffffffffffffffffffffffffffffffffffffffffffff1916827bffffffffffffffffffffffffffffffffffffffffffffffffffffffff1916145b80611c0b5750611c0a8261208e565b5b9050919050565b60008073ffffffffffffffffffffffffffffffffffffffff16611c34836116f7565b73ffffffffffffffffffffffffffffffffffffffff1614159050919050565b611c5b611d6a565b611c67848484846120f8565b50505050565b50505050565b611c7b61093c565b611cba576040517f08c379a0000000000000000000000000000000000000000000000000000000008152600401611cb190613a1a565b60405180910390fd5b565b611cc68383612256565b611cd36000848484611db4565b611d12576040517f08c379a0000000000000000000000000000000000000000000000000000000008152600401611d099061397f565b60405180910390fd5b505050565b611d2081612473565b6000600a60008381526020019081526020016000208054611d4090612f36565b905014611d6757600a60008281526020019081526020016000206000611d6691906128f0565b5b50565b611d7261093c565b15611db2576040517f08c379a0000000000000000000000000000000000000000000000000000000008152600401611da990613a86565b60405180910390fd5b565b6000611dd58473ffffffffffffffffffffffffffffffffffffffff166125c1565b15611f2e578373ffffffffffffffffffffffffffffffffffffffff1663150b7a02611dfe61119d565b8786866040518563ffffffff1660e01b8152600401611e209493929190613afb565b6020604051808303816000875af1925050508015611e5c57506040513d601f19601f82011682018060405250810190611e599190613b5c565b60015b611ede573d8060008114611e8c576040519150601f19603f3d011682016040523d82523d6000602084013e611e91565b606091505b506000815103611ed6576040517f08c379a0000000000000000000000000000000000000000000000000000000008152600401611ecd9061397f565b60405180910390fd5b805181602001fd5b63150b7a0260e01b7bffffffffffffffffffffffffffffffffffffffffffffffffffffffff1916817bffffffffffffffffffffffffffffffffffffffffffffffffffffffff191614915050611f33565b600190505b949350505050565b600080600090507a184f03e93ff9f4daa797ed6e38ed64bf6a1f0100000000000000008310611f99577a184f03e93ff9f4daa797ed6e38ed64bf6a1f0100000000000000008381611f8f57611f8e61399f565b5b0492506040810190505b6d04ee2d6d415b85acef81000000008310611fd6576d04ee2d6d415b85acef81000000008381611fcc57611fcb61399f565b5b0492506020810190505b662386f26fc10000831061200557662386f26fc100008381611ffb57611ffa61399f565b5b0492506010810190505b6305f5e100831061202e576305f5e10083816120245761202361399f565b5b0492506008810190505b61271083106120535761271083816120495761204861399f565b5b0492506004810190505b60648310612076576064838161206c5761206b61399f565b5b0492506002810190505b600a8310612085576001810190505b80915050919050565b60007f01ffc9a7000000000000000000000000000000000000000000000000000000007bffffffffffffffffffffffffffffffffffffffffffffffffffffffff1916827bffffffffffffffffffffffffffffffffffffffffffffffffffffffff1916149050919050565b612104848484846125e4565b6001811115612148576040517f08c379a000000000000000000000000000000000000000000000000000000000815260040161213f90613bfb565b60405180910390fd5b6000829050600073ffffffffffffffffffffffffffffffffffffffff168573ffffffffffffffffffffffffffffffffffffffff160361218f5761218a816125ea565b6121ce565b8373ffffffffffffffffffffffffffffffffffffffff168573ffffffffffffffffffffffffffffffffffffffff16146121cd576121cc8582612633565b5b5b600073ffffffffffffffffffffffffffffffffffffffff168473ffffffffffffffffffffffffffffffffffffffff16036122105761220b816127a0565b61224f565b8473ffffffffffffffffffffffffffffffffffffffff168473ffffffffffffffffffffffffffffffffffffffff161461224e5761224d8482612871565b5b5b5050505050565b600073ffffffffffffffffffffffffffffffffffffffff168273ffffffffffffffffffffffffffffffffffffffff16036122c5576040517f08c379a00000000000000000000000000000000000000000000000000000000081526004016122bc90613c67565b60405180910390fd5b6122ce81611c12565b1561230e576040517f08c379a000000000000000000000000000000000000000000000000000000000815260040161230590613cd3565b60405180910390fd5b61231c600083836001611c53565b61232581611c12565b15612365576040517f08c379a000000000000000000000000000000000000000000000000000000000815260040161235c90613cd3565b60405180910390fd5b6001600360008473ffffffffffffffffffffffffffffffffffffffff1673ffffffffffffffffffffffffffffffffffffffff16815260200190815260200160002060008282540192505081905550816002600083815260200190815260200160002060006101000a81548173ffffffffffffffffffffffffffffffffffffffff021916908373ffffffffffffffffffffffffffffffffffffffff160217905550808273ffffffffffffffffffffffffffffffffffffffff16600073ffffffffffffffffffffffffffffffffffffffff167fddf252ad1be2c89b69c2b068fc378daa952ba7f163c4a11628f55a4df523b3ef60405160405180910390a461246f600083836001611c6d565b5050565b600061247e82610953565b905061248e816000846001611c53565b61249782610953565b90506004600083815260200190815260200160002060006101000a81549073ffffffffffffffffffffffffffffffffffffffff02191690556001600360008373ffffffffffffffffffffffffffffffffffffffff1673ffffffffffffffffffffffffffffffffffffffff168152602001908152602001600020600082825403925050819055506002600083815260200190815260200160002060006101000a81549073ffffffffffffffffffffffffffffffffffffffff021916905581600073ffffffffffffffffffffffffffffffffffffffff168273ffffffffffffffffffffffffffffffffffffffff167fddf252ad1be2c89b69c2b068fc378daa952ba7f163c4a11628f55a4df523b3ef60405160405180910390a46125bd816000846001611c6d565b5050565b6000808273ffffffffffffffffffffffffffffffffffffffff163b119050919050565b50505050565b6008805490506009600083815260200190815260200160002081905550600881908060018154018082558091505060019003906000526020600020016000909190919091505550565b60006001612640846109d9565b61264a9190613661565b905060006007600084815260200190815260200160002054905081811461272f576000600660008673ffffffffffffffffffffffffffffffffffffffff1673ffffffffffffffffffffffffffffffffffffffff168152602001908152602001600020600084815260200190815260200160002054905080600660008773ffffffffffffffffffffffffffffffffffffffff1673ffffffffffffffffffffffffffffffffffffffff168152602001908152602001600020600084815260200190815260200160002081905550816007600083815260200190815260200160002081905550505b6007600084815260200190815260200160002060009055600660008573ffffffffffffffffffffffffffffffffffffffff1673ffffffffffffffffffffffffffffffffffffffff16815260200190815260200160002060008381526020019081526020016000206000905550505050565b600060016008805490506127b49190613661565b90506000600960008481526020019081526020016000205490506000600883815481106127e4576127e3613241565b5b90600052602060002001549050806008838154811061280657612805613241565b5b90600052602060002001819055508160096000838152602001908152602001600020819055506009600085815260200190815260200160002060009055600880548061285557612854613cf3565b5b6001900381819060005260206000200160009055905550505050565b600061287c836109d9565b905081600660008573ffffffffffffffffffffffffffffffffffffffff1673ffffffffffffffffffffffffffffffffffffffff168152602001908152602001600020600083815260200190815260200160002081905550806007600084815260200190815260200160002081905550505050565b5080546128fc90612f36565b6000825580601f1061290e575061292d565b601f01602090049060005260206000209081019061292c9190612930565b5b50565b5b80821115612949576000816000905550600101612931565b5090565b6000604051905090565b600080fd5b600080fd5b60007fffffffff0000000000000000000000000000000000000000000000000000000082169050919050565b61299681612961565b81146129a157600080fd5b50565b6000813590506129b38161298d565b92915050565b6000602082840312156129cf576129ce612957565b5b60006129dd848285016129a4565b91505092915050565b60008115159050919050565b6129fb816129e6565b82525050565b6000602082019050612a1660008301846129f2565b92915050565b600081519050919050565b600082825260208201905092915050565b60005b83811015612a56578082015181840152602081019050612a3b565b60008484015250505050565b6000601f19601f8301169050919050565b6000612a7e82612a1c565b612a888185612a27565b9350612a98818560208601612a38565b612aa181612a62565b840191505092915050565b60006020820190508181036000830152612ac68184612a73565b905092915050565b6000819050919050565b612ae181612ace565b8114612aec57600080fd5b50565b600081359050612afe81612ad8565b92915050565b600060208284031215612b1a57612b19612957565b5b6000612b2884828501612aef565b91505092915050565b600073ffffffffffffffffffffffffffffffffffffffff82169050919050565b6000612b5c82612b31565b9050919050565b612b6c81612b51565b82525050565b6000602082019050612b876000830184612b63565b92915050565b612b9681612b51565b8114612ba157600080fd5b50565b600081359050612bb381612b8d565b92915050565b60008060408385031215612bd057612bcf612957565b5b6000612bde85828601612ba4565b9250506020612bef85828601612aef565b9150509250929050565b612c0281612ace565b82525050565b6000602082019050612c1d6000830184612bf9565b92915050565b600080600060608486031215612c3c57612c3b612957565b5b6000612c4a86828701612ba4565b9350506020612c5b86828701612ba4565b9250506040612c6c86828701612aef565b9150509250925092565b600060208284031215612c8c57612c8b612957565b5b6000612c9a84828501612ba4565b91505092915050565b612cac816129e6565b8114612cb757600080fd5b50565b600081359050612cc981612ca3565b92915050565b60008060408385031215612ce657612ce5612957565b5b6000612cf485828601612ba4565b9250506020612d0585828601612cba565b9150509250929050565b600080fd5b600080fd5b7f4e487b7100000000000000000000000000000000000000000000000000000000600052604160045260246000fd5b612d5182612a62565b810181811067ffffffffffffffff82111715612d7057612d6f612d19565b5b80604052505050565b6000612d8361294d565b9050612d8f8282612d48565b919050565b600067ffffffffffffffff821115612daf57612dae612d19565b5b612db882612a62565b9050602081019050919050565b82818337600083830152505050565b6000612de7612de284612d94565b612d79565b905082815260208101848484011115612e0357612e02612d14565b5b612e0e848285612dc5565b509392505050565b600082601f830112612e2b57612e2a612d0f565b5b8135612e3b848260208601612dd4565b91505092915050565b60008060008060808587031215612e5e57612e5d612957565b5b6000612e6c87828801612ba4565b9450506020612e7d87828801612ba4565b9350506040612e8e87828801612aef565b925050606085013567ffffffffffffffff811115612eaf57612eae61295c565b5b612ebb87828801612e16565b91505092959194509250565b60008060408385031215612ede57612edd612957565b5b6000612eec85828601612ba4565b9250506020612efd85828601612ba4565b9150509250929050565b7f4e487b7100000000000000000000000000000000000000000000000000000000600052602260045260246000fd5b60006002820490506001821680612f4e57607f821691505b602082108103612f6157612f60612f07565b5b50919050565b7f4552433732313a20617070726f76616c20746f2063757272656e74206f776e6560008201527f7200000000000000000000000000000000000000000000000000000000000000602082015250565b6000612fc3602183612a27565b9150612fce82612f67565b604082019050919050565b60006020820190508181036000830152612ff281612fb6565b9050919050565b7f4552433732313a20617070726f76652063616c6c6572206973206e6f7420746f60008201527f6b656e206f776e6572206f7220617070726f76656420666f7220616c6c000000602082015250565b6000613055603d83612a27565b915061306082612ff9565b604082019050919050565b6000602082019050818103600083015261308481613048565b9050919050565b7f4552433732313a2063616c6c6572206973206e6f7420746f6b656e206f776e6560008201527f72206f7220617070726f76656400000000000000000000000000000000000000602082015250565b60006130e7602d83612a27565b91506130f28261308b565b604082019050919050565b60006020820190508181036000830152613116816130da565b9050919050565b7f455243373231456e756d657261626c653a206f776e657220696e646578206f7560008201527f74206f6620626f756e6473000000000000000000000000000000000000000000602082015250565b6000613179602b83612a27565b91506131848261311d565b604082019050919050565b600060208201905081810360008301526131a88161316c565b9050919050565b7f455243373231456e756d657261626c653a20676c6f62616c20696e646578206f60008201527f7574206f6620626f756e64730000000000000000000000000000000000000000602082015250565b600061320b602c83612a27565b9150613216826131af565b604082019050919050565b6000602082019050818103600083015261323a816131fe565b9050919050565b7f4e487b7100000000000000000000000000000000000000000000000000000000600052603260045260246000fd5b7f4552433732313a20696e76616c696420746f6b656e2049440000000000000000600082015250565b60006132a6601883612a27565b91506132b182613270565b602082019050919050565b600060208201905081810360008301526132d581613299565b9050919050565b7f4552433732313a2061646472657373207a65726f206973206e6f74206120766160008201527f6c6964206f776e65720000000000000000000000000000000000000000000000602082015250565b6000613338602983612a27565b9150613343826132dc565b604082019050919050565b600060208201905081810360008301526133678161332b565b9050919050565b61337781612ace565b82525050565b6000602082019050613392600083018461336e565b92915050565b600581106133a557600080fd5b50565b6000815190506133b781613398565b92915050565b6000602082840312156133d3576133d2612957565b5b60006133e1848285016133a8565b91505092915050565b7f4e487b7100000000000000000000000000000000000000000000000000000000600052602160045260246000fd5b7f496e76616c696420436c61737300000000000000000000000000000000000000600082015250565b600061344f600d83612a27565b915061345a82613419565b602082019050919050565b6000602082019050818103600083015261347e81613442565b9050919050565b600081905092915050565b600061349b82612a1c565b6134a58185613485565b93506134b5818560208601612a38565b80840191505092915050565b7f2f00000000000000000000000000000000000000000000000000000000000000600082015250565b60006134f7600183613485565b9150613502826134c1565b600182019050919050565b7f2e6a736f6e000000000000000000000000000000000000000000000000000000600082015250565b6000613543600583613485565b915061354e8261350d565b600582019050919050565b60006135658286613490565b91506135718285613490565b915061357c826134ea565b91506135888284613490565b915061359382613536565b9150819050949350505050565b7f4f776e61626c653a206e6577206f776e657220697320746865207a65726f206160008201527f6464726573730000000000000000000000000000000000000000000000000000602082015250565b60006135fc602683612a27565b9150613607826135a0565b604082019050919050565b6000602082019050818103600083015261362b816135ef565b9050919050565b7f4e487b7100000000000000000000000000000000000000000000000000000000600052601160045260246000fd5b600061366c82612ace565b915061367783612ace565b925082820390508181111561368f5761368e613632565b5b92915050565b60006136a082612ace565b91506136ab83612ace565b92508282019050808211156136c3576136c2613632565b5b92915050565b60006136d482612ace565b91507fffffffffffffffffffffffffffffffffffffffffffffffffffffffffffffffff820361370657613705613632565b5b600182019050919050565b7f4552433732313a207472616e736665722066726f6d20696e636f72726563742060008201527f6f776e6572000000000000000000000000000000000000000000000000000000602082015250565b600061376d602583612a27565b915061377882613711565b604082019050919050565b6000602082019050818103600083015261379c81613760565b9050919050565b7f4552433732313a207472616e7366657220746f20746865207a65726f2061646460008201527f7265737300000000000000000000000000000000000000000000000000000000602082015250565b60006137ff602483612a27565b915061380a826137a3565b604082019050919050565b6000602082019050818103600083015261382e816137f2565b9050919050565b7f4f776e61626c653a2063616c6c6572206973206e6f7420746865206f776e6572600082015250565b600061386b602083612a27565b915061387682613835565b602082019050919050565b6000602082019050818103600083015261389a8161385e565b9050919050565b7f4552433732313a20617070726f766520746f2063616c6c657200000000000000600082015250565b60006138d7601983612a27565b91506138e2826138a1565b602082019050919050565b60006020820190508181036000830152613906816138ca565b9050919050565b7f4552433732313a207472616e7366657220746f206e6f6e20455243373231526560008201527f63656976657220696d706c656d656e7465720000000000000000000000000000602082015250565b6000613969603283612a27565b91506139748261390d565b604082019050919050565b600060208201905081810360008301526139988161395c565b9050919050565b7f4e487b7100000000000000000000000000000000000000000000000000000000600052601260045260246000fd5b7f5061757361626c653a206e6f7420706175736564000000000000000000000000600082015250565b6000613a04601483612a27565b9150613a0f826139ce565b602082019050919050565b60006020820190508181036000830152613a33816139f7565b9050919050565b7f5061757361626c653a2070617573656400000000000000000000000000000000600082015250565b6000613a70601083612a27565b9150613a7b82613a3a565b602082019050919050565b60006020820190508181036000830152613a9f81613a63565b9050919050565b600081519050919050565b600082825260208201905092915050565b6000613acd82613aa6565b613ad78185613ab1565b9350613ae7818560208601612a38565b613af081612a62565b840191505092915050565b6000608082019050613b106000830187612b63565b613b1d6020830186612b63565b613b2a6040830185612bf9565b8181036060830152613b3c8184613ac2565b905095945050505050565b600081519050613b568161298d565b92915050565b600060208284031215613b7257613b71612957565b5b6000613b8084828501613b47565b91505092915050565b7f455243373231456e756d657261626c653a20636f6e736563757469766520747260008201527f616e7366657273206e6f7420737570706f727465640000000000000000000000602082015250565b6000613be5603583612a27565b9150613bf082613b89565b604082019050919050565b60006020820190508181036000830152613c1481613bd8565b9050919050565b7f4552433732313a206d696e7420746f20746865207a65726f2061646472657373600082015250565b6000613c51602083612a27565b9150613c5c82613c1b565b602082019050919050565b60006020820190508181036000830152613c8081613c44565b9050919050565b7f4552433732313a20746f6b656e20616c7265616479206d696e74656400000000600082015250565b6000613cbd601c83612a27565b9150613cc882613c87565b602082019050919050565b60006020820190508181036000830152613cec81613cb0565b9050919050565b7f4e487b7100000000000000000000000000000000000000000000000000000000600052603160045260246000fdfea264697066735822122020504fdab335691123e04e4e714c5c51fdc67a2a70be152483a570f3a4168feb64736f6c63430008130033a26469706673582212207982350b162cbce8636553ffa8e015eae431a6dfb556fd76fe8d787518cd47be64736f6c63430008130033",
			"opcodes": "PUSH1 0x80 PUSH1 0x40 MSTORE CALLVALUE DUP1 ISZERO PUSH3 0x11 JUMPI PUSH1 0x0 DUP1 REVERT JUMPDEST POP PUSH1 0x40 MLOAD DUP1 PUSH1 0x40 ADD PUSH1 0x40 MSTORE DUP1 PUSH1 0x11 DUP2 MSTORE PUSH1 0x20 ADD PUSH32 0x446175676874657273206F662041727961000000000000000000000000000000 DUP2 MSTORE POP PUSH1 0x40 MLOAD DUP1 PUSH1 0x40 ADD PUSH1 0x40 MSTORE DUP1 PUSH1 0x3 DUP2 MSTORE PUSH1 0x20 ADD PUSH32 0x446F410000000000000000000000000000000000000000000000000000000000 DUP2 MSTORE POP DUP2 PUSH1 0x0 SWAP1 DUP2 PUSH3 0x8F SWAP2 SWAP1 PUSH3 0x485 JUMP JUMPDEST POP DUP1 PUSH1 0x1 SWAP1 DUP2 PUSH3 0xA1 SWAP2 SWAP1 PUSH3 0x485 JUMP JUMPDEST POP POP POP PUSH1 0x0 PUSH1 0xB PUSH1 0x0 PUSH2 0x100 EXP DUP2 SLOAD DUP2 PUSH1 0xFF MUL NOT AND SWAP1 DUP4 ISZERO ISZERO MUL OR SWAP1 SSTORE POP PUSH3 0xDF PUSH3 0xD3 PUSH3 0x13D PUSH1 0x20 SHL PUSH1 0x20 SHR JUMP JUMPDEST PUSH3 0x145 PUSH1 0x20 SHL PUSH1 0x20 SHR JUMP JUMPDEST PUSH1 0x1 PUSH1 0xC PUSH1 0x0 CALLER PUSH20 0xFFFFFFFFFFFFFFFFFFFFFFFFFFFFFFFFFFFFFFFF AND PUSH20 0xFFFFFFFFFFFFFFFFFFFFFFFFFFFFFFFFFFFFFFFF AND DUP2 MSTORE PUSH1 0x20 ADD SWAP1 DUP2 MSTORE PUSH1 0x20 ADD PUSH1 0x0 KECCAK256 PUSH1 0x0 PUSH2 0x100 EXP DUP2 SLOAD DUP2 PUSH1 0xFF MUL NOT AND SWAP1 DUP4 ISZERO ISZERO MUL OR SWAP1 SSTORE POP PUSH3 0x56C JUMP JUMPDEST PUSH1 0x0 CALLER SWAP1 POP SWAP1 JUMP JUMPDEST PUSH1 0x0 PUSH1 0xB PUSH1 0x1 SWAP1 SLOAD SWAP1 PUSH2 0x100 EXP SWAP1 DIV PUSH20 0xFFFFFFFFFFFFFFFFFFFFFFFFFFFFFFFFFFFFFFFF AND SWAP1 POP DUP2 PUSH1 0xB PUSH1 0x1 PUSH2 0x100 EXP DUP2 SLOAD DUP2 PUSH20 0xFFFFFFFFFFFFFFFFFFFFFFFFFFFFFFFFFFFFFFFF MUL NOT AND SWAP1 DUP4 PUSH20 0xFFFFFFFFFFFFFFFFFFFFFFFFFFFFFFFFFFFFFFFF AND MUL OR SWAP1 SSTORE POP DUP2 PUSH20 0xFFFFFFFFFFFFFFFFFFFFFFFFFFFFFFFFFFFFFFFF AND DUP2 PUSH20 0xFFFFFFFFFFFFFFFFFFFFFFFFFFFFFFFFFFFFFFFF AND PUSH32 0x8BE0079C531659141344CD1FD0A4F28419497F9722A3DAAFE3B4186F6B6457E0 PUSH1 0x40 MLOAD PUSH1 0x40 MLOAD DUP1 SWAP2 SUB SWAP1 LOG3 POP POP JUMP JUMPDEST PUSH1 0x0 DUP2 MLOAD SWAP1 POP SWAP2 SWAP1 POP JUMP JUMPDEST PUSH32 0x4E487B7100000000000000000000000000000000000000000000000000000000 PUSH1 0x0 MSTORE PUSH1 0x41 PUSH1 0x4 MSTORE PUSH1 0x24 PUSH1 0x0 REVERT JUMPDEST PUSH32 0x4E487B7100000000000000000000000000000000000000000000000000000000 PUSH1 0x0 MSTORE PUSH1 0x22 PUSH1 0x4 MSTORE PUSH1 0x24 PUSH1 0x0 REVERT JUMPDEST PUSH1 0x0 PUSH1 0x2 DUP3 DIV SWAP1 POP PUSH1 0x1 DUP3 AND DUP1 PUSH3 0x28D JUMPI PUSH1 0x7F DUP3 AND SWAP2 POP JUMPDEST PUSH1 0x20 DUP3 LT DUP2 SUB PUSH3 0x2A3 JUMPI PUSH3 0x2A2 PUSH3 0x245 JUMP JUMPDEST JUMPDEST POP SWAP2 SWAP1 POP JUMP JUMPDEST PUSH1 0x0 DUP2 SWAP1 POP DUP2 PUSH1 0x0 MSTORE PUSH1 0x20 PUSH1 0x0 KECCAK256 SWAP1 POP SWAP2 SWAP1 POP JUMP JUMPDEST PUSH1 0x0 PUSH1 0x20 PUSH1 0x1F DUP4 ADD DIV SWAP1 POP SWAP2 SWAP1 POP JUMP JUMPDEST PUSH1 0x0 DUP3 DUP3 SHL SWAP1 POP SWAP3 SWAP2 POP POP JUMP JUMPDEST PUSH1 0x0 PUSH1 0x8 DUP4 MUL PUSH3 0x30D PUSH32 0xFFFFFFFFFFFFFFFFFFFFFFFFFFFFFFFFFFFFFFFFFFFFFFFFFFFFFFFFFFFFFFFF DUP3 PUSH3 0x2CE JUMP JUMPDEST PUSH3 0x319 DUP7 DUP4 PUSH3 0x2CE JUMP JUMPDEST SWAP6 POP DUP1 NOT DUP5 AND SWAP4 POP DUP1 DUP7 AND DUP5 OR SWAP3 POP POP POP SWAP4 SWAP3 POP POP POP JUMP JUMPDEST PUSH1 0x0 DUP2 SWAP1 POP SWAP2 SWAP1 POP JUMP JUMPDEST PUSH1 0x0 DUP2 SWAP1 POP SWAP2 SWAP1 POP JUMP JUMPDEST PUSH1 0x0 PUSH3 0x366 PUSH3 0x360 PUSH3 0x35A DUP5 PUSH3 0x331 JUMP JUMPDEST PUSH3 0x33B JUMP JUMPDEST PUSH3 0x331 JUMP JUMPDEST SWAP1 POP SWAP2 SWAP1 POP JUMP JUMPDEST PUSH1 0x0 DUP2 SWAP1 POP SWAP2 SWAP1 POP JUMP JUMPDEST PUSH3 0x382 DUP4 PUSH3 0x345 JUMP JUMPDEST PUSH3 0x39A PUSH3 0x391 DUP3 PUSH3 0x36D JUMP JUMPDEST DUP5 DUP5 SLOAD PUSH3 0x2DB JUMP JUMPDEST DUP3 SSTORE POP POP POP POP JUMP JUMPDEST PUSH1 0x0 SWAP1 JUMP JUMPDEST PUSH3 0x3B1 PUSH3 0x3A2 JUMP JUMPDEST PUSH3 0x3BE DUP2 DUP5 DUP5 PUSH3 0x377 JUMP JUMPDEST POP POP POP JUMP JUMPDEST JUMPDEST DUP2 DUP2 LT ISZERO PUSH3 0x3E6 JUMPI PUSH3 0x3DA PUSH1 0x0 DUP3 PUSH3 0x3A7 JUMP JUMPDEST PUSH1 0x1 DUP2 ADD SWAP1 POP PUSH3 0x3C4 JUMP JUMPDEST POP POP JUMP JUMPDEST PUSH1 0x1F DUP3 GT ISZERO PUSH3 0x435 JUMPI PUSH3 0x3FF DUP2 PUSH3 0x2A9 JUMP JUMPDEST PUSH3 0x40A DUP5 PUSH3 0x2BE JUMP JUMPDEST DUP2 ADD PUSH1 0x20 DUP6 LT ISZERO PUSH3 0x41A JUMPI DUP2 SWAP1 POP JUMPDEST PUSH3 0x432 PUSH3 0x429 DUP6 PUSH3 0x2BE JUMP JUMPDEST DUP4 ADD DUP3 PUSH3 0x3C3 JUMP JUMPDEST POP POP JUMPDEST POP POP POP JUMP JUMPDEST PUSH1 0x0 DUP3 DUP3 SHR SWAP1 POP SWAP3 SWAP2 POP POP JUMP JUMPDEST PUSH1 0x0 PUSH3 0x45A PUSH1 0x0 NOT DUP5 PUSH1 0x8 MUL PUSH3 0x43A JUMP JUMPDEST NOT DUP1 DUP4 AND SWAP2 POP POP SWAP3 SWAP2 POP POP JUMP JUMPDEST PUSH1 0x0 PUSH3 0x475 DUP4 DUP4 PUSH3 0x447 JUMP JUMPDEST SWAP2 POP DUP3 PUSH1 0x2 MUL DUP3 OR SWAP1 POP SWAP3 SWAP2 POP POP JUMP JUMPDEST PUSH3 0x490 DUP3 PUSH3 0x20B JUMP JUMPDEST PUSH8 0xFFFFFFFFFFFFFFFF DUP2 GT ISZERO PUSH3 0x4AC JUMPI PUSH3 0x4AB PUSH3 0x216 JUMP JUMPDEST JUMPDEST PUSH3 0x4B8 DUP3 SLOAD PUSH3 0x274 JUMP JUMPDEST PUSH3 0x4C5 DUP3 DUP3 DUP6 PUSH3 0x3EA JUMP JUMPDEST PUSH1 0x0 PUSH1 0x20 SWAP1 POP PUSH1 0x1F DUP4 GT PUSH1 0x1 DUP2 EQ PUSH3 0x4FD JUMPI PUSH1 0x0 DUP5 ISZERO PUSH3 0x4E8 JUMPI DUP3 DUP8 ADD MLOAD SWAP1 POP JUMPDEST PUSH3 0x4F4 DUP6 DUP3 PUSH3 0x467 JUMP JUMPDEST DUP7 SSTORE POP PUSH3 0x564 JUMP JUMPDEST PUSH1 0x1F NOT DUP5 AND PUSH3 0x50D DUP7 PUSH3 0x2A9 JUMP JUMPDEST PUSH1 0x0 JUMPDEST DUP3 DUP2 LT ISZERO PUSH3 0x537 JUMPI DUP5 DUP10 ADD MLOAD DUP3 SSTORE PUSH1 0x1 DUP3 ADD SWAP2 POP PUSH1 0x20 DUP6 ADD SWAP5 POP PUSH1 0x20 DUP2 ADD SWAP1 POP PUSH3 0x510 JUMP JUMPDEST DUP7 DUP4 LT ISZERO PUSH3 0x557 JUMPI DUP5 DUP10 ADD MLOAD PUSH3 0x553 PUSH1 0x1F DUP10 AND DUP3 PUSH3 0x447 JUMP JUMPDEST DUP4 SSTORE POP JUMPDEST PUSH1 0x1 PUSH1 0x2 DUP9 MUL ADD DUP9 SSTORE POP POP POP JUMPDEST POP POP POP POP POP POP JUMP JUMPDEST PUSH2 0x9589 DUP1 PUSH3 0x57C PUSH1 0x0 CODECOPY PUSH1 0x0 RETURN INVALID PUSH1 0x80 PUSH1 0x40 MSTORE CALLVALUE DUP1 ISZERO PUSH3 0x11 JUMPI PUSH1 0x0 DUP1 REVERT JUMPDEST POP PUSH1 0x4 CALLDATASIZE LT PUSH3 0x208 JUMPI PUSH1 0x0 CALLDATALOAD PUSH1 0xE0 SHR DUP1 PUSH4 0x70A08231 GT PUSH3 0x11D JUMPI DUP1 PUSH4 0xA1448194 GT PUSH3 0xB1 JUMPI DUP1 PUSH4 0xDE739CF6 GT PUSH3 0x7B JUMPI DUP1 PUSH4 0xDE739CF6 EQ PUSH3 0x5A3 JUMPI DUP1 PUSH4 0xE985E9C5 EQ PUSH3 0x5AF JUMPI DUP1 PUSH4 0xF2FDE38B EQ PUSH3 0x5E5 JUMPI DUP1 PUSH4 0xF9F49952 EQ PUSH3 0x605 JUMPI PUSH3 0x208 JUMP JUMPDEST DUP1 PUSH4 0xA1448194 EQ PUSH3 0x50D JUMPI DUP1 PUSH4 0xA22CB465 EQ PUSH3 0x52D JUMPI DUP1 PUSH4 0xB88D4FDE EQ PUSH3 0x54D JUMPI DUP1 PUSH4 0xC87B56DD EQ PUSH3 0x56D JUMPI PUSH3 0x208 JUMP JUMPDEST DUP1 PUSH4 0x8456CB59 GT PUSH3 0xF3 JUMPI DUP1 PUSH4 0x8456CB59 EQ PUSH3 0x49D JUMPI DUP1 PUSH4 0x8DA5CB5B EQ PUSH3 0x4A9 JUMPI DUP1 PUSH4 0x95D89B41 EQ PUSH3 0x4CB JUMPI DUP1 PUSH4 0x98EAA4A7 EQ PUSH3 0x4ED JUMPI PUSH3 0x208 JUMP JUMPDEST DUP1 PUSH4 0x70A08231 EQ PUSH3 0x44F JUMPI DUP1 PUSH4 0x715018A6 EQ PUSH3 0x485 JUMPI DUP1 PUSH4 0x7FEA0D4B EQ PUSH3 0x491 JUMPI PUSH3 0x208 JUMP JUMPDEST DUP1 PUSH4 0x2F745C59 GT PUSH3 0x1A1 JUMPI DUP1 PUSH4 0x42966C68 GT PUSH3 0x16B JUMPI DUP1 PUSH4 0x42966C68 EQ PUSH3 0x3A1 JUMPI DUP1 PUSH4 0x4F6CCCE7 EQ PUSH3 0x3C1 JUMPI DUP1 PUSH4 0x5C975ABB EQ PUSH3 0x3F7 JUMPI DUP1 PUSH4 0x6352211E EQ PUSH3 0x419 JUMPI PUSH3 0x208 JUMP JUMPDEST DUP1 PUSH4 0x2F745C59 EQ PUSH3 0x31F JUMPI DUP1 PUSH4 0x3F4BA83A EQ PUSH3 0x355 JUMPI DUP1 PUSH4 0x40D097C3 EQ PUSH3 0x361 JUMPI DUP1 PUSH4 0x42842E0E EQ PUSH3 0x381 JUMPI PUSH3 0x208 JUMP JUMPDEST DUP1 PUSH4 0x95EA7B3 GT PUSH3 0x1E3 JUMPI DUP1 PUSH4 0x95EA7B3 EQ PUSH3 0x29B JUMPI DUP1 PUSH4 0x18160DDD EQ PUSH3 0x2BB JUMPI DUP1 PUSH4 0x222ACAD4 EQ PUSH3 0x2DD JUMPI DUP1 PUSH4 0x23B872DD EQ PUSH3 0x2FF JUMPI PUSH3 0x208 JUMP JUMPDEST DUP1 PUSH4 0x1FFC9A7 EQ PUSH3 0x20D JUMPI DUP1 PUSH4 0x6FDDE03 EQ PUSH3 0x243 JUMPI DUP1 PUSH4 0x81812FC EQ PUSH3 0x265 JUMPI JUMPDEST PUSH1 0x0 DUP1 REVERT JUMPDEST PUSH3 0x22B PUSH1 0x4 DUP1 CALLDATASIZE SUB DUP2 ADD SWAP1 PUSH3 0x225 SWAP2 SWAP1 PUSH3 0x35CB JUMP JUMPDEST PUSH3 0x625 JUMP JUMPDEST PUSH1 0x40 MLOAD PUSH3 0x23A SWAP2 SWAP1 PUSH3 0x361A JUMP JUMPDEST PUSH1 0x40 MLOAD DUP1 SWAP2 SUB SWAP1 RETURN JUMPDEST PUSH3 0x24D PUSH3 0x639 JUMP JUMPDEST PUSH1 0x40 MLOAD PUSH3 0x25C SWAP2 SWAP1 PUSH3 0x36D1 JUMP JUMPDEST PUSH1 0x40 MLOAD DUP1 SWAP2 SUB SWAP1 RETURN JUMPDEST PUSH3 0x283 PUSH1 0x4 DUP1 CALLDATASIZE SUB DUP2 ADD SWAP1 PUSH3 0x27D SWAP2 SWAP1 PUSH3 0x3730 JUMP JUMPDEST PUSH3 0x6D3 JUMP JUMPDEST PUSH1 0x40 MLOAD PUSH3 0x292 SWAP2 SWAP1 PUSH3 0x37A7 JUMP JUMPDEST PUSH1 0x40 MLOAD DUP1 SWAP2 SUB SWAP1 RETURN JUMPDEST PUSH3 0x2B9 PUSH1 0x4 DUP1 CALLDATASIZE SUB DUP2 ADD SWAP1 PUSH3 0x2B3 SWAP2 SWAP1 PUSH3 0x37F5 JUMP JUMPDEST PUSH3 0x71B JUMP JUMPDEST STOP JUMPDEST PUSH3 0x2C5 PUSH3 0x843 JUMP JUMPDEST PUSH1 0x40 MLOAD PUSH3 0x2D4 SWAP2 SWAP1 PUSH3 0x384D JUMP JUMPDEST PUSH1 0x40 MLOAD DUP1 SWAP2 SUB SWAP1 RETURN JUMPDEST PUSH3 0x2E7 PUSH3 0x850 JUMP JUMPDEST PUSH1 0x40 MLOAD PUSH3 0x2F6 SWAP2 SWAP1 PUSH3 0x38D5 JUMP JUMPDEST PUSH1 0x40 MLOAD DUP1 SWAP2 SUB SWAP1 RETURN JUMPDEST PUSH3 0x31D PUSH1 0x4 DUP1 CALLDATASIZE SUB DUP2 ADD SWAP1 PUSH3 0x317 SWAP2 SWAP1 PUSH3 0x38F2 JUMP JUMPDEST PUSH3 0x876 JUMP JUMPDEST STOP JUMPDEST PUSH3 0x33D PUSH1 0x4 DUP1 CALLDATASIZE SUB DUP2 ADD SWAP1 PUSH3 0x337 SWAP2 SWAP1 PUSH3 0x37F5 JUMP JUMPDEST PUSH3 0x8DF JUMP JUMPDEST PUSH1 0x40 MLOAD PUSH3 0x34C SWAP2 SWAP1 PUSH3 0x384D JUMP JUMPDEST PUSH1 0x40 MLOAD DUP1 SWAP2 SUB SWAP1 RETURN JUMPDEST PUSH3 0x35F PUSH3 0x989 JUMP JUMPDEST STOP JUMPDEST PUSH3 0x37F PUSH1 0x4 DUP1 CALLDATASIZE SUB DUP2 ADD SWAP1 PUSH3 0x379 SWAP2 SWAP1 PUSH3 0x394E JUMP JUMPDEST PUSH3 0x99F JUMP JUMPDEST STOP JUMPDEST PUSH3 0x39F PUSH1 0x4 DUP1 CALLDATASIZE SUB DUP2 ADD SWAP1 PUSH3 0x399 SWAP2 SWAP1 PUSH3 0x38F2 JUMP JUMPDEST PUSH3 0x9B7 JUMP JUMPDEST STOP JUMPDEST PUSH3 0x3BF PUSH1 0x4 DUP1 CALLDATASIZE SUB DUP2 ADD SWAP1 PUSH3 0x3B9 SWAP2 SWAP1 PUSH3 0x3730 JUMP JUMPDEST PUSH3 0x9D9 JUMP JUMPDEST STOP JUMPDEST PUSH3 0x3DF PUSH1 0x4 DUP1 CALLDATASIZE SUB DUP2 ADD SWAP1 PUSH3 0x3D9 SWAP2 SWAP1 PUSH3 0x3730 JUMP JUMPDEST PUSH3 0xA3E JUMP JUMPDEST PUSH1 0x40 MLOAD PUSH3 0x3EE SWAP2 SWAP1 PUSH3 0x384D JUMP JUMPDEST PUSH1 0x40 MLOAD DUP1 SWAP2 SUB SWAP1 RETURN JUMPDEST PUSH3 0x401 PUSH3 0xAB7 JUMP JUMPDEST PUSH1 0x40 MLOAD PUSH3 0x410 SWAP2 SWAP1 PUSH3 0x361A JUMP JUMPDEST PUSH1 0x40 MLOAD DUP1 SWAP2 SUB SWAP1 RETURN JUMPDEST PUSH3 0x437 PUSH1 0x4 DUP1 CALLDATASIZE SUB DUP2 ADD SWAP1 PUSH3 0x431 SWAP2 SWAP1 PUSH3 0x3730 JUMP JUMPDEST PUSH3 0xACE JUMP JUMPDEST PUSH1 0x40 MLOAD PUSH3 0x446 SWAP2 SWAP1 PUSH3 0x37A7 JUMP JUMPDEST PUSH1 0x40 MLOAD DUP1 SWAP2 SUB SWAP1 RETURN JUMPDEST PUSH3 0x46D PUSH1 0x4 DUP1 CALLDATASIZE SUB DUP2 ADD SWAP1 PUSH3 0x467 SWAP2 SWAP1 PUSH3 0x394E JUMP JUMPDEST PUSH3 0xB59 JUMP JUMPDEST PUSH1 0x40 MLOAD PUSH3 0x47C SWAP2 SWAP1 PUSH3 0x384D JUMP JUMPDEST PUSH1 0x40 MLOAD DUP1 SWAP2 SUB SWAP1 RETURN JUMPDEST PUSH3 0x48F PUSH3 0xC13 JUMP JUMPDEST STOP JUMPDEST PUSH3 0x49B PUSH3 0xC2B JUMP JUMPDEST STOP JUMPDEST PUSH3 0x4A7 PUSH3 0xD57 JUMP JUMPDEST STOP JUMPDEST PUSH3 0x4B3 PUSH3 0xD6D JUMP JUMPDEST PUSH1 0x40 MLOAD PUSH3 0x4C2 SWAP2 SWAP1 PUSH3 0x37A7 JUMP JUMPDEST PUSH1 0x40 MLOAD DUP1 SWAP2 SUB SWAP1 RETURN JUMPDEST PUSH3 0x4D5 PUSH3 0xD97 JUMP JUMPDEST PUSH1 0x40 MLOAD PUSH3 0x4E4 SWAP2 SWAP1 PUSH3 0x36D1 JUMP JUMPDEST PUSH1 0x40 MLOAD DUP1 SWAP2 SUB SWAP1 RETURN JUMPDEST PUSH3 0x50B PUSH1 0x4 DUP1 CALLDATASIZE SUB DUP2 ADD SWAP1 PUSH3 0x505 SWAP2 SWAP1 PUSH3 0x394E JUMP JUMPDEST PUSH3 0xE31 JUMP JUMPDEST STOP JUMPDEST PUSH3 0x52B PUSH1 0x4 DUP1 CALLDATASIZE SUB DUP2 ADD SWAP1 PUSH3 0x525 SWAP2 SWAP1 PUSH3 0x37F5 JUMP JUMPDEST PUSH3 0xE96 JUMP JUMPDEST STOP JUMPDEST PUSH3 0x54B PUSH1 0x4 DUP1 CALLDATASIZE SUB DUP2 ADD SWAP1 PUSH3 0x545 SWAP2 SWAP1 PUSH3 0x39B1 JUMP JUMPDEST PUSH3 0xEA6 JUMP JUMPDEST STOP JUMPDEST PUSH3 0x56B PUSH1 0x4 DUP1 CALLDATASIZE SUB DUP2 ADD SWAP1 PUSH3 0x565 SWAP2 SWAP1 PUSH3 0x3B49 JUMP JUMPDEST PUSH3 0xEC0 JUMP JUMPDEST STOP JUMPDEST PUSH3 0x58B PUSH1 0x4 DUP1 CALLDATASIZE SUB DUP2 ADD SWAP1 PUSH3 0x585 SWAP2 SWAP1 PUSH3 0x3730 JUMP JUMPDEST PUSH3 0xF2B JUMP JUMPDEST PUSH1 0x40 MLOAD PUSH3 0x59A SWAP2 SWAP1 PUSH3 0x36D1 JUMP JUMPDEST PUSH1 0x40 MLOAD DUP1 SWAP2 SUB SWAP1 RETURN JUMPDEST PUSH3 0x5AD PUSH3 0x1278 JUMP JUMPDEST STOP JUMPDEST PUSH3 0x5CD PUSH1 0x4 DUP1 CALLDATASIZE SUB DUP2 ADD SWAP1 PUSH3 0x5C7 SWAP2 SWAP1 PUSH3 0x3BDA JUMP JUMPDEST PUSH3 0x1A7A JUMP JUMPDEST PUSH1 0x40 MLOAD PUSH3 0x5DC SWAP2 SWAP1 PUSH3 0x361A JUMP JUMPDEST PUSH1 0x40 MLOAD DUP1 SWAP2 SUB SWAP1 RETURN JUMPDEST PUSH3 0x603 PUSH1 0x4 DUP1 CALLDATASIZE SUB DUP2 ADD SWAP1 PUSH3 0x5FD SWAP2 SWAP1 PUSH3 0x394E JUMP JUMPDEST PUSH3 0x1B0E JUMP JUMPDEST STOP JUMPDEST PUSH3 0x623 PUSH1 0x4 DUP1 CALLDATASIZE SUB DUP2 ADD SWAP1 PUSH3 0x61D SWAP2 SWAP1 PUSH3 0x37F5 JUMP JUMPDEST PUSH3 0x1B98 JUMP JUMPDEST STOP JUMPDEST PUSH1 0x0 PUSH3 0x632 DUP3 PUSH3 0x1BF4 JUMP JUMPDEST SWAP1 POP SWAP2 SWAP1 POP JUMP JUMPDEST PUSH1 0x60 PUSH1 0x0 DUP1 SLOAD PUSH3 0x64A SWAP1 PUSH3 0x3C50 JUMP JUMPDEST DUP1 PUSH1 0x1F ADD PUSH1 0x20 DUP1 SWAP2 DIV MUL PUSH1 0x20 ADD PUSH1 0x40 MLOAD SWAP1 DUP2 ADD PUSH1 0x40 MSTORE DUP1 SWAP3 SWAP2 SWAP1 DUP2 DUP2 MSTORE PUSH1 0x20 ADD DUP3 DUP1 SLOAD PUSH3 0x678 SWAP1 PUSH3 0x3C50 JUMP JUMPDEST DUP1 ISZERO PUSH3 0x6C9 JUMPI DUP1 PUSH1 0x1F LT PUSH3 0x69D JUMPI PUSH2 0x100 DUP1 DUP4 SLOAD DIV MUL DUP4 MSTORE SWAP2 PUSH1 0x20 ADD SWAP2 PUSH3 0x6C9 JUMP JUMPDEST DUP3 ADD SWAP2 SWAP1 PUSH1 0x0 MSTORE PUSH1 0x20 PUSH1 0x0 KECCAK256 SWAP1 JUMPDEST DUP2 SLOAD DUP2 MSTORE SWAP1 PUSH1 0x1 ADD SWAP1 PUSH1 0x20 ADD DUP1 DUP4 GT PUSH3 0x6AB JUMPI DUP3 SWAP1 SUB PUSH1 0x1F AND DUP3 ADD SWAP2 JUMPDEST POP POP POP POP POP SWAP1 POP SWAP1 JUMP JUMPDEST PUSH1 0x0 PUSH3 0x6E0 DUP3 PUSH3 0x1C71 JUMP JUMPDEST PUSH1 0x4 PUSH1 0x0 DUP4 DUP2 MSTORE PUSH1 0x20 ADD SWAP1 DUP2 MSTORE PUSH1 0x20 ADD PUSH1 0x0 KECCAK256 PUSH1 0x0 SWAP1 SLOAD SWAP1 PUSH2 0x100 EXP SWAP1 DIV PUSH20 0xFFFFFFFFFFFFFFFFFFFFFFFFFFFFFFFFFFFFFFFF AND SWAP1 POP SWAP2 SWAP1 POP JUMP JUMPDEST PUSH1 0x0 PUSH3 0x728 DUP3 PUSH3 0xACE JUMP JUMPDEST SWAP1 POP DUP1 PUSH20 0xFFFFFFFFFFFFFFFFFFFFFFFFFFFFFFFFFFFFFFFF AND DUP4 PUSH20 0xFFFFFFFFFFFFFFFFFFFFFFFFFFFFFFFFFFFFFFFF AND SUB PUSH3 0x79B JUMPI PUSH1 0x40 MLOAD PUSH32 0x8C379A000000000000000000000000000000000000000000000000000000000 DUP2 MSTORE PUSH1 0x4 ADD PUSH3 0x792 SWAP1 PUSH3 0x3CFB JUMP JUMPDEST PUSH1 0x40 MLOAD DUP1 SWAP2 SUB SWAP1 REVERT JUMPDEST DUP1 PUSH20 0xFFFFFFFFFFFFFFFFFFFFFFFFFFFFFFFFFFFFFFFF AND PUSH3 0x7BC PUSH3 0x1CC1 JUMP JUMPDEST PUSH20 0xFFFFFFFFFFFFFFFFFFFFFFFFFFFFFFFFFFFFFFFF AND EQ DUP1 PUSH3 0x7F0 JUMPI POP PUSH3 0x7EF DUP2 PUSH3 0x7E9 PUSH3 0x1CC1 JUMP JUMPDEST PUSH3 0x1A7A JUMP JUMPDEST JUMPDEST PUSH3 0x832 JUMPI PUSH1 0x40 MLOAD PUSH32 0x8C379A000000000000000000000000000000000000000000000000000000000 DUP2 MSTORE PUSH1 0x4 ADD PUSH3 0x829 SWAP1 PUSH3 0x3D93 JUMP JUMPDEST PUSH1 0x40 MLOAD DUP1 SWAP2 SUB SWAP1 REVERT JUMPDEST PUSH3 0x83E DUP4 DUP4 PUSH3 0x1CC9 JUMP JUMPDEST POP POP POP JUMP JUMPDEST PUSH1 0x0 PUSH1 0x8 DUP1 SLOAD SWAP1 POP SWAP1 POP SWAP1 JUMP JUMPDEST PUSH1 0xD PUSH1 0x0 SWAP1 SLOAD SWAP1 PUSH2 0x100 EXP SWAP1 DIV PUSH20 0xFFFFFFFFFFFFFFFFFFFFFFFFFFFFFFFFFFFFFFFF AND DUP2 JUMP JUMPDEST PUSH3 0x88B PUSH3 0x884 PUSH3 0x1CC1 JUMP JUMPDEST DUP3 PUSH3 0x1D84 JUMP JUMPDEST PUSH3 0x8CD JUMPI PUSH1 0x40 MLOAD PUSH32 0x8C379A000000000000000000000000000000000000000000000000000000000 DUP2 MSTORE PUSH1 0x4 ADD PUSH3 0x8C4 SWAP1 PUSH3 0x3E2B JUMP JUMPDEST PUSH1 0x40 MLOAD DUP1 SWAP2 SUB SWAP1 REVERT JUMPDEST PUSH3 0x8DA DUP4 DUP4 DUP4 PUSH3 0x1E21 JUMP JUMPDEST POP POP POP JUMP JUMPDEST PUSH1 0x0 PUSH3 0x8EC DUP4 PUSH3 0xB59 JUMP JUMPDEST DUP3 LT PUSH3 0x930 JUMPI PUSH1 0x40 MLOAD PUSH32 0x8C379A000000000000000000000000000000000000000000000000000000000 DUP2 MSTORE PUSH1 0x4 ADD PUSH3 0x927 SWAP1 PUSH3 0x3EC3 JUMP JUMPDEST PUSH1 0x40 MLOAD DUP1 SWAP2 SUB SWAP1 REVERT JUMPDEST PUSH1 0x6 PUSH1 0x0 DUP5 PUSH20 0xFFFFFFFFFFFFFFFFFFFFFFFFFFFFFFFFFFFFFFFF AND PUSH20 0xFFFFFFFFFFFFFFFFFFFFFFFFFFFFFFFFFFFFFFFF AND DUP2 MSTORE PUSH1 0x20 ADD SWAP1 DUP2 MSTORE PUSH1 0x20 ADD PUSH1 0x0 KECCAK256 PUSH1 0x0 DUP4 DUP2 MSTORE PUSH1 0x20 ADD SWAP1 DUP2 MSTORE PUSH1 0x20 ADD PUSH1 0x0 KECCAK256 SLOAD SWAP1 POP SWAP3 SWAP2 POP POP JUMP JUMPDEST PUSH3 0x993 PUSH3 0x212B JUMP JUMPDEST PUSH3 0x99D PUSH3 0x21B0 JUMP JUMPDEST JUMP JUMPDEST PUSH3 0x9B4 DUP2 PUSH3 0x9AE PUSH3 0x843 JUMP JUMPDEST PUSH3 0x2219 JUMP JUMPDEST POP JUMP JUMPDEST PUSH3 0x9D4 DUP4 DUP4 DUP4 PUSH1 0x40 MLOAD DUP1 PUSH1 0x20 ADD PUSH1 0x40 MSTORE DUP1 PUSH1 0x0 DUP2 MSTORE POP PUSH3 0xEC0 JUMP JUMPDEST POP POP POP JUMP JUMPDEST PUSH3 0x9EE PUSH3 0x9E7 PUSH3 0x1CC1 JUMP JUMPDEST DUP3 PUSH3 0x1D84 JUMP JUMPDEST PUSH3 0xA30 JUMPI PUSH1 0x40 MLOAD PUSH32 0x8C379A000000000000000000000000000000000000000000000000000000000 DUP2 MSTORE PUSH1 0x4 ADD PUSH3 0xA27 SWAP1 PUSH3 0x3E2B JUMP JUMPDEST PUSH1 0x40 MLOAD DUP1 SWAP2 SUB SWAP1 REVERT JUMPDEST PUSH3 0xA3B DUP2 PUSH3 0x2239 JUMP JUMPDEST POP JUMP JUMPDEST PUSH1 0x0 PUSH3 0xA4A PUSH3 0x843 JUMP JUMPDEST DUP3 LT PUSH3 0xA8E JUMPI PUSH1 0x40 MLOAD PUSH32 0x8C379A000000000000000000000000000000000000000000000000000000000 DUP2 MSTORE PUSH1 0x4 ADD PUSH3 0xA85 SWAP1 PUSH3 0x3F5B JUMP JUMPDEST PUSH1 0x40 MLOAD DUP1 SWAP2 SUB SWAP1 REVERT JUMPDEST PUSH1 0x8 DUP3 DUP2 SLOAD DUP2 LT PUSH3 0xAA5 JUMPI PUSH3 0xAA4 PUSH3 0x3F7D JUMP JUMPDEST JUMPDEST SWAP1 PUSH1 0x0 MSTORE PUSH1 0x20 PUSH1 0x0 KECCAK256 ADD SLOAD SWAP1 POP SWAP2 SWAP1 POP JUMP JUMPDEST PUSH1 0x0 PUSH1 0xB PUSH1 0x0 SWAP1 SLOAD SWAP1 PUSH2 0x100 EXP SWAP1 DIV PUSH1 0xFF AND SWAP1 POP SWAP1 JUMP JUMPDEST PUSH1 0x0 DUP1 PUSH3 0xADC DUP4 PUSH3 0x2247 JUMP JUMPDEST SWAP1 POP PUSH1 0x0 PUSH20 0xFFFFFFFFFFFFFFFFFFFFFFFFFFFFFFFFFFFFFFFF AND DUP2 PUSH20 0xFFFFFFFFFFFFFFFFFFFFFFFFFFFFFFFFFFFFFFFF AND SUB PUSH3 0xB50 JUMPI PUSH1 0x40 MLOAD PUSH32 0x8C379A000000000000000000000000000000000000000000000000000000000 DUP2 MSTORE PUSH1 0x4 ADD PUSH3 0xB47 SWAP1 PUSH3 0x3FFC JUMP JUMPDEST PUSH1 0x40 MLOAD DUP1 SWAP2 SUB SWAP1 REVERT JUMPDEST DUP1 SWAP2 POP POP SWAP2 SWAP1 POP JUMP JUMPDEST PUSH1 0x0 DUP1 PUSH20 0xFFFFFFFFFFFFFFFFFFFFFFFFFFFFFFFFFFFFFFFF AND DUP3 PUSH20 0xFFFFFFFFFFFFFFFFFFFFFFFFFFFFFFFFFFFFFFFF AND SUB PUSH3 0xBCC JUMPI PUSH1 0x40 MLOAD PUSH32 0x8C379A000000000000000000000000000000000000000000000000000000000 DUP2 MSTORE PUSH1 0x4 ADD PUSH3 0xBC3 SWAP1 PUSH3 0x4094 JUMP JUMPDEST PUSH1 0x40 MLOAD DUP1 SWAP2 SUB SWAP1 REVERT JUMPDEST PUSH1 0x3 PUSH1 0x0 DUP4 PUSH20 0xFFFFFFFFFFFFFFFFFFFFFFFFFFFFFFFFFFFFFFFF AND PUSH20 0xFFFFFFFFFFFFFFFFFFFFFFFFFFFFFFFFFFFFFFFF AND DUP2 MSTORE PUSH1 0x20 ADD SWAP1 DUP2 MSTORE PUSH1 0x20 ADD PUSH1 0x0 KECCAK256 SLOAD SWAP1 POP SWAP2 SWAP1 POP JUMP JUMPDEST PUSH3 0xC1D PUSH3 0x212B JUMP JUMPDEST PUSH3 0xC29 PUSH1 0x0 PUSH3 0x2284 JUMP JUMPDEST JUMP JUMPDEST PUSH1 0x40 MLOAD PUSH3 0xC39 SWAP1 PUSH3 0x34E7 JUMP JUMPDEST PUSH1 0x40 MLOAD DUP1 SWAP2 SUB SWAP1 PUSH1 0x0 CREATE DUP1 ISZERO DUP1 ISZERO PUSH3 0xC56 JUMPI RETURNDATASIZE PUSH1 0x0 DUP1 RETURNDATACOPY RETURNDATASIZE PUSH1 0x0 REVERT JUMPDEST POP PUSH1 0xD PUSH1 0x0 PUSH2 0x100 EXP DUP2 SLOAD DUP2 PUSH20 0xFFFFFFFFFFFFFFFFFFFFFFFFFFFFFFFFFFFFFFFF MUL NOT AND SWAP1 DUP4 PUSH20 0xFFFFFFFFFFFFFFFFFFFFFFFFFFFFFFFFFFFFFFFF AND MUL OR SWAP1 SSTORE POP PUSH20 0x0 PUSH4 0xCE88B145 PUSH1 0x0 PUSH1 0x40 MLOAD DUP3 PUSH4 0xFFFFFFFF AND PUSH1 0xE0 SHL DUP2 MSTORE PUSH1 0x4 ADD PUSH3 0xCD1 SWAP2 SWAP1 PUSH3 0x40F9 JUMP JUMPDEST PUSH1 0x20 PUSH1 0x40 MLOAD DUP1 DUP4 SUB DUP2 DUP7 GAS DELEGATECALL ISZERO DUP1 ISZERO PUSH3 0xCEF JUMPI RETURNDATASIZE PUSH1 0x0 DUP1 RETURNDATACOPY RETURNDATASIZE PUSH1 0x0 REVERT JUMPDEST POP POP POP POP PUSH1 0x40 MLOAD RETURNDATASIZE PUSH1 0x1F NOT PUSH1 0x1F DUP3 ADD AND DUP3 ADD DUP1 PUSH1 0x40 MSTORE POP DUP2 ADD SWAP1 PUSH3 0xD15 SWAP2 SWAP1 PUSH3 0x412D JUMP JUMPDEST PUSH1 0xE PUSH1 0x0 PUSH2 0x100 EXP DUP2 SLOAD DUP2 PUSH20 0xFFFFFFFFFFFFFFFFFFFFFFFFFFFFFFFFFFFFFFFF MUL NOT AND SWAP1 DUP4 PUSH20 0xFFFFFFFFFFFFFFFFFFFFFFFFFFFFFFFFFFFFFFFF AND MUL OR SWAP1 SSTORE POP JUMP JUMPDEST PUSH3 0xD61 PUSH3 0x212B JUMP JUMPDEST PUSH3 0xD6B PUSH3 0x234A JUMP JUMPDEST JUMP JUMPDEST PUSH1 0x0 PUSH1 0xB PUSH1 0x1 SWAP1 SLOAD SWAP1 PUSH2 0x100 EXP SWAP1 DIV PUSH20 0xFFFFFFFFFFFFFFFFFFFFFFFFFFFFFFFFFFFFFFFF AND SWAP1 POP SWAP1 JUMP JUMPDEST PUSH1 0x60 PUSH1 0x1 DUP1 SLOAD PUSH3 0xDA8 SWAP1 PUSH3 0x3C50 JUMP JUMPDEST DUP1 PUSH1 0x1F ADD PUSH1 0x20 DUP1 SWAP2 DIV MUL PUSH1 0x20 ADD PUSH1 0x40 MLOAD SWAP1 DUP2 ADD PUSH1 0x40 MSTORE DUP1 SWAP3 SWAP2 SWAP1 DUP2 DUP2 MSTORE PUSH1 0x20 ADD DUP3 DUP1 SLOAD PUSH3 0xDD6 SWAP1 PUSH3 0x3C50 JUMP JUMPDEST DUP1 ISZERO PUSH3 0xE27 JUMPI DUP1 PUSH1 0x1F LT PUSH3 0xDFB JUMPI PUSH2 0x100 DUP1 DUP4 SLOAD DIV MUL DUP4 MSTORE SWAP2 PUSH1 0x20 ADD SWAP2 PUSH3 0xE27 JUMP JUMPDEST DUP3 ADD SWAP2 SWAP1 PUSH1 0x0 MSTORE PUSH1 0x20 PUSH1 0x0 KECCAK256 SWAP1 JUMPDEST DUP2 SLOAD DUP2 MSTORE SWAP1 PUSH1 0x1 ADD SWAP1 PUSH1 0x20 ADD DUP1 DUP4 GT PUSH3 0xE09 JUMPI DUP3 SWAP1 SUB PUSH1 0x1F AND DUP3 ADD SWAP2 JUMPDEST POP POP POP POP POP SWAP1 POP SWAP1 JUMP JUMPDEST PUSH3 0xE3B PUSH3 0x212B JUMP JUMPDEST PUSH1 0x1 PUSH1 0xC PUSH1 0x0 DUP4 PUSH20 0xFFFFFFFFFFFFFFFFFFFFFFFFFFFFFFFFFFFFFFFF AND PUSH20 0xFFFFFFFFFFFFFFFFFFFFFFFFFFFFFFFFFFFFFFFF AND DUP2 MSTORE PUSH1 0x20 ADD SWAP1 DUP2 MSTORE PUSH1 0x20 ADD PUSH1 0x0 KECCAK256 PUSH1 0x0 PUSH2 0x100 EXP DUP2 SLOAD DUP2 PUSH1 0xFF MUL NOT AND SWAP1 DUP4 ISZERO ISZERO MUL OR SWAP1 SSTORE POP POP JUMP JUMPDEST PUSH3 0xEA2 DUP3 DUP3 PUSH3 0x2219 JUMP JUMPDEST POP POP JUMP JUMPDEST PUSH3 0xEBC PUSH3 0xEB4 PUSH3 0x1CC1 JUMP JUMPDEST DUP4 DUP4 PUSH3 0x23B3 JUMP JUMPDEST POP POP JUMP JUMPDEST PUSH3 0xED5 PUSH3 0xECE PUSH3 0x1CC1 JUMP JUMPDEST DUP4 PUSH3 0x1D84 JUMP JUMPDEST PUSH3 0xF17 JUMPI PUSH1 0x40 MLOAD PUSH32 0x8C379A000000000000000000000000000000000000000000000000000000000 DUP2 MSTORE PUSH1 0x4 ADD PUSH3 0xF0E SWAP1 PUSH3 0x3E2B JUMP JUMPDEST PUSH1 0x40 MLOAD DUP1 SWAP2 SUB SWAP1 REVERT JUMPDEST PUSH3 0xF25 DUP5 DUP5 DUP5 DUP5 PUSH3 0x2524 JUMP JUMPDEST POP POP POP POP JUMP JUMPDEST PUSH1 0x60 PUSH3 0xF38 DUP3 PUSH3 0x1C71 JUMP JUMPDEST PUSH1 0x0 PUSH3 0xF44 PUSH3 0x2587 JUMP JUMPDEST SWAP1 POP PUSH1 0x60 PUSH1 0x0 PUSH20 0x0 PUSH4 0xED944CB6 DUP7 PUSH1 0x40 MLOAD DUP3 PUSH4 0xFFFFFFFF AND PUSH1 0xE0 SHL DUP2 MSTORE PUSH1 0x4 ADD PUSH3 0xF83 SWAP2 SWAP1 PUSH3 0x4170 JUMP JUMPDEST PUSH1 0x20 PUSH1 0x40 MLOAD DUP1 DUP4 SUB DUP2 DUP7 GAS DELEGATECALL ISZERO DUP1 ISZERO PUSH3 0xFA1 JUMPI RETURNDATASIZE PUSH1 0x0 DUP1 RETURNDATACOPY RETURNDATASIZE PUSH1 0x0 REVERT JUMPDEST POP POP POP POP PUSH1 0x40 MLOAD RETURNDATASIZE PUSH1 0x1F NOT PUSH1 0x1F DUP3 ADD AND DUP3 ADD DUP1 PUSH1 0x40 MSTORE POP DUP2 ADD SWAP1 PUSH3 0xFC7 SWAP2 SWAP1 PUSH3 0x41B5 JUMP JUMPDEST SWAP1 POP PUSH1 0x0 PUSH1 0x4 DUP2 GT ISZERO PUSH3 0xFE0 JUMPI PUSH3 0xFDF PUSH3 0x41E7 JUMP JUMPDEST JUMPDEST DUP2 PUSH1 0x4 DUP2 GT ISZERO PUSH3 0xFF6 JUMPI PUSH3 0xFF5 PUSH3 0x41E7 JUMP JUMPDEST JUMPDEST SUB PUSH3 0x103A JUMPI PUSH1 0x40 MLOAD DUP1 PUSH1 0x40 ADD PUSH1 0x40 MSTORE DUP1 PUSH1 0xE DUP2 MSTORE PUSH1 0x20 ADD PUSH32 0x2F6865726F2F6D65746164617461000000000000000000000000000000000000 DUP2 MSTORE POP SWAP2 POP PUSH3 0x123E JUMP JUMPDEST PUSH1 0x1 PUSH1 0x4 DUP2 GT ISZERO PUSH3 0x1051 JUMPI PUSH3 0x1050 PUSH3 0x41E7 JUMP JUMPDEST JUMPDEST DUP2 PUSH1 0x4 DUP2 GT ISZERO PUSH3 0x1067 JUMPI PUSH3 0x1066 PUSH3 0x41E7 JUMP JUMPDEST JUMPDEST SUB PUSH3 0x10AB JUMPI PUSH1 0x40 MLOAD DUP1 PUSH1 0x40 ADD PUSH1 0x40 MSTORE DUP1 PUSH1 0x10 DUP2 MSTORE PUSH1 0x20 ADD PUSH32 0x2F6C6567656E642F6D6574616461746100000000000000000000000000000000 DUP2 MSTORE POP SWAP2 POP PUSH3 0x123D JUMP JUMPDEST PUSH1 0x2 PUSH1 0x4 DUP2 GT ISZERO PUSH3 0x10C2 JUMPI PUSH3 0x10C1 PUSH3 0x41E7 JUMP JUMPDEST JUMPDEST DUP2 PUSH1 0x4 DUP2 GT ISZERO PUSH3 0x10D8 JUMPI PUSH3 0x10D7 PUSH3 0x41E7 JUMP JUMPDEST JUMPDEST SUB PUSH3 0x111C JUMPI PUSH1 0x40 MLOAD DUP1 PUSH1 0x40 ADD PUSH1 0x40 MSTORE DUP1 PUSH1 0xE DUP2 MSTORE PUSH1 0x20 ADD PUSH32 0x2F726172652F6D65746164617461000000000000000000000000000000000000 DUP2 MSTORE POP SWAP2 POP PUSH3 0x123C JUMP JUMPDEST PUSH1 0x3 PUSH1 0x4 DUP2 GT ISZERO PUSH3 0x1133 JUMPI PUSH3 0x1132 PUSH3 0x41E7 JUMP JUMPDEST JUMPDEST DUP2 PUSH1 0x4 DUP2 GT ISZERO PUSH3 0x1149 JUMPI PUSH3 0x1148 PUSH3 0x41E7 JUMP JUMPDEST JUMPDEST SUB PUSH3 0x118D JUMPI PUSH1 0x40 MLOAD DUP1 PUSH1 0x40 ADD PUSH1 0x40 MSTORE DUP1 PUSH1 0x12 DUP2 MSTORE PUSH1 0x20 ADD PUSH32 0x2F756E636F6D6D6F6E2F6D657461646174610000000000000000000000000000 DUP2 MSTORE POP SWAP2 POP PUSH3 0x123B JUMP JUMPDEST PUSH1 0x4 DUP1 DUP2 GT ISZERO PUSH3 0x11A3 JUMPI PUSH3 0x11A2 PUSH3 0x41E7 JUMP JUMPDEST JUMPDEST DUP2 PUSH1 0x4 DUP2 GT ISZERO PUSH3 0x11B9 JUMPI PUSH3 0x11B8 PUSH3 0x41E7 JUMP JUMPDEST JUMPDEST SUB PUSH3 0x11FD JUMPI PUSH1 0x40 MLOAD DUP1 PUSH1 0x40 ADD PUSH1 0x40 MSTORE DUP1 PUSH1 0x10 DUP2 MSTORE PUSH1 0x20 ADD PUSH32 0x2F636F6D6D6F6E2F6D6574616461746100000000000000000000000000000000 DUP2 MSTORE POP SWAP2 POP PUSH3 0x123A JUMP JUMPDEST PUSH1 0x40 MLOAD PUSH32 0x8C379A000000000000000000000000000000000000000000000000000000000 DUP2 MSTORE PUSH1 0x4 ADD PUSH3 0x1231 SWAP1 PUSH3 0x4266 JUMP JUMPDEST PUSH1 0x40 MLOAD DUP1 SWAP2 SUB SWAP1 REVERT JUMPDEST JUMPDEST JUMPDEST JUMPDEST JUMPDEST DUP3 DUP3 PUSH3 0x124B DUP8 PUSH3 0x25C4 JUMP JUMPDEST PUSH1 0x40 MLOAD PUSH1 0x20 ADD PUSH3 0x125F SWAP4 SWAP3 SWAP2 SWAP1 PUSH3 0x436A JUMP JUMPDEST PUSH1 0x40 MLOAD PUSH1 0x20 DUP2 DUP4 SUB SUB DUP2 MSTORE SWAP1 PUSH1 0x40 MSTORE SWAP4 POP POP POP POP SWAP2 SWAP1 POP JUMP JUMPDEST PUSH1 0xD PUSH1 0x0 SWAP1 SLOAD SWAP1 PUSH2 0x100 EXP SWAP1 DIV PUSH20 0xFFFFFFFFFFFFFFFFFFFFFFFFFFFFFFFFFFFFFFFF AND PUSH20 0xFFFFFFFFFFFFFFFFFFFFFFFFFFFFFFFFFFFFFFFF AND PUSH4 0x40D097C3 PUSH1 0xE PUSH1 0x0 SWAP1 SLOAD SWAP1 PUSH2 0x100 EXP SWAP1 DIV PUSH20 0xFFFFFFFFFFFFFFFFFFFFFFFFFFFFFFFFFFFFFFFF AND PUSH1 0x40 MLOAD DUP3 PUSH4 0xFFFFFFFF AND PUSH1 0xE0 SHL DUP2 MSTORE PUSH1 0x4 ADD PUSH3 0x12F7 SWAP2 SWAP1 PUSH3 0x37A7 JUMP JUMPDEST PUSH1 0x0 PUSH1 0x40 MLOAD DUP1 DUP4 SUB DUP2 PUSH1 0x0 DUP8 DUP1 EXTCODESIZE ISZERO DUP1 ISZERO PUSH3 0x1312 JUMPI PUSH1 0x0 DUP1 REVERT JUMPDEST POP GAS CALL ISZERO DUP1 ISZERO PUSH3 0x1327 JUMPI RETURNDATASIZE PUSH1 0x0 DUP1 RETURNDATACOPY RETURNDATASIZE PUSH1 0x0 REVERT JUMPDEST POP POP POP POP PUSH20 0x0 PUSH4 0xABCD7960 PUSH1 0xD PUSH1 0x0 SWAP1 SLOAD SWAP1 PUSH2 0x100 EXP SWAP1 DIV PUSH20 0xFFFFFFFFFFFFFFFFFFFFFFFFFFFFFFFFFFFFFFFF AND PUSH20 0xFFFFFFFFFFFFFFFFFFFFFFFFFFFFFFFFFFFFFFFF AND PUSH4 0x18160DDD PUSH1 0x40 MLOAD DUP2 PUSH4 0xFFFFFFFF AND PUSH1 0xE0 SHL DUP2 MSTORE PUSH1 0x4 ADD PUSH1 0x20 PUSH1 0x40 MLOAD DUP1 DUP4 SUB DUP2 DUP7 GAS STATICCALL ISZERO DUP1 ISZERO PUSH3 0x13B3 JUMPI RETURNDATASIZE PUSH1 0x0 DUP1 RETURNDATACOPY RETURNDATASIZE PUSH1 0x0 REVERT JUMPDEST POP POP POP POP PUSH1 0x40 MLOAD RETURNDATASIZE PUSH1 0x1F NOT PUSH1 0x1F DUP3 ADD AND DUP3 ADD DUP1 PUSH1 0x40 MSTORE POP DUP2 ADD SWAP1 PUSH3 0x13D9 SWAP2 SWAP1 PUSH3 0x43D2 JUMP JUMPDEST PUSH1 0x1 PUSH1 0x40 MLOAD DUP4 PUSH4 0xFFFFFFFF AND PUSH1 0xE0 SHL DUP2 MSTORE PUSH1 0x4 ADD PUSH3 0x13FA SWAP3 SWAP2 SWAP1 PUSH3 0x44A8 JUMP JUMPDEST PUSH1 0x20 PUSH1 0x40 MLOAD DUP1 DUP4 SUB DUP2 DUP7 GAS DELEGATECALL ISZERO DUP1 ISZERO PUSH3 0x1418 JUMPI RETURNDATASIZE PUSH1 0x0 DUP1 RETURNDATACOPY RETURNDATASIZE PUSH1 0x0 REVERT JUMPDEST POP POP POP POP PUSH1 0x40 MLOAD RETURNDATASIZE PUSH1 0x1F NOT PUSH1 0x1F DUP3 ADD AND DUP3 ADD DUP1 PUSH1 0x40 MSTORE POP DUP2 ADD SWAP1 PUSH3 0x143E SWAP2 SWAP1 PUSH3 0x4501 JUMP JUMPDEST POP PUSH1 0xD PUSH1 0x0 SWAP1 SLOAD SWAP1 PUSH2 0x100 EXP SWAP1 DIV PUSH20 0xFFFFFFFFFFFFFFFFFFFFFFFFFFFFFFFFFFFFFFFF AND PUSH20 0xFFFFFFFFFFFFFFFFFFFFFFFFFFFFFFFFFFFFFFFF AND PUSH4 0xF9F49952 PUSH1 0xE PUSH1 0x0 SWAP1 SLOAD SWAP1 PUSH2 0x100 EXP SWAP1 DIV PUSH20 0xFFFFFFFFFFFFFFFFFFFFFFFFFFFFFFFFFFFFFFFF AND PUSH1 0x5 PUSH1 0x40 MLOAD DUP4 PUSH4 0xFFFFFFFF AND PUSH1 0xE0 SHL DUP2 MSTORE PUSH1 0x4 ADD PUSH3 0x14C1 SWAP3 SWAP2 SWAP1 PUSH3 0x4576 JUMP JUMPDEST PUSH1 0x0 PUSH1 0x40 MLOAD DUP1 DUP4 SUB DUP2 PUSH1 0x0 DUP8 DUP1 EXTCODESIZE ISZERO DUP1 ISZERO PUSH3 0x14DC JUMPI PUSH1 0x0 DUP1 REVERT JUMPDEST POP GAS CALL ISZERO DUP1 ISZERO PUSH3 0x14F1 JUMPI RETURNDATASIZE PUSH1 0x0 DUP1 RETURNDATACOPY RETURNDATASIZE PUSH1 0x0 REVERT JUMPDEST POP POP POP POP PUSH20 0x0 PUSH4 0xABCD7960 PUSH1 0xD PUSH1 0x0 SWAP1 SLOAD SWAP1 PUSH2 0x100 EXP SWAP1 DIV PUSH20 0xFFFFFFFFFFFFFFFFFFFFFFFFFFFFFFFFFFFFFFFF AND PUSH20 0xFFFFFFFFFFFFFFFFFFFFFFFFFFFFFFFFFFFFFFFF AND PUSH4 0x18160DDD PUSH1 0x40 MLOAD DUP2 PUSH4 0xFFFFFFFF AND PUSH1 0xE0 SHL DUP2 MSTORE PUSH1 0x4 ADD PUSH1 0x20 PUSH1 0x40 MLOAD DUP1 DUP4 SUB DUP2 DUP7 GAS STATICCALL ISZERO DUP1 ISZERO PUSH3 0x157D JUMPI RETURNDATASIZE PUSH1 0x0 DUP1 RETURNDATACOPY RETURNDATASIZE PUSH1 0x0 REVERT JUMPDEST POP POP POP POP PUSH1 0x40 MLOAD RETURNDATASIZE PUSH1 0x1F NOT PUSH1 0x1F DUP3 ADD AND DUP3 ADD DUP1 PUSH1 0x40 MSTORE POP DUP2 ADD SWAP1 PUSH3 0x15A3 SWAP2 SWAP1 PUSH3 0x43D2 JUMP JUMPDEST PUSH1 0x6 PUSH1 0x40 MLOAD DUP4 PUSH4 0xFFFFFFFF AND PUSH1 0xE0 SHL DUP2 MSTORE PUSH1 0x4 ADD PUSH3 0x15C4 SWAP3 SWAP2 SWAP1 PUSH3 0x4636 JUMP JUMPDEST PUSH1 0x20 PUSH1 0x40 MLOAD DUP1 DUP4 SUB DUP2 DUP7 GAS DELEGATECALL ISZERO DUP1 ISZERO PUSH3 0x15E2 JUMPI RETURNDATASIZE PUSH1 0x0 DUP1 RETURNDATACOPY RETURNDATASIZE PUSH1 0x0 REVERT JUMPDEST POP POP POP POP PUSH1 0x40 MLOAD RETURNDATASIZE PUSH1 0x1F NOT PUSH1 0x1F DUP3 ADD AND DUP3 ADD DUP1 PUSH1 0x40 MSTORE POP DUP2 ADD SWAP1 PUSH3 0x1608 SWAP2 SWAP1 PUSH3 0x4501 JUMP JUMPDEST POP PUSH1 0xD PUSH1 0x0 SWAP1 SLOAD SWAP1 PUSH2 0x100 EXP SWAP1 DIV PUSH20 0xFFFFFFFFFFFFFFFFFFFFFFFFFFFFFFFFFFFFFFFF AND PUSH20 0xFFFFFFFFFFFFFFFFFFFFFFFFFFFFFFFFFFFFFFFF AND PUSH4 0xA1448194 PUSH1 0xE PUSH1 0x0 SWAP1 SLOAD SWAP1 PUSH2 0x100 EXP SWAP1 DIV PUSH20 0xFFFFFFFFFFFFFFFFFFFFFFFFFFFFFFFFFFFFFFFF AND PUSH1 0x3 PUSH1 0x40 MLOAD DUP4 PUSH4 0xFFFFFFFF AND PUSH1 0xE0 SHL DUP2 MSTORE PUSH1 0x4 ADD PUSH3 0x168B SWAP3 SWAP2 SWAP1 PUSH3 0x46BB JUMP JUMPDEST PUSH1 0x0 PUSH1 0x40 MLOAD DUP1 DUP4 SUB DUP2 PUSH1 0x0 DUP8 DUP1 EXTCODESIZE ISZERO DUP1 ISZERO PUSH3 0x16A6 JUMPI PUSH1 0x0 DUP1 REVERT JUMPDEST POP GAS CALL SWAP3 POP POP POP DUP1 ISZERO PUSH3 0x16B8 JUMPI POP PUSH1 0x1 JUMPDEST PUSH3 0x182E JUMPI PUSH3 0x16C7 PUSH3 0x46F5 JUMP JUMPDEST DUP1 PUSH4 0x8C379A0 SUB PUSH3 0x1771 JUMPI POP PUSH3 0x16DE PUSH3 0x471A JUMP JUMPDEST DUP1 PUSH3 0x16EB JUMPI POP PUSH3 0x1773 JUMP JUMPDEST PUSH20 0x0 PUSH4 0x39DF137F PUSH1 0x1 PUSH1 0x40 MLOAD DUP3 PUSH4 0xFFFFFFFF AND PUSH1 0xE0 SHL DUP2 MSTORE PUSH1 0x4 ADD PUSH3 0x1725 SWAP2 SWAP1 PUSH3 0x4816 JUMP JUMPDEST PUSH1 0x20 PUSH1 0x40 MLOAD DUP1 DUP4 SUB DUP2 DUP7 GAS DELEGATECALL ISZERO DUP1 ISZERO PUSH3 0x1743 JUMPI RETURNDATASIZE PUSH1 0x0 DUP1 RETURNDATACOPY RETURNDATASIZE PUSH1 0x0 REVERT JUMPDEST POP POP POP POP PUSH1 0x40 MLOAD RETURNDATASIZE PUSH1 0x1F NOT PUSH1 0x1F DUP3 ADD AND DUP3 ADD DUP1 PUSH1 0x40 MSTORE POP DUP2 ADD SWAP1 PUSH3 0x1769 SWAP2 SWAP1 PUSH3 0x4501 JUMP JUMPDEST POP POP PUSH3 0x1828 JUMP JUMPDEST POP JUMPDEST RETURNDATASIZE DUP1 PUSH1 0x0 DUP2 EQ PUSH3 0x17A1 JUMPI PUSH1 0x40 MLOAD SWAP2 POP PUSH1 0x1F NOT PUSH1 0x3F RETURNDATASIZE ADD AND DUP3 ADD PUSH1 0x40 MSTORE RETURNDATASIZE DUP3 MSTORE RETURNDATASIZE PUSH1 0x0 PUSH1 0x20 DUP5 ADD RETURNDATACOPY PUSH3 0x17A6 JUMP JUMPDEST PUSH1 0x60 SWAP2 POP JUMPDEST POP PUSH20 0x0 PUSH4 0x39DF137F PUSH1 0x0 PUSH1 0x40 MLOAD DUP3 PUSH4 0xFFFFFFFF AND PUSH1 0xE0 SHL DUP2 MSTORE PUSH1 0x4 ADD PUSH3 0x17E1 SWAP2 SWAP1 PUSH3 0x4898 JUMP JUMPDEST PUSH1 0x20 PUSH1 0x40 MLOAD DUP1 DUP4 SUB DUP2 DUP7 GAS DELEGATECALL ISZERO DUP1 ISZERO PUSH3 0x17FF JUMPI RETURNDATASIZE PUSH1 0x0 DUP1 RETURNDATACOPY RETURNDATASIZE PUSH1 0x0 REVERT JUMPDEST POP POP POP POP PUSH1 0x40 MLOAD RETURNDATASIZE PUSH1 0x1F NOT PUSH1 0x1F DUP3 ADD AND DUP3 ADD DUP1 PUSH1 0x40 MSTORE POP DUP2 ADD SWAP1 PUSH3 0x1825 SWAP2 SWAP1 PUSH3 0x4501 JUMP JUMPDEST POP POP JUMPDEST PUSH3 0x18AE JUMP JUMPDEST PUSH20 0x0 PUSH4 0x39DF137F PUSH1 0x0 PUSH1 0x40 MLOAD DUP3 PUSH4 0xFFFFFFFF AND PUSH1 0xE0 SHL DUP2 MSTORE PUSH1 0x4 ADD PUSH3 0x1868 SWAP2 SWAP1 PUSH3 0x491A JUMP JUMPDEST PUSH1 0x20 PUSH1 0x40 MLOAD DUP1 DUP4 SUB DUP2 DUP7 GAS DELEGATECALL ISZERO DUP1 ISZERO PUSH3 0x1886 JUMPI RETURNDATASIZE PUSH1 0x0 DUP1 RETURNDATACOPY RETURNDATASIZE PUSH1 0x0 REVERT JUMPDEST POP POP POP POP PUSH1 0x40 MLOAD RETURNDATASIZE PUSH1 0x1F NOT PUSH1 0x1F DUP3 ADD AND DUP3 ADD DUP1 PUSH1 0x40 MSTORE POP DUP2 ADD SWAP1 PUSH3 0x18AC SWAP2 SWAP1 PUSH3 0x4501 JUMP JUMPDEST POP JUMPDEST PUSH1 0xD PUSH1 0x0 SWAP1 SLOAD SWAP1 PUSH2 0x100 EXP SWAP1 DIV PUSH20 0xFFFFFFFFFFFFFFFFFFFFFFFFFFFFFFFFFFFFFFFF AND PUSH20 0xFFFFFFFFFFFFFFFFFFFFFFFFFFFFFFFFFFFFFFFF AND PUSH4 0xA1448194 PUSH1 0xE PUSH1 0x0 SWAP1 SLOAD SWAP1 PUSH2 0x100 EXP SWAP1 DIV PUSH20 0xFFFFFFFFFFFFFFFFFFFFFFFFFFFFFFFFFFFFFFFF AND PUSH1 0x8 PUSH1 0x40 MLOAD DUP4 PUSH4 0xFFFFFFFF AND PUSH1 0xE0 SHL DUP2 MSTORE PUSH1 0x4 ADD PUSH3 0x1930 SWAP3 SWAP2 SWAP1 PUSH3 0x498F JUMP JUMPDEST PUSH1 0x0 PUSH1 0x40 MLOAD DUP1 DUP4 SUB DUP2 PUSH1 0x0 DUP8 DUP1 EXTCODESIZE ISZERO DUP1 ISZERO PUSH3 0x194B JUMPI PUSH1 0x0 DUP1 REVERT JUMPDEST POP GAS CALL ISZERO DUP1 ISZERO PUSH3 0x1960 JUMPI RETURNDATASIZE PUSH1 0x0 DUP1 RETURNDATACOPY RETURNDATASIZE PUSH1 0x0 REVERT JUMPDEST POP POP POP POP PUSH20 0x0 PUSH4 0xABCD7960 PUSH1 0xD PUSH1 0x0 SWAP1 SLOAD SWAP1 PUSH2 0x100 EXP SWAP1 DIV PUSH20 0xFFFFFFFFFFFFFFFFFFFFFFFFFFFFFFFFFFFFFFFF AND PUSH20 0xFFFFFFFFFFFFFFFFFFFFFFFFFFFFFFFFFFFFFFFF AND PUSH4 0x18160DDD PUSH1 0x40 MLOAD DUP2 PUSH4 0xFFFFFFFF AND PUSH1 0xE0 SHL DUP2 MSTORE PUSH1 0x4 ADD PUSH1 0x20 PUSH1 0x40 MLOAD DUP1 DUP4 SUB DUP2 DUP7 GAS STATICCALL ISZERO DUP1 ISZERO PUSH3 0x19EC JUMPI RETURNDATASIZE PUSH1 0x0 DUP1 RETURNDATACOPY RETURNDATASIZE PUSH1 0x0 REVERT JUMPDEST POP POP POP POP PUSH1 0x40 MLOAD RETURNDATASIZE PUSH1 0x1F NOT PUSH1 0x1F DUP3 ADD AND DUP3 ADD DUP1 PUSH1 0x40 MSTORE POP DUP2 ADD SWAP1 PUSH3 0x1A12 SWAP2 SWAP1 PUSH3 0x43D2 JUMP JUMPDEST PUSH1 0x7 PUSH1 0x40 MLOAD DUP4 PUSH4 0xFFFFFFFF AND PUSH1 0xE0 SHL DUP2 MSTORE PUSH1 0x4 ADD PUSH3 0x1A33 SWAP3 SWAP2 SWAP1 PUSH3 0x4A4F JUMP JUMPDEST PUSH1 0x20 PUSH1 0x40 MLOAD DUP1 DUP4 SUB DUP2 DUP7 GAS DELEGATECALL ISZERO DUP1 ISZERO PUSH3 0x1A51 JUMPI RETURNDATASIZE PUSH1 0x0 DUP1 RETURNDATACOPY RETURNDATASIZE PUSH1 0x0 REVERT JUMPDEST POP POP POP POP PUSH1 0x40 MLOAD RETURNDATASIZE PUSH1 0x1F NOT PUSH1 0x1F DUP3 ADD AND DUP3 ADD DUP1 PUSH1 0x40 MSTORE POP DUP2 ADD SWAP1 PUSH3 0x1A77 SWAP2 SWAP1 PUSH3 0x4501 JUMP JUMPDEST POP JUMP JUMPDEST PUSH1 0x0 PUSH1 0x5 PUSH1 0x0 DUP5 PUSH20 0xFFFFFFFFFFFFFFFFFFFFFFFFFFFFFFFFFFFFFFFF AND PUSH20 0xFFFFFFFFFFFFFFFFFFFFFFFFFFFFFFFFFFFFFFFF AND DUP2 MSTORE PUSH1 0x20 ADD SWAP1 DUP2 MSTORE PUSH1 0x20 ADD PUSH1 0x0 KECCAK256 PUSH1 0x0 DUP4 PUSH20 0xFFFFFFFFFFFFFFFFFFFFFFFFFFFFFFFFFFFFFFFF AND PUSH20 0xFFFFFFFFFFFFFFFFFFFFFFFFFFFFFFFFFFFFFFFF AND DUP2 MSTORE PUSH1 0x20 ADD SWAP1 DUP2 MSTORE PUSH1 0x20 ADD PUSH1 0x0 KECCAK256 PUSH1 0x0 SWAP1 SLOAD SWAP1 PUSH2 0x100 EXP SWAP1 DIV PUSH1 0xFF AND SWAP1 POP SWAP3 SWAP2 POP POP JUMP JUMPDEST PUSH3 0x1B18 PUSH3 0x212B JUMP JUMPDEST PUSH1 0x0 PUSH20 0xFFFFFFFFFFFFFFFFFFFFFFFFFFFFFFFFFFFFFFFF AND DUP2 PUSH20 0xFFFFFFFFFFFFFFFFFFFFFFFFFFFFFFFFFFFFFFFF AND SUB PUSH3 0x1B8A JUMPI PUSH1 0x40 MLOAD PUSH32 0x8C379A000000000000000000000000000000000000000000000000000000000 DUP2 MSTORE PUSH1 0x4 ADD PUSH3 0x1B81 SWAP1 PUSH3 0x4B07 JUMP JUMPDEST PUSH1 0x40 MLOAD DUP1 SWAP2 SUB SWAP1 REVERT JUMPDEST PUSH3 0x1B95 DUP2 PUSH3 0x2284 JUMP JUMPDEST POP JUMP JUMPDEST PUSH1 0x0 PUSH3 0x1BA4 PUSH3 0x843 JUMP JUMPDEST SWAP1 POP PUSH1 0x0 JUMPDEST PUSH1 0x1 DUP4 PUSH3 0x1BB8 SWAP2 SWAP1 PUSH3 0x4B58 JUMP JUMPDEST DUP2 GT PUSH3 0x1BEE JUMPI PUSH3 0x1BD8 DUP5 DUP3 DUP5 PUSH3 0x1BD2 SWAP2 SWAP1 PUSH3 0x4B93 JUMP JUMPDEST PUSH3 0x2219 JUMP JUMPDEST DUP1 DUP1 PUSH3 0x1BE5 SWAP1 PUSH3 0x4BCE JUMP JUMPDEST SWAP2 POP POP PUSH3 0x1BA9 JUMP JUMPDEST POP POP POP POP JUMP JUMPDEST PUSH1 0x0 PUSH32 0x780E9D6300000000000000000000000000000000000000000000000000000000 PUSH28 0xFFFFFFFFFFFFFFFFFFFFFFFFFFFFFFFFFFFFFFFFFFFFFFFFFFFFFFFF NOT AND DUP3 PUSH28 0xFFFFFFFFFFFFFFFFFFFFFFFFFFFFFFFFFFFFFFFFFFFFFFFFFFFFFFFF NOT AND EQ DUP1 PUSH3 0x1C6A JUMPI POP PUSH3 0x1C69 DUP3 PUSH3 0x269D JUMP JUMPDEST JUMPDEST SWAP1 POP SWAP2 SWAP1 POP JUMP JUMPDEST PUSH3 0x1C7C DUP2 PUSH3 0x2783 JUMP JUMPDEST PUSH3 0x1CBE JUMPI PUSH1 0x40 MLOAD PUSH32 0x8C379A000000000000000000000000000000000000000000000000000000000 DUP2 MSTORE PUSH1 0x4 ADD PUSH3 0x1CB5 SWAP1 PUSH3 0x3FFC JUMP JUMPDEST PUSH1 0x40 MLOAD DUP1 SWAP2 SUB SWAP1 REVERT JUMPDEST POP JUMP JUMPDEST PUSH1 0x0 CALLER SWAP1 POP SWAP1 JUMP JUMPDEST DUP2 PUSH1 0x4 PUSH1 0x0 DUP4 DUP2 MSTORE PUSH1 0x20 ADD SWAP1 DUP2 MSTORE PUSH1 0x20 ADD PUSH1 0x0 KECCAK256 PUSH1 0x0 PUSH2 0x100 EXP DUP2 SLOAD DUP2 PUSH20 0xFFFFFFFFFFFFFFFFFFFFFFFFFFFFFFFFFFFFFFFF MUL NOT AND SWAP1 DUP4 PUSH20 0xFFFFFFFFFFFFFFFFFFFFFFFFFFFFFFFFFFFFFFFF AND MUL OR SWAP1 SSTORE POP DUP1 DUP3 PUSH20 0xFFFFFFFFFFFFFFFFFFFFFFFFFFFFFFFFFFFFFFFF AND PUSH3 0x1D3E DUP4 PUSH3 0xACE JUMP JUMPDEST PUSH20 0xFFFFFFFFFFFFFFFFFFFFFFFFFFFFFFFFFFFFFFFF AND PUSH32 0x8C5BE1E5EBEC7D5BD14F71427D1E84F3DD0314C0F7B2291E5B200AC8C7C3B925 PUSH1 0x40 MLOAD PUSH1 0x40 MLOAD DUP1 SWAP2 SUB SWAP1 LOG4 POP POP JUMP JUMPDEST PUSH1 0x0 DUP1 PUSH3 0x1D92 DUP4 PUSH3 0xACE JUMP JUMPDEST SWAP1 POP DUP1 PUSH20 0xFFFFFFFFFFFFFFFFFFFFFFFFFFFFFFFFFFFFFFFF AND DUP5 PUSH20 0xFFFFFFFFFFFFFFFFFFFFFFFFFFFFFFFFFFFFFFFF AND EQ DUP1 PUSH3 0x1DD7 JUMPI POP PUSH3 0x1DD6 DUP2 DUP6 PUSH3 0x1A7A JUMP JUMPDEST JUMPDEST DUP1 PUSH3 0x1E18 JUMPI POP DUP4 PUSH20 0xFFFFFFFFFFFFFFFFFFFFFFFFFFFFFFFFFFFFFFFF AND PUSH3 0x1E00 DUP5 PUSH3 0x6D3 JUMP JUMPDEST PUSH20 0xFFFFFFFFFFFFFFFFFFFFFFFFFFFFFFFFFFFFFFFF AND EQ JUMPDEST SWAP2 POP POP SWAP3 SWAP2 POP POP JUMP JUMPDEST DUP3 PUSH20 0xFFFFFFFFFFFFFFFFFFFFFFFFFFFFFFFFFFFFFFFF AND PUSH3 0x1E43 DUP3 PUSH3 0xACE JUMP JUMPDEST PUSH20 0xFFFFFFFFFFFFFFFFFFFFFFFFFFFFFFFFFFFFFFFF AND EQ PUSH3 0x1E9C JUMPI PUSH1 0x40 MLOAD PUSH32 0x8C379A000000000000000000000000000000000000000000000000000000000 DUP2 MSTORE PUSH1 0x4 ADD PUSH3 0x1E93 SWAP1 PUSH3 0x4C91 JUMP JUMPDEST PUSH1 0x40 MLOAD DUP1 SWAP2 SUB SWAP1 REVERT JUMPDEST PUSH1 0x0 PUSH20 0xFFFFFFFFFFFFFFFFFFFFFFFFFFFFFFFFFFFFFFFF AND DUP3 PUSH20 0xFFFFFFFFFFFFFFFFFFFFFFFFFFFFFFFFFFFFFFFF AND SUB PUSH3 0x1F0E JUMPI PUSH1 0x40 MLOAD PUSH32 0x8C379A000000000000000000000000000000000000000000000000000000000 DUP2 MSTORE PUSH1 0x4 ADD PUSH3 0x1F05 SWAP1 PUSH3 0x4D29 JUMP JUMPDEST PUSH1 0x40 MLOAD DUP1 SWAP2 SUB SWAP1 REVERT JUMPDEST PUSH3 0x1F1D DUP4 DUP4 DUP4 PUSH1 0x1 PUSH3 0x27C6 JUMP JUMPDEST DUP3 PUSH20 0xFFFFFFFFFFFFFFFFFFFFFFFFFFFFFFFFFFFFFFFF AND PUSH3 0x1F3F DUP3 PUSH3 0xACE JUMP JUMPDEST PUSH20 0xFFFFFFFFFFFFFFFFFFFFFFFFFFFFFFFFFFFFFFFF AND EQ PUSH3 0x1F98 JUMPI PUSH1 0x40 MLOAD PUSH32 0x8C379A000000000000000000000000000000000000000000000000000000000 DUP2 MSTORE PUSH1 0x4 ADD PUSH3 0x1F8F SWAP1 PUSH3 0x4C91 JUMP JUMPDEST PUSH1 0x40 MLOAD DUP1 SWAP2 SUB SWAP1 REVERT JUMPDEST PUSH1 0x4 PUSH1 0x0 DUP3 DUP2 MSTORE PUSH1 0x20 ADD SWAP1 DUP2 MSTORE PUSH1 0x20 ADD PUSH1 0x0 KECCAK256 PUSH1 0x0 PUSH2 0x100 EXP DUP2 SLOAD SWAP1 PUSH20 0xFFFFFFFFFFFFFFFFFFFFFFFFFFFFFFFFFFFFFFFF MUL NOT AND SWAP1 SSTORE PUSH1 0x1 PUSH1 0x3 PUSH1 0x0 DUP6 PUSH20 0xFFFFFFFFFFFFFFFFFFFFFFFFFFFFFFFFFFFFFFFF AND PUSH20 0xFFFFFFFFFFFFFFFFFFFFFFFFFFFFFFFFFFFFFFFF AND DUP2 MSTORE PUSH1 0x20 ADD SWAP1 DUP2 MSTORE PUSH1 0x20 ADD PUSH1 0x0 KECCAK256 PUSH1 0x0 DUP3 DUP3 SLOAD SUB SWAP3 POP POP DUP2 SWAP1 SSTORE POP PUSH1 0x1 PUSH1 0x3 PUSH1 0x0 DUP5 PUSH20 0xFFFFFFFFFFFFFFFFFFFFFFFFFFFFFFFFFFFFFFFF AND PUSH20 0xFFFFFFFFFFFFFFFFFFFFFFFFFFFFFFFFFFFFFFFF AND DUP2 MSTORE PUSH1 0x20 ADD SWAP1 DUP2 MSTORE PUSH1 0x20 ADD PUSH1 0x0 KECCAK256 PUSH1 0x0 DUP3 DUP3 SLOAD ADD SWAP3 POP POP DUP2 SWAP1 SSTORE POP DUP2 PUSH1 0x2 PUSH1 0x0 DUP4 DUP2 MSTORE PUSH1 0x20 ADD SWAP1 DUP2 MSTORE PUSH1 0x20 ADD PUSH1 0x0 KECCAK256 PUSH1 0x0 PUSH2 0x100 EXP DUP2 SLOAD DUP2 PUSH20 0xFFFFFFFFFFFFFFFFFFFFFFFFFFFFFFFFFFFFFFFF MUL NOT AND SWAP1 DUP4 PUSH20 0xFFFFFFFFFFFFFFFFFFFFFFFFFFFFFFFFFFFFFFFF AND MUL OR SWAP1 SSTORE POP DUP1 DUP3 PUSH20 0xFFFFFFFFFFFFFFFFFFFFFFFFFFFFFFFFFFFFFFFF AND DUP5 PUSH20 0xFFFFFFFFFFFFFFFFFFFFFFFFFFFFFFFFFFFFFFFF AND PUSH32 0xDDF252AD1BE2C89B69C2B068FC378DAA952BA7F163C4A11628F55A4DF523B3EF PUSH1 0x40 MLOAD PUSH1 0x40 MLOAD DUP1 SWAP2 SUB SWAP1 LOG4 PUSH3 0x2126 DUP4 DUP4 DUP4 PUSH1 0x1 PUSH3 0x27E4 JUMP JUMPDEST POP POP POP JUMP JUMPDEST PUSH3 0x2135 PUSH3 0x1CC1 JUMP JUMPDEST PUSH20 0xFFFFFFFFFFFFFFFFFFFFFFFFFFFFFFFFFFFFFFFF AND PUSH3 0x2155 PUSH3 0xD6D JUMP JUMPDEST PUSH20 0xFFFFFFFFFFFFFFFFFFFFFFFFFFFFFFFFFFFFFFFF AND EQ PUSH3 0x21AE JUMPI PUSH1 0x40 MLOAD PUSH32 0x8C379A000000000000000000000000000000000000000000000000000000000 DUP2 MSTORE PUSH1 0x4 ADD PUSH3 0x21A5 SWAP1 PUSH3 0x4D9B JUMP JUMPDEST PUSH1 0x40 MLOAD DUP1 SWAP2 SUB SWAP1 REVERT JUMPDEST JUMP JUMPDEST PUSH3 0x21BA PUSH3 0x27EA JUMP JUMPDEST PUSH1 0x0 PUSH1 0xB PUSH1 0x0 PUSH2 0x100 EXP DUP2 SLOAD DUP2 PUSH1 0xFF MUL NOT AND SWAP1 DUP4 ISZERO ISZERO MUL OR SWAP1 SSTORE POP PUSH32 0x5DB9EE0A495BF2E6FF9C91A7834C1BA4FDD244A5E8AA4E537BD38AEAE4B073AA PUSH3 0x2200 PUSH3 0x1CC1 JUMP JUMPDEST PUSH1 0x40 MLOAD PUSH3 0x220F SWAP2 SWAP1 PUSH3 0x37A7 JUMP JUMPDEST PUSH1 0x40 MLOAD DUP1 SWAP2 SUB SWAP1 LOG1 JUMP JUMPDEST PUSH3 0x2235 DUP3 DUP3 PUSH1 0x40 MLOAD DUP1 PUSH1 0x20 ADD PUSH1 0x40 MSTORE DUP1 PUSH1 0x0 DUP2 MSTORE POP PUSH3 0x2838 JUMP JUMPDEST POP POP JUMP JUMPDEST PUSH3 0x2244 DUP2 PUSH3 0x289A JUMP JUMPDEST POP JUMP JUMPDEST PUSH1 0x0 PUSH1 0x2 PUSH1 0x0 DUP4 DUP2 MSTORE PUSH1 0x20 ADD SWAP1 DUP2 MSTORE PUSH1 0x20 ADD PUSH1 0x0 KECCAK256 PUSH1 0x0 SWAP1 SLOAD SWAP1 PUSH2 0x100 EXP SWAP1 DIV PUSH20 0xFFFFFFFFFFFFFFFFFFFFFFFFFFFFFFFFFFFFFFFF AND SWAP1 POP SWAP2 SWAP1 POP JUMP JUMPDEST PUSH1 0x0 PUSH1 0xB PUSH1 0x1 SWAP1 SLOAD SWAP1 PUSH2 0x100 EXP SWAP1 DIV PUSH20 0xFFFFFFFFFFFFFFFFFFFFFFFFFFFFFFFFFFFFFFFF AND SWAP1 POP DUP2 PUSH1 0xB PUSH1 0x1 PUSH2 0x100 EXP DUP2 SLOAD DUP2 PUSH20 0xFFFFFFFFFFFFFFFFFFFFFFFFFFFFFFFFFFFFFFFF MUL NOT AND SWAP1 DUP4 PUSH20 0xFFFFFFFFFFFFFFFFFFFFFFFFFFFFFFFFFFFFFFFF AND MUL OR SWAP1 SSTORE POP DUP2 PUSH20 0xFFFFFFFFFFFFFFFFFFFFFFFFFFFFFFFFFFFFFFFF AND DUP2 PUSH20 0xFFFFFFFFFFFFFFFFFFFFFFFFFFFFFFFFFFFFFFFF AND PUSH32 0x8BE0079C531659141344CD1FD0A4F28419497F9722A3DAAFE3B4186F6B6457E0 PUSH1 0x40 MLOAD PUSH1 0x40 MLOAD DUP1 SWAP2 SUB SWAP1 LOG3 POP POP JUMP JUMPDEST PUSH3 0x2354 PUSH3 0x28F4 JUMP JUMPDEST PUSH1 0x1 PUSH1 0xB PUSH1 0x0 PUSH2 0x100 EXP DUP2 SLOAD DUP2 PUSH1 0xFF MUL NOT AND SWAP1 DUP4 ISZERO ISZERO MUL OR SWAP1 SSTORE POP PUSH32 0x62E78CEA01BEE320CD4E420270B5EA74000D11B0C9F74754EBDBFC544B05A258 PUSH3 0x239A PUSH3 0x1CC1 JUMP JUMPDEST PUSH1 0x40 MLOAD PUSH3 0x23A9 SWAP2 SWAP1 PUSH3 0x37A7 JUMP JUMPDEST PUSH1 0x40 MLOAD DUP1 SWAP2 SUB SWAP1 LOG1 JUMP JUMPDEST DUP2 PUSH20 0xFFFFFFFFFFFFFFFFFFFFFFFFFFFFFFFFFFFFFFFF AND DUP4 PUSH20 0xFFFFFFFFFFFFFFFFFFFFFFFFFFFFFFFFFFFFFFFF AND SUB PUSH3 0x2424 JUMPI PUSH1 0x40 MLOAD PUSH32 0x8C379A000000000000000000000000000000000000000000000000000000000 DUP2 MSTORE PUSH1 0x4 ADD PUSH3 0x241B SWAP1 PUSH3 0x4E0D JUMP JUMPDEST PUSH1 0x40 MLOAD DUP1 SWAP2 SUB SWAP1 REVERT JUMPDEST DUP1 PUSH1 0x5 PUSH1 0x0 DUP6 PUSH20 0xFFFFFFFFFFFFFFFFFFFFFFFFFFFFFFFFFFFFFFFF AND PUSH20 0xFFFFFFFFFFFFFFFFFFFFFFFFFFFFFFFFFFFFFFFF AND DUP2 MSTORE PUSH1 0x20 ADD SWAP1 DUP2 MSTORE PUSH1 0x20 ADD PUSH1 0x0 KECCAK256 PUSH1 0x0 DUP5 PUSH20 0xFFFFFFFFFFFFFFFFFFFFFFFFFFFFFFFFFFFFFFFF AND PUSH20 0xFFFFFFFFFFFFFFFFFFFFFFFFFFFFFFFFFFFFFFFF AND DUP2 MSTORE PUSH1 0x20 ADD SWAP1 DUP2 MSTORE PUSH1 0x20 ADD PUSH1 0x0 KECCAK256 PUSH1 0x0 PUSH2 0x100 EXP DUP2 SLOAD DUP2 PUSH1 0xFF MUL NOT AND SWAP1 DUP4 ISZERO ISZERO MUL OR SWAP1 SSTORE POP DUP2 PUSH20 0xFFFFFFFFFFFFFFFFFFFFFFFFFFFFFFFFFFFFFFFF AND DUP4 PUSH20 0xFFFFFFFFFFFFFFFFFFFFFFFFFFFFFFFFFFFFFFFF AND PUSH32 0x17307EAB39AB6107E8899845AD3D59BD9653F200F220920489CA2B5937696C31 DUP4 PUSH1 0x40 MLOAD PUSH3 0x2517 SWAP2 SWAP1 PUSH3 0x361A JUMP JUMPDEST PUSH1 0x40 MLOAD DUP1 SWAP2 SUB SWAP1 LOG3 POP POP POP JUMP JUMPDEST PUSH3 0x2531 DUP5 DUP5 DUP5 PUSH3 0x1E21 JUMP JUMPDEST PUSH3 0x253F DUP5 DUP5 DUP5 DUP5 PUSH3 0x2943 JUMP JUMPDEST PUSH3 0x2581 JUMPI PUSH1 0x40 MLOAD PUSH32 0x8C379A000000000000000000000000000000000000000000000000000000000 DUP2 MSTORE PUSH1 0x4 ADD PUSH3 0x2578 SWAP1 PUSH3 0x4EA5 JUMP JUMPDEST PUSH1 0x40 MLOAD DUP1 SWAP2 SUB SWAP1 REVERT JUMPDEST POP POP POP POP JUMP JUMPDEST PUSH1 0x60 PUSH1 0x40 MLOAD DUP1 PUSH1 0x40 ADD PUSH1 0x40 MSTORE DUP1 PUSH1 0x15 DUP2 MSTORE PUSH1 0x20 ADD PUSH32 0x697066733A2F2F3C686173683E2F646F612F6E66740000000000000000000000 DUP2 MSTORE POP SWAP1 POP SWAP1 JUMP JUMPDEST PUSH1 0x60 PUSH1 0x0 PUSH1 0x1 PUSH3 0x25D5 DUP5 PUSH3 0x2ADB JUMP JUMPDEST ADD SWAP1 POP PUSH1 0x0 DUP2 PUSH8 0xFFFFFFFFFFFFFFFF DUP2 GT ISZERO PUSH3 0x25F7 JUMPI PUSH3 0x25F6 PUSH3 0x3A02 JUMP JUMPDEST JUMPDEST PUSH1 0x40 MLOAD SWAP1 DUP1 DUP3 MSTORE DUP1 PUSH1 0x1F ADD PUSH1 0x1F NOT AND PUSH1 0x20 ADD DUP3 ADD PUSH1 0x40 MSTORE DUP1 ISZERO PUSH3 0x262A JUMPI DUP2 PUSH1 0x20 ADD PUSH1 0x1 DUP3 MUL DUP1 CALLDATASIZE DUP4 CALLDATACOPY DUP1 DUP3 ADD SWAP2 POP POP SWAP1 POP JUMPDEST POP SWAP1 POP PUSH1 0x0 DUP3 PUSH1 0x20 ADD DUP3 ADD SWAP1 POP JUMPDEST PUSH1 0x1 ISZERO PUSH3 0x2692 JUMPI DUP1 DUP1 PUSH1 0x1 SWAP1 SUB SWAP2 POP POP PUSH32 0x3031323334353637383961626364656600000000000000000000000000000000 PUSH1 0xA DUP7 MOD BYTE DUP2 MSTORE8 PUSH1 0xA DUP6 DUP2 PUSH3 0x2685 JUMPI PUSH3 0x2684 PUSH3 0x4EC7 JUMP JUMPDEST JUMPDEST DIV SWAP5 POP PUSH1 0x0 DUP6 SUB PUSH3 0x2638 JUMPI JUMPDEST DUP2 SWAP4 POP POP POP POP SWAP2 SWAP1 POP JUMP JUMPDEST PUSH1 0x0 PUSH32 0x80AC58CD00000000000000000000000000000000000000000000000000000000 PUSH28 0xFFFFFFFFFFFFFFFFFFFFFFFFFFFFFFFFFFFFFFFFFFFFFFFFFFFFFFFF NOT AND DUP3 PUSH28 0xFFFFFFFFFFFFFFFFFFFFFFFFFFFFFFFFFFFFFFFFFFFFFFFFFFFFFFFF NOT AND EQ DUP1 PUSH3 0x2769 JUMPI POP PUSH32 0x5B5E139F00000000000000000000000000000000000000000000000000000000 PUSH28 0xFFFFFFFFFFFFFFFFFFFFFFFFFFFFFFFFFFFFFFFFFFFFFFFFFFFFFFFF NOT AND DUP3 PUSH28 0xFFFFFFFFFFFFFFFFFFFFFFFFFFFFFFFFFFFFFFFFFFFFFFFFFFFFFFFF NOT AND EQ JUMPDEST DUP1 PUSH3 0x277C JUMPI POP PUSH3 0x277B DUP3 PUSH3 0x2C47 JUMP JUMPDEST JUMPDEST SWAP1 POP SWAP2 SWAP1 POP JUMP JUMPDEST PUSH1 0x0 DUP1 PUSH20 0xFFFFFFFFFFFFFFFFFFFFFFFFFFFFFFFFFFFFFFFF AND PUSH3 0x27A7 DUP4 PUSH3 0x2247 JUMP JUMPDEST PUSH20 0xFFFFFFFFFFFFFFFFFFFFFFFFFFFFFFFFFFFFFFFF AND EQ ISZERO SWAP1 POP SWAP2 SWAP1 POP JUMP JUMPDEST PUSH3 0x27D0 PUSH3 0x28F4 JUMP JUMPDEST PUSH3 0x27DE DUP5 DUP5 DUP5 DUP5 PUSH3 0x2CB1 JUMP JUMPDEST POP POP POP POP JUMP JUMPDEST POP POP POP POP JUMP JUMPDEST PUSH3 0x27F4 PUSH3 0xAB7 JUMP JUMPDEST PUSH3 0x2836 JUMPI PUSH1 0x40 MLOAD PUSH32 0x8C379A000000000000000000000000000000000000000000000000000000000 DUP2 MSTORE PUSH1 0x4 ADD PUSH3 0x282D SWAP1 PUSH3 0x4F46 JUMP JUMPDEST PUSH1 0x40 MLOAD DUP1 SWAP2 SUB SWAP1 REVERT JUMPDEST JUMP JUMPDEST PUSH3 0x2844 DUP4 DUP4 PUSH3 0x2E22 JUMP JUMPDEST PUSH3 0x2853 PUSH1 0x0 DUP5 DUP5 DUP5 PUSH3 0x2943 JUMP JUMPDEST PUSH3 0x2895 JUMPI PUSH1 0x40 MLOAD PUSH32 0x8C379A000000000000000000000000000000000000000000000000000000000 DUP2 MSTORE PUSH1 0x4 ADD PUSH3 0x288C SWAP1 PUSH3 0x4EA5 JUMP JUMPDEST PUSH1 0x40 MLOAD DUP1 SWAP2 SUB SWAP1 REVERT JUMPDEST POP POP POP JUMP JUMPDEST PUSH3 0x28A5 DUP2 PUSH3 0x3050 JUMP JUMPDEST PUSH1 0x0 PUSH1 0xA PUSH1 0x0 DUP4 DUP2 MSTORE PUSH1 0x20 ADD SWAP1 DUP2 MSTORE PUSH1 0x20 ADD PUSH1 0x0 KECCAK256 DUP1 SLOAD PUSH3 0x28C7 SWAP1 PUSH3 0x3C50 JUMP JUMPDEST SWAP1 POP EQ PUSH3 0x28F1 JUMPI PUSH1 0xA PUSH1 0x0 DUP3 DUP2 MSTORE PUSH1 0x20 ADD SWAP1 DUP2 MSTORE PUSH1 0x20 ADD PUSH1 0x0 KECCAK256 PUSH1 0x0 PUSH3 0x28F0 SWAP2 SWAP1 PUSH3 0x34F5 JUMP JUMPDEST JUMPDEST POP JUMP JUMPDEST PUSH3 0x28FE PUSH3 0xAB7 JUMP JUMPDEST ISZERO PUSH3 0x2941 JUMPI PUSH1 0x40 MLOAD PUSH32 0x8C379A000000000000000000000000000000000000000000000000000000000 DUP2 MSTORE PUSH1 0x4 ADD PUSH3 0x2938 SWAP1 PUSH3 0x4FB8 JUMP JUMPDEST PUSH1 0x40 MLOAD DUP1 SWAP2 SUB SWAP1 REVERT JUMPDEST JUMP JUMPDEST PUSH1 0x0 PUSH3 0x2966 DUP5 PUSH20 0xFFFFFFFFFFFFFFFFFFFFFFFFFFFFFFFFFFFFFFFF AND PUSH3 0x31A6 JUMP JUMPDEST ISZERO PUSH3 0x2ACE JUMPI DUP4 PUSH20 0xFFFFFFFFFFFFFFFFFFFFFFFFFFFFFFFFFFFFFFFF AND PUSH4 0x150B7A02 PUSH3 0x2992 PUSH3 0x1CC1 JUMP JUMPDEST DUP8 DUP7 DUP7 PUSH1 0x40 MLOAD DUP6 PUSH4 0xFFFFFFFF AND PUSH1 0xE0 SHL DUP2 MSTORE PUSH1 0x4 ADD PUSH3 0x29B6 SWAP5 SWAP4 SWAP3 SWAP2 SWAP1 PUSH3 0x5037 JUMP JUMPDEST PUSH1 0x20 PUSH1 0x40 MLOAD DUP1 DUP4 SUB DUP2 PUSH1 0x0 DUP8 GAS CALL SWAP3 POP POP POP DUP1 ISZERO PUSH3 0x29F5 JUMPI POP PUSH1 0x40 MLOAD RETURNDATASIZE PUSH1 0x1F NOT PUSH1 0x1F DUP3 ADD AND DUP3 ADD DUP1 PUSH1 0x40 MSTORE POP DUP2 ADD SWAP1 PUSH3 0x29F2 SWAP2 SWAP1 PUSH3 0x50A2 JUMP JUMPDEST PUSH1 0x1 JUMPDEST PUSH3 0x2A7D JUMPI RETURNDATASIZE DUP1 PUSH1 0x0 DUP2 EQ PUSH3 0x2A28 JUMPI PUSH1 0x40 MLOAD SWAP2 POP PUSH1 0x1F NOT PUSH1 0x3F RETURNDATASIZE ADD AND DUP3 ADD PUSH1 0x40 MSTORE RETURNDATASIZE DUP3 MSTORE RETURNDATASIZE PUSH1 0x0 PUSH1 0x20 DUP5 ADD RETURNDATACOPY PUSH3 0x2A2D JUMP JUMPDEST PUSH1 0x60 SWAP2 POP JUMPDEST POP PUSH1 0x0 DUP2 MLOAD SUB PUSH3 0x2A75 JUMPI PUSH1 0x40 MLOAD PUSH32 0x8C379A000000000000000000000000000000000000000000000000000000000 DUP2 MSTORE PUSH1 0x4 ADD PUSH3 0x2A6C SWAP1 PUSH3 0x4EA5 JUMP JUMPDEST PUSH1 0x40 MLOAD DUP1 SWAP2 SUB SWAP1 REVERT JUMPDEST DUP1 MLOAD DUP2 PUSH1 0x20 ADD REVERT JUMPDEST PUSH4 0x150B7A02 PUSH1 0xE0 SHL PUSH28 0xFFFFFFFFFFFFFFFFFFFFFFFFFFFFFFFFFFFFFFFFFFFFFFFFFFFFFFFF NOT AND DUP2 PUSH28 0xFFFFFFFFFFFFFFFFFFFFFFFFFFFFFFFFFFFFFFFFFFFFFFFFFFFFFFFF NOT AND EQ SWAP2 POP POP PUSH3 0x2AD3 JUMP JUMPDEST PUSH1 0x1 SWAP1 POP JUMPDEST SWAP5 SWAP4 POP POP POP POP JUMP JUMPDEST PUSH1 0x0 DUP1 PUSH1 0x0 SWAP1 POP PUSH27 0x184F03E93FF9F4DAA797ED6E38ED64BF6A1F010000000000000000 DUP4 LT PUSH3 0x2B3D JUMPI PUSH27 0x184F03E93FF9F4DAA797ED6E38ED64BF6A1F010000000000000000 DUP4 DUP2 PUSH3 0x2B33 JUMPI PUSH3 0x2B32 PUSH3 0x4EC7 JUMP JUMPDEST JUMPDEST DIV SWAP3 POP PUSH1 0x40 DUP2 ADD SWAP1 POP JUMPDEST PUSH14 0x4EE2D6D415B85ACEF8100000000 DUP4 LT PUSH3 0x2B7E JUMPI PUSH14 0x4EE2D6D415B85ACEF8100000000 DUP4 DUP2 PUSH3 0x2B74 JUMPI PUSH3 0x2B73 PUSH3 0x4EC7 JUMP JUMPDEST JUMPDEST DIV SWAP3 POP PUSH1 0x20 DUP2 ADD SWAP1 POP JUMPDEST PUSH7 0x2386F26FC10000 DUP4 LT PUSH3 0x2BB1 JUMPI PUSH7 0x2386F26FC10000 DUP4 DUP2 PUSH3 0x2BA7 JUMPI PUSH3 0x2BA6 PUSH3 0x4EC7 JUMP JUMPDEST JUMPDEST DIV SWAP3 POP PUSH1 0x10 DUP2 ADD SWAP1 POP JUMPDEST PUSH4 0x5F5E100 DUP4 LT PUSH3 0x2BDE JUMPI PUSH4 0x5F5E100 DUP4 DUP2 PUSH3 0x2BD4 JUMPI PUSH3 0x2BD3 PUSH3 0x4EC7 JUMP JUMPDEST JUMPDEST DIV SWAP3 POP PUSH1 0x8 DUP2 ADD SWAP1 POP JUMPDEST PUSH2 0x2710 DUP4 LT PUSH3 0x2C07 JUMPI PUSH2 0x2710 DUP4 DUP2 PUSH3 0x2BFD JUMPI PUSH3 0x2BFC PUSH3 0x4EC7 JUMP JUMPDEST JUMPDEST DIV SWAP3 POP PUSH1 0x4 DUP2 ADD SWAP1 POP JUMPDEST PUSH1 0x64 DUP4 LT PUSH3 0x2C2E JUMPI PUSH1 0x64 DUP4 DUP2 PUSH3 0x2C24 JUMPI PUSH3 0x2C23 PUSH3 0x4EC7 JUMP JUMPDEST JUMPDEST DIV SWAP3 POP PUSH1 0x2 DUP2 ADD SWAP1 POP JUMPDEST PUSH1 0xA DUP4 LT PUSH3 0x2C3E JUMPI PUSH1 0x1 DUP2 ADD SWAP1 POP JUMPDEST DUP1 SWAP2 POP POP SWAP2 SWAP1 POP JUMP JUMPDEST PUSH1 0x0 PUSH32 0x1FFC9A700000000000000000000000000000000000000000000000000000000 PUSH28 0xFFFFFFFFFFFFFFFFFFFFFFFFFFFFFFFFFFFFFFFFFFFFFFFFFFFFFFFF NOT AND DUP3 PUSH28 0xFFFFFFFFFFFFFFFFFFFFFFFFFFFFFFFFFFFFFFFFFFFFFFFFFFFFFFFF NOT AND EQ SWAP1 POP SWAP2 SWAP1 POP JUMP JUMPDEST PUSH3 0x2CBF DUP5 DUP5 DUP5 DUP5 PUSH3 0x31C9 JUMP JUMPDEST PUSH1 0x1 DUP2 GT ISZERO PUSH3 0x2D06 JUMPI PUSH1 0x40 MLOAD PUSH32 0x8C379A000000000000000000000000000000000000000000000000000000000 DUP2 MSTORE PUSH1 0x4 ADD PUSH3 0x2CFD SWAP1 PUSH3 0x514A JUMP JUMPDEST PUSH1 0x40 MLOAD DUP1 SWAP2 SUB SWAP1 REVERT JUMPDEST PUSH1 0x0 DUP3 SWAP1 POP PUSH1 0x0 PUSH20 0xFFFFFFFFFFFFFFFFFFFFFFFFFFFFFFFFFFFFFFFF AND DUP6 PUSH20 0xFFFFFFFFFFFFFFFFFFFFFFFFFFFFFFFFFFFFFFFF AND SUB PUSH3 0x2D51 JUMPI PUSH3 0x2D4B DUP2 PUSH3 0x31CF JUMP JUMPDEST PUSH3 0x2D93 JUMP JUMPDEST DUP4 PUSH20 0xFFFFFFFFFFFFFFFFFFFFFFFFFFFFFFFFFFFFFFFF AND DUP6 PUSH20 0xFFFFFFFFFFFFFFFFFFFFFFFFFFFFFFFFFFFFFFFF AND EQ PUSH3 0x2D92 JUMPI PUSH3 0x2D91 DUP6 DUP3 PUSH3 0x3218 JUMP JUMPDEST JUMPDEST JUMPDEST PUSH1 0x0 PUSH20 0xFFFFFFFFFFFFFFFFFFFFFFFFFFFFFFFFFFFFFFFF AND DUP5 PUSH20 0xFFFFFFFFFFFFFFFFFFFFFFFFFFFFFFFFFFFFFFFF AND SUB PUSH3 0x2DD9 JUMPI PUSH3 0x2DD3 DUP2 PUSH3 0x338A JUMP JUMPDEST PUSH3 0x2E1B JUMP JUMPDEST DUP5 PUSH20 0xFFFFFFFFFFFFFFFFFFFFFFFFFFFFFFFFFFFFFFFF AND DUP5 PUSH20 0xFFFFFFFFFFFFFFFFFFFFFFFFFFFFFFFFFFFFFFFF AND EQ PUSH3 0x2E1A JUMPI PUSH3 0x2E19 DUP5 DUP3 PUSH3 0x3466 JUMP JUMPDEST JUMPDEST JUMPDEST POP POP POP POP POP JUMP JUMPDEST PUSH1 0x0 PUSH20 0xFFFFFFFFFFFFFFFFFFFFFFFFFFFFFFFFFFFFFFFF AND DUP3 PUSH20 0xFFFFFFFFFFFFFFFFFFFFFFFFFFFFFFFFFFFFFFFF AND SUB PUSH3 0x2E94 JUMPI PUSH1 0x40 MLOAD PUSH32 0x8C379A000000000000000000000000000000000000000000000000000000000 DUP2 MSTORE PUSH1 0x4 ADD PUSH3 0x2E8B SWAP1 PUSH3 0x51BC JUMP JUMPDEST PUSH1 0x40 MLOAD DUP1 SWAP2 SUB SWAP1 REVERT JUMPDEST PUSH3 0x2E9F DUP2 PUSH3 0x2783 JUMP JUMPDEST ISZERO PUSH3 0x2EE2 JUMPI PUSH1 0x40 MLOAD PUSH32 0x8C379A000000000000000000000000000000000000000000000000000000000 DUP2 MSTORE PUSH1 0x4 ADD PUSH3 0x2ED9 SWAP1 PUSH3 0x522E JUMP JUMPDEST PUSH1 0x40 MLOAD DUP1 SWAP2 SUB SWAP1 REVERT JUMPDEST PUSH3 0x2EF2 PUSH1 0x0 DUP4 DUP4 PUSH1 0x1 PUSH3 0x27C6 JUMP JUMPDEST PUSH3 0x2EFD DUP2 PUSH3 0x2783 JUMP JUMPDEST ISZERO PUSH3 0x2F40 JUMPI PUSH1 0x40 MLOAD PUSH32 0x8C379A000000000000000000000000000000000000000000000000000000000 DUP2 MSTORE PUSH1 0x4 ADD PUSH3 0x2F37 SWAP1 PUSH3 0x522E JUMP JUMPDEST PUSH1 0x40 MLOAD DUP1 SWAP2 SUB SWAP1 REVERT JUMPDEST PUSH1 0x1 PUSH1 0x3 PUSH1 0x0 DUP5 PUSH20 0xFFFFFFFFFFFFFFFFFFFFFFFFFFFFFFFFFFFFFFFF AND PUSH20 0xFFFFFFFFFFFFFFFFFFFFFFFFFFFFFFFFFFFFFFFF AND DUP2 MSTORE PUSH1 0x20 ADD SWAP1 DUP2 MSTORE PUSH1 0x20 ADD PUSH1 0x0 KECCAK256 PUSH1 0x0 DUP3 DUP3 SLOAD ADD SWAP3 POP POP DUP2 SWAP1 SSTORE POP DUP2 PUSH1 0x2 PUSH1 0x0 DUP4 DUP2 MSTORE PUSH1 0x20 ADD SWAP1 DUP2 MSTORE PUSH1 0x20 ADD PUSH1 0x0 KECCAK256 PUSH1 0x0 PUSH2 0x100 EXP DUP2 SLOAD DUP2 PUSH20 0xFFFFFFFFFFFFFFFFFFFFFFFFFFFFFFFFFFFFFFFF MUL NOT AND SWAP1 DUP4 PUSH20 0xFFFFFFFFFFFFFFFFFFFFFFFFFFFFFFFFFFFFFFFF AND MUL OR SWAP1 SSTORE POP DUP1 DUP3 PUSH20 0xFFFFFFFFFFFFFFFFFFFFFFFFFFFFFFFFFFFFFFFF AND PUSH1 0x0 PUSH20 0xFFFFFFFFFFFFFFFFFFFFFFFFFFFFFFFFFFFFFFFF AND PUSH32 0xDDF252AD1BE2C89B69C2B068FC378DAA952BA7F163C4A11628F55A4DF523B3EF PUSH1 0x40 MLOAD PUSH1 0x40 MLOAD DUP1 SWAP2 SUB SWAP1 LOG4 PUSH3 0x304C PUSH1 0x0 DUP4 DUP4 PUSH1 0x1 PUSH3 0x27E4 JUMP JUMPDEST POP POP JUMP JUMPDEST PUSH1 0x0 PUSH3 0x305D DUP3 PUSH3 0xACE JUMP JUMPDEST SWAP1 POP PUSH3 0x306F DUP2 PUSH1 0x0 DUP5 PUSH1 0x1 PUSH3 0x27C6 JUMP JUMPDEST PUSH3 0x307A DUP3 PUSH3 0xACE JUMP JUMPDEST SWAP1 POP PUSH1 0x4 PUSH1 0x0 DUP4 DUP2 MSTORE PUSH1 0x20 ADD SWAP1 DUP2 MSTORE PUSH1 0x20 ADD PUSH1 0x0 KECCAK256 PUSH1 0x0 PUSH2 0x100 EXP DUP2 SLOAD SWAP1 PUSH20 0xFFFFFFFFFFFFFFFFFFFFFFFFFFFFFFFFFFFFFFFF MUL NOT AND SWAP1 SSTORE PUSH1 0x1 PUSH1 0x3 PUSH1 0x0 DUP4 PUSH20 0xFFFFFFFFFFFFFFFFFFFFFFFFFFFFFFFFFFFFFFFF AND PUSH20 0xFFFFFFFFFFFFFFFFFFFFFFFFFFFFFFFFFFFFFFFF AND DUP2 MSTORE PUSH1 0x20 ADD SWAP1 DUP2 MSTORE PUSH1 0x20 ADD PUSH1 0x0 KECCAK256 PUSH1 0x0 DUP3 DUP3 SLOAD SUB SWAP3 POP POP DUP2 SWAP1 SSTORE POP PUSH1 0x2 PUSH1 0x0 DUP4 DUP2 MSTORE PUSH1 0x20 ADD SWAP1 DUP2 MSTORE PUSH1 0x20 ADD PUSH1 0x0 KECCAK256 PUSH1 0x0 PUSH2 0x100 EXP DUP2 SLOAD SWAP1 PUSH20 0xFFFFFFFFFFFFFFFFFFFFFFFFFFFFFFFFFFFFFFFF MUL NOT AND SWAP1 SSTORE DUP2 PUSH1 0x0 PUSH20 0xFFFFFFFFFFFFFFFFFFFFFFFFFFFFFFFFFFFFFFFF AND DUP3 PUSH20 0xFFFFFFFFFFFFFFFFFFFFFFFFFFFFFFFFFFFFFFFF AND PUSH32 0xDDF252AD1BE2C89B69C2B068FC378DAA952BA7F163C4A11628F55A4DF523B3EF PUSH1 0x40 MLOAD PUSH1 0x40 MLOAD DUP1 SWAP2 SUB SWAP1 LOG4 PUSH3 0x31A2 DUP2 PUSH1 0x0 DUP5 PUSH1 0x1 PUSH3 0x27E4 JUMP JUMPDEST POP POP JUMP JUMPDEST PUSH1 0x0 DUP1 DUP3 PUSH20 0xFFFFFFFFFFFFFFFFFFFFFFFFFFFFFFFFFFFFFFFF AND EXTCODESIZE GT SWAP1 POP SWAP2 SWAP1 POP JUMP JUMPDEST POP POP POP POP JUMP JUMPDEST PUSH1 0x8 DUP1 SLOAD SWAP1 POP PUSH1 0x9 PUSH1 0x0 DUP4 DUP2 MSTORE PUSH1 0x20 ADD SWAP1 DUP2 MSTORE PUSH1 0x20 ADD PUSH1 0x0 KECCAK256 DUP2 SWAP1 SSTORE POP PUSH1 0x8 DUP2 SWAP1 DUP1 PUSH1 0x1 DUP2 SLOAD ADD DUP1 DUP3 SSTORE DUP1 SWAP2 POP POP PUSH1 0x1 SWAP1 SUB SWAP1 PUSH1 0x0 MSTORE PUSH1 0x20 PUSH1 0x0 KECCAK256 ADD PUSH1 0x0 SWAP1 SWAP2 SWAP1 SWAP2 SWAP1 SWAP2 POP SSTORE POP JUMP JUMPDEST PUSH1 0x0 PUSH1 0x1 PUSH3 0x3227 DUP5 PUSH3 0xB59 JUMP JUMPDEST PUSH3 0x3233 SWAP2 SWAP1 PUSH3 0x4B58 JUMP JUMPDEST SWAP1 POP PUSH1 0x0 PUSH1 0x7 PUSH1 0x0 DUP5 DUP2 MSTORE PUSH1 0x20 ADD SWAP1 DUP2 MSTORE PUSH1 0x20 ADD PUSH1 0x0 KECCAK256 SLOAD SWAP1 POP DUP2 DUP2 EQ PUSH3 0x3319 JUMPI PUSH1 0x0 PUSH1 0x6 PUSH1 0x0 DUP7 PUSH20 0xFFFFFFFFFFFFFFFFFFFFFFFFFFFFFFFFFFFFFFFF AND PUSH20 0xFFFFFFFFFFFFFFFFFFFFFFFFFFFFFFFFFFFFFFFF AND DUP2 MSTORE PUSH1 0x20 ADD SWAP1 DUP2 MSTORE PUSH1 0x20 ADD PUSH1 0x0 KECCAK256 PUSH1 0x0 DUP5 DUP2 MSTORE PUSH1 0x20 ADD SWAP1 DUP2 MSTORE PUSH1 0x20 ADD PUSH1 0x0 KECCAK256 SLOAD SWAP1 POP DUP1 PUSH1 0x6 PUSH1 0x0 DUP8 PUSH20 0xFFFFFFFFFFFFFFFFFFFFFFFFFFFFFFFFFFFFFFFF AND PUSH20 0xFFFFFFFFFFFFFFFFFFFFFFFFFFFFFFFFFFFFFFFF AND DUP2 MSTORE PUSH1 0x20 ADD SWAP1 DUP2 MSTORE PUSH1 0x20 ADD PUSH1 0x0 KECCAK256 PUSH1 0x0 DUP5 DUP2 MSTORE PUSH1 0x20 ADD SWAP1 DUP2 MSTORE PUSH1 0x20 ADD PUSH1 0x0 KECCAK256 DUP2 SWAP1 SSTORE POP DUP2 PUSH1 0x7 PUSH1 0x0 DUP4 DUP2 MSTORE PUSH1 0x20 ADD SWAP1 DUP2 MSTORE PUSH1 0x20 ADD PUSH1 0x0 KECCAK256 DUP2 SWAP1 SSTORE POP POP JUMPDEST PUSH1 0x7 PUSH1 0x0 DUP5 DUP2 MSTORE PUSH1 0x20 ADD SWAP1 DUP2 MSTORE PUSH1 0x20 ADD PUSH1 0x0 KECCAK256 PUSH1 0x0 SWAP1 SSTORE PUSH1 0x6 PUSH1 0x0 DUP6 PUSH20 0xFFFFFFFFFFFFFFFFFFFFFFFFFFFFFFFFFFFFFFFF AND PUSH20 0xFFFFFFFFFFFFFFFFFFFFFFFFFFFFFFFFFFFFFFFF AND DUP2 MSTORE PUSH1 0x20 ADD SWAP1 DUP2 MSTORE PUSH1 0x20 ADD PUSH1 0x0 KECCAK256 PUSH1 0x0 DUP4 DUP2 MSTORE PUSH1 0x20 ADD SWAP1 DUP2 MSTORE PUSH1 0x20 ADD PUSH1 0x0 KECCAK256 PUSH1 0x0 SWAP1 SSTORE POP POP POP POP JUMP JUMPDEST PUSH1 0x0 PUSH1 0x1 PUSH1 0x8 DUP1 SLOAD SWAP1 POP PUSH3 0x33A0 SWAP2 SWAP1 PUSH3 0x4B58 JUMP JUMPDEST SWAP1 POP PUSH1 0x0 PUSH1 0x9 PUSH1 0x0 DUP5 DUP2 MSTORE PUSH1 0x20 ADD SWAP1 DUP2 MSTORE PUSH1 0x20 ADD PUSH1 0x0 KECCAK256 SLOAD SWAP1 POP PUSH1 0x0 PUSH1 0x8 DUP4 DUP2 SLOAD DUP2 LT PUSH3 0x33D3 JUMPI PUSH3 0x33D2 PUSH3 0x3F7D JUMP JUMPDEST JUMPDEST SWAP1 PUSH1 0x0 MSTORE PUSH1 0x20 PUSH1 0x0 KECCAK256 ADD SLOAD SWAP1 POP DUP1 PUSH1 0x8 DUP4 DUP2 SLOAD DUP2 LT PUSH3 0x33F8 JUMPI PUSH3 0x33F7 PUSH3 0x3F7D JUMP JUMPDEST JUMPDEST SWAP1 PUSH1 0x0 MSTORE PUSH1 0x20 PUSH1 0x0 KECCAK256 ADD DUP2 SWAP1 SSTORE POP DUP2 PUSH1 0x9 PUSH1 0x0 DUP4 DUP2 MSTORE PUSH1 0x20 ADD SWAP1 DUP2 MSTORE PUSH1 0x20 ADD PUSH1 0x0 KECCAK256 DUP2 SWAP1 SSTORE POP PUSH1 0x9 PUSH1 0x0 DUP6 DUP2 MSTORE PUSH1 0x20 ADD SWAP1 DUP2 MSTORE PUSH1 0x20 ADD PUSH1 0x0 KECCAK256 PUSH1 0x0 SWAP1 SSTORE PUSH1 0x8 DUP1 SLOAD DUP1 PUSH3 0x344A JUMPI PUSH3 0x3449 PUSH3 0x5250 JUMP JUMPDEST JUMPDEST PUSH1 0x1 SWAP1 SUB DUP2 DUP2 SWAP1 PUSH1 0x0 MSTORE PUSH1 0x20 PUSH1 0x0 KECCAK256 ADD PUSH1 0x0 SWAP1 SSTORE SWAP1 SSTORE POP POP POP POP JUMP JUMPDEST PUSH1 0x0 PUSH3 0x3473 DUP4 PUSH3 0xB59 JUMP JUMPDEST SWAP1 POP DUP2 PUSH1 0x6 PUSH1 0x0 DUP6 PUSH20 0xFFFFFFFFFFFFFFFFFFFFFFFFFFFFFFFFFFFFFFFF AND PUSH20 0xFFFFFFFFFFFFFFFFFFFFFFFFFFFFFFFFFFFFFFFF AND DUP2 MSTORE PUSH1 0x20 ADD SWAP1 DUP2 MSTORE PUSH1 0x20 ADD PUSH1 0x0 KECCAK256 PUSH1 0x0 DUP4 DUP2 MSTORE PUSH1 0x20 ADD SWAP1 DUP2 MSTORE PUSH1 0x20 ADD PUSH1 0x0 KECCAK256 DUP2 SWAP1 SSTORE POP DUP1 PUSH1 0x7 PUSH1 0x0 DUP5 DUP2 MSTORE PUSH1 0x20 ADD SWAP1 DUP2 MSTORE PUSH1 0x20 ADD PUSH1 0x0 KECCAK256 DUP2 SWAP1 SSTORE POP POP POP POP JUMP JUMPDEST PUSH2 0x42D4 DUP1 PUSH3 0x5280 DUP4 CODECOPY ADD SWAP1 JUMP JUMPDEST POP DUP1 SLOAD PUSH3 0x3503 SWAP1 PUSH3 0x3C50 JUMP JUMPDEST PUSH1 0x0 DUP3 SSTORE DUP1 PUSH1 0x1F LT PUSH3 0x3517 JUMPI POP PUSH3 0x3538 JUMP JUMPDEST PUSH1 0x1F ADD PUSH1 0x20 SWAP1 DIV SWAP1 PUSH1 0x0 MSTORE PUSH1 0x20 PUSH1 0x0 KECCAK256 SWAP1 DUP2 ADD SWAP1 PUSH3 0x3537 SWAP2 SWAP1 PUSH3 0x353B JUMP JUMPDEST JUMPDEST POP JUMP JUMPDEST JUMPDEST DUP1 DUP3 GT ISZERO PUSH3 0x3556 JUMPI PUSH1 0x0 DUP2 PUSH1 0x0 SWAP1 SSTORE POP PUSH1 0x1 ADD PUSH3 0x353C JUMP JUMPDEST POP SWAP1 JUMP JUMPDEST PUSH1 0x0 PUSH1 0x40 MLOAD SWAP1 POP SWAP1 JUMP JUMPDEST PUSH1 0x0 DUP1 REVERT JUMPDEST PUSH1 0x0 DUP1 REVERT JUMPDEST PUSH1 0x0 PUSH32 0xFFFFFFFF00000000000000000000000000000000000000000000000000000000 DUP3 AND SWAP1 POP SWAP2 SWAP1 POP JUMP JUMPDEST PUSH3 0x35A5 DUP2 PUSH3 0x356E JUMP JUMPDEST DUP2 EQ PUSH3 0x35B1 JUMPI PUSH1 0x0 DUP1 REVERT JUMPDEST POP JUMP JUMPDEST PUSH1 0x0 DUP2 CALLDATALOAD SWAP1 POP PUSH3 0x35C5 DUP2 PUSH3 0x359A JUMP JUMPDEST SWAP3 SWAP2 POP POP JUMP JUMPDEST PUSH1 0x0 PUSH1 0x20 DUP3 DUP5 SUB SLT ISZERO PUSH3 0x35E4 JUMPI PUSH3 0x35E3 PUSH3 0x3564 JUMP JUMPDEST JUMPDEST PUSH1 0x0 PUSH3 0x35F4 DUP5 DUP3 DUP6 ADD PUSH3 0x35B4 JUMP JUMPDEST SWAP2 POP POP SWAP3 SWAP2 POP POP JUMP JUMPDEST PUSH1 0x0 DUP2 ISZERO ISZERO SWAP1 POP SWAP2 SWAP1 POP JUMP JUMPDEST PUSH3 0x3614 DUP2 PUSH3 0x35FD JUMP JUMPDEST DUP3 MSTORE POP POP JUMP JUMPDEST PUSH1 0x0 PUSH1 0x20 DUP3 ADD SWAP1 POP PUSH3 0x3631 PUSH1 0x0 DUP4 ADD DUP5 PUSH3 0x3609 JUMP JUMPDEST SWAP3 SWAP2 POP POP JUMP JUMPDEST PUSH1 0x0 DUP2 MLOAD SWAP1 POP SWAP2 SWAP1 POP JUMP JUMPDEST PUSH1 0x0 DUP3 DUP3 MSTORE PUSH1 0x20 DUP3 ADD SWAP1 POP SWAP3 SWAP2 POP POP JUMP JUMPDEST PUSH1 0x0 JUMPDEST DUP4 DUP2 LT ISZERO PUSH3 0x3673 JUMPI DUP1 DUP3 ADD MLOAD DUP2 DUP5 ADD MSTORE PUSH1 0x20 DUP2 ADD SWAP1 POP PUSH3 0x3656 JUMP JUMPDEST PUSH1 0x0 DUP5 DUP5 ADD MSTORE POP POP POP POP JUMP JUMPDEST PUSH1 0x0 PUSH1 0x1F NOT PUSH1 0x1F DUP4 ADD AND SWAP1 POP SWAP2 SWAP1 POP JUMP JUMPDEST PUSH1 0x0 PUSH3 0x369D DUP3 PUSH3 0x3637 JUMP JUMPDEST PUSH3 0x36A9 DUP2 DUP6 PUSH3 0x3642 JUMP JUMPDEST SWAP4 POP PUSH3 0x36BB DUP2 DUP6 PUSH1 0x20 DUP7 ADD PUSH3 0x3653 JUMP JUMPDEST PUSH3 0x36C6 DUP2 PUSH3 0x367F JUMP JUMPDEST DUP5 ADD SWAP2 POP POP SWAP3 SWAP2 POP POP JUMP JUMPDEST PUSH1 0x0 PUSH1 0x20 DUP3 ADD SWAP1 POP DUP2 DUP2 SUB PUSH1 0x0 DUP4 ADD MSTORE PUSH3 0x36ED DUP2 DUP5 PUSH3 0x3690 JUMP JUMPDEST SWAP1 POP SWAP3 SWAP2 POP POP JUMP JUMPDEST PUSH1 0x0 DUP2 SWAP1 POP SWAP2 SWAP1 POP JUMP JUMPDEST PUSH3 0x370A DUP2 PUSH3 0x36F5 JUMP JUMPDEST DUP2 EQ PUSH3 0x3716 JUMPI PUSH1 0x0 DUP1 REVERT JUMPDEST POP JUMP JUMPDEST PUSH1 0x0 DUP2 CALLDATALOAD SWAP1 POP PUSH3 0x372A DUP2 PUSH3 0x36FF JUMP JUMPDEST SWAP3 SWAP2 POP POP JUMP JUMPDEST PUSH1 0x0 PUSH1 0x20 DUP3 DUP5 SUB SLT ISZERO PUSH3 0x3749 JUMPI PUSH3 0x3748 PUSH3 0x3564 JUMP JUMPDEST JUMPDEST PUSH1 0x0 PUSH3 0x3759 DUP5 DUP3 DUP6 ADD PUSH3 0x3719 JUMP JUMPDEST SWAP2 POP POP SWAP3 SWAP2 POP POP JUMP JUMPDEST PUSH1 0x0 PUSH20 0xFFFFFFFFFFFFFFFFFFFFFFFFFFFFFFFFFFFFFFFF DUP3 AND SWAP1 POP SWAP2 SWAP1 POP JUMP JUMPDEST PUSH1 0x0 PUSH3 0x378F DUP3 PUSH3 0x3762 JUMP JUMPDEST SWAP1 POP SWAP2 SWAP1 POP JUMP JUMPDEST PUSH3 0x37A1 DUP2 PUSH3 0x3782 JUMP JUMPDEST DUP3 MSTORE POP POP JUMP JUMPDEST PUSH1 0x0 PUSH1 0x20 DUP3 ADD SWAP1 POP PUSH3 0x37BE PUSH1 0x0 DUP4 ADD DUP5 PUSH3 0x3796 JUMP JUMPDEST SWAP3 SWAP2 POP POP JUMP JUMPDEST PUSH3 0x37CF DUP2 PUSH3 0x3782 JUMP JUMPDEST DUP2 EQ PUSH3 0x37DB JUMPI PUSH1 0x0 DUP1 REVERT JUMPDEST POP JUMP JUMPDEST PUSH1 0x0 DUP2 CALLDATALOAD SWAP1 POP PUSH3 0x37EF DUP2 PUSH3 0x37C4 JUMP JUMPDEST SWAP3 SWAP2 POP POP JUMP JUMPDEST PUSH1 0x0 DUP1 PUSH1 0x40 DUP4 DUP6 SUB SLT ISZERO PUSH3 0x380F JUMPI PUSH3 0x380E PUSH3 0x3564 JUMP JUMPDEST JUMPDEST PUSH1 0x0 PUSH3 0x381F DUP6 DUP3 DUP7 ADD PUSH3 0x37DE JUMP JUMPDEST SWAP3 POP POP PUSH1 0x20 PUSH3 0x3832 DUP6 DUP3 DUP7 ADD PUSH3 0x3719 JUMP JUMPDEST SWAP2 POP POP SWAP3 POP SWAP3 SWAP1 POP JUMP JUMPDEST PUSH3 0x3847 DUP2 PUSH3 0x36F5 JUMP JUMPDEST DUP3 MSTORE POP POP JUMP JUMPDEST PUSH1 0x0 PUSH1 0x20 DUP3 ADD SWAP1 POP PUSH3 0x3864 PUSH1 0x0 DUP4 ADD DUP5 PUSH3 0x383C JUMP JUMPDEST SWAP3 SWAP2 POP POP JUMP JUMPDEST PUSH1 0x0 DUP2 SWAP1 POP SWAP2 SWAP1 POP JUMP JUMPDEST PUSH1 0x0 PUSH3 0x3895 PUSH3 0x388F PUSH3 0x3889 DUP5 PUSH3 0x3762 JUMP JUMPDEST PUSH3 0x386A JUMP JUMPDEST PUSH3 0x3762 JUMP JUMPDEST SWAP1 POP SWAP2 SWAP1 POP JUMP JUMPDEST PUSH1 0x0 PUSH3 0x38A9 DUP3 PUSH3 0x3874 JUMP JUMPDEST SWAP1 POP SWAP2 SWAP1 POP JUMP JUMPDEST PUSH1 0x0 PUSH3 0x38BD DUP3 PUSH3 0x389C JUMP JUMPDEST SWAP1 POP SWAP2 SWAP1 POP JUMP JUMPDEST PUSH3 0x38CF DUP2 PUSH3 0x38B0 JUMP JUMPDEST DUP3 MSTORE POP POP JUMP JUMPDEST PUSH1 0x0 PUSH1 0x20 DUP3 ADD SWAP1 POP PUSH3 0x38EC PUSH1 0x0 DUP4 ADD DUP5 PUSH3 0x38C4 JUMP JUMPDEST SWAP3 SWAP2 POP POP JUMP JUMPDEST PUSH1 0x0 DUP1 PUSH1 0x0 PUSH1 0x60 DUP5 DUP7 SUB SLT ISZERO PUSH3 0x390E JUMPI PUSH3 0x390D PUSH3 0x3564 JUMP JUMPDEST JUMPDEST PUSH1 0x0 PUSH3 0x391E DUP7 DUP3 DUP8 ADD PUSH3 0x37DE JUMP JUMPDEST SWAP4 POP POP PUSH1 0x20 PUSH3 0x3931 DUP7 DUP3 DUP8 ADD PUSH3 0x37DE JUMP JUMPDEST SWAP3 POP POP PUSH1 0x40 PUSH3 0x3944 DUP7 DUP3 DUP8 ADD PUSH3 0x3719 JUMP JUMPDEST SWAP2 POP POP SWAP3 POP SWAP3 POP SWAP3 JUMP JUMPDEST PUSH1 0x0 PUSH1 0x20 DUP3 DUP5 SUB SLT ISZERO PUSH3 0x3967 JUMPI PUSH3 0x3966 PUSH3 0x3564 JUMP JUMPDEST JUMPDEST PUSH1 0x0 PUSH3 0x3977 DUP5 DUP3 DUP6 ADD PUSH3 0x37DE JUMP JUMPDEST SWAP2 POP POP SWAP3 SWAP2 POP POP JUMP JUMPDEST PUSH3 0x398B DUP2 PUSH3 0x35FD JUMP JUMPDEST DUP2 EQ PUSH3 0x3997 JUMPI PUSH1 0x0 DUP1 REVERT JUMPDEST POP JUMP JUMPDEST PUSH1 0x0 DUP2 CALLDATALOAD SWAP1 POP PUSH3 0x39AB DUP2 PUSH3 0x3980 JUMP JUMPDEST SWAP3 SWAP2 POP POP JUMP JUMPDEST PUSH1 0x0 DUP1 PUSH1 0x40 DUP4 DUP6 SUB SLT ISZERO PUSH3 0x39CB JUMPI PUSH3 0x39CA PUSH3 0x3564 JUMP JUMPDEST JUMPDEST PUSH1 0x0 PUSH3 0x39DB DUP6 DUP3 DUP7 ADD PUSH3 0x37DE JUMP JUMPDEST SWAP3 POP POP PUSH1 0x20 PUSH3 0x39EE DUP6 DUP3 DUP7 ADD PUSH3 0x399A JUMP JUMPDEST SWAP2 POP POP SWAP3 POP SWAP3 SWAP1 POP JUMP JUMPDEST PUSH1 0x0 DUP1 REVERT JUMPDEST PUSH1 0x0 DUP1 REVERT JUMPDEST PUSH32 0x4E487B7100000000000000000000000000000000000000000000000000000000 PUSH1 0x0 MSTORE PUSH1 0x41 PUSH1 0x4 MSTORE PUSH1 0x24 PUSH1 0x0 REVERT JUMPDEST PUSH3 0x3A3C DUP3 PUSH3 0x367F JUMP JUMPDEST DUP2 ADD DUP2 DUP2 LT PUSH8 0xFFFFFFFFFFFFFFFF DUP3 GT OR ISZERO PUSH3 0x3A5E JUMPI PUSH3 0x3A5D PUSH3 0x3A02 JUMP JUMPDEST JUMPDEST DUP1 PUSH1 0x40 MSTORE POP POP POP JUMP JUMPDEST PUSH1 0x0 PUSH3 0x3A73 PUSH3 0x355A JUMP JUMPDEST SWAP1 POP PUSH3 0x3A81 DUP3 DUP3 PUSH3 0x3A31 JUMP JUMPDEST SWAP2 SWAP1 POP JUMP JUMPDEST PUSH1 0x0 PUSH8 0xFFFFFFFFFFFFFFFF DUP3 GT ISZERO PUSH3 0x3AA4 JUMPI PUSH3 0x3AA3 PUSH3 0x3A02 JUMP JUMPDEST JUMPDEST PUSH3 0x3AAF DUP3 PUSH3 0x367F JUMP JUMPDEST SWAP1 POP PUSH1 0x20 DUP2 ADD SWAP1 POP SWAP2 SWAP1 POP JUMP JUMPDEST DUP3 DUP2 DUP4 CALLDATACOPY PUSH1 0x0 DUP4 DUP4 ADD MSTORE POP POP POP JUMP JUMPDEST PUSH1 0x0 PUSH3 0x3AE2 PUSH3 0x3ADC DUP5 PUSH3 0x3A86 JUMP JUMPDEST PUSH3 0x3A67 JUMP JUMPDEST SWAP1 POP DUP3 DUP2 MSTORE PUSH1 0x20 DUP2 ADD DUP5 DUP5 DUP5 ADD GT ISZERO PUSH3 0x3B01 JUMPI PUSH3 0x3B00 PUSH3 0x39FD JUMP JUMPDEST JUMPDEST PUSH3 0x3B0E DUP5 DUP3 DUP6 PUSH3 0x3ABC JUMP JUMPDEST POP SWAP4 SWAP3 POP POP POP JUMP JUMPDEST PUSH1 0x0 DUP3 PUSH1 0x1F DUP4 ADD SLT PUSH3 0x3B2E JUMPI PUSH3 0x3B2D PUSH3 0x39F8 JUMP JUMPDEST JUMPDEST DUP2 CALLDATALOAD PUSH3 0x3B40 DUP5 DUP3 PUSH1 0x20 DUP7 ADD PUSH3 0x3ACB JUMP JUMPDEST SWAP2 POP POP SWAP3 SWAP2 POP POP JUMP JUMPDEST PUSH1 0x0 DUP1 PUSH1 0x0 DUP1 PUSH1 0x80 DUP6 DUP8 SUB SLT ISZERO PUSH3 0x3B66 JUMPI PUSH3 0x3B65 PUSH3 0x3564 JUMP JUMPDEST JUMPDEST PUSH1 0x0 PUSH3 0x3B76 DUP8 DUP3 DUP9 ADD PUSH3 0x37DE JUMP JUMPDEST SWAP5 POP POP PUSH1 0x20 PUSH3 0x3B89 DUP8 DUP3 DUP9 ADD PUSH3 0x37DE JUMP JUMPDEST SWAP4 POP POP PUSH1 0x40 PUSH3 0x3B9C DUP8 DUP3 DUP9 ADD PUSH3 0x3719 JUMP JUMPDEST SWAP3 POP POP PUSH1 0x60 DUP6 ADD CALLDATALOAD PUSH8 0xFFFFFFFFFFFFFFFF DUP2 GT ISZERO PUSH3 0x3BC0 JUMPI PUSH3 0x3BBF PUSH3 0x3569 JUMP JUMPDEST JUMPDEST PUSH3 0x3BCE DUP8 DUP3 DUP9 ADD PUSH3 0x3B16 JUMP JUMPDEST SWAP2 POP POP SWAP3 SWAP6 SWAP2 SWAP5 POP SWAP3 POP JUMP JUMPDEST PUSH1 0x0 DUP1 PUSH1 0x40 DUP4 DUP6 SUB SLT ISZERO PUSH3 0x3BF4 JUMPI PUSH3 0x3BF3 PUSH3 0x3564 JUMP JUMPDEST JUMPDEST PUSH1 0x0 PUSH3 0x3C04 DUP6 DUP3 DUP7 ADD PUSH3 0x37DE JUMP JUMPDEST SWAP3 POP POP PUSH1 0x20 PUSH3 0x3C17 DUP6 DUP3 DUP7 ADD PUSH3 0x37DE JUMP JUMPDEST SWAP2 POP POP SWAP3 POP SWAP3 SWAP1 POP JUMP JUMPDEST PUSH32 0x4E487B7100000000000000000000000000000000000000000000000000000000 PUSH1 0x0 MSTORE PUSH1 0x22 PUSH1 0x4 MSTORE PUSH1 0x24 PUSH1 0x0 REVERT JUMPDEST PUSH1 0x0 PUSH1 0x2 DUP3 DIV SWAP1 POP PUSH1 0x1 DUP3 AND DUP1 PUSH3 0x3C69 JUMPI PUSH1 0x7F DUP3 AND SWAP2 POP JUMPDEST PUSH1 0x20 DUP3 LT DUP2 SUB PUSH3 0x3C7F JUMPI PUSH3 0x3C7E PUSH3 0x3C21 JUMP JUMPDEST JUMPDEST POP SWAP2 SWAP1 POP JUMP JUMPDEST PUSH32 0x4552433732313A20617070726F76616C20746F2063757272656E74206F776E65 PUSH1 0x0 DUP3 ADD MSTORE PUSH32 0x7200000000000000000000000000000000000000000000000000000000000000 PUSH1 0x20 DUP3 ADD MSTORE POP JUMP JUMPDEST PUSH1 0x0 PUSH3 0x3CE3 PUSH1 0x21 DUP4 PUSH3 0x3642 JUMP JUMPDEST SWAP2 POP PUSH3 0x3CF0 DUP3 PUSH3 0x3C85 JUMP JUMPDEST PUSH1 0x40 DUP3 ADD SWAP1 POP SWAP2 SWAP1 POP JUMP JUMPDEST PUSH1 0x0 PUSH1 0x20 DUP3 ADD SWAP1 POP DUP2 DUP2 SUB PUSH1 0x0 DUP4 ADD MSTORE PUSH3 0x3D16 DUP2 PUSH3 0x3CD4 JUMP JUMPDEST SWAP1 POP SWAP2 SWAP1 POP JUMP JUMPDEST PUSH32 0x4552433732313A20617070726F76652063616C6C6572206973206E6F7420746F PUSH1 0x0 DUP3 ADD MSTORE PUSH32 0x6B656E206F776E6572206F7220617070726F76656420666F7220616C6C000000 PUSH1 0x20 DUP3 ADD MSTORE POP JUMP JUMPDEST PUSH1 0x0 PUSH3 0x3D7B PUSH1 0x3D DUP4 PUSH3 0x3642 JUMP JUMPDEST SWAP2 POP PUSH3 0x3D88 DUP3 PUSH3 0x3D1D JUMP JUMPDEST PUSH1 0x40 DUP3 ADD SWAP1 POP SWAP2 SWAP1 POP JUMP JUMPDEST PUSH1 0x0 PUSH1 0x20 DUP3 ADD SWAP1 POP DUP2 DUP2 SUB PUSH1 0x0 DUP4 ADD MSTORE PUSH3 0x3DAE DUP2 PUSH3 0x3D6C JUMP JUMPDEST SWAP1 POP SWAP2 SWAP1 POP JUMP JUMPDEST PUSH32 0x4552433732313A2063616C6C6572206973206E6F7420746F6B656E206F776E65 PUSH1 0x0 DUP3 ADD MSTORE PUSH32 0x72206F7220617070726F76656400000000000000000000000000000000000000 PUSH1 0x20 DUP3 ADD MSTORE POP JUMP JUMPDEST PUSH1 0x0 PUSH3 0x3E13 PUSH1 0x2D DUP4 PUSH3 0x3642 JUMP JUMPDEST SWAP2 POP PUSH3 0x3E20 DUP3 PUSH3 0x3DB5 JUMP JUMPDEST PUSH1 0x40 DUP3 ADD SWAP1 POP SWAP2 SWAP1 POP JUMP JUMPDEST PUSH1 0x0 PUSH1 0x20 DUP3 ADD SWAP1 POP DUP2 DUP2 SUB PUSH1 0x0 DUP4 ADD MSTORE PUSH3 0x3E46 DUP2 PUSH3 0x3E04 JUMP JUMPDEST SWAP1 POP SWAP2 SWAP1 POP JUMP JUMPDEST PUSH32 0x455243373231456E756D657261626C653A206F776E657220696E646578206F75 PUSH1 0x0 DUP3 ADD MSTORE PUSH32 0x74206F6620626F756E6473000000000000000000000000000000000000000000 PUSH1 0x20 DUP3 ADD MSTORE POP JUMP JUMPDEST PUSH1 0x0 PUSH3 0x3EAB PUSH1 0x2B DUP4 PUSH3 0x3642 JUMP JUMPDEST SWAP2 POP PUSH3 0x3EB8 DUP3 PUSH3 0x3E4D JUMP JUMPDEST PUSH1 0x40 DUP3 ADD SWAP1 POP SWAP2 SWAP1 POP JUMP JUMPDEST PUSH1 0x0 PUSH1 0x20 DUP3 ADD SWAP1 POP DUP2 DUP2 SUB PUSH1 0x0 DUP4 ADD MSTORE PUSH3 0x3EDE DUP2 PUSH3 0x3E9C JUMP JUMPDEST SWAP1 POP SWAP2 SWAP1 POP JUMP JUMPDEST PUSH32 0x455243373231456E756D657261626C653A20676C6F62616C20696E646578206F PUSH1 0x0 DUP3 ADD MSTORE PUSH32 0x7574206F6620626F756E64730000000000000000000000000000000000000000 PUSH1 0x20 DUP3 ADD MSTORE POP JUMP JUMPDEST PUSH1 0x0 PUSH3 0x3F43 PUSH1 0x2C DUP4 PUSH3 0x3642 JUMP JUMPDEST SWAP2 POP PUSH3 0x3F50 DUP3 PUSH3 0x3EE5 JUMP JUMPDEST PUSH1 0x40 DUP3 ADD SWAP1 POP SWAP2 SWAP1 POP JUMP JUMPDEST PUSH1 0x0 PUSH1 0x20 DUP3 ADD SWAP1 POP DUP2 DUP2 SUB PUSH1 0x0 DUP4 ADD MSTORE PUSH3 0x3F76 DUP2 PUSH3 0x3F34 JUMP JUMPDEST SWAP1 POP SWAP2 SWAP1 POP JUMP JUMPDEST PUSH32 0x4E487B7100000000000000000000000000000000000000000000000000000000 PUSH1 0x0 MSTORE PUSH1 0x32 PUSH1 0x4 MSTORE PUSH1 0x24 PUSH1 0x0 REVERT JUMPDEST PUSH32 0x4552433732313A20696E76616C696420746F6B656E2049440000000000000000 PUSH1 0x0 DUP3 ADD MSTORE POP JUMP JUMPDEST PUSH1 0x0 PUSH3 0x3FE4 PUSH1 0x18 DUP4 PUSH3 0x3642 JUMP JUMPDEST SWAP2 POP PUSH3 0x3FF1 DUP3 PUSH3 0x3FAC JUMP JUMPDEST PUSH1 0x20 DUP3 ADD SWAP1 POP SWAP2 SWAP1 POP JUMP JUMPDEST PUSH1 0x0 PUSH1 0x20 DUP3 ADD SWAP1 POP DUP2 DUP2 SUB PUSH1 0x0 DUP4 ADD MSTORE PUSH3 0x4017 DUP2 PUSH3 0x3FD5 JUMP JUMPDEST SWAP1 POP SWAP2 SWAP1 POP JUMP JUMPDEST PUSH32 0x4552433732313A2061646472657373207A65726F206973206E6F742061207661 PUSH1 0x0 DUP3 ADD MSTORE PUSH32 0x6C6964206F776E65720000000000000000000000000000000000000000000000 PUSH1 0x20 DUP3 ADD MSTORE POP JUMP JUMPDEST PUSH1 0x0 PUSH3 0x407C PUSH1 0x29 DUP4 PUSH3 0x3642 JUMP JUMPDEST SWAP2 POP PUSH3 0x4089 DUP3 PUSH3 0x401E JUMP JUMPDEST PUSH1 0x40 DUP3 ADD SWAP1 POP SWAP2 SWAP1 POP JUMP JUMPDEST PUSH1 0x0 PUSH1 0x20 DUP3 ADD SWAP1 POP DUP2 DUP2 SUB PUSH1 0x0 DUP4 ADD MSTORE PUSH3 0x40AF DUP2 PUSH3 0x406D JUMP JUMPDEST SWAP1 POP SWAP2 SWAP1 POP JUMP JUMPDEST PUSH1 0x0 DUP2 SWAP1 POP SWAP2 SWAP1 POP JUMP JUMPDEST PUSH1 0x0 PUSH3 0x40E1 PUSH3 0x40DB PUSH3 0x40D5 DUP5 PUSH3 0x40B6 JUMP JUMPDEST PUSH3 0x386A JUMP JUMPDEST PUSH3 0x36F5 JUMP JUMPDEST SWAP1 POP SWAP2 SWAP1 POP JUMP JUMPDEST PUSH3 0x40F3 DUP2 PUSH3 0x40C0 JUMP JUMPDEST DUP3 MSTORE POP POP JUMP JUMPDEST PUSH1 0x0 PUSH1 0x20 DUP3 ADD SWAP1 POP PUSH3 0x4110 PUSH1 0x0 DUP4 ADD DUP5 PUSH3 0x40E8 JUMP JUMPDEST SWAP3 SWAP2 POP POP JUMP JUMPDEST PUSH1 0x0 DUP2 MLOAD SWAP1 POP PUSH3 0x4127 DUP2 PUSH3 0x37C4 JUMP JUMPDEST SWAP3 SWAP2 POP POP JUMP JUMPDEST PUSH1 0x0 PUSH1 0x20 DUP3 DUP5 SUB SLT ISZERO PUSH3 0x4146 JUMPI PUSH3 0x4145 PUSH3 0x3564 JUMP JUMPDEST JUMPDEST PUSH1 0x0 PUSH3 0x4156 DUP5 DUP3 DUP6 ADD PUSH3 0x4116 JUMP JUMPDEST SWAP2 POP POP SWAP3 SWAP2 POP POP JUMP JUMPDEST PUSH3 0x416A DUP2 PUSH3 0x36F5 JUMP JUMPDEST DUP3 MSTORE POP POP JUMP JUMPDEST PUSH1 0x0 PUSH1 0x20 DUP3 ADD SWAP1 POP PUSH3 0x4187 PUSH1 0x0 DUP4 ADD DUP5 PUSH3 0x415F JUMP JUMPDEST SWAP3 SWAP2 POP POP JUMP JUMPDEST PUSH1 0x5 DUP2 LT PUSH3 0x419B JUMPI PUSH1 0x0 DUP1 REVERT JUMPDEST POP JUMP JUMPDEST PUSH1 0x0 DUP2 MLOAD SWAP1 POP PUSH3 0x41AF DUP2 PUSH3 0x418D JUMP JUMPDEST SWAP3 SWAP2 POP POP JUMP JUMPDEST PUSH1 0x0 PUSH1 0x20 DUP3 DUP5 SUB SLT ISZERO PUSH3 0x41CE JUMPI PUSH3 0x41CD PUSH3 0x3564 JUMP JUMPDEST JUMPDEST PUSH1 0x0 PUSH3 0x41DE DUP5 DUP3 DUP6 ADD PUSH3 0x419E JUMP JUMPDEST SWAP2 POP POP SWAP3 SWAP2 POP POP JUMP JUMPDEST PUSH32 0x4E487B7100000000000000000000000000000000000000000000000000000000 PUSH1 0x0 MSTORE PUSH1 0x21 PUSH1 0x4 MSTORE PUSH1 0x24 PUSH1 0x0 REVERT JUMPDEST PUSH32 0x496E76616C696420436C61737300000000000000000000000000000000000000 PUSH1 0x0 DUP3 ADD MSTORE POP JUMP JUMPDEST PUSH1 0x0 PUSH3 0x424E PUSH1 0xD DUP4 PUSH3 0x3642 JUMP JUMPDEST SWAP2 POP PUSH3 0x425B DUP3 PUSH3 0x4216 JUMP JUMPDEST PUSH1 0x20 DUP3 ADD SWAP1 POP SWAP2 SWAP1 POP JUMP JUMPDEST PUSH1 0x0 PUSH1 0x20 DUP3 ADD SWAP1 POP DUP2 DUP2 SUB PUSH1 0x0 DUP4 ADD MSTORE PUSH3 0x4281 DUP2 PUSH3 0x423F JUMP JUMPDEST SWAP1 POP SWAP2 SWAP1 POP JUMP JUMPDEST PUSH1 0x0 DUP2 SWAP1 POP SWAP3 SWAP2 POP POP JUMP JUMPDEST PUSH1 0x0 PUSH3 0x42A0 DUP3 PUSH3 0x3637 JUMP JUMPDEST PUSH3 0x42AC DUP2 DUP6 PUSH3 0x4288 JUMP JUMPDEST SWAP4 POP PUSH3 0x42BE DUP2 DUP6 PUSH1 0x20 DUP7 ADD PUSH3 0x3653 JUMP JUMPDEST DUP1 DUP5 ADD SWAP2 POP POP SWAP3 SWAP2 POP POP JUMP JUMPDEST PUSH32 0x2F00000000000000000000000000000000000000000000000000000000000000 PUSH1 0x0 DUP3 ADD MSTORE POP JUMP JUMPDEST PUSH1 0x0 PUSH3 0x4302 PUSH1 0x1 DUP4 PUSH3 0x4288 JUMP JUMPDEST SWAP2 POP PUSH3 0x430F DUP3 PUSH3 0x42CA JUMP JUMPDEST PUSH1 0x1 DUP3 ADD SWAP1 POP SWAP2 SWAP1 POP JUMP JUMPDEST PUSH32 0x2E6A736F6E000000000000000000000000000000000000000000000000000000 PUSH1 0x0 DUP3 ADD MSTORE POP JUMP JUMPDEST PUSH1 0x0 PUSH3 0x4352 PUSH1 0x5 DUP4 PUSH3 0x4288 JUMP JUMPDEST SWAP2 POP PUSH3 0x435F DUP3 PUSH3 0x431A JUMP JUMPDEST PUSH1 0x5 DUP3 ADD SWAP1 POP SWAP2 SWAP1 POP JUMP JUMPDEST PUSH1 0x0 PUSH3 0x4378 DUP3 DUP7 PUSH3 0x4293 JUMP JUMPDEST SWAP2 POP PUSH3 0x4386 DUP3 DUP6 PUSH3 0x4293 JUMP JUMPDEST SWAP2 POP PUSH3 0x4393 DUP3 PUSH3 0x42F3 JUMP JUMPDEST SWAP2 POP PUSH3 0x43A1 DUP3 DUP5 PUSH3 0x4293 JUMP JUMPDEST SWAP2 POP PUSH3 0x43AE DUP3 PUSH3 0x4343 JUMP JUMPDEST SWAP2 POP DUP2 SWAP1 POP SWAP5 SWAP4 POP POP POP POP JUMP JUMPDEST PUSH1 0x0 DUP2 MLOAD SWAP1 POP PUSH3 0x43CC DUP2 PUSH3 0x36FF JUMP JUMPDEST SWAP3 SWAP2 POP POP JUMP JUMPDEST PUSH1 0x0 PUSH1 0x20 DUP3 DUP5 SUB SLT ISZERO PUSH3 0x43EB JUMPI PUSH3 0x43EA PUSH3 0x3564 JUMP JUMPDEST JUMPDEST PUSH1 0x0 PUSH3 0x43FB DUP5 DUP3 DUP6 ADD PUSH3 0x43BB JUMP JUMPDEST SWAP2 POP POP SWAP3 SWAP2 POP POP JUMP JUMPDEST PUSH1 0x0 DUP2 SWAP1 POP SWAP2 SWAP1 POP JUMP JUMPDEST PUSH1 0x0 PUSH3 0x442F PUSH3 0x4429 PUSH3 0x4423 DUP5 PUSH3 0x4404 JUMP JUMPDEST PUSH3 0x386A JUMP JUMPDEST PUSH3 0x36F5 JUMP JUMPDEST SWAP1 POP SWAP2 SWAP1 POP JUMP JUMPDEST PUSH3 0x4441 DUP2 PUSH3 0x440E JUMP JUMPDEST DUP3 MSTORE POP POP JUMP JUMPDEST PUSH1 0x0 DUP3 DUP3 MSTORE PUSH1 0x20 DUP3 ADD SWAP1 POP SWAP3 SWAP2 POP POP JUMP JUMPDEST PUSH32 0x53686F756C642062652031000000000000000000000000000000000000000000 PUSH1 0x0 DUP3 ADD MSTORE POP JUMP JUMPDEST PUSH1 0x0 PUSH3 0x4490 PUSH1 0xB DUP4 PUSH3 0x4447 JUMP JUMPDEST SWAP2 POP PUSH3 0x449D DUP3 PUSH3 0x4458 JUMP JUMPDEST PUSH1 0x20 DUP3 ADD SWAP1 POP SWAP2 SWAP1 POP JUMP JUMPDEST PUSH1 0x0 PUSH1 0x60 DUP3 ADD SWAP1 POP PUSH3 0x44BF PUSH1 0x0 DUP4 ADD DUP6 PUSH3 0x415F JUMP JUMPDEST PUSH3 0x44CE PUSH1 0x20 DUP4 ADD DUP5 PUSH3 0x4436 JUMP JUMPDEST DUP2 DUP2 SUB PUSH1 0x40 DUP4 ADD MSTORE PUSH3 0x44E1 DUP2 PUSH3 0x4481 JUMP JUMPDEST SWAP1 POP SWAP4 SWAP3 POP POP POP JUMP JUMPDEST PUSH1 0x0 DUP2 MLOAD SWAP1 POP PUSH3 0x44FB DUP2 PUSH3 0x3980 JUMP JUMPDEST SWAP3 SWAP2 POP POP JUMP JUMPDEST PUSH1 0x0 PUSH1 0x20 DUP3 DUP5 SUB SLT ISZERO PUSH3 0x451A JUMPI PUSH3 0x4519 PUSH3 0x3564 JUMP JUMPDEST JUMPDEST PUSH1 0x0 PUSH3 0x452A DUP5 DUP3 DUP6 ADD PUSH3 0x44EA JUMP JUMPDEST SWAP2 POP POP SWAP3 SWAP2 POP POP JUMP JUMPDEST PUSH1 0x0 DUP2 SWAP1 POP SWAP2 SWAP1 POP JUMP JUMPDEST PUSH1 0x0 PUSH3 0x455E PUSH3 0x4558 PUSH3 0x4552 DUP5 PUSH3 0x4533 JUMP JUMPDEST PUSH3 0x386A JUMP JUMPDEST PUSH3 0x36F5 JUMP JUMPDEST SWAP1 POP SWAP2 SWAP1 POP JUMP JUMPDEST PUSH3 0x4570 DUP2 PUSH3 0x453D JUMP JUMPDEST DUP3 MSTORE POP POP JUMP JUMPDEST PUSH1 0x0 PUSH1 0x40 DUP3 ADD SWAP1 POP PUSH3 0x458D PUSH1 0x0 DUP4 ADD DUP6 PUSH3 0x3796 JUMP JUMPDEST PUSH3 0x459C PUSH1 0x20 DUP4 ADD DUP5 PUSH3 0x4565 JUMP JUMPDEST SWAP4 SWAP3 POP POP POP JUMP JUMPDEST PUSH1 0x0 DUP2 SWAP1 POP SWAP2 SWAP1 POP JUMP JUMPDEST PUSH1 0x0 PUSH3 0x45CE PUSH3 0x45C8 PUSH3 0x45C2 DUP5 PUSH3 0x45A3 JUMP JUMPDEST PUSH3 0x386A JUMP JUMPDEST PUSH3 0x36F5 JUMP JUMPDEST SWAP1 POP SWAP2 SWAP1 POP JUMP JUMPDEST PUSH3 0x45E0 DUP2 PUSH3 0x45AD JUMP JUMPDEST DUP3 MSTORE POP POP JUMP JUMPDEST PUSH32 0x53686F756C642062652036000000000000000000000000000000000000000000 PUSH1 0x0 DUP3 ADD MSTORE POP JUMP JUMPDEST PUSH1 0x0 PUSH3 0x461E PUSH1 0xB DUP4 PUSH3 0x4447 JUMP JUMPDEST SWAP2 POP PUSH3 0x462B DUP3 PUSH3 0x45E6 JUMP JUMPDEST PUSH1 0x20 DUP3 ADD SWAP1 POP SWAP2 SWAP1 POP JUMP JUMPDEST PUSH1 0x0 PUSH1 0x60 DUP3 ADD SWAP1 POP PUSH3 0x464D PUSH1 0x0 DUP4 ADD DUP6 PUSH3 0x415F JUMP JUMPDEST PUSH3 0x465C PUSH1 0x20 DUP4 ADD DUP5 PUSH3 0x45D5 JUMP JUMPDEST DUP2 DUP2 SUB PUSH1 0x40 DUP4 ADD MSTORE PUSH3 0x466F DUP2 PUSH3 0x460F JUMP JUMPDEST SWAP1 POP SWAP4 SWAP3 POP POP POP JUMP JUMPDEST PUSH1 0x0 DUP2 SWAP1 POP SWAP2 SWAP1 POP JUMP JUMPDEST PUSH1 0x0 PUSH3 0x46A3 PUSH3 0x469D PUSH3 0x4697 DUP5 PUSH3 0x4678 JUMP JUMPDEST PUSH3 0x386A JUMP JUMPDEST PUSH3 0x36F5 JUMP JUMPDEST SWAP1 POP SWAP2 SWAP1 POP JUMP JUMPDEST PUSH3 0x46B5 DUP2 PUSH3 0x4682 JUMP JUMPDEST DUP3 MSTORE POP POP JUMP JUMPDEST PUSH1 0x0 PUSH1 0x40 DUP3 ADD SWAP1 POP PUSH3 0x46D2 PUSH1 0x0 DUP4 ADD DUP6 PUSH3 0x3796 JUMP JUMPDEST PUSH3 0x46E1 PUSH1 0x20 DUP4 ADD DUP5 PUSH3 0x46AA JUMP JUMPDEST SWAP4 SWAP3 POP POP POP JUMP JUMPDEST PUSH1 0x0 DUP2 PUSH1 0xE0 SHR SWAP1 POP SWAP2 SWAP1 POP JUMP JUMPDEST PUSH1 0x0 PUSH1 0x3 RETURNDATASIZE GT ISZERO PUSH3 0x4717 JUMPI PUSH1 0x4 PUSH1 0x0 DUP1 RETURNDATACOPY PUSH3 0x4714 PUSH1 0x0 MLOAD PUSH3 0x46E8 JUMP JUMPDEST SWAP1 POP JUMPDEST SWAP1 JUMP JUMPDEST PUSH1 0x0 PUSH1 0x44 RETURNDATASIZE LT PUSH3 0x47B2 JUMPI PUSH3 0x472F PUSH3 0x355A JUMP JUMPDEST PUSH1 0x4 RETURNDATASIZE SUB PUSH1 0x4 DUP3 RETURNDATACOPY DUP1 MLOAD RETURNDATASIZE PUSH1 0x24 DUP3 ADD GT PUSH8 0xFFFFFFFFFFFFFFFF DUP3 GT OR ISZERO PUSH3 0x4759 JUMPI POP POP PUSH3 0x47B2 JUMP JUMPDEST DUP1 DUP3 ADD DUP1 MLOAD PUSH8 0xFFFFFFFFFFFFFFFF DUP2 GT ISZERO PUSH3 0x4779 JUMPI POP POP POP POP PUSH3 0x47B2 JUMP JUMPDEST DUP1 PUSH1 0x20 DUP4 ADD ADD PUSH1 0x4 RETURNDATASIZE SUB DUP6 ADD DUP2 GT ISZERO PUSH3 0x4798 JUMPI POP POP POP POP POP PUSH3 0x47B2 JUMP JUMPDEST PUSH3 0x47A9 DUP3 PUSH1 0x20 ADD DUP6 ADD DUP7 PUSH3 0x3A31 JUMP JUMPDEST DUP3 SWAP6 POP POP POP POP POP POP JUMPDEST SWAP1 JUMP JUMPDEST PUSH3 0x47C0 DUP2 PUSH3 0x35FD JUMP JUMPDEST DUP3 MSTORE POP POP JUMP JUMPDEST PUSH32 0x73686F756C64206661696C20666F722033000000000000000000000000000000 PUSH1 0x0 DUP3 ADD MSTORE POP JUMP JUMPDEST PUSH1 0x0 PUSH3 0x47FE PUSH1 0x11 DUP4 PUSH3 0x4447 JUMP JUMPDEST SWAP2 POP PUSH3 0x480B DUP3 PUSH3 0x47C6 JUMP JUMPDEST PUSH1 0x20 DUP3 ADD SWAP1 POP SWAP2 SWAP1 POP JUMP JUMPDEST PUSH1 0x0 PUSH1 0x40 DUP3 ADD SWAP1 POP PUSH3 0x482D PUSH1 0x0 DUP4 ADD DUP5 PUSH3 0x47B5 JUMP JUMPDEST DUP2 DUP2 SUB PUSH1 0x20 DUP4 ADD MSTORE PUSH3 0x4840 DUP2 PUSH3 0x47EF JUMP JUMPDEST SWAP1 POP SWAP3 SWAP2 POP POP JUMP JUMPDEST PUSH32 0x6661696C656420756E6578706563746564000000000000000000000000000000 PUSH1 0x0 DUP3 ADD MSTORE POP JUMP JUMPDEST PUSH1 0x0 PUSH3 0x4880 PUSH1 0x11 DUP4 PUSH3 0x4447 JUMP JUMPDEST SWAP2 POP PUSH3 0x488D DUP3 PUSH3 0x4848 JUMP JUMPDEST PUSH1 0x20 DUP3 ADD SWAP1 POP SWAP2 SWAP1 POP JUMP JUMPDEST PUSH1 0x0 PUSH1 0x40 DUP3 ADD SWAP1 POP PUSH3 0x48AF PUSH1 0x0 DUP4 ADD DUP5 PUSH3 0x47B5 JUMP JUMPDEST DUP2 DUP2 SUB PUSH1 0x20 DUP4 ADD MSTORE PUSH3 0x48C2 DUP2 PUSH3 0x4871 JUMP JUMPDEST SWAP1 POP SWAP3 SWAP2 POP POP JUMP JUMPDEST PUSH32 0x3320616C7265616479206D696E74656400000000000000000000000000000000 PUSH1 0x0 DUP3 ADD MSTORE POP JUMP JUMPDEST PUSH1 0x0 PUSH3 0x4902 PUSH1 0x10 DUP4 PUSH3 0x4447 JUMP JUMPDEST SWAP2 POP PUSH3 0x490F DUP3 PUSH3 0x48CA JUMP JUMPDEST PUSH1 0x20 DUP3 ADD SWAP1 POP SWAP2 SWAP1 POP JUMP JUMPDEST PUSH1 0x0 PUSH1 0x40 DUP3 ADD SWAP1 POP PUSH3 0x4931 PUSH1 0x0 DUP4 ADD DUP5 PUSH3 0x47B5 JUMP JUMPDEST DUP2 DUP2 SUB PUSH1 0x20 DUP4 ADD MSTORE PUSH3 0x4944 DUP2 PUSH3 0x48F3 JUMP JUMPDEST SWAP1 POP SWAP3 SWAP2 POP POP JUMP JUMPDEST PUSH1 0x0 DUP2 SWAP1 POP SWAP2 SWAP1 POP JUMP JUMPDEST PUSH1 0x0 PUSH3 0x4977 PUSH3 0x4971 PUSH3 0x496B DUP5 PUSH3 0x494C JUMP JUMPDEST PUSH3 0x386A JUMP JUMPDEST PUSH3 0x36F5 JUMP JUMPDEST SWAP1 POP SWAP2 SWAP1 POP JUMP JUMPDEST PUSH3 0x4989 DUP2 PUSH3 0x4956 JUMP JUMPDEST DUP3 MSTORE POP POP JUMP JUMPDEST PUSH1 0x0 PUSH1 0x40 DUP3 ADD SWAP1 POP PUSH3 0x49A6 PUSH1 0x0 DUP4 ADD DUP6 PUSH3 0x3796 JUMP JUMPDEST PUSH3 0x49B5 PUSH1 0x20 DUP4 ADD DUP5 PUSH3 0x497E JUMP JUMPDEST SWAP4 SWAP3 POP POP POP JUMP JUMPDEST PUSH1 0x0 DUP2 SWAP1 POP SWAP2 SWAP1 POP JUMP JUMPDEST PUSH1 0x0 PUSH3 0x49E7 PUSH3 0x49E1 PUSH3 0x49DB DUP5 PUSH3 0x49BC JUMP JUMPDEST PUSH3 0x386A JUMP JUMPDEST PUSH3 0x36F5 JUMP JUMPDEST SWAP1 POP SWAP2 SWAP1 POP JUMP JUMPDEST PUSH3 0x49F9 DUP2 PUSH3 0x49C6 JUMP JUMPDEST DUP3 MSTORE POP POP JUMP JUMPDEST PUSH32 0x53686F756C642062652037000000000000000000000000000000000000000000 PUSH1 0x0 DUP3 ADD MSTORE POP JUMP JUMPDEST PUSH1 0x0 PUSH3 0x4A37 PUSH1 0xB DUP4 PUSH3 0x4447 JUMP JUMPDEST SWAP2 POP PUSH3 0x4A44 DUP3 PUSH3 0x49FF JUMP JUMPDEST PUSH1 0x20 DUP3 ADD SWAP1 POP SWAP2 SWAP1 POP JUMP JUMPDEST PUSH1 0x0 PUSH1 0x60 DUP3 ADD SWAP1 POP PUSH3 0x4A66 PUSH1 0x0 DUP4 ADD DUP6 PUSH3 0x415F JUMP JUMPDEST PUSH3 0x4A75 PUSH1 0x20 DUP4 ADD DUP5 PUSH3 0x49EE JUMP JUMPDEST DUP2 DUP2 SUB PUSH1 0x40 DUP4 ADD MSTORE PUSH3 0x4A88 DUP2 PUSH3 0x4A28 JUMP JUMPDEST SWAP1 POP SWAP4 SWAP3 POP POP POP JUMP JUMPDEST PUSH32 0x4F776E61626C653A206E6577206F776E657220697320746865207A65726F2061 PUSH1 0x0 DUP3 ADD MSTORE PUSH32 0x6464726573730000000000000000000000000000000000000000000000000000 PUSH1 0x20 DUP3 ADD MSTORE POP JUMP JUMPDEST PUSH1 0x0 PUSH3 0x4AEF PUSH1 0x26 DUP4 PUSH3 0x3642 JUMP JUMPDEST SWAP2 POP PUSH3 0x4AFC DUP3 PUSH3 0x4A91 JUMP JUMPDEST PUSH1 0x40 DUP3 ADD SWAP1 POP SWAP2 SWAP1 POP JUMP JUMPDEST PUSH1 0x0 PUSH1 0x20 DUP3 ADD SWAP1 POP DUP2 DUP2 SUB PUSH1 0x0 DUP4 ADD MSTORE PUSH3 0x4B22 DUP2 PUSH3 0x4AE0 JUMP JUMPDEST SWAP1 POP SWAP2 SWAP1 POP JUMP JUMPDEST PUSH32 0x4E487B7100000000000000000000000000000000000000000000000000000000 PUSH1 0x0 MSTORE PUSH1 0x11 PUSH1 0x4 MSTORE PUSH1 0x24 PUSH1 0x0 REVERT JUMPDEST PUSH1 0x0 PUSH3 0x4B65 DUP3 PUSH3 0x36F5 JUMP JUMPDEST SWAP2 POP PUSH3 0x4B72 DUP4 PUSH3 0x36F5 JUMP JUMPDEST SWAP3 POP DUP3 DUP3 SUB SWAP1 POP DUP2 DUP2 GT ISZERO PUSH3 0x4B8D JUMPI PUSH3 0x4B8C PUSH3 0x4B29 JUMP JUMPDEST JUMPDEST SWAP3 SWAP2 POP POP JUMP JUMPDEST PUSH1 0x0 PUSH3 0x4BA0 DUP3 PUSH3 0x36F5 JUMP JUMPDEST SWAP2 POP PUSH3 0x4BAD DUP4 PUSH3 0x36F5 JUMP JUMPDEST SWAP3 POP DUP3 DUP3 ADD SWAP1 POP DUP1 DUP3 GT ISZERO PUSH3 0x4BC8 JUMPI PUSH3 0x4BC7 PUSH3 0x4B29 JUMP JUMPDEST JUMPDEST SWAP3 SWAP2 POP POP JUMP JUMPDEST PUSH1 0x0 PUSH3 0x4BDB DUP3 PUSH3 0x36F5 JUMP JUMPDEST SWAP2 POP PUSH32 0xFFFFFFFFFFFFFFFFFFFFFFFFFFFFFFFFFFFFFFFFFFFFFFFFFFFFFFFFFFFFFFFF DUP3 SUB PUSH3 0x4C10 JUMPI PUSH3 0x4C0F PUSH3 0x4B29 JUMP JUMPDEST JUMPDEST PUSH1 0x1 DUP3 ADD SWAP1 POP SWAP2 SWAP1 POP JUMP JUMPDEST PUSH32 0x4552433732313A207472616E736665722066726F6D20696E636F727265637420 PUSH1 0x0 DUP3 ADD MSTORE PUSH32 0x6F776E6572000000000000000000000000000000000000000000000000000000 PUSH1 0x20 DUP3 ADD MSTORE POP JUMP JUMPDEST PUSH1 0x0 PUSH3 0x4C79 PUSH1 0x25 DUP4 PUSH3 0x3642 JUMP JUMPDEST SWAP2 POP PUSH3 0x4C86 DUP3 PUSH3 0x4C1B JUMP JUMPDEST PUSH1 0x40 DUP3 ADD SWAP1 POP SWAP2 SWAP1 POP JUMP JUMPDEST PUSH1 0x0 PUSH1 0x20 DUP3 ADD SWAP1 POP DUP2 DUP2 SUB PUSH1 0x0 DUP4 ADD MSTORE PUSH3 0x4CAC DUP2 PUSH3 0x4C6A JUMP JUMPDEST SWAP1 POP SWAP2 SWAP1 POP JUMP JUMPDEST PUSH32 0x4552433732313A207472616E7366657220746F20746865207A65726F20616464 PUSH1 0x0 DUP3 ADD MSTORE PUSH32 0x7265737300000000000000000000000000000000000000000000000000000000 PUSH1 0x20 DUP3 ADD MSTORE POP JUMP JUMPDEST PUSH1 0x0 PUSH3 0x4D11 PUSH1 0x24 DUP4 PUSH3 0x3642 JUMP JUMPDEST SWAP2 POP PUSH3 0x4D1E DUP3 PUSH3 0x4CB3 JUMP JUMPDEST PUSH1 0x40 DUP3 ADD SWAP1 POP SWAP2 SWAP1 POP JUMP JUMPDEST PUSH1 0x0 PUSH1 0x20 DUP3 ADD SWAP1 POP DUP2 DUP2 SUB PUSH1 0x0 DUP4 ADD MSTORE PUSH3 0x4D44 DUP2 PUSH3 0x4D02 JUMP JUMPDEST SWAP1 POP SWAP2 SWAP1 POP JUMP JUMPDEST PUSH32 0x4F776E61626C653A2063616C6C6572206973206E6F7420746865206F776E6572 PUSH1 0x0 DUP3 ADD MSTORE POP JUMP JUMPDEST PUSH1 0x0 PUSH3 0x4D83 PUSH1 0x20 DUP4 PUSH3 0x3642 JUMP JUMPDEST SWAP2 POP PUSH3 0x4D90 DUP3 PUSH3 0x4D4B JUMP JUMPDEST PUSH1 0x20 DUP3 ADD SWAP1 POP SWAP2 SWAP1 POP JUMP JUMPDEST PUSH1 0x0 PUSH1 0x20 DUP3 ADD SWAP1 POP DUP2 DUP2 SUB PUSH1 0x0 DUP4 ADD MSTORE PUSH3 0x4DB6 DUP2 PUSH3 0x4D74 JUMP JUMPDEST SWAP1 POP SWAP2 SWAP1 POP JUMP JUMPDEST PUSH32 0x4552433732313A20617070726F766520746F2063616C6C657200000000000000 PUSH1 0x0 DUP3 ADD MSTORE POP JUMP JUMPDEST PUSH1 0x0 PUSH3 0x4DF5 PUSH1 0x19 DUP4 PUSH3 0x3642 JUMP JUMPDEST SWAP2 POP PUSH3 0x4E02 DUP3 PUSH3 0x4DBD JUMP JUMPDEST PUSH1 0x20 DUP3 ADD SWAP1 POP SWAP2 SWAP1 POP JUMP JUMPDEST PUSH1 0x0 PUSH1 0x20 DUP3 ADD SWAP1 POP DUP2 DUP2 SUB PUSH1 0x0 DUP4 ADD MSTORE PUSH3 0x4E28 DUP2 PUSH3 0x4DE6 JUMP JUMPDEST SWAP1 POP SWAP2 SWAP1 POP JUMP JUMPDEST PUSH32 0x4552433732313A207472616E7366657220746F206E6F6E204552433732315265 PUSH1 0x0 DUP3 ADD MSTORE PUSH32 0x63656976657220696D706C656D656E7465720000000000000000000000000000 PUSH1 0x20 DUP3 ADD MSTORE POP JUMP JUMPDEST PUSH1 0x0 PUSH3 0x4E8D PUSH1 0x32 DUP4 PUSH3 0x3642 JUMP JUMPDEST SWAP2 POP PUSH3 0x4E9A DUP3 PUSH3 0x4E2F JUMP JUMPDEST PUSH1 0x40 DUP3 ADD SWAP1 POP SWAP2 SWAP1 POP JUMP JUMPDEST PUSH1 0x0 PUSH1 0x20 DUP3 ADD SWAP1 POP DUP2 DUP2 SUB PUSH1 0x0 DUP4 ADD MSTORE PUSH3 0x4EC0 DUP2 PUSH3 0x4E7E JUMP JUMPDEST SWAP1 POP SWAP2 SWAP1 POP JUMP JUMPDEST PUSH32 0x4E487B7100000000000000000000000000000000000000000000000000000000 PUSH1 0x0 MSTORE PUSH1 0x12 PUSH1 0x4 MSTORE PUSH1 0x24 PUSH1 0x0 REVERT JUMPDEST PUSH32 0x5061757361626C653A206E6F7420706175736564000000000000000000000000 PUSH1 0x0 DUP3 ADD MSTORE POP JUMP JUMPDEST PUSH1 0x0 PUSH3 0x4F2E PUSH1 0x14 DUP4 PUSH3 0x3642 JUMP JUMPDEST SWAP2 POP PUSH3 0x4F3B DUP3 PUSH3 0x4EF6 JUMP JUMPDEST PUSH1 0x20 DUP3 ADD SWAP1 POP SWAP2 SWAP1 POP JUMP JUMPDEST PUSH1 0x0 PUSH1 0x20 DUP3 ADD SWAP1 POP DUP2 DUP2 SUB PUSH1 0x0 DUP4 ADD MSTORE PUSH3 0x4F61 DUP2 PUSH3 0x4F1F JUMP JUMPDEST SWAP1 POP SWAP2 SWAP1 POP JUMP JUMPDEST PUSH32 0x5061757361626C653A2070617573656400000000000000000000000000000000 PUSH1 0x0 DUP3 ADD MSTORE POP JUMP JUMPDEST PUSH1 0x0 PUSH3 0x4FA0 PUSH1 0x10 DUP4 PUSH3 0x3642 JUMP JUMPDEST SWAP2 POP PUSH3 0x4FAD DUP3 PUSH3 0x4F68 JUMP JUMPDEST PUSH1 0x20 DUP3 ADD SWAP1 POP SWAP2 SWAP1 POP JUMP JUMPDEST PUSH1 0x0 PUSH1 0x20 DUP3 ADD SWAP1 POP DUP2 DUP2 SUB PUSH1 0x0 DUP4 ADD MSTORE PUSH3 0x4FD3 DUP2 PUSH3 0x4F91 JUMP JUMPDEST SWAP1 POP SWAP2 SWAP1 POP JUMP JUMPDEST PUSH1 0x0 DUP2 MLOAD SWAP1 POP SWAP2 SWAP1 POP JUMP JUMPDEST PUSH1 0x0 DUP3 DUP3 MSTORE PUSH1 0x20 DUP3 ADD SWAP1 POP SWAP3 SWAP2 POP POP JUMP JUMPDEST PUSH1 0x0 PUSH3 0x5003 DUP3 PUSH3 0x4FDA JUMP JUMPDEST PUSH3 0x500F DUP2 DUP6 PUSH3 0x4FE5 JUMP JUMPDEST SWAP4 POP PUSH3 0x5021 DUP2 DUP6 PUSH1 0x20 DUP7 ADD PUSH3 0x3653 JUMP JUMPDEST PUSH3 0x502C DUP2 PUSH3 0x367F JUMP JUMPDEST DUP5 ADD SWAP2 POP POP SWAP3 SWAP2 POP POP JUMP JUMPDEST PUSH1 0x0 PUSH1 0x80 DUP3 ADD SWAP1 POP PUSH3 0x504E PUSH1 0x0 DUP4 ADD DUP8 PUSH3 0x3796 JUMP JUMPDEST PUSH3 0x505D PUSH1 0x20 DUP4 ADD DUP7 PUSH3 0x3796 JUMP JUMPDEST PUSH3 0x506C PUSH1 0x40 DUP4 ADD DUP6 PUSH3 0x383C JUMP JUMPDEST DUP2 DUP2 SUB PUSH1 0x60 DUP4 ADD MSTORE PUSH3 0x5080 DUP2 DUP5 PUSH3 0x4FF6 JUMP JUMPDEST SWAP1 POP SWAP6 SWAP5 POP POP POP POP POP JUMP JUMPDEST PUSH1 0x0 DUP2 MLOAD SWAP1 POP PUSH3 0x509C DUP2 PUSH3 0x359A JUMP JUMPDEST SWAP3 SWAP2 POP POP JUMP JUMPDEST PUSH1 0x0 PUSH1 0x20 DUP3 DUP5 SUB SLT ISZERO PUSH3 0x50BB JUMPI PUSH3 0x50BA PUSH3 0x3564 JUMP JUMPDEST JUMPDEST PUSH1 0x0 PUSH3 0x50CB DUP5 DUP3 DUP6 ADD PUSH3 0x508B JUMP JUMPDEST SWAP2 POP POP SWAP3 SWAP2 POP POP JUMP JUMPDEST PUSH32 0x455243373231456E756D657261626C653A20636F6E7365637574697665207472 PUSH1 0x0 DUP3 ADD MSTORE PUSH32 0x616E7366657273206E6F7420737570706F727465640000000000000000000000 PUSH1 0x20 DUP3 ADD MSTORE POP JUMP JUMPDEST PUSH1 0x0 PUSH3 0x5132 PUSH1 0x35 DUP4 PUSH3 0x3642 JUMP JUMPDEST SWAP2 POP PUSH3 0x513F DUP3 PUSH3 0x50D4 JUMP JUMPDEST PUSH1 0x40 DUP3 ADD SWAP1 POP SWAP2 SWAP1 POP JUMP JUMPDEST PUSH1 0x0 PUSH1 0x20 DUP3 ADD SWAP1 POP DUP2 DUP2 SUB PUSH1 0x0 DUP4 ADD MSTORE PUSH3 0x5165 DUP2 PUSH3 0x5123 JUMP JUMPDEST SWAP1 POP SWAP2 SWAP1 POP JUMP JUMPDEST PUSH32 0x4552433732313A206D696E7420746F20746865207A65726F2061646472657373 PUSH1 0x0 DUP3 ADD MSTORE POP JUMP JUMPDEST PUSH1 0x0 PUSH3 0x51A4 PUSH1 0x20 DUP4 PUSH3 0x3642 JUMP JUMPDEST SWAP2 POP PUSH3 0x51B1 DUP3 PUSH3 0x516C JUMP JUMPDEST PUSH1 0x20 DUP3 ADD SWAP1 POP SWAP2 SWAP1 POP JUMP JUMPDEST PUSH1 0x0 PUSH1 0x20 DUP3 ADD SWAP1 POP DUP2 DUP2 SUB PUSH1 0x0 DUP4 ADD MSTORE PUSH3 0x51D7 DUP2 PUSH3 0x5195 JUMP JUMPDEST SWAP1 POP SWAP2 SWAP1 POP JUMP JUMPDEST PUSH32 0x4552433732313A20746F6B656E20616C7265616479206D696E74656400000000 PUSH1 0x0 DUP3 ADD MSTORE POP JUMP JUMPDEST PUSH1 0x0 PUSH3 0x5216 PUSH1 0x1C DUP4 PUSH3 0x3642 JUMP JUMPDEST SWAP2 POP PUSH3 0x5223 DUP3 PUSH3 0x51DE JUMP JUMPDEST PUSH1 0x20 DUP3 ADD SWAP1 POP SWAP2 SWAP1 POP JUMP JUMPDEST PUSH1 0x0 PUSH1 0x20 DUP3 ADD SWAP1 POP DUP2 DUP2 SUB PUSH1 0x0 DUP4 ADD MSTORE PUSH3 0x5249 DUP2 PUSH3 0x5207 JUMP JUMPDEST SWAP1 POP SWAP2 SWAP1 POP JUMP JUMPDEST PUSH32 0x4E487B7100000000000000000000000000000000000000000000000000000000 PUSH1 0x0 MSTORE PUSH1 0x31 PUSH1 0x4 MSTORE PUSH1 0x24 PUSH1 0x0 REVERT INVALID PUSH1 0x80 PUSH1 0x40 MSTORE CALLVALUE DUP1 ISZERO PUSH3 0x11 JUMPI PUSH1 0x0 DUP1 REVERT JUMPDEST POP PUSH1 0x40 MLOAD DUP1 PUSH1 0x40 ADD PUSH1 0x40 MSTORE DUP1 PUSH1 0x11 DUP2 MSTORE PUSH1 0x20 ADD PUSH32 0x446175676874657273206F662041727961000000000000000000000000000000 DUP2 MSTORE POP PUSH1 0x40 MLOAD DUP1 PUSH1 0x40 ADD PUSH1 0x40 MSTORE DUP1 PUSH1 0x3 DUP2 MSTORE PUSH1 0x20 ADD PUSH32 0x446F410000000000000000000000000000000000000000000000000000000000 DUP2 MSTORE POP DUP2 PUSH1 0x0 SWAP1 DUP2 PUSH3 0x8F SWAP2 SWAP1 PUSH3 0x485 JUMP JUMPDEST POP DUP1 PUSH1 0x1 SWAP1 DUP2 PUSH3 0xA1 SWAP2 SWAP1 PUSH3 0x485 JUMP JUMPDEST POP POP POP PUSH1 0x0 PUSH1 0xB PUSH1 0x0 PUSH2 0x100 EXP DUP2 SLOAD DUP2 PUSH1 0xFF MUL NOT AND SWAP1 DUP4 ISZERO ISZERO MUL OR SWAP1 SSTORE POP PUSH3 0xDF PUSH3 0xD3 PUSH3 0x13D PUSH1 0x20 SHL PUSH1 0x20 SHR JUMP JUMPDEST PUSH3 0x145 PUSH1 0x20 SHL PUSH1 0x20 SHR JUMP JUMPDEST PUSH1 0x1 PUSH1 0xC PUSH1 0x0 CALLER PUSH20 0xFFFFFFFFFFFFFFFFFFFFFFFFFFFFFFFFFFFFFFFF AND PUSH20 0xFFFFFFFFFFFFFFFFFFFFFFFFFFFFFFFFFFFFFFFF AND DUP2 MSTORE PUSH1 0x20 ADD SWAP1 DUP2 MSTORE PUSH1 0x20 ADD PUSH1 0x0 KECCAK256 PUSH1 0x0 PUSH2 0x100 EXP DUP2 SLOAD DUP2 PUSH1 0xFF MUL NOT AND SWAP1 DUP4 ISZERO ISZERO MUL OR SWAP1 SSTORE POP PUSH3 0x56C JUMP JUMPDEST PUSH1 0x0 CALLER SWAP1 POP SWAP1 JUMP JUMPDEST PUSH1 0x0 PUSH1 0xB PUSH1 0x1 SWAP1 SLOAD SWAP1 PUSH2 0x100 EXP SWAP1 DIV PUSH20 0xFFFFFFFFFFFFFFFFFFFFFFFFFFFFFFFFFFFFFFFF AND SWAP1 POP DUP2 PUSH1 0xB PUSH1 0x1 PUSH2 0x100 EXP DUP2 SLOAD DUP2 PUSH20 0xFFFFFFFFFFFFFFFFFFFFFFFFFFFFFFFFFFFFFFFF MUL NOT AND SWAP1 DUP4 PUSH20 0xFFFFFFFFFFFFFFFFFFFFFFFFFFFFFFFFFFFFFFFF AND MUL OR SWAP1 SSTORE POP DUP2 PUSH20 0xFFFFFFFFFFFFFFFFFFFFFFFFFFFFFFFFFFFFFFFF AND DUP2 PUSH20 0xFFFFFFFFFFFFFFFFFFFFFFFFFFFFFFFFFFFFFFFF AND PUSH32 0x8BE0079C531659141344CD1FD0A4F28419497F9722A3DAAFE3B4186F6B6457E0 PUSH1 0x40 MLOAD PUSH1 0x40 MLOAD DUP1 SWAP2 SUB SWAP1 LOG3 POP POP JUMP JUMPDEST PUSH1 0x0 DUP2 MLOAD SWAP1 POP SWAP2 SWAP1 POP JUMP JUMPDEST PUSH32 0x4E487B7100000000000000000000000000000000000000000000000000000000 PUSH1 0x0 MSTORE PUSH1 0x41 PUSH1 0x4 MSTORE PUSH1 0x24 PUSH1 0x0 REVERT JUMPDEST PUSH32 0x4E487B7100000000000000000000000000000000000000000000000000000000 PUSH1 0x0 MSTORE PUSH1 0x22 PUSH1 0x4 MSTORE PUSH1 0x24 PUSH1 0x0 REVERT JUMPDEST PUSH1 0x0 PUSH1 0x2 DUP3 DIV SWAP1 POP PUSH1 0x1 DUP3 AND DUP1 PUSH3 0x28D JUMPI PUSH1 0x7F DUP3 AND SWAP2 POP JUMPDEST PUSH1 0x20 DUP3 LT DUP2 SUB PUSH3 0x2A3 JUMPI PUSH3 0x2A2 PUSH3 0x245 JUMP JUMPDEST JUMPDEST POP SWAP2 SWAP1 POP JUMP JUMPDEST PUSH1 0x0 DUP2 SWAP1 POP DUP2 PUSH1 0x0 MSTORE PUSH1 0x20 PUSH1 0x0 KECCAK256 SWAP1 POP SWAP2 SWAP1 POP JUMP JUMPDEST PUSH1 0x0 PUSH1 0x20 PUSH1 0x1F DUP4 ADD DIV SWAP1 POP SWAP2 SWAP1 POP JUMP JUMPDEST PUSH1 0x0 DUP3 DUP3 SHL SWAP1 POP SWAP3 SWAP2 POP POP JUMP JUMPDEST PUSH1 0x0 PUSH1 0x8 DUP4 MUL PUSH3 0x30D PUSH32 0xFFFFFFFFFFFFFFFFFFFFFFFFFFFFFFFFFFFFFFFFFFFFFFFFFFFFFFFFFFFFFFFF DUP3 PUSH3 0x2CE JUMP JUMPDEST PUSH3 0x319 DUP7 DUP4 PUSH3 0x2CE JUMP JUMPDEST SWAP6 POP DUP1 NOT DUP5 AND SWAP4 POP DUP1 DUP7 AND DUP5 OR SWAP3 POP POP POP SWAP4 SWAP3 POP POP POP JUMP JUMPDEST PUSH1 0x0 DUP2 SWAP1 POP SWAP2 SWAP1 POP JUMP JUMPDEST PUSH1 0x0 DUP2 SWAP1 POP SWAP2 SWAP1 POP JUMP JUMPDEST PUSH1 0x0 PUSH3 0x366 PUSH3 0x360 PUSH3 0x35A DUP5 PUSH3 0x331 JUMP JUMPDEST PUSH3 0x33B JUMP JUMPDEST PUSH3 0x331 JUMP JUMPDEST SWAP1 POP SWAP2 SWAP1 POP JUMP JUMPDEST PUSH1 0x0 DUP2 SWAP1 POP SWAP2 SWAP1 POP JUMP JUMPDEST PUSH3 0x382 DUP4 PUSH3 0x345 JUMP JUMPDEST PUSH3 0x39A PUSH3 0x391 DUP3 PUSH3 0x36D JUMP JUMPDEST DUP5 DUP5 SLOAD PUSH3 0x2DB JUMP JUMPDEST DUP3 SSTORE POP POP POP POP JUMP JUMPDEST PUSH1 0x0 SWAP1 JUMP JUMPDEST PUSH3 0x3B1 PUSH3 0x3A2 JUMP JUMPDEST PUSH3 0x3BE DUP2 DUP5 DUP5 PUSH3 0x377 JUMP JUMPDEST POP POP POP JUMP JUMPDEST JUMPDEST DUP2 DUP2 LT ISZERO PUSH3 0x3E6 JUMPI PUSH3 0x3DA PUSH1 0x0 DUP3 PUSH3 0x3A7 JUMP JUMPDEST PUSH1 0x1 DUP2 ADD SWAP1 POP PUSH3 0x3C4 JUMP JUMPDEST POP POP JUMP JUMPDEST PUSH1 0x1F DUP3 GT ISZERO PUSH3 0x435 JUMPI PUSH3 0x3FF DUP2 PUSH3 0x2A9 JUMP JUMPDEST PUSH3 0x40A DUP5 PUSH3 0x2BE JUMP JUMPDEST DUP2 ADD PUSH1 0x20 DUP6 LT ISZERO PUSH3 0x41A JUMPI DUP2 SWAP1 POP JUMPDEST PUSH3 0x432 PUSH3 0x429 DUP6 PUSH3 0x2BE JUMP JUMPDEST DUP4 ADD DUP3 PUSH3 0x3C3 JUMP JUMPDEST POP POP JUMPDEST POP POP POP JUMP JUMPDEST PUSH1 0x0 DUP3 DUP3 SHR SWAP1 POP SWAP3 SWAP2 POP POP JUMP JUMPDEST PUSH1 0x0 PUSH3 0x45A PUSH1 0x0 NOT DUP5 PUSH1 0x8 MUL PUSH3 0x43A JUMP JUMPDEST NOT DUP1 DUP4 AND SWAP2 POP POP SWAP3 SWAP2 POP POP JUMP JUMPDEST PUSH1 0x0 PUSH3 0x475 DUP4 DUP4 PUSH3 0x447 JUMP JUMPDEST SWAP2 POP DUP3 PUSH1 0x2 MUL DUP3 OR SWAP1 POP SWAP3 SWAP2 POP POP JUMP JUMPDEST PUSH3 0x490 DUP3 PUSH3 0x20B JUMP JUMPDEST PUSH8 0xFFFFFFFFFFFFFFFF DUP2 GT ISZERO PUSH3 0x4AC JUMPI PUSH3 0x4AB PUSH3 0x216 JUMP JUMPDEST JUMPDEST PUSH3 0x4B8 DUP3 SLOAD PUSH3 0x274 JUMP JUMPDEST PUSH3 0x4C5 DUP3 DUP3 DUP6 PUSH3 0x3EA JUMP JUMPDEST PUSH1 0x0 PUSH1 0x20 SWAP1 POP PUSH1 0x1F DUP4 GT PUSH1 0x1 DUP2 EQ PUSH3 0x4FD JUMPI PUSH1 0x0 DUP5 ISZERO PUSH3 0x4E8 JUMPI DUP3 DUP8 ADD MLOAD SWAP1 POP JUMPDEST PUSH3 0x4F4 DUP6 DUP3 PUSH3 0x467 JUMP JUMPDEST DUP7 SSTORE POP PUSH3 0x564 JUMP JUMPDEST PUSH1 0x1F NOT DUP5 AND PUSH3 0x50D DUP7 PUSH3 0x2A9 JUMP JUMPDEST PUSH1 0x0 JUMPDEST DUP3 DUP2 LT ISZERO PUSH3 0x537 JUMPI DUP5 DUP10 ADD MLOAD DUP3 SSTORE PUSH1 0x1 DUP3 ADD SWAP2 POP PUSH1 0x20 DUP6 ADD SWAP5 POP PUSH1 0x20 DUP2 ADD SWAP1 POP PUSH3 0x510 JUMP JUMPDEST DUP7 DUP4 LT ISZERO PUSH3 0x557 JUMPI DUP5 DUP10 ADD MLOAD PUSH3 0x553 PUSH1 0x1F DUP10 AND DUP3 PUSH3 0x447 JUMP JUMPDEST DUP4 SSTORE POP JUMPDEST PUSH1 0x1 PUSH1 0x2 DUP9 MUL ADD DUP9 SSTORE POP POP POP JUMPDEST POP POP POP POP POP POP JUMP JUMPDEST PUSH2 0x3D58 DUP1 PUSH3 0x57C PUSH1 0x0 CODECOPY PUSH1 0x0 RETURN INVALID PUSH1 0x80 PUSH1 0x40 MSTORE CALLVALUE DUP1 ISZERO PUSH2 0x10 JUMPI PUSH1 0x0 DUP1 REVERT JUMPDEST POP PUSH1 0x4 CALLDATASIZE LT PUSH2 0x1A9 JUMPI PUSH1 0x0 CALLDATALOAD PUSH1 0xE0 SHR DUP1 PUSH4 0x6352211E GT PUSH2 0xF9 JUMPI DUP1 PUSH4 0xA1448194 GT PUSH2 0x97 JUMPI DUP1 PUSH4 0xC87B56DD GT PUSH2 0x71 JUMPI DUP1 PUSH4 0xC87B56DD EQ PUSH2 0x47E JUMPI DUP1 PUSH4 0xE985E9C5 EQ PUSH2 0x4AE JUMPI DUP1 PUSH4 0xF2FDE38B EQ PUSH2 0x4DE JUMPI DUP1 PUSH4 0xF9F49952 EQ PUSH2 0x4FA JUMPI PUSH2 0x1A9 JUMP JUMPDEST DUP1 PUSH4 0xA1448194 EQ PUSH2 0x42A JUMPI DUP1 PUSH4 0xA22CB465 EQ PUSH2 0x446 JUMPI DUP1 PUSH4 0xB88D4FDE EQ PUSH2 0x462 JUMPI PUSH2 0x1A9 JUMP JUMPDEST DUP1 PUSH4 0x8456CB59 GT PUSH2 0xD3 JUMPI DUP1 PUSH4 0x8456CB59 EQ PUSH2 0x3C8 JUMPI DUP1 PUSH4 0x8DA5CB5B EQ PUSH2 0x3D2 JUMPI DUP1 PUSH4 0x95D89B41 EQ PUSH2 0x3F0 JUMPI DUP1 PUSH4 0x98EAA4A7 EQ PUSH2 0x40E JUMPI PUSH2 0x1A9 JUMP JUMPDEST DUP1 PUSH4 0x6352211E EQ PUSH2 0x35E JUMPI DUP1 PUSH4 0x70A08231 EQ PUSH2 0x38E JUMPI DUP1 PUSH4 0x715018A6 EQ PUSH2 0x3BE JUMPI PUSH2 0x1A9 JUMP JUMPDEST DUP1 PUSH4 0x2F745C59 GT PUSH2 0x166 JUMPI DUP1 PUSH4 0x42842E0E GT PUSH2 0x140 JUMPI DUP1 PUSH4 0x42842E0E EQ PUSH2 0x2D8 JUMPI DUP1 PUSH4 0x42966C68 EQ PUSH2 0x2F4 JUMPI DUP1 PUSH4 0x4F6CCCE7 EQ PUSH2 0x310 JUMPI DUP1 PUSH4 0x5C975ABB EQ PUSH2 0x340 JUMPI PUSH2 0x1A9 JUMP JUMPDEST DUP1 PUSH4 0x2F745C59 EQ PUSH2 0x282 JUMPI DUP1 PUSH4 0x3F4BA83A EQ PUSH2 0x2B2 JUMPI DUP1 PUSH4 0x40D097C3 EQ PUSH2 0x2BC JUMPI PUSH2 0x1A9 JUMP JUMPDEST DUP1 PUSH4 0x1FFC9A7 EQ PUSH2 0x1AE JUMPI DUP1 PUSH4 0x6FDDE03 EQ PUSH2 0x1DE JUMPI DUP1 PUSH4 0x81812FC EQ PUSH2 0x1FC JUMPI DUP1 PUSH4 0x95EA7B3 EQ PUSH2 0x22C JUMPI DUP1 PUSH4 0x18160DDD EQ PUSH2 0x248 JUMPI DUP1 PUSH4 0x23B872DD EQ PUSH2 0x266 JUMPI JUMPDEST PUSH1 0x0 DUP1 REVERT JUMPDEST PUSH2 0x1C8 PUSH1 0x4 DUP1 CALLDATASIZE SUB DUP2 ADD SWAP1 PUSH2 0x1C3 SWAP2 SWAP1 PUSH2 0x29B9 JUMP JUMPDEST PUSH2 0x516 JUMP JUMPDEST PUSH1 0x40 MLOAD PUSH2 0x1D5 SWAP2 SWAP1 PUSH2 0x2A01 JUMP JUMPDEST PUSH1 0x40 MLOAD DUP1 SWAP2 SUB SWAP1 RETURN JUMPDEST PUSH2 0x1E6 PUSH2 0x528 JUMP JUMPDEST PUSH1 0x40 MLOAD PUSH2 0x1F3 SWAP2 SWAP1 PUSH2 0x2AAC JUMP JUMPDEST PUSH1 0x40 MLOAD DUP1 SWAP2 SUB SWAP1 RETURN JUMPDEST PUSH2 0x216 PUSH1 0x4 DUP1 CALLDATASIZE SUB DUP2 ADD SWAP1 PUSH2 0x211 SWAP2 SWAP1 PUSH2 0x2B04 JUMP JUMPDEST PUSH2 0x5BA JUMP JUMPDEST PUSH1 0x40 MLOAD PUSH2 0x223 SWAP2 SWAP1 PUSH2 0x2B72 JUMP JUMPDEST PUSH1 0x40 MLOAD DUP1 SWAP2 SUB SWAP1 RETURN JUMPDEST PUSH2 0x246 PUSH1 0x4 DUP1 CALLDATASIZE SUB DUP2 ADD SWAP1 PUSH2 0x241 SWAP2 SWAP1 PUSH2 0x2BB9 JUMP JUMPDEST PUSH2 0x600 JUMP JUMPDEST STOP JUMPDEST PUSH2 0x250 PUSH2 0x717 JUMP JUMPDEST PUSH1 0x40 MLOAD PUSH2 0x25D SWAP2 SWAP1 PUSH2 0x2C08 JUMP JUMPDEST PUSH1 0x40 MLOAD DUP1 SWAP2 SUB SWAP1 RETURN JUMPDEST PUSH2 0x280 PUSH1 0x4 DUP1 CALLDATASIZE SUB DUP2 ADD SWAP1 PUSH2 0x27B SWAP2 SWAP1 PUSH2 0x2C23 JUMP JUMPDEST PUSH2 0x724 JUMP JUMPDEST STOP JUMPDEST PUSH2 0x29C PUSH1 0x4 DUP1 CALLDATASIZE SUB DUP2 ADD SWAP1 PUSH2 0x297 SWAP2 SWAP1 PUSH2 0x2BB9 JUMP JUMPDEST PUSH2 0x784 JUMP JUMPDEST PUSH1 0x40 MLOAD PUSH2 0x2A9 SWAP2 SWAP1 PUSH2 0x2C08 JUMP JUMPDEST PUSH1 0x40 MLOAD DUP1 SWAP2 SUB SWAP1 RETURN JUMPDEST PUSH2 0x2BA PUSH2 0x829 JUMP JUMPDEST STOP JUMPDEST PUSH2 0x2D6 PUSH1 0x4 DUP1 CALLDATASIZE SUB DUP2 ADD SWAP1 PUSH2 0x2D1 SWAP2 SWAP1 PUSH2 0x2C76 JUMP JUMPDEST PUSH2 0x83B JUMP JUMPDEST STOP JUMPDEST PUSH2 0x2F2 PUSH1 0x4 DUP1 CALLDATASIZE SUB DUP2 ADD SWAP1 PUSH2 0x2ED SWAP2 SWAP1 PUSH2 0x2C23 JUMP JUMPDEST PUSH2 0x84F JUMP JUMPDEST STOP JUMPDEST PUSH2 0x30E PUSH1 0x4 DUP1 CALLDATASIZE SUB DUP2 ADD SWAP1 PUSH2 0x309 SWAP2 SWAP1 PUSH2 0x2B04 JUMP JUMPDEST PUSH2 0x86F JUMP JUMPDEST STOP JUMPDEST PUSH2 0x32A PUSH1 0x4 DUP1 CALLDATASIZE SUB DUP2 ADD SWAP1 PUSH2 0x325 SWAP2 SWAP1 PUSH2 0x2B04 JUMP JUMPDEST PUSH2 0x8CB JUMP JUMPDEST PUSH1 0x40 MLOAD PUSH2 0x337 SWAP2 SWAP1 PUSH2 0x2C08 JUMP JUMPDEST PUSH1 0x40 MLOAD DUP1 SWAP2 SUB SWAP1 RETURN JUMPDEST PUSH2 0x348 PUSH2 0x93C JUMP JUMPDEST PUSH1 0x40 MLOAD PUSH2 0x355 SWAP2 SWAP1 PUSH2 0x2A01 JUMP JUMPDEST PUSH1 0x40 MLOAD DUP1 SWAP2 SUB SWAP1 RETURN JUMPDEST PUSH2 0x378 PUSH1 0x4 DUP1 CALLDATASIZE SUB DUP2 ADD SWAP1 PUSH2 0x373 SWAP2 SWAP1 PUSH2 0x2B04 JUMP JUMPDEST PUSH2 0x953 JUMP JUMPDEST PUSH1 0x40 MLOAD PUSH2 0x385 SWAP2 SWAP1 PUSH2 0x2B72 JUMP JUMPDEST PUSH1 0x40 MLOAD DUP1 SWAP2 SUB SWAP1 RETURN JUMPDEST PUSH2 0x3A8 PUSH1 0x4 DUP1 CALLDATASIZE SUB DUP2 ADD SWAP1 PUSH2 0x3A3 SWAP2 SWAP1 PUSH2 0x2C76 JUMP JUMPDEST PUSH2 0x9D9 JUMP JUMPDEST PUSH1 0x40 MLOAD PUSH2 0x3B5 SWAP2 SWAP1 PUSH2 0x2C08 JUMP JUMPDEST PUSH1 0x40 MLOAD DUP1 SWAP2 SUB SWAP1 RETURN JUMPDEST PUSH2 0x3C6 PUSH2 0xA90 JUMP JUMPDEST STOP JUMPDEST PUSH2 0x3D0 PUSH2 0xAA4 JUMP JUMPDEST STOP JUMPDEST PUSH2 0x3DA PUSH2 0xAB6 JUMP JUMPDEST PUSH1 0x40 MLOAD PUSH2 0x3E7 SWAP2 SWAP1 PUSH2 0x2B72 JUMP JUMPDEST PUSH1 0x40 MLOAD DUP1 SWAP2 SUB SWAP1 RETURN JUMPDEST PUSH2 0x3F8 PUSH2 0xAE0 JUMP JUMPDEST PUSH1 0x40 MLOAD PUSH2 0x405 SWAP2 SWAP1 PUSH2 0x2AAC JUMP JUMPDEST PUSH1 0x40 MLOAD DUP1 SWAP2 SUB SWAP1 RETURN JUMPDEST PUSH2 0x428 PUSH1 0x4 DUP1 CALLDATASIZE SUB DUP2 ADD SWAP1 PUSH2 0x423 SWAP2 SWAP1 PUSH2 0x2C76 JUMP JUMPDEST PUSH2 0xB72 JUMP JUMPDEST STOP JUMPDEST PUSH2 0x444 PUSH1 0x4 DUP1 CALLDATASIZE SUB DUP2 ADD SWAP1 PUSH2 0x43F SWAP2 SWAP1 PUSH2 0x2BB9 JUMP JUMPDEST PUSH2 0xBD5 JUMP JUMPDEST STOP JUMPDEST PUSH2 0x460 PUSH1 0x4 DUP1 CALLDATASIZE SUB DUP2 ADD SWAP1 PUSH2 0x45B SWAP2 SWAP1 PUSH2 0x2CCF JUMP JUMPDEST PUSH2 0xBE3 JUMP JUMPDEST STOP JUMPDEST PUSH2 0x47C PUSH1 0x4 DUP1 CALLDATASIZE SUB DUP2 ADD SWAP1 PUSH2 0x477 SWAP2 SWAP1 PUSH2 0x2E44 JUMP JUMPDEST PUSH2 0xBF9 JUMP JUMPDEST STOP JUMPDEST PUSH2 0x498 PUSH1 0x4 DUP1 CALLDATASIZE SUB DUP2 ADD SWAP1 PUSH2 0x493 SWAP2 SWAP1 PUSH2 0x2B04 JUMP JUMPDEST PUSH2 0xC5B JUMP JUMPDEST PUSH1 0x40 MLOAD PUSH2 0x4A5 SWAP2 SWAP1 PUSH2 0x2AAC JUMP JUMPDEST PUSH1 0x40 MLOAD DUP1 SWAP2 SUB SWAP1 RETURN JUMPDEST PUSH2 0x4C8 PUSH1 0x4 DUP1 CALLDATASIZE SUB DUP2 ADD SWAP1 PUSH2 0x4C3 SWAP2 SWAP1 PUSH2 0x2EC7 JUMP JUMPDEST PUSH2 0xF71 JUMP JUMPDEST PUSH1 0x40 MLOAD PUSH2 0x4D5 SWAP2 SWAP1 PUSH2 0x2A01 JUMP JUMPDEST PUSH1 0x40 MLOAD DUP1 SWAP2 SUB SWAP1 RETURN JUMPDEST PUSH2 0x4F8 PUSH1 0x4 DUP1 CALLDATASIZE SUB DUP2 ADD SWAP1 PUSH2 0x4F3 SWAP2 SWAP1 PUSH2 0x2C76 JUMP JUMPDEST PUSH2 0x1005 JUMP JUMPDEST STOP JUMPDEST PUSH2 0x514 PUSH1 0x4 DUP1 CALLDATASIZE SUB DUP2 ADD SWAP1 PUSH2 0x50F SWAP2 SWAP1 PUSH2 0x2BB9 JUMP JUMPDEST PUSH2 0x1088 JUMP JUMPDEST STOP JUMPDEST PUSH1 0x0 PUSH2 0x521 DUP3 PUSH2 0x10D8 JUMP JUMPDEST SWAP1 POP SWAP2 SWAP1 POP JUMP JUMPDEST PUSH1 0x60 PUSH1 0x0 DUP1 SLOAD PUSH2 0x537 SWAP1 PUSH2 0x2F36 JUMP JUMPDEST DUP1 PUSH1 0x1F ADD PUSH1 0x20 DUP1 SWAP2 DIV MUL PUSH1 0x20 ADD PUSH1 0x40 MLOAD SWAP1 DUP2 ADD PUSH1 0x40 MSTORE DUP1 SWAP3 SWAP2 SWAP1 DUP2 DUP2 MSTORE PUSH1 0x20 ADD DUP3 DUP1 SLOAD PUSH2 0x563 SWAP1 PUSH2 0x2F36 JUMP JUMPDEST DUP1 ISZERO PUSH2 0x5B0 JUMPI DUP1 PUSH1 0x1F LT PUSH2 0x585 JUMPI PUSH2 0x100 DUP1 DUP4 SLOAD DIV MUL DUP4 MSTORE SWAP2 PUSH1 0x20 ADD SWAP2 PUSH2 0x5B0 JUMP JUMPDEST DUP3 ADD SWAP2 SWAP1 PUSH1 0x0 MSTORE PUSH1 0x20 PUSH1 0x0 KECCAK256 SWAP1 JUMPDEST DUP2 SLOAD DUP2 MSTORE SWAP1 PUSH1 0x1 ADD SWAP1 PUSH1 0x20 ADD DUP1 DUP4 GT PUSH2 0x593 JUMPI DUP3 SWAP1 SUB PUSH1 0x1F AND DUP3 ADD SWAP2 JUMPDEST POP POP POP POP POP SWAP1 POP SWAP1 JUMP JUMPDEST PUSH1 0x0 PUSH2 0x5C5 DUP3 PUSH2 0x1152 JUMP JUMPDEST PUSH1 0x4 PUSH1 0x0 DUP4 DUP2 MSTORE PUSH1 0x20 ADD SWAP1 DUP2 MSTORE PUSH1 0x20 ADD PUSH1 0x0 KECCAK256 PUSH1 0x0 SWAP1 SLOAD SWAP1 PUSH2 0x100 EXP SWAP1 DIV PUSH20 0xFFFFFFFFFFFFFFFFFFFFFFFFFFFFFFFFFFFFFFFF AND SWAP1 POP SWAP2 SWAP1 POP JUMP JUMPDEST PUSH1 0x0 PUSH2 0x60B DUP3 PUSH2 0x953 JUMP JUMPDEST SWAP1 POP DUP1 PUSH20 0xFFFFFFFFFFFFFFFFFFFFFFFFFFFFFFFFFFFFFFFF AND DUP4 PUSH20 0xFFFFFFFFFFFFFFFFFFFFFFFFFFFFFFFFFFFFFFFF AND SUB PUSH2 0x67B JUMPI PUSH1 0x40 MLOAD PUSH32 0x8C379A000000000000000000000000000000000000000000000000000000000 DUP2 MSTORE PUSH1 0x4 ADD PUSH2 0x672 SWAP1 PUSH2 0x2FD9 JUMP JUMPDEST PUSH1 0x40 MLOAD DUP1 SWAP2 SUB SWAP1 REVERT JUMPDEST DUP1 PUSH20 0xFFFFFFFFFFFFFFFFFFFFFFFFFFFFFFFFFFFFFFFF AND PUSH2 0x69A PUSH2 0x119D JUMP JUMPDEST PUSH20 0xFFFFFFFFFFFFFFFFFFFFFFFFFFFFFFFFFFFFFFFF AND EQ DUP1 PUSH2 0x6C9 JUMPI POP PUSH2 0x6C8 DUP2 PUSH2 0x6C3 PUSH2 0x119D JUMP JUMPDEST PUSH2 0xF71 JUMP JUMPDEST JUMPDEST PUSH2 0x708 JUMPI PUSH1 0x40 MLOAD PUSH32 0x8C379A000000000000000000000000000000000000000000000000000000000 DUP2 MSTORE PUSH1 0x4 ADD PUSH2 0x6FF SWAP1 PUSH2 0x306B JUMP JUMPDEST PUSH1 0x40 MLOAD DUP1 SWAP2 SUB SWAP1 REVERT JUMPDEST PUSH2 0x712 DUP4 DUP4 PUSH2 0x11A5 JUMP JUMPDEST POP POP POP JUMP JUMPDEST PUSH1 0x0 PUSH1 0x8 DUP1 SLOAD SWAP1 POP SWAP1 POP SWAP1 JUMP JUMPDEST PUSH2 0x735 PUSH2 0x72F PUSH2 0x119D JUMP JUMPDEST DUP3 PUSH2 0x125E JUMP JUMPDEST PUSH2 0x774 JUMPI PUSH1 0x40 MLOAD PUSH32 0x8C379A000000000000000000000000000000000000000000000000000000000 DUP2 MSTORE PUSH1 0x4 ADD PUSH2 0x76B SWAP1 PUSH2 0x30FD JUMP JUMPDEST PUSH1 0x40 MLOAD DUP1 SWAP2 SUB SWAP1 REVERT JUMPDEST PUSH2 0x77F DUP4 DUP4 DUP4 PUSH2 0x12F3 JUMP JUMPDEST POP POP POP JUMP JUMPDEST PUSH1 0x0 PUSH2 0x78F DUP4 PUSH2 0x9D9 JUMP JUMPDEST DUP3 LT PUSH2 0x7D0 JUMPI PUSH1 0x40 MLOAD PUSH32 0x8C379A000000000000000000000000000000000000000000000000000000000 DUP2 MSTORE PUSH1 0x4 ADD PUSH2 0x7C7 SWAP1 PUSH2 0x318F JUMP JUMPDEST PUSH1 0x40 MLOAD DUP1 SWAP2 SUB SWAP1 REVERT JUMPDEST PUSH1 0x6 PUSH1 0x0 DUP5 PUSH20 0xFFFFFFFFFFFFFFFFFFFFFFFFFFFFFFFFFFFFFFFF AND PUSH20 0xFFFFFFFFFFFFFFFFFFFFFFFFFFFFFFFFFFFFFFFF AND DUP2 MSTORE PUSH1 0x20 ADD SWAP1 DUP2 MSTORE PUSH1 0x20 ADD PUSH1 0x0 KECCAK256 PUSH1 0x0 DUP4 DUP2 MSTORE PUSH1 0x20 ADD SWAP1 DUP2 MSTORE PUSH1 0x20 ADD PUSH1 0x0 KECCAK256 SLOAD SWAP1 POP SWAP3 SWAP2 POP POP JUMP JUMPDEST PUSH2 0x831 PUSH2 0x15EC JUMP JUMPDEST PUSH2 0x839 PUSH2 0x166A JUMP JUMPDEST JUMP JUMPDEST PUSH2 0x84C DUP2 PUSH2 0x847 PUSH2 0x717 JUMP JUMPDEST PUSH2 0x16CD JUMP JUMPDEST POP JUMP JUMPDEST PUSH2 0x86A DUP4 DUP4 DUP4 PUSH1 0x40 MLOAD DUP1 PUSH1 0x20 ADD PUSH1 0x40 MSTORE DUP1 PUSH1 0x0 DUP2 MSTORE POP PUSH2 0xBF9 JUMP JUMPDEST POP POP POP JUMP JUMPDEST PUSH2 0x880 PUSH2 0x87A PUSH2 0x119D JUMP JUMPDEST DUP3 PUSH2 0x125E JUMP JUMPDEST PUSH2 0x8BF JUMPI PUSH1 0x40 MLOAD PUSH32 0x8C379A000000000000000000000000000000000000000000000000000000000 DUP2 MSTORE PUSH1 0x4 ADD PUSH2 0x8B6 SWAP1 PUSH2 0x30FD JUMP JUMPDEST PUSH1 0x40 MLOAD DUP1 SWAP2 SUB SWAP1 REVERT JUMPDEST PUSH2 0x8C8 DUP2 PUSH2 0x16EB JUMP JUMPDEST POP JUMP JUMPDEST PUSH1 0x0 PUSH2 0x8D5 PUSH2 0x717 JUMP JUMPDEST DUP3 LT PUSH2 0x916 JUMPI PUSH1 0x40 MLOAD PUSH32 0x8C379A000000000000000000000000000000000000000000000000000000000 DUP2 MSTORE PUSH1 0x4 ADD PUSH2 0x90D SWAP1 PUSH2 0x3221 JUMP JUMPDEST PUSH1 0x40 MLOAD DUP1 SWAP2 SUB SWAP1 REVERT JUMPDEST PUSH1 0x8 DUP3 DUP2 SLOAD DUP2 LT PUSH2 0x92A JUMPI PUSH2 0x929 PUSH2 0x3241 JUMP JUMPDEST JUMPDEST SWAP1 PUSH1 0x0 MSTORE PUSH1 0x20 PUSH1 0x0 KECCAK256 ADD SLOAD SWAP1 POP SWAP2 SWAP1 POP JUMP JUMPDEST PUSH1 0x0 PUSH1 0xB PUSH1 0x0 SWAP1 SLOAD SWAP1 PUSH2 0x100 EXP SWAP1 DIV PUSH1 0xFF AND SWAP1 POP SWAP1 JUMP JUMPDEST PUSH1 0x0 DUP1 PUSH2 0x95F DUP4 PUSH2 0x16F7 JUMP JUMPDEST SWAP1 POP PUSH1 0x0 PUSH20 0xFFFFFFFFFFFFFFFFFFFFFFFFFFFFFFFFFFFFFFFF AND DUP2 PUSH20 0xFFFFFFFFFFFFFFFFFFFFFFFFFFFFFFFFFFFFFFFF AND SUB PUSH2 0x9D0 JUMPI PUSH1 0x40 MLOAD PUSH32 0x8C379A000000000000000000000000000000000000000000000000000000000 DUP2 MSTORE PUSH1 0x4 ADD PUSH2 0x9C7 SWAP1 PUSH2 0x32BC JUMP JUMPDEST PUSH1 0x40 MLOAD DUP1 SWAP2 SUB SWAP1 REVERT JUMPDEST DUP1 SWAP2 POP POP SWAP2 SWAP1 POP JUMP JUMPDEST PUSH1 0x0 DUP1 PUSH20 0xFFFFFFFFFFFFFFFFFFFFFFFFFFFFFFFFFFFFFFFF AND DUP3 PUSH20 0xFFFFFFFFFFFFFFFFFFFFFFFFFFFFFFFFFFFFFFFF AND SUB PUSH2 0xA49 JUMPI PUSH1 0x40 MLOAD PUSH32 0x8C379A000000000000000000000000000000000000000000000000000000000 DUP2 MSTORE PUSH1 0x4 ADD PUSH2 0xA40 SWAP1 PUSH2 0x334E JUMP JUMPDEST PUSH1 0x40 MLOAD DUP1 SWAP2 SUB SWAP1 REVERT JUMPDEST PUSH1 0x3 PUSH1 0x0 DUP4 PUSH20 0xFFFFFFFFFFFFFFFFFFFFFFFFFFFFFFFFFFFFFFFF AND PUSH20 0xFFFFFFFFFFFFFFFFFFFFFFFFFFFFFFFFFFFFFFFF AND DUP2 MSTORE PUSH1 0x20 ADD SWAP1 DUP2 MSTORE PUSH1 0x20 ADD PUSH1 0x0 KECCAK256 SLOAD SWAP1 POP SWAP2 SWAP1 POP JUMP JUMPDEST PUSH2 0xA98 PUSH2 0x15EC JUMP JUMPDEST PUSH2 0xAA2 PUSH1 0x0 PUSH2 0x1734 JUMP JUMPDEST JUMP JUMPDEST PUSH2 0xAAC PUSH2 0x15EC JUMP JUMPDEST PUSH2 0xAB4 PUSH2 0x17FA JUMP JUMPDEST JUMP JUMPDEST PUSH1 0x0 PUSH1 0xB PUSH1 0x1 SWAP1 SLOAD SWAP1 PUSH2 0x100 EXP SWAP1 DIV PUSH20 0xFFFFFFFFFFFFFFFFFFFFFFFFFFFFFFFFFFFFFFFF AND SWAP1 POP SWAP1 JUMP JUMPDEST PUSH1 0x60 PUSH1 0x1 DUP1 SLOAD PUSH2 0xAEF SWAP1 PUSH2 0x2F36 JUMP JUMPDEST DUP1 PUSH1 0x1F ADD PUSH1 0x20 DUP1 SWAP2 DIV MUL PUSH1 0x20 ADD PUSH1 0x40 MLOAD SWAP1 DUP2 ADD PUSH1 0x40 MSTORE DUP1 SWAP3 SWAP2 SWAP1 DUP2 DUP2 MSTORE PUSH1 0x20 ADD DUP3 DUP1 SLOAD PUSH2 0xB1B SWAP1 PUSH2 0x2F36 JUMP JUMPDEST DUP1 ISZERO PUSH2 0xB68 JUMPI DUP1 PUSH1 0x1F LT PUSH2 0xB3D JUMPI PUSH2 0x100 DUP1 DUP4 SLOAD DIV MUL DUP4 MSTORE SWAP2 PUSH1 0x20 ADD SWAP2 PUSH2 0xB68 JUMP JUMPDEST DUP3 ADD SWAP2 SWAP1 PUSH1 0x0 MSTORE PUSH1 0x20 PUSH1 0x0 KECCAK256 SWAP1 JUMPDEST DUP2 SLOAD DUP2 MSTORE SWAP1 PUSH1 0x1 ADD SWAP1 PUSH1 0x20 ADD DUP1 DUP4 GT PUSH2 0xB4B JUMPI DUP3 SWAP1 SUB PUSH1 0x1F AND DUP3 ADD SWAP2 JUMPDEST POP POP POP POP POP SWAP1 POP SWAP1 JUMP JUMPDEST PUSH2 0xB7A PUSH2 0x15EC JUMP JUMPDEST PUSH1 0x1 PUSH1 0xC PUSH1 0x0 DUP4 PUSH20 0xFFFFFFFFFFFFFFFFFFFFFFFFFFFFFFFFFFFFFFFF AND PUSH20 0xFFFFFFFFFFFFFFFFFFFFFFFFFFFFFFFFFFFFFFFF AND DUP2 MSTORE PUSH1 0x20 ADD SWAP1 DUP2 MSTORE PUSH1 0x20 ADD PUSH1 0x0 KECCAK256 PUSH1 0x0 PUSH2 0x100 EXP DUP2 SLOAD DUP2 PUSH1 0xFF MUL NOT AND SWAP1 DUP4 ISZERO ISZERO MUL OR SWAP1 SSTORE POP POP JUMP JUMPDEST PUSH2 0xBDF DUP3 DUP3 PUSH2 0x16CD JUMP JUMPDEST POP POP JUMP JUMPDEST PUSH2 0xBF5 PUSH2 0xBEE PUSH2 0x119D JUMP JUMPDEST DUP4 DUP4 PUSH2 0x185D JUMP JUMPDEST POP POP JUMP JUMPDEST PUSH2 0xC0A PUSH2 0xC04 PUSH2 0x119D JUMP JUMPDEST DUP4 PUSH2 0x125E JUMP JUMPDEST PUSH2 0xC49 JUMPI PUSH1 0x40 MLOAD PUSH32 0x8C379A000000000000000000000000000000000000000000000000000000000 DUP2 MSTORE PUSH1 0x4 ADD PUSH2 0xC40 SWAP1 PUSH2 0x30FD JUMP JUMPDEST PUSH1 0x40 MLOAD DUP1 SWAP2 SUB SWAP1 REVERT JUMPDEST PUSH2 0xC55 DUP5 DUP5 DUP5 DUP5 PUSH2 0x19C9 JUMP JUMPDEST POP POP POP POP JUMP JUMPDEST PUSH1 0x60 PUSH2 0xC66 DUP3 PUSH2 0x1152 JUMP JUMPDEST PUSH1 0x0 PUSH2 0xC70 PUSH2 0x1A25 JUMP JUMPDEST SWAP1 POP PUSH1 0x60 PUSH1 0x0 PUSH20 0x0 PUSH4 0xED944CB6 DUP7 PUSH1 0x40 MLOAD DUP3 PUSH4 0xFFFFFFFF AND PUSH1 0xE0 SHL DUP2 MSTORE PUSH1 0x4 ADD PUSH2 0xCAD SWAP2 SWAP1 PUSH2 0x337D JUMP JUMPDEST PUSH1 0x20 PUSH1 0x40 MLOAD DUP1 DUP4 SUB DUP2 DUP7 GAS DELEGATECALL ISZERO DUP1 ISZERO PUSH2 0xCCA JUMPI RETURNDATASIZE PUSH1 0x0 DUP1 RETURNDATACOPY RETURNDATASIZE PUSH1 0x0 REVERT JUMPDEST POP POP POP POP PUSH1 0x40 MLOAD RETURNDATASIZE PUSH1 0x1F NOT PUSH1 0x1F DUP3 ADD AND DUP3 ADD DUP1 PUSH1 0x40 MSTORE POP DUP2 ADD SWAP1 PUSH2 0xCEE SWAP2 SWAP1 PUSH2 0x33BD JUMP JUMPDEST SWAP1 POP PUSH1 0x0 PUSH1 0x4 DUP2 GT ISZERO PUSH2 0xD04 JUMPI PUSH2 0xD03 PUSH2 0x33EA JUMP JUMPDEST JUMPDEST DUP2 PUSH1 0x4 DUP2 GT ISZERO PUSH2 0xD17 JUMPI PUSH2 0xD16 PUSH2 0x33EA JUMP JUMPDEST JUMPDEST SUB PUSH2 0xD59 JUMPI PUSH1 0x40 MLOAD DUP1 PUSH1 0x40 ADD PUSH1 0x40 MSTORE DUP1 PUSH1 0xE DUP2 MSTORE PUSH1 0x20 ADD PUSH32 0x2F6865726F2F6D65746164617461000000000000000000000000000000000000 DUP2 MSTORE POP SWAP2 POP PUSH2 0xF3B JUMP JUMPDEST PUSH1 0x1 PUSH1 0x4 DUP2 GT ISZERO PUSH2 0xD6D JUMPI PUSH2 0xD6C PUSH2 0x33EA JUMP JUMPDEST JUMPDEST DUP2 PUSH1 0x4 DUP2 GT ISZERO PUSH2 0xD80 JUMPI PUSH2 0xD7F PUSH2 0x33EA JUMP JUMPDEST JUMPDEST SUB PUSH2 0xDC2 JUMPI PUSH1 0x40 MLOAD DUP1 PUSH1 0x40 ADD PUSH1 0x40 MSTORE DUP1 PUSH1 0x10 DUP2 MSTORE PUSH1 0x20 ADD PUSH32 0x2F6C6567656E642F6D6574616461746100000000000000000000000000000000 DUP2 MSTORE POP SWAP2 POP PUSH2 0xF3A JUMP JUMPDEST PUSH1 0x2 PUSH1 0x4 DUP2 GT ISZERO PUSH2 0xDD6 JUMPI PUSH2 0xDD5 PUSH2 0x33EA JUMP JUMPDEST JUMPDEST DUP2 PUSH1 0x4 DUP2 GT ISZERO PUSH2 0xDE9 JUMPI PUSH2 0xDE8 PUSH2 0x33EA JUMP JUMPDEST JUMPDEST SUB PUSH2 0xE2B JUMPI PUSH1 0x40 MLOAD DUP1 PUSH1 0x40 ADD PUSH1 0x40 MSTORE DUP1 PUSH1 0xE DUP2 MSTORE PUSH1 0x20 ADD PUSH32 0x2F726172652F6D65746164617461000000000000000000000000000000000000 DUP2 MSTORE POP SWAP2 POP PUSH2 0xF39 JUMP JUMPDEST PUSH1 0x3 PUSH1 0x4 DUP2 GT ISZERO PUSH2 0xE3F JUMPI PUSH2 0xE3E PUSH2 0x33EA JUMP JUMPDEST JUMPDEST DUP2 PUSH1 0x4 DUP2 GT ISZERO PUSH2 0xE52 JUMPI PUSH2 0xE51 PUSH2 0x33EA JUMP JUMPDEST JUMPDEST SUB PUSH2 0xE94 JUMPI PUSH1 0x40 MLOAD DUP1 PUSH1 0x40 ADD PUSH1 0x40 MSTORE DUP1 PUSH1 0x12 DUP2 MSTORE PUSH1 0x20 ADD PUSH32 0x2F756E636F6D6D6F6E2F6D657461646174610000000000000000000000000000 DUP2 MSTORE POP SWAP2 POP PUSH2 0xF38 JUMP JUMPDEST PUSH1 0x4 DUP1 DUP2 GT ISZERO PUSH2 0xEA7 JUMPI PUSH2 0xEA6 PUSH2 0x33EA JUMP JUMPDEST JUMPDEST DUP2 PUSH1 0x4 DUP2 GT ISZERO PUSH2 0xEBA JUMPI PUSH2 0xEB9 PUSH2 0x33EA JUMP JUMPDEST JUMPDEST SUB PUSH2 0xEFC JUMPI PUSH1 0x40 MLOAD DUP1 PUSH1 0x40 ADD PUSH1 0x40 MSTORE DUP1 PUSH1 0x10 DUP2 MSTORE PUSH1 0x20 ADD PUSH32 0x2F636F6D6D6F6E2F6D6574616461746100000000000000000000000000000000 DUP2 MSTORE POP SWAP2 POP PUSH2 0xF37 JUMP JUMPDEST PUSH1 0x40 MLOAD PUSH32 0x8C379A000000000000000000000000000000000000000000000000000000000 DUP2 MSTORE PUSH1 0x4 ADD PUSH2 0xF2E SWAP1 PUSH2 0x3465 JUMP JUMPDEST PUSH1 0x40 MLOAD DUP1 SWAP2 SUB SWAP1 REVERT JUMPDEST JUMPDEST JUMPDEST JUMPDEST JUMPDEST DUP3 DUP3 PUSH2 0xF46 DUP8 PUSH2 0x1A62 JUMP JUMPDEST PUSH1 0x40 MLOAD PUSH1 0x20 ADD PUSH2 0xF58 SWAP4 SWAP3 SWAP2 SWAP1 PUSH2 0x3559 JUMP JUMPDEST PUSH1 0x40 MLOAD PUSH1 0x20 DUP2 DUP4 SUB SUB DUP2 MSTORE SWAP1 PUSH1 0x40 MSTORE SWAP4 POP POP POP POP SWAP2 SWAP1 POP JUMP JUMPDEST PUSH1 0x0 PUSH1 0x5 PUSH1 0x0 DUP5 PUSH20 0xFFFFFFFFFFFFFFFFFFFFFFFFFFFFFFFFFFFFFFFF AND PUSH20 0xFFFFFFFFFFFFFFFFFFFFFFFFFFFFFFFFFFFFFFFF AND DUP2 MSTORE PUSH1 0x20 ADD SWAP1 DUP2 MSTORE PUSH1 0x20 ADD PUSH1 0x0 KECCAK256 PUSH1 0x0 DUP4 PUSH20 0xFFFFFFFFFFFFFFFFFFFFFFFFFFFFFFFFFFFFFFFF AND PUSH20 0xFFFFFFFFFFFFFFFFFFFFFFFFFFFFFFFFFFFFFFFF AND DUP2 MSTORE PUSH1 0x20 ADD SWAP1 DUP2 MSTORE PUSH1 0x20 ADD PUSH1 0x0 KECCAK256 PUSH1 0x0 SWAP1 SLOAD SWAP1 PUSH2 0x100 EXP SWAP1 DIV PUSH1 0xFF AND SWAP1 POP SWAP3 SWAP2 POP POP JUMP JUMPDEST PUSH2 0x100D PUSH2 0x15EC JUMP JUMPDEST PUSH1 0x0 PUSH20 0xFFFFFFFFFFFFFFFFFFFFFFFFFFFFFFFFFFFFFFFF AND DUP2 PUSH20 0xFFFFFFFFFFFFFFFFFFFFFFFFFFFFFFFFFFFFFFFF AND SUB PUSH2 0x107C JUMPI PUSH1 0x40 MLOAD PUSH32 0x8C379A000000000000000000000000000000000000000000000000000000000 DUP2 MSTORE PUSH1 0x4 ADD PUSH2 0x1073 SWAP1 PUSH2 0x3612 JUMP JUMPDEST PUSH1 0x40 MLOAD DUP1 SWAP2 SUB SWAP1 REVERT JUMPDEST PUSH2 0x1085 DUP2 PUSH2 0x1734 JUMP JUMPDEST POP JUMP JUMPDEST PUSH1 0x0 PUSH2 0x1092 PUSH2 0x717 JUMP JUMPDEST SWAP1 POP PUSH1 0x0 JUMPDEST PUSH1 0x1 DUP4 PUSH2 0x10A4 SWAP2 SWAP1 PUSH2 0x3661 JUMP JUMPDEST DUP2 GT PUSH2 0x10D2 JUMPI PUSH2 0x10BF DUP5 DUP3 DUP5 PUSH2 0x10BA SWAP2 SWAP1 PUSH2 0x3695 JUMP JUMPDEST PUSH2 0x16CD JUMP JUMPDEST DUP1 DUP1 PUSH2 0x10CA SWAP1 PUSH2 0x36C9 JUMP JUMPDEST SWAP2 POP POP PUSH2 0x1097 JUMP JUMPDEST POP POP POP POP JUMP JUMPDEST PUSH1 0x0 PUSH32 0x780E9D6300000000000000000000000000000000000000000000000000000000 PUSH28 0xFFFFFFFFFFFFFFFFFFFFFFFFFFFFFFFFFFFFFFFFFFFFFFFFFFFFFFFF NOT AND DUP3 PUSH28 0xFFFFFFFFFFFFFFFFFFFFFFFFFFFFFFFFFFFFFFFFFFFFFFFFFFFFFFFF NOT AND EQ DUP1 PUSH2 0x114B JUMPI POP PUSH2 0x114A DUP3 PUSH2 0x1B30 JUMP JUMPDEST JUMPDEST SWAP1 POP SWAP2 SWAP1 POP JUMP JUMPDEST PUSH2 0x115B DUP2 PUSH2 0x1C12 JUMP JUMPDEST PUSH2 0x119A JUMPI PUSH1 0x40 MLOAD PUSH32 0x8C379A000000000000000000000000000000000000000000000000000000000 DUP2 MSTORE PUSH1 0x4 ADD PUSH2 0x1191 SWAP1 PUSH2 0x32BC JUMP JUMPDEST PUSH1 0x40 MLOAD DUP1 SWAP2 SUB SWAP1 REVERT JUMPDEST POP JUMP JUMPDEST PUSH1 0x0 CALLER SWAP1 POP SWAP1 JUMP JUMPDEST DUP2 PUSH1 0x4 PUSH1 0x0 DUP4 DUP2 MSTORE PUSH1 0x20 ADD SWAP1 DUP2 MSTORE PUSH1 0x20 ADD PUSH1 0x0 KECCAK256 PUSH1 0x0 PUSH2 0x100 EXP DUP2 SLOAD DUP2 PUSH20 0xFFFFFFFFFFFFFFFFFFFFFFFFFFFFFFFFFFFFFFFF MUL NOT AND SWAP1 DUP4 PUSH20 0xFFFFFFFFFFFFFFFFFFFFFFFFFFFFFFFFFFFFFFFF AND MUL OR SWAP1 SSTORE POP DUP1 DUP3 PUSH20 0xFFFFFFFFFFFFFFFFFFFFFFFFFFFFFFFFFFFFFFFF AND PUSH2 0x1218 DUP4 PUSH2 0x953 JUMP JUMPDEST PUSH20 0xFFFFFFFFFFFFFFFFFFFFFFFFFFFFFFFFFFFFFFFF AND PUSH32 0x8C5BE1E5EBEC7D5BD14F71427D1E84F3DD0314C0F7B2291E5B200AC8C7C3B925 PUSH1 0x40 MLOAD PUSH1 0x40 MLOAD DUP1 SWAP2 SUB SWAP1 LOG4 POP POP JUMP JUMPDEST PUSH1 0x0 DUP1 PUSH2 0x126A DUP4 PUSH2 0x953 JUMP JUMPDEST SWAP1 POP DUP1 PUSH20 0xFFFFFFFFFFFFFFFFFFFFFFFFFFFFFFFFFFFFFFFF AND DUP5 PUSH20 0xFFFFFFFFFFFFFFFFFFFFFFFFFFFFFFFFFFFFFFFF AND EQ DUP1 PUSH2 0x12AC JUMPI POP PUSH2 0x12AB DUP2 DUP6 PUSH2 0xF71 JUMP JUMPDEST JUMPDEST DUP1 PUSH2 0x12EA JUMPI POP DUP4 PUSH20 0xFFFFFFFFFFFFFFFFFFFFFFFFFFFFFFFFFFFFFFFF AND PUSH2 0x12D2 DUP5 PUSH2 0x5BA JUMP JUMPDEST PUSH20 0xFFFFFFFFFFFFFFFFFFFFFFFFFFFFFFFFFFFFFFFF AND EQ JUMPDEST SWAP2 POP POP SWAP3 SWAP2 POP POP JUMP JUMPDEST DUP3 PUSH20 0xFFFFFFFFFFFFFFFFFFFFFFFFFFFFFFFFFFFFFFFF AND PUSH2 0x1313 DUP3 PUSH2 0x953 JUMP JUMPDEST PUSH20 0xFFFFFFFFFFFFFFFFFFFFFFFFFFFFFFFFFFFFFFFF AND EQ PUSH2 0x1369 JUMPI PUSH1 0x40 MLOAD PUSH32 0x8C379A000000000000000000000000000000000000000000000000000000000 DUP2 MSTORE PUSH1 0x4 ADD PUSH2 0x1360 SWAP1 PUSH2 0x3783 JUMP JUMPDEST PUSH1 0x40 MLOAD DUP1 SWAP2 SUB SWAP1 REVERT JUMPDEST PUSH1 0x0 PUSH20 0xFFFFFFFFFFFFFFFFFFFFFFFFFFFFFFFFFFFFFFFF AND DUP3 PUSH20 0xFFFFFFFFFFFFFFFFFFFFFFFFFFFFFFFFFFFFFFFF AND SUB PUSH2 0x13D8 JUMPI PUSH1 0x40 MLOAD PUSH32 0x8C379A000000000000000000000000000000000000000000000000000000000 DUP2 MSTORE PUSH1 0x4 ADD PUSH2 0x13CF SWAP1 PUSH2 0x3815 JUMP JUMPDEST PUSH1 0x40 MLOAD DUP1 SWAP2 SUB SWAP1 REVERT JUMPDEST PUSH2 0x13E5 DUP4 DUP4 DUP4 PUSH1 0x1 PUSH2 0x1C53 JUMP JUMPDEST DUP3 PUSH20 0xFFFFFFFFFFFFFFFFFFFFFFFFFFFFFFFFFFFFFFFF AND PUSH2 0x1405 DUP3 PUSH2 0x953 JUMP JUMPDEST PUSH20 0xFFFFFFFFFFFFFFFFFFFFFFFFFFFFFFFFFFFFFFFF AND EQ PUSH2 0x145B JUMPI PUSH1 0x40 MLOAD PUSH32 0x8C379A000000000000000000000000000000000000000000000000000000000 DUP2 MSTORE PUSH1 0x4 ADD PUSH2 0x1452 SWAP1 PUSH2 0x3783 JUMP JUMPDEST PUSH1 0x40 MLOAD DUP1 SWAP2 SUB SWAP1 REVERT JUMPDEST PUSH1 0x4 PUSH1 0x0 DUP3 DUP2 MSTORE PUSH1 0x20 ADD SWAP1 DUP2 MSTORE PUSH1 0x20 ADD PUSH1 0x0 KECCAK256 PUSH1 0x0 PUSH2 0x100 EXP DUP2 SLOAD SWAP1 PUSH20 0xFFFFFFFFFFFFFFFFFFFFFFFFFFFFFFFFFFFFFFFF MUL NOT AND SWAP1 SSTORE PUSH1 0x1 PUSH1 0x3 PUSH1 0x0 DUP6 PUSH20 0xFFFFFFFFFFFFFFFFFFFFFFFFFFFFFFFFFFFFFFFF AND PUSH20 0xFFFFFFFFFFFFFFFFFFFFFFFFFFFFFFFFFFFFFFFF AND DUP2 MSTORE PUSH1 0x20 ADD SWAP1 DUP2 MSTORE PUSH1 0x20 ADD PUSH1 0x0 KECCAK256 PUSH1 0x0 DUP3 DUP3 SLOAD SUB SWAP3 POP POP DUP2 SWAP1 SSTORE POP PUSH1 0x1 PUSH1 0x3 PUSH1 0x0 DUP5 PUSH20 0xFFFFFFFFFFFFFFFFFFFFFFFFFFFFFFFFFFFFFFFF AND PUSH20 0xFFFFFFFFFFFFFFFFFFFFFFFFFFFFFFFFFFFFFFFF AND DUP2 MSTORE PUSH1 0x20 ADD SWAP1 DUP2 MSTORE PUSH1 0x20 ADD PUSH1 0x0 KECCAK256 PUSH1 0x0 DUP3 DUP3 SLOAD ADD SWAP3 POP POP DUP2 SWAP1 SSTORE POP DUP2 PUSH1 0x2 PUSH1 0x0 DUP4 DUP2 MSTORE PUSH1 0x20 ADD SWAP1 DUP2 MSTORE PUSH1 0x20 ADD PUSH1 0x0 KECCAK256 PUSH1 0x0 PUSH2 0x100 EXP DUP2 SLOAD DUP2 PUSH20 0xFFFFFFFFFFFFFFFFFFFFFFFFFFFFFFFFFFFFFFFF MUL NOT AND SWAP1 DUP4 PUSH20 0xFFFFFFFFFFFFFFFFFFFFFFFFFFFFFFFFFFFFFFFF AND MUL OR SWAP1 SSTORE POP DUP1 DUP3 PUSH20 0xFFFFFFFFFFFFFFFFFFFFFFFFFFFFFFFFFFFFFFFF AND DUP5 PUSH20 0xFFFFFFFFFFFFFFFFFFFFFFFFFFFFFFFFFFFFFFFF AND PUSH32 0xDDF252AD1BE2C89B69C2B068FC378DAA952BA7F163C4A11628F55A4DF523B3EF PUSH1 0x40 MLOAD PUSH1 0x40 MLOAD DUP1 SWAP2 SUB SWAP1 LOG4 PUSH2 0x15E7 DUP4 DUP4 DUP4 PUSH1 0x1 PUSH2 0x1C6D JUMP JUMPDEST POP POP POP JUMP JUMPDEST PUSH2 0x15F4 PUSH2 0x119D JUMP JUMPDEST PUSH20 0xFFFFFFFFFFFFFFFFFFFFFFFFFFFFFFFFFFFFFFFF AND PUSH2 0x1612 PUSH2 0xAB6 JUMP JUMPDEST PUSH20 0xFFFFFFFFFFFFFFFFFFFFFFFFFFFFFFFFFFFFFFFF AND EQ PUSH2 0x1668 JUMPI PUSH1 0x40 MLOAD PUSH32 0x8C379A000000000000000000000000000000000000000000000000000000000 DUP2 MSTORE PUSH1 0x4 ADD PUSH2 0x165F SWAP1 PUSH2 0x3881 JUMP JUMPDEST PUSH1 0x40 MLOAD DUP1 SWAP2 SUB SWAP1 REVERT JUMPDEST JUMP JUMPDEST PUSH2 0x1672 PUSH2 0x1C73 JUMP JUMPDEST PUSH1 0x0 PUSH1 0xB PUSH1 0x0 PUSH2 0x100 EXP DUP2 SLOAD DUP2 PUSH1 0xFF MUL NOT AND SWAP1 DUP4 ISZERO ISZERO MUL OR SWAP1 SSTORE POP PUSH32 0x5DB9EE0A495BF2E6FF9C91A7834C1BA4FDD244A5E8AA4E537BD38AEAE4B073AA PUSH2 0x16B6 PUSH2 0x119D JUMP JUMPDEST PUSH1 0x40 MLOAD PUSH2 0x16C3 SWAP2 SWAP1 PUSH2 0x2B72 JUMP JUMPDEST PUSH1 0x40 MLOAD DUP1 SWAP2 SUB SWAP1 LOG1 JUMP JUMPDEST PUSH2 0x16E7 DUP3 DUP3 PUSH1 0x40 MLOAD DUP1 PUSH1 0x20 ADD PUSH1 0x40 MSTORE DUP1 PUSH1 0x0 DUP2 MSTORE POP PUSH2 0x1CBC JUMP JUMPDEST POP POP JUMP JUMPDEST PUSH2 0x16F4 DUP2 PUSH2 0x1D17 JUMP JUMPDEST POP JUMP JUMPDEST PUSH1 0x0 PUSH1 0x2 PUSH1 0x0 DUP4 DUP2 MSTORE PUSH1 0x20 ADD SWAP1 DUP2 MSTORE PUSH1 0x20 ADD PUSH1 0x0 KECCAK256 PUSH1 0x0 SWAP1 SLOAD SWAP1 PUSH2 0x100 EXP SWAP1 DIV PUSH20 0xFFFFFFFFFFFFFFFFFFFFFFFFFFFFFFFFFFFFFFFF AND SWAP1 POP SWAP2 SWAP1 POP JUMP JUMPDEST PUSH1 0x0 PUSH1 0xB PUSH1 0x1 SWAP1 SLOAD SWAP1 PUSH2 0x100 EXP SWAP1 DIV PUSH20 0xFFFFFFFFFFFFFFFFFFFFFFFFFFFFFFFFFFFFFFFF AND SWAP1 POP DUP2 PUSH1 0xB PUSH1 0x1 PUSH2 0x100 EXP DUP2 SLOAD DUP2 PUSH20 0xFFFFFFFFFFFFFFFFFFFFFFFFFFFFFFFFFFFFFFFF MUL NOT AND SWAP1 DUP4 PUSH20 0xFFFFFFFFFFFFFFFFFFFFFFFFFFFFFFFFFFFFFFFF AND MUL OR SWAP1 SSTORE POP DUP2 PUSH20 0xFFFFFFFFFFFFFFFFFFFFFFFFFFFFFFFFFFFFFFFF AND DUP2 PUSH20 0xFFFFFFFFFFFFFFFFFFFFFFFFFFFFFFFFFFFFFFFF AND PUSH32 0x8BE0079C531659141344CD1FD0A4F28419497F9722A3DAAFE3B4186F6B6457E0 PUSH1 0x40 MLOAD PUSH1 0x40 MLOAD DUP1 SWAP2 SUB SWAP1 LOG3 POP POP JUMP JUMPDEST PUSH2 0x1802 PUSH2 0x1D6A JUMP JUMPDEST PUSH1 0x1 PUSH1 0xB PUSH1 0x0 PUSH2 0x100 EXP DUP2 SLOAD DUP2 PUSH1 0xFF MUL NOT AND SWAP1 DUP4 ISZERO ISZERO MUL OR SWAP1 SSTORE POP PUSH32 0x62E78CEA01BEE320CD4E420270B5EA74000D11B0C9F74754EBDBFC544B05A258 PUSH2 0x1846 PUSH2 0x119D JUMP JUMPDEST PUSH1 0x40 MLOAD PUSH2 0x1853 SWAP2 SWAP1 PUSH2 0x2B72 JUMP JUMPDEST PUSH1 0x40 MLOAD DUP1 SWAP2 SUB SWAP1 LOG1 JUMP JUMPDEST DUP2 PUSH20 0xFFFFFFFFFFFFFFFFFFFFFFFFFFFFFFFFFFFFFFFF AND DUP4 PUSH20 0xFFFFFFFFFFFFFFFFFFFFFFFFFFFFFFFFFFFFFFFF AND SUB PUSH2 0x18CB JUMPI PUSH1 0x40 MLOAD PUSH32 0x8C379A000000000000000000000000000000000000000000000000000000000 DUP2 MSTORE PUSH1 0x4 ADD PUSH2 0x18C2 SWAP1 PUSH2 0x38ED JUMP JUMPDEST PUSH1 0x40 MLOAD DUP1 SWAP2 SUB SWAP1 REVERT JUMPDEST DUP1 PUSH1 0x5 PUSH1 0x0 DUP6 PUSH20 0xFFFFFFFFFFFFFFFFFFFFFFFFFFFFFFFFFFFFFFFF AND PUSH20 0xFFFFFFFFFFFFFFFFFFFFFFFFFFFFFFFFFFFFFFFF AND DUP2 MSTORE PUSH1 0x20 ADD SWAP1 DUP2 MSTORE PUSH1 0x20 ADD PUSH1 0x0 KECCAK256 PUSH1 0x0 DUP5 PUSH20 0xFFFFFFFFFFFFFFFFFFFFFFFFFFFFFFFFFFFFFFFF AND PUSH20 0xFFFFFFFFFFFFFFFFFFFFFFFFFFFFFFFFFFFFFFFF AND DUP2 MSTORE PUSH1 0x20 ADD SWAP1 DUP2 MSTORE PUSH1 0x20 ADD PUSH1 0x0 KECCAK256 PUSH1 0x0 PUSH2 0x100 EXP DUP2 SLOAD DUP2 PUSH1 0xFF MUL NOT AND SWAP1 DUP4 ISZERO ISZERO MUL OR SWAP1 SSTORE POP DUP2 PUSH20 0xFFFFFFFFFFFFFFFFFFFFFFFFFFFFFFFFFFFFFFFF AND DUP4 PUSH20 0xFFFFFFFFFFFFFFFFFFFFFFFFFFFFFFFFFFFFFFFF AND PUSH32 0x17307EAB39AB6107E8899845AD3D59BD9653F200F220920489CA2B5937696C31 DUP4 PUSH1 0x40 MLOAD PUSH2 0x19BC SWAP2 SWAP1 PUSH2 0x2A01 JUMP JUMPDEST PUSH1 0x40 MLOAD DUP1 SWAP2 SUB SWAP1 LOG3 POP POP POP JUMP JUMPDEST PUSH2 0x19D4 DUP5 DUP5 DUP5 PUSH2 0x12F3 JUMP JUMPDEST PUSH2 0x19E0 DUP5 DUP5 DUP5 DUP5 PUSH2 0x1DB4 JUMP JUMPDEST PUSH2 0x1A1F JUMPI PUSH1 0x40 MLOAD PUSH32 0x8C379A000000000000000000000000000000000000000000000000000000000 DUP2 MSTORE PUSH1 0x4 ADD PUSH2 0x1A16 SWAP1 PUSH2 0x397F JUMP JUMPDEST PUSH1 0x40 MLOAD DUP1 SWAP2 SUB SWAP1 REVERT JUMPDEST POP POP POP POP JUMP JUMPDEST PUSH1 0x60 PUSH1 0x40 MLOAD DUP1 PUSH1 0x40 ADD PUSH1 0x40 MSTORE DUP1 PUSH1 0x15 DUP2 MSTORE PUSH1 0x20 ADD PUSH32 0x697066733A2F2F3C686173683E2F646F612F6E66740000000000000000000000 DUP2 MSTORE POP SWAP1 POP SWAP1 JUMP JUMPDEST PUSH1 0x60 PUSH1 0x0 PUSH1 0x1 PUSH2 0x1A71 DUP5 PUSH2 0x1F3B JUMP JUMPDEST ADD SWAP1 POP PUSH1 0x0 DUP2 PUSH8 0xFFFFFFFFFFFFFFFF DUP2 GT ISZERO PUSH2 0x1A90 JUMPI PUSH2 0x1A8F PUSH2 0x2D19 JUMP JUMPDEST JUMPDEST PUSH1 0x40 MLOAD SWAP1 DUP1 DUP3 MSTORE DUP1 PUSH1 0x1F ADD PUSH1 0x1F NOT AND PUSH1 0x20 ADD DUP3 ADD PUSH1 0x40 MSTORE DUP1 ISZERO PUSH2 0x1AC2 JUMPI DUP2 PUSH1 0x20 ADD PUSH1 0x1 DUP3 MUL DUP1 CALLDATASIZE DUP4 CALLDATACOPY DUP1 DUP3 ADD SWAP2 POP POP SWAP1 POP JUMPDEST POP SWAP1 POP PUSH1 0x0 DUP3 PUSH1 0x20 ADD DUP3 ADD SWAP1 POP JUMPDEST PUSH1 0x1 ISZERO PUSH2 0x1B25 JUMPI DUP1 DUP1 PUSH1 0x1 SWAP1 SUB SWAP2 POP POP PUSH32 0x3031323334353637383961626364656600000000000000000000000000000000 PUSH1 0xA DUP7 MOD BYTE DUP2 MSTORE8 PUSH1 0xA DUP6 DUP2 PUSH2 0x1B19 JUMPI PUSH2 0x1B18 PUSH2 0x399F JUMP JUMPDEST JUMPDEST DIV SWAP5 POP PUSH1 0x0 DUP6 SUB PUSH2 0x1AD0 JUMPI JUMPDEST DUP2 SWAP4 POP POP POP POP SWAP2 SWAP1 POP JUMP JUMPDEST PUSH1 0x0 PUSH32 0x80AC58CD00000000000000000000000000000000000000000000000000000000 PUSH28 0xFFFFFFFFFFFFFFFFFFFFFFFFFFFFFFFFFFFFFFFFFFFFFFFFFFFFFFFF NOT AND DUP3 PUSH28 0xFFFFFFFFFFFFFFFFFFFFFFFFFFFFFFFFFFFFFFFFFFFFFFFFFFFFFFFF NOT AND EQ DUP1 PUSH2 0x1BFB JUMPI POP PUSH32 0x5B5E139F00000000000000000000000000000000000000000000000000000000 PUSH28 0xFFFFFFFFFFFFFFFFFFFFFFFFFFFFFFFFFFFFFFFFFFFFFFFFFFFFFFFF NOT AND DUP3 PUSH28 0xFFFFFFFFFFFFFFFFFFFFFFFFFFFFFFFFFFFFFFFFFFFFFFFFFFFFFFFF NOT AND EQ JUMPDEST DUP1 PUSH2 0x1C0B JUMPI POP PUSH2 0x1C0A DUP3 PUSH2 0x208E JUMP JUMPDEST JUMPDEST SWAP1 POP SWAP2 SWAP1 POP JUMP JUMPDEST PUSH1 0x0 DUP1 PUSH20 0xFFFFFFFFFFFFFFFFFFFFFFFFFFFFFFFFFFFFFFFF AND PUSH2 0x1C34 DUP4 PUSH2 0x16F7 JUMP JUMPDEST PUSH20 0xFFFFFFFFFFFFFFFFFFFFFFFFFFFFFFFFFFFFFFFF AND EQ ISZERO SWAP1 POP SWAP2 SWAP1 POP JUMP JUMPDEST PUSH2 0x1C5B PUSH2 0x1D6A JUMP JUMPDEST PUSH2 0x1C67 DUP5 DUP5 DUP5 DUP5 PUSH2 0x20F8 JUMP JUMPDEST POP POP POP POP JUMP JUMPDEST POP POP POP POP JUMP JUMPDEST PUSH2 0x1C7B PUSH2 0x93C JUMP JUMPDEST PUSH2 0x1CBA JUMPI PUSH1 0x40 MLOAD PUSH32 0x8C379A000000000000000000000000000000000000000000000000000000000 DUP2 MSTORE PUSH1 0x4 ADD PUSH2 0x1CB1 SWAP1 PUSH2 0x3A1A JUMP JUMPDEST PUSH1 0x40 MLOAD DUP1 SWAP2 SUB SWAP1 REVERT JUMPDEST JUMP JUMPDEST PUSH2 0x1CC6 DUP4 DUP4 PUSH2 0x2256 JUMP JUMPDEST PUSH2 0x1CD3 PUSH1 0x0 DUP5 DUP5 DUP5 PUSH2 0x1DB4 JUMP JUMPDEST PUSH2 0x1D12 JUMPI PUSH1 0x40 MLOAD PUSH32 0x8C379A000000000000000000000000000000000000000000000000000000000 DUP2 MSTORE PUSH1 0x4 ADD PUSH2 0x1D09 SWAP1 PUSH2 0x397F JUMP JUMPDEST PUSH1 0x40 MLOAD DUP1 SWAP2 SUB SWAP1 REVERT JUMPDEST POP POP POP JUMP JUMPDEST PUSH2 0x1D20 DUP2 PUSH2 0x2473 JUMP JUMPDEST PUSH1 0x0 PUSH1 0xA PUSH1 0x0 DUP4 DUP2 MSTORE PUSH1 0x20 ADD SWAP1 DUP2 MSTORE PUSH1 0x20 ADD PUSH1 0x0 KECCAK256 DUP1 SLOAD PUSH2 0x1D40 SWAP1 PUSH2 0x2F36 JUMP JUMPDEST SWAP1 POP EQ PUSH2 0x1D67 JUMPI PUSH1 0xA PUSH1 0x0 DUP3 DUP2 MSTORE PUSH1 0x20 ADD SWAP1 DUP2 MSTORE PUSH1 0x20 ADD PUSH1 0x0 KECCAK256 PUSH1 0x0 PUSH2 0x1D66 SWAP2 SWAP1 PUSH2 0x28F0 JUMP JUMPDEST JUMPDEST POP JUMP JUMPDEST PUSH2 0x1D72 PUSH2 0x93C JUMP JUMPDEST ISZERO PUSH2 0x1DB2 JUMPI PUSH1 0x40 MLOAD PUSH32 0x8C379A000000000000000000000000000000000000000000000000000000000 DUP2 MSTORE PUSH1 0x4 ADD PUSH2 0x1DA9 SWAP1 PUSH2 0x3A86 JUMP JUMPDEST PUSH1 0x40 MLOAD DUP1 SWAP2 SUB SWAP1 REVERT JUMPDEST JUMP JUMPDEST PUSH1 0x0 PUSH2 0x1DD5 DUP5 PUSH20 0xFFFFFFFFFFFFFFFFFFFFFFFFFFFFFFFFFFFFFFFF AND PUSH2 0x25C1 JUMP JUMPDEST ISZERO PUSH2 0x1F2E JUMPI DUP4 PUSH20 0xFFFFFFFFFFFFFFFFFFFFFFFFFFFFFFFFFFFFFFFF AND PUSH4 0x150B7A02 PUSH2 0x1DFE PUSH2 0x119D JUMP JUMPDEST DUP8 DUP7 DUP7 PUSH1 0x40 MLOAD DUP6 PUSH4 0xFFFFFFFF AND PUSH1 0xE0 SHL DUP2 MSTORE PUSH1 0x4 ADD PUSH2 0x1E20 SWAP5 SWAP4 SWAP3 SWAP2 SWAP1 PUSH2 0x3AFB JUMP JUMPDEST PUSH1 0x20 PUSH1 0x40 MLOAD DUP1 DUP4 SUB DUP2 PUSH1 0x0 DUP8 GAS CALL SWAP3 POP POP POP DUP1 ISZERO PUSH2 0x1E5C JUMPI POP PUSH1 0x40 MLOAD RETURNDATASIZE PUSH1 0x1F NOT PUSH1 0x1F DUP3 ADD AND DUP3 ADD DUP1 PUSH1 0x40 MSTORE POP DUP2 ADD SWAP1 PUSH2 0x1E59 SWAP2 SWAP1 PUSH2 0x3B5C JUMP JUMPDEST PUSH1 0x1 JUMPDEST PUSH2 0x1EDE JUMPI RETURNDATASIZE DUP1 PUSH1 0x0 DUP2 EQ PUSH2 0x1E8C JUMPI PUSH1 0x40 MLOAD SWAP2 POP PUSH1 0x1F NOT PUSH1 0x3F RETURNDATASIZE ADD AND DUP3 ADD PUSH1 0x40 MSTORE RETURNDATASIZE DUP3 MSTORE RETURNDATASIZE PUSH1 0x0 PUSH1 0x20 DUP5 ADD RETURNDATACOPY PUSH2 0x1E91 JUMP JUMPDEST PUSH1 0x60 SWAP2 POP JUMPDEST POP PUSH1 0x0 DUP2 MLOAD SUB PUSH2 0x1ED6 JUMPI PUSH1 0x40 MLOAD PUSH32 0x8C379A000000000000000000000000000000000000000000000000000000000 DUP2 MSTORE PUSH1 0x4 ADD PUSH2 0x1ECD SWAP1 PUSH2 0x397F JUMP JUMPDEST PUSH1 0x40 MLOAD DUP1 SWAP2 SUB SWAP1 REVERT JUMPDEST DUP1 MLOAD DUP2 PUSH1 0x20 ADD REVERT JUMPDEST PUSH4 0x150B7A02 PUSH1 0xE0 SHL PUSH28 0xFFFFFFFFFFFFFFFFFFFFFFFFFFFFFFFFFFFFFFFFFFFFFFFFFFFFFFFF NOT AND DUP2 PUSH28 0xFFFFFFFFFFFFFFFFFFFFFFFFFFFFFFFFFFFFFFFFFFFFFFFFFFFFFFFF NOT AND EQ SWAP2 POP POP PUSH2 0x1F33 JUMP JUMPDEST PUSH1 0x1 SWAP1 POP JUMPDEST SWAP5 SWAP4 POP POP POP POP JUMP JUMPDEST PUSH1 0x0 DUP1 PUSH1 0x0 SWAP1 POP PUSH27 0x184F03E93FF9F4DAA797ED6E38ED64BF6A1F010000000000000000 DUP4 LT PUSH2 0x1F99 JUMPI PUSH27 0x184F03E93FF9F4DAA797ED6E38ED64BF6A1F010000000000000000 DUP4 DUP2 PUSH2 0x1F8F JUMPI PUSH2 0x1F8E PUSH2 0x399F JUMP JUMPDEST JUMPDEST DIV SWAP3 POP PUSH1 0x40 DUP2 ADD SWAP1 POP JUMPDEST PUSH14 0x4EE2D6D415B85ACEF8100000000 DUP4 LT PUSH2 0x1FD6 JUMPI PUSH14 0x4EE2D6D415B85ACEF8100000000 DUP4 DUP2 PUSH2 0x1FCC JUMPI PUSH2 0x1FCB PUSH2 0x399F JUMP JUMPDEST JUMPDEST DIV SWAP3 POP PUSH1 0x20 DUP2 ADD SWAP1 POP JUMPDEST PUSH7 0x2386F26FC10000 DUP4 LT PUSH2 0x2005 JUMPI PUSH7 0x2386F26FC10000 DUP4 DUP2 PUSH2 0x1FFB JUMPI PUSH2 0x1FFA PUSH2 0x399F JUMP JUMPDEST JUMPDEST DIV SWAP3 POP PUSH1 0x10 DUP2 ADD SWAP1 POP JUMPDEST PUSH4 0x5F5E100 DUP4 LT PUSH2 0x202E JUMPI PUSH4 0x5F5E100 DUP4 DUP2 PUSH2 0x2024 JUMPI PUSH2 0x2023 PUSH2 0x399F JUMP JUMPDEST JUMPDEST DIV SWAP3 POP PUSH1 0x8 DUP2 ADD SWAP1 POP JUMPDEST PUSH2 0x2710 DUP4 LT PUSH2 0x2053 JUMPI PUSH2 0x2710 DUP4 DUP2 PUSH2 0x2049 JUMPI PUSH2 0x2048 PUSH2 0x399F JUMP JUMPDEST JUMPDEST DIV SWAP3 POP PUSH1 0x4 DUP2 ADD SWAP1 POP JUMPDEST PUSH1 0x64 DUP4 LT PUSH2 0x2076 JUMPI PUSH1 0x64 DUP4 DUP2 PUSH2 0x206C JUMPI PUSH2 0x206B PUSH2 0x399F JUMP JUMPDEST JUMPDEST DIV SWAP3 POP PUSH1 0x2 DUP2 ADD SWAP1 POP JUMPDEST PUSH1 0xA DUP4 LT PUSH2 0x2085 JUMPI PUSH1 0x1 DUP2 ADD SWAP1 POP JUMPDEST DUP1 SWAP2 POP POP SWAP2 SWAP1 POP JUMP JUMPDEST PUSH1 0x0 PUSH32 0x1FFC9A700000000000000000000000000000000000000000000000000000000 PUSH28 0xFFFFFFFFFFFFFFFFFFFFFFFFFFFFFFFFFFFFFFFFFFFFFFFFFFFFFFFF NOT AND DUP3 PUSH28 0xFFFFFFFFFFFFFFFFFFFFFFFFFFFFFFFFFFFFFFFFFFFFFFFFFFFFFFFF NOT AND EQ SWAP1 POP SWAP2 SWAP1 POP JUMP JUMPDEST PUSH2 0x2104 DUP5 DUP5 DUP5 DUP5 PUSH2 0x25E4 JUMP JUMPDEST PUSH1 0x1 DUP2 GT ISZERO PUSH2 0x2148 JUMPI PUSH1 0x40 MLOAD PUSH32 0x8C379A000000000000000000000000000000000000000000000000000000000 DUP2 MSTORE PUSH1 0x4 ADD PUSH2 0x213F SWAP1 PUSH2 0x3BFB JUMP JUMPDEST PUSH1 0x40 MLOAD DUP1 SWAP2 SUB SWAP1 REVERT JUMPDEST PUSH1 0x0 DUP3 SWAP1 POP PUSH1 0x0 PUSH20 0xFFFFFFFFFFFFFFFFFFFFFFFFFFFFFFFFFFFFFFFF AND DUP6 PUSH20 0xFFFFFFFFFFFFFFFFFFFFFFFFFFFFFFFFFFFFFFFF AND SUB PUSH2 0x218F JUMPI PUSH2 0x218A DUP2 PUSH2 0x25EA JUMP JUMPDEST PUSH2 0x21CE JUMP JUMPDEST DUP4 PUSH20 0xFFFFFFFFFFFFFFFFFFFFFFFFFFFFFFFFFFFFFFFF AND DUP6 PUSH20 0xFFFFFFFFFFFFFFFFFFFFFFFFFFFFFFFFFFFFFFFF AND EQ PUSH2 0x21CD JUMPI PUSH2 0x21CC DUP6 DUP3 PUSH2 0x2633 JUMP JUMPDEST JUMPDEST JUMPDEST PUSH1 0x0 PUSH20 0xFFFFFFFFFFFFFFFFFFFFFFFFFFFFFFFFFFFFFFFF AND DUP5 PUSH20 0xFFFFFFFFFFFFFFFFFFFFFFFFFFFFFFFFFFFFFFFF AND SUB PUSH2 0x2210 JUMPI PUSH2 0x220B DUP2 PUSH2 0x27A0 JUMP JUMPDEST PUSH2 0x224F JUMP JUMPDEST DUP5 PUSH20 0xFFFFFFFFFFFFFFFFFFFFFFFFFFFFFFFFFFFFFFFF AND DUP5 PUSH20 0xFFFFFFFFFFFFFFFFFFFFFFFFFFFFFFFFFFFFFFFF AND EQ PUSH2 0x224E JUMPI PUSH2 0x224D DUP5 DUP3 PUSH2 0x2871 JUMP JUMPDEST JUMPDEST JUMPDEST POP POP POP POP POP JUMP JUMPDEST PUSH1 0x0 PUSH20 0xFFFFFFFFFFFFFFFFFFFFFFFFFFFFFFFFFFFFFFFF AND DUP3 PUSH20 0xFFFFFFFFFFFFFFFFFFFFFFFFFFFFFFFFFFFFFFFF AND SUB PUSH2 0x22C5 JUMPI PUSH1 0x40 MLOAD PUSH32 0x8C379A000000000000000000000000000000000000000000000000000000000 DUP2 MSTORE PUSH1 0x4 ADD PUSH2 0x22BC SWAP1 PUSH2 0x3C67 JUMP JUMPDEST PUSH1 0x40 MLOAD DUP1 SWAP2 SUB SWAP1 REVERT JUMPDEST PUSH2 0x22CE DUP2 PUSH2 0x1C12 JUMP JUMPDEST ISZERO PUSH2 0x230E JUMPI PUSH1 0x40 MLOAD PUSH32 0x8C379A000000000000000000000000000000000000000000000000000000000 DUP2 MSTORE PUSH1 0x4 ADD PUSH2 0x2305 SWAP1 PUSH2 0x3CD3 JUMP JUMPDEST PUSH1 0x40 MLOAD DUP1 SWAP2 SUB SWAP1 REVERT JUMPDEST PUSH2 0x231C PUSH1 0x0 DUP4 DUP4 PUSH1 0x1 PUSH2 0x1C53 JUMP JUMPDEST PUSH2 0x2325 DUP2 PUSH2 0x1C12 JUMP JUMPDEST ISZERO PUSH2 0x2365 JUMPI PUSH1 0x40 MLOAD PUSH32 0x8C379A000000000000000000000000000000000000000000000000000000000 DUP2 MSTORE PUSH1 0x4 ADD PUSH2 0x235C SWAP1 PUSH2 0x3CD3 JUMP JUMPDEST PUSH1 0x40 MLOAD DUP1 SWAP2 SUB SWAP1 REVERT JUMPDEST PUSH1 0x1 PUSH1 0x3 PUSH1 0x0 DUP5 PUSH20 0xFFFFFFFFFFFFFFFFFFFFFFFFFFFFFFFFFFFFFFFF AND PUSH20 0xFFFFFFFFFFFFFFFFFFFFFFFFFFFFFFFFFFFFFFFF AND DUP2 MSTORE PUSH1 0x20 ADD SWAP1 DUP2 MSTORE PUSH1 0x20 ADD PUSH1 0x0 KECCAK256 PUSH1 0x0 DUP3 DUP3 SLOAD ADD SWAP3 POP POP DUP2 SWAP1 SSTORE POP DUP2 PUSH1 0x2 PUSH1 0x0 DUP4 DUP2 MSTORE PUSH1 0x20 ADD SWAP1 DUP2 MSTORE PUSH1 0x20 ADD PUSH1 0x0 KECCAK256 PUSH1 0x0 PUSH2 0x100 EXP DUP2 SLOAD DUP2 PUSH20 0xFFFFFFFFFFFFFFFFFFFFFFFFFFFFFFFFFFFFFFFF MUL NOT AND SWAP1 DUP4 PUSH20 0xFFFFFFFFFFFFFFFFFFFFFFFFFFFFFFFFFFFFFFFF AND MUL OR SWAP1 SSTORE POP DUP1 DUP3 PUSH20 0xFFFFFFFFFFFFFFFFFFFFFFFFFFFFFFFFFFFFFFFF AND PUSH1 0x0 PUSH20 0xFFFFFFFFFFFFFFFFFFFFFFFFFFFFFFFFFFFFFFFF AND PUSH32 0xDDF252AD1BE2C89B69C2B068FC378DAA952BA7F163C4A11628F55A4DF523B3EF PUSH1 0x40 MLOAD PUSH1 0x40 MLOAD DUP1 SWAP2 SUB SWAP1 LOG4 PUSH2 0x246F PUSH1 0x0 DUP4 DUP4 PUSH1 0x1 PUSH2 0x1C6D JUMP JUMPDEST POP POP JUMP JUMPDEST PUSH1 0x0 PUSH2 0x247E DUP3 PUSH2 0x953 JUMP JUMPDEST SWAP1 POP PUSH2 0x248E DUP2 PUSH1 0x0 DUP5 PUSH1 0x1 PUSH2 0x1C53 JUMP JUMPDEST PUSH2 0x2497 DUP3 PUSH2 0x953 JUMP JUMPDEST SWAP1 POP PUSH1 0x4 PUSH1 0x0 DUP4 DUP2 MSTORE PUSH1 0x20 ADD SWAP1 DUP2 MSTORE PUSH1 0x20 ADD PUSH1 0x0 KECCAK256 PUSH1 0x0 PUSH2 0x100 EXP DUP2 SLOAD SWAP1 PUSH20 0xFFFFFFFFFFFFFFFFFFFFFFFFFFFFFFFFFFFFFFFF MUL NOT AND SWAP1 SSTORE PUSH1 0x1 PUSH1 0x3 PUSH1 0x0 DUP4 PUSH20 0xFFFFFFFFFFFFFFFFFFFFFFFFFFFFFFFFFFFFFFFF AND PUSH20 0xFFFFFFFFFFFFFFFFFFFFFFFFFFFFFFFFFFFFFFFF AND DUP2 MSTORE PUSH1 0x20 ADD SWAP1 DUP2 MSTORE PUSH1 0x20 ADD PUSH1 0x0 KECCAK256 PUSH1 0x0 DUP3 DUP3 SLOAD SUB SWAP3 POP POP DUP2 SWAP1 SSTORE POP PUSH1 0x2 PUSH1 0x0 DUP4 DUP2 MSTORE PUSH1 0x20 ADD SWAP1 DUP2 MSTORE PUSH1 0x20 ADD PUSH1 0x0 KECCAK256 PUSH1 0x0 PUSH2 0x100 EXP DUP2 SLOAD SWAP1 PUSH20 0xFFFFFFFFFFFFFFFFFFFFFFFFFFFFFFFFFFFFFFFF MUL NOT AND SWAP1 SSTORE DUP2 PUSH1 0x0 PUSH20 0xFFFFFFFFFFFFFFFFFFFFFFFFFFFFFFFFFFFFFFFF AND DUP3 PUSH20 0xFFFFFFFFFFFFFFFFFFFFFFFFFFFFFFFFFFFFFFFF AND PUSH32 0xDDF252AD1BE2C89B69C2B068FC378DAA952BA7F163C4A11628F55A4DF523B3EF PUSH1 0x40 MLOAD PUSH1 0x40 MLOAD DUP1 SWAP2 SUB SWAP1 LOG4 PUSH2 0x25BD DUP2 PUSH1 0x0 DUP5 PUSH1 0x1 PUSH2 0x1C6D JUMP JUMPDEST POP POP JUMP JUMPDEST PUSH1 0x0 DUP1 DUP3 PUSH20 0xFFFFFFFFFFFFFFFFFFFFFFFFFFFFFFFFFFFFFFFF AND EXTCODESIZE GT SWAP1 POP SWAP2 SWAP1 POP JUMP JUMPDEST POP POP POP POP JUMP JUMPDEST PUSH1 0x8 DUP1 SLOAD SWAP1 POP PUSH1 0x9 PUSH1 0x0 DUP4 DUP2 MSTORE PUSH1 0x20 ADD SWAP1 DUP2 MSTORE PUSH1 0x20 ADD PUSH1 0x0 KECCAK256 DUP2 SWAP1 SSTORE POP PUSH1 0x8 DUP2 SWAP1 DUP1 PUSH1 0x1 DUP2 SLOAD ADD DUP1 DUP3 SSTORE DUP1 SWAP2 POP POP PUSH1 0x1 SWAP1 SUB SWAP1 PUSH1 0x0 MSTORE PUSH1 0x20 PUSH1 0x0 KECCAK256 ADD PUSH1 0x0 SWAP1 SWAP2 SWAP1 SWAP2 SWAP1 SWAP2 POP SSTORE POP JUMP JUMPDEST PUSH1 0x0 PUSH1 0x1 PUSH2 0x2640 DUP5 PUSH2 0x9D9 JUMP JUMPDEST PUSH2 0x264A SWAP2 SWAP1 PUSH2 0x3661 JUMP JUMPDEST SWAP1 POP PUSH1 0x0 PUSH1 0x7 PUSH1 0x0 DUP5 DUP2 MSTORE PUSH1 0x20 ADD SWAP1 DUP2 MSTORE PUSH1 0x20 ADD PUSH1 0x0 KECCAK256 SLOAD SWAP1 POP DUP2 DUP2 EQ PUSH2 0x272F JUMPI PUSH1 0x0 PUSH1 0x6 PUSH1 0x0 DUP7 PUSH20 0xFFFFFFFFFFFFFFFFFFFFFFFFFFFFFFFFFFFFFFFF AND PUSH20 0xFFFFFFFFFFFFFFFFFFFFFFFFFFFFFFFFFFFFFFFF AND DUP2 MSTORE PUSH1 0x20 ADD SWAP1 DUP2 MSTORE PUSH1 0x20 ADD PUSH1 0x0 KECCAK256 PUSH1 0x0 DUP5 DUP2 MSTORE PUSH1 0x20 ADD SWAP1 DUP2 MSTORE PUSH1 0x20 ADD PUSH1 0x0 KECCAK256 SLOAD SWAP1 POP DUP1 PUSH1 0x6 PUSH1 0x0 DUP8 PUSH20 0xFFFFFFFFFFFFFFFFFFFFFFFFFFFFFFFFFFFFFFFF AND PUSH20 0xFFFFFFFFFFFFFFFFFFFFFFFFFFFFFFFFFFFFFFFF AND DUP2 MSTORE PUSH1 0x20 ADD SWAP1 DUP2 MSTORE PUSH1 0x20 ADD PUSH1 0x0 KECCAK256 PUSH1 0x0 DUP5 DUP2 MSTORE PUSH1 0x20 ADD SWAP1 DUP2 MSTORE PUSH1 0x20 ADD PUSH1 0x0 KECCAK256 DUP2 SWAP1 SSTORE POP DUP2 PUSH1 0x7 PUSH1 0x0 DUP4 DUP2 MSTORE PUSH1 0x20 ADD SWAP1 DUP2 MSTORE PUSH1 0x20 ADD PUSH1 0x0 KECCAK256 DUP2 SWAP1 SSTORE POP POP JUMPDEST PUSH1 0x7 PUSH1 0x0 DUP5 DUP2 MSTORE PUSH1 0x20 ADD SWAP1 DUP2 MSTORE PUSH1 0x20 ADD PUSH1 0x0 KECCAK256 PUSH1 0x0 SWAP1 SSTORE PUSH1 0x6 PUSH1 0x0 DUP6 PUSH20 0xFFFFFFFFFFFFFFFFFFFFFFFFFFFFFFFFFFFFFFFF AND PUSH20 0xFFFFFFFFFFFFFFFFFFFFFFFFFFFFFFFFFFFFFFFF AND DUP2 MSTORE PUSH1 0x20 ADD SWAP1 DUP2 MSTORE PUSH1 0x20 ADD PUSH1 0x0 KECCAK256 PUSH1 0x0 DUP4 DUP2 MSTORE PUSH1 0x20 ADD SWAP1 DUP2 MSTORE PUSH1 0x20 ADD PUSH1 0x0 KECCAK256 PUSH1 0x0 SWAP1 SSTORE POP POP POP POP JUMP JUMPDEST PUSH1 0x0 PUSH1 0x1 PUSH1 0x8 DUP1 SLOAD SWAP1 POP PUSH2 0x27B4 SWAP2 SWAP1 PUSH2 0x3661 JUMP JUMPDEST SWAP1 POP PUSH1 0x0 PUSH1 0x9 PUSH1 0x0 DUP5 DUP2 MSTORE PUSH1 0x20 ADD SWAP1 DUP2 MSTORE PUSH1 0x20 ADD PUSH1 0x0 KECCAK256 SLOAD SWAP1 POP PUSH1 0x0 PUSH1 0x8 DUP4 DUP2 SLOAD DUP2 LT PUSH2 0x27E4 JUMPI PUSH2 0x27E3 PUSH2 0x3241 JUMP JUMPDEST JUMPDEST SWAP1 PUSH1 0x0 MSTORE PUSH1 0x20 PUSH1 0x0 KECCAK256 ADD SLOAD SWAP1 POP DUP1 PUSH1 0x8 DUP4 DUP2 SLOAD DUP2 LT PUSH2 0x2806 JUMPI PUSH2 0x2805 PUSH2 0x3241 JUMP JUMPDEST JUMPDEST SWAP1 PUSH1 0x0 MSTORE PUSH1 0x20 PUSH1 0x0 KECCAK256 ADD DUP2 SWAP1 SSTORE POP DUP2 PUSH1 0x9 PUSH1 0x0 DUP4 DUP2 MSTORE PUSH1 0x20 ADD SWAP1 DUP2 MSTORE PUSH1 0x20 ADD PUSH1 0x0 KECCAK256 DUP2 SWAP1 SSTORE POP PUSH1 0x9 PUSH1 0x0 DUP6 DUP2 MSTORE PUSH1 0x20 ADD SWAP1 DUP2 MSTORE PUSH1 0x20 ADD PUSH1 0x0 KECCAK256 PUSH1 0x0 SWAP1 SSTORE PUSH1 0x8 DUP1 SLOAD DUP1 PUSH2 0x2855 JUMPI PUSH2 0x2854 PUSH2 0x3CF3 JUMP JUMPDEST JUMPDEST PUSH1 0x1 SWAP1 SUB DUP2 DUP2 SWAP1 PUSH1 0x0 MSTORE PUSH1 0x20 PUSH1 0x0 KECCAK256 ADD PUSH1 0x0 SWAP1 SSTORE SWAP1 SSTORE POP POP POP POP JUMP JUMPDEST PUSH1 0x0 PUSH2 0x287C DUP4 PUSH2 0x9D9 JUMP JUMPDEST SWAP1 POP DUP2 PUSH1 0x6 PUSH1 0x0 DUP6 PUSH20 0xFFFFFFFFFFFFFFFFFFFFFFFFFFFFFFFFFFFFFFFF AND PUSH20 0xFFFFFFFFFFFFFFFFFFFFFFFFFFFFFFFFFFFFFFFF AND DUP2 MSTORE PUSH1 0x20 ADD SWAP1 DUP2 MSTORE PUSH1 0x20 ADD PUSH1 0x0 KECCAK256 PUSH1 0x0 DUP4 DUP2 MSTORE PUSH1 0x20 ADD SWAP1 DUP2 MSTORE PUSH1 0x20 ADD PUSH1 0x0 KECCAK256 DUP2 SWAP1 SSTORE POP DUP1 PUSH1 0x7 PUSH1 0x0 DUP5 DUP2 MSTORE PUSH1 0x20 ADD SWAP1 DUP2 MSTORE PUSH1 0x20 ADD PUSH1 0x0 KECCAK256 DUP2 SWAP1 SSTORE POP POP POP POP JUMP JUMPDEST POP DUP1 SLOAD PUSH2 0x28FC SWAP1 PUSH2 0x2F36 JUMP JUMPDEST PUSH1 0x0 DUP3 SSTORE DUP1 PUSH1 0x1F LT PUSH2 0x290E JUMPI POP PUSH2 0x292D JUMP JUMPDEST PUSH1 0x1F ADD PUSH1 0x20 SWAP1 DIV SWAP1 PUSH1 0x0 MSTORE PUSH1 0x20 PUSH1 0x0 KECCAK256 SWAP1 DUP2 ADD SWAP1 PUSH2 0x292C SWAP2 SWAP1 PUSH2 0x2930 JUMP JUMPDEST JUMPDEST POP JUMP JUMPDEST JUMPDEST DUP1 DUP3 GT ISZERO PUSH2 0x2949 JUMPI PUSH1 0x0 DUP2 PUSH1 0x0 SWAP1 SSTORE POP PUSH1 0x1 ADD PUSH2 0x2931 JUMP JUMPDEST POP SWAP1 JUMP JUMPDEST PUSH1 0x0 PUSH1 0x40 MLOAD SWAP1 POP SWAP1 JUMP JUMPDEST PUSH1 0x0 DUP1 REVERT JUMPDEST PUSH1 0x0 DUP1 REVERT JUMPDEST PUSH1 0x0 PUSH32 0xFFFFFFFF00000000000000000000000000000000000000000000000000000000 DUP3 AND SWAP1 POP SWAP2 SWAP1 POP JUMP JUMPDEST PUSH2 0x2996 DUP2 PUSH2 0x2961 JUMP JUMPDEST DUP2 EQ PUSH2 0x29A1 JUMPI PUSH1 0x0 DUP1 REVERT JUMPDEST POP JUMP JUMPDEST PUSH1 0x0 DUP2 CALLDATALOAD SWAP1 POP PUSH2 0x29B3 DUP2 PUSH2 0x298D JUMP JUMPDEST SWAP3 SWAP2 POP POP JUMP JUMPDEST PUSH1 0x0 PUSH1 0x20 DUP3 DUP5 SUB SLT ISZERO PUSH2 0x29CF JUMPI PUSH2 0x29CE PUSH2 0x2957 JUMP JUMPDEST JUMPDEST PUSH1 0x0 PUSH2 0x29DD DUP5 DUP3 DUP6 ADD PUSH2 0x29A4 JUMP JUMPDEST SWAP2 POP POP SWAP3 SWAP2 POP POP JUMP JUMPDEST PUSH1 0x0 DUP2 ISZERO ISZERO SWAP1 POP SWAP2 SWAP1 POP JUMP JUMPDEST PUSH2 0x29FB DUP2 PUSH2 0x29E6 JUMP JUMPDEST DUP3 MSTORE POP POP JUMP JUMPDEST PUSH1 0x0 PUSH1 0x20 DUP3 ADD SWAP1 POP PUSH2 0x2A16 PUSH1 0x0 DUP4 ADD DUP5 PUSH2 0x29F2 JUMP JUMPDEST SWAP3 SWAP2 POP POP JUMP JUMPDEST PUSH1 0x0 DUP2 MLOAD SWAP1 POP SWAP2 SWAP1 POP JUMP JUMPDEST PUSH1 0x0 DUP3 DUP3 MSTORE PUSH1 0x20 DUP3 ADD SWAP1 POP SWAP3 SWAP2 POP POP JUMP JUMPDEST PUSH1 0x0 JUMPDEST DUP4 DUP2 LT ISZERO PUSH2 0x2A56 JUMPI DUP1 DUP3 ADD MLOAD DUP2 DUP5 ADD MSTORE PUSH1 0x20 DUP2 ADD SWAP1 POP PUSH2 0x2A3B JUMP JUMPDEST PUSH1 0x0 DUP5 DUP5 ADD MSTORE POP POP POP POP JUMP JUMPDEST PUSH1 0x0 PUSH1 0x1F NOT PUSH1 0x1F DUP4 ADD AND SWAP1 POP SWAP2 SWAP1 POP JUMP JUMPDEST PUSH1 0x0 PUSH2 0x2A7E DUP3 PUSH2 0x2A1C JUMP JUMPDEST PUSH2 0x2A88 DUP2 DUP6 PUSH2 0x2A27 JUMP JUMPDEST SWAP4 POP PUSH2 0x2A98 DUP2 DUP6 PUSH1 0x20 DUP7 ADD PUSH2 0x2A38 JUMP JUMPDEST PUSH2 0x2AA1 DUP2 PUSH2 0x2A62 JUMP JUMPDEST DUP5 ADD SWAP2 POP POP SWAP3 SWAP2 POP POP JUMP JUMPDEST PUSH1 0x0 PUSH1 0x20 DUP3 ADD SWAP1 POP DUP2 DUP2 SUB PUSH1 0x0 DUP4 ADD MSTORE PUSH2 0x2AC6 DUP2 DUP5 PUSH2 0x2A73 JUMP JUMPDEST SWAP1 POP SWAP3 SWAP2 POP POP JUMP JUMPDEST PUSH1 0x0 DUP2 SWAP1 POP SWAP2 SWAP1 POP JUMP JUMPDEST PUSH2 0x2AE1 DUP2 PUSH2 0x2ACE JUMP JUMPDEST DUP2 EQ PUSH2 0x2AEC JUMPI PUSH1 0x0 DUP1 REVERT JUMPDEST POP JUMP JUMPDEST PUSH1 0x0 DUP2 CALLDATALOAD SWAP1 POP PUSH2 0x2AFE DUP2 PUSH2 0x2AD8 JUMP JUMPDEST SWAP3 SWAP2 POP POP JUMP JUMPDEST PUSH1 0x0 PUSH1 0x20 DUP3 DUP5 SUB SLT ISZERO PUSH2 0x2B1A JUMPI PUSH2 0x2B19 PUSH2 0x2957 JUMP JUMPDEST JUMPDEST PUSH1 0x0 PUSH2 0x2B28 DUP5 DUP3 DUP6 ADD PUSH2 0x2AEF JUMP JUMPDEST SWAP2 POP POP SWAP3 SWAP2 POP POP JUMP JUMPDEST PUSH1 0x0 PUSH20 0xFFFFFFFFFFFFFFFFFFFFFFFFFFFFFFFFFFFFFFFF DUP3 AND SWAP1 POP SWAP2 SWAP1 POP JUMP JUMPDEST PUSH1 0x0 PUSH2 0x2B5C DUP3 PUSH2 0x2B31 JUMP JUMPDEST SWAP1 POP SWAP2 SWAP1 POP JUMP JUMPDEST PUSH2 0x2B6C DUP2 PUSH2 0x2B51 JUMP JUMPDEST DUP3 MSTORE POP POP JUMP JUMPDEST PUSH1 0x0 PUSH1 0x20 DUP3 ADD SWAP1 POP PUSH2 0x2B87 PUSH1 0x0 DUP4 ADD DUP5 PUSH2 0x2B63 JUMP JUMPDEST SWAP3 SWAP2 POP POP JUMP JUMPDEST PUSH2 0x2B96 DUP2 PUSH2 0x2B51 JUMP JUMPDEST DUP2 EQ PUSH2 0x2BA1 JUMPI PUSH1 0x0 DUP1 REVERT JUMPDEST POP JUMP JUMPDEST PUSH1 0x0 DUP2 CALLDATALOAD SWAP1 POP PUSH2 0x2BB3 DUP2 PUSH2 0x2B8D JUMP JUMPDEST SWAP3 SWAP2 POP POP JUMP JUMPDEST PUSH1 0x0 DUP1 PUSH1 0x40 DUP4 DUP6 SUB SLT ISZERO PUSH2 0x2BD0 JUMPI PUSH2 0x2BCF PUSH2 0x2957 JUMP JUMPDEST JUMPDEST PUSH1 0x0 PUSH2 0x2BDE DUP6 DUP3 DUP7 ADD PUSH2 0x2BA4 JUMP JUMPDEST SWAP3 POP POP PUSH1 0x20 PUSH2 0x2BEF DUP6 DUP3 DUP7 ADD PUSH2 0x2AEF JUMP JUMPDEST SWAP2 POP POP SWAP3 POP SWAP3 SWAP1 POP JUMP JUMPDEST PUSH2 0x2C02 DUP2 PUSH2 0x2ACE JUMP JUMPDEST DUP3 MSTORE POP POP JUMP JUMPDEST PUSH1 0x0 PUSH1 0x20 DUP3 ADD SWAP1 POP PUSH2 0x2C1D PUSH1 0x0 DUP4 ADD DUP5 PUSH2 0x2BF9 JUMP JUMPDEST SWAP3 SWAP2 POP POP JUMP JUMPDEST PUSH1 0x0 DUP1 PUSH1 0x0 PUSH1 0x60 DUP5 DUP7 SUB SLT ISZERO PUSH2 0x2C3C JUMPI PUSH2 0x2C3B PUSH2 0x2957 JUMP JUMPDEST JUMPDEST PUSH1 0x0 PUSH2 0x2C4A DUP7 DUP3 DUP8 ADD PUSH2 0x2BA4 JUMP JUMPDEST SWAP4 POP POP PUSH1 0x20 PUSH2 0x2C5B DUP7 DUP3 DUP8 ADD PUSH2 0x2BA4 JUMP JUMPDEST SWAP3 POP POP PUSH1 0x40 PUSH2 0x2C6C DUP7 DUP3 DUP8 ADD PUSH2 0x2AEF JUMP JUMPDEST SWAP2 POP POP SWAP3 POP SWAP3 POP SWAP3 JUMP JUMPDEST PUSH1 0x0 PUSH1 0x20 DUP3 DUP5 SUB SLT ISZERO PUSH2 0x2C8C JUMPI PUSH2 0x2C8B PUSH2 0x2957 JUMP JUMPDEST JUMPDEST PUSH1 0x0 PUSH2 0x2C9A DUP5 DUP3 DUP6 ADD PUSH2 0x2BA4 JUMP JUMPDEST SWAP2 POP POP SWAP3 SWAP2 POP POP JUMP JUMPDEST PUSH2 0x2CAC DUP2 PUSH2 0x29E6 JUMP JUMPDEST DUP2 EQ PUSH2 0x2CB7 JUMPI PUSH1 0x0 DUP1 REVERT JUMPDEST POP JUMP JUMPDEST PUSH1 0x0 DUP2 CALLDATALOAD SWAP1 POP PUSH2 0x2CC9 DUP2 PUSH2 0x2CA3 JUMP JUMPDEST SWAP3 SWAP2 POP POP JUMP JUMPDEST PUSH1 0x0 DUP1 PUSH1 0x40 DUP4 DUP6 SUB SLT ISZERO PUSH2 0x2CE6 JUMPI PUSH2 0x2CE5 PUSH2 0x2957 JUMP JUMPDEST JUMPDEST PUSH1 0x0 PUSH2 0x2CF4 DUP6 DUP3 DUP7 ADD PUSH2 0x2BA4 JUMP JUMPDEST SWAP3 POP POP PUSH1 0x20 PUSH2 0x2D05 DUP6 DUP3 DUP7 ADD PUSH2 0x2CBA JUMP JUMPDEST SWAP2 POP POP SWAP3 POP SWAP3 SWAP1 POP JUMP JUMPDEST PUSH1 0x0 DUP1 REVERT JUMPDEST PUSH1 0x0 DUP1 REVERT JUMPDEST PUSH32 0x4E487B7100000000000000000000000000000000000000000000000000000000 PUSH1 0x0 MSTORE PUSH1 0x41 PUSH1 0x4 MSTORE PUSH1 0x24 PUSH1 0x0 REVERT JUMPDEST PUSH2 0x2D51 DUP3 PUSH2 0x2A62 JUMP JUMPDEST DUP2 ADD DUP2 DUP2 LT PUSH8 0xFFFFFFFFFFFFFFFF DUP3 GT OR ISZERO PUSH2 0x2D70 JUMPI PUSH2 0x2D6F PUSH2 0x2D19 JUMP JUMPDEST JUMPDEST DUP1 PUSH1 0x40 MSTORE POP POP POP JUMP JUMPDEST PUSH1 0x0 PUSH2 0x2D83 PUSH2 0x294D JUMP JUMPDEST SWAP1 POP PUSH2 0x2D8F DUP3 DUP3 PUSH2 0x2D48 JUMP JUMPDEST SWAP2 SWAP1 POP JUMP JUMPDEST PUSH1 0x0 PUSH8 0xFFFFFFFFFFFFFFFF DUP3 GT ISZERO PUSH2 0x2DAF JUMPI PUSH2 0x2DAE PUSH2 0x2D19 JUMP JUMPDEST JUMPDEST PUSH2 0x2DB8 DUP3 PUSH2 0x2A62 JUMP JUMPDEST SWAP1 POP PUSH1 0x20 DUP2 ADD SWAP1 POP SWAP2 SWAP1 POP JUMP JUMPDEST DUP3 DUP2 DUP4 CALLDATACOPY PUSH1 0x0 DUP4 DUP4 ADD MSTORE POP POP POP JUMP JUMPDEST PUSH1 0x0 PUSH2 0x2DE7 PUSH2 0x2DE2 DUP5 PUSH2 0x2D94 JUMP JUMPDEST PUSH2 0x2D79 JUMP JUMPDEST SWAP1 POP DUP3 DUP2 MSTORE PUSH1 0x20 DUP2 ADD DUP5 DUP5 DUP5 ADD GT ISZERO PUSH2 0x2E03 JUMPI PUSH2 0x2E02 PUSH2 0x2D14 JUMP JUMPDEST JUMPDEST PUSH2 0x2E0E DUP5 DUP3 DUP6 PUSH2 0x2DC5 JUMP JUMPDEST POP SWAP4 SWAP3 POP POP POP JUMP JUMPDEST PUSH1 0x0 DUP3 PUSH1 0x1F DUP4 ADD SLT PUSH2 0x2E2B JUMPI PUSH2 0x2E2A PUSH2 0x2D0F JUMP JUMPDEST JUMPDEST DUP2 CALLDATALOAD PUSH2 0x2E3B DUP5 DUP3 PUSH1 0x20 DUP7 ADD PUSH2 0x2DD4 JUMP JUMPDEST SWAP2 POP POP SWAP3 SWAP2 POP POP JUMP JUMPDEST PUSH1 0x0 DUP1 PUSH1 0x0 DUP1 PUSH1 0x80 DUP6 DUP8 SUB SLT ISZERO PUSH2 0x2E5E JUMPI PUSH2 0x2E5D PUSH2 0x2957 JUMP JUMPDEST JUMPDEST PUSH1 0x0 PUSH2 0x2E6C DUP8 DUP3 DUP9 ADD PUSH2 0x2BA4 JUMP JUMPDEST SWAP5 POP POP PUSH1 0x20 PUSH2 0x2E7D DUP8 DUP3 DUP9 ADD PUSH2 0x2BA4 JUMP JUMPDEST SWAP4 POP POP PUSH1 0x40 PUSH2 0x2E8E DUP8 DUP3 DUP9 ADD PUSH2 0x2AEF JUMP JUMPDEST SWAP3 POP POP PUSH1 0x60 DUP6 ADD CALLDATALOAD PUSH8 0xFFFFFFFFFFFFFFFF DUP2 GT ISZERO PUSH2 0x2EAF JUMPI PUSH2 0x2EAE PUSH2 0x295C JUMP JUMPDEST JUMPDEST PUSH2 0x2EBB DUP8 DUP3 DUP9 ADD PUSH2 0x2E16 JUMP JUMPDEST SWAP2 POP POP SWAP3 SWAP6 SWAP2 SWAP5 POP SWAP3 POP JUMP JUMPDEST PUSH1 0x0 DUP1 PUSH1 0x40 DUP4 DUP6 SUB SLT ISZERO PUSH2 0x2EDE JUMPI PUSH2 0x2EDD PUSH2 0x2957 JUMP JUMPDEST JUMPDEST PUSH1 0x0 PUSH2 0x2EEC DUP6 DUP3 DUP7 ADD PUSH2 0x2BA4 JUMP JUMPDEST SWAP3 POP POP PUSH1 0x20 PUSH2 0x2EFD DUP6 DUP3 DUP7 ADD PUSH2 0x2BA4 JUMP JUMPDEST SWAP2 POP POP SWAP3 POP SWAP3 SWAP1 POP JUMP JUMPDEST PUSH32 0x4E487B7100000000000000000000000000000000000000000000000000000000 PUSH1 0x0 MSTORE PUSH1 0x22 PUSH1 0x4 MSTORE PUSH1 0x24 PUSH1 0x0 REVERT JUMPDEST PUSH1 0x0 PUSH1 0x2 DUP3 DIV SWAP1 POP PUSH1 0x1 DUP3 AND DUP1 PUSH2 0x2F4E JUMPI PUSH1 0x7F DUP3 AND SWAP2 POP JUMPDEST PUSH1 0x20 DUP3 LT DUP2 SUB PUSH2 0x2F61 JUMPI PUSH2 0x2F60 PUSH2 0x2F07 JUMP JUMPDEST JUMPDEST POP SWAP2 SWAP1 POP JUMP JUMPDEST PUSH32 0x4552433732313A20617070726F76616C20746F2063757272656E74206F776E65 PUSH1 0x0 DUP3 ADD MSTORE PUSH32 0x7200000000000000000000000000000000000000000000000000000000000000 PUSH1 0x20 DUP3 ADD MSTORE POP JUMP JUMPDEST PUSH1 0x0 PUSH2 0x2FC3 PUSH1 0x21 DUP4 PUSH2 0x2A27 JUMP JUMPDEST SWAP2 POP PUSH2 0x2FCE DUP3 PUSH2 0x2F67 JUMP JUMPDEST PUSH1 0x40 DUP3 ADD SWAP1 POP SWAP2 SWAP1 POP JUMP JUMPDEST PUSH1 0x0 PUSH1 0x20 DUP3 ADD SWAP1 POP DUP2 DUP2 SUB PUSH1 0x0 DUP4 ADD MSTORE PUSH2 0x2FF2 DUP2 PUSH2 0x2FB6 JUMP JUMPDEST SWAP1 POP SWAP2 SWAP1 POP JUMP JUMPDEST PUSH32 0x4552433732313A20617070726F76652063616C6C6572206973206E6F7420746F PUSH1 0x0 DUP3 ADD MSTORE PUSH32 0x6B656E206F776E6572206F7220617070726F76656420666F7220616C6C000000 PUSH1 0x20 DUP3 ADD MSTORE POP JUMP JUMPDEST PUSH1 0x0 PUSH2 0x3055 PUSH1 0x3D DUP4 PUSH2 0x2A27 JUMP JUMPDEST SWAP2 POP PUSH2 0x3060 DUP3 PUSH2 0x2FF9 JUMP JUMPDEST PUSH1 0x40 DUP3 ADD SWAP1 POP SWAP2 SWAP1 POP JUMP JUMPDEST PUSH1 0x0 PUSH1 0x20 DUP3 ADD SWAP1 POP DUP2 DUP2 SUB PUSH1 0x0 DUP4 ADD MSTORE PUSH2 0x3084 DUP2 PUSH2 0x3048 JUMP JUMPDEST SWAP1 POP SWAP2 SWAP1 POP JUMP JUMPDEST PUSH32 0x4552433732313A2063616C6C6572206973206E6F7420746F6B656E206F776E65 PUSH1 0x0 DUP3 ADD MSTORE PUSH32 0x72206F7220617070726F76656400000000000000000000000000000000000000 PUSH1 0x20 DUP3 ADD MSTORE POP JUMP JUMPDEST PUSH1 0x0 PUSH2 0x30E7 PUSH1 0x2D DUP4 PUSH2 0x2A27 JUMP JUMPDEST SWAP2 POP PUSH2 0x30F2 DUP3 PUSH2 0x308B JUMP JUMPDEST PUSH1 0x40 DUP3 ADD SWAP1 POP SWAP2 SWAP1 POP JUMP JUMPDEST PUSH1 0x0 PUSH1 0x20 DUP3 ADD SWAP1 POP DUP2 DUP2 SUB PUSH1 0x0 DUP4 ADD MSTORE PUSH2 0x3116 DUP2 PUSH2 0x30DA JUMP JUMPDEST SWAP1 POP SWAP2 SWAP1 POP JUMP JUMPDEST PUSH32 0x455243373231456E756D657261626C653A206F776E657220696E646578206F75 PUSH1 0x0 DUP3 ADD MSTORE PUSH32 0x74206F6620626F756E6473000000000000000000000000000000000000000000 PUSH1 0x20 DUP3 ADD MSTORE POP JUMP JUMPDEST PUSH1 0x0 PUSH2 0x3179 PUSH1 0x2B DUP4 PUSH2 0x2A27 JUMP JUMPDEST SWAP2 POP PUSH2 0x3184 DUP3 PUSH2 0x311D JUMP JUMPDEST PUSH1 0x40 DUP3 ADD SWAP1 POP SWAP2 SWAP1 POP JUMP JUMPDEST PUSH1 0x0 PUSH1 0x20 DUP3 ADD SWAP1 POP DUP2 DUP2 SUB PUSH1 0x0 DUP4 ADD MSTORE PUSH2 0x31A8 DUP2 PUSH2 0x316C JUMP JUMPDEST SWAP1 POP SWAP2 SWAP1 POP JUMP JUMPDEST PUSH32 0x455243373231456E756D657261626C653A20676C6F62616C20696E646578206F PUSH1 0x0 DUP3 ADD MSTORE PUSH32 0x7574206F6620626F756E64730000000000000000000000000000000000000000 PUSH1 0x20 DUP3 ADD MSTORE POP JUMP JUMPDEST PUSH1 0x0 PUSH2 0x320B PUSH1 0x2C DUP4 PUSH2 0x2A27 JUMP JUMPDEST SWAP2 POP PUSH2 0x3216 DUP3 PUSH2 0x31AF JUMP JUMPDEST PUSH1 0x40 DUP3 ADD SWAP1 POP SWAP2 SWAP1 POP JUMP JUMPDEST PUSH1 0x0 PUSH1 0x20 DUP3 ADD SWAP1 POP DUP2 DUP2 SUB PUSH1 0x0 DUP4 ADD MSTORE PUSH2 0x323A DUP2 PUSH2 0x31FE JUMP JUMPDEST SWAP1 POP SWAP2 SWAP1 POP JUMP JUMPDEST PUSH32 0x4E487B7100000000000000000000000000000000000000000000000000000000 PUSH1 0x0 MSTORE PUSH1 0x32 PUSH1 0x4 MSTORE PUSH1 0x24 PUSH1 0x0 REVERT JUMPDEST PUSH32 0x4552433732313A20696E76616C696420746F6B656E2049440000000000000000 PUSH1 0x0 DUP3 ADD MSTORE POP JUMP JUMPDEST PUSH1 0x0 PUSH2 0x32A6 PUSH1 0x18 DUP4 PUSH2 0x2A27 JUMP JUMPDEST SWAP2 POP PUSH2 0x32B1 DUP3 PUSH2 0x3270 JUMP JUMPDEST PUSH1 0x20 DUP3 ADD SWAP1 POP SWAP2 SWAP1 POP JUMP JUMPDEST PUSH1 0x0 PUSH1 0x20 DUP3 ADD SWAP1 POP DUP2 DUP2 SUB PUSH1 0x0 DUP4 ADD MSTORE PUSH2 0x32D5 DUP2 PUSH2 0x3299 JUMP JUMPDEST SWAP1 POP SWAP2 SWAP1 POP JUMP JUMPDEST PUSH32 0x4552433732313A2061646472657373207A65726F206973206E6F742061207661 PUSH1 0x0 DUP3 ADD MSTORE PUSH32 0x6C6964206F776E65720000000000000000000000000000000000000000000000 PUSH1 0x20 DUP3 ADD MSTORE POP JUMP JUMPDEST PUSH1 0x0 PUSH2 0x3338 PUSH1 0x29 DUP4 PUSH2 0x2A27 JUMP JUMPDEST SWAP2 POP PUSH2 0x3343 DUP3 PUSH2 0x32DC JUMP JUMPDEST PUSH1 0x40 DUP3 ADD SWAP1 POP SWAP2 SWAP1 POP JUMP JUMPDEST PUSH1 0x0 PUSH1 0x20 DUP3 ADD SWAP1 POP DUP2 DUP2 SUB PUSH1 0x0 DUP4 ADD MSTORE PUSH2 0x3367 DUP2 PUSH2 0x332B JUMP JUMPDEST SWAP1 POP SWAP2 SWAP1 POP JUMP JUMPDEST PUSH2 0x3377 DUP2 PUSH2 0x2ACE JUMP JUMPDEST DUP3 MSTORE POP POP JUMP JUMPDEST PUSH1 0x0 PUSH1 0x20 DUP3 ADD SWAP1 POP PUSH2 0x3392 PUSH1 0x0 DUP4 ADD DUP5 PUSH2 0x336E JUMP JUMPDEST SWAP3 SWAP2 POP POP JUMP JUMPDEST PUSH1 0x5 DUP2 LT PUSH2 0x33A5 JUMPI PUSH1 0x0 DUP1 REVERT JUMPDEST POP JUMP JUMPDEST PUSH1 0x0 DUP2 MLOAD SWAP1 POP PUSH2 0x33B7 DUP2 PUSH2 0x3398 JUMP JUMPDEST SWAP3 SWAP2 POP POP JUMP JUMPDEST PUSH1 0x0 PUSH1 0x20 DUP3 DUP5 SUB SLT ISZERO PUSH2 0x33D3 JUMPI PUSH2 0x33D2 PUSH2 0x2957 JUMP JUMPDEST JUMPDEST PUSH1 0x0 PUSH2 0x33E1 DUP5 DUP3 DUP6 ADD PUSH2 0x33A8 JUMP JUMPDEST SWAP2 POP POP SWAP3 SWAP2 POP POP JUMP JUMPDEST PUSH32 0x4E487B7100000000000000000000000000000000000000000000000000000000 PUSH1 0x0 MSTORE PUSH1 0x21 PUSH1 0x4 MSTORE PUSH1 0x24 PUSH1 0x0 REVERT JUMPDEST PUSH32 0x496E76616C696420436C61737300000000000000000000000000000000000000 PUSH1 0x0 DUP3 ADD MSTORE POP JUMP JUMPDEST PUSH1 0x0 PUSH2 0x344F PUSH1 0xD DUP4 PUSH2 0x2A27 JUMP JUMPDEST SWAP2 POP PUSH2 0x345A DUP3 PUSH2 0x3419 JUMP JUMPDEST PUSH1 0x20 DUP3 ADD SWAP1 POP SWAP2 SWAP1 POP JUMP JUMPDEST PUSH1 0x0 PUSH1 0x20 DUP3 ADD SWAP1 POP DUP2 DUP2 SUB PUSH1 0x0 DUP4 ADD MSTORE PUSH2 0x347E DUP2 PUSH2 0x3442 JUMP JUMPDEST SWAP1 POP SWAP2 SWAP1 POP JUMP JUMPDEST PUSH1 0x0 DUP2 SWAP1 POP SWAP3 SWAP2 POP POP JUMP JUMPDEST PUSH1 0x0 PUSH2 0x349B DUP3 PUSH2 0x2A1C JUMP JUMPDEST PUSH2 0x34A5 DUP2 DUP6 PUSH2 0x3485 JUMP JUMPDEST SWAP4 POP PUSH2 0x34B5 DUP2 DUP6 PUSH1 0x20 DUP7 ADD PUSH2 0x2A38 JUMP JUMPDEST DUP1 DUP5 ADD SWAP2 POP POP SWAP3 SWAP2 POP POP JUMP JUMPDEST PUSH32 0x2F00000000000000000000000000000000000000000000000000000000000000 PUSH1 0x0 DUP3 ADD MSTORE POP JUMP JUMPDEST PUSH1 0x0 PUSH2 0x34F7 PUSH1 0x1 DUP4 PUSH2 0x3485 JUMP JUMPDEST SWAP2 POP PUSH2 0x3502 DUP3 PUSH2 0x34C1 JUMP JUMPDEST PUSH1 0x1 DUP3 ADD SWAP1 POP SWAP2 SWAP1 POP JUMP JUMPDEST PUSH32 0x2E6A736F6E000000000000000000000000000000000000000000000000000000 PUSH1 0x0 DUP3 ADD MSTORE POP JUMP JUMPDEST PUSH1 0x0 PUSH2 0x3543 PUSH1 0x5 DUP4 PUSH2 0x3485 JUMP JUMPDEST SWAP2 POP PUSH2 0x354E DUP3 PUSH2 0x350D JUMP JUMPDEST PUSH1 0x5 DUP3 ADD SWAP1 POP SWAP2 SWAP1 POP JUMP JUMPDEST PUSH1 0x0 PUSH2 0x3565 DUP3 DUP7 PUSH2 0x3490 JUMP JUMPDEST SWAP2 POP PUSH2 0x3571 DUP3 DUP6 PUSH2 0x3490 JUMP JUMPDEST SWAP2 POP PUSH2 0x357C DUP3 PUSH2 0x34EA JUMP JUMPDEST SWAP2 POP PUSH2 0x3588 DUP3 DUP5 PUSH2 0x3490 JUMP JUMPDEST SWAP2 POP PUSH2 0x3593 DUP3 PUSH2 0x3536 JUMP JUMPDEST SWAP2 POP DUP2 SWAP1 POP SWAP5 SWAP4 POP POP POP POP JUMP JUMPDEST PUSH32 0x4F776E61626C653A206E6577206F776E657220697320746865207A65726F2061 PUSH1 0x0 DUP3 ADD MSTORE PUSH32 0x6464726573730000000000000000000000000000000000000000000000000000 PUSH1 0x20 DUP3 ADD MSTORE POP JUMP JUMPDEST PUSH1 0x0 PUSH2 0x35FC PUSH1 0x26 DUP4 PUSH2 0x2A27 JUMP JUMPDEST SWAP2 POP PUSH2 0x3607 DUP3 PUSH2 0x35A0 JUMP JUMPDEST PUSH1 0x40 DUP3 ADD SWAP1 POP SWAP2 SWAP1 POP JUMP JUMPDEST PUSH1 0x0 PUSH1 0x20 DUP3 ADD SWAP1 POP DUP2 DUP2 SUB PUSH1 0x0 DUP4 ADD MSTORE PUSH2 0x362B DUP2 PUSH2 0x35EF JUMP JUMPDEST SWAP1 POP SWAP2 SWAP1 POP JUMP JUMPDEST PUSH32 0x4E487B7100000000000000000000000000000000000000000000000000000000 PUSH1 0x0 MSTORE PUSH1 0x11 PUSH1 0x4 MSTORE PUSH1 0x24 PUSH1 0x0 REVERT JUMPDEST PUSH1 0x0 PUSH2 0x366C DUP3 PUSH2 0x2ACE JUMP JUMPDEST SWAP2 POP PUSH2 0x3677 DUP4 PUSH2 0x2ACE JUMP JUMPDEST SWAP3 POP DUP3 DUP3 SUB SWAP1 POP DUP2 DUP2 GT ISZERO PUSH2 0x368F JUMPI PUSH2 0x368E PUSH2 0x3632 JUMP JUMPDEST JUMPDEST SWAP3 SWAP2 POP POP JUMP JUMPDEST PUSH1 0x0 PUSH2 0x36A0 DUP3 PUSH2 0x2ACE JUMP JUMPDEST SWAP2 POP PUSH2 0x36AB DUP4 PUSH2 0x2ACE JUMP JUMPDEST SWAP3 POP DUP3 DUP3 ADD SWAP1 POP DUP1 DUP3 GT ISZERO PUSH2 0x36C3 JUMPI PUSH2 0x36C2 PUSH2 0x3632 JUMP JUMPDEST JUMPDEST SWAP3 SWAP2 POP POP JUMP JUMPDEST PUSH1 0x0 PUSH2 0x36D4 DUP3 PUSH2 0x2ACE JUMP JUMPDEST SWAP2 POP PUSH32 0xFFFFFFFFFFFFFFFFFFFFFFFFFFFFFFFFFFFFFFFFFFFFFFFFFFFFFFFFFFFFFFFF DUP3 SUB PUSH2 0x3706 JUMPI PUSH2 0x3705 PUSH2 0x3632 JUMP JUMPDEST JUMPDEST PUSH1 0x1 DUP3 ADD SWAP1 POP SWAP2 SWAP1 POP JUMP JUMPDEST PUSH32 0x4552433732313A207472616E736665722066726F6D20696E636F727265637420 PUSH1 0x0 DUP3 ADD MSTORE PUSH32 0x6F776E6572000000000000000000000000000000000000000000000000000000 PUSH1 0x20 DUP3 ADD MSTORE POP JUMP JUMPDEST PUSH1 0x0 PUSH2 0x376D PUSH1 0x25 DUP4 PUSH2 0x2A27 JUMP JUMPDEST SWAP2 POP PUSH2 0x3778 DUP3 PUSH2 0x3711 JUMP JUMPDEST PUSH1 0x40 DUP3 ADD SWAP1 POP SWAP2 SWAP1 POP JUMP JUMPDEST PUSH1 0x0 PUSH1 0x20 DUP3 ADD SWAP1 POP DUP2 DUP2 SUB PUSH1 0x0 DUP4 ADD MSTORE PUSH2 0x379C DUP2 PUSH2 0x3760 JUMP JUMPDEST SWAP1 POP SWAP2 SWAP1 POP JUMP JUMPDEST PUSH32 0x4552433732313A207472616E7366657220746F20746865207A65726F20616464 PUSH1 0x0 DUP3 ADD MSTORE PUSH32 0x7265737300000000000000000000000000000000000000000000000000000000 PUSH1 0x20 DUP3 ADD MSTORE POP JUMP JUMPDEST PUSH1 0x0 PUSH2 0x37FF PUSH1 0x24 DUP4 PUSH2 0x2A27 JUMP JUMPDEST SWAP2 POP PUSH2 0x380A DUP3 PUSH2 0x37A3 JUMP JUMPDEST PUSH1 0x40 DUP3 ADD SWAP1 POP SWAP2 SWAP1 POP JUMP JUMPDEST PUSH1 0x0 PUSH1 0x20 DUP3 ADD SWAP1 POP DUP2 DUP2 SUB PUSH1 0x0 DUP4 ADD MSTORE PUSH2 0x382E DUP2 PUSH2 0x37F2 JUMP JUMPDEST SWAP1 POP SWAP2 SWAP1 POP JUMP JUMPDEST PUSH32 0x4F776E61626C653A2063616C6C6572206973206E6F7420746865206F776E6572 PUSH1 0x0 DUP3 ADD MSTORE POP JUMP JUMPDEST PUSH1 0x0 PUSH2 0x386B PUSH1 0x20 DUP4 PUSH2 0x2A27 JUMP JUMPDEST SWAP2 POP PUSH2 0x3876 DUP3 PUSH2 0x3835 JUMP JUMPDEST PUSH1 0x20 DUP3 ADD SWAP1 POP SWAP2 SWAP1 POP JUMP JUMPDEST PUSH1 0x0 PUSH1 0x20 DUP3 ADD SWAP1 POP DUP2 DUP2 SUB PUSH1 0x0 DUP4 ADD MSTORE PUSH2 0x389A DUP2 PUSH2 0x385E JUMP JUMPDEST SWAP1 POP SWAP2 SWAP1 POP JUMP JUMPDEST PUSH32 0x4552433732313A20617070726F766520746F2063616C6C657200000000000000 PUSH1 0x0 DUP3 ADD MSTORE POP JUMP JUMPDEST PUSH1 0x0 PUSH2 0x38D7 PUSH1 0x19 DUP4 PUSH2 0x2A27 JUMP JUMPDEST SWAP2 POP PUSH2 0x38E2 DUP3 PUSH2 0x38A1 JUMP JUMPDEST PUSH1 0x20 DUP3 ADD SWAP1 POP SWAP2 SWAP1 POP JUMP JUMPDEST PUSH1 0x0 PUSH1 0x20 DUP3 ADD SWAP1 POP DUP2 DUP2 SUB PUSH1 0x0 DUP4 ADD MSTORE PUSH2 0x3906 DUP2 PUSH2 0x38CA JUMP JUMPDEST SWAP1 POP SWAP2 SWAP1 POP JUMP JUMPDEST PUSH32 0x4552433732313A207472616E7366657220746F206E6F6E204552433732315265 PUSH1 0x0 DUP3 ADD MSTORE PUSH32 0x63656976657220696D706C656D656E7465720000000000000000000000000000 PUSH1 0x20 DUP3 ADD MSTORE POP JUMP JUMPDEST PUSH1 0x0 PUSH2 0x3969 PUSH1 0x32 DUP4 PUSH2 0x2A27 JUMP JUMPDEST SWAP2 POP PUSH2 0x3974 DUP3 PUSH2 0x390D JUMP JUMPDEST PUSH1 0x40 DUP3 ADD SWAP1 POP SWAP2 SWAP1 POP JUMP JUMPDEST PUSH1 0x0 PUSH1 0x20 DUP3 ADD SWAP1 POP DUP2 DUP2 SUB PUSH1 0x0 DUP4 ADD MSTORE PUSH2 0x3998 DUP2 PUSH2 0x395C JUMP JUMPDEST SWAP1 POP SWAP2 SWAP1 POP JUMP JUMPDEST PUSH32 0x4E487B7100000000000000000000000000000000000000000000000000000000 PUSH1 0x0 MSTORE PUSH1 0x12 PUSH1 0x4 MSTORE PUSH1 0x24 PUSH1 0x0 REVERT JUMPDEST PUSH32 0x5061757361626C653A206E6F7420706175736564000000000000000000000000 PUSH1 0x0 DUP3 ADD MSTORE POP JUMP JUMPDEST PUSH1 0x0 PUSH2 0x3A04 PUSH1 0x14 DUP4 PUSH2 0x2A27 JUMP JUMPDEST SWAP2 POP PUSH2 0x3A0F DUP3 PUSH2 0x39CE JUMP JUMPDEST PUSH1 0x20 DUP3 ADD SWAP1 POP SWAP2 SWAP1 POP JUMP JUMPDEST PUSH1 0x0 PUSH1 0x20 DUP3 ADD SWAP1 POP DUP2 DUP2 SUB PUSH1 0x0 DUP4 ADD MSTORE PUSH2 0x3A33 DUP2 PUSH2 0x39F7 JUMP JUMPDEST SWAP1 POP SWAP2 SWAP1 POP JUMP JUMPDEST PUSH32 0x5061757361626C653A2070617573656400000000000000000000000000000000 PUSH1 0x0 DUP3 ADD MSTORE POP JUMP JUMPDEST PUSH1 0x0 PUSH2 0x3A70 PUSH1 0x10 DUP4 PUSH2 0x2A27 JUMP JUMPDEST SWAP2 POP PUSH2 0x3A7B DUP3 PUSH2 0x3A3A JUMP JUMPDEST PUSH1 0x20 DUP3 ADD SWAP1 POP SWAP2 SWAP1 POP JUMP JUMPDEST PUSH1 0x0 PUSH1 0x20 DUP3 ADD SWAP1 POP DUP2 DUP2 SUB PUSH1 0x0 DUP4 ADD MSTORE PUSH2 0x3A9F DUP2 PUSH2 0x3A63 JUMP JUMPDEST SWAP1 POP SWAP2 SWAP1 POP JUMP JUMPDEST PUSH1 0x0 DUP2 MLOAD SWAP1 POP SWAP2 SWAP1 POP JUMP JUMPDEST PUSH1 0x0 DUP3 DUP3 MSTORE PUSH1 0x20 DUP3 ADD SWAP1 POP SWAP3 SWAP2 POP POP JUMP JUMPDEST PUSH1 0x0 PUSH2 0x3ACD DUP3 PUSH2 0x3AA6 JUMP JUMPDEST PUSH2 0x3AD7 DUP2 DUP6 PUSH2 0x3AB1 JUMP JUMPDEST SWAP4 POP PUSH2 0x3AE7 DUP2 DUP6 PUSH1 0x20 DUP7 ADD PUSH2 0x2A38 JUMP JUMPDEST PUSH2 0x3AF0 DUP2 PUSH2 0x2A62 JUMP JUMPDEST DUP5 ADD SWAP2 POP POP SWAP3 SWAP2 POP POP JUMP JUMPDEST PUSH1 0x0 PUSH1 0x80 DUP3 ADD SWAP1 POP PUSH2 0x3B10 PUSH1 0x0 DUP4 ADD DUP8 PUSH2 0x2B63 JUMP JUMPDEST PUSH2 0x3B1D PUSH1 0x20 DUP4 ADD DUP7 PUSH2 0x2B63 JUMP JUMPDEST PUSH2 0x3B2A PUSH1 0x40 DUP4 ADD DUP6 PUSH2 0x2BF9 JUMP JUMPDEST DUP2 DUP2 SUB PUSH1 0x60 DUP4 ADD MSTORE PUSH2 0x3B3C DUP2 DUP5 PUSH2 0x3AC2 JUMP JUMPDEST SWAP1 POP SWAP6 SWAP5 POP POP POP POP POP JUMP JUMPDEST PUSH1 0x0 DUP2 MLOAD SWAP1 POP PUSH2 0x3B56 DUP2 PUSH2 0x298D JUMP JUMPDEST SWAP3 SWAP2 POP POP JUMP JUMPDEST PUSH1 0x0 PUSH1 0x20 DUP3 DUP5 SUB SLT ISZERO PUSH2 0x3B72 JUMPI PUSH2 0x3B71 PUSH2 0x2957 JUMP JUMPDEST JUMPDEST PUSH1 0x0 PUSH2 0x3B80 DUP5 DUP3 DUP6 ADD PUSH2 0x3B47 JUMP JUMPDEST SWAP2 POP POP SWAP3 SWAP2 POP POP JUMP JUMPDEST PUSH32 0x455243373231456E756D657261626C653A20636F6E7365637574697665207472 PUSH1 0x0 DUP3 ADD MSTORE PUSH32 0x616E7366657273206E6F7420737570706F727465640000000000000000000000 PUSH1 0x20 DUP3 ADD MSTORE POP JUMP JUMPDEST PUSH1 0x0 PUSH2 0x3BE5 PUSH1 0x35 DUP4 PUSH2 0x2A27 JUMP JUMPDEST SWAP2 POP PUSH2 0x3BF0 DUP3 PUSH2 0x3B89 JUMP JUMPDEST PUSH1 0x40 DUP3 ADD SWAP1 POP SWAP2 SWAP1 POP JUMP JUMPDEST PUSH1 0x0 PUSH1 0x20 DUP3 ADD SWAP1 POP DUP2 DUP2 SUB PUSH1 0x0 DUP4 ADD MSTORE PUSH2 0x3C14 DUP2 PUSH2 0x3BD8 JUMP JUMPDEST SWAP1 POP SWAP2 SWAP1 POP JUMP JUMPDEST PUSH32 0x4552433732313A206D696E7420746F20746865207A65726F2061646472657373 PUSH1 0x0 DUP3 ADD MSTORE POP JUMP JUMPDEST PUSH1 0x0 PUSH2 0x3C51 PUSH1 0x20 DUP4 PUSH2 0x2A27 JUMP JUMPDEST SWAP2 POP PUSH2 0x3C5C DUP3 PUSH2 0x3C1B JUMP JUMPDEST PUSH1 0x20 DUP3 ADD SWAP1 POP SWAP2 SWAP1 POP JUMP JUMPDEST PUSH1 0x0 PUSH1 0x20 DUP3 ADD SWAP1 POP DUP2 DUP2 SUB PUSH1 0x0 DUP4 ADD MSTORE PUSH2 0x3C80 DUP2 PUSH2 0x3C44 JUMP JUMPDEST SWAP1 POP SWAP2 SWAP1 POP JUMP JUMPDEST PUSH32 0x4552433732313A20746F6B656E20616C7265616479206D696E74656400000000 PUSH1 0x0 DUP3 ADD MSTORE POP JUMP JUMPDEST PUSH1 0x0 PUSH2 0x3CBD PUSH1 0x1C DUP4 PUSH2 0x2A27 JUMP JUMPDEST SWAP2 POP PUSH2 0x3CC8 DUP3 PUSH2 0x3C87 JUMP JUMPDEST PUSH1 0x20 DUP3 ADD SWAP1 POP SWAP2 SWAP1 POP JUMP JUMPDEST PUSH1 0x0 PUSH1 0x20 DUP3 ADD SWAP1 POP DUP2 DUP2 SUB PUSH1 0x0 DUP4 ADD MSTORE PUSH2 0x3CEC DUP2 PUSH2 0x3CB0 JUMP JUMPDEST SWAP1 POP SWAP2 SWAP1 POP JUMP JUMPDEST PUSH32 0x4E487B7100000000000000000000000000000000000000000000000000000000 PUSH1 0x0 MSTORE PUSH1 0x31 PUSH1 0x4 MSTORE PUSH1 0x24 PUSH1 0x0 REVERT INVALID LOG2 PUSH5 0x6970667358 0x22 SLT KECCAK256 KECCAK256 POP 0x4F 0xDA 0xB3 CALLDATALOAD PUSH10 0x1123E04E4E714C5C51FD 0xC6 PUSH27 0x2A70BE152483A570F3A4168FEB64736F6C63430008130033A26469 PUSH17 0x6673582212207982350B162CBCE8636553 SELFDESTRUCT 0xA8 0xE0 ISZERO 0xEA 0xE4 BALANCE 0xA6 0xDF 0xB5 JUMP REVERT PUSH23 0xFE8D787518CD47BE64736F6C6343000813003300000000 "
		},
		"gasEstimates": {
			"creation": {
				"codeDepositCost": "7656200",
				"executionCost": "infinite",
				"totalCost": "infinite"
			},
			"external": {
				"addAuthorizedContract(address)": "27237",
				"approve(address,uint256)": "infinite",
				"balanceOf(address)": "2922",
				"beforeAll()": "infinite",
				"burn(uint256)": "infinite",
				"checkSafeMint()": "infinite",
				"doaCollection()": "infinite",
				"getApproved(uint256)": "5323",
				"isApprovedForAll(address,address)": "infinite",
				"name()": "infinite",
				"owner()": "2639",
				"ownerOf(uint256)": "3110",
				"pause()": "infinite",
				"paused()": "2568",
				"renounceOwnership()": "30616",
				"safeBatchMint(address,uint256)": "infinite",
				"safeMint(address)": "infinite",
				"safeMint(address,uint256)": "infinite",
				"safeTransferFrom(address,address,uint256)": "infinite",
				"safeTransferFrom(address,address,uint256,bytes)": "infinite",
				"setApprovalForAll(address,bool)": "infinite",
				"supportsInterface(bytes4)": "952",
				"symbol()": "infinite",
				"tokenByIndex(uint256)": "infinite",
				"tokenOfOwnerByIndex(address,uint256)": "infinite",
				"tokenURI(uint256)": "infinite",
				"totalSupply()": "2513",
				"transferFrom(address,address,uint256)": "infinite",
				"transferOwnership(address)": "30982",
				"unpause()": "infinite"
			}
		},
		"methodIdentifiers": {
			"addAuthorizedContract(address)": "98eaa4a7",
			"approve(address,uint256)": "095ea7b3",
			"balanceOf(address)": "70a08231",
			"beforeAll()": "7fea0d4b",
			"burn(uint256)": "42966c68",
			"checkSafeMint()": "de739cf6",
			"doaCollection()": "222acad4",
			"getApproved(uint256)": "081812fc",
			"isApprovedForAll(address,address)": "e985e9c5",
			"name()": "06fdde03",
			"owner()": "8da5cb5b",
			"ownerOf(uint256)": "6352211e",
			"pause()": "8456cb59",
			"paused()": "5c975abb",
			"renounceOwnership()": "715018a6",
			"safeBatchMint(address,uint256)": "f9f49952",
			"safeMint(address)": "40d097c3",
			"safeMint(address,uint256)": "a1448194",
			"safeTransferFrom(address,address,uint256)": "42842e0e",
			"safeTransferFrom(address,address,uint256,bytes)": "b88d4fde",
			"setApprovalForAll(address,bool)": "a22cb465",
			"supportsInterface(bytes4)": "01ffc9a7",
			"symbol()": "95d89b41",
			"tokenByIndex(uint256)": "4f6ccce7",
			"tokenOfOwnerByIndex(address,uint256)": "2f745c59",
			"tokenURI(uint256)": "c87b56dd",
			"totalSupply()": "18160ddd",
			"transferFrom(address,address,uint256)": "23b872dd",
			"transferOwnership(address)": "f2fde38b",
			"unpause()": "3f4ba83a"
		}
	},
	"abi": [
		{
			"anonymous": false,
			"inputs": [
				{
					"indexed": true,
					"internalType": "address",
					"name": "owner",
					"type": "address"
				},
				{
					"indexed": true,
					"internalType": "address",
					"name": "approved",
					"type": "address"
				},
				{
					"indexed": true,
					"internalType": "uint256",
					"name": "tokenId",
					"type": "uint256"
				}
			],
			"name": "Approval",
			"type": "event"
		},
		{
			"anonymous": false,
			"inputs": [
				{
					"indexed": true,
					"internalType": "address",
					"name": "owner",
					"type": "address"
				},
				{
					"indexed": true,
					"internalType": "address",
					"name": "operator",
					"type": "address"
				},
				{
					"indexed": false,
					"internalType": "bool",
					"name": "approved",
					"type": "bool"
				}
			],
			"name": "ApprovalForAll",
			"type": "event"
		},
		{
			"anonymous": false,
			"inputs": [
				{
					"indexed": true,
					"internalType": "address",
					"name": "previousOwner",
					"type": "address"
				},
				{
					"indexed": true,
					"internalType": "address",
					"name": "newOwner",
					"type": "address"
				}
			],
			"name": "OwnershipTransferred",
			"type": "event"
		},
		{
			"anonymous": false,
			"inputs": [
				{
					"indexed": false,
					"internalType": "address",
					"name": "account",
					"type": "address"
				}
			],
			"name": "Paused",
			"type": "event"
		},
		{
			"anonymous": false,
			"inputs": [
				{
					"indexed": true,
					"internalType": "address",
					"name": "from",
					"type": "address"
				},
				{
					"indexed": true,
					"internalType": "address",
					"name": "to",
					"type": "address"
				},
				{
					"indexed": true,
					"internalType": "uint256",
					"name": "tokenId",
					"type": "uint256"
				}
			],
			"name": "Transfer",
			"type": "event"
		},
		{
			"anonymous": false,
			"inputs": [
				{
					"indexed": false,
					"internalType": "address",
					"name": "account",
					"type": "address"
				}
			],
			"name": "Unpaused",
			"type": "event"
		},
		{
			"inputs": [
				{
					"internalType": "address",
					"name": "contractAddress",
					"type": "address"
				}
			],
			"name": "addAuthorizedContract",
			"outputs": [],
			"stateMutability": "nonpayable",
			"type": "function"
		},
		{
			"inputs": [
				{
					"internalType": "address",
					"name": "to",
					"type": "address"
				},
				{
					"internalType": "uint256",
					"name": "tokenId",
					"type": "uint256"
				}
			],
			"name": "approve",
			"outputs": [],
			"stateMutability": "nonpayable",
			"type": "function"
		},
		{
			"inputs": [
				{
					"internalType": "address",
					"name": "owner",
					"type": "address"
				}
			],
			"name": "balanceOf",
			"outputs": [
				{
					"internalType": "uint256",
					"name": "",
					"type": "uint256"
				}
			],
			"stateMutability": "view",
			"type": "function"
		},
		{
			"inputs": [],
			"name": "beforeAll",
			"outputs": [],
			"stateMutability": "nonpayable",
			"type": "function"
		},
		{
			"inputs": [
				{
					"internalType": "uint256",
					"name": "tokenId",
					"type": "uint256"
				}
			],
			"name": "burn",
			"outputs": [],
			"stateMutability": "nonpayable",
			"type": "function"
		},
		{
			"inputs": [],
			"name": "checkSafeMint",
			"outputs": [],
			"stateMutability": "nonpayable",
			"type": "function"
		},
		{
			"inputs": [],
			"name": "doaCollection",
			"outputs": [
				{
					"internalType": "contract DoACollection",
					"name": "",
					"type": "address"
				}
			],
			"stateMutability": "view",
			"type": "function"
		},
		{
			"inputs": [
				{
					"internalType": "uint256",
					"name": "tokenId",
					"type": "uint256"
				}
			],
			"name": "getApproved",
			"outputs": [
				{
					"internalType": "address",
					"name": "",
					"type": "address"
				}
			],
			"stateMutability": "view",
			"type": "function"
		},
		{
			"inputs": [
				{
					"internalType": "address",
					"name": "owner",
					"type": "address"
				},
				{
					"internalType": "address",
					"name": "operator",
					"type": "address"
				}
			],
			"name": "isApprovedForAll",
			"outputs": [
				{
					"internalType": "bool",
					"name": "",
					"type": "bool"
				}
			],
			"stateMutability": "view",
			"type": "function"
		},
		{
			"inputs": [],
			"name": "name",
			"outputs": [
				{
					"internalType": "string",
					"name": "",
					"type": "string"
				}
			],
			"stateMutability": "view",
			"type": "function"
		},
		{
			"inputs": [],
			"name": "owner",
			"outputs": [
				{
					"internalType": "address",
					"name": "",
					"type": "address"
				}
			],
			"stateMutability": "view",
			"type": "function"
		},
		{
			"inputs": [
				{
					"internalType": "uint256",
					"name": "tokenId",
					"type": "uint256"
				}
			],
			"name": "ownerOf",
			"outputs": [
				{
					"internalType": "address",
					"name": "",
					"type": "address"
				}
			],
			"stateMutability": "view",
			"type": "function"
		},
		{
			"inputs": [],
			"name": "pause",
			"outputs": [],
			"stateMutability": "nonpayable",
			"type": "function"
		},
		{
			"inputs": [],
			"name": "paused",
			"outputs": [
				{
					"internalType": "bool",
					"name": "",
					"type": "bool"
				}
			],
			"stateMutability": "view",
			"type": "function"
		},
		{
			"inputs": [],
			"name": "renounceOwnership",
			"outputs": [],
			"stateMutability": "nonpayable",
			"type": "function"
		},
		{
			"inputs": [
				{
					"internalType": "address",
					"name": "to",
					"type": "address"
				},
				{
					"internalType": "uint256",
					"name": "tokensToMint",
					"type": "uint256"
				}
			],
			"name": "safeBatchMint",
			"outputs": [],
			"stateMutability": "nonpayable",
			"type": "function"
		},
		{
			"inputs": [
				{
					"internalType": "address",
					"name": "to",
					"type": "address"
				}
			],
			"name": "safeMint",
			"outputs": [],
			"stateMutability": "nonpayable",
			"type": "function"
		},
		{
			"inputs": [
				{
					"internalType": "address",
					"name": "to",
					"type": "address"
				},
				{
					"internalType": "uint256",
					"name": "tokenID",
					"type": "uint256"
				}
			],
			"name": "safeMint",
			"outputs": [],
			"stateMutability": "nonpayable",
			"type": "function"
		},
		{
			"inputs": [
				{
					"internalType": "address",
					"name": "from",
					"type": "address"
				},
				{
					"internalType": "address",
					"name": "to",
					"type": "address"
				},
				{
					"internalType": "uint256",
					"name": "tokenId",
					"type": "uint256"
				}
			],
			"name": "safeTransferFrom",
			"outputs": [],
			"stateMutability": "nonpayable",
			"type": "function"
		},
		{
			"inputs": [
				{
					"internalType": "address",
					"name": "from",
					"type": "address"
				},
				{
					"internalType": "address",
					"name": "to",
					"type": "address"
				},
				{
					"internalType": "uint256",
					"name": "tokenId",
					"type": "uint256"
				},
				{
					"internalType": "bytes",
					"name": "data",
					"type": "bytes"
				}
			],
			"name": "safeTransferFrom",
			"outputs": [],
			"stateMutability": "nonpayable",
			"type": "function"
		},
		{
			"inputs": [
				{
					"internalType": "address",
					"name": "operator",
					"type": "address"
				},
				{
					"internalType": "bool",
					"name": "approved",
					"type": "bool"
				}
			],
			"name": "setApprovalForAll",
			"outputs": [],
			"stateMutability": "nonpayable",
			"type": "function"
		},
		{
			"inputs": [
				{
					"internalType": "bytes4",
					"name": "interfaceId",
					"type": "bytes4"
				}
			],
			"name": "supportsInterface",
			"outputs": [
				{
					"internalType": "bool",
					"name": "",
					"type": "bool"
				}
			],
			"stateMutability": "view",
			"type": "function"
		},
		{
			"inputs": [],
			"name": "symbol",
			"outputs": [
				{
					"internalType": "string",
					"name": "",
					"type": "string"
				}
			],
			"stateMutability": "view",
			"type": "function"
		},
		{
			"inputs": [
				{
					"internalType": "uint256",
					"name": "index",
					"type": "uint256"
				}
			],
			"name": "tokenByIndex",
			"outputs": [
				{
					"internalType": "uint256",
					"name": "",
					"type": "uint256"
				}
			],
			"stateMutability": "view",
			"type": "function"
		},
		{
			"inputs": [
				{
					"internalType": "address",
					"name": "owner",
					"type": "address"
				},
				{
					"internalType": "uint256",
					"name": "index",
					"type": "uint256"
				}
			],
			"name": "tokenOfOwnerByIndex",
			"outputs": [
				{
					"internalType": "uint256",
					"name": "",
					"type": "uint256"
				}
			],
			"stateMutability": "view",
			"type": "function"
		},
		{
			"inputs": [
				{
					"internalType": "uint256",
					"name": "tokenId",
					"type": "uint256"
				}
			],
			"name": "tokenURI",
			"outputs": [
				{
					"internalType": "string",
					"name": "uri",
					"type": "string"
				}
			],
			"stateMutability": "view",
			"type": "function"
		},
		{
			"inputs": [],
			"name": "totalSupply",
			"outputs": [
				{
					"internalType": "uint256",
					"name": "",
					"type": "uint256"
				}
			],
			"stateMutability": "view",
			"type": "function"
		},
		{
			"inputs": [
				{
					"internalType": "address",
					"name": "from",
					"type": "address"
				},
				{
					"internalType": "address",
					"name": "to",
					"type": "address"
				},
				{
					"internalType": "uint256",
					"name": "tokenId",
					"type": "uint256"
				}
			],
			"name": "transferFrom",
			"outputs": [],
			"stateMutability": "nonpayable",
			"type": "function"
		},
		{
			"inputs": [
				{
					"internalType": "address",
					"name": "newOwner",
					"type": "address"
				}
			],
			"name": "transferOwnership",
			"outputs": [],
			"stateMutability": "nonpayable",
			"type": "function"
		},
		{
			"inputs": [],
			"name": "unpause",
			"outputs": [],
			"stateMutability": "nonpayable",
			"type": "function"
		}
	]
}