{
	"data": {
		"bytecode": {
			"linkReferences": {},
			"object": "6101406040523480156200001257600080fd5b506040518060400160405280600381526020017f446f4100000000000000000000000000000000000000000000000000000000008152506040518060400160405280600181526020017f31000000000000000000000000000000000000000000000000000000000000008152506040518060400160405280600381526020017f446f4100000000000000000000000000000000000000000000000000000000008152506040518060400160405280600381526020017f444f4100000000000000000000000000000000000000000000000000000000008152508160009081620000fc919062000588565b5080600190816200010e919062000588565b5050506000600b60006101000a81548160ff0219169083151502179055506200014c620001406200020460201b60201c565b6200020c60201b60201c565b60008280519060200120905060008280519060200120905060007f8b73c3c69bb8fe3d512ecc4cf759cc79239f7b179b0ffacaa9a75d522b39400f90508260e081815250508161010081815250504660a08181525050620001b5818484620002d260201b60201c565b608081815250503073ffffffffffffffffffffffffffffffffffffffff1660c08173ffffffffffffffffffffffffffffffffffffffff168152505080610120818152505050505050506200073d565b600033905090565b6000600b60019054906101000a900473ffffffffffffffffffffffffffffffffffffffff16905081600b60016101000a81548173ffffffffffffffffffffffffffffffffffffffff021916908373ffffffffffffffffffffffffffffffffffffffff1602179055508173ffffffffffffffffffffffffffffffffffffffff168173ffffffffffffffffffffffffffffffffffffffff167f8be0079c531659141344cd1fd0a4f28419497f9722a3daafe3b4186f6b6457e060405160405180910390a35050565b60008383834630604051602001620002ef959493929190620006e0565b6040516020818303038152906040528051906020012090509392505050565b600081519050919050565b7f4e487b7100000000000000000000000000000000000000000000000000000000600052604160045260246000fd5b7f4e487b7100000000000000000000000000000000000000000000000000000000600052602260045260246000fd5b600060028204905060018216806200039057607f821691505b602082108103620003a657620003a562000348565b5b50919050565b60008190508160005260206000209050919050565b60006020601f8301049050919050565b600082821b905092915050565b600060088302620004107fffffffffffffffffffffffffffffffffffffffffffffffffffffffffffffffff82620003d1565b6200041c8683620003d1565b95508019841693508086168417925050509392505050565b6000819050919050565b6000819050919050565b600062000469620004636200045d8462000434565b6200043e565b62000434565b9050919050565b6000819050919050565b620004858362000448565b6200049d620004948262000470565b848454620003de565b825550505050565b600090565b620004b4620004a5565b620004c18184846200047a565b505050565b5b81811015620004e957620004dd600082620004aa565b600181019050620004c7565b5050565b601f82111562000538576200050281620003ac565b6200050d84620003c1565b810160208510156200051d578190505b620005356200052c85620003c1565b830182620004c6565b50505b505050565b600082821c905092915050565b60006200055d600019846008026200053d565b1980831691505092915050565b60006200057883836200054a565b9150826002028217905092915050565b62000593826200030e565b67ffffffffffffffff811115620005af57620005ae62000319565b5b620005bb825462000377565b620005c8828285620004ed565b600060209050601f831160018114620006005760008415620005eb578287015190505b620005f785826200056a565b86555062000667565b601f1984166200061086620003ac565b60005b828110156200063a5784890151825560018201915060208501945060208101905062000613565b868310156200065a578489015162000656601f8916826200054a565b8355505b6001600288020188555050505b505050505050565b6000819050919050565b62000684816200066f565b82525050565b620006958162000434565b82525050565b600073ffffffffffffffffffffffffffffffffffffffff82169050919050565b6000620006c8826200069b565b9050919050565b620006da81620006bb565b82525050565b600060a082019050620006f7600083018862000679565b62000706602083018762000679565b62000715604083018662000679565b6200072460608301856200068a565b620007336080830184620006cf565b9695505050505050565b60805160a05160c05160e0516101005161012051615d326200078d6000396000611741015260006117830152600061176201526000611697015260006116ed015260006117160152615d326000f3fe608060405234801561001057600080fd5b50600436106101f05760003560e01c80636352211e1161010f5780639ab24eb0116100a2578063c87b56dd11610071578063c87b56dd146105b7578063d204c45e146105e7578063e985e9c514610603578063f2fde38b14610633576101f0565b80639ab24eb014610533578063a22cb46514610563578063b88d4fde1461057f578063c3cda5201461059b576101f0565b80638456cb59116100de5780638456cb59146104bd5780638da5cb5b146104c75780638e539e8c146104e557806395d89b4114610515576101f0565b80636352211e1461042357806370a0823114610453578063715018a6146104835780637ecebe001461048d576101f0565b80633a46b1a8116101875780634f6ccce7116101565780634f6ccce714610389578063587cde1e146103b95780635c19a95c146103e95780635c975abb14610405576101f0565b80633a46b1a8146103175780633f4ba83a1461034757806342842e0e1461035157806342966c681461036d576101f0565b806318160ddd116101c357806318160ddd1461028f57806323b872dd146102ad5780632f745c59146102c95780633644e515146102f9576101f0565b806301ffc9a7146101f557806306fdde0314610225578063081812fc14610243578063095ea7b314610273575b600080fd5b61020f600480360381019061020a9190613fb7565b61064f565b60405161021c9190613fff565b60405180910390f35b61022d610661565b60405161023a91906140aa565b60405180910390f35b61025d60048036038101906102589190614102565b6106f3565b60405161026a9190614170565b60405180910390f35b61028d600480360381019061028891906141b7565b610739565b005b610297610850565b6040516102a49190614206565b60405180910390f35b6102c760048036038101906102c29190614221565b61085d565b005b6102e360048036038101906102de91906141b7565b6108bd565b6040516102f09190614206565b60405180910390f35b610301610962565b60405161030e919061428d565b60405180910390f35b610331600480360381019061032c91906141b7565b610971565b60405161033e9190614206565b60405180910390f35b61034f6109cc565b005b61036b60048036038101906103669190614221565b6109de565b005b61038760048036038101906103829190614102565b6109fe565b005b6103a3600480360381019061039e9190614102565b610a5a565b6040516103b09190614206565b60405180910390f35b6103d360048036038101906103ce91906142a8565b610acb565b6040516103e09190614170565b60405180910390f35b61040360048036038101906103fe91906142a8565b610b34565b005b61040d610b4e565b60405161041a9190613fff565b60405180910390f35b61043d60048036038101906104389190614102565b610b65565b60405161044a9190614170565b60405180910390f35b61046d600480360381019061046891906142a8565b610beb565b60405161047a9190614206565b60405180910390f35b61048b610ca2565b005b6104a760048036038101906104a291906142a8565b610cb6565b6040516104b49190614206565b60405180910390f35b6104c5610d06565b005b6104cf610d18565b6040516104dc9190614170565b60405180910390f35b6104ff60048036038101906104fa9190614102565b610d42565b60405161050c9190614206565b60405180910390f35b61051d610da1565b60405161052a91906140aa565b60405180910390f35b61054d600480360381019061054891906142a8565b610e33565b60405161055a9190614206565b60405180910390f35b61057d60048036038101906105789190614301565b610ea1565b005b61059960048036038101906105949190614476565b610eb7565b005b6105b560048036038101906105b0919061455e565b610f19565b005b6105d160048036038101906105cc9190614102565b61101d565b6040516105de91906140aa565b60405180910390f35b61060160048036038101906105fc919061468c565b61102f565b005b61061d600480360381019061061891906146e8565b611068565b60405161062a9190613fff565b60405180910390f35b61064d600480360381019061064891906142a8565b6110fc565b005b600061065a8261117f565b9050919050565b60606000805461067090614757565b80601f016020809104026020016040519081016040528092919081815260200182805461069c90614757565b80156106e95780601f106106be576101008083540402835291602001916106e9565b820191906000526020600020905b8154815290600101906020018083116106cc57829003601f168201915b5050505050905090565b60006106fe826111f9565b6004600083815260200190815260200160002060009054906101000a900473ffffffffffffffffffffffffffffffffffffffff169050919050565b600061074482610b65565b90508073ffffffffffffffffffffffffffffffffffffffff168373ffffffffffffffffffffffffffffffffffffffff16036107b4576040517f08c379a00000000000000000000000000000000000000000000000000000000081526004016107ab906147fa565b60405180910390fd5b8073ffffffffffffffffffffffffffffffffffffffff166107d3611244565b73ffffffffffffffffffffffffffffffffffffffff1614806108025750610801816107fc611244565b611068565b5b610841576040517f08c379a00000000000000000000000000000000000000000000000000000000081526004016108389061488c565b60405180910390fd5b61084b838361124c565b505050565b6000600880549050905090565b61086e610868611244565b82611305565b6108ad576040517f08c379a00000000000000000000000000000000000000000000000000000000081526004016108a49061491e565b60405180910390fd5b6108b883838361139a565b505050565b60006108c883610beb565b8210610909576040517f08c379a0000000000000000000000000000000000000000000000000000000008152600401610900906149b0565b60405180910390fd5b600660008473ffffffffffffffffffffffffffffffffffffffff1673ffffffffffffffffffffffffffffffffffffffff168152602001908152602001600020600083815260200190815260200160002054905092915050565b600061096c611693565b905090565b60006109c482600d60008673ffffffffffffffffffffffffffffffffffffffff1673ffffffffffffffffffffffffffffffffffffffff1681526020019081526020016000206117ad90919063ffffffff16565b905092915050565b6109d4611912565b6109dc611990565b565b6109f983838360405180602001604052806000815250610eb7565b505050565b610a0f610a09611244565b82611305565b610a4e576040517f08c379a0000000000000000000000000000000000000000000000000000000008152600401610a459061491e565b60405180910390fd5b610a57816119f3565b50565b6000610a64610850565b8210610aa5576040517f08c379a0000000000000000000000000000000000000000000000000000000008152600401610a9c90614a42565b60405180910390fd5b60088281548110610ab957610ab8614a62565b5b90600052602060002001549050919050565b6000600c60008373ffffffffffffffffffffffffffffffffffffffff1673ffffffffffffffffffffffffffffffffffffffff16815260200190815260200160002060009054906101000a900473ffffffffffffffffffffffffffffffffffffffff169050919050565b6000610b3e611244565b9050610b4a81836119ff565b5050565b6000600b60009054906101000a900460ff16905090565b600080610b7183611b13565b9050600073ffffffffffffffffffffffffffffffffffffffff168173ffffffffffffffffffffffffffffffffffffffff1603610be2576040517f08c379a0000000000000000000000000000000000000000000000000000000008152600401610bd990614add565b60405180910390fd5b80915050919050565b60008073ffffffffffffffffffffffffffffffffffffffff168273ffffffffffffffffffffffffffffffffffffffff1603610c5b576040517f08c379a0000000000000000000000000000000000000000000000000000000008152600401610c5290614b6f565b60405180910390fd5b600360008373ffffffffffffffffffffffffffffffffffffffff1673ffffffffffffffffffffffffffffffffffffffff168152602001908152602001600020549050919050565b610caa611912565b610cb46000611b50565b565b6000610cff600f60008473ffffffffffffffffffffffffffffffffffffffff1673ffffffffffffffffffffffffffffffffffffffff168152602001908152602001600020611c16565b9050919050565b610d0e611912565b610d16611c24565b565b6000600b60019054906101000a900473ffffffffffffffffffffffffffffffffffffffff16905090565b6000438210610d86576040517f08c379a0000000000000000000000000000000000000000000000000000000008152600401610d7d90614bdb565b60405180910390fd5b610d9a82600e6117ad90919063ffffffff16565b9050919050565b606060018054610db090614757565b80601f0160208091040260200160405190810160405280929190818152602001828054610ddc90614757565b8015610e295780601f10610dfe57610100808354040283529160200191610e29565b820191906000526020600020905b815481529060010190602001808311610e0c57829003601f168201915b5050505050905090565b6000610e7c600d60008473ffffffffffffffffffffffffffffffffffffffff1673ffffffffffffffffffffffffffffffffffffffff168152602001908152602001600020611c87565b7bffffffffffffffffffffffffffffffffffffffffffffffffffffffff169050919050565b610eb3610eac611244565b8383611cf1565b5050565b610ec8610ec2611244565b83611305565b610f07576040517f08c379a0000000000000000000000000000000000000000000000000000000008152600401610efe9061491e565b60405180910390fd5b610f1384848484611e5d565b50505050565b83421115610f5c576040517f08c379a0000000000000000000000000000000000000000000000000000000008152600401610f5390614c47565b60405180910390fd5b6000610fbe610fb67fe48329057bfd03d55e49b547132e39cffd9c1820ad7b9d4c5307691425d15adf898989604051602001610f9b9493929190614c67565b60405160208183030381529060405280519060200120611eb9565b858585611ed3565b9050610fc981611efe565b861461100a576040517f08c379a000000000000000000000000000000000000000000000000000000000815260040161100190614cf8565b60405180910390fd5b61101481886119ff565b50505050505050565b606061102882611f5c565b9050919050565b611037611912565b60006110436010611c16565b905061104f601061206e565b6110598382612084565b61106381836120a2565b505050565b6000600560008473ffffffffffffffffffffffffffffffffffffffff1673ffffffffffffffffffffffffffffffffffffffff16815260200190815260200160002060008373ffffffffffffffffffffffffffffffffffffffff1673ffffffffffffffffffffffffffffffffffffffff16815260200190815260200160002060009054906101000a900460ff16905092915050565b611104611912565b600073ffffffffffffffffffffffffffffffffffffffff168173ffffffffffffffffffffffffffffffffffffffff1603611173576040517f08c379a000000000000000000000000000000000000000000000000000000000815260040161116a90614d8a565b60405180910390fd5b61117c81611b50565b50565b60007f780e9d63000000000000000000000000000000000000000000000000000000007bffffffffffffffffffffffffffffffffffffffffffffffffffffffff1916827bffffffffffffffffffffffffffffffffffffffffffffffffffffffff191614806111f257506111f18261210f565b5b9050919050565b611202816121f1565b611241576040517f08c379a000000000000000000000000000000000000000000000000000000000815260040161123890614add565b60405180910390fd5b50565b600033905090565b816004600083815260200190815260200160002060006101000a81548173ffffffffffffffffffffffffffffffffffffffff021916908373ffffffffffffffffffffffffffffffffffffffff160217905550808273ffffffffffffffffffffffffffffffffffffffff166112bf83610b65565b73ffffffffffffffffffffffffffffffffffffffff167f8c5be1e5ebec7d5bd14f71427d1e84f3dd0314c0f7b2291e5b200ac8c7c3b92560405160405180910390a45050565b60008061131183610b65565b90508073ffffffffffffffffffffffffffffffffffffffff168473ffffffffffffffffffffffffffffffffffffffff16148061135357506113528185611068565b5b8061139157508373ffffffffffffffffffffffffffffffffffffffff16611379846106f3565b73ffffffffffffffffffffffffffffffffffffffff16145b91505092915050565b8273ffffffffffffffffffffffffffffffffffffffff166113ba82610b65565b73ffffffffffffffffffffffffffffffffffffffff1614611410576040517f08c379a000000000000000000000000000000000000000000000000000000000815260040161140790614e1c565b60405180910390fd5b600073ffffffffffffffffffffffffffffffffffffffff168273ffffffffffffffffffffffffffffffffffffffff160361147f576040517f08c379a000000000000000000000000000000000000000000000000000000000815260040161147690614eae565b60405180910390fd5b61148c8383836001612232565b8273ffffffffffffffffffffffffffffffffffffffff166114ac82610b65565b73ffffffffffffffffffffffffffffffffffffffff1614611502576040517f08c379a00000000000000000000000000000000000000000000000000000000081526004016114f990614e1c565b60405180910390fd5b6004600082815260200190815260200160002060006101000a81549073ffffffffffffffffffffffffffffffffffffffff02191690556001600360008573ffffffffffffffffffffffffffffffffffffffff1673ffffffffffffffffffffffffffffffffffffffff168152602001908152602001600020600082825403925050819055506001600360008473ffffffffffffffffffffffffffffffffffffffff1673ffffffffffffffffffffffffffffffffffffffff16815260200190815260200160002060008282540192505081905550816002600083815260200190815260200160002060006101000a81548173ffffffffffffffffffffffffffffffffffffffff021916908373ffffffffffffffffffffffffffffffffffffffff160217905550808273ffffffffffffffffffffffffffffffffffffffff168473ffffffffffffffffffffffffffffffffffffffff167fddf252ad1be2c89b69c2b068fc378daa952ba7f163c4a11628f55a4df523b3ef60405160405180910390a461168e838383600161224c565b505050565b60007f000000000000000000000000000000000000000000000000000000000000000073ffffffffffffffffffffffffffffffffffffffff163073ffffffffffffffffffffffffffffffffffffffff1614801561170f57507f000000000000000000000000000000000000000000000000000000000000000046145b1561173c577f000000000000000000000000000000000000000000000000000000000000000090506117aa565b6117a77f00000000000000000000000000000000000000000000000000000000000000007f00000000000000000000000000000000000000000000000000000000000000007f000000000000000000000000000000000000000000000000000000000000000061225e565b90505b90565b60004382106117f1576040517f08c379a00000000000000000000000000000000000000000000000000000000081526004016117e890614f1a565b60405180910390fd5b60006117fc83612298565b9050600084600001805490509050600080829050600583111561187f576000611824846122eb565b8461182f9190614f69565b905061183e88600001826123e4565b60000160009054906101000a900463ffffffff1663ffffffff168563ffffffff16101561186d5780915061187d565b60018161187a9190614f9d565b92505b505b6000611890886000018685856123f9565b9050600081146118e4576118b3886000016001836118ae9190614f69565b6123e4565b60000160049054906101000a90047bffffffffffffffffffffffffffffffffffffffffffffffffffffffff166118e7565b60005b7bffffffffffffffffffffffffffffffffffffffffffffffffffffffff169550505050505092915050565b61191a611244565b73ffffffffffffffffffffffffffffffffffffffff16611938610d18565b73ffffffffffffffffffffffffffffffffffffffff161461198e576040517f08c379a00000000000000000000000000000000000000000000000000000000081526004016119859061501d565b60405180910390fd5b565b61199861246c565b6000600b60006101000a81548160ff0219169083151502179055507f5db9ee0a495bf2e6ff9c91a7834c1ba4fdd244a5e8aa4e537bd38aeae4b073aa6119dc611244565b6040516119e99190614170565b60405180910390a1565b6119fc816124b5565b50565b6000611a0a83610acb565b905081600c60008573ffffffffffffffffffffffffffffffffffffffff1673ffffffffffffffffffffffffffffffffffffffff16815260200190815260200160002060006101000a81548173ffffffffffffffffffffffffffffffffffffffff021916908373ffffffffffffffffffffffffffffffffffffffff1602179055508173ffffffffffffffffffffffffffffffffffffffff168173ffffffffffffffffffffffffffffffffffffffff168473ffffffffffffffffffffffffffffffffffffffff167f3134e8a2e6d97e929a7e54011ea5485d7d196dd5f0ba4d4ef95803e8e3fc257f60405160405180910390a4611b0e8183611b0986612508565b61251a565b505050565b60006002600083815260200190815260200160002060009054906101000a900473ffffffffffffffffffffffffffffffffffffffff169050919050565b6000600b60019054906101000a900473ffffffffffffffffffffffffffffffffffffffff16905081600b60016101000a81548173ffffffffffffffffffffffffffffffffffffffff021916908373ffffffffffffffffffffffffffffffffffffffff1602179055508173ffffffffffffffffffffffffffffffffffffffff168173ffffffffffffffffffffffffffffffffffffffff167f8be0079c531659141344cd1fd0a4f28419497f9722a3daafe3b4186f6b6457e060405160405180910390a35050565b600081600001549050919050565b611c2c612727565b6001600b60006101000a81548160ff0219169083151502179055507f62e78cea01bee320cd4e420270b5ea74000d11b0c9f74754ebdbfc544b05a258611c70611244565b604051611c7d9190614170565b60405180910390a1565b6000808260000180549050905060008114611ce657611cb583600001600183611cb09190614f69565b6123e4565b60000160049054906101000a90047bffffffffffffffffffffffffffffffffffffffffffffffffffffffff16611ce9565b60005b915050919050565b8173ffffffffffffffffffffffffffffffffffffffff168373ffffffffffffffffffffffffffffffffffffffff1603611d5f576040517f08c379a0000000000000000000000000000000000000000000000000000000008152600401611d5690615089565b60405180910390fd5b80600560008573ffffffffffffffffffffffffffffffffffffffff1673ffffffffffffffffffffffffffffffffffffffff16815260200190815260200160002060008473ffffffffffffffffffffffffffffffffffffffff1673ffffffffffffffffffffffffffffffffffffffff16815260200190815260200160002060006101000a81548160ff0219169083151502179055508173ffffffffffffffffffffffffffffffffffffffff168373ffffffffffffffffffffffffffffffffffffffff167f17307eab39ab6107e8899845ad3d59bd9653f200f220920489ca2b5937696c3183604051611e509190613fff565b60405180910390a3505050565b611e6884848461139a565b611e7484848484612771565b611eb3576040517f08c379a0000000000000000000000000000000000000000000000000000000008152600401611eaa9061511b565b60405180910390fd5b50505050565b6000611ecc611ec6611693565b836128f8565b9050919050565b6000806000611ee48787878761292b565b91509150611ef181612a0d565b8192505050949350505050565b600080600f60008473ffffffffffffffffffffffffffffffffffffffff1673ffffffffffffffffffffffffffffffffffffffff1681526020019081526020016000209050611f4b81611c16565b9150611f568161206e565b50919050565b6060611f67826111f9565b6000600a60008481526020019081526020016000208054611f8790614757565b80601f0160208091040260200160405190810160405280929190818152602001828054611fb390614757565b80156120005780601f10611fd557610100808354040283529160200191612000565b820191906000526020600020905b815481529060010190602001808311611fe357829003601f168201915b505050505090506000612011612b73565b90506000815103612026578192505050612069565b60008251111561205b578082604051602001612043929190615177565b60405160208183030381529060405292505050612069565b61206484612bb0565b925050505b919050565b6001816000016000828254019250508190555050565b61209e828260405180602001604052806000815250612c18565b5050565b6120ab826121f1565b6120ea576040517f08c379a00000000000000000000000000000000000000000000000000000000081526004016120e19061520d565b60405180910390fd5b80600a6000848152602001908152602001600020908161210a91906153d9565b505050565b60007f80ac58cd000000000000000000000000000000000000000000000000000000007bffffffffffffffffffffffffffffffffffffffffffffffffffffffff1916827bffffffffffffffffffffffffffffffffffffffffffffffffffffffff191614806121da57507f5b5e139f000000000000000000000000000000000000000000000000000000007bffffffffffffffffffffffffffffffffffffffffffffffffffffffff1916827bffffffffffffffffffffffffffffffffffffffffffffffffffffffff1916145b806121ea57506121e982612c73565b5b9050919050565b60008073ffffffffffffffffffffffffffffffffffffffff1661221383611b13565b73ffffffffffffffffffffffffffffffffffffffff1614159050919050565b61223a612727565b61224684848484612cdd565b50505050565b61225884848484612e3b565b50505050565b600083838346306040516020016122799594939291906154ab565b6040516020818303038152906040528051906020012090509392505050565b600063ffffffff80168211156122e3576040517f08c379a00000000000000000000000000000000000000000000000000000000081526004016122da90615570565b60405180910390fd5b819050919050565b60008082036122fd57600090506123df565b6000600161230a84612e58565b901c6001901b9050600181848161232457612323615590565b5b048201901c9050600181848161233d5761233c615590565b5b048201901c9050600181848161235657612355615590565b5b048201901c9050600181848161236f5761236e615590565b5b048201901c9050600181848161238857612387615590565b5b048201901c905060018184816123a1576123a0615590565b5b048201901c905060018184816123ba576123b9615590565b5b048201901c90506123db818285816123d5576123d4615590565b5b04612f39565b9150505b919050565b60008260005281602060002001905092915050565b60005b818310156124615760006124108484612f52565b90508463ffffffff1661242387836123e4565b60000160009054906101000a900463ffffffff1663ffffffff16111561244b5780925061245b565b6001816124589190614f9d565b93505b506123fc565b819050949350505050565b612474610b4e565b6124b3576040517f08c379a00000000000000000000000000000000000000000000000000000000081526004016124aa9061560b565b60405180910390fd5b565b6124be81612f78565b6000600a600083815260200190815260200160002080546124de90614757565b90501461250557600a600082815260200190815260200160002060006125049190613eee565b5b50565b600061251382610beb565b9050919050565b8173ffffffffffffffffffffffffffffffffffffffff168373ffffffffffffffffffffffffffffffffffffffff16141580156125565750600081115b1561272257600073ffffffffffffffffffffffffffffffffffffffff168373ffffffffffffffffffffffffffffffffffffffff161461263e576000806125e76130c684600d60008973ffffffffffffffffffffffffffffffffffffffff1673ffffffffffffffffffffffffffffffffffffffff1681526020019081526020016000206130dc9092919063ffffffff16565b915091508473ffffffffffffffffffffffffffffffffffffffff167fdec2bacdd2f05b59de34da9b523dff8be42e5e38e818c82fdb0bae774387a724838360405161263392919061562b565b60405180910390a250505b600073ffffffffffffffffffffffffffffffffffffffff168273ffffffffffffffffffffffffffffffffffffffff1614612721576000806126ca61312884600d60008873ffffffffffffffffffffffffffffffffffffffff1673ffffffffffffffffffffffffffffffffffffffff1681526020019081526020016000206130dc9092919063ffffffff16565b915091508373ffffffffffffffffffffffffffffffffffffffff167fdec2bacdd2f05b59de34da9b523dff8be42e5e38e818c82fdb0bae774387a724838360405161271692919061562b565b60405180910390a250505b5b505050565b61272f610b4e565b1561276f576040517f08c379a0000000000000000000000000000000000000000000000000000000008152600401612766906156a0565b60405180910390fd5b565b60006127928473ffffffffffffffffffffffffffffffffffffffff1661313e565b156128eb578373ffffffffffffffffffffffffffffffffffffffff1663150b7a026127bb611244565b8786866040518563ffffffff1660e01b81526004016127dd9493929190615715565b6020604051808303816000875af192505050801561281957506040513d601f19601f820116820180604052508101906128169190615776565b60015b61289b573d8060008114612849576040519150601f19603f3d011682016040523d82523d6000602084013e61284e565b606091505b506000815103612893576040517f08c379a000000000000000000000000000000000000000000000000000000000815260040161288a9061511b565b60405180910390fd5b805181602001fd5b63150b7a0260e01b7bffffffffffffffffffffffffffffffffffffffffffffffffffffffff1916817bffffffffffffffffffffffffffffffffffffffffffffffffffffffff1916149150506128f0565b600190505b949350505050565b6000828260405160200161290d929190615810565b60405160208183030381529060405280519060200120905092915050565b6000807f7fffffffffffffffffffffffffffffff5d576e7357a4501ddfe92f46681b20a08360001c1115612966576000600391509150612a04565b60006001878787876040516000815260200160405260405161298b9493929190615856565b6020604051602081039080840390855afa1580156129ad573d6000803e3d6000fd5b505050602060405103519050600073ffffffffffffffffffffffffffffffffffffffff168173ffffffffffffffffffffffffffffffffffffffff16036129fb57600060019250925050612a04565b80600092509250505b94509492505050565b60006004811115612a2157612a2061589b565b5b816004811115612a3457612a3361589b565b5b0315612b705760016004811115612a4e57612a4d61589b565b5b816004811115612a6157612a6061589b565b5b03612aa1576040517f08c379a0000000000000000000000000000000000000000000000000000000008152600401612a9890615916565b60405180910390fd5b60026004811115612ab557612ab461589b565b5b816004811115612ac857612ac761589b565b5b03612b08576040517f08c379a0000000000000000000000000000000000000000000000000000000008152600401612aff90615982565b60405180910390fd5b60036004811115612b1c57612b1b61589b565b5b816004811115612b2f57612b2e61589b565b5b03612b6f576040517f08c379a0000000000000000000000000000000000000000000000000000000008152600401612b6690615a14565b60405180910390fd5b5b50565b60606040518060400160405280601081526020017f68747470733a2f2f697066732d54424400000000000000000000000000000000815250905090565b6060612bbb826111f9565b6000612bc5612b73565b90506000815111612be55760405180602001604052806000815250612c10565b80612bef84613161565b604051602001612c00929190615177565b6040516020818303038152906040525b915050919050565b612c22838361322f565b612c2f6000848484612771565b612c6e576040517f08c379a0000000000000000000000000000000000000000000000000000000008152600401612c659061511b565b60405180910390fd5b505050565b60007f01ffc9a7000000000000000000000000000000000000000000000000000000007bffffffffffffffffffffffffffffffffffffffffffffffffffffffff1916827bffffffffffffffffffffffffffffffffffffffffffffffffffffffff1916149050919050565b612ce98484848461344c565b6001811115612d2d576040517f08c379a0000000000000000000000000000000000000000000000000000000008152600401612d2490615aa6565b60405180910390fd5b6000829050600073ffffffffffffffffffffffffffffffffffffffff168573ffffffffffffffffffffffffffffffffffffffff1603612d7457612d6f81613572565b612db3565b8373ffffffffffffffffffffffffffffffffffffffff168573ffffffffffffffffffffffffffffffffffffffff1614612db257612db185826135bb565b5b5b600073ffffffffffffffffffffffffffffffffffffffff168473ffffffffffffffffffffffffffffffffffffffff1603612df557612df081613728565b612e34565b8473ffffffffffffffffffffffffffffffffffffffff168473ffffffffffffffffffffffffffffffffffffffff1614612e3357612e3284826137f9565b5b5b5050505050565b612e46848483613878565b612e5284848484613936565b50505050565b600080600090506000608084901c1115612e7a57608083901c92506080810190505b6000604084901c1115612e9557604083901c92506040810190505b6000602084901c1115612eb057602083901c92506020810190505b6000601084901c1115612ecb57601083901c92506010810190505b6000600884901c1115612ee657600883901c92506008810190505b6000600484901c1115612f0157600483901c92506004810190505b6000600284901c1115612f1c57600283901c92506002810190505b6000600184901c1115612f30576001810190505b80915050919050565b6000818310612f485781612f4a565b825b905092915050565b60006002828418612f639190615ac6565b828416612f709190614f9d565b905092915050565b6000612f8382610b65565b9050612f93816000846001612232565b612f9c82610b65565b90506004600083815260200190815260200160002060006101000a81549073ffffffffffffffffffffffffffffffffffffffff02191690556001600360008373ffffffffffffffffffffffffffffffffffffffff1673ffffffffffffffffffffffffffffffffffffffff168152602001908152602001600020600082825403925050819055506002600083815260200190815260200160002060006101000a81549073ffffffffffffffffffffffffffffffffffffffff021916905581600073ffffffffffffffffffffffffffffffffffffffff168273ffffffffffffffffffffffffffffffffffffffff167fddf252ad1be2c89b69c2b068fc378daa952ba7f163c4a11628f55a4df523b3ef60405160405180910390a46130c281600084600161224c565b5050565b600081836130d49190614f69565b905092915050565b60008061311c856131176130ef88611c87565b7bffffffffffffffffffffffffffffffffffffffffffffffffffffffff16868863ffffffff16565b61393c565b91509150935093915050565b600081836131369190614f9d565b905092915050565b6000808273ffffffffffffffffffffffffffffffffffffffff163b119050919050565b606060006001613170846139aa565b01905060008167ffffffffffffffff81111561318f5761318e61434b565b5b6040519080825280601f01601f1916602001820160405280156131c15781602001600182028036833780820191505090505b509050600082602001820190505b600115613224578080600190039150507f3031323334353637383961626364656600000000000000000000000000000000600a86061a8153600a858161321857613217615590565b5b049450600085036131cf575b819350505050919050565b600073ffffffffffffffffffffffffffffffffffffffff168273ffffffffffffffffffffffffffffffffffffffff160361329e576040517f08c379a000000000000000000000000000000000000000000000000000000000815260040161329590615b43565b60405180910390fd5b6132a7816121f1565b156132e7576040517f08c379a00000000000000000000000000000000000000000000000000000000081526004016132de90615baf565b60405180910390fd5b6132f5600083836001612232565b6132fe816121f1565b1561333e576040517f08c379a000000000000000000000000000000000000000000000000000000000815260040161333590615baf565b60405180910390fd5b6001600360008473ffffffffffffffffffffffffffffffffffffffff1673ffffffffffffffffffffffffffffffffffffffff16815260200190815260200160002060008282540192505081905550816002600083815260200190815260200160002060006101000a81548173ffffffffffffffffffffffffffffffffffffffff021916908373ffffffffffffffffffffffffffffffffffffffff160217905550808273ffffffffffffffffffffffffffffffffffffffff16600073ffffffffffffffffffffffffffffffffffffffff167fddf252ad1be2c89b69c2b068fc378daa952ba7f163c4a11628f55a4df523b3ef60405160405180910390a461344860008383600161224c565b5050565b600181111561356c57600073ffffffffffffffffffffffffffffffffffffffff168473ffffffffffffffffffffffffffffffffffffffff16146134e05780600360008673ffffffffffffffffffffffffffffffffffffffff1673ffffffffffffffffffffffffffffffffffffffff16815260200190815260200160002060008282546134d89190614f69565b925050819055505b600073ffffffffffffffffffffffffffffffffffffffff168373ffffffffffffffffffffffffffffffffffffffff161461356b5780600360008573ffffffffffffffffffffffffffffffffffffffff1673ffffffffffffffffffffffffffffffffffffffff16815260200190815260200160002060008282546135639190614f9d565b925050819055505b5b50505050565b6008805490506009600083815260200190815260200160002081905550600881908060018154018082558091505060019003906000526020600020016000909190919091505550565b600060016135c884610beb565b6135d29190614f69565b90506000600760008481526020019081526020016000205490508181146136b7576000600660008673ffffffffffffffffffffffffffffffffffffffff1673ffffffffffffffffffffffffffffffffffffffff168152602001908152602001600020600084815260200190815260200160002054905080600660008773ffffffffffffffffffffffffffffffffffffffff1673ffffffffffffffffffffffffffffffffffffffff168152602001908152602001600020600084815260200190815260200160002081905550816007600083815260200190815260200160002081905550505b6007600084815260200190815260200160002060009055600660008573ffffffffffffffffffffffffffffffffffffffff1673ffffffffffffffffffffffffffffffffffffffff16815260200190815260200160002060008381526020019081526020016000206000905550505050565b6000600160088054905061373c9190614f69565b905060006009600084815260200190815260200160002054905060006008838154811061376c5761376b614a62565b5b90600052602060002001549050806008838154811061378e5761378d614a62565b5b9060005260206000200181905550816009600083815260200190815260200160002081905550600960008581526020019081526020016000206000905560088054806137dd576137dc615bcf565b5b6001900381819060005260206000200160009055905550505050565b600061380483610beb565b905081600660008573ffffffffffffffffffffffffffffffffffffffff1673ffffffffffffffffffffffffffffffffffffffff168152602001908152602001600020600083815260200190815260200160002081905550806007600084815260200190815260200160002081905550505050565b600073ffffffffffffffffffffffffffffffffffffffff168373ffffffffffffffffffffffffffffffffffffffff16036138c7576138c461312882600e6130dc9092919063ffffffff16565b50505b600073ffffffffffffffffffffffffffffffffffffffff168273ffffffffffffffffffffffffffffffffffffffff1603613916576139136130c682600e6130dc9092919063ffffffff16565b50505b61393161392284610acb565b61392b84610acb565b8361251a565b505050565b50505050565b60008061395d8460000161394f43612298565b61395886613afd565b613b68565b817bffffffffffffffffffffffffffffffffffffffffffffffffffffffff169150807bffffffffffffffffffffffffffffffffffffffffffffffffffffffff169050915091509250929050565b600080600090507a184f03e93ff9f4daa797ed6e38ed64bf6a1f0100000000000000008310613a08577a184f03e93ff9f4daa797ed6e38ed64bf6a1f01000000000000000083816139fe576139fd615590565b5b0492506040810190505b6d04ee2d6d415b85acef81000000008310613a45576d04ee2d6d415b85acef81000000008381613a3b57613a3a615590565b5b0492506020810190505b662386f26fc100008310613a7457662386f26fc100008381613a6a57613a69615590565b5b0492506010810190505b6305f5e1008310613a9d576305f5e1008381613a9357613a92615590565b5b0492506008810190505b6127108310613ac2576127108381613ab857613ab7615590565b5b0492506004810190505b60648310613ae55760648381613adb57613ada615590565b5b0492506002810190505b600a8310613af4576001810190505b80915050919050565b60007bffffffffffffffffffffffffffffffffffffffffffffffffffffffff8016821115613b60576040517f08c379a0000000000000000000000000000000000000000000000000000000008152600401613b5790615c70565b60405180910390fd5b819050919050565b6000806000858054905090506000811115613dfe576000613b9587600184613b909190614f69565b6123e4565b6040518060400160405290816000820160009054906101000a900463ffffffff1663ffffffff1663ffffffff1681526020016000820160049054906101000a90047bffffffffffffffffffffffffffffffffffffffffffffffffffffffff167bffffffffffffffffffffffffffffffffffffffffffffffffffffffff167bffffffffffffffffffffffffffffffffffffffffffffffffffffffff168152505090508563ffffffff16816000015163ffffffff161115613c89576040517f08c379a0000000000000000000000000000000000000000000000000000000008152600401613c8090615cdc565b60405180910390fd5b8563ffffffff16816000015163ffffffff1603613d0d5784613cb788600185613cb29190614f69565b6123e4565b60000160046101000a8154817bffffffffffffffffffffffffffffffffffffffffffffffffffffffff02191690837bffffffffffffffffffffffffffffffffffffffffffffffffffffffff160217905550613ded565b8660405180604001604052808863ffffffff168152602001877bffffffffffffffffffffffffffffffffffffffffffffffffffffffff168152509080600181540180825580915050600190039060005260206000200160009091909190915060008201518160000160006101000a81548163ffffffff021916908363ffffffff16021790555060208201518160000160046101000a8154817bffffffffffffffffffffffffffffffffffffffffffffffffffffffff02191690837bffffffffffffffffffffffffffffffffffffffffffffffffffffffff16021790555050505b806020015185935093505050613ee6565b8560405180604001604052808763ffffffff168152602001867bffffffffffffffffffffffffffffffffffffffffffffffffffffffff168152509080600181540180825580915050600190039060005260206000200160009091909190915060008201518160000160006101000a81548163ffffffff021916908363ffffffff16021790555060208201518160000160046101000a8154817bffffffffffffffffffffffffffffffffffffffffffffffffffffffff02191690837bffffffffffffffffffffffffffffffffffffffffffffffffffffffff160217905550505060008492509250505b935093915050565b508054613efa90614757565b6000825580601f10613f0c5750613f2b565b601f016020900490600052602060002090810190613f2a9190613f2e565b5b50565b5b80821115613f47576000816000905550600101613f2f565b5090565b6000604051905090565b600080fd5b600080fd5b60007fffffffff0000000000000000000000000000000000000000000000000000000082169050919050565b613f9481613f5f565b8114613f9f57600080fd5b50565b600081359050613fb181613f8b565b92915050565b600060208284031215613fcd57613fcc613f55565b5b6000613fdb84828501613fa2565b91505092915050565b60008115159050919050565b613ff981613fe4565b82525050565b60006020820190506140146000830184613ff0565b92915050565b600081519050919050565b600082825260208201905092915050565b60005b83811015614054578082015181840152602081019050614039565b60008484015250505050565b6000601f19601f8301169050919050565b600061407c8261401a565b6140868185614025565b9350614096818560208601614036565b61409f81614060565b840191505092915050565b600060208201905081810360008301526140c48184614071565b905092915050565b6000819050919050565b6140df816140cc565b81146140ea57600080fd5b50565b6000813590506140fc816140d6565b92915050565b60006020828403121561411857614117613f55565b5b6000614126848285016140ed565b91505092915050565b600073ffffffffffffffffffffffffffffffffffffffff82169050919050565b600061415a8261412f565b9050919050565b61416a8161414f565b82525050565b60006020820190506141856000830184614161565b92915050565b6141948161414f565b811461419f57600080fd5b50565b6000813590506141b18161418b565b92915050565b600080604083850312156141ce576141cd613f55565b5b60006141dc858286016141a2565b92505060206141ed858286016140ed565b9150509250929050565b614200816140cc565b82525050565b600060208201905061421b60008301846141f7565b92915050565b60008060006060848603121561423a57614239613f55565b5b6000614248868287016141a2565b9350506020614259868287016141a2565b925050604061426a868287016140ed565b9150509250925092565b6000819050919050565b61428781614274565b82525050565b60006020820190506142a2600083018461427e565b92915050565b6000602082840312156142be576142bd613f55565b5b60006142cc848285016141a2565b91505092915050565b6142de81613fe4565b81146142e957600080fd5b50565b6000813590506142fb816142d5565b92915050565b6000806040838503121561431857614317613f55565b5b6000614326858286016141a2565b9250506020614337858286016142ec565b9150509250929050565b600080fd5b600080fd5b7f4e487b7100000000000000000000000000000000000000000000000000000000600052604160045260246000fd5b61438382614060565b810181811067ffffffffffffffff821117156143a2576143a161434b565b5b80604052505050565b60006143b5613f4b565b90506143c1828261437a565b919050565b600067ffffffffffffffff8211156143e1576143e061434b565b5b6143ea82614060565b9050602081019050919050565b82818337600083830152505050565b6000614419614414846143c6565b6143ab565b90508281526020810184848401111561443557614434614346565b5b6144408482856143f7565b509392505050565b600082601f83011261445d5761445c614341565b5b813561446d848260208601614406565b91505092915050565b600080600080608085870312156144905761448f613f55565b5b600061449e878288016141a2565b94505060206144af878288016141a2565b93505060406144c0878288016140ed565b925050606085013567ffffffffffffffff8111156144e1576144e0613f5a565b5b6144ed87828801614448565b91505092959194509250565b600060ff82169050919050565b61450f816144f9565b811461451a57600080fd5b50565b60008135905061452c81614506565b92915050565b61453b81614274565b811461454657600080fd5b50565b60008135905061455881614532565b92915050565b60008060008060008060c0878903121561457b5761457a613f55565b5b600061458989828a016141a2565b965050602061459a89828a016140ed565b95505060406145ab89828a016140ed565b94505060606145bc89828a0161451d565b93505060806145cd89828a01614549565b92505060a06145de89828a01614549565b9150509295509295509295565b600067ffffffffffffffff8211156146065761460561434b565b5b61460f82614060565b9050602081019050919050565b600061462f61462a846145eb565b6143ab565b90508281526020810184848401111561464b5761464a614346565b5b6146568482856143f7565b509392505050565b600082601f83011261467357614672614341565b5b813561468384826020860161461c565b91505092915050565b600080604083850312156146a3576146a2613f55565b5b60006146b1858286016141a2565b925050602083013567ffffffffffffffff8111156146d2576146d1613f5a565b5b6146de8582860161465e565b9150509250929050565b600080604083850312156146ff576146fe613f55565b5b600061470d858286016141a2565b925050602061471e858286016141a2565b9150509250929050565b7f4e487b7100000000000000000000000000000000000000000000000000000000600052602260045260246000fd5b6000600282049050600182168061476f57607f821691505b60208210810361478257614781614728565b5b50919050565b7f4552433732313a20617070726f76616c20746f2063757272656e74206f776e6560008201527f7200000000000000000000000000000000000000000000000000000000000000602082015250565b60006147e4602183614025565b91506147ef82614788565b604082019050919050565b60006020820190508181036000830152614813816147d7565b9050919050565b7f4552433732313a20617070726f76652063616c6c6572206973206e6f7420746f60008201527f6b656e206f776e6572206f7220617070726f76656420666f7220616c6c000000602082015250565b6000614876603d83614025565b91506148818261481a565b604082019050919050565b600060208201905081810360008301526148a581614869565b9050919050565b7f4552433732313a2063616c6c6572206973206e6f7420746f6b656e206f776e6560008201527f72206f7220617070726f76656400000000000000000000000000000000000000602082015250565b6000614908602d83614025565b9150614913826148ac565b604082019050919050565b60006020820190508181036000830152614937816148fb565b9050919050565b7f455243373231456e756d657261626c653a206f776e657220696e646578206f7560008201527f74206f6620626f756e6473000000000000000000000000000000000000000000602082015250565b600061499a602b83614025565b91506149a58261493e565b604082019050919050565b600060208201905081810360008301526149c98161498d565b9050919050565b7f455243373231456e756d657261626c653a20676c6f62616c20696e646578206f60008201527f7574206f6620626f756e64730000000000000000000000000000000000000000602082015250565b6000614a2c602c83614025565b9150614a37826149d0565b604082019050919050565b60006020820190508181036000830152614a5b81614a1f565b9050919050565b7f4e487b7100000000000000000000000000000000000000000000000000000000600052603260045260246000fd5b7f4552433732313a20696e76616c696420746f6b656e2049440000000000000000600082015250565b6000614ac7601883614025565b9150614ad282614a91565b602082019050919050565b60006020820190508181036000830152614af681614aba565b9050919050565b7f4552433732313a2061646472657373207a65726f206973206e6f74206120766160008201527f6c6964206f776e65720000000000000000000000000000000000000000000000602082015250565b6000614b59602983614025565b9150614b6482614afd565b604082019050919050565b60006020820190508181036000830152614b8881614b4c565b9050919050565b7f566f7465733a20626c6f636b206e6f7420796574206d696e6564000000000000600082015250565b6000614bc5601a83614025565b9150614bd082614b8f565b602082019050919050565b60006020820190508181036000830152614bf481614bb8565b9050919050565b7f566f7465733a207369676e617475726520657870697265640000000000000000600082015250565b6000614c31601883614025565b9150614c3c82614bfb565b602082019050919050565b60006020820190508181036000830152614c6081614c24565b9050919050565b6000608082019050614c7c600083018761427e565b614c896020830186614161565b614c9660408301856141f7565b614ca360608301846141f7565b95945050505050565b7f566f7465733a20696e76616c6964206e6f6e6365000000000000000000000000600082015250565b6000614ce2601483614025565b9150614ced82614cac565b602082019050919050565b60006020820190508181036000830152614d1181614cd5565b9050919050565b7f4f776e61626c653a206e6577206f776e657220697320746865207a65726f206160008201527f6464726573730000000000000000000000000000000000000000000000000000602082015250565b6000614d74602683614025565b9150614d7f82614d18565b604082019050919050565b60006020820190508181036000830152614da381614d67565b9050919050565b7f4552433732313a207472616e736665722066726f6d20696e636f72726563742060008201527f6f776e6572000000000000000000000000000000000000000000000000000000602082015250565b6000614e06602583614025565b9150614e1182614daa565b604082019050919050565b60006020820190508181036000830152614e3581614df9565b9050919050565b7f4552433732313a207472616e7366657220746f20746865207a65726f2061646460008201527f7265737300000000000000000000000000000000000000000000000000000000602082015250565b6000614e98602483614025565b9150614ea382614e3c565b604082019050919050565b60006020820190508181036000830152614ec781614e8b565b9050919050565b7f436865636b706f696e74733a20626c6f636b206e6f7420796574206d696e6564600082015250565b6000614f04602083614025565b9150614f0f82614ece565b602082019050919050565b60006020820190508181036000830152614f3381614ef7565b9050919050565b7f4e487b7100000000000000000000000000000000000000000000000000000000600052601160045260246000fd5b6000614f74826140cc565b9150614f7f836140cc565b9250828203905081811115614f9757614f96614f3a565b5b92915050565b6000614fa8826140cc565b9150614fb3836140cc565b9250828201905080821115614fcb57614fca614f3a565b5b92915050565b7f4f776e61626c653a2063616c6c6572206973206e6f7420746865206f776e6572600082015250565b6000615007602083614025565b915061501282614fd1565b602082019050919050565b6000602082019050818103600083015261503681614ffa565b9050919050565b7f4552433732313a20617070726f766520746f2063616c6c657200000000000000600082015250565b6000615073601983614025565b915061507e8261503d565b602082019050919050565b600060208201905081810360008301526150a281615066565b9050919050565b7f4552433732313a207472616e7366657220746f206e6f6e20455243373231526560008201527f63656976657220696d706c656d656e7465720000000000000000000000000000602082015250565b6000615105603283614025565b9150615110826150a9565b604082019050919050565b60006020820190508181036000830152615134816150f8565b9050919050565b600081905092915050565b60006151518261401a565b61515b818561513b565b935061516b818560208601614036565b80840191505092915050565b60006151838285615146565b915061518f8284615146565b91508190509392505050565b7f45524337323155524953746f726167653a2055524920736574206f66206e6f6e60008201527f6578697374656e7420746f6b656e000000000000000000000000000000000000602082015250565b60006151f7602e83614025565b91506152028261519b565b604082019050919050565b60006020820190508181036000830152615226816151ea565b9050919050565b60008190508160005260206000209050919050565b60006020601f8301049050919050565b600082821b905092915050565b60006008830261528f7fffffffffffffffffffffffffffffffffffffffffffffffffffffffffffffffff82615252565b6152998683615252565b95508019841693508086168417925050509392505050565b6000819050919050565b60006152d66152d16152cc846140cc565b6152b1565b6140cc565b9050919050565b6000819050919050565b6152f0836152bb565b6153046152fc826152dd565b84845461525f565b825550505050565b600090565b61531961530c565b6153248184846152e7565b505050565b5b818110156153485761533d600082615311565b60018101905061532a565b5050565b601f82111561538d5761535e8161522d565b61536784615242565b81016020851015615376578190505b61538a61538285615242565b830182615329565b50505b505050565b600082821c905092915050565b60006153b060001984600802615392565b1980831691505092915050565b60006153c9838361539f565b9150826002028217905092915050565b6153e28261401a565b67ffffffffffffffff8111156153fb576153fa61434b565b5b6154058254614757565b61541082828561534c565b600060209050601f8311600181146154435760008415615431578287015190505b61543b85826153bd565b8655506154a3565b601f1984166154518661522d565b60005b8281101561547957848901518255600182019150602085019450602081019050615454565b868310156154965784890151615492601f89168261539f565b8355505b6001600288020188555050505b505050505050565b600060a0820190506154c0600083018861427e565b6154cd602083018761427e565b6154da604083018661427e565b6154e760608301856141f7565b6154f46080830184614161565b9695505050505050565b7f53616665436173743a2076616c756520646f65736e27742066697420696e203360008201527f3220626974730000000000000000000000000000000000000000000000000000602082015250565b600061555a602683614025565b9150615565826154fe565b604082019050919050565b600060208201905081810360008301526155898161554d565b9050919050565b7f4e487b7100000000000000000000000000000000000000000000000000000000600052601260045260246000fd5b7f5061757361626c653a206e6f7420706175736564000000000000000000000000600082015250565b60006155f5601483614025565b9150615600826155bf565b602082019050919050565b60006020820190508181036000830152615624816155e8565b9050919050565b600060408201905061564060008301856141f7565b61564d60208301846141f7565b9392505050565b7f5061757361626c653a2070617573656400000000000000000000000000000000600082015250565b600061568a601083614025565b915061569582615654565b602082019050919050565b600060208201905081810360008301526156b98161567d565b9050919050565b600081519050919050565b600082825260208201905092915050565b60006156e7826156c0565b6156f181856156cb565b9350615701818560208601614036565b61570a81614060565b840191505092915050565b600060808201905061572a6000830187614161565b6157376020830186614161565b61574460408301856141f7565b818103606083015261575681846156dc565b905095945050505050565b60008151905061577081613f8b565b92915050565b60006020828403121561578c5761578b613f55565b5b600061579a84828501615761565b91505092915050565b7f1901000000000000000000000000000000000000000000000000000000000000600082015250565b60006157d960028361513b565b91506157e4826157a3565b600282019050919050565b6000819050919050565b61580a61580582614274565b6157ef565b82525050565b600061581b826157cc565b915061582782856157f9565b60208201915061583782846157f9565b6020820191508190509392505050565b615850816144f9565b82525050565b600060808201905061586b600083018761427e565b6158786020830186615847565b615885604083018561427e565b615892606083018461427e565b95945050505050565b7f4e487b7100000000000000000000000000000000000000000000000000000000600052602160045260246000fd5b7f45434453413a20696e76616c6964207369676e61747572650000000000000000600082015250565b6000615900601883614025565b915061590b826158ca565b602082019050919050565b6000602082019050818103600083015261592f816158f3565b9050919050565b7f45434453413a20696e76616c6964207369676e6174757265206c656e67746800600082015250565b600061596c601f83614025565b915061597782615936565b602082019050919050565b6000602082019050818103600083015261599b8161595f565b9050919050565b7f45434453413a20696e76616c6964207369676e6174757265202773272076616c60008201527f7565000000000000000000000000000000000000000000000000000000000000602082015250565b60006159fe602283614025565b9150615a09826159a2565b604082019050919050565b60006020820190508181036000830152615a2d816159f1565b9050919050565b7f455243373231456e756d657261626c653a20636f6e736563757469766520747260008201527f616e7366657273206e6f7420737570706f727465640000000000000000000000602082015250565b6000615a90603583614025565b9150615a9b82615a34565b604082019050919050565b60006020820190508181036000830152615abf81615a83565b9050919050565b6000615ad1826140cc565b9150615adc836140cc565b925082615aec57615aeb615590565b5b828204905092915050565b7f4552433732313a206d696e7420746f20746865207a65726f2061646472657373600082015250565b6000615b2d602083614025565b9150615b3882615af7565b602082019050919050565b60006020820190508181036000830152615b5c81615b20565b9050919050565b7f4552433732313a20746f6b656e20616c7265616479206d696e74656400000000600082015250565b6000615b99601c83614025565b9150615ba482615b63565b602082019050919050565b60006020820190508181036000830152615bc881615b8c565b9050919050565b7f4e487b7100000000000000000000000000000000000000000000000000000000600052603160045260246000fd5b7f53616665436173743a2076616c756520646f65736e27742066697420696e203260008201527f3234206269747300000000000000000000000000000000000000000000000000602082015250565b6000615c5a602783614025565b9150615c6582615bfe565b604082019050919050565b60006020820190508181036000830152615c8981615c4d565b9050919050565b7f436865636b706f696e743a20696e76616c6964206b6579000000000000000000600082015250565b6000615cc6601783614025565b9150615cd182615c90565b602082019050919050565b60006020820190508181036000830152615cf581615cb9565b905091905056fea2646970667358221220185f159b5b7cce7b371aba2d01653ebf296734d9db0c4203e5971be447c1639864736f6c63430008120033",
			"opcodes": "PUSH2 0x140 PUSH1 0x40 MSTORE CALLVALUE DUP1 ISZERO PUSH3 0x12 JUMPI PUSH1 0x0 DUP1 REVERT JUMPDEST POP PUSH1 0x40 MLOAD DUP1 PUSH1 0x40 ADD PUSH1 0x40 MSTORE DUP1 PUSH1 0x3 DUP2 MSTORE PUSH1 0x20 ADD PUSH32 0x446F410000000000000000000000000000000000000000000000000000000000 DUP2 MSTORE POP PUSH1 0x40 MLOAD DUP1 PUSH1 0x40 ADD PUSH1 0x40 MSTORE DUP1 PUSH1 0x1 DUP2 MSTORE PUSH1 0x20 ADD PUSH32 0x3100000000000000000000000000000000000000000000000000000000000000 DUP2 MSTORE POP PUSH1 0x40 MLOAD DUP1 PUSH1 0x40 ADD PUSH1 0x40 MSTORE DUP1 PUSH1 0x3 DUP2 MSTORE PUSH1 0x20 ADD PUSH32 0x446F410000000000000000000000000000000000000000000000000000000000 DUP2 MSTORE POP PUSH1 0x40 MLOAD DUP1 PUSH1 0x40 ADD PUSH1 0x40 MSTORE DUP1 PUSH1 0x3 DUP2 MSTORE PUSH1 0x20 ADD PUSH32 0x444F410000000000000000000000000000000000000000000000000000000000 DUP2 MSTORE POP DUP2 PUSH1 0x0 SWAP1 DUP2 PUSH3 0xFC SWAP2 SWAP1 PUSH3 0x588 JUMP JUMPDEST POP DUP1 PUSH1 0x1 SWAP1 DUP2 PUSH3 0x10E SWAP2 SWAP1 PUSH3 0x588 JUMP JUMPDEST POP POP POP PUSH1 0x0 PUSH1 0xB PUSH1 0x0 PUSH2 0x100 EXP DUP2 SLOAD DUP2 PUSH1 0xFF MUL NOT AND SWAP1 DUP4 ISZERO ISZERO MUL OR SWAP1 SSTORE POP PUSH3 0x14C PUSH3 0x140 PUSH3 0x204 PUSH1 0x20 SHL PUSH1 0x20 SHR JUMP JUMPDEST PUSH3 0x20C PUSH1 0x20 SHL PUSH1 0x20 SHR JUMP JUMPDEST PUSH1 0x0 DUP3 DUP1 MLOAD SWAP1 PUSH1 0x20 ADD KECCAK256 SWAP1 POP PUSH1 0x0 DUP3 DUP1 MLOAD SWAP1 PUSH1 0x20 ADD KECCAK256 SWAP1 POP PUSH1 0x0 PUSH32 0x8B73C3C69BB8FE3D512ECC4CF759CC79239F7B179B0FFACAA9A75D522B39400F SWAP1 POP DUP3 PUSH1 0xE0 DUP2 DUP2 MSTORE POP POP DUP2 PUSH2 0x100 DUP2 DUP2 MSTORE POP POP CHAINID PUSH1 0xA0 DUP2 DUP2 MSTORE POP POP PUSH3 0x1B5 DUP2 DUP5 DUP5 PUSH3 0x2D2 PUSH1 0x20 SHL PUSH1 0x20 SHR JUMP JUMPDEST PUSH1 0x80 DUP2 DUP2 MSTORE POP POP ADDRESS PUSH20 0xFFFFFFFFFFFFFFFFFFFFFFFFFFFFFFFFFFFFFFFF AND PUSH1 0xC0 DUP2 PUSH20 0xFFFFFFFFFFFFFFFFFFFFFFFFFFFFFFFFFFFFFFFF AND DUP2 MSTORE POP POP DUP1 PUSH2 0x120 DUP2 DUP2 MSTORE POP POP POP POP POP POP POP PUSH3 0x73D JUMP JUMPDEST PUSH1 0x0 CALLER SWAP1 POP SWAP1 JUMP JUMPDEST PUSH1 0x0 PUSH1 0xB PUSH1 0x1 SWAP1 SLOAD SWAP1 PUSH2 0x100 EXP SWAP1 DIV PUSH20 0xFFFFFFFFFFFFFFFFFFFFFFFFFFFFFFFFFFFFFFFF AND SWAP1 POP DUP2 PUSH1 0xB PUSH1 0x1 PUSH2 0x100 EXP DUP2 SLOAD DUP2 PUSH20 0xFFFFFFFFFFFFFFFFFFFFFFFFFFFFFFFFFFFFFFFF MUL NOT AND SWAP1 DUP4 PUSH20 0xFFFFFFFFFFFFFFFFFFFFFFFFFFFFFFFFFFFFFFFF AND MUL OR SWAP1 SSTORE POP DUP2 PUSH20 0xFFFFFFFFFFFFFFFFFFFFFFFFFFFFFFFFFFFFFFFF AND DUP2 PUSH20 0xFFFFFFFFFFFFFFFFFFFFFFFFFFFFFFFFFFFFFFFF AND PUSH32 0x8BE0079C531659141344CD1FD0A4F28419497F9722A3DAAFE3B4186F6B6457E0 PUSH1 0x40 MLOAD PUSH1 0x40 MLOAD DUP1 SWAP2 SUB SWAP1 LOG3 POP POP JUMP JUMPDEST PUSH1 0x0 DUP4 DUP4 DUP4 CHAINID ADDRESS PUSH1 0x40 MLOAD PUSH1 0x20 ADD PUSH3 0x2EF SWAP6 SWAP5 SWAP4 SWAP3 SWAP2 SWAP1 PUSH3 0x6E0 JUMP JUMPDEST PUSH1 0x40 MLOAD PUSH1 0x20 DUP2 DUP4 SUB SUB DUP2 MSTORE SWAP1 PUSH1 0x40 MSTORE DUP1 MLOAD SWAP1 PUSH1 0x20 ADD KECCAK256 SWAP1 POP SWAP4 SWAP3 POP POP POP JUMP JUMPDEST PUSH1 0x0 DUP2 MLOAD SWAP1 POP SWAP2 SWAP1 POP JUMP JUMPDEST PUSH32 0x4E487B7100000000000000000000000000000000000000000000000000000000 PUSH1 0x0 MSTORE PUSH1 0x41 PUSH1 0x4 MSTORE PUSH1 0x24 PUSH1 0x0 REVERT JUMPDEST PUSH32 0x4E487B7100000000000000000000000000000000000000000000000000000000 PUSH1 0x0 MSTORE PUSH1 0x22 PUSH1 0x4 MSTORE PUSH1 0x24 PUSH1 0x0 REVERT JUMPDEST PUSH1 0x0 PUSH1 0x2 DUP3 DIV SWAP1 POP PUSH1 0x1 DUP3 AND DUP1 PUSH3 0x390 JUMPI PUSH1 0x7F DUP3 AND SWAP2 POP JUMPDEST PUSH1 0x20 DUP3 LT DUP2 SUB PUSH3 0x3A6 JUMPI PUSH3 0x3A5 PUSH3 0x348 JUMP JUMPDEST JUMPDEST POP SWAP2 SWAP1 POP JUMP JUMPDEST PUSH1 0x0 DUP2 SWAP1 POP DUP2 PUSH1 0x0 MSTORE PUSH1 0x20 PUSH1 0x0 KECCAK256 SWAP1 POP SWAP2 SWAP1 POP JUMP JUMPDEST PUSH1 0x0 PUSH1 0x20 PUSH1 0x1F DUP4 ADD DIV SWAP1 POP SWAP2 SWAP1 POP JUMP JUMPDEST PUSH1 0x0 DUP3 DUP3 SHL SWAP1 POP SWAP3 SWAP2 POP POP JUMP JUMPDEST PUSH1 0x0 PUSH1 0x8 DUP4 MUL PUSH3 0x410 PUSH32 0xFFFFFFFFFFFFFFFFFFFFFFFFFFFFFFFFFFFFFFFFFFFFFFFFFFFFFFFFFFFFFFFF DUP3 PUSH3 0x3D1 JUMP JUMPDEST PUSH3 0x41C DUP7 DUP4 PUSH3 0x3D1 JUMP JUMPDEST SWAP6 POP DUP1 NOT DUP5 AND SWAP4 POP DUP1 DUP7 AND DUP5 OR SWAP3 POP POP POP SWAP4 SWAP3 POP POP POP JUMP JUMPDEST PUSH1 0x0 DUP2 SWAP1 POP SWAP2 SWAP1 POP JUMP JUMPDEST PUSH1 0x0 DUP2 SWAP1 POP SWAP2 SWAP1 POP JUMP JUMPDEST PUSH1 0x0 PUSH3 0x469 PUSH3 0x463 PUSH3 0x45D DUP5 PUSH3 0x434 JUMP JUMPDEST PUSH3 0x43E JUMP JUMPDEST PUSH3 0x434 JUMP JUMPDEST SWAP1 POP SWAP2 SWAP1 POP JUMP JUMPDEST PUSH1 0x0 DUP2 SWAP1 POP SWAP2 SWAP1 POP JUMP JUMPDEST PUSH3 0x485 DUP4 PUSH3 0x448 JUMP JUMPDEST PUSH3 0x49D PUSH3 0x494 DUP3 PUSH3 0x470 JUMP JUMPDEST DUP5 DUP5 SLOAD PUSH3 0x3DE JUMP JUMPDEST DUP3 SSTORE POP POP POP POP JUMP JUMPDEST PUSH1 0x0 SWAP1 JUMP JUMPDEST PUSH3 0x4B4 PUSH3 0x4A5 JUMP JUMPDEST PUSH3 0x4C1 DUP2 DUP5 DUP5 PUSH3 0x47A JUMP JUMPDEST POP POP POP JUMP JUMPDEST JUMPDEST DUP2 DUP2 LT ISZERO PUSH3 0x4E9 JUMPI PUSH3 0x4DD PUSH1 0x0 DUP3 PUSH3 0x4AA JUMP JUMPDEST PUSH1 0x1 DUP2 ADD SWAP1 POP PUSH3 0x4C7 JUMP JUMPDEST POP POP JUMP JUMPDEST PUSH1 0x1F DUP3 GT ISZERO PUSH3 0x538 JUMPI PUSH3 0x502 DUP2 PUSH3 0x3AC JUMP JUMPDEST PUSH3 0x50D DUP5 PUSH3 0x3C1 JUMP JUMPDEST DUP2 ADD PUSH1 0x20 DUP6 LT ISZERO PUSH3 0x51D JUMPI DUP2 SWAP1 POP JUMPDEST PUSH3 0x535 PUSH3 0x52C DUP6 PUSH3 0x3C1 JUMP JUMPDEST DUP4 ADD DUP3 PUSH3 0x4C6 JUMP JUMPDEST POP POP JUMPDEST POP POP POP JUMP JUMPDEST PUSH1 0x0 DUP3 DUP3 SHR SWAP1 POP SWAP3 SWAP2 POP POP JUMP JUMPDEST PUSH1 0x0 PUSH3 0x55D PUSH1 0x0 NOT DUP5 PUSH1 0x8 MUL PUSH3 0x53D JUMP JUMPDEST NOT DUP1 DUP4 AND SWAP2 POP POP SWAP3 SWAP2 POP POP JUMP JUMPDEST PUSH1 0x0 PUSH3 0x578 DUP4 DUP4 PUSH3 0x54A JUMP JUMPDEST SWAP2 POP DUP3 PUSH1 0x2 MUL DUP3 OR SWAP1 POP SWAP3 SWAP2 POP POP JUMP JUMPDEST PUSH3 0x593 DUP3 PUSH3 0x30E JUMP JUMPDEST PUSH8 0xFFFFFFFFFFFFFFFF DUP2 GT ISZERO PUSH3 0x5AF JUMPI PUSH3 0x5AE PUSH3 0x319 JUMP JUMPDEST JUMPDEST PUSH3 0x5BB DUP3 SLOAD PUSH3 0x377 JUMP JUMPDEST PUSH3 0x5C8 DUP3 DUP3 DUP6 PUSH3 0x4ED JUMP JUMPDEST PUSH1 0x0 PUSH1 0x20 SWAP1 POP PUSH1 0x1F DUP4 GT PUSH1 0x1 DUP2 EQ PUSH3 0x600 JUMPI PUSH1 0x0 DUP5 ISZERO PUSH3 0x5EB JUMPI DUP3 DUP8 ADD MLOAD SWAP1 POP JUMPDEST PUSH3 0x5F7 DUP6 DUP3 PUSH3 0x56A JUMP JUMPDEST DUP7 SSTORE POP PUSH3 0x667 JUMP JUMPDEST PUSH1 0x1F NOT DUP5 AND PUSH3 0x610 DUP7 PUSH3 0x3AC JUMP JUMPDEST PUSH1 0x0 JUMPDEST DUP3 DUP2 LT ISZERO PUSH3 0x63A JUMPI DUP5 DUP10 ADD MLOAD DUP3 SSTORE PUSH1 0x1 DUP3 ADD SWAP2 POP PUSH1 0x20 DUP6 ADD SWAP5 POP PUSH1 0x20 DUP2 ADD SWAP1 POP PUSH3 0x613 JUMP JUMPDEST DUP7 DUP4 LT ISZERO PUSH3 0x65A JUMPI DUP5 DUP10 ADD MLOAD PUSH3 0x656 PUSH1 0x1F DUP10 AND DUP3 PUSH3 0x54A JUMP JUMPDEST DUP4 SSTORE POP JUMPDEST PUSH1 0x1 PUSH1 0x2 DUP9 MUL ADD DUP9 SSTORE POP POP POP JUMPDEST POP POP POP POP POP POP JUMP JUMPDEST PUSH1 0x0 DUP2 SWAP1 POP SWAP2 SWAP1 POP JUMP JUMPDEST PUSH3 0x684 DUP2 PUSH3 0x66F JUMP JUMPDEST DUP3 MSTORE POP POP JUMP JUMPDEST PUSH3 0x695 DUP2 PUSH3 0x434 JUMP JUMPDEST DUP3 MSTORE POP POP JUMP JUMPDEST PUSH1 0x0 PUSH20 0xFFFFFFFFFFFFFFFFFFFFFFFFFFFFFFFFFFFFFFFF DUP3 AND SWAP1 POP SWAP2 SWAP1 POP JUMP JUMPDEST PUSH1 0x0 PUSH3 0x6C8 DUP3 PUSH3 0x69B JUMP JUMPDEST SWAP1 POP SWAP2 SWAP1 POP JUMP JUMPDEST PUSH3 0x6DA DUP2 PUSH3 0x6BB JUMP JUMPDEST DUP3 MSTORE POP POP JUMP JUMPDEST PUSH1 0x0 PUSH1 0xA0 DUP3 ADD SWAP1 POP PUSH3 0x6F7 PUSH1 0x0 DUP4 ADD DUP9 PUSH3 0x679 JUMP JUMPDEST PUSH3 0x706 PUSH1 0x20 DUP4 ADD DUP8 PUSH3 0x679 JUMP JUMPDEST PUSH3 0x715 PUSH1 0x40 DUP4 ADD DUP7 PUSH3 0x679 JUMP JUMPDEST PUSH3 0x724 PUSH1 0x60 DUP4 ADD DUP6 PUSH3 0x68A JUMP JUMPDEST PUSH3 0x733 PUSH1 0x80 DUP4 ADD DUP5 PUSH3 0x6CF JUMP JUMPDEST SWAP7 SWAP6 POP POP POP POP POP POP JUMP JUMPDEST PUSH1 0x80 MLOAD PUSH1 0xA0 MLOAD PUSH1 0xC0 MLOAD PUSH1 0xE0 MLOAD PUSH2 0x100 MLOAD PUSH2 0x120 MLOAD PUSH2 0x5D32 PUSH3 0x78D PUSH1 0x0 CODECOPY PUSH1 0x0 PUSH2 0x1741 ADD MSTORE PUSH1 0x0 PUSH2 0x1783 ADD MSTORE PUSH1 0x0 PUSH2 0x1762 ADD MSTORE PUSH1 0x0 PUSH2 0x1697 ADD MSTORE PUSH1 0x0 PUSH2 0x16ED ADD MSTORE PUSH1 0x0 PUSH2 0x1716 ADD MSTORE PUSH2 0x5D32 PUSH1 0x0 RETURN INVALID PUSH1 0x80 PUSH1 0x40 MSTORE CALLVALUE DUP1 ISZERO PUSH2 0x10 JUMPI PUSH1 0x0 DUP1 REVERT JUMPDEST POP PUSH1 0x4 CALLDATASIZE LT PUSH2 0x1F0 JUMPI PUSH1 0x0 CALLDATALOAD PUSH1 0xE0 SHR DUP1 PUSH4 0x6352211E GT PUSH2 0x10F JUMPI DUP1 PUSH4 0x9AB24EB0 GT PUSH2 0xA2 JUMPI DUP1 PUSH4 0xC87B56DD GT PUSH2 0x71 JUMPI DUP1 PUSH4 0xC87B56DD EQ PUSH2 0x5B7 JUMPI DUP1 PUSH4 0xD204C45E EQ PUSH2 0x5E7 JUMPI DUP1 PUSH4 0xE985E9C5 EQ PUSH2 0x603 JUMPI DUP1 PUSH4 0xF2FDE38B EQ PUSH2 0x633 JUMPI PUSH2 0x1F0 JUMP JUMPDEST DUP1 PUSH4 0x9AB24EB0 EQ PUSH2 0x533 JUMPI DUP1 PUSH4 0xA22CB465 EQ PUSH2 0x563 JUMPI DUP1 PUSH4 0xB88D4FDE EQ PUSH2 0x57F JUMPI DUP1 PUSH4 0xC3CDA520 EQ PUSH2 0x59B JUMPI PUSH2 0x1F0 JUMP JUMPDEST DUP1 PUSH4 0x8456CB59 GT PUSH2 0xDE JUMPI DUP1 PUSH4 0x8456CB59 EQ PUSH2 0x4BD JUMPI DUP1 PUSH4 0x8DA5CB5B EQ PUSH2 0x4C7 JUMPI DUP1 PUSH4 0x8E539E8C EQ PUSH2 0x4E5 JUMPI DUP1 PUSH4 0x95D89B41 EQ PUSH2 0x515 JUMPI PUSH2 0x1F0 JUMP JUMPDEST DUP1 PUSH4 0x6352211E EQ PUSH2 0x423 JUMPI DUP1 PUSH4 0x70A08231 EQ PUSH2 0x453 JUMPI DUP1 PUSH4 0x715018A6 EQ PUSH2 0x483 JUMPI DUP1 PUSH4 0x7ECEBE00 EQ PUSH2 0x48D JUMPI PUSH2 0x1F0 JUMP JUMPDEST DUP1 PUSH4 0x3A46B1A8 GT PUSH2 0x187 JUMPI DUP1 PUSH4 0x4F6CCCE7 GT PUSH2 0x156 JUMPI DUP1 PUSH4 0x4F6CCCE7 EQ PUSH2 0x389 JUMPI DUP1 PUSH4 0x587CDE1E EQ PUSH2 0x3B9 JUMPI DUP1 PUSH4 0x5C19A95C EQ PUSH2 0x3E9 JUMPI DUP1 PUSH4 0x5C975ABB EQ PUSH2 0x405 JUMPI PUSH2 0x1F0 JUMP JUMPDEST DUP1 PUSH4 0x3A46B1A8 EQ PUSH2 0x317 JUMPI DUP1 PUSH4 0x3F4BA83A EQ PUSH2 0x347 JUMPI DUP1 PUSH4 0x42842E0E EQ PUSH2 0x351 JUMPI DUP1 PUSH4 0x42966C68 EQ PUSH2 0x36D JUMPI PUSH2 0x1F0 JUMP JUMPDEST DUP1 PUSH4 0x18160DDD GT PUSH2 0x1C3 JUMPI DUP1 PUSH4 0x18160DDD EQ PUSH2 0x28F JUMPI DUP1 PUSH4 0x23B872DD EQ PUSH2 0x2AD JUMPI DUP1 PUSH4 0x2F745C59 EQ PUSH2 0x2C9 JUMPI DUP1 PUSH4 0x3644E515 EQ PUSH2 0x2F9 JUMPI PUSH2 0x1F0 JUMP JUMPDEST DUP1 PUSH4 0x1FFC9A7 EQ PUSH2 0x1F5 JUMPI DUP1 PUSH4 0x6FDDE03 EQ PUSH2 0x225 JUMPI DUP1 PUSH4 0x81812FC EQ PUSH2 0x243 JUMPI DUP1 PUSH4 0x95EA7B3 EQ PUSH2 0x273 JUMPI JUMPDEST PUSH1 0x0 DUP1 REVERT JUMPDEST PUSH2 0x20F PUSH1 0x4 DUP1 CALLDATASIZE SUB DUP2 ADD SWAP1 PUSH2 0x20A SWAP2 SWAP1 PUSH2 0x3FB7 JUMP JUMPDEST PUSH2 0x64F JUMP JUMPDEST PUSH1 0x40 MLOAD PUSH2 0x21C SWAP2 SWAP1 PUSH2 0x3FFF JUMP JUMPDEST PUSH1 0x40 MLOAD DUP1 SWAP2 SUB SWAP1 RETURN JUMPDEST PUSH2 0x22D PUSH2 0x661 JUMP JUMPDEST PUSH1 0x40 MLOAD PUSH2 0x23A SWAP2 SWAP1 PUSH2 0x40AA JUMP JUMPDEST PUSH1 0x40 MLOAD DUP1 SWAP2 SUB SWAP1 RETURN JUMPDEST PUSH2 0x25D PUSH1 0x4 DUP1 CALLDATASIZE SUB DUP2 ADD SWAP1 PUSH2 0x258 SWAP2 SWAP1 PUSH2 0x4102 JUMP JUMPDEST PUSH2 0x6F3 JUMP JUMPDEST PUSH1 0x40 MLOAD PUSH2 0x26A SWAP2 SWAP1 PUSH2 0x4170 JUMP JUMPDEST PUSH1 0x40 MLOAD DUP1 SWAP2 SUB SWAP1 RETURN JUMPDEST PUSH2 0x28D PUSH1 0x4 DUP1 CALLDATASIZE SUB DUP2 ADD SWAP1 PUSH2 0x288 SWAP2 SWAP1 PUSH2 0x41B7 JUMP JUMPDEST PUSH2 0x739 JUMP JUMPDEST STOP JUMPDEST PUSH2 0x297 PUSH2 0x850 JUMP JUMPDEST PUSH1 0x40 MLOAD PUSH2 0x2A4 SWAP2 SWAP1 PUSH2 0x4206 JUMP JUMPDEST PUSH1 0x40 MLOAD DUP1 SWAP2 SUB SWAP1 RETURN JUMPDEST PUSH2 0x2C7 PUSH1 0x4 DUP1 CALLDATASIZE SUB DUP2 ADD SWAP1 PUSH2 0x2C2 SWAP2 SWAP1 PUSH2 0x4221 JUMP JUMPDEST PUSH2 0x85D JUMP JUMPDEST STOP JUMPDEST PUSH2 0x2E3 PUSH1 0x4 DUP1 CALLDATASIZE SUB DUP2 ADD SWAP1 PUSH2 0x2DE SWAP2 SWAP1 PUSH2 0x41B7 JUMP JUMPDEST PUSH2 0x8BD JUMP JUMPDEST PUSH1 0x40 MLOAD PUSH2 0x2F0 SWAP2 SWAP1 PUSH2 0x4206 JUMP JUMPDEST PUSH1 0x40 MLOAD DUP1 SWAP2 SUB SWAP1 RETURN JUMPDEST PUSH2 0x301 PUSH2 0x962 JUMP JUMPDEST PUSH1 0x40 MLOAD PUSH2 0x30E SWAP2 SWAP1 PUSH2 0x428D JUMP JUMPDEST PUSH1 0x40 MLOAD DUP1 SWAP2 SUB SWAP1 RETURN JUMPDEST PUSH2 0x331 PUSH1 0x4 DUP1 CALLDATASIZE SUB DUP2 ADD SWAP1 PUSH2 0x32C SWAP2 SWAP1 PUSH2 0x41B7 JUMP JUMPDEST PUSH2 0x971 JUMP JUMPDEST PUSH1 0x40 MLOAD PUSH2 0x33E SWAP2 SWAP1 PUSH2 0x4206 JUMP JUMPDEST PUSH1 0x40 MLOAD DUP1 SWAP2 SUB SWAP1 RETURN JUMPDEST PUSH2 0x34F PUSH2 0x9CC JUMP JUMPDEST STOP JUMPDEST PUSH2 0x36B PUSH1 0x4 DUP1 CALLDATASIZE SUB DUP2 ADD SWAP1 PUSH2 0x366 SWAP2 SWAP1 PUSH2 0x4221 JUMP JUMPDEST PUSH2 0x9DE JUMP JUMPDEST STOP JUMPDEST PUSH2 0x387 PUSH1 0x4 DUP1 CALLDATASIZE SUB DUP2 ADD SWAP1 PUSH2 0x382 SWAP2 SWAP1 PUSH2 0x4102 JUMP JUMPDEST PUSH2 0x9FE JUMP JUMPDEST STOP JUMPDEST PUSH2 0x3A3 PUSH1 0x4 DUP1 CALLDATASIZE SUB DUP2 ADD SWAP1 PUSH2 0x39E SWAP2 SWAP1 PUSH2 0x4102 JUMP JUMPDEST PUSH2 0xA5A JUMP JUMPDEST PUSH1 0x40 MLOAD PUSH2 0x3B0 SWAP2 SWAP1 PUSH2 0x4206 JUMP JUMPDEST PUSH1 0x40 MLOAD DUP1 SWAP2 SUB SWAP1 RETURN JUMPDEST PUSH2 0x3D3 PUSH1 0x4 DUP1 CALLDATASIZE SUB DUP2 ADD SWAP1 PUSH2 0x3CE SWAP2 SWAP1 PUSH2 0x42A8 JUMP JUMPDEST PUSH2 0xACB JUMP JUMPDEST PUSH1 0x40 MLOAD PUSH2 0x3E0 SWAP2 SWAP1 PUSH2 0x4170 JUMP JUMPDEST PUSH1 0x40 MLOAD DUP1 SWAP2 SUB SWAP1 RETURN JUMPDEST PUSH2 0x403 PUSH1 0x4 DUP1 CALLDATASIZE SUB DUP2 ADD SWAP1 PUSH2 0x3FE SWAP2 SWAP1 PUSH2 0x42A8 JUMP JUMPDEST PUSH2 0xB34 JUMP JUMPDEST STOP JUMPDEST PUSH2 0x40D PUSH2 0xB4E JUMP JUMPDEST PUSH1 0x40 MLOAD PUSH2 0x41A SWAP2 SWAP1 PUSH2 0x3FFF JUMP JUMPDEST PUSH1 0x40 MLOAD DUP1 SWAP2 SUB SWAP1 RETURN JUMPDEST PUSH2 0x43D PUSH1 0x4 DUP1 CALLDATASIZE SUB DUP2 ADD SWAP1 PUSH2 0x438 SWAP2 SWAP1 PUSH2 0x4102 JUMP JUMPDEST PUSH2 0xB65 JUMP JUMPDEST PUSH1 0x40 MLOAD PUSH2 0x44A SWAP2 SWAP1 PUSH2 0x4170 JUMP JUMPDEST PUSH1 0x40 MLOAD DUP1 SWAP2 SUB SWAP1 RETURN JUMPDEST PUSH2 0x46D PUSH1 0x4 DUP1 CALLDATASIZE SUB DUP2 ADD SWAP1 PUSH2 0x468 SWAP2 SWAP1 PUSH2 0x42A8 JUMP JUMPDEST PUSH2 0xBEB JUMP JUMPDEST PUSH1 0x40 MLOAD PUSH2 0x47A SWAP2 SWAP1 PUSH2 0x4206 JUMP JUMPDEST PUSH1 0x40 MLOAD DUP1 SWAP2 SUB SWAP1 RETURN JUMPDEST PUSH2 0x48B PUSH2 0xCA2 JUMP JUMPDEST STOP JUMPDEST PUSH2 0x4A7 PUSH1 0x4 DUP1 CALLDATASIZE SUB DUP2 ADD SWAP1 PUSH2 0x4A2 SWAP2 SWAP1 PUSH2 0x42A8 JUMP JUMPDEST PUSH2 0xCB6 JUMP JUMPDEST PUSH1 0x40 MLOAD PUSH2 0x4B4 SWAP2 SWAP1 PUSH2 0x4206 JUMP JUMPDEST PUSH1 0x40 MLOAD DUP1 SWAP2 SUB SWAP1 RETURN JUMPDEST PUSH2 0x4C5 PUSH2 0xD06 JUMP JUMPDEST STOP JUMPDEST PUSH2 0x4CF PUSH2 0xD18 JUMP JUMPDEST PUSH1 0x40 MLOAD PUSH2 0x4DC SWAP2 SWAP1 PUSH2 0x4170 JUMP JUMPDEST PUSH1 0x40 MLOAD DUP1 SWAP2 SUB SWAP1 RETURN JUMPDEST PUSH2 0x4FF PUSH1 0x4 DUP1 CALLDATASIZE SUB DUP2 ADD SWAP1 PUSH2 0x4FA SWAP2 SWAP1 PUSH2 0x4102 JUMP JUMPDEST PUSH2 0xD42 JUMP JUMPDEST PUSH1 0x40 MLOAD PUSH2 0x50C SWAP2 SWAP1 PUSH2 0x4206 JUMP JUMPDEST PUSH1 0x40 MLOAD DUP1 SWAP2 SUB SWAP1 RETURN JUMPDEST PUSH2 0x51D PUSH2 0xDA1 JUMP JUMPDEST PUSH1 0x40 MLOAD PUSH2 0x52A SWAP2 SWAP1 PUSH2 0x40AA JUMP JUMPDEST PUSH1 0x40 MLOAD DUP1 SWAP2 SUB SWAP1 RETURN JUMPDEST PUSH2 0x54D PUSH1 0x4 DUP1 CALLDATASIZE SUB DUP2 ADD SWAP1 PUSH2 0x548 SWAP2 SWAP1 PUSH2 0x42A8 JUMP JUMPDEST PUSH2 0xE33 JUMP JUMPDEST PUSH1 0x40 MLOAD PUSH2 0x55A SWAP2 SWAP1 PUSH2 0x4206 JUMP JUMPDEST PUSH1 0x40 MLOAD DUP1 SWAP2 SUB SWAP1 RETURN JUMPDEST PUSH2 0x57D PUSH1 0x4 DUP1 CALLDATASIZE SUB DUP2 ADD SWAP1 PUSH2 0x578 SWAP2 SWAP1 PUSH2 0x4301 JUMP JUMPDEST PUSH2 0xEA1 JUMP JUMPDEST STOP JUMPDEST PUSH2 0x599 PUSH1 0x4 DUP1 CALLDATASIZE SUB DUP2 ADD SWAP1 PUSH2 0x594 SWAP2 SWAP1 PUSH2 0x4476 JUMP JUMPDEST PUSH2 0xEB7 JUMP JUMPDEST STOP JUMPDEST PUSH2 0x5B5 PUSH1 0x4 DUP1 CALLDATASIZE SUB DUP2 ADD SWAP1 PUSH2 0x5B0 SWAP2 SWAP1 PUSH2 0x455E JUMP JUMPDEST PUSH2 0xF19 JUMP JUMPDEST STOP JUMPDEST PUSH2 0x5D1 PUSH1 0x4 DUP1 CALLDATASIZE SUB DUP2 ADD SWAP1 PUSH2 0x5CC SWAP2 SWAP1 PUSH2 0x4102 JUMP JUMPDEST PUSH2 0x101D JUMP JUMPDEST PUSH1 0x40 MLOAD PUSH2 0x5DE SWAP2 SWAP1 PUSH2 0x40AA JUMP JUMPDEST PUSH1 0x40 MLOAD DUP1 SWAP2 SUB SWAP1 RETURN JUMPDEST PUSH2 0x601 PUSH1 0x4 DUP1 CALLDATASIZE SUB DUP2 ADD SWAP1 PUSH2 0x5FC SWAP2 SWAP1 PUSH2 0x468C JUMP JUMPDEST PUSH2 0x102F JUMP JUMPDEST STOP JUMPDEST PUSH2 0x61D PUSH1 0x4 DUP1 CALLDATASIZE SUB DUP2 ADD SWAP1 PUSH2 0x618 SWAP2 SWAP1 PUSH2 0x46E8 JUMP JUMPDEST PUSH2 0x1068 JUMP JUMPDEST PUSH1 0x40 MLOAD PUSH2 0x62A SWAP2 SWAP1 PUSH2 0x3FFF JUMP JUMPDEST PUSH1 0x40 MLOAD DUP1 SWAP2 SUB SWAP1 RETURN JUMPDEST PUSH2 0x64D PUSH1 0x4 DUP1 CALLDATASIZE SUB DUP2 ADD SWAP1 PUSH2 0x648 SWAP2 SWAP1 PUSH2 0x42A8 JUMP JUMPDEST PUSH2 0x10FC JUMP JUMPDEST STOP JUMPDEST PUSH1 0x0 PUSH2 0x65A DUP3 PUSH2 0x117F JUMP JUMPDEST SWAP1 POP SWAP2 SWAP1 POP JUMP JUMPDEST PUSH1 0x60 PUSH1 0x0 DUP1 SLOAD PUSH2 0x670 SWAP1 PUSH2 0x4757 JUMP JUMPDEST DUP1 PUSH1 0x1F ADD PUSH1 0x20 DUP1 SWAP2 DIV MUL PUSH1 0x20 ADD PUSH1 0x40 MLOAD SWAP1 DUP2 ADD PUSH1 0x40 MSTORE DUP1 SWAP3 SWAP2 SWAP1 DUP2 DUP2 MSTORE PUSH1 0x20 ADD DUP3 DUP1 SLOAD PUSH2 0x69C SWAP1 PUSH2 0x4757 JUMP JUMPDEST DUP1 ISZERO PUSH2 0x6E9 JUMPI DUP1 PUSH1 0x1F LT PUSH2 0x6BE JUMPI PUSH2 0x100 DUP1 DUP4 SLOAD DIV MUL DUP4 MSTORE SWAP2 PUSH1 0x20 ADD SWAP2 PUSH2 0x6E9 JUMP JUMPDEST DUP3 ADD SWAP2 SWAP1 PUSH1 0x0 MSTORE PUSH1 0x20 PUSH1 0x0 KECCAK256 SWAP1 JUMPDEST DUP2 SLOAD DUP2 MSTORE SWAP1 PUSH1 0x1 ADD SWAP1 PUSH1 0x20 ADD DUP1 DUP4 GT PUSH2 0x6CC JUMPI DUP3 SWAP1 SUB PUSH1 0x1F AND DUP3 ADD SWAP2 JUMPDEST POP POP POP POP POP SWAP1 POP SWAP1 JUMP JUMPDEST PUSH1 0x0 PUSH2 0x6FE DUP3 PUSH2 0x11F9 JUMP JUMPDEST PUSH1 0x4 PUSH1 0x0 DUP4 DUP2 MSTORE PUSH1 0x20 ADD SWAP1 DUP2 MSTORE PUSH1 0x20 ADD PUSH1 0x0 KECCAK256 PUSH1 0x0 SWAP1 SLOAD SWAP1 PUSH2 0x100 EXP SWAP1 DIV PUSH20 0xFFFFFFFFFFFFFFFFFFFFFFFFFFFFFFFFFFFFFFFF AND SWAP1 POP SWAP2 SWAP1 POP JUMP JUMPDEST PUSH1 0x0 PUSH2 0x744 DUP3 PUSH2 0xB65 JUMP JUMPDEST SWAP1 POP DUP1 PUSH20 0xFFFFFFFFFFFFFFFFFFFFFFFFFFFFFFFFFFFFFFFF AND DUP4 PUSH20 0xFFFFFFFFFFFFFFFFFFFFFFFFFFFFFFFFFFFFFFFF AND SUB PUSH2 0x7B4 JUMPI PUSH1 0x40 MLOAD PUSH32 0x8C379A000000000000000000000000000000000000000000000000000000000 DUP2 MSTORE PUSH1 0x4 ADD PUSH2 0x7AB SWAP1 PUSH2 0x47FA JUMP JUMPDEST PUSH1 0x40 MLOAD DUP1 SWAP2 SUB SWAP1 REVERT JUMPDEST DUP1 PUSH20 0xFFFFFFFFFFFFFFFFFFFFFFFFFFFFFFFFFFFFFFFF AND PUSH2 0x7D3 PUSH2 0x1244 JUMP JUMPDEST PUSH20 0xFFFFFFFFFFFFFFFFFFFFFFFFFFFFFFFFFFFFFFFF AND EQ DUP1 PUSH2 0x802 JUMPI POP PUSH2 0x801 DUP2 PUSH2 0x7FC PUSH2 0x1244 JUMP JUMPDEST PUSH2 0x1068 JUMP JUMPDEST JUMPDEST PUSH2 0x841 JUMPI PUSH1 0x40 MLOAD PUSH32 0x8C379A000000000000000000000000000000000000000000000000000000000 DUP2 MSTORE PUSH1 0x4 ADD PUSH2 0x838 SWAP1 PUSH2 0x488C JUMP JUMPDEST PUSH1 0x40 MLOAD DUP1 SWAP2 SUB SWAP1 REVERT JUMPDEST PUSH2 0x84B DUP4 DUP4 PUSH2 0x124C JUMP JUMPDEST POP POP POP JUMP JUMPDEST PUSH1 0x0 PUSH1 0x8 DUP1 SLOAD SWAP1 POP SWAP1 POP SWAP1 JUMP JUMPDEST PUSH2 0x86E PUSH2 0x868 PUSH2 0x1244 JUMP JUMPDEST DUP3 PUSH2 0x1305 JUMP JUMPDEST PUSH2 0x8AD JUMPI PUSH1 0x40 MLOAD PUSH32 0x8C379A000000000000000000000000000000000000000000000000000000000 DUP2 MSTORE PUSH1 0x4 ADD PUSH2 0x8A4 SWAP1 PUSH2 0x491E JUMP JUMPDEST PUSH1 0x40 MLOAD DUP1 SWAP2 SUB SWAP1 REVERT JUMPDEST PUSH2 0x8B8 DUP4 DUP4 DUP4 PUSH2 0x139A JUMP JUMPDEST POP POP POP JUMP JUMPDEST PUSH1 0x0 PUSH2 0x8C8 DUP4 PUSH2 0xBEB JUMP JUMPDEST DUP3 LT PUSH2 0x909 JUMPI PUSH1 0x40 MLOAD PUSH32 0x8C379A000000000000000000000000000000000000000000000000000000000 DUP2 MSTORE PUSH1 0x4 ADD PUSH2 0x900 SWAP1 PUSH2 0x49B0 JUMP JUMPDEST PUSH1 0x40 MLOAD DUP1 SWAP2 SUB SWAP1 REVERT JUMPDEST PUSH1 0x6 PUSH1 0x0 DUP5 PUSH20 0xFFFFFFFFFFFFFFFFFFFFFFFFFFFFFFFFFFFFFFFF AND PUSH20 0xFFFFFFFFFFFFFFFFFFFFFFFFFFFFFFFFFFFFFFFF AND DUP2 MSTORE PUSH1 0x20 ADD SWAP1 DUP2 MSTORE PUSH1 0x20 ADD PUSH1 0x0 KECCAK256 PUSH1 0x0 DUP4 DUP2 MSTORE PUSH1 0x20 ADD SWAP1 DUP2 MSTORE PUSH1 0x20 ADD PUSH1 0x0 KECCAK256 SLOAD SWAP1 POP SWAP3 SWAP2 POP POP JUMP JUMPDEST PUSH1 0x0 PUSH2 0x96C PUSH2 0x1693 JUMP JUMPDEST SWAP1 POP SWAP1 JUMP JUMPDEST PUSH1 0x0 PUSH2 0x9C4 DUP3 PUSH1 0xD PUSH1 0x0 DUP7 PUSH20 0xFFFFFFFFFFFFFFFFFFFFFFFFFFFFFFFFFFFFFFFF AND PUSH20 0xFFFFFFFFFFFFFFFFFFFFFFFFFFFFFFFFFFFFFFFF AND DUP2 MSTORE PUSH1 0x20 ADD SWAP1 DUP2 MSTORE PUSH1 0x20 ADD PUSH1 0x0 KECCAK256 PUSH2 0x17AD SWAP1 SWAP2 SWAP1 PUSH4 0xFFFFFFFF AND JUMP JUMPDEST SWAP1 POP SWAP3 SWAP2 POP POP JUMP JUMPDEST PUSH2 0x9D4 PUSH2 0x1912 JUMP JUMPDEST PUSH2 0x9DC PUSH2 0x1990 JUMP JUMPDEST JUMP JUMPDEST PUSH2 0x9F9 DUP4 DUP4 DUP4 PUSH1 0x40 MLOAD DUP1 PUSH1 0x20 ADD PUSH1 0x40 MSTORE DUP1 PUSH1 0x0 DUP2 MSTORE POP PUSH2 0xEB7 JUMP JUMPDEST POP POP POP JUMP JUMPDEST PUSH2 0xA0F PUSH2 0xA09 PUSH2 0x1244 JUMP JUMPDEST DUP3 PUSH2 0x1305 JUMP JUMPDEST PUSH2 0xA4E JUMPI PUSH1 0x40 MLOAD PUSH32 0x8C379A000000000000000000000000000000000000000000000000000000000 DUP2 MSTORE PUSH1 0x4 ADD PUSH2 0xA45 SWAP1 PUSH2 0x491E JUMP JUMPDEST PUSH1 0x40 MLOAD DUP1 SWAP2 SUB SWAP1 REVERT JUMPDEST PUSH2 0xA57 DUP2 PUSH2 0x19F3 JUMP JUMPDEST POP JUMP JUMPDEST PUSH1 0x0 PUSH2 0xA64 PUSH2 0x850 JUMP JUMPDEST DUP3 LT PUSH2 0xAA5 JUMPI PUSH1 0x40 MLOAD PUSH32 0x8C379A000000000000000000000000000000000000000000000000000000000 DUP2 MSTORE PUSH1 0x4 ADD PUSH2 0xA9C SWAP1 PUSH2 0x4A42 JUMP JUMPDEST PUSH1 0x40 MLOAD DUP1 SWAP2 SUB SWAP1 REVERT JUMPDEST PUSH1 0x8 DUP3 DUP2 SLOAD DUP2 LT PUSH2 0xAB9 JUMPI PUSH2 0xAB8 PUSH2 0x4A62 JUMP JUMPDEST JUMPDEST SWAP1 PUSH1 0x0 MSTORE PUSH1 0x20 PUSH1 0x0 KECCAK256 ADD SLOAD SWAP1 POP SWAP2 SWAP1 POP JUMP JUMPDEST PUSH1 0x0 PUSH1 0xC PUSH1 0x0 DUP4 PUSH20 0xFFFFFFFFFFFFFFFFFFFFFFFFFFFFFFFFFFFFFFFF AND PUSH20 0xFFFFFFFFFFFFFFFFFFFFFFFFFFFFFFFFFFFFFFFF AND DUP2 MSTORE PUSH1 0x20 ADD SWAP1 DUP2 MSTORE PUSH1 0x20 ADD PUSH1 0x0 KECCAK256 PUSH1 0x0 SWAP1 SLOAD SWAP1 PUSH2 0x100 EXP SWAP1 DIV PUSH20 0xFFFFFFFFFFFFFFFFFFFFFFFFFFFFFFFFFFFFFFFF AND SWAP1 POP SWAP2 SWAP1 POP JUMP JUMPDEST PUSH1 0x0 PUSH2 0xB3E PUSH2 0x1244 JUMP JUMPDEST SWAP1 POP PUSH2 0xB4A DUP2 DUP4 PUSH2 0x19FF JUMP JUMPDEST POP POP JUMP JUMPDEST PUSH1 0x0 PUSH1 0xB PUSH1 0x0 SWAP1 SLOAD SWAP1 PUSH2 0x100 EXP SWAP1 DIV PUSH1 0xFF AND SWAP1 POP SWAP1 JUMP JUMPDEST PUSH1 0x0 DUP1 PUSH2 0xB71 DUP4 PUSH2 0x1B13 JUMP JUMPDEST SWAP1 POP PUSH1 0x0 PUSH20 0xFFFFFFFFFFFFFFFFFFFFFFFFFFFFFFFFFFFFFFFF AND DUP2 PUSH20 0xFFFFFFFFFFFFFFFFFFFFFFFFFFFFFFFFFFFFFFFF AND SUB PUSH2 0xBE2 JUMPI PUSH1 0x40 MLOAD PUSH32 0x8C379A000000000000000000000000000000000000000000000000000000000 DUP2 MSTORE PUSH1 0x4 ADD PUSH2 0xBD9 SWAP1 PUSH2 0x4ADD JUMP JUMPDEST PUSH1 0x40 MLOAD DUP1 SWAP2 SUB SWAP1 REVERT JUMPDEST DUP1 SWAP2 POP POP SWAP2 SWAP1 POP JUMP JUMPDEST PUSH1 0x0 DUP1 PUSH20 0xFFFFFFFFFFFFFFFFFFFFFFFFFFFFFFFFFFFFFFFF AND DUP3 PUSH20 0xFFFFFFFFFFFFFFFFFFFFFFFFFFFFFFFFFFFFFFFF AND SUB PUSH2 0xC5B JUMPI PUSH1 0x40 MLOAD PUSH32 0x8C379A000000000000000000000000000000000000000000000000000000000 DUP2 MSTORE PUSH1 0x4 ADD PUSH2 0xC52 SWAP1 PUSH2 0x4B6F JUMP JUMPDEST PUSH1 0x40 MLOAD DUP1 SWAP2 SUB SWAP1 REVERT JUMPDEST PUSH1 0x3 PUSH1 0x0 DUP4 PUSH20 0xFFFFFFFFFFFFFFFFFFFFFFFFFFFFFFFFFFFFFFFF AND PUSH20 0xFFFFFFFFFFFFFFFFFFFFFFFFFFFFFFFFFFFFFFFF AND DUP2 MSTORE PUSH1 0x20 ADD SWAP1 DUP2 MSTORE PUSH1 0x20 ADD PUSH1 0x0 KECCAK256 SLOAD SWAP1 POP SWAP2 SWAP1 POP JUMP JUMPDEST PUSH2 0xCAA PUSH2 0x1912 JUMP JUMPDEST PUSH2 0xCB4 PUSH1 0x0 PUSH2 0x1B50 JUMP JUMPDEST JUMP JUMPDEST PUSH1 0x0 PUSH2 0xCFF PUSH1 0xF PUSH1 0x0 DUP5 PUSH20 0xFFFFFFFFFFFFFFFFFFFFFFFFFFFFFFFFFFFFFFFF AND PUSH20 0xFFFFFFFFFFFFFFFFFFFFFFFFFFFFFFFFFFFFFFFF AND DUP2 MSTORE PUSH1 0x20 ADD SWAP1 DUP2 MSTORE PUSH1 0x20 ADD PUSH1 0x0 KECCAK256 PUSH2 0x1C16 JUMP JUMPDEST SWAP1 POP SWAP2 SWAP1 POP JUMP JUMPDEST PUSH2 0xD0E PUSH2 0x1912 JUMP JUMPDEST PUSH2 0xD16 PUSH2 0x1C24 JUMP JUMPDEST JUMP JUMPDEST PUSH1 0x0 PUSH1 0xB PUSH1 0x1 SWAP1 SLOAD SWAP1 PUSH2 0x100 EXP SWAP1 DIV PUSH20 0xFFFFFFFFFFFFFFFFFFFFFFFFFFFFFFFFFFFFFFFF AND SWAP1 POP SWAP1 JUMP JUMPDEST PUSH1 0x0 NUMBER DUP3 LT PUSH2 0xD86 JUMPI PUSH1 0x40 MLOAD PUSH32 0x8C379A000000000000000000000000000000000000000000000000000000000 DUP2 MSTORE PUSH1 0x4 ADD PUSH2 0xD7D SWAP1 PUSH2 0x4BDB JUMP JUMPDEST PUSH1 0x40 MLOAD DUP1 SWAP2 SUB SWAP1 REVERT JUMPDEST PUSH2 0xD9A DUP3 PUSH1 0xE PUSH2 0x17AD SWAP1 SWAP2 SWAP1 PUSH4 0xFFFFFFFF AND JUMP JUMPDEST SWAP1 POP SWAP2 SWAP1 POP JUMP JUMPDEST PUSH1 0x60 PUSH1 0x1 DUP1 SLOAD PUSH2 0xDB0 SWAP1 PUSH2 0x4757 JUMP JUMPDEST DUP1 PUSH1 0x1F ADD PUSH1 0x20 DUP1 SWAP2 DIV MUL PUSH1 0x20 ADD PUSH1 0x40 MLOAD SWAP1 DUP2 ADD PUSH1 0x40 MSTORE DUP1 SWAP3 SWAP2 SWAP1 DUP2 DUP2 MSTORE PUSH1 0x20 ADD DUP3 DUP1 SLOAD PUSH2 0xDDC SWAP1 PUSH2 0x4757 JUMP JUMPDEST DUP1 ISZERO PUSH2 0xE29 JUMPI DUP1 PUSH1 0x1F LT PUSH2 0xDFE JUMPI PUSH2 0x100 DUP1 DUP4 SLOAD DIV MUL DUP4 MSTORE SWAP2 PUSH1 0x20 ADD SWAP2 PUSH2 0xE29 JUMP JUMPDEST DUP3 ADD SWAP2 SWAP1 PUSH1 0x0 MSTORE PUSH1 0x20 PUSH1 0x0 KECCAK256 SWAP1 JUMPDEST DUP2 SLOAD DUP2 MSTORE SWAP1 PUSH1 0x1 ADD SWAP1 PUSH1 0x20 ADD DUP1 DUP4 GT PUSH2 0xE0C JUMPI DUP3 SWAP1 SUB PUSH1 0x1F AND DUP3 ADD SWAP2 JUMPDEST POP POP POP POP POP SWAP1 POP SWAP1 JUMP JUMPDEST PUSH1 0x0 PUSH2 0xE7C PUSH1 0xD PUSH1 0x0 DUP5 PUSH20 0xFFFFFFFFFFFFFFFFFFFFFFFFFFFFFFFFFFFFFFFF AND PUSH20 0xFFFFFFFFFFFFFFFFFFFFFFFFFFFFFFFFFFFFFFFF AND DUP2 MSTORE PUSH1 0x20 ADD SWAP1 DUP2 MSTORE PUSH1 0x20 ADD PUSH1 0x0 KECCAK256 PUSH2 0x1C87 JUMP JUMPDEST PUSH28 0xFFFFFFFFFFFFFFFFFFFFFFFFFFFFFFFFFFFFFFFFFFFFFFFFFFFFFFFF AND SWAP1 POP SWAP2 SWAP1 POP JUMP JUMPDEST PUSH2 0xEB3 PUSH2 0xEAC PUSH2 0x1244 JUMP JUMPDEST DUP4 DUP4 PUSH2 0x1CF1 JUMP JUMPDEST POP POP JUMP JUMPDEST PUSH2 0xEC8 PUSH2 0xEC2 PUSH2 0x1244 JUMP JUMPDEST DUP4 PUSH2 0x1305 JUMP JUMPDEST PUSH2 0xF07 JUMPI PUSH1 0x40 MLOAD PUSH32 0x8C379A000000000000000000000000000000000000000000000000000000000 DUP2 MSTORE PUSH1 0x4 ADD PUSH2 0xEFE SWAP1 PUSH2 0x491E JUMP JUMPDEST PUSH1 0x40 MLOAD DUP1 SWAP2 SUB SWAP1 REVERT JUMPDEST PUSH2 0xF13 DUP5 DUP5 DUP5 DUP5 PUSH2 0x1E5D JUMP JUMPDEST POP POP POP POP JUMP JUMPDEST DUP4 TIMESTAMP GT ISZERO PUSH2 0xF5C JUMPI PUSH1 0x40 MLOAD PUSH32 0x8C379A000000000000000000000000000000000000000000000000000000000 DUP2 MSTORE PUSH1 0x4 ADD PUSH2 0xF53 SWAP1 PUSH2 0x4C47 JUMP JUMPDEST PUSH1 0x40 MLOAD DUP1 SWAP2 SUB SWAP1 REVERT JUMPDEST PUSH1 0x0 PUSH2 0xFBE PUSH2 0xFB6 PUSH32 0xE48329057BFD03D55E49B547132E39CFFD9C1820AD7B9D4C5307691425D15ADF DUP10 DUP10 DUP10 PUSH1 0x40 MLOAD PUSH1 0x20 ADD PUSH2 0xF9B SWAP5 SWAP4 SWAP3 SWAP2 SWAP1 PUSH2 0x4C67 JUMP JUMPDEST PUSH1 0x40 MLOAD PUSH1 0x20 DUP2 DUP4 SUB SUB DUP2 MSTORE SWAP1 PUSH1 0x40 MSTORE DUP1 MLOAD SWAP1 PUSH1 0x20 ADD KECCAK256 PUSH2 0x1EB9 JUMP JUMPDEST DUP6 DUP6 DUP6 PUSH2 0x1ED3 JUMP JUMPDEST SWAP1 POP PUSH2 0xFC9 DUP2 PUSH2 0x1EFE JUMP JUMPDEST DUP7 EQ PUSH2 0x100A JUMPI PUSH1 0x40 MLOAD PUSH32 0x8C379A000000000000000000000000000000000000000000000000000000000 DUP2 MSTORE PUSH1 0x4 ADD PUSH2 0x1001 SWAP1 PUSH2 0x4CF8 JUMP JUMPDEST PUSH1 0x40 MLOAD DUP1 SWAP2 SUB SWAP1 REVERT JUMPDEST PUSH2 0x1014 DUP2 DUP9 PUSH2 0x19FF JUMP JUMPDEST POP POP POP POP POP POP POP JUMP JUMPDEST PUSH1 0x60 PUSH2 0x1028 DUP3 PUSH2 0x1F5C JUMP JUMPDEST SWAP1 POP SWAP2 SWAP1 POP JUMP JUMPDEST PUSH2 0x1037 PUSH2 0x1912 JUMP JUMPDEST PUSH1 0x0 PUSH2 0x1043 PUSH1 0x10 PUSH2 0x1C16 JUMP JUMPDEST SWAP1 POP PUSH2 0x104F PUSH1 0x10 PUSH2 0x206E JUMP JUMPDEST PUSH2 0x1059 DUP4 DUP3 PUSH2 0x2084 JUMP JUMPDEST PUSH2 0x1063 DUP2 DUP4 PUSH2 0x20A2 JUMP JUMPDEST POP POP POP JUMP JUMPDEST PUSH1 0x0 PUSH1 0x5 PUSH1 0x0 DUP5 PUSH20 0xFFFFFFFFFFFFFFFFFFFFFFFFFFFFFFFFFFFFFFFF AND PUSH20 0xFFFFFFFFFFFFFFFFFFFFFFFFFFFFFFFFFFFFFFFF AND DUP2 MSTORE PUSH1 0x20 ADD SWAP1 DUP2 MSTORE PUSH1 0x20 ADD PUSH1 0x0 KECCAK256 PUSH1 0x0 DUP4 PUSH20 0xFFFFFFFFFFFFFFFFFFFFFFFFFFFFFFFFFFFFFFFF AND PUSH20 0xFFFFFFFFFFFFFFFFFFFFFFFFFFFFFFFFFFFFFFFF AND DUP2 MSTORE PUSH1 0x20 ADD SWAP1 DUP2 MSTORE PUSH1 0x20 ADD PUSH1 0x0 KECCAK256 PUSH1 0x0 SWAP1 SLOAD SWAP1 PUSH2 0x100 EXP SWAP1 DIV PUSH1 0xFF AND SWAP1 POP SWAP3 SWAP2 POP POP JUMP JUMPDEST PUSH2 0x1104 PUSH2 0x1912 JUMP JUMPDEST PUSH1 0x0 PUSH20 0xFFFFFFFFFFFFFFFFFFFFFFFFFFFFFFFFFFFFFFFF AND DUP2 PUSH20 0xFFFFFFFFFFFFFFFFFFFFFFFFFFFFFFFFFFFFFFFF AND SUB PUSH2 0x1173 JUMPI PUSH1 0x40 MLOAD PUSH32 0x8C379A000000000000000000000000000000000000000000000000000000000 DUP2 MSTORE PUSH1 0x4 ADD PUSH2 0x116A SWAP1 PUSH2 0x4D8A JUMP JUMPDEST PUSH1 0x40 MLOAD DUP1 SWAP2 SUB SWAP1 REVERT JUMPDEST PUSH2 0x117C DUP2 PUSH2 0x1B50 JUMP JUMPDEST POP JUMP JUMPDEST PUSH1 0x0 PUSH32 0x780E9D6300000000000000000000000000000000000000000000000000000000 PUSH28 0xFFFFFFFFFFFFFFFFFFFFFFFFFFFFFFFFFFFFFFFFFFFFFFFFFFFFFFFF NOT AND DUP3 PUSH28 0xFFFFFFFFFFFFFFFFFFFFFFFFFFFFFFFFFFFFFFFFFFFFFFFFFFFFFFFF NOT AND EQ DUP1 PUSH2 0x11F2 JUMPI POP PUSH2 0x11F1 DUP3 PUSH2 0x210F JUMP JUMPDEST JUMPDEST SWAP1 POP SWAP2 SWAP1 POP JUMP JUMPDEST PUSH2 0x1202 DUP2 PUSH2 0x21F1 JUMP JUMPDEST PUSH2 0x1241 JUMPI PUSH1 0x40 MLOAD PUSH32 0x8C379A000000000000000000000000000000000000000000000000000000000 DUP2 MSTORE PUSH1 0x4 ADD PUSH2 0x1238 SWAP1 PUSH2 0x4ADD JUMP JUMPDEST PUSH1 0x40 MLOAD DUP1 SWAP2 SUB SWAP1 REVERT JUMPDEST POP JUMP JUMPDEST PUSH1 0x0 CALLER SWAP1 POP SWAP1 JUMP JUMPDEST DUP2 PUSH1 0x4 PUSH1 0x0 DUP4 DUP2 MSTORE PUSH1 0x20 ADD SWAP1 DUP2 MSTORE PUSH1 0x20 ADD PUSH1 0x0 KECCAK256 PUSH1 0x0 PUSH2 0x100 EXP DUP2 SLOAD DUP2 PUSH20 0xFFFFFFFFFFFFFFFFFFFFFFFFFFFFFFFFFFFFFFFF MUL NOT AND SWAP1 DUP4 PUSH20 0xFFFFFFFFFFFFFFFFFFFFFFFFFFFFFFFFFFFFFFFF AND MUL OR SWAP1 SSTORE POP DUP1 DUP3 PUSH20 0xFFFFFFFFFFFFFFFFFFFFFFFFFFFFFFFFFFFFFFFF AND PUSH2 0x12BF DUP4 PUSH2 0xB65 JUMP JUMPDEST PUSH20 0xFFFFFFFFFFFFFFFFFFFFFFFFFFFFFFFFFFFFFFFF AND PUSH32 0x8C5BE1E5EBEC7D5BD14F71427D1E84F3DD0314C0F7B2291E5B200AC8C7C3B925 PUSH1 0x40 MLOAD PUSH1 0x40 MLOAD DUP1 SWAP2 SUB SWAP1 LOG4 POP POP JUMP JUMPDEST PUSH1 0x0 DUP1 PUSH2 0x1311 DUP4 PUSH2 0xB65 JUMP JUMPDEST SWAP1 POP DUP1 PUSH20 0xFFFFFFFFFFFFFFFFFFFFFFFFFFFFFFFFFFFFFFFF AND DUP5 PUSH20 0xFFFFFFFFFFFFFFFFFFFFFFFFFFFFFFFFFFFFFFFF AND EQ DUP1 PUSH2 0x1353 JUMPI POP PUSH2 0x1352 DUP2 DUP6 PUSH2 0x1068 JUMP JUMPDEST JUMPDEST DUP1 PUSH2 0x1391 JUMPI POP DUP4 PUSH20 0xFFFFFFFFFFFFFFFFFFFFFFFFFFFFFFFFFFFFFFFF AND PUSH2 0x1379 DUP5 PUSH2 0x6F3 JUMP JUMPDEST PUSH20 0xFFFFFFFFFFFFFFFFFFFFFFFFFFFFFFFFFFFFFFFF AND EQ JUMPDEST SWAP2 POP POP SWAP3 SWAP2 POP POP JUMP JUMPDEST DUP3 PUSH20 0xFFFFFFFFFFFFFFFFFFFFFFFFFFFFFFFFFFFFFFFF AND PUSH2 0x13BA DUP3 PUSH2 0xB65 JUMP JUMPDEST PUSH20 0xFFFFFFFFFFFFFFFFFFFFFFFFFFFFFFFFFFFFFFFF AND EQ PUSH2 0x1410 JUMPI PUSH1 0x40 MLOAD PUSH32 0x8C379A000000000000000000000000000000000000000000000000000000000 DUP2 MSTORE PUSH1 0x4 ADD PUSH2 0x1407 SWAP1 PUSH2 0x4E1C JUMP JUMPDEST PUSH1 0x40 MLOAD DUP1 SWAP2 SUB SWAP1 REVERT JUMPDEST PUSH1 0x0 PUSH20 0xFFFFFFFFFFFFFFFFFFFFFFFFFFFFFFFFFFFFFFFF AND DUP3 PUSH20 0xFFFFFFFFFFFFFFFFFFFFFFFFFFFFFFFFFFFFFFFF AND SUB PUSH2 0x147F JUMPI PUSH1 0x40 MLOAD PUSH32 0x8C379A000000000000000000000000000000000000000000000000000000000 DUP2 MSTORE PUSH1 0x4 ADD PUSH2 0x1476 SWAP1 PUSH2 0x4EAE JUMP JUMPDEST PUSH1 0x40 MLOAD DUP1 SWAP2 SUB SWAP1 REVERT JUMPDEST PUSH2 0x148C DUP4 DUP4 DUP4 PUSH1 0x1 PUSH2 0x2232 JUMP JUMPDEST DUP3 PUSH20 0xFFFFFFFFFFFFFFFFFFFFFFFFFFFFFFFFFFFFFFFF AND PUSH2 0x14AC DUP3 PUSH2 0xB65 JUMP JUMPDEST PUSH20 0xFFFFFFFFFFFFFFFFFFFFFFFFFFFFFFFFFFFFFFFF AND EQ PUSH2 0x1502 JUMPI PUSH1 0x40 MLOAD PUSH32 0x8C379A000000000000000000000000000000000000000000000000000000000 DUP2 MSTORE PUSH1 0x4 ADD PUSH2 0x14F9 SWAP1 PUSH2 0x4E1C JUMP JUMPDEST PUSH1 0x40 MLOAD DUP1 SWAP2 SUB SWAP1 REVERT JUMPDEST PUSH1 0x4 PUSH1 0x0 DUP3 DUP2 MSTORE PUSH1 0x20 ADD SWAP1 DUP2 MSTORE PUSH1 0x20 ADD PUSH1 0x0 KECCAK256 PUSH1 0x0 PUSH2 0x100 EXP DUP2 SLOAD SWAP1 PUSH20 0xFFFFFFFFFFFFFFFFFFFFFFFFFFFFFFFFFFFFFFFF MUL NOT AND SWAP1 SSTORE PUSH1 0x1 PUSH1 0x3 PUSH1 0x0 DUP6 PUSH20 0xFFFFFFFFFFFFFFFFFFFFFFFFFFFFFFFFFFFFFFFF AND PUSH20 0xFFFFFFFFFFFFFFFFFFFFFFFFFFFFFFFFFFFFFFFF AND DUP2 MSTORE PUSH1 0x20 ADD SWAP1 DUP2 MSTORE PUSH1 0x20 ADD PUSH1 0x0 KECCAK256 PUSH1 0x0 DUP3 DUP3 SLOAD SUB SWAP3 POP POP DUP2 SWAP1 SSTORE POP PUSH1 0x1 PUSH1 0x3 PUSH1 0x0 DUP5 PUSH20 0xFFFFFFFFFFFFFFFFFFFFFFFFFFFFFFFFFFFFFFFF AND PUSH20 0xFFFFFFFFFFFFFFFFFFFFFFFFFFFFFFFFFFFFFFFF AND DUP2 MSTORE PUSH1 0x20 ADD SWAP1 DUP2 MSTORE PUSH1 0x20 ADD PUSH1 0x0 KECCAK256 PUSH1 0x0 DUP3 DUP3 SLOAD ADD SWAP3 POP POP DUP2 SWAP1 SSTORE POP DUP2 PUSH1 0x2 PUSH1 0x0 DUP4 DUP2 MSTORE PUSH1 0x20 ADD SWAP1 DUP2 MSTORE PUSH1 0x20 ADD PUSH1 0x0 KECCAK256 PUSH1 0x0 PUSH2 0x100 EXP DUP2 SLOAD DUP2 PUSH20 0xFFFFFFFFFFFFFFFFFFFFFFFFFFFFFFFFFFFFFFFF MUL NOT AND SWAP1 DUP4 PUSH20 0xFFFFFFFFFFFFFFFFFFFFFFFFFFFFFFFFFFFFFFFF AND MUL OR SWAP1 SSTORE POP DUP1 DUP3 PUSH20 0xFFFFFFFFFFFFFFFFFFFFFFFFFFFFFFFFFFFFFFFF AND DUP5 PUSH20 0xFFFFFFFFFFFFFFFFFFFFFFFFFFFFFFFFFFFFFFFF AND PUSH32 0xDDF252AD1BE2C89B69C2B068FC378DAA952BA7F163C4A11628F55A4DF523B3EF PUSH1 0x40 MLOAD PUSH1 0x40 MLOAD DUP1 SWAP2 SUB SWAP1 LOG4 PUSH2 0x168E DUP4 DUP4 DUP4 PUSH1 0x1 PUSH2 0x224C JUMP JUMPDEST POP POP POP JUMP JUMPDEST PUSH1 0x0 PUSH32 0x0 PUSH20 0xFFFFFFFFFFFFFFFFFFFFFFFFFFFFFFFFFFFFFFFF AND ADDRESS PUSH20 0xFFFFFFFFFFFFFFFFFFFFFFFFFFFFFFFFFFFFFFFF AND EQ DUP1 ISZERO PUSH2 0x170F JUMPI POP PUSH32 0x0 CHAINID EQ JUMPDEST ISZERO PUSH2 0x173C JUMPI PUSH32 0x0 SWAP1 POP PUSH2 0x17AA JUMP JUMPDEST PUSH2 0x17A7 PUSH32 0x0 PUSH32 0x0 PUSH32 0x0 PUSH2 0x225E JUMP JUMPDEST SWAP1 POP JUMPDEST SWAP1 JUMP JUMPDEST PUSH1 0x0 NUMBER DUP3 LT PUSH2 0x17F1 JUMPI PUSH1 0x40 MLOAD PUSH32 0x8C379A000000000000000000000000000000000000000000000000000000000 DUP2 MSTORE PUSH1 0x4 ADD PUSH2 0x17E8 SWAP1 PUSH2 0x4F1A JUMP JUMPDEST PUSH1 0x40 MLOAD DUP1 SWAP2 SUB SWAP1 REVERT JUMPDEST PUSH1 0x0 PUSH2 0x17FC DUP4 PUSH2 0x2298 JUMP JUMPDEST SWAP1 POP PUSH1 0x0 DUP5 PUSH1 0x0 ADD DUP1 SLOAD SWAP1 POP SWAP1 POP PUSH1 0x0 DUP1 DUP3 SWAP1 POP PUSH1 0x5 DUP4 GT ISZERO PUSH2 0x187F JUMPI PUSH1 0x0 PUSH2 0x1824 DUP5 PUSH2 0x22EB JUMP JUMPDEST DUP5 PUSH2 0x182F SWAP2 SWAP1 PUSH2 0x4F69 JUMP JUMPDEST SWAP1 POP PUSH2 0x183E DUP9 PUSH1 0x0 ADD DUP3 PUSH2 0x23E4 JUMP JUMPDEST PUSH1 0x0 ADD PUSH1 0x0 SWAP1 SLOAD SWAP1 PUSH2 0x100 EXP SWAP1 DIV PUSH4 0xFFFFFFFF AND PUSH4 0xFFFFFFFF AND DUP6 PUSH4 0xFFFFFFFF AND LT ISZERO PUSH2 0x186D JUMPI DUP1 SWAP2 POP PUSH2 0x187D JUMP JUMPDEST PUSH1 0x1 DUP2 PUSH2 0x187A SWAP2 SWAP1 PUSH2 0x4F9D JUMP JUMPDEST SWAP3 POP JUMPDEST POP JUMPDEST PUSH1 0x0 PUSH2 0x1890 DUP9 PUSH1 0x0 ADD DUP7 DUP6 DUP6 PUSH2 0x23F9 JUMP JUMPDEST SWAP1 POP PUSH1 0x0 DUP2 EQ PUSH2 0x18E4 JUMPI PUSH2 0x18B3 DUP9 PUSH1 0x0 ADD PUSH1 0x1 DUP4 PUSH2 0x18AE SWAP2 SWAP1 PUSH2 0x4F69 JUMP JUMPDEST PUSH2 0x23E4 JUMP JUMPDEST PUSH1 0x0 ADD PUSH1 0x4 SWAP1 SLOAD SWAP1 PUSH2 0x100 EXP SWAP1 DIV PUSH28 0xFFFFFFFFFFFFFFFFFFFFFFFFFFFFFFFFFFFFFFFFFFFFFFFFFFFFFFFF AND PUSH2 0x18E7 JUMP JUMPDEST PUSH1 0x0 JUMPDEST PUSH28 0xFFFFFFFFFFFFFFFFFFFFFFFFFFFFFFFFFFFFFFFFFFFFFFFFFFFFFFFF AND SWAP6 POP POP POP POP POP POP SWAP3 SWAP2 POP POP JUMP JUMPDEST PUSH2 0x191A PUSH2 0x1244 JUMP JUMPDEST PUSH20 0xFFFFFFFFFFFFFFFFFFFFFFFFFFFFFFFFFFFFFFFF AND PUSH2 0x1938 PUSH2 0xD18 JUMP JUMPDEST PUSH20 0xFFFFFFFFFFFFFFFFFFFFFFFFFFFFFFFFFFFFFFFF AND EQ PUSH2 0x198E JUMPI PUSH1 0x40 MLOAD PUSH32 0x8C379A000000000000000000000000000000000000000000000000000000000 DUP2 MSTORE PUSH1 0x4 ADD PUSH2 0x1985 SWAP1 PUSH2 0x501D JUMP JUMPDEST PUSH1 0x40 MLOAD DUP1 SWAP2 SUB SWAP1 REVERT JUMPDEST JUMP JUMPDEST PUSH2 0x1998 PUSH2 0x246C JUMP JUMPDEST PUSH1 0x0 PUSH1 0xB PUSH1 0x0 PUSH2 0x100 EXP DUP2 SLOAD DUP2 PUSH1 0xFF MUL NOT AND SWAP1 DUP4 ISZERO ISZERO MUL OR SWAP1 SSTORE POP PUSH32 0x5DB9EE0A495BF2E6FF9C91A7834C1BA4FDD244A5E8AA4E537BD38AEAE4B073AA PUSH2 0x19DC PUSH2 0x1244 JUMP JUMPDEST PUSH1 0x40 MLOAD PUSH2 0x19E9 SWAP2 SWAP1 PUSH2 0x4170 JUMP JUMPDEST PUSH1 0x40 MLOAD DUP1 SWAP2 SUB SWAP1 LOG1 JUMP JUMPDEST PUSH2 0x19FC DUP2 PUSH2 0x24B5 JUMP JUMPDEST POP JUMP JUMPDEST PUSH1 0x0 PUSH2 0x1A0A DUP4 PUSH2 0xACB JUMP JUMPDEST SWAP1 POP DUP2 PUSH1 0xC PUSH1 0x0 DUP6 PUSH20 0xFFFFFFFFFFFFFFFFFFFFFFFFFFFFFFFFFFFFFFFF AND PUSH20 0xFFFFFFFFFFFFFFFFFFFFFFFFFFFFFFFFFFFFFFFF AND DUP2 MSTORE PUSH1 0x20 ADD SWAP1 DUP2 MSTORE PUSH1 0x20 ADD PUSH1 0x0 KECCAK256 PUSH1 0x0 PUSH2 0x100 EXP DUP2 SLOAD DUP2 PUSH20 0xFFFFFFFFFFFFFFFFFFFFFFFFFFFFFFFFFFFFFFFF MUL NOT AND SWAP1 DUP4 PUSH20 0xFFFFFFFFFFFFFFFFFFFFFFFFFFFFFFFFFFFFFFFF AND MUL OR SWAP1 SSTORE POP DUP2 PUSH20 0xFFFFFFFFFFFFFFFFFFFFFFFFFFFFFFFFFFFFFFFF AND DUP2 PUSH20 0xFFFFFFFFFFFFFFFFFFFFFFFFFFFFFFFFFFFFFFFF AND DUP5 PUSH20 0xFFFFFFFFFFFFFFFFFFFFFFFFFFFFFFFFFFFFFFFF AND PUSH32 0x3134E8A2E6D97E929A7E54011EA5485D7D196DD5F0BA4D4EF95803E8E3FC257F PUSH1 0x40 MLOAD PUSH1 0x40 MLOAD DUP1 SWAP2 SUB SWAP1 LOG4 PUSH2 0x1B0E DUP2 DUP4 PUSH2 0x1B09 DUP7 PUSH2 0x2508 JUMP JUMPDEST PUSH2 0x251A JUMP JUMPDEST POP POP POP JUMP JUMPDEST PUSH1 0x0 PUSH1 0x2 PUSH1 0x0 DUP4 DUP2 MSTORE PUSH1 0x20 ADD SWAP1 DUP2 MSTORE PUSH1 0x20 ADD PUSH1 0x0 KECCAK256 PUSH1 0x0 SWAP1 SLOAD SWAP1 PUSH2 0x100 EXP SWAP1 DIV PUSH20 0xFFFFFFFFFFFFFFFFFFFFFFFFFFFFFFFFFFFFFFFF AND SWAP1 POP SWAP2 SWAP1 POP JUMP JUMPDEST PUSH1 0x0 PUSH1 0xB PUSH1 0x1 SWAP1 SLOAD SWAP1 PUSH2 0x100 EXP SWAP1 DIV PUSH20 0xFFFFFFFFFFFFFFFFFFFFFFFFFFFFFFFFFFFFFFFF AND SWAP1 POP DUP2 PUSH1 0xB PUSH1 0x1 PUSH2 0x100 EXP DUP2 SLOAD DUP2 PUSH20 0xFFFFFFFFFFFFFFFFFFFFFFFFFFFFFFFFFFFFFFFF MUL NOT AND SWAP1 DUP4 PUSH20 0xFFFFFFFFFFFFFFFFFFFFFFFFFFFFFFFFFFFFFFFF AND MUL OR SWAP1 SSTORE POP DUP2 PUSH20 0xFFFFFFFFFFFFFFFFFFFFFFFFFFFFFFFFFFFFFFFF AND DUP2 PUSH20 0xFFFFFFFFFFFFFFFFFFFFFFFFFFFFFFFFFFFFFFFF AND PUSH32 0x8BE0079C531659141344CD1FD0A4F28419497F9722A3DAAFE3B4186F6B6457E0 PUSH1 0x40 MLOAD PUSH1 0x40 MLOAD DUP1 SWAP2 SUB SWAP1 LOG3 POP POP JUMP JUMPDEST PUSH1 0x0 DUP2 PUSH1 0x0 ADD SLOAD SWAP1 POP SWAP2 SWAP1 POP JUMP JUMPDEST PUSH2 0x1C2C PUSH2 0x2727 JUMP JUMPDEST PUSH1 0x1 PUSH1 0xB PUSH1 0x0 PUSH2 0x100 EXP DUP2 SLOAD DUP2 PUSH1 0xFF MUL NOT AND SWAP1 DUP4 ISZERO ISZERO MUL OR SWAP1 SSTORE POP PUSH32 0x62E78CEA01BEE320CD4E420270B5EA74000D11B0C9F74754EBDBFC544B05A258 PUSH2 0x1C70 PUSH2 0x1244 JUMP JUMPDEST PUSH1 0x40 MLOAD PUSH2 0x1C7D SWAP2 SWAP1 PUSH2 0x4170 JUMP JUMPDEST PUSH1 0x40 MLOAD DUP1 SWAP2 SUB SWAP1 LOG1 JUMP JUMPDEST PUSH1 0x0 DUP1 DUP3 PUSH1 0x0 ADD DUP1 SLOAD SWAP1 POP SWAP1 POP PUSH1 0x0 DUP2 EQ PUSH2 0x1CE6 JUMPI PUSH2 0x1CB5 DUP4 PUSH1 0x0 ADD PUSH1 0x1 DUP4 PUSH2 0x1CB0 SWAP2 SWAP1 PUSH2 0x4F69 JUMP JUMPDEST PUSH2 0x23E4 JUMP JUMPDEST PUSH1 0x0 ADD PUSH1 0x4 SWAP1 SLOAD SWAP1 PUSH2 0x100 EXP SWAP1 DIV PUSH28 0xFFFFFFFFFFFFFFFFFFFFFFFFFFFFFFFFFFFFFFFFFFFFFFFFFFFFFFFF AND PUSH2 0x1CE9 JUMP JUMPDEST PUSH1 0x0 JUMPDEST SWAP2 POP POP SWAP2 SWAP1 POP JUMP JUMPDEST DUP2 PUSH20 0xFFFFFFFFFFFFFFFFFFFFFFFFFFFFFFFFFFFFFFFF AND DUP4 PUSH20 0xFFFFFFFFFFFFFFFFFFFFFFFFFFFFFFFFFFFFFFFF AND SUB PUSH2 0x1D5F JUMPI PUSH1 0x40 MLOAD PUSH32 0x8C379A000000000000000000000000000000000000000000000000000000000 DUP2 MSTORE PUSH1 0x4 ADD PUSH2 0x1D56 SWAP1 PUSH2 0x5089 JUMP JUMPDEST PUSH1 0x40 MLOAD DUP1 SWAP2 SUB SWAP1 REVERT JUMPDEST DUP1 PUSH1 0x5 PUSH1 0x0 DUP6 PUSH20 0xFFFFFFFFFFFFFFFFFFFFFFFFFFFFFFFFFFFFFFFF AND PUSH20 0xFFFFFFFFFFFFFFFFFFFFFFFFFFFFFFFFFFFFFFFF AND DUP2 MSTORE PUSH1 0x20 ADD SWAP1 DUP2 MSTORE PUSH1 0x20 ADD PUSH1 0x0 KECCAK256 PUSH1 0x0 DUP5 PUSH20 0xFFFFFFFFFFFFFFFFFFFFFFFFFFFFFFFFFFFFFFFF AND PUSH20 0xFFFFFFFFFFFFFFFFFFFFFFFFFFFFFFFFFFFFFFFF AND DUP2 MSTORE PUSH1 0x20 ADD SWAP1 DUP2 MSTORE PUSH1 0x20 ADD PUSH1 0x0 KECCAK256 PUSH1 0x0 PUSH2 0x100 EXP DUP2 SLOAD DUP2 PUSH1 0xFF MUL NOT AND SWAP1 DUP4 ISZERO ISZERO MUL OR SWAP1 SSTORE POP DUP2 PUSH20 0xFFFFFFFFFFFFFFFFFFFFFFFFFFFFFFFFFFFFFFFF AND DUP4 PUSH20 0xFFFFFFFFFFFFFFFFFFFFFFFFFFFFFFFFFFFFFFFF AND PUSH32 0x17307EAB39AB6107E8899845AD3D59BD9653F200F220920489CA2B5937696C31 DUP4 PUSH1 0x40 MLOAD PUSH2 0x1E50 SWAP2 SWAP1 PUSH2 0x3FFF JUMP JUMPDEST PUSH1 0x40 MLOAD DUP1 SWAP2 SUB SWAP1 LOG3 POP POP POP JUMP JUMPDEST PUSH2 0x1E68 DUP5 DUP5 DUP5 PUSH2 0x139A JUMP JUMPDEST PUSH2 0x1E74 DUP5 DUP5 DUP5 DUP5 PUSH2 0x2771 JUMP JUMPDEST PUSH2 0x1EB3 JUMPI PUSH1 0x40 MLOAD PUSH32 0x8C379A000000000000000000000000000000000000000000000000000000000 DUP2 MSTORE PUSH1 0x4 ADD PUSH2 0x1EAA SWAP1 PUSH2 0x511B JUMP JUMPDEST PUSH1 0x40 MLOAD DUP1 SWAP2 SUB SWAP1 REVERT JUMPDEST POP POP POP POP JUMP JUMPDEST PUSH1 0x0 PUSH2 0x1ECC PUSH2 0x1EC6 PUSH2 0x1693 JUMP JUMPDEST DUP4 PUSH2 0x28F8 JUMP JUMPDEST SWAP1 POP SWAP2 SWAP1 POP JUMP JUMPDEST PUSH1 0x0 DUP1 PUSH1 0x0 PUSH2 0x1EE4 DUP8 DUP8 DUP8 DUP8 PUSH2 0x292B JUMP JUMPDEST SWAP2 POP SWAP2 POP PUSH2 0x1EF1 DUP2 PUSH2 0x2A0D JUMP JUMPDEST DUP2 SWAP3 POP POP POP SWAP5 SWAP4 POP POP POP POP JUMP JUMPDEST PUSH1 0x0 DUP1 PUSH1 0xF PUSH1 0x0 DUP5 PUSH20 0xFFFFFFFFFFFFFFFFFFFFFFFFFFFFFFFFFFFFFFFF AND PUSH20 0xFFFFFFFFFFFFFFFFFFFFFFFFFFFFFFFFFFFFFFFF AND DUP2 MSTORE PUSH1 0x20 ADD SWAP1 DUP2 MSTORE PUSH1 0x20 ADD PUSH1 0x0 KECCAK256 SWAP1 POP PUSH2 0x1F4B DUP2 PUSH2 0x1C16 JUMP JUMPDEST SWAP2 POP PUSH2 0x1F56 DUP2 PUSH2 0x206E JUMP JUMPDEST POP SWAP2 SWAP1 POP JUMP JUMPDEST PUSH1 0x60 PUSH2 0x1F67 DUP3 PUSH2 0x11F9 JUMP JUMPDEST PUSH1 0x0 PUSH1 0xA PUSH1 0x0 DUP5 DUP2 MSTORE PUSH1 0x20 ADD SWAP1 DUP2 MSTORE PUSH1 0x20 ADD PUSH1 0x0 KECCAK256 DUP1 SLOAD PUSH2 0x1F87 SWAP1 PUSH2 0x4757 JUMP JUMPDEST DUP1 PUSH1 0x1F ADD PUSH1 0x20 DUP1 SWAP2 DIV MUL PUSH1 0x20 ADD PUSH1 0x40 MLOAD SWAP1 DUP2 ADD PUSH1 0x40 MSTORE DUP1 SWAP3 SWAP2 SWAP1 DUP2 DUP2 MSTORE PUSH1 0x20 ADD DUP3 DUP1 SLOAD PUSH2 0x1FB3 SWAP1 PUSH2 0x4757 JUMP JUMPDEST DUP1 ISZERO PUSH2 0x2000 JUMPI DUP1 PUSH1 0x1F LT PUSH2 0x1FD5 JUMPI PUSH2 0x100 DUP1 DUP4 SLOAD DIV MUL DUP4 MSTORE SWAP2 PUSH1 0x20 ADD SWAP2 PUSH2 0x2000 JUMP JUMPDEST DUP3 ADD SWAP2 SWAP1 PUSH1 0x0 MSTORE PUSH1 0x20 PUSH1 0x0 KECCAK256 SWAP1 JUMPDEST DUP2 SLOAD DUP2 MSTORE SWAP1 PUSH1 0x1 ADD SWAP1 PUSH1 0x20 ADD DUP1 DUP4 GT PUSH2 0x1FE3 JUMPI DUP3 SWAP1 SUB PUSH1 0x1F AND DUP3 ADD SWAP2 JUMPDEST POP POP POP POP POP SWAP1 POP PUSH1 0x0 PUSH2 0x2011 PUSH2 0x2B73 JUMP JUMPDEST SWAP1 POP PUSH1 0x0 DUP2 MLOAD SUB PUSH2 0x2026 JUMPI DUP2 SWAP3 POP POP POP PUSH2 0x2069 JUMP JUMPDEST PUSH1 0x0 DUP3 MLOAD GT ISZERO PUSH2 0x205B JUMPI DUP1 DUP3 PUSH1 0x40 MLOAD PUSH1 0x20 ADD PUSH2 0x2043 SWAP3 SWAP2 SWAP1 PUSH2 0x5177 JUMP JUMPDEST PUSH1 0x40 MLOAD PUSH1 0x20 DUP2 DUP4 SUB SUB DUP2 MSTORE SWAP1 PUSH1 0x40 MSTORE SWAP3 POP POP POP PUSH2 0x2069 JUMP JUMPDEST PUSH2 0x2064 DUP5 PUSH2 0x2BB0 JUMP JUMPDEST SWAP3 POP POP POP JUMPDEST SWAP2 SWAP1 POP JUMP JUMPDEST PUSH1 0x1 DUP2 PUSH1 0x0 ADD PUSH1 0x0 DUP3 DUP3 SLOAD ADD SWAP3 POP POP DUP2 SWAP1 SSTORE POP POP JUMP JUMPDEST PUSH2 0x209E DUP3 DUP3 PUSH1 0x40 MLOAD DUP1 PUSH1 0x20 ADD PUSH1 0x40 MSTORE DUP1 PUSH1 0x0 DUP2 MSTORE POP PUSH2 0x2C18 JUMP JUMPDEST POP POP JUMP JUMPDEST PUSH2 0x20AB DUP3 PUSH2 0x21F1 JUMP JUMPDEST PUSH2 0x20EA JUMPI PUSH1 0x40 MLOAD PUSH32 0x8C379A000000000000000000000000000000000000000000000000000000000 DUP2 MSTORE PUSH1 0x4 ADD PUSH2 0x20E1 SWAP1 PUSH2 0x520D JUMP JUMPDEST PUSH1 0x40 MLOAD DUP1 SWAP2 SUB SWAP1 REVERT JUMPDEST DUP1 PUSH1 0xA PUSH1 0x0 DUP5 DUP2 MSTORE PUSH1 0x20 ADD SWAP1 DUP2 MSTORE PUSH1 0x20 ADD PUSH1 0x0 KECCAK256 SWAP1 DUP2 PUSH2 0x210A SWAP2 SWAP1 PUSH2 0x53D9 JUMP JUMPDEST POP POP POP JUMP JUMPDEST PUSH1 0x0 PUSH32 0x80AC58CD00000000000000000000000000000000000000000000000000000000 PUSH28 0xFFFFFFFFFFFFFFFFFFFFFFFFFFFFFFFFFFFFFFFFFFFFFFFFFFFFFFFF NOT AND DUP3 PUSH28 0xFFFFFFFFFFFFFFFFFFFFFFFFFFFFFFFFFFFFFFFFFFFFFFFFFFFFFFFF NOT AND EQ DUP1 PUSH2 0x21DA JUMPI POP PUSH32 0x5B5E139F00000000000000000000000000000000000000000000000000000000 PUSH28 0xFFFFFFFFFFFFFFFFFFFFFFFFFFFFFFFFFFFFFFFFFFFFFFFFFFFFFFFF NOT AND DUP3 PUSH28 0xFFFFFFFFFFFFFFFFFFFFFFFFFFFFFFFFFFFFFFFFFFFFFFFFFFFFFFFF NOT AND EQ JUMPDEST DUP1 PUSH2 0x21EA JUMPI POP PUSH2 0x21E9 DUP3 PUSH2 0x2C73 JUMP JUMPDEST JUMPDEST SWAP1 POP SWAP2 SWAP1 POP JUMP JUMPDEST PUSH1 0x0 DUP1 PUSH20 0xFFFFFFFFFFFFFFFFFFFFFFFFFFFFFFFFFFFFFFFF AND PUSH2 0x2213 DUP4 PUSH2 0x1B13 JUMP JUMPDEST PUSH20 0xFFFFFFFFFFFFFFFFFFFFFFFFFFFFFFFFFFFFFFFF AND EQ ISZERO SWAP1 POP SWAP2 SWAP1 POP JUMP JUMPDEST PUSH2 0x223A PUSH2 0x2727 JUMP JUMPDEST PUSH2 0x2246 DUP5 DUP5 DUP5 DUP5 PUSH2 0x2CDD JUMP JUMPDEST POP POP POP POP JUMP JUMPDEST PUSH2 0x2258 DUP5 DUP5 DUP5 DUP5 PUSH2 0x2E3B JUMP JUMPDEST POP POP POP POP JUMP JUMPDEST PUSH1 0x0 DUP4 DUP4 DUP4 CHAINID ADDRESS PUSH1 0x40 MLOAD PUSH1 0x20 ADD PUSH2 0x2279 SWAP6 SWAP5 SWAP4 SWAP3 SWAP2 SWAP1 PUSH2 0x54AB JUMP JUMPDEST PUSH1 0x40 MLOAD PUSH1 0x20 DUP2 DUP4 SUB SUB DUP2 MSTORE SWAP1 PUSH1 0x40 MSTORE DUP1 MLOAD SWAP1 PUSH1 0x20 ADD KECCAK256 SWAP1 POP SWAP4 SWAP3 POP POP POP JUMP JUMPDEST PUSH1 0x0 PUSH4 0xFFFFFFFF DUP1 AND DUP3 GT ISZERO PUSH2 0x22E3 JUMPI PUSH1 0x40 MLOAD PUSH32 0x8C379A000000000000000000000000000000000000000000000000000000000 DUP2 MSTORE PUSH1 0x4 ADD PUSH2 0x22DA SWAP1 PUSH2 0x5570 JUMP JUMPDEST PUSH1 0x40 MLOAD DUP1 SWAP2 SUB SWAP1 REVERT JUMPDEST DUP2 SWAP1 POP SWAP2 SWAP1 POP JUMP JUMPDEST PUSH1 0x0 DUP1 DUP3 SUB PUSH2 0x22FD JUMPI PUSH1 0x0 SWAP1 POP PUSH2 0x23DF JUMP JUMPDEST PUSH1 0x0 PUSH1 0x1 PUSH2 0x230A DUP5 PUSH2 0x2E58 JUMP JUMPDEST SWAP1 SHR PUSH1 0x1 SWAP1 SHL SWAP1 POP PUSH1 0x1 DUP2 DUP5 DUP2 PUSH2 0x2324 JUMPI PUSH2 0x2323 PUSH2 0x5590 JUMP JUMPDEST JUMPDEST DIV DUP3 ADD SWAP1 SHR SWAP1 POP PUSH1 0x1 DUP2 DUP5 DUP2 PUSH2 0x233D JUMPI PUSH2 0x233C PUSH2 0x5590 JUMP JUMPDEST JUMPDEST DIV DUP3 ADD SWAP1 SHR SWAP1 POP PUSH1 0x1 DUP2 DUP5 DUP2 PUSH2 0x2356 JUMPI PUSH2 0x2355 PUSH2 0x5590 JUMP JUMPDEST JUMPDEST DIV DUP3 ADD SWAP1 SHR SWAP1 POP PUSH1 0x1 DUP2 DUP5 DUP2 PUSH2 0x236F JUMPI PUSH2 0x236E PUSH2 0x5590 JUMP JUMPDEST JUMPDEST DIV DUP3 ADD SWAP1 SHR SWAP1 POP PUSH1 0x1 DUP2 DUP5 DUP2 PUSH2 0x2388 JUMPI PUSH2 0x2387 PUSH2 0x5590 JUMP JUMPDEST JUMPDEST DIV DUP3 ADD SWAP1 SHR SWAP1 POP PUSH1 0x1 DUP2 DUP5 DUP2 PUSH2 0x23A1 JUMPI PUSH2 0x23A0 PUSH2 0x5590 JUMP JUMPDEST JUMPDEST DIV DUP3 ADD SWAP1 SHR SWAP1 POP PUSH1 0x1 DUP2 DUP5 DUP2 PUSH2 0x23BA JUMPI PUSH2 0x23B9 PUSH2 0x5590 JUMP JUMPDEST JUMPDEST DIV DUP3 ADD SWAP1 SHR SWAP1 POP PUSH2 0x23DB DUP2 DUP3 DUP6 DUP2 PUSH2 0x23D5 JUMPI PUSH2 0x23D4 PUSH2 0x5590 JUMP JUMPDEST JUMPDEST DIV PUSH2 0x2F39 JUMP JUMPDEST SWAP2 POP POP JUMPDEST SWAP2 SWAP1 POP JUMP JUMPDEST PUSH1 0x0 DUP3 PUSH1 0x0 MSTORE DUP2 PUSH1 0x20 PUSH1 0x0 KECCAK256 ADD SWAP1 POP SWAP3 SWAP2 POP POP JUMP JUMPDEST PUSH1 0x0 JUMPDEST DUP2 DUP4 LT ISZERO PUSH2 0x2461 JUMPI PUSH1 0x0 PUSH2 0x2410 DUP5 DUP5 PUSH2 0x2F52 JUMP JUMPDEST SWAP1 POP DUP5 PUSH4 0xFFFFFFFF AND PUSH2 0x2423 DUP8 DUP4 PUSH2 0x23E4 JUMP JUMPDEST PUSH1 0x0 ADD PUSH1 0x0 SWAP1 SLOAD SWAP1 PUSH2 0x100 EXP SWAP1 DIV PUSH4 0xFFFFFFFF AND PUSH4 0xFFFFFFFF AND GT ISZERO PUSH2 0x244B JUMPI DUP1 SWAP3 POP PUSH2 0x245B JUMP JUMPDEST PUSH1 0x1 DUP2 PUSH2 0x2458 SWAP2 SWAP1 PUSH2 0x4F9D JUMP JUMPDEST SWAP4 POP JUMPDEST POP PUSH2 0x23FC JUMP JUMPDEST DUP2 SWAP1 POP SWAP5 SWAP4 POP POP POP POP JUMP JUMPDEST PUSH2 0x2474 PUSH2 0xB4E JUMP JUMPDEST PUSH2 0x24B3 JUMPI PUSH1 0x40 MLOAD PUSH32 0x8C379A000000000000000000000000000000000000000000000000000000000 DUP2 MSTORE PUSH1 0x4 ADD PUSH2 0x24AA SWAP1 PUSH2 0x560B JUMP JUMPDEST PUSH1 0x40 MLOAD DUP1 SWAP2 SUB SWAP1 REVERT JUMPDEST JUMP JUMPDEST PUSH2 0x24BE DUP2 PUSH2 0x2F78 JUMP JUMPDEST PUSH1 0x0 PUSH1 0xA PUSH1 0x0 DUP4 DUP2 MSTORE PUSH1 0x20 ADD SWAP1 DUP2 MSTORE PUSH1 0x20 ADD PUSH1 0x0 KECCAK256 DUP1 SLOAD PUSH2 0x24DE SWAP1 PUSH2 0x4757 JUMP JUMPDEST SWAP1 POP EQ PUSH2 0x2505 JUMPI PUSH1 0xA PUSH1 0x0 DUP3 DUP2 MSTORE PUSH1 0x20 ADD SWAP1 DUP2 MSTORE PUSH1 0x20 ADD PUSH1 0x0 KECCAK256 PUSH1 0x0 PUSH2 0x2504 SWAP2 SWAP1 PUSH2 0x3EEE JUMP JUMPDEST JUMPDEST POP JUMP JUMPDEST PUSH1 0x0 PUSH2 0x2513 DUP3 PUSH2 0xBEB JUMP JUMPDEST SWAP1 POP SWAP2 SWAP1 POP JUMP JUMPDEST DUP2 PUSH20 0xFFFFFFFFFFFFFFFFFFFFFFFFFFFFFFFFFFFFFFFF AND DUP4 PUSH20 0xFFFFFFFFFFFFFFFFFFFFFFFFFFFFFFFFFFFFFFFF AND EQ ISZERO DUP1 ISZERO PUSH2 0x2556 JUMPI POP PUSH1 0x0 DUP2 GT JUMPDEST ISZERO PUSH2 0x2722 JUMPI PUSH1 0x0 PUSH20 0xFFFFFFFFFFFFFFFFFFFFFFFFFFFFFFFFFFFFFFFF AND DUP4 PUSH20 0xFFFFFFFFFFFFFFFFFFFFFFFFFFFFFFFFFFFFFFFF AND EQ PUSH2 0x263E JUMPI PUSH1 0x0 DUP1 PUSH2 0x25E7 PUSH2 0x30C6 DUP5 PUSH1 0xD PUSH1 0x0 DUP10 PUSH20 0xFFFFFFFFFFFFFFFFFFFFFFFFFFFFFFFFFFFFFFFF AND PUSH20 0xFFFFFFFFFFFFFFFFFFFFFFFFFFFFFFFFFFFFFFFF AND DUP2 MSTORE PUSH1 0x20 ADD SWAP1 DUP2 MSTORE PUSH1 0x20 ADD PUSH1 0x0 KECCAK256 PUSH2 0x30DC SWAP1 SWAP3 SWAP2 SWAP1 PUSH4 0xFFFFFFFF AND JUMP JUMPDEST SWAP2 POP SWAP2 POP DUP5 PUSH20 0xFFFFFFFFFFFFFFFFFFFFFFFFFFFFFFFFFFFFFFFF AND PUSH32 0xDEC2BACDD2F05B59DE34DA9B523DFF8BE42E5E38E818C82FDB0BAE774387A724 DUP4 DUP4 PUSH1 0x40 MLOAD PUSH2 0x2633 SWAP3 SWAP2 SWAP1 PUSH2 0x562B JUMP JUMPDEST PUSH1 0x40 MLOAD DUP1 SWAP2 SUB SWAP1 LOG2 POP POP JUMPDEST PUSH1 0x0 PUSH20 0xFFFFFFFFFFFFFFFFFFFFFFFFFFFFFFFFFFFFFFFF AND DUP3 PUSH20 0xFFFFFFFFFFFFFFFFFFFFFFFFFFFFFFFFFFFFFFFF AND EQ PUSH2 0x2721 JUMPI PUSH1 0x0 DUP1 PUSH2 0x26CA PUSH2 0x3128 DUP5 PUSH1 0xD PUSH1 0x0 DUP9 PUSH20 0xFFFFFFFFFFFFFFFFFFFFFFFFFFFFFFFFFFFFFFFF AND PUSH20 0xFFFFFFFFFFFFFFFFFFFFFFFFFFFFFFFFFFFFFFFF AND DUP2 MSTORE PUSH1 0x20 ADD SWAP1 DUP2 MSTORE PUSH1 0x20 ADD PUSH1 0x0 KECCAK256 PUSH2 0x30DC SWAP1 SWAP3 SWAP2 SWAP1 PUSH4 0xFFFFFFFF AND JUMP JUMPDEST SWAP2 POP SWAP2 POP DUP4 PUSH20 0xFFFFFFFFFFFFFFFFFFFFFFFFFFFFFFFFFFFFFFFF AND PUSH32 0xDEC2BACDD2F05B59DE34DA9B523DFF8BE42E5E38E818C82FDB0BAE774387A724 DUP4 DUP4 PUSH1 0x40 MLOAD PUSH2 0x2716 SWAP3 SWAP2 SWAP1 PUSH2 0x562B JUMP JUMPDEST PUSH1 0x40 MLOAD DUP1 SWAP2 SUB SWAP1 LOG2 POP POP JUMPDEST JUMPDEST POP POP POP JUMP JUMPDEST PUSH2 0x272F PUSH2 0xB4E JUMP JUMPDEST ISZERO PUSH2 0x276F JUMPI PUSH1 0x40 MLOAD PUSH32 0x8C379A000000000000000000000000000000000000000000000000000000000 DUP2 MSTORE PUSH1 0x4 ADD PUSH2 0x2766 SWAP1 PUSH2 0x56A0 JUMP JUMPDEST PUSH1 0x40 MLOAD DUP1 SWAP2 SUB SWAP1 REVERT JUMPDEST JUMP JUMPDEST PUSH1 0x0 PUSH2 0x2792 DUP5 PUSH20 0xFFFFFFFFFFFFFFFFFFFFFFFFFFFFFFFFFFFFFFFF AND PUSH2 0x313E JUMP JUMPDEST ISZERO PUSH2 0x28EB JUMPI DUP4 PUSH20 0xFFFFFFFFFFFFFFFFFFFFFFFFFFFFFFFFFFFFFFFF AND PUSH4 0x150B7A02 PUSH2 0x27BB PUSH2 0x1244 JUMP JUMPDEST DUP8 DUP7 DUP7 PUSH1 0x40 MLOAD DUP6 PUSH4 0xFFFFFFFF AND PUSH1 0xE0 SHL DUP2 MSTORE PUSH1 0x4 ADD PUSH2 0x27DD SWAP5 SWAP4 SWAP3 SWAP2 SWAP1 PUSH2 0x5715 JUMP JUMPDEST PUSH1 0x20 PUSH1 0x40 MLOAD DUP1 DUP4 SUB DUP2 PUSH1 0x0 DUP8 GAS CALL SWAP3 POP POP POP DUP1 ISZERO PUSH2 0x2819 JUMPI POP PUSH1 0x40 MLOAD RETURNDATASIZE PUSH1 0x1F NOT PUSH1 0x1F DUP3 ADD AND DUP3 ADD DUP1 PUSH1 0x40 MSTORE POP DUP2 ADD SWAP1 PUSH2 0x2816 SWAP2 SWAP1 PUSH2 0x5776 JUMP JUMPDEST PUSH1 0x1 JUMPDEST PUSH2 0x289B JUMPI RETURNDATASIZE DUP1 PUSH1 0x0 DUP2 EQ PUSH2 0x2849 JUMPI PUSH1 0x40 MLOAD SWAP2 POP PUSH1 0x1F NOT PUSH1 0x3F RETURNDATASIZE ADD AND DUP3 ADD PUSH1 0x40 MSTORE RETURNDATASIZE DUP3 MSTORE RETURNDATASIZE PUSH1 0x0 PUSH1 0x20 DUP5 ADD RETURNDATACOPY PUSH2 0x284E JUMP JUMPDEST PUSH1 0x60 SWAP2 POP JUMPDEST POP PUSH1 0x0 DUP2 MLOAD SUB PUSH2 0x2893 JUMPI PUSH1 0x40 MLOAD PUSH32 0x8C379A000000000000000000000000000000000000000000000000000000000 DUP2 MSTORE PUSH1 0x4 ADD PUSH2 0x288A SWAP1 PUSH2 0x511B JUMP JUMPDEST PUSH1 0x40 MLOAD DUP1 SWAP2 SUB SWAP1 REVERT JUMPDEST DUP1 MLOAD DUP2 PUSH1 0x20 ADD REVERT JUMPDEST PUSH4 0x150B7A02 PUSH1 0xE0 SHL PUSH28 0xFFFFFFFFFFFFFFFFFFFFFFFFFFFFFFFFFFFFFFFFFFFFFFFFFFFFFFFF NOT AND DUP2 PUSH28 0xFFFFFFFFFFFFFFFFFFFFFFFFFFFFFFFFFFFFFFFFFFFFFFFFFFFFFFFF NOT AND EQ SWAP2 POP POP PUSH2 0x28F0 JUMP JUMPDEST PUSH1 0x1 SWAP1 POP JUMPDEST SWAP5 SWAP4 POP POP POP POP JUMP JUMPDEST PUSH1 0x0 DUP3 DUP3 PUSH1 0x40 MLOAD PUSH1 0x20 ADD PUSH2 0x290D SWAP3 SWAP2 SWAP1 PUSH2 0x5810 JUMP JUMPDEST PUSH1 0x40 MLOAD PUSH1 0x20 DUP2 DUP4 SUB SUB DUP2 MSTORE SWAP1 PUSH1 0x40 MSTORE DUP1 MLOAD SWAP1 PUSH1 0x20 ADD KECCAK256 SWAP1 POP SWAP3 SWAP2 POP POP JUMP JUMPDEST PUSH1 0x0 DUP1 PUSH32 0x7FFFFFFFFFFFFFFFFFFFFFFFFFFFFFFF5D576E7357A4501DDFE92F46681B20A0 DUP4 PUSH1 0x0 SHR GT ISZERO PUSH2 0x2966 JUMPI PUSH1 0x0 PUSH1 0x3 SWAP2 POP SWAP2 POP PUSH2 0x2A04 JUMP JUMPDEST PUSH1 0x0 PUSH1 0x1 DUP8 DUP8 DUP8 DUP8 PUSH1 0x40 MLOAD PUSH1 0x0 DUP2 MSTORE PUSH1 0x20 ADD PUSH1 0x40 MSTORE PUSH1 0x40 MLOAD PUSH2 0x298B SWAP5 SWAP4 SWAP3 SWAP2 SWAP1 PUSH2 0x5856 JUMP JUMPDEST PUSH1 0x20 PUSH1 0x40 MLOAD PUSH1 0x20 DUP2 SUB SWAP1 DUP1 DUP5 SUB SWAP1 DUP6 GAS STATICCALL ISZERO DUP1 ISZERO PUSH2 0x29AD JUMPI RETURNDATASIZE PUSH1 0x0 DUP1 RETURNDATACOPY RETURNDATASIZE PUSH1 0x0 REVERT JUMPDEST POP POP POP PUSH1 0x20 PUSH1 0x40 MLOAD SUB MLOAD SWAP1 POP PUSH1 0x0 PUSH20 0xFFFFFFFFFFFFFFFFFFFFFFFFFFFFFFFFFFFFFFFF AND DUP2 PUSH20 0xFFFFFFFFFFFFFFFFFFFFFFFFFFFFFFFFFFFFFFFF AND SUB PUSH2 0x29FB JUMPI PUSH1 0x0 PUSH1 0x1 SWAP3 POP SWAP3 POP POP PUSH2 0x2A04 JUMP JUMPDEST DUP1 PUSH1 0x0 SWAP3 POP SWAP3 POP POP JUMPDEST SWAP5 POP SWAP5 SWAP3 POP POP POP JUMP JUMPDEST PUSH1 0x0 PUSH1 0x4 DUP2 GT ISZERO PUSH2 0x2A21 JUMPI PUSH2 0x2A20 PUSH2 0x589B JUMP JUMPDEST JUMPDEST DUP2 PUSH1 0x4 DUP2 GT ISZERO PUSH2 0x2A34 JUMPI PUSH2 0x2A33 PUSH2 0x589B JUMP JUMPDEST JUMPDEST SUB ISZERO PUSH2 0x2B70 JUMPI PUSH1 0x1 PUSH1 0x4 DUP2 GT ISZERO PUSH2 0x2A4E JUMPI PUSH2 0x2A4D PUSH2 0x589B JUMP JUMPDEST JUMPDEST DUP2 PUSH1 0x4 DUP2 GT ISZERO PUSH2 0x2A61 JUMPI PUSH2 0x2A60 PUSH2 0x589B JUMP JUMPDEST JUMPDEST SUB PUSH2 0x2AA1 JUMPI PUSH1 0x40 MLOAD PUSH32 0x8C379A000000000000000000000000000000000000000000000000000000000 DUP2 MSTORE PUSH1 0x4 ADD PUSH2 0x2A98 SWAP1 PUSH2 0x5916 JUMP JUMPDEST PUSH1 0x40 MLOAD DUP1 SWAP2 SUB SWAP1 REVERT JUMPDEST PUSH1 0x2 PUSH1 0x4 DUP2 GT ISZERO PUSH2 0x2AB5 JUMPI PUSH2 0x2AB4 PUSH2 0x589B JUMP JUMPDEST JUMPDEST DUP2 PUSH1 0x4 DUP2 GT ISZERO PUSH2 0x2AC8 JUMPI PUSH2 0x2AC7 PUSH2 0x589B JUMP JUMPDEST JUMPDEST SUB PUSH2 0x2B08 JUMPI PUSH1 0x40 MLOAD PUSH32 0x8C379A000000000000000000000000000000000000000000000000000000000 DUP2 MSTORE PUSH1 0x4 ADD PUSH2 0x2AFF SWAP1 PUSH2 0x5982 JUMP JUMPDEST PUSH1 0x40 MLOAD DUP1 SWAP2 SUB SWAP1 REVERT JUMPDEST PUSH1 0x3 PUSH1 0x4 DUP2 GT ISZERO PUSH2 0x2B1C JUMPI PUSH2 0x2B1B PUSH2 0x589B JUMP JUMPDEST JUMPDEST DUP2 PUSH1 0x4 DUP2 GT ISZERO PUSH2 0x2B2F JUMPI PUSH2 0x2B2E PUSH2 0x589B JUMP JUMPDEST JUMPDEST SUB PUSH2 0x2B6F JUMPI PUSH1 0x40 MLOAD PUSH32 0x8C379A000000000000000000000000000000000000000000000000000000000 DUP2 MSTORE PUSH1 0x4 ADD PUSH2 0x2B66 SWAP1 PUSH2 0x5A14 JUMP JUMPDEST PUSH1 0x40 MLOAD DUP1 SWAP2 SUB SWAP1 REVERT JUMPDEST JUMPDEST POP JUMP JUMPDEST PUSH1 0x60 PUSH1 0x40 MLOAD DUP1 PUSH1 0x40 ADD PUSH1 0x40 MSTORE DUP1 PUSH1 0x10 DUP2 MSTORE PUSH1 0x20 ADD PUSH32 0x68747470733A2F2F697066732D54424400000000000000000000000000000000 DUP2 MSTORE POP SWAP1 POP SWAP1 JUMP JUMPDEST PUSH1 0x60 PUSH2 0x2BBB DUP3 PUSH2 0x11F9 JUMP JUMPDEST PUSH1 0x0 PUSH2 0x2BC5 PUSH2 0x2B73 JUMP JUMPDEST SWAP1 POP PUSH1 0x0 DUP2 MLOAD GT PUSH2 0x2BE5 JUMPI PUSH1 0x40 MLOAD DUP1 PUSH1 0x20 ADD PUSH1 0x40 MSTORE DUP1 PUSH1 0x0 DUP2 MSTORE POP PUSH2 0x2C10 JUMP JUMPDEST DUP1 PUSH2 0x2BEF DUP5 PUSH2 0x3161 JUMP JUMPDEST PUSH1 0x40 MLOAD PUSH1 0x20 ADD PUSH2 0x2C00 SWAP3 SWAP2 SWAP1 PUSH2 0x5177 JUMP JUMPDEST PUSH1 0x40 MLOAD PUSH1 0x20 DUP2 DUP4 SUB SUB DUP2 MSTORE SWAP1 PUSH1 0x40 MSTORE JUMPDEST SWAP2 POP POP SWAP2 SWAP1 POP JUMP JUMPDEST PUSH2 0x2C22 DUP4 DUP4 PUSH2 0x322F JUMP JUMPDEST PUSH2 0x2C2F PUSH1 0x0 DUP5 DUP5 DUP5 PUSH2 0x2771 JUMP JUMPDEST PUSH2 0x2C6E JUMPI PUSH1 0x40 MLOAD PUSH32 0x8C379A000000000000000000000000000000000000000000000000000000000 DUP2 MSTORE PUSH1 0x4 ADD PUSH2 0x2C65 SWAP1 PUSH2 0x511B JUMP JUMPDEST PUSH1 0x40 MLOAD DUP1 SWAP2 SUB SWAP1 REVERT JUMPDEST POP POP POP JUMP JUMPDEST PUSH1 0x0 PUSH32 0x1FFC9A700000000000000000000000000000000000000000000000000000000 PUSH28 0xFFFFFFFFFFFFFFFFFFFFFFFFFFFFFFFFFFFFFFFFFFFFFFFFFFFFFFFF NOT AND DUP3 PUSH28 0xFFFFFFFFFFFFFFFFFFFFFFFFFFFFFFFFFFFFFFFFFFFFFFFFFFFFFFFF NOT AND EQ SWAP1 POP SWAP2 SWAP1 POP JUMP JUMPDEST PUSH2 0x2CE9 DUP5 DUP5 DUP5 DUP5 PUSH2 0x344C JUMP JUMPDEST PUSH1 0x1 DUP2 GT ISZERO PUSH2 0x2D2D JUMPI PUSH1 0x40 MLOAD PUSH32 0x8C379A000000000000000000000000000000000000000000000000000000000 DUP2 MSTORE PUSH1 0x4 ADD PUSH2 0x2D24 SWAP1 PUSH2 0x5AA6 JUMP JUMPDEST PUSH1 0x40 MLOAD DUP1 SWAP2 SUB SWAP1 REVERT JUMPDEST PUSH1 0x0 DUP3 SWAP1 POP PUSH1 0x0 PUSH20 0xFFFFFFFFFFFFFFFFFFFFFFFFFFFFFFFFFFFFFFFF AND DUP6 PUSH20 0xFFFFFFFFFFFFFFFFFFFFFFFFFFFFFFFFFFFFFFFF AND SUB PUSH2 0x2D74 JUMPI PUSH2 0x2D6F DUP2 PUSH2 0x3572 JUMP JUMPDEST PUSH2 0x2DB3 JUMP JUMPDEST DUP4 PUSH20 0xFFFFFFFFFFFFFFFFFFFFFFFFFFFFFFFFFFFFFFFF AND DUP6 PUSH20 0xFFFFFFFFFFFFFFFFFFFFFFFFFFFFFFFFFFFFFFFF AND EQ PUSH2 0x2DB2 JUMPI PUSH2 0x2DB1 DUP6 DUP3 PUSH2 0x35BB JUMP JUMPDEST JUMPDEST JUMPDEST PUSH1 0x0 PUSH20 0xFFFFFFFFFFFFFFFFFFFFFFFFFFFFFFFFFFFFFFFF AND DUP5 PUSH20 0xFFFFFFFFFFFFFFFFFFFFFFFFFFFFFFFFFFFFFFFF AND SUB PUSH2 0x2DF5 JUMPI PUSH2 0x2DF0 DUP2 PUSH2 0x3728 JUMP JUMPDEST PUSH2 0x2E34 JUMP JUMPDEST DUP5 PUSH20 0xFFFFFFFFFFFFFFFFFFFFFFFFFFFFFFFFFFFFFFFF AND DUP5 PUSH20 0xFFFFFFFFFFFFFFFFFFFFFFFFFFFFFFFFFFFFFFFF AND EQ PUSH2 0x2E33 JUMPI PUSH2 0x2E32 DUP5 DUP3 PUSH2 0x37F9 JUMP JUMPDEST JUMPDEST JUMPDEST POP POP POP POP POP JUMP JUMPDEST PUSH2 0x2E46 DUP5 DUP5 DUP4 PUSH2 0x3878 JUMP JUMPDEST PUSH2 0x2E52 DUP5 DUP5 DUP5 DUP5 PUSH2 0x3936 JUMP JUMPDEST POP POP POP POP JUMP JUMPDEST PUSH1 0x0 DUP1 PUSH1 0x0 SWAP1 POP PUSH1 0x0 PUSH1 0x80 DUP5 SWAP1 SHR GT ISZERO PUSH2 0x2E7A JUMPI PUSH1 0x80 DUP4 SWAP1 SHR SWAP3 POP PUSH1 0x80 DUP2 ADD SWAP1 POP JUMPDEST PUSH1 0x0 PUSH1 0x40 DUP5 SWAP1 SHR GT ISZERO PUSH2 0x2E95 JUMPI PUSH1 0x40 DUP4 SWAP1 SHR SWAP3 POP PUSH1 0x40 DUP2 ADD SWAP1 POP JUMPDEST PUSH1 0x0 PUSH1 0x20 DUP5 SWAP1 SHR GT ISZERO PUSH2 0x2EB0 JUMPI PUSH1 0x20 DUP4 SWAP1 SHR SWAP3 POP PUSH1 0x20 DUP2 ADD SWAP1 POP JUMPDEST PUSH1 0x0 PUSH1 0x10 DUP5 SWAP1 SHR GT ISZERO PUSH2 0x2ECB JUMPI PUSH1 0x10 DUP4 SWAP1 SHR SWAP3 POP PUSH1 0x10 DUP2 ADD SWAP1 POP JUMPDEST PUSH1 0x0 PUSH1 0x8 DUP5 SWAP1 SHR GT ISZERO PUSH2 0x2EE6 JUMPI PUSH1 0x8 DUP4 SWAP1 SHR SWAP3 POP PUSH1 0x8 DUP2 ADD SWAP1 POP JUMPDEST PUSH1 0x0 PUSH1 0x4 DUP5 SWAP1 SHR GT ISZERO PUSH2 0x2F01 JUMPI PUSH1 0x4 DUP4 SWAP1 SHR SWAP3 POP PUSH1 0x4 DUP2 ADD SWAP1 POP JUMPDEST PUSH1 0x0 PUSH1 0x2 DUP5 SWAP1 SHR GT ISZERO PUSH2 0x2F1C JUMPI PUSH1 0x2 DUP4 SWAP1 SHR SWAP3 POP PUSH1 0x2 DUP2 ADD SWAP1 POP JUMPDEST PUSH1 0x0 PUSH1 0x1 DUP5 SWAP1 SHR GT ISZERO PUSH2 0x2F30 JUMPI PUSH1 0x1 DUP2 ADD SWAP1 POP JUMPDEST DUP1 SWAP2 POP POP SWAP2 SWAP1 POP JUMP JUMPDEST PUSH1 0x0 DUP2 DUP4 LT PUSH2 0x2F48 JUMPI DUP2 PUSH2 0x2F4A JUMP JUMPDEST DUP3 JUMPDEST SWAP1 POP SWAP3 SWAP2 POP POP JUMP JUMPDEST PUSH1 0x0 PUSH1 0x2 DUP3 DUP5 XOR PUSH2 0x2F63 SWAP2 SWAP1 PUSH2 0x5AC6 JUMP JUMPDEST DUP3 DUP5 AND PUSH2 0x2F70 SWAP2 SWAP1 PUSH2 0x4F9D JUMP JUMPDEST SWAP1 POP SWAP3 SWAP2 POP POP JUMP JUMPDEST PUSH1 0x0 PUSH2 0x2F83 DUP3 PUSH2 0xB65 JUMP JUMPDEST SWAP1 POP PUSH2 0x2F93 DUP2 PUSH1 0x0 DUP5 PUSH1 0x1 PUSH2 0x2232 JUMP JUMPDEST PUSH2 0x2F9C DUP3 PUSH2 0xB65 JUMP JUMPDEST SWAP1 POP PUSH1 0x4 PUSH1 0x0 DUP4 DUP2 MSTORE PUSH1 0x20 ADD SWAP1 DUP2 MSTORE PUSH1 0x20 ADD PUSH1 0x0 KECCAK256 PUSH1 0x0 PUSH2 0x100 EXP DUP2 SLOAD SWAP1 PUSH20 0xFFFFFFFFFFFFFFFFFFFFFFFFFFFFFFFFFFFFFFFF MUL NOT AND SWAP1 SSTORE PUSH1 0x1 PUSH1 0x3 PUSH1 0x0 DUP4 PUSH20 0xFFFFFFFFFFFFFFFFFFFFFFFFFFFFFFFFFFFFFFFF AND PUSH20 0xFFFFFFFFFFFFFFFFFFFFFFFFFFFFFFFFFFFFFFFF AND DUP2 MSTORE PUSH1 0x20 ADD SWAP1 DUP2 MSTORE PUSH1 0x20 ADD PUSH1 0x0 KECCAK256 PUSH1 0x0 DUP3 DUP3 SLOAD SUB SWAP3 POP POP DUP2 SWAP1 SSTORE POP PUSH1 0x2 PUSH1 0x0 DUP4 DUP2 MSTORE PUSH1 0x20 ADD SWAP1 DUP2 MSTORE PUSH1 0x20 ADD PUSH1 0x0 KECCAK256 PUSH1 0x0 PUSH2 0x100 EXP DUP2 SLOAD SWAP1 PUSH20 0xFFFFFFFFFFFFFFFFFFFFFFFFFFFFFFFFFFFFFFFF MUL NOT AND SWAP1 SSTORE DUP2 PUSH1 0x0 PUSH20 0xFFFFFFFFFFFFFFFFFFFFFFFFFFFFFFFFFFFFFFFF AND DUP3 PUSH20 0xFFFFFFFFFFFFFFFFFFFFFFFFFFFFFFFFFFFFFFFF AND PUSH32 0xDDF252AD1BE2C89B69C2B068FC378DAA952BA7F163C4A11628F55A4DF523B3EF PUSH1 0x40 MLOAD PUSH1 0x40 MLOAD DUP1 SWAP2 SUB SWAP1 LOG4 PUSH2 0x30C2 DUP2 PUSH1 0x0 DUP5 PUSH1 0x1 PUSH2 0x224C JUMP JUMPDEST POP POP JUMP JUMPDEST PUSH1 0x0 DUP2 DUP4 PUSH2 0x30D4 SWAP2 SWAP1 PUSH2 0x4F69 JUMP JUMPDEST SWAP1 POP SWAP3 SWAP2 POP POP JUMP JUMPDEST PUSH1 0x0 DUP1 PUSH2 0x311C DUP6 PUSH2 0x3117 PUSH2 0x30EF DUP9 PUSH2 0x1C87 JUMP JUMPDEST PUSH28 0xFFFFFFFFFFFFFFFFFFFFFFFFFFFFFFFFFFFFFFFFFFFFFFFFFFFFFFFF AND DUP7 DUP9 PUSH4 0xFFFFFFFF AND JUMP JUMPDEST PUSH2 0x393C JUMP JUMPDEST SWAP2 POP SWAP2 POP SWAP4 POP SWAP4 SWAP2 POP POP JUMP JUMPDEST PUSH1 0x0 DUP2 DUP4 PUSH2 0x3136 SWAP2 SWAP1 PUSH2 0x4F9D JUMP JUMPDEST SWAP1 POP SWAP3 SWAP2 POP POP JUMP JUMPDEST PUSH1 0x0 DUP1 DUP3 PUSH20 0xFFFFFFFFFFFFFFFFFFFFFFFFFFFFFFFFFFFFFFFF AND EXTCODESIZE GT SWAP1 POP SWAP2 SWAP1 POP JUMP JUMPDEST PUSH1 0x60 PUSH1 0x0 PUSH1 0x1 PUSH2 0x3170 DUP5 PUSH2 0x39AA JUMP JUMPDEST ADD SWAP1 POP PUSH1 0x0 DUP2 PUSH8 0xFFFFFFFFFFFFFFFF DUP2 GT ISZERO PUSH2 0x318F JUMPI PUSH2 0x318E PUSH2 0x434B JUMP JUMPDEST JUMPDEST PUSH1 0x40 MLOAD SWAP1 DUP1 DUP3 MSTORE DUP1 PUSH1 0x1F ADD PUSH1 0x1F NOT AND PUSH1 0x20 ADD DUP3 ADD PUSH1 0x40 MSTORE DUP1 ISZERO PUSH2 0x31C1 JUMPI DUP2 PUSH1 0x20 ADD PUSH1 0x1 DUP3 MUL DUP1 CALLDATASIZE DUP4 CALLDATACOPY DUP1 DUP3 ADD SWAP2 POP POP SWAP1 POP JUMPDEST POP SWAP1 POP PUSH1 0x0 DUP3 PUSH1 0x20 ADD DUP3 ADD SWAP1 POP JUMPDEST PUSH1 0x1 ISZERO PUSH2 0x3224 JUMPI DUP1 DUP1 PUSH1 0x1 SWAP1 SUB SWAP2 POP POP PUSH32 0x3031323334353637383961626364656600000000000000000000000000000000 PUSH1 0xA DUP7 MOD BYTE DUP2 MSTORE8 PUSH1 0xA DUP6 DUP2 PUSH2 0x3218 JUMPI PUSH2 0x3217 PUSH2 0x5590 JUMP JUMPDEST JUMPDEST DIV SWAP5 POP PUSH1 0x0 DUP6 SUB PUSH2 0x31CF JUMPI JUMPDEST DUP2 SWAP4 POP POP POP POP SWAP2 SWAP1 POP JUMP JUMPDEST PUSH1 0x0 PUSH20 0xFFFFFFFFFFFFFFFFFFFFFFFFFFFFFFFFFFFFFFFF AND DUP3 PUSH20 0xFFFFFFFFFFFFFFFFFFFFFFFFFFFFFFFFFFFFFFFF AND SUB PUSH2 0x329E JUMPI PUSH1 0x40 MLOAD PUSH32 0x8C379A000000000000000000000000000000000000000000000000000000000 DUP2 MSTORE PUSH1 0x4 ADD PUSH2 0x3295 SWAP1 PUSH2 0x5B43 JUMP JUMPDEST PUSH1 0x40 MLOAD DUP1 SWAP2 SUB SWAP1 REVERT JUMPDEST PUSH2 0x32A7 DUP2 PUSH2 0x21F1 JUMP JUMPDEST ISZERO PUSH2 0x32E7 JUMPI PUSH1 0x40 MLOAD PUSH32 0x8C379A000000000000000000000000000000000000000000000000000000000 DUP2 MSTORE PUSH1 0x4 ADD PUSH2 0x32DE SWAP1 PUSH2 0x5BAF JUMP JUMPDEST PUSH1 0x40 MLOAD DUP1 SWAP2 SUB SWAP1 REVERT JUMPDEST PUSH2 0x32F5 PUSH1 0x0 DUP4 DUP4 PUSH1 0x1 PUSH2 0x2232 JUMP JUMPDEST PUSH2 0x32FE DUP2 PUSH2 0x21F1 JUMP JUMPDEST ISZERO PUSH2 0x333E JUMPI PUSH1 0x40 MLOAD PUSH32 0x8C379A000000000000000000000000000000000000000000000000000000000 DUP2 MSTORE PUSH1 0x4 ADD PUSH2 0x3335 SWAP1 PUSH2 0x5BAF JUMP JUMPDEST PUSH1 0x40 MLOAD DUP1 SWAP2 SUB SWAP1 REVERT JUMPDEST PUSH1 0x1 PUSH1 0x3 PUSH1 0x0 DUP5 PUSH20 0xFFFFFFFFFFFFFFFFFFFFFFFFFFFFFFFFFFFFFFFF AND PUSH20 0xFFFFFFFFFFFFFFFFFFFFFFFFFFFFFFFFFFFFFFFF AND DUP2 MSTORE PUSH1 0x20 ADD SWAP1 DUP2 MSTORE PUSH1 0x20 ADD PUSH1 0x0 KECCAK256 PUSH1 0x0 DUP3 DUP3 SLOAD ADD SWAP3 POP POP DUP2 SWAP1 SSTORE POP DUP2 PUSH1 0x2 PUSH1 0x0 DUP4 DUP2 MSTORE PUSH1 0x20 ADD SWAP1 DUP2 MSTORE PUSH1 0x20 ADD PUSH1 0x0 KECCAK256 PUSH1 0x0 PUSH2 0x100 EXP DUP2 SLOAD DUP2 PUSH20 0xFFFFFFFFFFFFFFFFFFFFFFFFFFFFFFFFFFFFFFFF MUL NOT AND SWAP1 DUP4 PUSH20 0xFFFFFFFFFFFFFFFFFFFFFFFFFFFFFFFFFFFFFFFF AND MUL OR SWAP1 SSTORE POP DUP1 DUP3 PUSH20 0xFFFFFFFFFFFFFFFFFFFFFFFFFFFFFFFFFFFFFFFF AND PUSH1 0x0 PUSH20 0xFFFFFFFFFFFFFFFFFFFFFFFFFFFFFFFFFFFFFFFF AND PUSH32 0xDDF252AD1BE2C89B69C2B068FC378DAA952BA7F163C4A11628F55A4DF523B3EF PUSH1 0x40 MLOAD PUSH1 0x40 MLOAD DUP1 SWAP2 SUB SWAP1 LOG4 PUSH2 0x3448 PUSH1 0x0 DUP4 DUP4 PUSH1 0x1 PUSH2 0x224C JUMP JUMPDEST POP POP JUMP JUMPDEST PUSH1 0x1 DUP2 GT ISZERO PUSH2 0x356C JUMPI PUSH1 0x0 PUSH20 0xFFFFFFFFFFFFFFFFFFFFFFFFFFFFFFFFFFFFFFFF AND DUP5 PUSH20 0xFFFFFFFFFFFFFFFFFFFFFFFFFFFFFFFFFFFFFFFF AND EQ PUSH2 0x34E0 JUMPI DUP1 PUSH1 0x3 PUSH1 0x0 DUP7 PUSH20 0xFFFFFFFFFFFFFFFFFFFFFFFFFFFFFFFFFFFFFFFF AND PUSH20 0xFFFFFFFFFFFFFFFFFFFFFFFFFFFFFFFFFFFFFFFF AND DUP2 MSTORE PUSH1 0x20 ADD SWAP1 DUP2 MSTORE PUSH1 0x20 ADD PUSH1 0x0 KECCAK256 PUSH1 0x0 DUP3 DUP3 SLOAD PUSH2 0x34D8 SWAP2 SWAP1 PUSH2 0x4F69 JUMP JUMPDEST SWAP3 POP POP DUP2 SWAP1 SSTORE POP JUMPDEST PUSH1 0x0 PUSH20 0xFFFFFFFFFFFFFFFFFFFFFFFFFFFFFFFFFFFFFFFF AND DUP4 PUSH20 0xFFFFFFFFFFFFFFFFFFFFFFFFFFFFFFFFFFFFFFFF AND EQ PUSH2 0x356B JUMPI DUP1 PUSH1 0x3 PUSH1 0x0 DUP6 PUSH20 0xFFFFFFFFFFFFFFFFFFFFFFFFFFFFFFFFFFFFFFFF AND PUSH20 0xFFFFFFFFFFFFFFFFFFFFFFFFFFFFFFFFFFFFFFFF AND DUP2 MSTORE PUSH1 0x20 ADD SWAP1 DUP2 MSTORE PUSH1 0x20 ADD PUSH1 0x0 KECCAK256 PUSH1 0x0 DUP3 DUP3 SLOAD PUSH2 0x3563 SWAP2 SWAP1 PUSH2 0x4F9D JUMP JUMPDEST SWAP3 POP POP DUP2 SWAP1 SSTORE POP JUMPDEST JUMPDEST POP POP POP POP JUMP JUMPDEST PUSH1 0x8 DUP1 SLOAD SWAP1 POP PUSH1 0x9 PUSH1 0x0 DUP4 DUP2 MSTORE PUSH1 0x20 ADD SWAP1 DUP2 MSTORE PUSH1 0x20 ADD PUSH1 0x0 KECCAK256 DUP2 SWAP1 SSTORE POP PUSH1 0x8 DUP2 SWAP1 DUP1 PUSH1 0x1 DUP2 SLOAD ADD DUP1 DUP3 SSTORE DUP1 SWAP2 POP POP PUSH1 0x1 SWAP1 SUB SWAP1 PUSH1 0x0 MSTORE PUSH1 0x20 PUSH1 0x0 KECCAK256 ADD PUSH1 0x0 SWAP1 SWAP2 SWAP1 SWAP2 SWAP1 SWAP2 POP SSTORE POP JUMP JUMPDEST PUSH1 0x0 PUSH1 0x1 PUSH2 0x35C8 DUP5 PUSH2 0xBEB JUMP JUMPDEST PUSH2 0x35D2 SWAP2 SWAP1 PUSH2 0x4F69 JUMP JUMPDEST SWAP1 POP PUSH1 0x0 PUSH1 0x7 PUSH1 0x0 DUP5 DUP2 MSTORE PUSH1 0x20 ADD SWAP1 DUP2 MSTORE PUSH1 0x20 ADD PUSH1 0x0 KECCAK256 SLOAD SWAP1 POP DUP2 DUP2 EQ PUSH2 0x36B7 JUMPI PUSH1 0x0 PUSH1 0x6 PUSH1 0x0 DUP7 PUSH20 0xFFFFFFFFFFFFFFFFFFFFFFFFFFFFFFFFFFFFFFFF AND PUSH20 0xFFFFFFFFFFFFFFFFFFFFFFFFFFFFFFFFFFFFFFFF AND DUP2 MSTORE PUSH1 0x20 ADD SWAP1 DUP2 MSTORE PUSH1 0x20 ADD PUSH1 0x0 KECCAK256 PUSH1 0x0 DUP5 DUP2 MSTORE PUSH1 0x20 ADD SWAP1 DUP2 MSTORE PUSH1 0x20 ADD PUSH1 0x0 KECCAK256 SLOAD SWAP1 POP DUP1 PUSH1 0x6 PUSH1 0x0 DUP8 PUSH20 0xFFFFFFFFFFFFFFFFFFFFFFFFFFFFFFFFFFFFFFFF AND PUSH20 0xFFFFFFFFFFFFFFFFFFFFFFFFFFFFFFFFFFFFFFFF AND DUP2 MSTORE PUSH1 0x20 ADD SWAP1 DUP2 MSTORE PUSH1 0x20 ADD PUSH1 0x0 KECCAK256 PUSH1 0x0 DUP5 DUP2 MSTORE PUSH1 0x20 ADD SWAP1 DUP2 MSTORE PUSH1 0x20 ADD PUSH1 0x0 KECCAK256 DUP2 SWAP1 SSTORE POP DUP2 PUSH1 0x7 PUSH1 0x0 DUP4 DUP2 MSTORE PUSH1 0x20 ADD SWAP1 DUP2 MSTORE PUSH1 0x20 ADD PUSH1 0x0 KECCAK256 DUP2 SWAP1 SSTORE POP POP JUMPDEST PUSH1 0x7 PUSH1 0x0 DUP5 DUP2 MSTORE PUSH1 0x20 ADD SWAP1 DUP2 MSTORE PUSH1 0x20 ADD PUSH1 0x0 KECCAK256 PUSH1 0x0 SWAP1 SSTORE PUSH1 0x6 PUSH1 0x0 DUP6 PUSH20 0xFFFFFFFFFFFFFFFFFFFFFFFFFFFFFFFFFFFFFFFF AND PUSH20 0xFFFFFFFFFFFFFFFFFFFFFFFFFFFFFFFFFFFFFFFF AND DUP2 MSTORE PUSH1 0x20 ADD SWAP1 DUP2 MSTORE PUSH1 0x20 ADD PUSH1 0x0 KECCAK256 PUSH1 0x0 DUP4 DUP2 MSTORE PUSH1 0x20 ADD SWAP1 DUP2 MSTORE PUSH1 0x20 ADD PUSH1 0x0 KECCAK256 PUSH1 0x0 SWAP1 SSTORE POP POP POP POP JUMP JUMPDEST PUSH1 0x0 PUSH1 0x1 PUSH1 0x8 DUP1 SLOAD SWAP1 POP PUSH2 0x373C SWAP2 SWAP1 PUSH2 0x4F69 JUMP JUMPDEST SWAP1 POP PUSH1 0x0 PUSH1 0x9 PUSH1 0x0 DUP5 DUP2 MSTORE PUSH1 0x20 ADD SWAP1 DUP2 MSTORE PUSH1 0x20 ADD PUSH1 0x0 KECCAK256 SLOAD SWAP1 POP PUSH1 0x0 PUSH1 0x8 DUP4 DUP2 SLOAD DUP2 LT PUSH2 0x376C JUMPI PUSH2 0x376B PUSH2 0x4A62 JUMP JUMPDEST JUMPDEST SWAP1 PUSH1 0x0 MSTORE PUSH1 0x20 PUSH1 0x0 KECCAK256 ADD SLOAD SWAP1 POP DUP1 PUSH1 0x8 DUP4 DUP2 SLOAD DUP2 LT PUSH2 0x378E JUMPI PUSH2 0x378D PUSH2 0x4A62 JUMP JUMPDEST JUMPDEST SWAP1 PUSH1 0x0 MSTORE PUSH1 0x20 PUSH1 0x0 KECCAK256 ADD DUP2 SWAP1 SSTORE POP DUP2 PUSH1 0x9 PUSH1 0x0 DUP4 DUP2 MSTORE PUSH1 0x20 ADD SWAP1 DUP2 MSTORE PUSH1 0x20 ADD PUSH1 0x0 KECCAK256 DUP2 SWAP1 SSTORE POP PUSH1 0x9 PUSH1 0x0 DUP6 DUP2 MSTORE PUSH1 0x20 ADD SWAP1 DUP2 MSTORE PUSH1 0x20 ADD PUSH1 0x0 KECCAK256 PUSH1 0x0 SWAP1 SSTORE PUSH1 0x8 DUP1 SLOAD DUP1 PUSH2 0x37DD JUMPI PUSH2 0x37DC PUSH2 0x5BCF JUMP JUMPDEST JUMPDEST PUSH1 0x1 SWAP1 SUB DUP2 DUP2 SWAP1 PUSH1 0x0 MSTORE PUSH1 0x20 PUSH1 0x0 KECCAK256 ADD PUSH1 0x0 SWAP1 SSTORE SWAP1 SSTORE POP POP POP POP JUMP JUMPDEST PUSH1 0x0 PUSH2 0x3804 DUP4 PUSH2 0xBEB JUMP JUMPDEST SWAP1 POP DUP2 PUSH1 0x6 PUSH1 0x0 DUP6 PUSH20 0xFFFFFFFFFFFFFFFFFFFFFFFFFFFFFFFFFFFFFFFF AND PUSH20 0xFFFFFFFFFFFFFFFFFFFFFFFFFFFFFFFFFFFFFFFF AND DUP2 MSTORE PUSH1 0x20 ADD SWAP1 DUP2 MSTORE PUSH1 0x20 ADD PUSH1 0x0 KECCAK256 PUSH1 0x0 DUP4 DUP2 MSTORE PUSH1 0x20 ADD SWAP1 DUP2 MSTORE PUSH1 0x20 ADD PUSH1 0x0 KECCAK256 DUP2 SWAP1 SSTORE POP DUP1 PUSH1 0x7 PUSH1 0x0 DUP5 DUP2 MSTORE PUSH1 0x20 ADD SWAP1 DUP2 MSTORE PUSH1 0x20 ADD PUSH1 0x0 KECCAK256 DUP2 SWAP1 SSTORE POP POP POP POP JUMP JUMPDEST PUSH1 0x0 PUSH20 0xFFFFFFFFFFFFFFFFFFFFFFFFFFFFFFFFFFFFFFFF AND DUP4 PUSH20 0xFFFFFFFFFFFFFFFFFFFFFFFFFFFFFFFFFFFFFFFF AND SUB PUSH2 0x38C7 JUMPI PUSH2 0x38C4 PUSH2 0x3128 DUP3 PUSH1 0xE PUSH2 0x30DC SWAP1 SWAP3 SWAP2 SWAP1 PUSH4 0xFFFFFFFF AND JUMP JUMPDEST POP POP JUMPDEST PUSH1 0x0 PUSH20 0xFFFFFFFFFFFFFFFFFFFFFFFFFFFFFFFFFFFFFFFF AND DUP3 PUSH20 0xFFFFFFFFFFFFFFFFFFFFFFFFFFFFFFFFFFFFFFFF AND SUB PUSH2 0x3916 JUMPI PUSH2 0x3913 PUSH2 0x30C6 DUP3 PUSH1 0xE PUSH2 0x30DC SWAP1 SWAP3 SWAP2 SWAP1 PUSH4 0xFFFFFFFF AND JUMP JUMPDEST POP POP JUMPDEST PUSH2 0x3931 PUSH2 0x3922 DUP5 PUSH2 0xACB JUMP JUMPDEST PUSH2 0x392B DUP5 PUSH2 0xACB JUMP JUMPDEST DUP4 PUSH2 0x251A JUMP JUMPDEST POP POP POP JUMP JUMPDEST POP POP POP POP JUMP JUMPDEST PUSH1 0x0 DUP1 PUSH2 0x395D DUP5 PUSH1 0x0 ADD PUSH2 0x394F NUMBER PUSH2 0x2298 JUMP JUMPDEST PUSH2 0x3958 DUP7 PUSH2 0x3AFD JUMP JUMPDEST PUSH2 0x3B68 JUMP JUMPDEST DUP2 PUSH28 0xFFFFFFFFFFFFFFFFFFFFFFFFFFFFFFFFFFFFFFFFFFFFFFFFFFFFFFFF AND SWAP2 POP DUP1 PUSH28 0xFFFFFFFFFFFFFFFFFFFFFFFFFFFFFFFFFFFFFFFFFFFFFFFFFFFFFFFF AND SWAP1 POP SWAP2 POP SWAP2 POP SWAP3 POP SWAP3 SWAP1 POP JUMP JUMPDEST PUSH1 0x0 DUP1 PUSH1 0x0 SWAP1 POP PUSH27 0x184F03E93FF9F4DAA797ED6E38ED64BF6A1F010000000000000000 DUP4 LT PUSH2 0x3A08 JUMPI PUSH27 0x184F03E93FF9F4DAA797ED6E38ED64BF6A1F010000000000000000 DUP4 DUP2 PUSH2 0x39FE JUMPI PUSH2 0x39FD PUSH2 0x5590 JUMP JUMPDEST JUMPDEST DIV SWAP3 POP PUSH1 0x40 DUP2 ADD SWAP1 POP JUMPDEST PUSH14 0x4EE2D6D415B85ACEF8100000000 DUP4 LT PUSH2 0x3A45 JUMPI PUSH14 0x4EE2D6D415B85ACEF8100000000 DUP4 DUP2 PUSH2 0x3A3B JUMPI PUSH2 0x3A3A PUSH2 0x5590 JUMP JUMPDEST JUMPDEST DIV SWAP3 POP PUSH1 0x20 DUP2 ADD SWAP1 POP JUMPDEST PUSH7 0x2386F26FC10000 DUP4 LT PUSH2 0x3A74 JUMPI PUSH7 0x2386F26FC10000 DUP4 DUP2 PUSH2 0x3A6A JUMPI PUSH2 0x3A69 PUSH2 0x5590 JUMP JUMPDEST JUMPDEST DIV SWAP3 POP PUSH1 0x10 DUP2 ADD SWAP1 POP JUMPDEST PUSH4 0x5F5E100 DUP4 LT PUSH2 0x3A9D JUMPI PUSH4 0x5F5E100 DUP4 DUP2 PUSH2 0x3A93 JUMPI PUSH2 0x3A92 PUSH2 0x5590 JUMP JUMPDEST JUMPDEST DIV SWAP3 POP PUSH1 0x8 DUP2 ADD SWAP1 POP JUMPDEST PUSH2 0x2710 DUP4 LT PUSH2 0x3AC2 JUMPI PUSH2 0x2710 DUP4 DUP2 PUSH2 0x3AB8 JUMPI PUSH2 0x3AB7 PUSH2 0x5590 JUMP JUMPDEST JUMPDEST DIV SWAP3 POP PUSH1 0x4 DUP2 ADD SWAP1 POP JUMPDEST PUSH1 0x64 DUP4 LT PUSH2 0x3AE5 JUMPI PUSH1 0x64 DUP4 DUP2 PUSH2 0x3ADB JUMPI PUSH2 0x3ADA PUSH2 0x5590 JUMP JUMPDEST JUMPDEST DIV SWAP3 POP PUSH1 0x2 DUP2 ADD SWAP1 POP JUMPDEST PUSH1 0xA DUP4 LT PUSH2 0x3AF4 JUMPI PUSH1 0x1 DUP2 ADD SWAP1 POP JUMPDEST DUP1 SWAP2 POP POP SWAP2 SWAP1 POP JUMP JUMPDEST PUSH1 0x0 PUSH28 0xFFFFFFFFFFFFFFFFFFFFFFFFFFFFFFFFFFFFFFFFFFFFFFFFFFFFFFFF DUP1 AND DUP3 GT ISZERO PUSH2 0x3B60 JUMPI PUSH1 0x40 MLOAD PUSH32 0x8C379A000000000000000000000000000000000000000000000000000000000 DUP2 MSTORE PUSH1 0x4 ADD PUSH2 0x3B57 SWAP1 PUSH2 0x5C70 JUMP JUMPDEST PUSH1 0x40 MLOAD DUP1 SWAP2 SUB SWAP1 REVERT JUMPDEST DUP2 SWAP1 POP SWAP2 SWAP1 POP JUMP JUMPDEST PUSH1 0x0 DUP1 PUSH1 0x0 DUP6 DUP1 SLOAD SWAP1 POP SWAP1 POP PUSH1 0x0 DUP2 GT ISZERO PUSH2 0x3DFE JUMPI PUSH1 0x0 PUSH2 0x3B95 DUP8 PUSH1 0x1 DUP5 PUSH2 0x3B90 SWAP2 SWAP1 PUSH2 0x4F69 JUMP JUMPDEST PUSH2 0x23E4 JUMP JUMPDEST PUSH1 0x40 MLOAD DUP1 PUSH1 0x40 ADD PUSH1 0x40 MSTORE SWAP1 DUP2 PUSH1 0x0 DUP3 ADD PUSH1 0x0 SWAP1 SLOAD SWAP1 PUSH2 0x100 EXP SWAP1 DIV PUSH4 0xFFFFFFFF AND PUSH4 0xFFFFFFFF AND PUSH4 0xFFFFFFFF AND DUP2 MSTORE PUSH1 0x20 ADD PUSH1 0x0 DUP3 ADD PUSH1 0x4 SWAP1 SLOAD SWAP1 PUSH2 0x100 EXP SWAP1 DIV PUSH28 0xFFFFFFFFFFFFFFFFFFFFFFFFFFFFFFFFFFFFFFFFFFFFFFFFFFFFFFFF AND PUSH28 0xFFFFFFFFFFFFFFFFFFFFFFFFFFFFFFFFFFFFFFFFFFFFFFFFFFFFFFFF AND PUSH28 0xFFFFFFFFFFFFFFFFFFFFFFFFFFFFFFFFFFFFFFFFFFFFFFFFFFFFFFFF AND DUP2 MSTORE POP POP SWAP1 POP DUP6 PUSH4 0xFFFFFFFF AND DUP2 PUSH1 0x0 ADD MLOAD PUSH4 0xFFFFFFFF AND GT ISZERO PUSH2 0x3C89 JUMPI PUSH1 0x40 MLOAD PUSH32 0x8C379A000000000000000000000000000000000000000000000000000000000 DUP2 MSTORE PUSH1 0x4 ADD PUSH2 0x3C80 SWAP1 PUSH2 0x5CDC JUMP JUMPDEST PUSH1 0x40 MLOAD DUP1 SWAP2 SUB SWAP1 REVERT JUMPDEST DUP6 PUSH4 0xFFFFFFFF AND DUP2 PUSH1 0x0 ADD MLOAD PUSH4 0xFFFFFFFF AND SUB PUSH2 0x3D0D JUMPI DUP5 PUSH2 0x3CB7 DUP9 PUSH1 0x1 DUP6 PUSH2 0x3CB2 SWAP2 SWAP1 PUSH2 0x4F69 JUMP JUMPDEST PUSH2 0x23E4 JUMP JUMPDEST PUSH1 0x0 ADD PUSH1 0x4 PUSH2 0x100 EXP DUP2 SLOAD DUP2 PUSH28 0xFFFFFFFFFFFFFFFFFFFFFFFFFFFFFFFFFFFFFFFFFFFFFFFFFFFFFFFF MUL NOT AND SWAP1 DUP4 PUSH28 0xFFFFFFFFFFFFFFFFFFFFFFFFFFFFFFFFFFFFFFFFFFFFFFFFFFFFFFFF AND MUL OR SWAP1 SSTORE POP PUSH2 0x3DED JUMP JUMPDEST DUP7 PUSH1 0x40 MLOAD DUP1 PUSH1 0x40 ADD PUSH1 0x40 MSTORE DUP1 DUP9 PUSH4 0xFFFFFFFF AND DUP2 MSTORE PUSH1 0x20 ADD DUP8 PUSH28 0xFFFFFFFFFFFFFFFFFFFFFFFFFFFFFFFFFFFFFFFFFFFFFFFFFFFFFFFF AND DUP2 MSTORE POP SWAP1 DUP1 PUSH1 0x1 DUP2 SLOAD ADD DUP1 DUP3 SSTORE DUP1 SWAP2 POP POP PUSH1 0x1 SWAP1 SUB SWAP1 PUSH1 0x0 MSTORE PUSH1 0x20 PUSH1 0x0 KECCAK256 ADD PUSH1 0x0 SWAP1 SWAP2 SWAP1 SWAP2 SWAP1 SWAP2 POP PUSH1 0x0 DUP3 ADD MLOAD DUP2 PUSH1 0x0 ADD PUSH1 0x0 PUSH2 0x100 EXP DUP2 SLOAD DUP2 PUSH4 0xFFFFFFFF MUL NOT AND SWAP1 DUP4 PUSH4 0xFFFFFFFF AND MUL OR SWAP1 SSTORE POP PUSH1 0x20 DUP3 ADD MLOAD DUP2 PUSH1 0x0 ADD PUSH1 0x4 PUSH2 0x100 EXP DUP2 SLOAD DUP2 PUSH28 0xFFFFFFFFFFFFFFFFFFFFFFFFFFFFFFFFFFFFFFFFFFFFFFFFFFFFFFFF MUL NOT AND SWAP1 DUP4 PUSH28 0xFFFFFFFFFFFFFFFFFFFFFFFFFFFFFFFFFFFFFFFFFFFFFFFFFFFFFFFF AND MUL OR SWAP1 SSTORE POP POP POP JUMPDEST DUP1 PUSH1 0x20 ADD MLOAD DUP6 SWAP4 POP SWAP4 POP POP POP PUSH2 0x3EE6 JUMP JUMPDEST DUP6 PUSH1 0x40 MLOAD DUP1 PUSH1 0x40 ADD PUSH1 0x40 MSTORE DUP1 DUP8 PUSH4 0xFFFFFFFF AND DUP2 MSTORE PUSH1 0x20 ADD DUP7 PUSH28 0xFFFFFFFFFFFFFFFFFFFFFFFFFFFFFFFFFFFFFFFFFFFFFFFFFFFFFFFF AND DUP2 MSTORE POP SWAP1 DUP1 PUSH1 0x1 DUP2 SLOAD ADD DUP1 DUP3 SSTORE DUP1 SWAP2 POP POP PUSH1 0x1 SWAP1 SUB SWAP1 PUSH1 0x0 MSTORE PUSH1 0x20 PUSH1 0x0 KECCAK256 ADD PUSH1 0x0 SWAP1 SWAP2 SWAP1 SWAP2 SWAP1 SWAP2 POP PUSH1 0x0 DUP3 ADD MLOAD DUP2 PUSH1 0x0 ADD PUSH1 0x0 PUSH2 0x100 EXP DUP2 SLOAD DUP2 PUSH4 0xFFFFFFFF MUL NOT AND SWAP1 DUP4 PUSH4 0xFFFFFFFF AND MUL OR SWAP1 SSTORE POP PUSH1 0x20 DUP3 ADD MLOAD DUP2 PUSH1 0x0 ADD PUSH1 0x4 PUSH2 0x100 EXP DUP2 SLOAD DUP2 PUSH28 0xFFFFFFFFFFFFFFFFFFFFFFFFFFFFFFFFFFFFFFFFFFFFFFFFFFFFFFFF MUL NOT AND SWAP1 DUP4 PUSH28 0xFFFFFFFFFFFFFFFFFFFFFFFFFFFFFFFFFFFFFFFFFFFFFFFFFFFFFFFF AND MUL OR SWAP1 SSTORE POP POP POP PUSH1 0x0 DUP5 SWAP3 POP SWAP3 POP POP JUMPDEST SWAP4 POP SWAP4 SWAP2 POP POP JUMP JUMPDEST POP DUP1 SLOAD PUSH2 0x3EFA SWAP1 PUSH2 0x4757 JUMP JUMPDEST PUSH1 0x0 DUP3 SSTORE DUP1 PUSH1 0x1F LT PUSH2 0x3F0C JUMPI POP PUSH2 0x3F2B JUMP JUMPDEST PUSH1 0x1F ADD PUSH1 0x20 SWAP1 DIV SWAP1 PUSH1 0x0 MSTORE PUSH1 0x20 PUSH1 0x0 KECCAK256 SWAP1 DUP2 ADD SWAP1 PUSH2 0x3F2A SWAP2 SWAP1 PUSH2 0x3F2E JUMP JUMPDEST JUMPDEST POP JUMP JUMPDEST JUMPDEST DUP1 DUP3 GT ISZERO PUSH2 0x3F47 JUMPI PUSH1 0x0 DUP2 PUSH1 0x0 SWAP1 SSTORE POP PUSH1 0x1 ADD PUSH2 0x3F2F JUMP JUMPDEST POP SWAP1 JUMP JUMPDEST PUSH1 0x0 PUSH1 0x40 MLOAD SWAP1 POP SWAP1 JUMP JUMPDEST PUSH1 0x0 DUP1 REVERT JUMPDEST PUSH1 0x0 DUP1 REVERT JUMPDEST PUSH1 0x0 PUSH32 0xFFFFFFFF00000000000000000000000000000000000000000000000000000000 DUP3 AND SWAP1 POP SWAP2 SWAP1 POP JUMP JUMPDEST PUSH2 0x3F94 DUP2 PUSH2 0x3F5F JUMP JUMPDEST DUP2 EQ PUSH2 0x3F9F JUMPI PUSH1 0x0 DUP1 REVERT JUMPDEST POP JUMP JUMPDEST PUSH1 0x0 DUP2 CALLDATALOAD SWAP1 POP PUSH2 0x3FB1 DUP2 PUSH2 0x3F8B JUMP JUMPDEST SWAP3 SWAP2 POP POP JUMP JUMPDEST PUSH1 0x0 PUSH1 0x20 DUP3 DUP5 SUB SLT ISZERO PUSH2 0x3FCD JUMPI PUSH2 0x3FCC PUSH2 0x3F55 JUMP JUMPDEST JUMPDEST PUSH1 0x0 PUSH2 0x3FDB DUP5 DUP3 DUP6 ADD PUSH2 0x3FA2 JUMP JUMPDEST SWAP2 POP POP SWAP3 SWAP2 POP POP JUMP JUMPDEST PUSH1 0x0 DUP2 ISZERO ISZERO SWAP1 POP SWAP2 SWAP1 POP JUMP JUMPDEST PUSH2 0x3FF9 DUP2 PUSH2 0x3FE4 JUMP JUMPDEST DUP3 MSTORE POP POP JUMP JUMPDEST PUSH1 0x0 PUSH1 0x20 DUP3 ADD SWAP1 POP PUSH2 0x4014 PUSH1 0x0 DUP4 ADD DUP5 PUSH2 0x3FF0 JUMP JUMPDEST SWAP3 SWAP2 POP POP JUMP JUMPDEST PUSH1 0x0 DUP2 MLOAD SWAP1 POP SWAP2 SWAP1 POP JUMP JUMPDEST PUSH1 0x0 DUP3 DUP3 MSTORE PUSH1 0x20 DUP3 ADD SWAP1 POP SWAP3 SWAP2 POP POP JUMP JUMPDEST PUSH1 0x0 JUMPDEST DUP4 DUP2 LT ISZERO PUSH2 0x4054 JUMPI DUP1 DUP3 ADD MLOAD DUP2 DUP5 ADD MSTORE PUSH1 0x20 DUP2 ADD SWAP1 POP PUSH2 0x4039 JUMP JUMPDEST PUSH1 0x0 DUP5 DUP5 ADD MSTORE POP POP POP POP JUMP JUMPDEST PUSH1 0x0 PUSH1 0x1F NOT PUSH1 0x1F DUP4 ADD AND SWAP1 POP SWAP2 SWAP1 POP JUMP JUMPDEST PUSH1 0x0 PUSH2 0x407C DUP3 PUSH2 0x401A JUMP JUMPDEST PUSH2 0x4086 DUP2 DUP6 PUSH2 0x4025 JUMP JUMPDEST SWAP4 POP PUSH2 0x4096 DUP2 DUP6 PUSH1 0x20 DUP7 ADD PUSH2 0x4036 JUMP JUMPDEST PUSH2 0x409F DUP2 PUSH2 0x4060 JUMP JUMPDEST DUP5 ADD SWAP2 POP POP SWAP3 SWAP2 POP POP JUMP JUMPDEST PUSH1 0x0 PUSH1 0x20 DUP3 ADD SWAP1 POP DUP2 DUP2 SUB PUSH1 0x0 DUP4 ADD MSTORE PUSH2 0x40C4 DUP2 DUP5 PUSH2 0x4071 JUMP JUMPDEST SWAP1 POP SWAP3 SWAP2 POP POP JUMP JUMPDEST PUSH1 0x0 DUP2 SWAP1 POP SWAP2 SWAP1 POP JUMP JUMPDEST PUSH2 0x40DF DUP2 PUSH2 0x40CC JUMP JUMPDEST DUP2 EQ PUSH2 0x40EA JUMPI PUSH1 0x0 DUP1 REVERT JUMPDEST POP JUMP JUMPDEST PUSH1 0x0 DUP2 CALLDATALOAD SWAP1 POP PUSH2 0x40FC DUP2 PUSH2 0x40D6 JUMP JUMPDEST SWAP3 SWAP2 POP POP JUMP JUMPDEST PUSH1 0x0 PUSH1 0x20 DUP3 DUP5 SUB SLT ISZERO PUSH2 0x4118 JUMPI PUSH2 0x4117 PUSH2 0x3F55 JUMP JUMPDEST JUMPDEST PUSH1 0x0 PUSH2 0x4126 DUP5 DUP3 DUP6 ADD PUSH2 0x40ED JUMP JUMPDEST SWAP2 POP POP SWAP3 SWAP2 POP POP JUMP JUMPDEST PUSH1 0x0 PUSH20 0xFFFFFFFFFFFFFFFFFFFFFFFFFFFFFFFFFFFFFFFF DUP3 AND SWAP1 POP SWAP2 SWAP1 POP JUMP JUMPDEST PUSH1 0x0 PUSH2 0x415A DUP3 PUSH2 0x412F JUMP JUMPDEST SWAP1 POP SWAP2 SWAP1 POP JUMP JUMPDEST PUSH2 0x416A DUP2 PUSH2 0x414F JUMP JUMPDEST DUP3 MSTORE POP POP JUMP JUMPDEST PUSH1 0x0 PUSH1 0x20 DUP3 ADD SWAP1 POP PUSH2 0x4185 PUSH1 0x0 DUP4 ADD DUP5 PUSH2 0x4161 JUMP JUMPDEST SWAP3 SWAP2 POP POP JUMP JUMPDEST PUSH2 0x4194 DUP2 PUSH2 0x414F JUMP JUMPDEST DUP2 EQ PUSH2 0x419F JUMPI PUSH1 0x0 DUP1 REVERT JUMPDEST POP JUMP JUMPDEST PUSH1 0x0 DUP2 CALLDATALOAD SWAP1 POP PUSH2 0x41B1 DUP2 PUSH2 0x418B JUMP JUMPDEST SWAP3 SWAP2 POP POP JUMP JUMPDEST PUSH1 0x0 DUP1 PUSH1 0x40 DUP4 DUP6 SUB SLT ISZERO PUSH2 0x41CE JUMPI PUSH2 0x41CD PUSH2 0x3F55 JUMP JUMPDEST JUMPDEST PUSH1 0x0 PUSH2 0x41DC DUP6 DUP3 DUP7 ADD PUSH2 0x41A2 JUMP JUMPDEST SWAP3 POP POP PUSH1 0x20 PUSH2 0x41ED DUP6 DUP3 DUP7 ADD PUSH2 0x40ED JUMP JUMPDEST SWAP2 POP POP SWAP3 POP SWAP3 SWAP1 POP JUMP JUMPDEST PUSH2 0x4200 DUP2 PUSH2 0x40CC JUMP JUMPDEST DUP3 MSTORE POP POP JUMP JUMPDEST PUSH1 0x0 PUSH1 0x20 DUP3 ADD SWAP1 POP PUSH2 0x421B PUSH1 0x0 DUP4 ADD DUP5 PUSH2 0x41F7 JUMP JUMPDEST SWAP3 SWAP2 POP POP JUMP JUMPDEST PUSH1 0x0 DUP1 PUSH1 0x0 PUSH1 0x60 DUP5 DUP7 SUB SLT ISZERO PUSH2 0x423A JUMPI PUSH2 0x4239 PUSH2 0x3F55 JUMP JUMPDEST JUMPDEST PUSH1 0x0 PUSH2 0x4248 DUP7 DUP3 DUP8 ADD PUSH2 0x41A2 JUMP JUMPDEST SWAP4 POP POP PUSH1 0x20 PUSH2 0x4259 DUP7 DUP3 DUP8 ADD PUSH2 0x41A2 JUMP JUMPDEST SWAP3 POP POP PUSH1 0x40 PUSH2 0x426A DUP7 DUP3 DUP8 ADD PUSH2 0x40ED JUMP JUMPDEST SWAP2 POP POP SWAP3 POP SWAP3 POP SWAP3 JUMP JUMPDEST PUSH1 0x0 DUP2 SWAP1 POP SWAP2 SWAP1 POP JUMP JUMPDEST PUSH2 0x4287 DUP2 PUSH2 0x4274 JUMP JUMPDEST DUP3 MSTORE POP POP JUMP JUMPDEST PUSH1 0x0 PUSH1 0x20 DUP3 ADD SWAP1 POP PUSH2 0x42A2 PUSH1 0x0 DUP4 ADD DUP5 PUSH2 0x427E JUMP JUMPDEST SWAP3 SWAP2 POP POP JUMP JUMPDEST PUSH1 0x0 PUSH1 0x20 DUP3 DUP5 SUB SLT ISZERO PUSH2 0x42BE JUMPI PUSH2 0x42BD PUSH2 0x3F55 JUMP JUMPDEST JUMPDEST PUSH1 0x0 PUSH2 0x42CC DUP5 DUP3 DUP6 ADD PUSH2 0x41A2 JUMP JUMPDEST SWAP2 POP POP SWAP3 SWAP2 POP POP JUMP JUMPDEST PUSH2 0x42DE DUP2 PUSH2 0x3FE4 JUMP JUMPDEST DUP2 EQ PUSH2 0x42E9 JUMPI PUSH1 0x0 DUP1 REVERT JUMPDEST POP JUMP JUMPDEST PUSH1 0x0 DUP2 CALLDATALOAD SWAP1 POP PUSH2 0x42FB DUP2 PUSH2 0x42D5 JUMP JUMPDEST SWAP3 SWAP2 POP POP JUMP JUMPDEST PUSH1 0x0 DUP1 PUSH1 0x40 DUP4 DUP6 SUB SLT ISZERO PUSH2 0x4318 JUMPI PUSH2 0x4317 PUSH2 0x3F55 JUMP JUMPDEST JUMPDEST PUSH1 0x0 PUSH2 0x4326 DUP6 DUP3 DUP7 ADD PUSH2 0x41A2 JUMP JUMPDEST SWAP3 POP POP PUSH1 0x20 PUSH2 0x4337 DUP6 DUP3 DUP7 ADD PUSH2 0x42EC JUMP JUMPDEST SWAP2 POP POP SWAP3 POP SWAP3 SWAP1 POP JUMP JUMPDEST PUSH1 0x0 DUP1 REVERT JUMPDEST PUSH1 0x0 DUP1 REVERT JUMPDEST PUSH32 0x4E487B7100000000000000000000000000000000000000000000000000000000 PUSH1 0x0 MSTORE PUSH1 0x41 PUSH1 0x4 MSTORE PUSH1 0x24 PUSH1 0x0 REVERT JUMPDEST PUSH2 0x4383 DUP3 PUSH2 0x4060 JUMP JUMPDEST DUP2 ADD DUP2 DUP2 LT PUSH8 0xFFFFFFFFFFFFFFFF DUP3 GT OR ISZERO PUSH2 0x43A2 JUMPI PUSH2 0x43A1 PUSH2 0x434B JUMP JUMPDEST JUMPDEST DUP1 PUSH1 0x40 MSTORE POP POP POP JUMP JUMPDEST PUSH1 0x0 PUSH2 0x43B5 PUSH2 0x3F4B JUMP JUMPDEST SWAP1 POP PUSH2 0x43C1 DUP3 DUP3 PUSH2 0x437A JUMP JUMPDEST SWAP2 SWAP1 POP JUMP JUMPDEST PUSH1 0x0 PUSH8 0xFFFFFFFFFFFFFFFF DUP3 GT ISZERO PUSH2 0x43E1 JUMPI PUSH2 0x43E0 PUSH2 0x434B JUMP JUMPDEST JUMPDEST PUSH2 0x43EA DUP3 PUSH2 0x4060 JUMP JUMPDEST SWAP1 POP PUSH1 0x20 DUP2 ADD SWAP1 POP SWAP2 SWAP1 POP JUMP JUMPDEST DUP3 DUP2 DUP4 CALLDATACOPY PUSH1 0x0 DUP4 DUP4 ADD MSTORE POP POP POP JUMP JUMPDEST PUSH1 0x0 PUSH2 0x4419 PUSH2 0x4414 DUP5 PUSH2 0x43C6 JUMP JUMPDEST PUSH2 0x43AB JUMP JUMPDEST SWAP1 POP DUP3 DUP2 MSTORE PUSH1 0x20 DUP2 ADD DUP5 DUP5 DUP5 ADD GT ISZERO PUSH2 0x4435 JUMPI PUSH2 0x4434 PUSH2 0x4346 JUMP JUMPDEST JUMPDEST PUSH2 0x4440 DUP5 DUP3 DUP6 PUSH2 0x43F7 JUMP JUMPDEST POP SWAP4 SWAP3 POP POP POP JUMP JUMPDEST PUSH1 0x0 DUP3 PUSH1 0x1F DUP4 ADD SLT PUSH2 0x445D JUMPI PUSH2 0x445C PUSH2 0x4341 JUMP JUMPDEST JUMPDEST DUP2 CALLDATALOAD PUSH2 0x446D DUP5 DUP3 PUSH1 0x20 DUP7 ADD PUSH2 0x4406 JUMP JUMPDEST SWAP2 POP POP SWAP3 SWAP2 POP POP JUMP JUMPDEST PUSH1 0x0 DUP1 PUSH1 0x0 DUP1 PUSH1 0x80 DUP6 DUP8 SUB SLT ISZERO PUSH2 0x4490 JUMPI PUSH2 0x448F PUSH2 0x3F55 JUMP JUMPDEST JUMPDEST PUSH1 0x0 PUSH2 0x449E DUP8 DUP3 DUP9 ADD PUSH2 0x41A2 JUMP JUMPDEST SWAP5 POP POP PUSH1 0x20 PUSH2 0x44AF DUP8 DUP3 DUP9 ADD PUSH2 0x41A2 JUMP JUMPDEST SWAP4 POP POP PUSH1 0x40 PUSH2 0x44C0 DUP8 DUP3 DUP9 ADD PUSH2 0x40ED JUMP JUMPDEST SWAP3 POP POP PUSH1 0x60 DUP6 ADD CALLDATALOAD PUSH8 0xFFFFFFFFFFFFFFFF DUP2 GT ISZERO PUSH2 0x44E1 JUMPI PUSH2 0x44E0 PUSH2 0x3F5A JUMP JUMPDEST JUMPDEST PUSH2 0x44ED DUP8 DUP3 DUP9 ADD PUSH2 0x4448 JUMP JUMPDEST SWAP2 POP POP SWAP3 SWAP6 SWAP2 SWAP5 POP SWAP3 POP JUMP JUMPDEST PUSH1 0x0 PUSH1 0xFF DUP3 AND SWAP1 POP SWAP2 SWAP1 POP JUMP JUMPDEST PUSH2 0x450F DUP2 PUSH2 0x44F9 JUMP JUMPDEST DUP2 EQ PUSH2 0x451A JUMPI PUSH1 0x0 DUP1 REVERT JUMPDEST POP JUMP JUMPDEST PUSH1 0x0 DUP2 CALLDATALOAD SWAP1 POP PUSH2 0x452C DUP2 PUSH2 0x4506 JUMP JUMPDEST SWAP3 SWAP2 POP POP JUMP JUMPDEST PUSH2 0x453B DUP2 PUSH2 0x4274 JUMP JUMPDEST DUP2 EQ PUSH2 0x4546 JUMPI PUSH1 0x0 DUP1 REVERT JUMPDEST POP JUMP JUMPDEST PUSH1 0x0 DUP2 CALLDATALOAD SWAP1 POP PUSH2 0x4558 DUP2 PUSH2 0x4532 JUMP JUMPDEST SWAP3 SWAP2 POP POP JUMP JUMPDEST PUSH1 0x0 DUP1 PUSH1 0x0 DUP1 PUSH1 0x0 DUP1 PUSH1 0xC0 DUP8 DUP10 SUB SLT ISZERO PUSH2 0x457B JUMPI PUSH2 0x457A PUSH2 0x3F55 JUMP JUMPDEST JUMPDEST PUSH1 0x0 PUSH2 0x4589 DUP10 DUP3 DUP11 ADD PUSH2 0x41A2 JUMP JUMPDEST SWAP7 POP POP PUSH1 0x20 PUSH2 0x459A DUP10 DUP3 DUP11 ADD PUSH2 0x40ED JUMP JUMPDEST SWAP6 POP POP PUSH1 0x40 PUSH2 0x45AB DUP10 DUP3 DUP11 ADD PUSH2 0x40ED JUMP JUMPDEST SWAP5 POP POP PUSH1 0x60 PUSH2 0x45BC DUP10 DUP3 DUP11 ADD PUSH2 0x451D JUMP JUMPDEST SWAP4 POP POP PUSH1 0x80 PUSH2 0x45CD DUP10 DUP3 DUP11 ADD PUSH2 0x4549 JUMP JUMPDEST SWAP3 POP POP PUSH1 0xA0 PUSH2 0x45DE DUP10 DUP3 DUP11 ADD PUSH2 0x4549 JUMP JUMPDEST SWAP2 POP POP SWAP3 SWAP6 POP SWAP3 SWAP6 POP SWAP3 SWAP6 JUMP JUMPDEST PUSH1 0x0 PUSH8 0xFFFFFFFFFFFFFFFF DUP3 GT ISZERO PUSH2 0x4606 JUMPI PUSH2 0x4605 PUSH2 0x434B JUMP JUMPDEST JUMPDEST PUSH2 0x460F DUP3 PUSH2 0x4060 JUMP JUMPDEST SWAP1 POP PUSH1 0x20 DUP2 ADD SWAP1 POP SWAP2 SWAP1 POP JUMP JUMPDEST PUSH1 0x0 PUSH2 0x462F PUSH2 0x462A DUP5 PUSH2 0x45EB JUMP JUMPDEST PUSH2 0x43AB JUMP JUMPDEST SWAP1 POP DUP3 DUP2 MSTORE PUSH1 0x20 DUP2 ADD DUP5 DUP5 DUP5 ADD GT ISZERO PUSH2 0x464B JUMPI PUSH2 0x464A PUSH2 0x4346 JUMP JUMPDEST JUMPDEST PUSH2 0x4656 DUP5 DUP3 DUP6 PUSH2 0x43F7 JUMP JUMPDEST POP SWAP4 SWAP3 POP POP POP JUMP JUMPDEST PUSH1 0x0 DUP3 PUSH1 0x1F DUP4 ADD SLT PUSH2 0x4673 JUMPI PUSH2 0x4672 PUSH2 0x4341 JUMP JUMPDEST JUMPDEST DUP2 CALLDATALOAD PUSH2 0x4683 DUP5 DUP3 PUSH1 0x20 DUP7 ADD PUSH2 0x461C JUMP JUMPDEST SWAP2 POP POP SWAP3 SWAP2 POP POP JUMP JUMPDEST PUSH1 0x0 DUP1 PUSH1 0x40 DUP4 DUP6 SUB SLT ISZERO PUSH2 0x46A3 JUMPI PUSH2 0x46A2 PUSH2 0x3F55 JUMP JUMPDEST JUMPDEST PUSH1 0x0 PUSH2 0x46B1 DUP6 DUP3 DUP7 ADD PUSH2 0x41A2 JUMP JUMPDEST SWAP3 POP POP PUSH1 0x20 DUP4 ADD CALLDATALOAD PUSH8 0xFFFFFFFFFFFFFFFF DUP2 GT ISZERO PUSH2 0x46D2 JUMPI PUSH2 0x46D1 PUSH2 0x3F5A JUMP JUMPDEST JUMPDEST PUSH2 0x46DE DUP6 DUP3 DUP7 ADD PUSH2 0x465E JUMP JUMPDEST SWAP2 POP POP SWAP3 POP SWAP3 SWAP1 POP JUMP JUMPDEST PUSH1 0x0 DUP1 PUSH1 0x40 DUP4 DUP6 SUB SLT ISZERO PUSH2 0x46FF JUMPI PUSH2 0x46FE PUSH2 0x3F55 JUMP JUMPDEST JUMPDEST PUSH1 0x0 PUSH2 0x470D DUP6 DUP3 DUP7 ADD PUSH2 0x41A2 JUMP JUMPDEST SWAP3 POP POP PUSH1 0x20 PUSH2 0x471E DUP6 DUP3 DUP7 ADD PUSH2 0x41A2 JUMP JUMPDEST SWAP2 POP POP SWAP3 POP SWAP3 SWAP1 POP JUMP JUMPDEST PUSH32 0x4E487B7100000000000000000000000000000000000000000000000000000000 PUSH1 0x0 MSTORE PUSH1 0x22 PUSH1 0x4 MSTORE PUSH1 0x24 PUSH1 0x0 REVERT JUMPDEST PUSH1 0x0 PUSH1 0x2 DUP3 DIV SWAP1 POP PUSH1 0x1 DUP3 AND DUP1 PUSH2 0x476F JUMPI PUSH1 0x7F DUP3 AND SWAP2 POP JUMPDEST PUSH1 0x20 DUP3 LT DUP2 SUB PUSH2 0x4782 JUMPI PUSH2 0x4781 PUSH2 0x4728 JUMP JUMPDEST JUMPDEST POP SWAP2 SWAP1 POP JUMP JUMPDEST PUSH32 0x4552433732313A20617070726F76616C20746F2063757272656E74206F776E65 PUSH1 0x0 DUP3 ADD MSTORE PUSH32 0x7200000000000000000000000000000000000000000000000000000000000000 PUSH1 0x20 DUP3 ADD MSTORE POP JUMP JUMPDEST PUSH1 0x0 PUSH2 0x47E4 PUSH1 0x21 DUP4 PUSH2 0x4025 JUMP JUMPDEST SWAP2 POP PUSH2 0x47EF DUP3 PUSH2 0x4788 JUMP JUMPDEST PUSH1 0x40 DUP3 ADD SWAP1 POP SWAP2 SWAP1 POP JUMP JUMPDEST PUSH1 0x0 PUSH1 0x20 DUP3 ADD SWAP1 POP DUP2 DUP2 SUB PUSH1 0x0 DUP4 ADD MSTORE PUSH2 0x4813 DUP2 PUSH2 0x47D7 JUMP JUMPDEST SWAP1 POP SWAP2 SWAP1 POP JUMP JUMPDEST PUSH32 0x4552433732313A20617070726F76652063616C6C6572206973206E6F7420746F PUSH1 0x0 DUP3 ADD MSTORE PUSH32 0x6B656E206F776E6572206F7220617070726F76656420666F7220616C6C000000 PUSH1 0x20 DUP3 ADD MSTORE POP JUMP JUMPDEST PUSH1 0x0 PUSH2 0x4876 PUSH1 0x3D DUP4 PUSH2 0x4025 JUMP JUMPDEST SWAP2 POP PUSH2 0x4881 DUP3 PUSH2 0x481A JUMP JUMPDEST PUSH1 0x40 DUP3 ADD SWAP1 POP SWAP2 SWAP1 POP JUMP JUMPDEST PUSH1 0x0 PUSH1 0x20 DUP3 ADD SWAP1 POP DUP2 DUP2 SUB PUSH1 0x0 DUP4 ADD MSTORE PUSH2 0x48A5 DUP2 PUSH2 0x4869 JUMP JUMPDEST SWAP1 POP SWAP2 SWAP1 POP JUMP JUMPDEST PUSH32 0x4552433732313A2063616C6C6572206973206E6F7420746F6B656E206F776E65 PUSH1 0x0 DUP3 ADD MSTORE PUSH32 0x72206F7220617070726F76656400000000000000000000000000000000000000 PUSH1 0x20 DUP3 ADD MSTORE POP JUMP JUMPDEST PUSH1 0x0 PUSH2 0x4908 PUSH1 0x2D DUP4 PUSH2 0x4025 JUMP JUMPDEST SWAP2 POP PUSH2 0x4913 DUP3 PUSH2 0x48AC JUMP JUMPDEST PUSH1 0x40 DUP3 ADD SWAP1 POP SWAP2 SWAP1 POP JUMP JUMPDEST PUSH1 0x0 PUSH1 0x20 DUP3 ADD SWAP1 POP DUP2 DUP2 SUB PUSH1 0x0 DUP4 ADD MSTORE PUSH2 0x4937 DUP2 PUSH2 0x48FB JUMP JUMPDEST SWAP1 POP SWAP2 SWAP1 POP JUMP JUMPDEST PUSH32 0x455243373231456E756D657261626C653A206F776E657220696E646578206F75 PUSH1 0x0 DUP3 ADD MSTORE PUSH32 0x74206F6620626F756E6473000000000000000000000000000000000000000000 PUSH1 0x20 DUP3 ADD MSTORE POP JUMP JUMPDEST PUSH1 0x0 PUSH2 0x499A PUSH1 0x2B DUP4 PUSH2 0x4025 JUMP JUMPDEST SWAP2 POP PUSH2 0x49A5 DUP3 PUSH2 0x493E JUMP JUMPDEST PUSH1 0x40 DUP3 ADD SWAP1 POP SWAP2 SWAP1 POP JUMP JUMPDEST PUSH1 0x0 PUSH1 0x20 DUP3 ADD SWAP1 POP DUP2 DUP2 SUB PUSH1 0x0 DUP4 ADD MSTORE PUSH2 0x49C9 DUP2 PUSH2 0x498D JUMP JUMPDEST SWAP1 POP SWAP2 SWAP1 POP JUMP JUMPDEST PUSH32 0x455243373231456E756D657261626C653A20676C6F62616C20696E646578206F PUSH1 0x0 DUP3 ADD MSTORE PUSH32 0x7574206F6620626F756E64730000000000000000000000000000000000000000 PUSH1 0x20 DUP3 ADD MSTORE POP JUMP JUMPDEST PUSH1 0x0 PUSH2 0x4A2C PUSH1 0x2C DUP4 PUSH2 0x4025 JUMP JUMPDEST SWAP2 POP PUSH2 0x4A37 DUP3 PUSH2 0x49D0 JUMP JUMPDEST PUSH1 0x40 DUP3 ADD SWAP1 POP SWAP2 SWAP1 POP JUMP JUMPDEST PUSH1 0x0 PUSH1 0x20 DUP3 ADD SWAP1 POP DUP2 DUP2 SUB PUSH1 0x0 DUP4 ADD MSTORE PUSH2 0x4A5B DUP2 PUSH2 0x4A1F JUMP JUMPDEST SWAP1 POP SWAP2 SWAP1 POP JUMP JUMPDEST PUSH32 0x4E487B7100000000000000000000000000000000000000000000000000000000 PUSH1 0x0 MSTORE PUSH1 0x32 PUSH1 0x4 MSTORE PUSH1 0x24 PUSH1 0x0 REVERT JUMPDEST PUSH32 0x4552433732313A20696E76616C696420746F6B656E2049440000000000000000 PUSH1 0x0 DUP3 ADD MSTORE POP JUMP JUMPDEST PUSH1 0x0 PUSH2 0x4AC7 PUSH1 0x18 DUP4 PUSH2 0x4025 JUMP JUMPDEST SWAP2 POP PUSH2 0x4AD2 DUP3 PUSH2 0x4A91 JUMP JUMPDEST PUSH1 0x20 DUP3 ADD SWAP1 POP SWAP2 SWAP1 POP JUMP JUMPDEST PUSH1 0x0 PUSH1 0x20 DUP3 ADD SWAP1 POP DUP2 DUP2 SUB PUSH1 0x0 DUP4 ADD MSTORE PUSH2 0x4AF6 DUP2 PUSH2 0x4ABA JUMP JUMPDEST SWAP1 POP SWAP2 SWAP1 POP JUMP JUMPDEST PUSH32 0x4552433732313A2061646472657373207A65726F206973206E6F742061207661 PUSH1 0x0 DUP3 ADD MSTORE PUSH32 0x6C6964206F776E65720000000000000000000000000000000000000000000000 PUSH1 0x20 DUP3 ADD MSTORE POP JUMP JUMPDEST PUSH1 0x0 PUSH2 0x4B59 PUSH1 0x29 DUP4 PUSH2 0x4025 JUMP JUMPDEST SWAP2 POP PUSH2 0x4B64 DUP3 PUSH2 0x4AFD JUMP JUMPDEST PUSH1 0x40 DUP3 ADD SWAP1 POP SWAP2 SWAP1 POP JUMP JUMPDEST PUSH1 0x0 PUSH1 0x20 DUP3 ADD SWAP1 POP DUP2 DUP2 SUB PUSH1 0x0 DUP4 ADD MSTORE PUSH2 0x4B88 DUP2 PUSH2 0x4B4C JUMP JUMPDEST SWAP1 POP SWAP2 SWAP1 POP JUMP JUMPDEST PUSH32 0x566F7465733A20626C6F636B206E6F7420796574206D696E6564000000000000 PUSH1 0x0 DUP3 ADD MSTORE POP JUMP JUMPDEST PUSH1 0x0 PUSH2 0x4BC5 PUSH1 0x1A DUP4 PUSH2 0x4025 JUMP JUMPDEST SWAP2 POP PUSH2 0x4BD0 DUP3 PUSH2 0x4B8F JUMP JUMPDEST PUSH1 0x20 DUP3 ADD SWAP1 POP SWAP2 SWAP1 POP JUMP JUMPDEST PUSH1 0x0 PUSH1 0x20 DUP3 ADD SWAP1 POP DUP2 DUP2 SUB PUSH1 0x0 DUP4 ADD MSTORE PUSH2 0x4BF4 DUP2 PUSH2 0x4BB8 JUMP JUMPDEST SWAP1 POP SWAP2 SWAP1 POP JUMP JUMPDEST PUSH32 0x566F7465733A207369676E617475726520657870697265640000000000000000 PUSH1 0x0 DUP3 ADD MSTORE POP JUMP JUMPDEST PUSH1 0x0 PUSH2 0x4C31 PUSH1 0x18 DUP4 PUSH2 0x4025 JUMP JUMPDEST SWAP2 POP PUSH2 0x4C3C DUP3 PUSH2 0x4BFB JUMP JUMPDEST PUSH1 0x20 DUP3 ADD SWAP1 POP SWAP2 SWAP1 POP JUMP JUMPDEST PUSH1 0x0 PUSH1 0x20 DUP3 ADD SWAP1 POP DUP2 DUP2 SUB PUSH1 0x0 DUP4 ADD MSTORE PUSH2 0x4C60 DUP2 PUSH2 0x4C24 JUMP JUMPDEST SWAP1 POP SWAP2 SWAP1 POP JUMP JUMPDEST PUSH1 0x0 PUSH1 0x80 DUP3 ADD SWAP1 POP PUSH2 0x4C7C PUSH1 0x0 DUP4 ADD DUP8 PUSH2 0x427E JUMP JUMPDEST PUSH2 0x4C89 PUSH1 0x20 DUP4 ADD DUP7 PUSH2 0x4161 JUMP JUMPDEST PUSH2 0x4C96 PUSH1 0x40 DUP4 ADD DUP6 PUSH2 0x41F7 JUMP JUMPDEST PUSH2 0x4CA3 PUSH1 0x60 DUP4 ADD DUP5 PUSH2 0x41F7 JUMP JUMPDEST SWAP6 SWAP5 POP POP POP POP POP JUMP JUMPDEST PUSH32 0x566F7465733A20696E76616C6964206E6F6E6365000000000000000000000000 PUSH1 0x0 DUP3 ADD MSTORE POP JUMP JUMPDEST PUSH1 0x0 PUSH2 0x4CE2 PUSH1 0x14 DUP4 PUSH2 0x4025 JUMP JUMPDEST SWAP2 POP PUSH2 0x4CED DUP3 PUSH2 0x4CAC JUMP JUMPDEST PUSH1 0x20 DUP3 ADD SWAP1 POP SWAP2 SWAP1 POP JUMP JUMPDEST PUSH1 0x0 PUSH1 0x20 DUP3 ADD SWAP1 POP DUP2 DUP2 SUB PUSH1 0x0 DUP4 ADD MSTORE PUSH2 0x4D11 DUP2 PUSH2 0x4CD5 JUMP JUMPDEST SWAP1 POP SWAP2 SWAP1 POP JUMP JUMPDEST PUSH32 0x4F776E61626C653A206E6577206F776E657220697320746865207A65726F2061 PUSH1 0x0 DUP3 ADD MSTORE PUSH32 0x6464726573730000000000000000000000000000000000000000000000000000 PUSH1 0x20 DUP3 ADD MSTORE POP JUMP JUMPDEST PUSH1 0x0 PUSH2 0x4D74 PUSH1 0x26 DUP4 PUSH2 0x4025 JUMP JUMPDEST SWAP2 POP PUSH2 0x4D7F DUP3 PUSH2 0x4D18 JUMP JUMPDEST PUSH1 0x40 DUP3 ADD SWAP1 POP SWAP2 SWAP1 POP JUMP JUMPDEST PUSH1 0x0 PUSH1 0x20 DUP3 ADD SWAP1 POP DUP2 DUP2 SUB PUSH1 0x0 DUP4 ADD MSTORE PUSH2 0x4DA3 DUP2 PUSH2 0x4D67 JUMP JUMPDEST SWAP1 POP SWAP2 SWAP1 POP JUMP JUMPDEST PUSH32 0x4552433732313A207472616E736665722066726F6D20696E636F727265637420 PUSH1 0x0 DUP3 ADD MSTORE PUSH32 0x6F776E6572000000000000000000000000000000000000000000000000000000 PUSH1 0x20 DUP3 ADD MSTORE POP JUMP JUMPDEST PUSH1 0x0 PUSH2 0x4E06 PUSH1 0x25 DUP4 PUSH2 0x4025 JUMP JUMPDEST SWAP2 POP PUSH2 0x4E11 DUP3 PUSH2 0x4DAA JUMP JUMPDEST PUSH1 0x40 DUP3 ADD SWAP1 POP SWAP2 SWAP1 POP JUMP JUMPDEST PUSH1 0x0 PUSH1 0x20 DUP3 ADD SWAP1 POP DUP2 DUP2 SUB PUSH1 0x0 DUP4 ADD MSTORE PUSH2 0x4E35 DUP2 PUSH2 0x4DF9 JUMP JUMPDEST SWAP1 POP SWAP2 SWAP1 POP JUMP JUMPDEST PUSH32 0x4552433732313A207472616E7366657220746F20746865207A65726F20616464 PUSH1 0x0 DUP3 ADD MSTORE PUSH32 0x7265737300000000000000000000000000000000000000000000000000000000 PUSH1 0x20 DUP3 ADD MSTORE POP JUMP JUMPDEST PUSH1 0x0 PUSH2 0x4E98 PUSH1 0x24 DUP4 PUSH2 0x4025 JUMP JUMPDEST SWAP2 POP PUSH2 0x4EA3 DUP3 PUSH2 0x4E3C JUMP JUMPDEST PUSH1 0x40 DUP3 ADD SWAP1 POP SWAP2 SWAP1 POP JUMP JUMPDEST PUSH1 0x0 PUSH1 0x20 DUP3 ADD SWAP1 POP DUP2 DUP2 SUB PUSH1 0x0 DUP4 ADD MSTORE PUSH2 0x4EC7 DUP2 PUSH2 0x4E8B JUMP JUMPDEST SWAP1 POP SWAP2 SWAP1 POP JUMP JUMPDEST PUSH32 0x436865636B706F696E74733A20626C6F636B206E6F7420796574206D696E6564 PUSH1 0x0 DUP3 ADD MSTORE POP JUMP JUMPDEST PUSH1 0x0 PUSH2 0x4F04 PUSH1 0x20 DUP4 PUSH2 0x4025 JUMP JUMPDEST SWAP2 POP PUSH2 0x4F0F DUP3 PUSH2 0x4ECE JUMP JUMPDEST PUSH1 0x20 DUP3 ADD SWAP1 POP SWAP2 SWAP1 POP JUMP JUMPDEST PUSH1 0x0 PUSH1 0x20 DUP3 ADD SWAP1 POP DUP2 DUP2 SUB PUSH1 0x0 DUP4 ADD MSTORE PUSH2 0x4F33 DUP2 PUSH2 0x4EF7 JUMP JUMPDEST SWAP1 POP SWAP2 SWAP1 POP JUMP JUMPDEST PUSH32 0x4E487B7100000000000000000000000000000000000000000000000000000000 PUSH1 0x0 MSTORE PUSH1 0x11 PUSH1 0x4 MSTORE PUSH1 0x24 PUSH1 0x0 REVERT JUMPDEST PUSH1 0x0 PUSH2 0x4F74 DUP3 PUSH2 0x40CC JUMP JUMPDEST SWAP2 POP PUSH2 0x4F7F DUP4 PUSH2 0x40CC JUMP JUMPDEST SWAP3 POP DUP3 DUP3 SUB SWAP1 POP DUP2 DUP2 GT ISZERO PUSH2 0x4F97 JUMPI PUSH2 0x4F96 PUSH2 0x4F3A JUMP JUMPDEST JUMPDEST SWAP3 SWAP2 POP POP JUMP JUMPDEST PUSH1 0x0 PUSH2 0x4FA8 DUP3 PUSH2 0x40CC JUMP JUMPDEST SWAP2 POP PUSH2 0x4FB3 DUP4 PUSH2 0x40CC JUMP JUMPDEST SWAP3 POP DUP3 DUP3 ADD SWAP1 POP DUP1 DUP3 GT ISZERO PUSH2 0x4FCB JUMPI PUSH2 0x4FCA PUSH2 0x4F3A JUMP JUMPDEST JUMPDEST SWAP3 SWAP2 POP POP JUMP JUMPDEST PUSH32 0x4F776E61626C653A2063616C6C6572206973206E6F7420746865206F776E6572 PUSH1 0x0 DUP3 ADD MSTORE POP JUMP JUMPDEST PUSH1 0x0 PUSH2 0x5007 PUSH1 0x20 DUP4 PUSH2 0x4025 JUMP JUMPDEST SWAP2 POP PUSH2 0x5012 DUP3 PUSH2 0x4FD1 JUMP JUMPDEST PUSH1 0x20 DUP3 ADD SWAP1 POP SWAP2 SWAP1 POP JUMP JUMPDEST PUSH1 0x0 PUSH1 0x20 DUP3 ADD SWAP1 POP DUP2 DUP2 SUB PUSH1 0x0 DUP4 ADD MSTORE PUSH2 0x5036 DUP2 PUSH2 0x4FFA JUMP JUMPDEST SWAP1 POP SWAP2 SWAP1 POP JUMP JUMPDEST PUSH32 0x4552433732313A20617070726F766520746F2063616C6C657200000000000000 PUSH1 0x0 DUP3 ADD MSTORE POP JUMP JUMPDEST PUSH1 0x0 PUSH2 0x5073 PUSH1 0x19 DUP4 PUSH2 0x4025 JUMP JUMPDEST SWAP2 POP PUSH2 0x507E DUP3 PUSH2 0x503D JUMP JUMPDEST PUSH1 0x20 DUP3 ADD SWAP1 POP SWAP2 SWAP1 POP JUMP JUMPDEST PUSH1 0x0 PUSH1 0x20 DUP3 ADD SWAP1 POP DUP2 DUP2 SUB PUSH1 0x0 DUP4 ADD MSTORE PUSH2 0x50A2 DUP2 PUSH2 0x5066 JUMP JUMPDEST SWAP1 POP SWAP2 SWAP1 POP JUMP JUMPDEST PUSH32 0x4552433732313A207472616E7366657220746F206E6F6E204552433732315265 PUSH1 0x0 DUP3 ADD MSTORE PUSH32 0x63656976657220696D706C656D656E7465720000000000000000000000000000 PUSH1 0x20 DUP3 ADD MSTORE POP JUMP JUMPDEST PUSH1 0x0 PUSH2 0x5105 PUSH1 0x32 DUP4 PUSH2 0x4025 JUMP JUMPDEST SWAP2 POP PUSH2 0x5110 DUP3 PUSH2 0x50A9 JUMP JUMPDEST PUSH1 0x40 DUP3 ADD SWAP1 POP SWAP2 SWAP1 POP JUMP JUMPDEST PUSH1 0x0 PUSH1 0x20 DUP3 ADD SWAP1 POP DUP2 DUP2 SUB PUSH1 0x0 DUP4 ADD MSTORE PUSH2 0x5134 DUP2 PUSH2 0x50F8 JUMP JUMPDEST SWAP1 POP SWAP2 SWAP1 POP JUMP JUMPDEST PUSH1 0x0 DUP2 SWAP1 POP SWAP3 SWAP2 POP POP JUMP JUMPDEST PUSH1 0x0 PUSH2 0x5151 DUP3 PUSH2 0x401A JUMP JUMPDEST PUSH2 0x515B DUP2 DUP6 PUSH2 0x513B JUMP JUMPDEST SWAP4 POP PUSH2 0x516B DUP2 DUP6 PUSH1 0x20 DUP7 ADD PUSH2 0x4036 JUMP JUMPDEST DUP1 DUP5 ADD SWAP2 POP POP SWAP3 SWAP2 POP POP JUMP JUMPDEST PUSH1 0x0 PUSH2 0x5183 DUP3 DUP6 PUSH2 0x5146 JUMP JUMPDEST SWAP2 POP PUSH2 0x518F DUP3 DUP5 PUSH2 0x5146 JUMP JUMPDEST SWAP2 POP DUP2 SWAP1 POP SWAP4 SWAP3 POP POP POP JUMP JUMPDEST PUSH32 0x45524337323155524953746F726167653A2055524920736574206F66206E6F6E PUSH1 0x0 DUP3 ADD MSTORE PUSH32 0x6578697374656E7420746F6B656E000000000000000000000000000000000000 PUSH1 0x20 DUP3 ADD MSTORE POP JUMP JUMPDEST PUSH1 0x0 PUSH2 0x51F7 PUSH1 0x2E DUP4 PUSH2 0x4025 JUMP JUMPDEST SWAP2 POP PUSH2 0x5202 DUP3 PUSH2 0x519B JUMP JUMPDEST PUSH1 0x40 DUP3 ADD SWAP1 POP SWAP2 SWAP1 POP JUMP JUMPDEST PUSH1 0x0 PUSH1 0x20 DUP3 ADD SWAP1 POP DUP2 DUP2 SUB PUSH1 0x0 DUP4 ADD MSTORE PUSH2 0x5226 DUP2 PUSH2 0x51EA JUMP JUMPDEST SWAP1 POP SWAP2 SWAP1 POP JUMP JUMPDEST PUSH1 0x0 DUP2 SWAP1 POP DUP2 PUSH1 0x0 MSTORE PUSH1 0x20 PUSH1 0x0 KECCAK256 SWAP1 POP SWAP2 SWAP1 POP JUMP JUMPDEST PUSH1 0x0 PUSH1 0x20 PUSH1 0x1F DUP4 ADD DIV SWAP1 POP SWAP2 SWAP1 POP JUMP JUMPDEST PUSH1 0x0 DUP3 DUP3 SHL SWAP1 POP SWAP3 SWAP2 POP POP JUMP JUMPDEST PUSH1 0x0 PUSH1 0x8 DUP4 MUL PUSH2 0x528F PUSH32 0xFFFFFFFFFFFFFFFFFFFFFFFFFFFFFFFFFFFFFFFFFFFFFFFFFFFFFFFFFFFFFFFF DUP3 PUSH2 0x5252 JUMP JUMPDEST PUSH2 0x5299 DUP7 DUP4 PUSH2 0x5252 JUMP JUMPDEST SWAP6 POP DUP1 NOT DUP5 AND SWAP4 POP DUP1 DUP7 AND DUP5 OR SWAP3 POP POP POP SWAP4 SWAP3 POP POP POP JUMP JUMPDEST PUSH1 0x0 DUP2 SWAP1 POP SWAP2 SWAP1 POP JUMP JUMPDEST PUSH1 0x0 PUSH2 0x52D6 PUSH2 0x52D1 PUSH2 0x52CC DUP5 PUSH2 0x40CC JUMP JUMPDEST PUSH2 0x52B1 JUMP JUMPDEST PUSH2 0x40CC JUMP JUMPDEST SWAP1 POP SWAP2 SWAP1 POP JUMP JUMPDEST PUSH1 0x0 DUP2 SWAP1 POP SWAP2 SWAP1 POP JUMP JUMPDEST PUSH2 0x52F0 DUP4 PUSH2 0x52BB JUMP JUMPDEST PUSH2 0x5304 PUSH2 0x52FC DUP3 PUSH2 0x52DD JUMP JUMPDEST DUP5 DUP5 SLOAD PUSH2 0x525F JUMP JUMPDEST DUP3 SSTORE POP POP POP POP JUMP JUMPDEST PUSH1 0x0 SWAP1 JUMP JUMPDEST PUSH2 0x5319 PUSH2 0x530C JUMP JUMPDEST PUSH2 0x5324 DUP2 DUP5 DUP5 PUSH2 0x52E7 JUMP JUMPDEST POP POP POP JUMP JUMPDEST JUMPDEST DUP2 DUP2 LT ISZERO PUSH2 0x5348 JUMPI PUSH2 0x533D PUSH1 0x0 DUP3 PUSH2 0x5311 JUMP JUMPDEST PUSH1 0x1 DUP2 ADD SWAP1 POP PUSH2 0x532A JUMP JUMPDEST POP POP JUMP JUMPDEST PUSH1 0x1F DUP3 GT ISZERO PUSH2 0x538D JUMPI PUSH2 0x535E DUP2 PUSH2 0x522D JUMP JUMPDEST PUSH2 0x5367 DUP5 PUSH2 0x5242 JUMP JUMPDEST DUP2 ADD PUSH1 0x20 DUP6 LT ISZERO PUSH2 0x5376 JUMPI DUP2 SWAP1 POP JUMPDEST PUSH2 0x538A PUSH2 0x5382 DUP6 PUSH2 0x5242 JUMP JUMPDEST DUP4 ADD DUP3 PUSH2 0x5329 JUMP JUMPDEST POP POP JUMPDEST POP POP POP JUMP JUMPDEST PUSH1 0x0 DUP3 DUP3 SHR SWAP1 POP SWAP3 SWAP2 POP POP JUMP JUMPDEST PUSH1 0x0 PUSH2 0x53B0 PUSH1 0x0 NOT DUP5 PUSH1 0x8 MUL PUSH2 0x5392 JUMP JUMPDEST NOT DUP1 DUP4 AND SWAP2 POP POP SWAP3 SWAP2 POP POP JUMP JUMPDEST PUSH1 0x0 PUSH2 0x53C9 DUP4 DUP4 PUSH2 0x539F JUMP JUMPDEST SWAP2 POP DUP3 PUSH1 0x2 MUL DUP3 OR SWAP1 POP SWAP3 SWAP2 POP POP JUMP JUMPDEST PUSH2 0x53E2 DUP3 PUSH2 0x401A JUMP JUMPDEST PUSH8 0xFFFFFFFFFFFFFFFF DUP2 GT ISZERO PUSH2 0x53FB JUMPI PUSH2 0x53FA PUSH2 0x434B JUMP JUMPDEST JUMPDEST PUSH2 0x5405 DUP3 SLOAD PUSH2 0x4757 JUMP JUMPDEST PUSH2 0x5410 DUP3 DUP3 DUP6 PUSH2 0x534C JUMP JUMPDEST PUSH1 0x0 PUSH1 0x20 SWAP1 POP PUSH1 0x1F DUP4 GT PUSH1 0x1 DUP2 EQ PUSH2 0x5443 JUMPI PUSH1 0x0 DUP5 ISZERO PUSH2 0x5431 JUMPI DUP3 DUP8 ADD MLOAD SWAP1 POP JUMPDEST PUSH2 0x543B DUP6 DUP3 PUSH2 0x53BD JUMP JUMPDEST DUP7 SSTORE POP PUSH2 0x54A3 JUMP JUMPDEST PUSH1 0x1F NOT DUP5 AND PUSH2 0x5451 DUP7 PUSH2 0x522D JUMP JUMPDEST PUSH1 0x0 JUMPDEST DUP3 DUP2 LT ISZERO PUSH2 0x5479 JUMPI DUP5 DUP10 ADD MLOAD DUP3 SSTORE PUSH1 0x1 DUP3 ADD SWAP2 POP PUSH1 0x20 DUP6 ADD SWAP5 POP PUSH1 0x20 DUP2 ADD SWAP1 POP PUSH2 0x5454 JUMP JUMPDEST DUP7 DUP4 LT ISZERO PUSH2 0x5496 JUMPI DUP5 DUP10 ADD MLOAD PUSH2 0x5492 PUSH1 0x1F DUP10 AND DUP3 PUSH2 0x539F JUMP JUMPDEST DUP4 SSTORE POP JUMPDEST PUSH1 0x1 PUSH1 0x2 DUP9 MUL ADD DUP9 SSTORE POP POP POP JUMPDEST POP POP POP POP POP POP JUMP JUMPDEST PUSH1 0x0 PUSH1 0xA0 DUP3 ADD SWAP1 POP PUSH2 0x54C0 PUSH1 0x0 DUP4 ADD DUP9 PUSH2 0x427E JUMP JUMPDEST PUSH2 0x54CD PUSH1 0x20 DUP4 ADD DUP8 PUSH2 0x427E JUMP JUMPDEST PUSH2 0x54DA PUSH1 0x40 DUP4 ADD DUP7 PUSH2 0x427E JUMP JUMPDEST PUSH2 0x54E7 PUSH1 0x60 DUP4 ADD DUP6 PUSH2 0x41F7 JUMP JUMPDEST PUSH2 0x54F4 PUSH1 0x80 DUP4 ADD DUP5 PUSH2 0x4161 JUMP JUMPDEST SWAP7 SWAP6 POP POP POP POP POP POP JUMP JUMPDEST PUSH32 0x53616665436173743A2076616C756520646F65736E27742066697420696E2033 PUSH1 0x0 DUP3 ADD MSTORE PUSH32 0x3220626974730000000000000000000000000000000000000000000000000000 PUSH1 0x20 DUP3 ADD MSTORE POP JUMP JUMPDEST PUSH1 0x0 PUSH2 0x555A PUSH1 0x26 DUP4 PUSH2 0x4025 JUMP JUMPDEST SWAP2 POP PUSH2 0x5565 DUP3 PUSH2 0x54FE JUMP JUMPDEST PUSH1 0x40 DUP3 ADD SWAP1 POP SWAP2 SWAP1 POP JUMP JUMPDEST PUSH1 0x0 PUSH1 0x20 DUP3 ADD SWAP1 POP DUP2 DUP2 SUB PUSH1 0x0 DUP4 ADD MSTORE PUSH2 0x5589 DUP2 PUSH2 0x554D JUMP JUMPDEST SWAP1 POP SWAP2 SWAP1 POP JUMP JUMPDEST PUSH32 0x4E487B7100000000000000000000000000000000000000000000000000000000 PUSH1 0x0 MSTORE PUSH1 0x12 PUSH1 0x4 MSTORE PUSH1 0x24 PUSH1 0x0 REVERT JUMPDEST PUSH32 0x5061757361626C653A206E6F7420706175736564000000000000000000000000 PUSH1 0x0 DUP3 ADD MSTORE POP JUMP JUMPDEST PUSH1 0x0 PUSH2 0x55F5 PUSH1 0x14 DUP4 PUSH2 0x4025 JUMP JUMPDEST SWAP2 POP PUSH2 0x5600 DUP3 PUSH2 0x55BF JUMP JUMPDEST PUSH1 0x20 DUP3 ADD SWAP1 POP SWAP2 SWAP1 POP JUMP JUMPDEST PUSH1 0x0 PUSH1 0x20 DUP3 ADD SWAP1 POP DUP2 DUP2 SUB PUSH1 0x0 DUP4 ADD MSTORE PUSH2 0x5624 DUP2 PUSH2 0x55E8 JUMP JUMPDEST SWAP1 POP SWAP2 SWAP1 POP JUMP JUMPDEST PUSH1 0x0 PUSH1 0x40 DUP3 ADD SWAP1 POP PUSH2 0x5640 PUSH1 0x0 DUP4 ADD DUP6 PUSH2 0x41F7 JUMP JUMPDEST PUSH2 0x564D PUSH1 0x20 DUP4 ADD DUP5 PUSH2 0x41F7 JUMP JUMPDEST SWAP4 SWAP3 POP POP POP JUMP JUMPDEST PUSH32 0x5061757361626C653A2070617573656400000000000000000000000000000000 PUSH1 0x0 DUP3 ADD MSTORE POP JUMP JUMPDEST PUSH1 0x0 PUSH2 0x568A PUSH1 0x10 DUP4 PUSH2 0x4025 JUMP JUMPDEST SWAP2 POP PUSH2 0x5695 DUP3 PUSH2 0x5654 JUMP JUMPDEST PUSH1 0x20 DUP3 ADD SWAP1 POP SWAP2 SWAP1 POP JUMP JUMPDEST PUSH1 0x0 PUSH1 0x20 DUP3 ADD SWAP1 POP DUP2 DUP2 SUB PUSH1 0x0 DUP4 ADD MSTORE PUSH2 0x56B9 DUP2 PUSH2 0x567D JUMP JUMPDEST SWAP1 POP SWAP2 SWAP1 POP JUMP JUMPDEST PUSH1 0x0 DUP2 MLOAD SWAP1 POP SWAP2 SWAP1 POP JUMP JUMPDEST PUSH1 0x0 DUP3 DUP3 MSTORE PUSH1 0x20 DUP3 ADD SWAP1 POP SWAP3 SWAP2 POP POP JUMP JUMPDEST PUSH1 0x0 PUSH2 0x56E7 DUP3 PUSH2 0x56C0 JUMP JUMPDEST PUSH2 0x56F1 DUP2 DUP6 PUSH2 0x56CB JUMP JUMPDEST SWAP4 POP PUSH2 0x5701 DUP2 DUP6 PUSH1 0x20 DUP7 ADD PUSH2 0x4036 JUMP JUMPDEST PUSH2 0x570A DUP2 PUSH2 0x4060 JUMP JUMPDEST DUP5 ADD SWAP2 POP POP SWAP3 SWAP2 POP POP JUMP JUMPDEST PUSH1 0x0 PUSH1 0x80 DUP3 ADD SWAP1 POP PUSH2 0x572A PUSH1 0x0 DUP4 ADD DUP8 PUSH2 0x4161 JUMP JUMPDEST PUSH2 0x5737 PUSH1 0x20 DUP4 ADD DUP7 PUSH2 0x4161 JUMP JUMPDEST PUSH2 0x5744 PUSH1 0x40 DUP4 ADD DUP6 PUSH2 0x41F7 JUMP JUMPDEST DUP2 DUP2 SUB PUSH1 0x60 DUP4 ADD MSTORE PUSH2 0x5756 DUP2 DUP5 PUSH2 0x56DC JUMP JUMPDEST SWAP1 POP SWAP6 SWAP5 POP POP POP POP POP JUMP JUMPDEST PUSH1 0x0 DUP2 MLOAD SWAP1 POP PUSH2 0x5770 DUP2 PUSH2 0x3F8B JUMP JUMPDEST SWAP3 SWAP2 POP POP JUMP JUMPDEST PUSH1 0x0 PUSH1 0x20 DUP3 DUP5 SUB SLT ISZERO PUSH2 0x578C JUMPI PUSH2 0x578B PUSH2 0x3F55 JUMP JUMPDEST JUMPDEST PUSH1 0x0 PUSH2 0x579A DUP5 DUP3 DUP6 ADD PUSH2 0x5761 JUMP JUMPDEST SWAP2 POP POP SWAP3 SWAP2 POP POP JUMP JUMPDEST PUSH32 0x1901000000000000000000000000000000000000000000000000000000000000 PUSH1 0x0 DUP3 ADD MSTORE POP JUMP JUMPDEST PUSH1 0x0 PUSH2 0x57D9 PUSH1 0x2 DUP4 PUSH2 0x513B JUMP JUMPDEST SWAP2 POP PUSH2 0x57E4 DUP3 PUSH2 0x57A3 JUMP JUMPDEST PUSH1 0x2 DUP3 ADD SWAP1 POP SWAP2 SWAP1 POP JUMP JUMPDEST PUSH1 0x0 DUP2 SWAP1 POP SWAP2 SWAP1 POP JUMP JUMPDEST PUSH2 0x580A PUSH2 0x5805 DUP3 PUSH2 0x4274 JUMP JUMPDEST PUSH2 0x57EF JUMP JUMPDEST DUP3 MSTORE POP POP JUMP JUMPDEST PUSH1 0x0 PUSH2 0x581B DUP3 PUSH2 0x57CC JUMP JUMPDEST SWAP2 POP PUSH2 0x5827 DUP3 DUP6 PUSH2 0x57F9 JUMP JUMPDEST PUSH1 0x20 DUP3 ADD SWAP2 POP PUSH2 0x5837 DUP3 DUP5 PUSH2 0x57F9 JUMP JUMPDEST PUSH1 0x20 DUP3 ADD SWAP2 POP DUP2 SWAP1 POP SWAP4 SWAP3 POP POP POP JUMP JUMPDEST PUSH2 0x5850 DUP2 PUSH2 0x44F9 JUMP JUMPDEST DUP3 MSTORE POP POP JUMP JUMPDEST PUSH1 0x0 PUSH1 0x80 DUP3 ADD SWAP1 POP PUSH2 0x586B PUSH1 0x0 DUP4 ADD DUP8 PUSH2 0x427E JUMP JUMPDEST PUSH2 0x5878 PUSH1 0x20 DUP4 ADD DUP7 PUSH2 0x5847 JUMP JUMPDEST PUSH2 0x5885 PUSH1 0x40 DUP4 ADD DUP6 PUSH2 0x427E JUMP JUMPDEST PUSH2 0x5892 PUSH1 0x60 DUP4 ADD DUP5 PUSH2 0x427E JUMP JUMPDEST SWAP6 SWAP5 POP POP POP POP POP JUMP JUMPDEST PUSH32 0x4E487B7100000000000000000000000000000000000000000000000000000000 PUSH1 0x0 MSTORE PUSH1 0x21 PUSH1 0x4 MSTORE PUSH1 0x24 PUSH1 0x0 REVERT JUMPDEST PUSH32 0x45434453413A20696E76616C6964207369676E61747572650000000000000000 PUSH1 0x0 DUP3 ADD MSTORE POP JUMP JUMPDEST PUSH1 0x0 PUSH2 0x5900 PUSH1 0x18 DUP4 PUSH2 0x4025 JUMP JUMPDEST SWAP2 POP PUSH2 0x590B DUP3 PUSH2 0x58CA JUMP JUMPDEST PUSH1 0x20 DUP3 ADD SWAP1 POP SWAP2 SWAP1 POP JUMP JUMPDEST PUSH1 0x0 PUSH1 0x20 DUP3 ADD SWAP1 POP DUP2 DUP2 SUB PUSH1 0x0 DUP4 ADD MSTORE PUSH2 0x592F DUP2 PUSH2 0x58F3 JUMP JUMPDEST SWAP1 POP SWAP2 SWAP1 POP JUMP JUMPDEST PUSH32 0x45434453413A20696E76616C6964207369676E6174757265206C656E67746800 PUSH1 0x0 DUP3 ADD MSTORE POP JUMP JUMPDEST PUSH1 0x0 PUSH2 0x596C PUSH1 0x1F DUP4 PUSH2 0x4025 JUMP JUMPDEST SWAP2 POP PUSH2 0x5977 DUP3 PUSH2 0x5936 JUMP JUMPDEST PUSH1 0x20 DUP3 ADD SWAP1 POP SWAP2 SWAP1 POP JUMP JUMPDEST PUSH1 0x0 PUSH1 0x20 DUP3 ADD SWAP1 POP DUP2 DUP2 SUB PUSH1 0x0 DUP4 ADD MSTORE PUSH2 0x599B DUP2 PUSH2 0x595F JUMP JUMPDEST SWAP1 POP SWAP2 SWAP1 POP JUMP JUMPDEST PUSH32 0x45434453413A20696E76616C6964207369676E6174757265202773272076616C PUSH1 0x0 DUP3 ADD MSTORE PUSH32 0x7565000000000000000000000000000000000000000000000000000000000000 PUSH1 0x20 DUP3 ADD MSTORE POP JUMP JUMPDEST PUSH1 0x0 PUSH2 0x59FE PUSH1 0x22 DUP4 PUSH2 0x4025 JUMP JUMPDEST SWAP2 POP PUSH2 0x5A09 DUP3 PUSH2 0x59A2 JUMP JUMPDEST PUSH1 0x40 DUP3 ADD SWAP1 POP SWAP2 SWAP1 POP JUMP JUMPDEST PUSH1 0x0 PUSH1 0x20 DUP3 ADD SWAP1 POP DUP2 DUP2 SUB PUSH1 0x0 DUP4 ADD MSTORE PUSH2 0x5A2D DUP2 PUSH2 0x59F1 JUMP JUMPDEST SWAP1 POP SWAP2 SWAP1 POP JUMP JUMPDEST PUSH32 0x455243373231456E756D657261626C653A20636F6E7365637574697665207472 PUSH1 0x0 DUP3 ADD MSTORE PUSH32 0x616E7366657273206E6F7420737570706F727465640000000000000000000000 PUSH1 0x20 DUP3 ADD MSTORE POP JUMP JUMPDEST PUSH1 0x0 PUSH2 0x5A90 PUSH1 0x35 DUP4 PUSH2 0x4025 JUMP JUMPDEST SWAP2 POP PUSH2 0x5A9B DUP3 PUSH2 0x5A34 JUMP JUMPDEST PUSH1 0x40 DUP3 ADD SWAP1 POP SWAP2 SWAP1 POP JUMP JUMPDEST PUSH1 0x0 PUSH1 0x20 DUP3 ADD SWAP1 POP DUP2 DUP2 SUB PUSH1 0x0 DUP4 ADD MSTORE PUSH2 0x5ABF DUP2 PUSH2 0x5A83 JUMP JUMPDEST SWAP1 POP SWAP2 SWAP1 POP JUMP JUMPDEST PUSH1 0x0 PUSH2 0x5AD1 DUP3 PUSH2 0x40CC JUMP JUMPDEST SWAP2 POP PUSH2 0x5ADC DUP4 PUSH2 0x40CC JUMP JUMPDEST SWAP3 POP DUP3 PUSH2 0x5AEC JUMPI PUSH2 0x5AEB PUSH2 0x5590 JUMP JUMPDEST JUMPDEST DUP3 DUP3 DIV SWAP1 POP SWAP3 SWAP2 POP POP JUMP JUMPDEST PUSH32 0x4552433732313A206D696E7420746F20746865207A65726F2061646472657373 PUSH1 0x0 DUP3 ADD MSTORE POP JUMP JUMPDEST PUSH1 0x0 PUSH2 0x5B2D PUSH1 0x20 DUP4 PUSH2 0x4025 JUMP JUMPDEST SWAP2 POP PUSH2 0x5B38 DUP3 PUSH2 0x5AF7 JUMP JUMPDEST PUSH1 0x20 DUP3 ADD SWAP1 POP SWAP2 SWAP1 POP JUMP JUMPDEST PUSH1 0x0 PUSH1 0x20 DUP3 ADD SWAP1 POP DUP2 DUP2 SUB PUSH1 0x0 DUP4 ADD MSTORE PUSH2 0x5B5C DUP2 PUSH2 0x5B20 JUMP JUMPDEST SWAP1 POP SWAP2 SWAP1 POP JUMP JUMPDEST PUSH32 0x4552433732313A20746F6B656E20616C7265616479206D696E74656400000000 PUSH1 0x0 DUP3 ADD MSTORE POP JUMP JUMPDEST PUSH1 0x0 PUSH2 0x5B99 PUSH1 0x1C DUP4 PUSH2 0x4025 JUMP JUMPDEST SWAP2 POP PUSH2 0x5BA4 DUP3 PUSH2 0x5B63 JUMP JUMPDEST PUSH1 0x20 DUP3 ADD SWAP1 POP SWAP2 SWAP1 POP JUMP JUMPDEST PUSH1 0x0 PUSH1 0x20 DUP3 ADD SWAP1 POP DUP2 DUP2 SUB PUSH1 0x0 DUP4 ADD MSTORE PUSH2 0x5BC8 DUP2 PUSH2 0x5B8C JUMP JUMPDEST SWAP1 POP SWAP2 SWAP1 POP JUMP JUMPDEST PUSH32 0x4E487B7100000000000000000000000000000000000000000000000000000000 PUSH1 0x0 MSTORE PUSH1 0x31 PUSH1 0x4 MSTORE PUSH1 0x24 PUSH1 0x0 REVERT JUMPDEST PUSH32 0x53616665436173743A2076616C756520646F65736E27742066697420696E2032 PUSH1 0x0 DUP3 ADD MSTORE PUSH32 0x3234206269747300000000000000000000000000000000000000000000000000 PUSH1 0x20 DUP3 ADD MSTORE POP JUMP JUMPDEST PUSH1 0x0 PUSH2 0x5C5A PUSH1 0x27 DUP4 PUSH2 0x4025 JUMP JUMPDEST SWAP2 POP PUSH2 0x5C65 DUP3 PUSH2 0x5BFE JUMP JUMPDEST PUSH1 0x40 DUP3 ADD SWAP1 POP SWAP2 SWAP1 POP JUMP JUMPDEST PUSH1 0x0 PUSH1 0x20 DUP3 ADD SWAP1 POP DUP2 DUP2 SUB PUSH1 0x0 DUP4 ADD MSTORE PUSH2 0x5C89 DUP2 PUSH2 0x5C4D JUMP JUMPDEST SWAP1 POP SWAP2 SWAP1 POP JUMP JUMPDEST PUSH32 0x436865636B706F696E743A20696E76616C6964206B6579000000000000000000 PUSH1 0x0 DUP3 ADD MSTORE POP JUMP JUMPDEST PUSH1 0x0 PUSH2 0x5CC6 PUSH1 0x17 DUP4 PUSH2 0x4025 JUMP JUMPDEST SWAP2 POP PUSH2 0x5CD1 DUP3 PUSH2 0x5C90 JUMP JUMPDEST PUSH1 0x20 DUP3 ADD SWAP1 POP SWAP2 SWAP1 POP JUMP JUMPDEST PUSH1 0x0 PUSH1 0x20 DUP3 ADD SWAP1 POP DUP2 DUP2 SUB PUSH1 0x0 DUP4 ADD MSTORE PUSH2 0x5CF5 DUP2 PUSH2 0x5CB9 JUMP JUMPDEST SWAP1 POP SWAP2 SWAP1 POP JUMP INVALID LOG2 PUSH5 0x6970667358 0x22 SLT KECCAK256 XOR 0x5F ISZERO SWAP12 JUMPDEST PUSH29 0xCE7B371ABA2D01653EBF296734D9DB0C4203E5971BE447C1639864736F PUSH13 0x63430008120033000000000000 "
		},
		"gasEstimates": {
			"creation": {
				"codeDepositCost": "4771600",
				"executionCost": "infinite",
				"totalCost": "infinite"
			},
			"external": {
				"DOMAIN_SEPARATOR()": "infinite",
				"approve(address,uint256)": "infinite",
				"balanceOf(address)": "2944",
				"burn(uint256)": "infinite",
				"delegate(address)": "infinite",
				"delegateBySig(address,uint256,uint256,uint8,bytes32,bytes32)": "infinite",
				"delegates(address)": "infinite",
				"getApproved(uint256)": "5323",
				"getPastTotalSupply(uint256)": "infinite",
				"getPastVotes(address,uint256)": "infinite",
				"getVotes(address)": "infinite",
				"isApprovedForAll(address,address)": "infinite",
				"name()": "infinite",
				"nonces(address)": "3002",
				"owner()": "2639",
				"ownerOf(uint256)": "3045",
				"pause()": "infinite",
				"paused()": "2590",
				"renounceOwnership()": "30638",
				"safeMint(address,string)": "infinite",
				"safeTransferFrom(address,address,uint256)": "infinite",
				"safeTransferFrom(address,address,uint256,bytes)": "infinite",
				"setApprovalForAll(address,bool)": "infinite",
				"supportsInterface(bytes4)": "952",
				"symbol()": "infinite",
				"tokenByIndex(uint256)": "infinite",
				"tokenOfOwnerByIndex(address,uint256)": "infinite",
				"tokenURI(uint256)": "infinite",
				"totalSupply()": "2491",
				"transferFrom(address,address,uint256)": "infinite",
				"transferOwnership(address)": "31004",
				"unpause()": "infinite"
			},
			"internal": {
				"_afterTokenTransfer(address,address,uint256,uint256)": "infinite",
				"_baseURI()": "infinite",
				"_beforeTokenTransfer(address,address,uint256,uint256)": "infinite",
				"_burn(uint256)": "infinite"
			}
		},
		"methodIdentifiers": {
			"DOMAIN_SEPARATOR()": "3644e515",
			"approve(address,uint256)": "095ea7b3",
			"balanceOf(address)": "70a08231",
			"burn(uint256)": "42966c68",
			"delegate(address)": "5c19a95c",
			"delegateBySig(address,uint256,uint256,uint8,bytes32,bytes32)": "c3cda520",
			"delegates(address)": "587cde1e",
			"getApproved(uint256)": "081812fc",
			"getPastTotalSupply(uint256)": "8e539e8c",
			"getPastVotes(address,uint256)": "3a46b1a8",
			"getVotes(address)": "9ab24eb0",
			"isApprovedForAll(address,address)": "e985e9c5",
			"name()": "06fdde03",
			"nonces(address)": "7ecebe00",
			"owner()": "8da5cb5b",
			"ownerOf(uint256)": "6352211e",
			"pause()": "8456cb59",
			"paused()": "5c975abb",
			"renounceOwnership()": "715018a6",
			"safeMint(address,string)": "d204c45e",
			"safeTransferFrom(address,address,uint256)": "42842e0e",
			"safeTransferFrom(address,address,uint256,bytes)": "b88d4fde",
			"setApprovalForAll(address,bool)": "a22cb465",
			"supportsInterface(bytes4)": "01ffc9a7",
			"symbol()": "95d89b41",
			"tokenByIndex(uint256)": "4f6ccce7",
			"tokenOfOwnerByIndex(address,uint256)": "2f745c59",
			"tokenURI(uint256)": "c87b56dd",
			"totalSupply()": "18160ddd",
			"transferFrom(address,address,uint256)": "23b872dd",
			"transferOwnership(address)": "f2fde38b",
			"unpause()": "3f4ba83a"
		}
	},
	"abi": [
		{
			"inputs": [],
			"stateMutability": "nonpayable",
			"type": "constructor"
		},
		{
			"anonymous": false,
			"inputs": [
				{
					"indexed": true,
					"internalType": "address",
					"name": "owner",
					"type": "address"
				},
				{
					"indexed": true,
					"internalType": "address",
					"name": "approved",
					"type": "address"
				},
				{
					"indexed": true,
					"internalType": "uint256",
					"name": "tokenId",
					"type": "uint256"
				}
			],
			"name": "Approval",
			"type": "event"
		},
		{
			"anonymous": false,
			"inputs": [
				{
					"indexed": true,
					"internalType": "address",
					"name": "owner",
					"type": "address"
				},
				{
					"indexed": true,
					"internalType": "address",
					"name": "operator",
					"type": "address"
				},
				{
					"indexed": false,
					"internalType": "bool",
					"name": "approved",
					"type": "bool"
				}
			],
			"name": "ApprovalForAll",
			"type": "event"
		},
		{
			"anonymous": false,
			"inputs": [
				{
					"indexed": true,
					"internalType": "address",
					"name": "delegator",
					"type": "address"
				},
				{
					"indexed": true,
					"internalType": "address",
					"name": "fromDelegate",
					"type": "address"
				},
				{
					"indexed": true,
					"internalType": "address",
					"name": "toDelegate",
					"type": "address"
				}
			],
			"name": "DelegateChanged",
			"type": "event"
		},
		{
			"anonymous": false,
			"inputs": [
				{
					"indexed": true,
					"internalType": "address",
					"name": "delegate",
					"type": "address"
				},
				{
					"indexed": false,
					"internalType": "uint256",
					"name": "previousBalance",
					"type": "uint256"
				},
				{
					"indexed": false,
					"internalType": "uint256",
					"name": "newBalance",
					"type": "uint256"
				}
			],
			"name": "DelegateVotesChanged",
			"type": "event"
		},
		{
			"anonymous": false,
			"inputs": [
				{
					"indexed": true,
					"internalType": "address",
					"name": "previousOwner",
					"type": "address"
				},
				{
					"indexed": true,
					"internalType": "address",
					"name": "newOwner",
					"type": "address"
				}
			],
			"name": "OwnershipTransferred",
			"type": "event"
		},
		{
			"anonymous": false,
			"inputs": [
				{
					"indexed": false,
					"internalType": "address",
					"name": "account",
					"type": "address"
				}
			],
			"name": "Paused",
			"type": "event"
		},
		{
			"anonymous": false,
			"inputs": [
				{
					"indexed": true,
					"internalType": "address",
					"name": "from",
					"type": "address"
				},
				{
					"indexed": true,
					"internalType": "address",
					"name": "to",
					"type": "address"
				},
				{
					"indexed": true,
					"internalType": "uint256",
					"name": "tokenId",
					"type": "uint256"
				}
			],
			"name": "Transfer",
			"type": "event"
		},
		{
			"anonymous": false,
			"inputs": [
				{
					"indexed": false,
					"internalType": "address",
					"name": "account",
					"type": "address"
				}
			],
			"name": "Unpaused",
			"type": "event"
		},
		{
			"inputs": [],
			"name": "DOMAIN_SEPARATOR",
			"outputs": [
				{
					"internalType": "bytes32",
					"name": "",
					"type": "bytes32"
				}
			],
			"stateMutability": "view",
			"type": "function"
		},
		{
			"inputs": [
				{
					"internalType": "address",
					"name": "to",
					"type": "address"
				},
				{
					"internalType": "uint256",
					"name": "tokenId",
					"type": "uint256"
				}
			],
			"name": "approve",
			"outputs": [],
			"stateMutability": "nonpayable",
			"type": "function"
		},
		{
			"inputs": [
				{
					"internalType": "address",
					"name": "owner",
					"type": "address"
				}
			],
			"name": "balanceOf",
			"outputs": [
				{
					"internalType": "uint256",
					"name": "",
					"type": "uint256"
				}
			],
			"stateMutability": "view",
			"type": "function"
		},
		{
			"inputs": [
				{
					"internalType": "uint256",
					"name": "tokenId",
					"type": "uint256"
				}
			],
			"name": "burn",
			"outputs": [],
			"stateMutability": "nonpayable",
			"type": "function"
		},
		{
			"inputs": [
				{
					"internalType": "address",
					"name": "delegatee",
					"type": "address"
				}
			],
			"name": "delegate",
			"outputs": [],
			"stateMutability": "nonpayable",
			"type": "function"
		},
		{
			"inputs": [
				{
					"internalType": "address",
					"name": "delegatee",
					"type": "address"
				},
				{
					"internalType": "uint256",
					"name": "nonce",
					"type": "uint256"
				},
				{
					"internalType": "uint256",
					"name": "expiry",
					"type": "uint256"
				},
				{
					"internalType": "uint8",
					"name": "v",
					"type": "uint8"
				},
				{
					"internalType": "bytes32",
					"name": "r",
					"type": "bytes32"
				},
				{
					"internalType": "bytes32",
					"name": "s",
					"type": "bytes32"
				}
			],
			"name": "delegateBySig",
			"outputs": [],
			"stateMutability": "nonpayable",
			"type": "function"
		},
		{
			"inputs": [
				{
					"internalType": "address",
					"name": "account",
					"type": "address"
				}
			],
			"name": "delegates",
			"outputs": [
				{
					"internalType": "address",
					"name": "",
					"type": "address"
				}
			],
			"stateMutability": "view",
			"type": "function"
		},
		{
			"inputs": [
				{
					"internalType": "uint256",
					"name": "tokenId",
					"type": "uint256"
				}
			],
			"name": "getApproved",
			"outputs": [
				{
					"internalType": "address",
					"name": "",
					"type": "address"
				}
			],
			"stateMutability": "view",
			"type": "function"
		},
		{
			"inputs": [
				{
					"internalType": "uint256",
					"name": "blockNumber",
					"type": "uint256"
				}
			],
			"name": "getPastTotalSupply",
			"outputs": [
				{
					"internalType": "uint256",
					"name": "",
					"type": "uint256"
				}
			],
			"stateMutability": "view",
			"type": "function"
		},
		{
			"inputs": [
				{
					"internalType": "address",
					"name": "account",
					"type": "address"
				},
				{
					"internalType": "uint256",
					"name": "blockNumber",
					"type": "uint256"
				}
			],
			"name": "getPastVotes",
			"outputs": [
				{
					"internalType": "uint256",
					"name": "",
					"type": "uint256"
				}
			],
			"stateMutability": "view",
			"type": "function"
		},
		{
			"inputs": [
				{
					"internalType": "address",
					"name": "account",
					"type": "address"
				}
			],
			"name": "getVotes",
			"outputs": [
				{
					"internalType": "uint256",
					"name": "",
					"type": "uint256"
				}
			],
			"stateMutability": "view",
			"type": "function"
		},
		{
			"inputs": [
				{
					"internalType": "address",
					"name": "owner",
					"type": "address"
				},
				{
					"internalType": "address",
					"name": "operator",
					"type": "address"
				}
			],
			"name": "isApprovedForAll",
			"outputs": [
				{
					"internalType": "bool",
					"name": "",
					"type": "bool"
				}
			],
			"stateMutability": "view",
			"type": "function"
		},
		{
			"inputs": [],
			"name": "name",
			"outputs": [
				{
					"internalType": "string",
					"name": "",
					"type": "string"
				}
			],
			"stateMutability": "view",
			"type": "function"
		},
		{
			"inputs": [
				{
					"internalType": "address",
					"name": "owner",
					"type": "address"
				}
			],
			"name": "nonces",
			"outputs": [
				{
					"internalType": "uint256",
					"name": "",
					"type": "uint256"
				}
			],
			"stateMutability": "view",
			"type": "function"
		},
		{
			"inputs": [],
			"name": "owner",
			"outputs": [
				{
					"internalType": "address",
					"name": "",
					"type": "address"
				}
			],
			"stateMutability": "view",
			"type": "function"
		},
		{
			"inputs": [
				{
					"internalType": "uint256",
					"name": "tokenId",
					"type": "uint256"
				}
			],
			"name": "ownerOf",
			"outputs": [
				{
					"internalType": "address",
					"name": "",
					"type": "address"
				}
			],
			"stateMutability": "view",
			"type": "function"
		},
		{
			"inputs": [],
			"name": "pause",
			"outputs": [],
			"stateMutability": "nonpayable",
			"type": "function"
		},
		{
			"inputs": [],
			"name": "paused",
			"outputs": [
				{
					"internalType": "bool",
					"name": "",
					"type": "bool"
				}
			],
			"stateMutability": "view",
			"type": "function"
		},
		{
			"inputs": [],
			"name": "renounceOwnership",
			"outputs": [],
			"stateMutability": "nonpayable",
			"type": "function"
		},
		{
			"inputs": [
				{
					"internalType": "address",
					"name": "to",
					"type": "address"
				},
				{
					"internalType": "string",
					"name": "uri",
					"type": "string"
				}
			],
			"name": "safeMint",
			"outputs": [],
			"stateMutability": "nonpayable",
			"type": "function"
		},
		{
			"inputs": [
				{
					"internalType": "address",
					"name": "from",
					"type": "address"
				},
				{
					"internalType": "address",
					"name": "to",
					"type": "address"
				},
				{
					"internalType": "uint256",
					"name": "tokenId",
					"type": "uint256"
				}
			],
			"name": "safeTransferFrom",
			"outputs": [],
			"stateMutability": "nonpayable",
			"type": "function"
		},
		{
			"inputs": [
				{
					"internalType": "address",
					"name": "from",
					"type": "address"
				},
				{
					"internalType": "address",
					"name": "to",
					"type": "address"
				},
				{
					"internalType": "uint256",
					"name": "tokenId",
					"type": "uint256"
				},
				{
					"internalType": "bytes",
					"name": "data",
					"type": "bytes"
				}
			],
			"name": "safeTransferFrom",
			"outputs": [],
			"stateMutability": "nonpayable",
			"type": "function"
		},
		{
			"inputs": [
				{
					"internalType": "address",
					"name": "operator",
					"type": "address"
				},
				{
					"internalType": "bool",
					"name": "approved",
					"type": "bool"
				}
			],
			"name": "setApprovalForAll",
			"outputs": [],
			"stateMutability": "nonpayable",
			"type": "function"
		},
		{
			"inputs": [
				{
					"internalType": "bytes4",
					"name": "interfaceId",
					"type": "bytes4"
				}
			],
			"name": "supportsInterface",
			"outputs": [
				{
					"internalType": "bool",
					"name": "",
					"type": "bool"
				}
			],
			"stateMutability": "view",
			"type": "function"
		},
		{
			"inputs": [],
			"name": "symbol",
			"outputs": [
				{
					"internalType": "string",
					"name": "",
					"type": "string"
				}
			],
			"stateMutability": "view",
			"type": "function"
		},
		{
			"inputs": [
				{
					"internalType": "uint256",
					"name": "index",
					"type": "uint256"
				}
			],
			"name": "tokenByIndex",
			"outputs": [
				{
					"internalType": "uint256",
					"name": "",
					"type": "uint256"
				}
			],
			"stateMutability": "view",
			"type": "function"
		},
		{
			"inputs": [
				{
					"internalType": "address",
					"name": "owner",
					"type": "address"
				},
				{
					"internalType": "uint256",
					"name": "index",
					"type": "uint256"
				}
			],
			"name": "tokenOfOwnerByIndex",
			"outputs": [
				{
					"internalType": "uint256",
					"name": "",
					"type": "uint256"
				}
			],
			"stateMutability": "view",
			"type": "function"
		},
		{
			"inputs": [
				{
					"internalType": "uint256",
					"name": "tokenId",
					"type": "uint256"
				}
			],
			"name": "tokenURI",
			"outputs": [
				{
					"internalType": "string",
					"name": "",
					"type": "string"
				}
			],
			"stateMutability": "view",
			"type": "function"
		},
		{
			"inputs": [],
			"name": "totalSupply",
			"outputs": [
				{
					"internalType": "uint256",
					"name": "",
					"type": "uint256"
				}
			],
			"stateMutability": "view",
			"type": "function"
		},
		{
			"inputs": [
				{
					"internalType": "address",
					"name": "from",
					"type": "address"
				},
				{
					"internalType": "address",
					"name": "to",
					"type": "address"
				},
				{
					"internalType": "uint256",
					"name": "tokenId",
					"type": "uint256"
				}
			],
			"name": "transferFrom",
			"outputs": [],
			"stateMutability": "nonpayable",
			"type": "function"
		},
		{
			"inputs": [
				{
					"internalType": "address",
					"name": "newOwner",
					"type": "address"
				}
			],
			"name": "transferOwnership",
			"outputs": [],
			"stateMutability": "nonpayable",
			"type": "function"
		},
		{
			"inputs": [],
			"name": "unpause",
			"outputs": [],
			"stateMutability": "nonpayable",
			"type": "function"
		}
	]
}