{
	"data": {
		"bytecode": {
			"linkReferences": {},
			"object": "610fe2610053600b82828239805160001a607314610046577f4e487b7100000000000000000000000000000000000000000000000000000000600052600060045260246000fd5b30600052607381538281f3fe73000000000000000000000000000000000000000030146080604052600436106102315760003560e01c80639ee580481161013a578063ca45f599116100c2578063ed944cb611610086578063ed944cb614610608578063eda1432314610638578063f41dc7d214610656578063f59528d214610674578063fd6428701461069257610231565b8063ca45f59914610572578063cb937d2b14610590578063cfc2abb7146105ae578063dbddb26a146105cc578063e93e980b146105ea57610231565b8063be8ca90511610109578063be8ca905146104dc578063beb9e75e146104fa578063bf0832ae14610518578063c244e88b14610536578063c525c0c81461055457610231565b80639ee5804814610464578063a1bd4a0714610482578063a1d2002d146104a0578063a83179db146104be57610231565b80635e28c936116101bd578063828d481b1161018c578063828d481b146103bc5780638d1da411146103da5780638f5236e5146103f8578063970f6e2f14610428578063971cba961461044657610231565b80635e28c936146103445780636871d79f146103625780636b606f0f14610380578063811d5c6c1461039e57610231565b806332a415061161020457806332a41506146102ae57806338d79b52146102cc5780634e2ecca1146102ea57806358a0d923146103085780635e09346a1461032657610231565b806310a309f31461023657806311f47eb5146102545780631ab7730c146102725780631eb1a2d314610290575b600080fd5b61023e6106c2565b60405161024b9190610c49565b60405180910390f35b61025c6106c7565b6040516102699190610c49565b60405180910390f35b61027a6106cd565b6040516102879190610c49565b60405180910390f35b6102986106d3565b6040516102a59190610cf4565b60405180910390f35b6102b661070c565b6040516102c39190610c49565b60405180910390f35b6102d4610711565b6040516102e19190610c49565b60405180910390f35b6102f2610716565b6040516102ff9190610d2f565b60405180910390f35b610310610722565b60405161031d9190610c49565b60405180910390f35b61032e610727565b60405161033b9190610c49565b60405180910390f35b61034c61072c565b6040516103599190610c49565b60405180910390f35b61036a610731565b6040516103779190610cf4565b60405180910390f35b61038861076a565b6040516103959190610c49565b60405180910390f35b6103a6610770565b6040516103b39190610cf4565b60405180910390f35b6103c46107a9565b6040516103d19190610c49565b60405180910390f35b6103e26107ae565b6040516103ef9190610c49565b60405180910390f35b610412600480360381019061040d9190610d74565b6107b3565b60405161041f9190610cf4565b60405180910390f35b610430610a05565b60405161043d9190610c49565b60405180910390f35b61044e610a0a565b60405161045b9190610c49565b60405180910390f35b61046c610a10565b6040516104799190610d2f565b60405180910390f35b61048a610a1b565b6040516104979190610c49565b60405180910390f35b6104a8610a20565b6040516104b59190610c49565b60405180910390f35b6104c6610a26565b6040516104d39190610c49565b60405180910390f35b6104e4610a2b565b6040516104f19190610d2f565b60405180910390f35b610502610a37565b60405161050f9190610d2f565b60405180910390f35b610520610a42565b60405161052d9190610c49565b60405180910390f35b61053e610a47565b60405161054b9190610cf4565b60405180910390f35b61055c610a80565b6040516105699190610c49565b60405180910390f35b61057a610a86565b6040516105879190610c49565b60405180910390f35b610598610a8c565b6040516105a59190610c49565b60405180910390f35b6105b6610a92565b6040516105c39190610cf4565b60405180910390f35b6105d4610acb565b6040516105e19190610cf4565b60405180910390f35b6105f2610b04565b6040516105ff9190610c49565b60405180910390f35b610622600480360381019061061d9190610dcd565b610b09565b60405161062f9190610e71565b60405180910390f35b610640610c03565b60405161064d9190610ea8565b60405180910390f35b61065e610c08565b60405161066b9190610c49565b60405180910390f35b61067c610c0d565b6040516106899190610c49565b60405180910390f35b6106ac60048036038101906106a79190610dcd565b610c12565b6040516106b99190610cf4565b60405180910390f35b607e81565b61027381565b61061881565b6040518060400160405280601081526020017f2f6c6567656e642f6d657461646174610000000000000000000000000000000081525081565b60b581565b600a81565b6716c2734f97a4000081565b600081565b603281565b601981565b6040518060400160405280601281526020017f2f756e636f6d6d6f6e2f6d65746164617461000000000000000000000000000081525081565b61203a81565b6040518060400160405280601081526020017f2f636f6d6d6f6e2f6d657461646174610000000000000000000000000000000081525081565b607d81565b600181565b6060600060048111156107c9576107c8610dfa565b5b8260048111156107dc576107db610dfa565b5b0361081e576040518060400160405280600481526020017f4865726f000000000000000000000000000000000000000000000000000000008152509050610a00565b6001600481111561083257610831610dfa565b5b82600481111561084557610844610dfa565b5b03610887576040518060400160405280600681526020017f4c6567656e64000000000000000000000000000000000000000000000000000081525090506109ff565b6002600481111561089b5761089a610dfa565b5b8260048111156108ae576108ad610dfa565b5b036108f0576040518060400160405280600481526020017f526172650000000000000000000000000000000000000000000000000000000081525090506109fe565b6003600481111561090457610903610dfa565b5b82600481111561091757610916610dfa565b5b03610959576040518060400160405280600881526020017f556e636f6d6d6f6e00000000000000000000000000000000000000000000000081525090506109fd565b60048081111561096c5761096b610dfa565b5b82600481111561097f5761097e610dfa565b5b036109c1576040518060400160405280600681526020017f436f6d6d6f6e000000000000000000000000000000000000000000000000000081525090506109fc565b6040517f08c379a00000000000000000000000000000000000000000000000000000000081526004016109f390610f20565b60405180910390fd5b5b5b5b5b919050565b600581565b610c3881565b66ea7aa67b2d000081565b601981565b6107d081565b600081565b670494654067e1000081565b662e2f6e5e14800081565b605081565b6040518060400160405280600e81526020017f2f726172652f6d6574616461746100000000000000000000000000000000000081525081565b6104e281565b61019081565b61168a81565b6040518060400160405280600e81526020017f2f6865726f2f6d6574616461746100000000000000000000000000000000000081525081565b6040518060400160405280601581526020017f697066733a2f2f3c686173683e2f646f612f6e6674000000000000000000000081525081565b601981565b60008061ffff168210158015610b235750601961ffff1682105b15610b315760009050610bfe565b601961ffff168210158015610b4a5750607e61ffff1682105b15610b585760019050610bfd565b607e61ffff168210158015610b72575061027361ffff1682105b15610b805760029050610bfc565b61027361ffff168210158015610b9b5750610c3861ffff1682105b15610ba95760039050610bfb565b610c3861ffff168210610bbf5760049050610bfa565b6040517f08c379a0000000000000000000000000000000000000000000000000000000008152600401610bf190610f8c565b60405180910390fd5b5b5b5b5b919050565b603c81565b600081565b60fa81565b6060610c25610c2083610b09565b6107b3565b9050919050565b600061ffff82169050919050565b610c4381610c2c565b82525050565b6000602082019050610c5e6000830184610c3a565b92915050565b600081519050919050565b600082825260208201905092915050565b60005b83811015610c9e578082015181840152602081019050610c83565b60008484015250505050565b6000601f19601f8301169050919050565b6000610cc682610c64565b610cd08185610c6f565b9350610ce0818560208601610c80565b610ce981610caa565b840191505092915050565b60006020820190508181036000830152610d0e8184610cbb565b905092915050565b6000819050919050565b610d2981610d16565b82525050565b6000602082019050610d446000830184610d20565b92915050565b600080fd5b60058110610d5c57600080fd5b50565b600081359050610d6e81610d4f565b92915050565b600060208284031215610d8a57610d89610d4a565b5b6000610d9884828501610d5f565b91505092915050565b610daa81610d16565b8114610db557600080fd5b50565b600081359050610dc781610da1565b92915050565b600060208284031215610de357610de2610d4a565b5b6000610df184828501610db8565b91505092915050565b7f4e487b7100000000000000000000000000000000000000000000000000000000600052602160045260246000fd5b60058110610e3a57610e39610dfa565b5b50565b6000819050610e4b82610e29565b919050565b6000610e5b82610e3d565b9050919050565b610e6b81610e50565b82525050565b6000602082019050610e866000830184610e62565b92915050565b600060ff82169050919050565b610ea281610e8c565b82525050565b6000602082019050610ebd6000830184610e99565b92915050565b600082825260208201905092915050565b7f496e76616c696420746f6b656e20636c61737300000000000000000000000000600082015250565b6000610f0a601383610ec3565b9150610f1582610ed4565b602082019050919050565b60006020820190508181036000830152610f3981610efd565b9050919050565b7f496e76616c696420746f6b656e20494400000000000000000000000000000000600082015250565b6000610f76601083610ec3565b9150610f8182610f40565b602082019050919050565b60006020820190508181036000830152610fa581610f69565b905091905056fea2646970667358221220828342db4a149f8e4a097ffe5d0e63eacd58cf6464a897b8889a538dd1846cc364736f6c63430008130033",
			"opcodes": "PUSH2 0xFE2 PUSH2 0x53 PUSH1 0xB DUP3 DUP3 DUP3 CODECOPY DUP1 MLOAD PUSH1 0x0 BYTE PUSH1 0x73 EQ PUSH2 0x46 JUMPI PUSH32 0x4E487B7100000000000000000000000000000000000000000000000000000000 PUSH1 0x0 MSTORE PUSH1 0x0 PUSH1 0x4 MSTORE PUSH1 0x24 PUSH1 0x0 REVERT JUMPDEST ADDRESS PUSH1 0x0 MSTORE PUSH1 0x73 DUP2 MSTORE8 DUP3 DUP2 RETURN INVALID PUSH20 0x0 ADDRESS EQ PUSH1 0x80 PUSH1 0x40 MSTORE PUSH1 0x4 CALLDATASIZE LT PUSH2 0x231 JUMPI PUSH1 0x0 CALLDATALOAD PUSH1 0xE0 SHR DUP1 PUSH4 0x9EE58048 GT PUSH2 0x13A JUMPI DUP1 PUSH4 0xCA45F599 GT PUSH2 0xC2 JUMPI DUP1 PUSH4 0xED944CB6 GT PUSH2 0x86 JUMPI DUP1 PUSH4 0xED944CB6 EQ PUSH2 0x608 JUMPI DUP1 PUSH4 0xEDA14323 EQ PUSH2 0x638 JUMPI DUP1 PUSH4 0xF41DC7D2 EQ PUSH2 0x656 JUMPI DUP1 PUSH4 0xF59528D2 EQ PUSH2 0x674 JUMPI DUP1 PUSH4 0xFD642870 EQ PUSH2 0x692 JUMPI PUSH2 0x231 JUMP JUMPDEST DUP1 PUSH4 0xCA45F599 EQ PUSH2 0x572 JUMPI DUP1 PUSH4 0xCB937D2B EQ PUSH2 0x590 JUMPI DUP1 PUSH4 0xCFC2ABB7 EQ PUSH2 0x5AE JUMPI DUP1 PUSH4 0xDBDDB26A EQ PUSH2 0x5CC JUMPI DUP1 PUSH4 0xE93E980B EQ PUSH2 0x5EA JUMPI PUSH2 0x231 JUMP JUMPDEST DUP1 PUSH4 0xBE8CA905 GT PUSH2 0x109 JUMPI DUP1 PUSH4 0xBE8CA905 EQ PUSH2 0x4DC JUMPI DUP1 PUSH4 0xBEB9E75E EQ PUSH2 0x4FA JUMPI DUP1 PUSH4 0xBF0832AE EQ PUSH2 0x518 JUMPI DUP1 PUSH4 0xC244E88B EQ PUSH2 0x536 JUMPI DUP1 PUSH4 0xC525C0C8 EQ PUSH2 0x554 JUMPI PUSH2 0x231 JUMP JUMPDEST DUP1 PUSH4 0x9EE58048 EQ PUSH2 0x464 JUMPI DUP1 PUSH4 0xA1BD4A07 EQ PUSH2 0x482 JUMPI DUP1 PUSH4 0xA1D2002D EQ PUSH2 0x4A0 JUMPI DUP1 PUSH4 0xA83179DB EQ PUSH2 0x4BE JUMPI PUSH2 0x231 JUMP JUMPDEST DUP1 PUSH4 0x5E28C936 GT PUSH2 0x1BD JUMPI DUP1 PUSH4 0x828D481B GT PUSH2 0x18C JUMPI DUP1 PUSH4 0x828D481B EQ PUSH2 0x3BC JUMPI DUP1 PUSH4 0x8D1DA411 EQ PUSH2 0x3DA JUMPI DUP1 PUSH4 0x8F5236E5 EQ PUSH2 0x3F8 JUMPI DUP1 PUSH4 0x970F6E2F EQ PUSH2 0x428 JUMPI DUP1 PUSH4 0x971CBA96 EQ PUSH2 0x446 JUMPI PUSH2 0x231 JUMP JUMPDEST DUP1 PUSH4 0x5E28C936 EQ PUSH2 0x344 JUMPI DUP1 PUSH4 0x6871D79F EQ PUSH2 0x362 JUMPI DUP1 PUSH4 0x6B606F0F EQ PUSH2 0x380 JUMPI DUP1 PUSH4 0x811D5C6C EQ PUSH2 0x39E JUMPI PUSH2 0x231 JUMP JUMPDEST DUP1 PUSH4 0x32A41506 GT PUSH2 0x204 JUMPI DUP1 PUSH4 0x32A41506 EQ PUSH2 0x2AE JUMPI DUP1 PUSH4 0x38D79B52 EQ PUSH2 0x2CC JUMPI DUP1 PUSH4 0x4E2ECCA1 EQ PUSH2 0x2EA JUMPI DUP1 PUSH4 0x58A0D923 EQ PUSH2 0x308 JUMPI DUP1 PUSH4 0x5E09346A EQ PUSH2 0x326 JUMPI PUSH2 0x231 JUMP JUMPDEST DUP1 PUSH4 0x10A309F3 EQ PUSH2 0x236 JUMPI DUP1 PUSH4 0x11F47EB5 EQ PUSH2 0x254 JUMPI DUP1 PUSH4 0x1AB7730C EQ PUSH2 0x272 JUMPI DUP1 PUSH4 0x1EB1A2D3 EQ PUSH2 0x290 JUMPI JUMPDEST PUSH1 0x0 DUP1 REVERT JUMPDEST PUSH2 0x23E PUSH2 0x6C2 JUMP JUMPDEST PUSH1 0x40 MLOAD PUSH2 0x24B SWAP2 SWAP1 PUSH2 0xC49 JUMP JUMPDEST PUSH1 0x40 MLOAD DUP1 SWAP2 SUB SWAP1 RETURN JUMPDEST PUSH2 0x25C PUSH2 0x6C7 JUMP JUMPDEST PUSH1 0x40 MLOAD PUSH2 0x269 SWAP2 SWAP1 PUSH2 0xC49 JUMP JUMPDEST PUSH1 0x40 MLOAD DUP1 SWAP2 SUB SWAP1 RETURN JUMPDEST PUSH2 0x27A PUSH2 0x6CD JUMP JUMPDEST PUSH1 0x40 MLOAD PUSH2 0x287 SWAP2 SWAP1 PUSH2 0xC49 JUMP JUMPDEST PUSH1 0x40 MLOAD DUP1 SWAP2 SUB SWAP1 RETURN JUMPDEST PUSH2 0x298 PUSH2 0x6D3 JUMP JUMPDEST PUSH1 0x40 MLOAD PUSH2 0x2A5 SWAP2 SWAP1 PUSH2 0xCF4 JUMP JUMPDEST PUSH1 0x40 MLOAD DUP1 SWAP2 SUB SWAP1 RETURN JUMPDEST PUSH2 0x2B6 PUSH2 0x70C JUMP JUMPDEST PUSH1 0x40 MLOAD PUSH2 0x2C3 SWAP2 SWAP1 PUSH2 0xC49 JUMP JUMPDEST PUSH1 0x40 MLOAD DUP1 SWAP2 SUB SWAP1 RETURN JUMPDEST PUSH2 0x2D4 PUSH2 0x711 JUMP JUMPDEST PUSH1 0x40 MLOAD PUSH2 0x2E1 SWAP2 SWAP1 PUSH2 0xC49 JUMP JUMPDEST PUSH1 0x40 MLOAD DUP1 SWAP2 SUB SWAP1 RETURN JUMPDEST PUSH2 0x2F2 PUSH2 0x716 JUMP JUMPDEST PUSH1 0x40 MLOAD PUSH2 0x2FF SWAP2 SWAP1 PUSH2 0xD2F JUMP JUMPDEST PUSH1 0x40 MLOAD DUP1 SWAP2 SUB SWAP1 RETURN JUMPDEST PUSH2 0x310 PUSH2 0x722 JUMP JUMPDEST PUSH1 0x40 MLOAD PUSH2 0x31D SWAP2 SWAP1 PUSH2 0xC49 JUMP JUMPDEST PUSH1 0x40 MLOAD DUP1 SWAP2 SUB SWAP1 RETURN JUMPDEST PUSH2 0x32E PUSH2 0x727 JUMP JUMPDEST PUSH1 0x40 MLOAD PUSH2 0x33B SWAP2 SWAP1 PUSH2 0xC49 JUMP JUMPDEST PUSH1 0x40 MLOAD DUP1 SWAP2 SUB SWAP1 RETURN JUMPDEST PUSH2 0x34C PUSH2 0x72C JUMP JUMPDEST PUSH1 0x40 MLOAD PUSH2 0x359 SWAP2 SWAP1 PUSH2 0xC49 JUMP JUMPDEST PUSH1 0x40 MLOAD DUP1 SWAP2 SUB SWAP1 RETURN JUMPDEST PUSH2 0x36A PUSH2 0x731 JUMP JUMPDEST PUSH1 0x40 MLOAD PUSH2 0x377 SWAP2 SWAP1 PUSH2 0xCF4 JUMP JUMPDEST PUSH1 0x40 MLOAD DUP1 SWAP2 SUB SWAP1 RETURN JUMPDEST PUSH2 0x388 PUSH2 0x76A JUMP JUMPDEST PUSH1 0x40 MLOAD PUSH2 0x395 SWAP2 SWAP1 PUSH2 0xC49 JUMP JUMPDEST PUSH1 0x40 MLOAD DUP1 SWAP2 SUB SWAP1 RETURN JUMPDEST PUSH2 0x3A6 PUSH2 0x770 JUMP JUMPDEST PUSH1 0x40 MLOAD PUSH2 0x3B3 SWAP2 SWAP1 PUSH2 0xCF4 JUMP JUMPDEST PUSH1 0x40 MLOAD DUP1 SWAP2 SUB SWAP1 RETURN JUMPDEST PUSH2 0x3C4 PUSH2 0x7A9 JUMP JUMPDEST PUSH1 0x40 MLOAD PUSH2 0x3D1 SWAP2 SWAP1 PUSH2 0xC49 JUMP JUMPDEST PUSH1 0x40 MLOAD DUP1 SWAP2 SUB SWAP1 RETURN JUMPDEST PUSH2 0x3E2 PUSH2 0x7AE JUMP JUMPDEST PUSH1 0x40 MLOAD PUSH2 0x3EF SWAP2 SWAP1 PUSH2 0xC49 JUMP JUMPDEST PUSH1 0x40 MLOAD DUP1 SWAP2 SUB SWAP1 RETURN JUMPDEST PUSH2 0x412 PUSH1 0x4 DUP1 CALLDATASIZE SUB DUP2 ADD SWAP1 PUSH2 0x40D SWAP2 SWAP1 PUSH2 0xD74 JUMP JUMPDEST PUSH2 0x7B3 JUMP JUMPDEST PUSH1 0x40 MLOAD PUSH2 0x41F SWAP2 SWAP1 PUSH2 0xCF4 JUMP JUMPDEST PUSH1 0x40 MLOAD DUP1 SWAP2 SUB SWAP1 RETURN JUMPDEST PUSH2 0x430 PUSH2 0xA05 JUMP JUMPDEST PUSH1 0x40 MLOAD PUSH2 0x43D SWAP2 SWAP1 PUSH2 0xC49 JUMP JUMPDEST PUSH1 0x40 MLOAD DUP1 SWAP2 SUB SWAP1 RETURN JUMPDEST PUSH2 0x44E PUSH2 0xA0A JUMP JUMPDEST PUSH1 0x40 MLOAD PUSH2 0x45B SWAP2 SWAP1 PUSH2 0xC49 JUMP JUMPDEST PUSH1 0x40 MLOAD DUP1 SWAP2 SUB SWAP1 RETURN JUMPDEST PUSH2 0x46C PUSH2 0xA10 JUMP JUMPDEST PUSH1 0x40 MLOAD PUSH2 0x479 SWAP2 SWAP1 PUSH2 0xD2F JUMP JUMPDEST PUSH1 0x40 MLOAD DUP1 SWAP2 SUB SWAP1 RETURN JUMPDEST PUSH2 0x48A PUSH2 0xA1B JUMP JUMPDEST PUSH1 0x40 MLOAD PUSH2 0x497 SWAP2 SWAP1 PUSH2 0xC49 JUMP JUMPDEST PUSH1 0x40 MLOAD DUP1 SWAP2 SUB SWAP1 RETURN JUMPDEST PUSH2 0x4A8 PUSH2 0xA20 JUMP JUMPDEST PUSH1 0x40 MLOAD PUSH2 0x4B5 SWAP2 SWAP1 PUSH2 0xC49 JUMP JUMPDEST PUSH1 0x40 MLOAD DUP1 SWAP2 SUB SWAP1 RETURN JUMPDEST PUSH2 0x4C6 PUSH2 0xA26 JUMP JUMPDEST PUSH1 0x40 MLOAD PUSH2 0x4D3 SWAP2 SWAP1 PUSH2 0xC49 JUMP JUMPDEST PUSH1 0x40 MLOAD DUP1 SWAP2 SUB SWAP1 RETURN JUMPDEST PUSH2 0x4E4 PUSH2 0xA2B JUMP JUMPDEST PUSH1 0x40 MLOAD PUSH2 0x4F1 SWAP2 SWAP1 PUSH2 0xD2F JUMP JUMPDEST PUSH1 0x40 MLOAD DUP1 SWAP2 SUB SWAP1 RETURN JUMPDEST PUSH2 0x502 PUSH2 0xA37 JUMP JUMPDEST PUSH1 0x40 MLOAD PUSH2 0x50F SWAP2 SWAP1 PUSH2 0xD2F JUMP JUMPDEST PUSH1 0x40 MLOAD DUP1 SWAP2 SUB SWAP1 RETURN JUMPDEST PUSH2 0x520 PUSH2 0xA42 JUMP JUMPDEST PUSH1 0x40 MLOAD PUSH2 0x52D SWAP2 SWAP1 PUSH2 0xC49 JUMP JUMPDEST PUSH1 0x40 MLOAD DUP1 SWAP2 SUB SWAP1 RETURN JUMPDEST PUSH2 0x53E PUSH2 0xA47 JUMP JUMPDEST PUSH1 0x40 MLOAD PUSH2 0x54B SWAP2 SWAP1 PUSH2 0xCF4 JUMP JUMPDEST PUSH1 0x40 MLOAD DUP1 SWAP2 SUB SWAP1 RETURN JUMPDEST PUSH2 0x55C PUSH2 0xA80 JUMP JUMPDEST PUSH1 0x40 MLOAD PUSH2 0x569 SWAP2 SWAP1 PUSH2 0xC49 JUMP JUMPDEST PUSH1 0x40 MLOAD DUP1 SWAP2 SUB SWAP1 RETURN JUMPDEST PUSH2 0x57A PUSH2 0xA86 JUMP JUMPDEST PUSH1 0x40 MLOAD PUSH2 0x587 SWAP2 SWAP1 PUSH2 0xC49 JUMP JUMPDEST PUSH1 0x40 MLOAD DUP1 SWAP2 SUB SWAP1 RETURN JUMPDEST PUSH2 0x598 PUSH2 0xA8C JUMP JUMPDEST PUSH1 0x40 MLOAD PUSH2 0x5A5 SWAP2 SWAP1 PUSH2 0xC49 JUMP JUMPDEST PUSH1 0x40 MLOAD DUP1 SWAP2 SUB SWAP1 RETURN JUMPDEST PUSH2 0x5B6 PUSH2 0xA92 JUMP JUMPDEST PUSH1 0x40 MLOAD PUSH2 0x5C3 SWAP2 SWAP1 PUSH2 0xCF4 JUMP JUMPDEST PUSH1 0x40 MLOAD DUP1 SWAP2 SUB SWAP1 RETURN JUMPDEST PUSH2 0x5D4 PUSH2 0xACB JUMP JUMPDEST PUSH1 0x40 MLOAD PUSH2 0x5E1 SWAP2 SWAP1 PUSH2 0xCF4 JUMP JUMPDEST PUSH1 0x40 MLOAD DUP1 SWAP2 SUB SWAP1 RETURN JUMPDEST PUSH2 0x5F2 PUSH2 0xB04 JUMP JUMPDEST PUSH1 0x40 MLOAD PUSH2 0x5FF SWAP2 SWAP1 PUSH2 0xC49 JUMP JUMPDEST PUSH1 0x40 MLOAD DUP1 SWAP2 SUB SWAP1 RETURN JUMPDEST PUSH2 0x622 PUSH1 0x4 DUP1 CALLDATASIZE SUB DUP2 ADD SWAP1 PUSH2 0x61D SWAP2 SWAP1 PUSH2 0xDCD JUMP JUMPDEST PUSH2 0xB09 JUMP JUMPDEST PUSH1 0x40 MLOAD PUSH2 0x62F SWAP2 SWAP1 PUSH2 0xE71 JUMP JUMPDEST PUSH1 0x40 MLOAD DUP1 SWAP2 SUB SWAP1 RETURN JUMPDEST PUSH2 0x640 PUSH2 0xC03 JUMP JUMPDEST PUSH1 0x40 MLOAD PUSH2 0x64D SWAP2 SWAP1 PUSH2 0xEA8 JUMP JUMPDEST PUSH1 0x40 MLOAD DUP1 SWAP2 SUB SWAP1 RETURN JUMPDEST PUSH2 0x65E PUSH2 0xC08 JUMP JUMPDEST PUSH1 0x40 MLOAD PUSH2 0x66B SWAP2 SWAP1 PUSH2 0xC49 JUMP JUMPDEST PUSH1 0x40 MLOAD DUP1 SWAP2 SUB SWAP1 RETURN JUMPDEST PUSH2 0x67C PUSH2 0xC0D JUMP JUMPDEST PUSH1 0x40 MLOAD PUSH2 0x689 SWAP2 SWAP1 PUSH2 0xC49 JUMP JUMPDEST PUSH1 0x40 MLOAD DUP1 SWAP2 SUB SWAP1 RETURN JUMPDEST PUSH2 0x6AC PUSH1 0x4 DUP1 CALLDATASIZE SUB DUP2 ADD SWAP1 PUSH2 0x6A7 SWAP2 SWAP1 PUSH2 0xDCD JUMP JUMPDEST PUSH2 0xC12 JUMP JUMPDEST PUSH1 0x40 MLOAD PUSH2 0x6B9 SWAP2 SWAP1 PUSH2 0xCF4 JUMP JUMPDEST PUSH1 0x40 MLOAD DUP1 SWAP2 SUB SWAP1 RETURN JUMPDEST PUSH1 0x7E DUP2 JUMP JUMPDEST PUSH2 0x273 DUP2 JUMP JUMPDEST PUSH2 0x618 DUP2 JUMP JUMPDEST PUSH1 0x40 MLOAD DUP1 PUSH1 0x40 ADD PUSH1 0x40 MSTORE DUP1 PUSH1 0x10 DUP2 MSTORE PUSH1 0x20 ADD PUSH32 0x2F6C6567656E642F6D6574616461746100000000000000000000000000000000 DUP2 MSTORE POP DUP2 JUMP JUMPDEST PUSH1 0xB5 DUP2 JUMP JUMPDEST PUSH1 0xA DUP2 JUMP JUMPDEST PUSH8 0x16C2734F97A40000 DUP2 JUMP JUMPDEST PUSH1 0x0 DUP2 JUMP JUMPDEST PUSH1 0x32 DUP2 JUMP JUMPDEST PUSH1 0x19 DUP2 JUMP JUMPDEST PUSH1 0x40 MLOAD DUP1 PUSH1 0x40 ADD PUSH1 0x40 MSTORE DUP1 PUSH1 0x12 DUP2 MSTORE PUSH1 0x20 ADD PUSH32 0x2F756E636F6D6D6F6E2F6D657461646174610000000000000000000000000000 DUP2 MSTORE POP DUP2 JUMP JUMPDEST PUSH2 0x203A DUP2 JUMP JUMPDEST PUSH1 0x40 MLOAD DUP1 PUSH1 0x40 ADD PUSH1 0x40 MSTORE DUP1 PUSH1 0x10 DUP2 MSTORE PUSH1 0x20 ADD PUSH32 0x2F636F6D6D6F6E2F6D6574616461746100000000000000000000000000000000 DUP2 MSTORE POP DUP2 JUMP JUMPDEST PUSH1 0x7D DUP2 JUMP JUMPDEST PUSH1 0x1 DUP2 JUMP JUMPDEST PUSH1 0x60 PUSH1 0x0 PUSH1 0x4 DUP2 GT ISZERO PUSH2 0x7C9 JUMPI PUSH2 0x7C8 PUSH2 0xDFA JUMP JUMPDEST JUMPDEST DUP3 PUSH1 0x4 DUP2 GT ISZERO PUSH2 0x7DC JUMPI PUSH2 0x7DB PUSH2 0xDFA JUMP JUMPDEST JUMPDEST SUB PUSH2 0x81E JUMPI PUSH1 0x40 MLOAD DUP1 PUSH1 0x40 ADD PUSH1 0x40 MSTORE DUP1 PUSH1 0x4 DUP2 MSTORE PUSH1 0x20 ADD PUSH32 0x4865726F00000000000000000000000000000000000000000000000000000000 DUP2 MSTORE POP SWAP1 POP PUSH2 0xA00 JUMP JUMPDEST PUSH1 0x1 PUSH1 0x4 DUP2 GT ISZERO PUSH2 0x832 JUMPI PUSH2 0x831 PUSH2 0xDFA JUMP JUMPDEST JUMPDEST DUP3 PUSH1 0x4 DUP2 GT ISZERO PUSH2 0x845 JUMPI PUSH2 0x844 PUSH2 0xDFA JUMP JUMPDEST JUMPDEST SUB PUSH2 0x887 JUMPI PUSH1 0x40 MLOAD DUP1 PUSH1 0x40 ADD PUSH1 0x40 MSTORE DUP1 PUSH1 0x6 DUP2 MSTORE PUSH1 0x20 ADD PUSH32 0x4C6567656E640000000000000000000000000000000000000000000000000000 DUP2 MSTORE POP SWAP1 POP PUSH2 0x9FF JUMP JUMPDEST PUSH1 0x2 PUSH1 0x4 DUP2 GT ISZERO PUSH2 0x89B JUMPI PUSH2 0x89A PUSH2 0xDFA JUMP JUMPDEST JUMPDEST DUP3 PUSH1 0x4 DUP2 GT ISZERO PUSH2 0x8AE JUMPI PUSH2 0x8AD PUSH2 0xDFA JUMP JUMPDEST JUMPDEST SUB PUSH2 0x8F0 JUMPI PUSH1 0x40 MLOAD DUP1 PUSH1 0x40 ADD PUSH1 0x40 MSTORE DUP1 PUSH1 0x4 DUP2 MSTORE PUSH1 0x20 ADD PUSH32 0x5261726500000000000000000000000000000000000000000000000000000000 DUP2 MSTORE POP SWAP1 POP PUSH2 0x9FE JUMP JUMPDEST PUSH1 0x3 PUSH1 0x4 DUP2 GT ISZERO PUSH2 0x904 JUMPI PUSH2 0x903 PUSH2 0xDFA JUMP JUMPDEST JUMPDEST DUP3 PUSH1 0x4 DUP2 GT ISZERO PUSH2 0x917 JUMPI PUSH2 0x916 PUSH2 0xDFA JUMP JUMPDEST JUMPDEST SUB PUSH2 0x959 JUMPI PUSH1 0x40 MLOAD DUP1 PUSH1 0x40 ADD PUSH1 0x40 MSTORE DUP1 PUSH1 0x8 DUP2 MSTORE PUSH1 0x20 ADD PUSH32 0x556E636F6D6D6F6E000000000000000000000000000000000000000000000000 DUP2 MSTORE POP SWAP1 POP PUSH2 0x9FD JUMP JUMPDEST PUSH1 0x4 DUP1 DUP2 GT ISZERO PUSH2 0x96C JUMPI PUSH2 0x96B PUSH2 0xDFA JUMP JUMPDEST JUMPDEST DUP3 PUSH1 0x4 DUP2 GT ISZERO PUSH2 0x97F JUMPI PUSH2 0x97E PUSH2 0xDFA JUMP JUMPDEST JUMPDEST SUB PUSH2 0x9C1 JUMPI PUSH1 0x40 MLOAD DUP1 PUSH1 0x40 ADD PUSH1 0x40 MSTORE DUP1 PUSH1 0x6 DUP2 MSTORE PUSH1 0x20 ADD PUSH32 0x436F6D6D6F6E0000000000000000000000000000000000000000000000000000 DUP2 MSTORE POP SWAP1 POP PUSH2 0x9FC JUMP JUMPDEST PUSH1 0x40 MLOAD PUSH32 0x8C379A000000000000000000000000000000000000000000000000000000000 DUP2 MSTORE PUSH1 0x4 ADD PUSH2 0x9F3 SWAP1 PUSH2 0xF20 JUMP JUMPDEST PUSH1 0x40 MLOAD DUP1 SWAP2 SUB SWAP1 REVERT JUMPDEST JUMPDEST JUMPDEST JUMPDEST JUMPDEST SWAP2 SWAP1 POP JUMP JUMPDEST PUSH1 0x5 DUP2 JUMP JUMPDEST PUSH2 0xC38 DUP2 JUMP JUMPDEST PUSH7 0xEA7AA67B2D0000 DUP2 JUMP JUMPDEST PUSH1 0x19 DUP2 JUMP JUMPDEST PUSH2 0x7D0 DUP2 JUMP JUMPDEST PUSH1 0x0 DUP2 JUMP JUMPDEST PUSH8 0x494654067E10000 DUP2 JUMP JUMPDEST PUSH7 0x2E2F6E5E148000 DUP2 JUMP JUMPDEST PUSH1 0x50 DUP2 JUMP JUMPDEST PUSH1 0x40 MLOAD DUP1 PUSH1 0x40 ADD PUSH1 0x40 MSTORE DUP1 PUSH1 0xE DUP2 MSTORE PUSH1 0x20 ADD PUSH32 0x2F726172652F6D65746164617461000000000000000000000000000000000000 DUP2 MSTORE POP DUP2 JUMP JUMPDEST PUSH2 0x4E2 DUP2 JUMP JUMPDEST PUSH2 0x190 DUP2 JUMP JUMPDEST PUSH2 0x168A DUP2 JUMP JUMPDEST PUSH1 0x40 MLOAD DUP1 PUSH1 0x40 ADD PUSH1 0x40 MSTORE DUP1 PUSH1 0xE DUP2 MSTORE PUSH1 0x20 ADD PUSH32 0x2F6865726F2F6D65746164617461000000000000000000000000000000000000 DUP2 MSTORE POP DUP2 JUMP JUMPDEST PUSH1 0x40 MLOAD DUP1 PUSH1 0x40 ADD PUSH1 0x40 MSTORE DUP1 PUSH1 0x15 DUP2 MSTORE PUSH1 0x20 ADD PUSH32 0x697066733A2F2F3C686173683E2F646F612F6E66740000000000000000000000 DUP2 MSTORE POP DUP2 JUMP JUMPDEST PUSH1 0x19 DUP2 JUMP JUMPDEST PUSH1 0x0 DUP1 PUSH2 0xFFFF AND DUP3 LT ISZERO DUP1 ISZERO PUSH2 0xB23 JUMPI POP PUSH1 0x19 PUSH2 0xFFFF AND DUP3 LT JUMPDEST ISZERO PUSH2 0xB31 JUMPI PUSH1 0x0 SWAP1 POP PUSH2 0xBFE JUMP JUMPDEST PUSH1 0x19 PUSH2 0xFFFF AND DUP3 LT ISZERO DUP1 ISZERO PUSH2 0xB4A JUMPI POP PUSH1 0x7E PUSH2 0xFFFF AND DUP3 LT JUMPDEST ISZERO PUSH2 0xB58 JUMPI PUSH1 0x1 SWAP1 POP PUSH2 0xBFD JUMP JUMPDEST PUSH1 0x7E PUSH2 0xFFFF AND DUP3 LT ISZERO DUP1 ISZERO PUSH2 0xB72 JUMPI POP PUSH2 0x273 PUSH2 0xFFFF AND DUP3 LT JUMPDEST ISZERO PUSH2 0xB80 JUMPI PUSH1 0x2 SWAP1 POP PUSH2 0xBFC JUMP JUMPDEST PUSH2 0x273 PUSH2 0xFFFF AND DUP3 LT ISZERO DUP1 ISZERO PUSH2 0xB9B JUMPI POP PUSH2 0xC38 PUSH2 0xFFFF AND DUP3 LT JUMPDEST ISZERO PUSH2 0xBA9 JUMPI PUSH1 0x3 SWAP1 POP PUSH2 0xBFB JUMP JUMPDEST PUSH2 0xC38 PUSH2 0xFFFF AND DUP3 LT PUSH2 0xBBF JUMPI PUSH1 0x4 SWAP1 POP PUSH2 0xBFA JUMP JUMPDEST PUSH1 0x40 MLOAD PUSH32 0x8C379A000000000000000000000000000000000000000000000000000000000 DUP2 MSTORE PUSH1 0x4 ADD PUSH2 0xBF1 SWAP1 PUSH2 0xF8C JUMP JUMPDEST PUSH1 0x40 MLOAD DUP1 SWAP2 SUB SWAP1 REVERT JUMPDEST JUMPDEST JUMPDEST JUMPDEST JUMPDEST SWAP2 SWAP1 POP JUMP JUMPDEST PUSH1 0x3C DUP2 JUMP JUMPDEST PUSH1 0x0 DUP2 JUMP JUMPDEST PUSH1 0xFA DUP2 JUMP JUMPDEST PUSH1 0x60 PUSH2 0xC25 PUSH2 0xC20 DUP4 PUSH2 0xB09 JUMP JUMPDEST PUSH2 0x7B3 JUMP JUMPDEST SWAP1 POP SWAP2 SWAP1 POP JUMP JUMPDEST PUSH1 0x0 PUSH2 0xFFFF DUP3 AND SWAP1 POP SWAP2 SWAP1 POP JUMP JUMPDEST PUSH2 0xC43 DUP2 PUSH2 0xC2C JUMP JUMPDEST DUP3 MSTORE POP POP JUMP JUMPDEST PUSH1 0x0 PUSH1 0x20 DUP3 ADD SWAP1 POP PUSH2 0xC5E PUSH1 0x0 DUP4 ADD DUP5 PUSH2 0xC3A JUMP JUMPDEST SWAP3 SWAP2 POP POP JUMP JUMPDEST PUSH1 0x0 DUP2 MLOAD SWAP1 POP SWAP2 SWAP1 POP JUMP JUMPDEST PUSH1 0x0 DUP3 DUP3 MSTORE PUSH1 0x20 DUP3 ADD SWAP1 POP SWAP3 SWAP2 POP POP JUMP JUMPDEST PUSH1 0x0 JUMPDEST DUP4 DUP2 LT ISZERO PUSH2 0xC9E JUMPI DUP1 DUP3 ADD MLOAD DUP2 DUP5 ADD MSTORE PUSH1 0x20 DUP2 ADD SWAP1 POP PUSH2 0xC83 JUMP JUMPDEST PUSH1 0x0 DUP5 DUP5 ADD MSTORE POP POP POP POP JUMP JUMPDEST PUSH1 0x0 PUSH1 0x1F NOT PUSH1 0x1F DUP4 ADD AND SWAP1 POP SWAP2 SWAP1 POP JUMP JUMPDEST PUSH1 0x0 PUSH2 0xCC6 DUP3 PUSH2 0xC64 JUMP JUMPDEST PUSH2 0xCD0 DUP2 DUP6 PUSH2 0xC6F JUMP JUMPDEST SWAP4 POP PUSH2 0xCE0 DUP2 DUP6 PUSH1 0x20 DUP7 ADD PUSH2 0xC80 JUMP JUMPDEST PUSH2 0xCE9 DUP2 PUSH2 0xCAA JUMP JUMPDEST DUP5 ADD SWAP2 POP POP SWAP3 SWAP2 POP POP JUMP JUMPDEST PUSH1 0x0 PUSH1 0x20 DUP3 ADD SWAP1 POP DUP2 DUP2 SUB PUSH1 0x0 DUP4 ADD MSTORE PUSH2 0xD0E DUP2 DUP5 PUSH2 0xCBB JUMP JUMPDEST SWAP1 POP SWAP3 SWAP2 POP POP JUMP JUMPDEST PUSH1 0x0 DUP2 SWAP1 POP SWAP2 SWAP1 POP JUMP JUMPDEST PUSH2 0xD29 DUP2 PUSH2 0xD16 JUMP JUMPDEST DUP3 MSTORE POP POP JUMP JUMPDEST PUSH1 0x0 PUSH1 0x20 DUP3 ADD SWAP1 POP PUSH2 0xD44 PUSH1 0x0 DUP4 ADD DUP5 PUSH2 0xD20 JUMP JUMPDEST SWAP3 SWAP2 POP POP JUMP JUMPDEST PUSH1 0x0 DUP1 REVERT JUMPDEST PUSH1 0x5 DUP2 LT PUSH2 0xD5C JUMPI PUSH1 0x0 DUP1 REVERT JUMPDEST POP JUMP JUMPDEST PUSH1 0x0 DUP2 CALLDATALOAD SWAP1 POP PUSH2 0xD6E DUP2 PUSH2 0xD4F JUMP JUMPDEST SWAP3 SWAP2 POP POP JUMP JUMPDEST PUSH1 0x0 PUSH1 0x20 DUP3 DUP5 SUB SLT ISZERO PUSH2 0xD8A JUMPI PUSH2 0xD89 PUSH2 0xD4A JUMP JUMPDEST JUMPDEST PUSH1 0x0 PUSH2 0xD98 DUP5 DUP3 DUP6 ADD PUSH2 0xD5F JUMP JUMPDEST SWAP2 POP POP SWAP3 SWAP2 POP POP JUMP JUMPDEST PUSH2 0xDAA DUP2 PUSH2 0xD16 JUMP JUMPDEST DUP2 EQ PUSH2 0xDB5 JUMPI PUSH1 0x0 DUP1 REVERT JUMPDEST POP JUMP JUMPDEST PUSH1 0x0 DUP2 CALLDATALOAD SWAP1 POP PUSH2 0xDC7 DUP2 PUSH2 0xDA1 JUMP JUMPDEST SWAP3 SWAP2 POP POP JUMP JUMPDEST PUSH1 0x0 PUSH1 0x20 DUP3 DUP5 SUB SLT ISZERO PUSH2 0xDE3 JUMPI PUSH2 0xDE2 PUSH2 0xD4A JUMP JUMPDEST JUMPDEST PUSH1 0x0 PUSH2 0xDF1 DUP5 DUP3 DUP6 ADD PUSH2 0xDB8 JUMP JUMPDEST SWAP2 POP POP SWAP3 SWAP2 POP POP JUMP JUMPDEST PUSH32 0x4E487B7100000000000000000000000000000000000000000000000000000000 PUSH1 0x0 MSTORE PUSH1 0x21 PUSH1 0x4 MSTORE PUSH1 0x24 PUSH1 0x0 REVERT JUMPDEST PUSH1 0x5 DUP2 LT PUSH2 0xE3A JUMPI PUSH2 0xE39 PUSH2 0xDFA JUMP JUMPDEST JUMPDEST POP JUMP JUMPDEST PUSH1 0x0 DUP2 SWAP1 POP PUSH2 0xE4B DUP3 PUSH2 0xE29 JUMP JUMPDEST SWAP2 SWAP1 POP JUMP JUMPDEST PUSH1 0x0 PUSH2 0xE5B DUP3 PUSH2 0xE3D JUMP JUMPDEST SWAP1 POP SWAP2 SWAP1 POP JUMP JUMPDEST PUSH2 0xE6B DUP2 PUSH2 0xE50 JUMP JUMPDEST DUP3 MSTORE POP POP JUMP JUMPDEST PUSH1 0x0 PUSH1 0x20 DUP3 ADD SWAP1 POP PUSH2 0xE86 PUSH1 0x0 DUP4 ADD DUP5 PUSH2 0xE62 JUMP JUMPDEST SWAP3 SWAP2 POP POP JUMP JUMPDEST PUSH1 0x0 PUSH1 0xFF DUP3 AND SWAP1 POP SWAP2 SWAP1 POP JUMP JUMPDEST PUSH2 0xEA2 DUP2 PUSH2 0xE8C JUMP JUMPDEST DUP3 MSTORE POP POP JUMP JUMPDEST PUSH1 0x0 PUSH1 0x20 DUP3 ADD SWAP1 POP PUSH2 0xEBD PUSH1 0x0 DUP4 ADD DUP5 PUSH2 0xE99 JUMP JUMPDEST SWAP3 SWAP2 POP POP JUMP JUMPDEST PUSH1 0x0 DUP3 DUP3 MSTORE PUSH1 0x20 DUP3 ADD SWAP1 POP SWAP3 SWAP2 POP POP JUMP JUMPDEST PUSH32 0x496E76616C696420746F6B656E20636C61737300000000000000000000000000 PUSH1 0x0 DUP3 ADD MSTORE POP JUMP JUMPDEST PUSH1 0x0 PUSH2 0xF0A PUSH1 0x13 DUP4 PUSH2 0xEC3 JUMP JUMPDEST SWAP2 POP PUSH2 0xF15 DUP3 PUSH2 0xED4 JUMP JUMPDEST PUSH1 0x20 DUP3 ADD SWAP1 POP SWAP2 SWAP1 POP JUMP JUMPDEST PUSH1 0x0 PUSH1 0x20 DUP3 ADD SWAP1 POP DUP2 DUP2 SUB PUSH1 0x0 DUP4 ADD MSTORE PUSH2 0xF39 DUP2 PUSH2 0xEFD JUMP JUMPDEST SWAP1 POP SWAP2 SWAP1 POP JUMP JUMPDEST PUSH32 0x496E76616C696420746F6B656E20494400000000000000000000000000000000 PUSH1 0x0 DUP3 ADD MSTORE POP JUMP JUMPDEST PUSH1 0x0 PUSH2 0xF76 PUSH1 0x10 DUP4 PUSH2 0xEC3 JUMP JUMPDEST SWAP2 POP PUSH2 0xF81 DUP3 PUSH2 0xF40 JUMP JUMPDEST PUSH1 0x20 DUP3 ADD SWAP1 POP SWAP2 SWAP1 POP JUMP JUMPDEST PUSH1 0x0 PUSH1 0x20 DUP3 ADD SWAP1 POP DUP2 DUP2 SUB PUSH1 0x0 DUP4 ADD MSTORE PUSH2 0xFA5 DUP2 PUSH2 0xF69 JUMP JUMPDEST SWAP1 POP SWAP2 SWAP1 POP JUMP INVALID LOG2 PUSH5 0x6970667358 0x22 SLT KECCAK256 DUP3 DUP4 TIMESTAMP 0xDB 0x4A EQ SWAP16 DUP15 0x4A MULMOD PUSH32 0xFE5D0E63EACD58CF6464A897B8889A538DD1846CC364736F6C63430008130033 "
		},
		"gasEstimates": {
			"creation": {
				"codeDepositCost": "813200",
				"executionCost": "876",
				"totalCost": "814076"
			},
			"external": {
				"BASE_COMMON_URI()": "infinite",
				"BASE_HERO_URI()": "infinite",
				"BASE_LEGEND_URI()": "infinite",
				"BASE_RARE_URI()": "infinite",
				"BASE_UNCOMMON_URI()": "infinite",
				"BASE_URI()": "infinite",
				"COMMON_NFT_PRICE()": "359",
				"COMMON_NFT_START_INDEX()": "452",
				"COMMON_NFT_SUPPLY_1st()": "364",
				"COMMON_NFT_SUPPLY_2nd()": "452",
				"COMMON_NFT_SUPPLY_3rd()": "386",
				"HERO_NFT_START_INDEX()": "431",
				"HERO_NFT_SUPPLY_1st()": "452",
				"HERO_NFT_SUPPLY_2nd()": "431",
				"HERO_NFT_SUPPLY_3rd()": "407",
				"LEGEND_NFT_PRICE()": "403",
				"LEGEND_NFT_START_INDEX()": "387",
				"LEGEND_NFT_SUPPLY_1st()": "386",
				"LEGEND_NFT_SUPPLY_2nd()": "387",
				"LEGEND_NFT_SUPPLY_3rd()": "408",
				"NFT_SUPPLY_1st()": "365",
				"NFT_SUPPLY_2nd()": "410",
				"NFT_SUPPLY_3rd()": "409",
				"PUBLIC_FUND_PERCENTAGE()": "385",
				"RARE_NFT_PRICE()": "358",
				"RARE_NFT_START_INDEX()": "366",
				"RARE_NFT_SUPPLY_1st()": "430",
				"RARE_NFT_SUPPLY_2nd()": "453",
				"RARE_NFT_SUPPLY_3rd()": "364",
				"UNCOMMON_NFT_PRICE()": "380",
				"UNCOMMON_NFT_START_INDEX()": "388",
				"UNCOMMON_NFT_SUPPLY_1st()": "365",
				"UNCOMMON_NFT_SUPPLY_2nd()": "429",
				"UNCOMMON_NFT_SUPPLY_3rd()": "409",
				"getClassForTokenId(uint256)": "1057",
				"getClassName(NFT_CLASS)": "infinite",
				"testClassForTokenId(uint256)": "infinite"
			}
		},
		"methodIdentifiers": {
			"BASE_COMMON_URI()": "811d5c6c",
			"BASE_HERO_URI()": "cfc2abb7",
			"BASE_LEGEND_URI()": "1eb1a2d3",
			"BASE_RARE_URI()": "c244e88b",
			"BASE_UNCOMMON_URI()": "6871d79f",
			"BASE_URI()": "dbddb26a",
			"COMMON_NFT_PRICE()": "9ee58048",
			"COMMON_NFT_START_INDEX()": "971cba96",
			"COMMON_NFT_SUPPLY_1st()": "828d481b",
			"COMMON_NFT_SUPPLY_2nd()": "c525c0c8",
			"COMMON_NFT_SUPPLY_3rd()": "cb937d2b",
			"HERO_NFT_START_INDEX()": "58a0d923",
			"HERO_NFT_SUPPLY_1st()": "e93e980b",
			"HERO_NFT_SUPPLY_2nd()": "a83179db",
			"HERO_NFT_SUPPLY_3rd()": "f41dc7d2",
			"LEGEND_NFT_PRICE()": "4e2ecca1",
			"LEGEND_NFT_START_INDEX()": "a1bd4a07",
			"LEGEND_NFT_SUPPLY_1st()": "8d1da411",
			"LEGEND_NFT_SUPPLY_2nd()": "38d79b52",
			"LEGEND_NFT_SUPPLY_3rd()": "bf0832ae",
			"NFT_SUPPLY_1st()": "32a41506",
			"NFT_SUPPLY_2nd()": "1ab7730c",
			"NFT_SUPPLY_3rd()": "6b606f0f",
			"PUBLIC_FUND_PERCENTAGE()": "eda14323",
			"RARE_NFT_PRICE()": "be8ca905",
			"RARE_NFT_START_INDEX()": "10a309f3",
			"RARE_NFT_SUPPLY_1st()": "970f6e2f",
			"RARE_NFT_SUPPLY_2nd()": "5e09346a",
			"RARE_NFT_SUPPLY_3rd()": "ca45f599",
			"UNCOMMON_NFT_PRICE()": "beb9e75e",
			"UNCOMMON_NFT_START_INDEX()": "11f47eb5",
			"UNCOMMON_NFT_SUPPLY_1st()": "5e28c936",
			"UNCOMMON_NFT_SUPPLY_2nd()": "f59528d2",
			"UNCOMMON_NFT_SUPPLY_3rd()": "a1d2002d",
			"getClassForTokenId(uint256)": "ed944cb6",
			"getClassName(NFT_CLASS)": "8f5236e5",
			"testClassForTokenId(uint256)": "fd642870"
		}
	},
	"abi": [
		{
			"inputs": [],
			"name": "BASE_COMMON_URI",
			"outputs": [
				{
					"internalType": "string",
					"name": "",
					"type": "string"
				}
			],
			"stateMutability": "view",
			"type": "function"
		},
		{
			"inputs": [],
			"name": "BASE_HERO_URI",
			"outputs": [
				{
					"internalType": "string",
					"name": "",
					"type": "string"
				}
			],
			"stateMutability": "view",
			"type": "function"
		},
		{
			"inputs": [],
			"name": "BASE_LEGEND_URI",
			"outputs": [
				{
					"internalType": "string",
					"name": "",
					"type": "string"
				}
			],
			"stateMutability": "view",
			"type": "function"
		},
		{
			"inputs": [],
			"name": "BASE_RARE_URI",
			"outputs": [
				{
					"internalType": "string",
					"name": "",
					"type": "string"
				}
			],
			"stateMutability": "view",
			"type": "function"
		},
		{
			"inputs": [],
			"name": "BASE_UNCOMMON_URI",
			"outputs": [
				{
					"internalType": "string",
					"name": "",
					"type": "string"
				}
			],
			"stateMutability": "view",
			"type": "function"
		},
		{
			"inputs": [],
			"name": "BASE_URI",
			"outputs": [
				{
					"internalType": "string",
					"name": "",
					"type": "string"
				}
			],
			"stateMutability": "view",
			"type": "function"
		},
		{
			"inputs": [],
			"name": "COMMON_NFT_PRICE",
			"outputs": [
				{
					"internalType": "uint256",
					"name": "",
					"type": "uint256"
				}
			],
			"stateMutability": "view",
			"type": "function"
		},
		{
			"inputs": [],
			"name": "COMMON_NFT_START_INDEX",
			"outputs": [
				{
					"internalType": "uint16",
					"name": "",
					"type": "uint16"
				}
			],
			"stateMutability": "view",
			"type": "function"
		},
		{
			"inputs": [],
			"name": "COMMON_NFT_SUPPLY_1st",
			"outputs": [
				{
					"internalType": "uint16",
					"name": "",
					"type": "uint16"
				}
			],
			"stateMutability": "view",
			"type": "function"
		},
		{
			"inputs": [],
			"name": "COMMON_NFT_SUPPLY_2nd",
			"outputs": [
				{
					"internalType": "uint16",
					"name": "",
					"type": "uint16"
				}
			],
			"stateMutability": "view",
			"type": "function"
		},
		{
			"inputs": [],
			"name": "COMMON_NFT_SUPPLY_3rd",
			"outputs": [
				{
					"internalType": "uint16",
					"name": "",
					"type": "uint16"
				}
			],
			"stateMutability": "view",
			"type": "function"
		},
		{
			"inputs": [],
			"name": "HERO_NFT_START_INDEX",
			"outputs": [
				{
					"internalType": "uint16",
					"name": "",
					"type": "uint16"
				}
			],
			"stateMutability": "view",
			"type": "function"
		},
		{
			"inputs": [],
			"name": "HERO_NFT_SUPPLY_1st",
			"outputs": [
				{
					"internalType": "uint16",
					"name": "",
					"type": "uint16"
				}
			],
			"stateMutability": "view",
			"type": "function"
		},
		{
			"inputs": [],
			"name": "HERO_NFT_SUPPLY_2nd",
			"outputs": [
				{
					"internalType": "uint16",
					"name": "",
					"type": "uint16"
				}
			],
			"stateMutability": "view",
			"type": "function"
		},
		{
			"inputs": [],
			"name": "HERO_NFT_SUPPLY_3rd",
			"outputs": [
				{
					"internalType": "uint16",
					"name": "",
					"type": "uint16"
				}
			],
			"stateMutability": "view",
			"type": "function"
		},
		{
			"inputs": [],
			"name": "LEGEND_NFT_PRICE",
			"outputs": [
				{
					"internalType": "uint256",
					"name": "",
					"type": "uint256"
				}
			],
			"stateMutability": "view",
			"type": "function"
		},
		{
			"inputs": [],
			"name": "LEGEND_NFT_START_INDEX",
			"outputs": [
				{
					"internalType": "uint16",
					"name": "",
					"type": "uint16"
				}
			],
			"stateMutability": "view",
			"type": "function"
		},
		{
			"inputs": [],
			"name": "LEGEND_NFT_SUPPLY_1st",
			"outputs": [
				{
					"internalType": "uint16",
					"name": "",
					"type": "uint16"
				}
			],
			"stateMutability": "view",
			"type": "function"
		},
		{
			"inputs": [],
			"name": "LEGEND_NFT_SUPPLY_2nd",
			"outputs": [
				{
					"internalType": "uint16",
					"name": "",
					"type": "uint16"
				}
			],
			"stateMutability": "view",
			"type": "function"
		},
		{
			"inputs": [],
			"name": "LEGEND_NFT_SUPPLY_3rd",
			"outputs": [
				{
					"internalType": "uint16",
					"name": "",
					"type": "uint16"
				}
			],
			"stateMutability": "view",
			"type": "function"
		},
		{
			"inputs": [],
			"name": "NFT_SUPPLY_1st",
			"outputs": [
				{
					"internalType": "uint16",
					"name": "",
					"type": "uint16"
				}
			],
			"stateMutability": "view",
			"type": "function"
		},
		{
			"inputs": [],
			"name": "NFT_SUPPLY_2nd",
			"outputs": [
				{
					"internalType": "uint16",
					"name": "",
					"type": "uint16"
				}
			],
			"stateMutability": "view",
			"type": "function"
		},
		{
			"inputs": [],
			"name": "NFT_SUPPLY_3rd",
			"outputs": [
				{
					"internalType": "uint16",
					"name": "",
					"type": "uint16"
				}
			],
			"stateMutability": "view",
			"type": "function"
		},
		{
			"inputs": [],
			"name": "PUBLIC_FUND_PERCENTAGE",
			"outputs": [
				{
					"internalType": "uint8",
					"name": "",
					"type": "uint8"
				}
			],
			"stateMutability": "view",
			"type": "function"
		},
		{
			"inputs": [],
			"name": "RARE_NFT_PRICE",
			"outputs": [
				{
					"internalType": "uint256",
					"name": "",
					"type": "uint256"
				}
			],
			"stateMutability": "view",
			"type": "function"
		},
		{
			"inputs": [],
			"name": "RARE_NFT_START_INDEX",
			"outputs": [
				{
					"internalType": "uint16",
					"name": "",
					"type": "uint16"
				}
			],
			"stateMutability": "view",
			"type": "function"
		},
		{
			"inputs": [],
			"name": "RARE_NFT_SUPPLY_1st",
			"outputs": [
				{
					"internalType": "uint16",
					"name": "",
					"type": "uint16"
				}
			],
			"stateMutability": "view",
			"type": "function"
		},
		{
			"inputs": [],
			"name": "RARE_NFT_SUPPLY_2nd",
			"outputs": [
				{
					"internalType": "uint16",
					"name": "",
					"type": "uint16"
				}
			],
			"stateMutability": "view",
			"type": "function"
		},
		{
			"inputs": [],
			"name": "RARE_NFT_SUPPLY_3rd",
			"outputs": [
				{
					"internalType": "uint16",
					"name": "",
					"type": "uint16"
				}
			],
			"stateMutability": "view",
			"type": "function"
		},
		{
			"inputs": [],
			"name": "UNCOMMON_NFT_PRICE",
			"outputs": [
				{
					"internalType": "uint256",
					"name": "",
					"type": "uint256"
				}
			],
			"stateMutability": "view",
			"type": "function"
		},
		{
			"inputs": [],
			"name": "UNCOMMON_NFT_START_INDEX",
			"outputs": [
				{
					"internalType": "uint16",
					"name": "",
					"type": "uint16"
				}
			],
			"stateMutability": "view",
			"type": "function"
		},
		{
			"inputs": [],
			"name": "UNCOMMON_NFT_SUPPLY_1st",
			"outputs": [
				{
					"internalType": "uint16",
					"name": "",
					"type": "uint16"
				}
			],
			"stateMutability": "view",
			"type": "function"
		},
		{
			"inputs": [],
			"name": "UNCOMMON_NFT_SUPPLY_2nd",
			"outputs": [
				{
					"internalType": "uint16",
					"name": "",
					"type": "uint16"
				}
			],
			"stateMutability": "view",
			"type": "function"
		},
		{
			"inputs": [],
			"name": "UNCOMMON_NFT_SUPPLY_3rd",
			"outputs": [
				{
					"internalType": "uint16",
					"name": "",
					"type": "uint16"
				}
			],
			"stateMutability": "view",
			"type": "function"
		},
		{
			"inputs": [
				{
					"internalType": "uint256",
					"name": "tokenId",
					"type": "uint256"
				}
			],
			"name": "getClassForTokenId",
			"outputs": [
				{
					"internalType": "enum NFT_CLASS",
					"name": "tokenClass",
					"type": "NFT_CLASS"
				}
			],
			"stateMutability": "pure",
			"type": "function"
		},
		{
			"inputs": [
				{
					"internalType": "enum NFT_CLASS",
					"name": "nftClass",
					"type": "NFT_CLASS"
				}
			],
			"name": "getClassName",
			"outputs": [
				{
					"internalType": "string",
					"name": "tokenClassName",
					"type": "string"
				}
			],
			"stateMutability": "pure",
			"type": "function"
		},
		{
			"inputs": [
				{
					"internalType": "uint256",
					"name": "tokenId",
					"type": "uint256"
				}
			],
			"name": "testClassForTokenId",
			"outputs": [
				{
					"internalType": "string",
					"name": "className",
					"type": "string"
				}
			],
			"stateMutability": "pure",
			"type": "function"
		}
	]
}