{
	"data": {
		"bytecode": {
			"linkReferences": {},
			"object": "610c4c610053600b82828239805160001a607314610046577f4e487b7100000000000000000000000000000000000000000000000000000000600052600060045260246000fd5b30600052607381538281f3fe73000000000000000000000000000000000000000030146080604052600436106102105760003560e01c8063970f6e2f11610124578063c244e88b116100b7578063cfc2abb711610086578063cfc2abb71461058d578063dbddb26a146105ab578063e93e980b146105c9578063f41dc7d2146105e7578063f59528d21461060557610210565b8063c244e88b14610515578063c525c0c814610533578063ca45f59914610551578063cb937d2b1461056f57610210565b8063a83179db116100f3578063a83179db1461049d578063be8ca905146104bb578063beb9e75e146104d9578063bf0832ae146104f757610210565b8063970f6e2f146104255780639ee5804814610443578063a1bd4a0714610461578063a1d2002d1461047f57610210565b806358a0d923116101a75780636871d79f116101765780636871d79f1461038f5780636b606f0f146103ad578063811d5c6c146103cb578063828d481b146103e95780638d1da4111461040757610210565b806358a0d923146103175780635e09346a146103355780635e28c93614610353578063628af7a11461037157610210565b806332a41506116101e357806332a415061461029f57806338d79b52146102bd5780634ca8c63d146102db5780634e2ecca1146102f957610210565b806310a309f3146102155780631ab7730c146102335780631ccb1a1d146102515780631eb1a2d314610281575b600080fd5b61021d610623565b60405161022a9190610a3a565b60405180910390f35b61023b610628565b6040516102489190610a3a565b60405180910390f35b61026b60048036038101906102669190610a90565b61062e565b6040516102789190610b4d565b60405180910390f35b610289610829565b6040516102969190610b4d565b60405180910390f35b6102a7610862565b6040516102b49190610a3a565b60405180910390f35b6102c5610867565b6040516102d29190610a3a565b60405180910390f35b6102e361086c565b6040516102f09190610a3a565b60405180910390f35b610301610872565b60405161030e9190610b7e565b60405180910390f35b61031f61087e565b60405161032c9190610a3a565b60405180910390f35b61033d610883565b60405161034a9190610a3a565b60405180910390f35b61035b610888565b6040516103689190610a3a565b60405180910390f35b61037961088d565b6040516103869190610a3a565b60405180910390f35b610397610893565b6040516103a49190610b4d565b60405180910390f35b6103b56108cc565b6040516103c29190610a3a565b60405180910390f35b6103d36108d2565b6040516103e09190610b4d565b60405180910390f35b6103f161090b565b6040516103fe9190610a3a565b60405180910390f35b61040f610910565b60405161041c9190610a3a565b60405180910390f35b61042d610915565b60405161043a9190610a3a565b60405180910390f35b61044b61091a565b6040516104589190610b7e565b60405180910390f35b610469610925565b6040516104769190610a3a565b60405180910390f35b61048761092a565b6040516104949190610a3a565b60405180910390f35b6104a5610930565b6040516104b29190610a3a565b60405180910390f35b6104c3610935565b6040516104d09190610b7e565b60405180910390f35b6104e1610941565b6040516104ee9190610b7e565b60405180910390f35b6104ff61094c565b60405161050c9190610a3a565b60405180910390f35b61051d610951565b60405161052a9190610b4d565b60405180910390f35b61053b61098a565b6040516105489190610a3a565b60405180910390f35b610559610990565b6040516105669190610a3a565b60405180910390f35b610577610996565b6040516105849190610a3a565b60405180910390f35b61059561099c565b6040516105a29190610b4d565b60405180910390f35b6105b36109d5565b6040516105c09190610b4d565b60405180910390f35b6105d1610a0e565b6040516105de9190610a3a565b60405180910390f35b6105ef610a13565b6040516105fc9190610a3a565b60405180910390f35b61060d610a18565b60405161061a9190610a3a565b60405180910390f35b607e81565b61061881565b6060600061ffff1682101580156106495750601961ffff1682105b1561068b576040518060400160405280600e81526020017f2f6865726f2f6d657461646174610000000000000000000000000000000000008152509050610824565b601961ffff1682101580156106a45750607e61ffff1682105b156106e6576040518060400160405280601081526020017f2f6c6567656e642f6d65746164617461000000000000000000000000000000008152509050610824565b607e61ffff168210158015610700575061027361ffff1682105b15610742576040518060400160405280600e81526020017f2f726172652f6d657461646174610000000000000000000000000000000000008152509050610824565b61027361ffff16821015801561075d5750610c3861ffff1682105b1561079f576040518060400160405280601281526020017f2f756e636f6d6d6f6e2f6d6574616461746100000000000000000000000000008152509050610824565b610c3861ffff1682106107e9576040518060400160405280601081526020017f2f636f6d6d6f6e2f6d65746164617461000000000000000000000000000000008152509050610824565b6040517f08c379a000000000000000000000000000000000000000000000000000000000815260040161081b90610bf6565b60405180910390fd5b919050565b6040518060400160405280601081526020017f2f6c6567656e642f6d657461646174610000000000000000000000000000000081525081565b60b581565b600a81565b61027381565b6716c2734f97a4000081565b600081565b603281565b601981565b610c3881565b6040518060400160405280601281526020017f2f756e636f6d6d6f6e2f6d65746164617461000000000000000000000000000081525081565b61203a81565b6040518060400160405280601081526020017f2f636f6d6d6f6e2f6d657461646174610000000000000000000000000000000081525081565b607d81565b600181565b600581565b66ea7aa67b2d000081565b601981565b6107d081565b600081565b670494654067e1000081565b662e2f6e5e14800081565b605081565b6040518060400160405280600e81526020017f2f726172652f6d6574616461746100000000000000000000000000000000000081525081565b6104e281565b61019081565b61168a81565b6040518060400160405280600e81526020017f2f6865726f2f6d6574616461746100000000000000000000000000000000000081525081565b6040518060400160405280601581526020017f697066733a2f2f3c686173683e2f646f612f6e6674000000000000000000000081525081565b601981565b600081565b60fa81565b600061ffff82169050919050565b610a3481610a1d565b82525050565b6000602082019050610a4f6000830184610a2b565b92915050565b600080fd5b6000819050919050565b610a6d81610a5a565b8114610a7857600080fd5b50565b600081359050610a8a81610a64565b92915050565b600060208284031215610aa657610aa5610a55565b5b6000610ab484828501610a7b565b91505092915050565b600081519050919050565b600082825260208201905092915050565b60005b83811015610af7578082015181840152602081019050610adc565b60008484015250505050565b6000601f19601f8301169050919050565b6000610b1f82610abd565b610b298185610ac8565b9350610b39818560208601610ad9565b610b4281610b03565b840191505092915050565b60006020820190508181036000830152610b678184610b14565b905092915050565b610b7881610a5a565b82525050565b6000602082019050610b936000830184610b6f565b92915050565b600082825260208201905092915050565b7f496e76616c696420746f6b656e20494400000000000000000000000000000000600082015250565b6000610be0601083610b99565b9150610beb82610baa565b602082019050919050565b60006020820190508181036000830152610c0f81610bd3565b905091905056fea2646970667358221220ff778d55d1dc51a37bfe8197852e1df00661af8079d4b4503d660d9d864665a564736f6c63430008130033",
			"opcodes": "PUSH2 0xC4C PUSH2 0x53 PUSH1 0xB DUP3 DUP3 DUP3 CODECOPY DUP1 MLOAD PUSH1 0x0 BYTE PUSH1 0x73 EQ PUSH2 0x46 JUMPI PUSH32 0x4E487B7100000000000000000000000000000000000000000000000000000000 PUSH1 0x0 MSTORE PUSH1 0x0 PUSH1 0x4 MSTORE PUSH1 0x24 PUSH1 0x0 REVERT JUMPDEST ADDRESS PUSH1 0x0 MSTORE PUSH1 0x73 DUP2 MSTORE8 DUP3 DUP2 RETURN INVALID PUSH20 0x0 ADDRESS EQ PUSH1 0x80 PUSH1 0x40 MSTORE PUSH1 0x4 CALLDATASIZE LT PUSH2 0x210 JUMPI PUSH1 0x0 CALLDATALOAD PUSH1 0xE0 SHR DUP1 PUSH4 0x970F6E2F GT PUSH2 0x124 JUMPI DUP1 PUSH4 0xC244E88B GT PUSH2 0xB7 JUMPI DUP1 PUSH4 0xCFC2ABB7 GT PUSH2 0x86 JUMPI DUP1 PUSH4 0xCFC2ABB7 EQ PUSH2 0x58D JUMPI DUP1 PUSH4 0xDBDDB26A EQ PUSH2 0x5AB JUMPI DUP1 PUSH4 0xE93E980B EQ PUSH2 0x5C9 JUMPI DUP1 PUSH4 0xF41DC7D2 EQ PUSH2 0x5E7 JUMPI DUP1 PUSH4 0xF59528D2 EQ PUSH2 0x605 JUMPI PUSH2 0x210 JUMP JUMPDEST DUP1 PUSH4 0xC244E88B EQ PUSH2 0x515 JUMPI DUP1 PUSH4 0xC525C0C8 EQ PUSH2 0x533 JUMPI DUP1 PUSH4 0xCA45F599 EQ PUSH2 0x551 JUMPI DUP1 PUSH4 0xCB937D2B EQ PUSH2 0x56F JUMPI PUSH2 0x210 JUMP JUMPDEST DUP1 PUSH4 0xA83179DB GT PUSH2 0xF3 JUMPI DUP1 PUSH4 0xA83179DB EQ PUSH2 0x49D JUMPI DUP1 PUSH4 0xBE8CA905 EQ PUSH2 0x4BB JUMPI DUP1 PUSH4 0xBEB9E75E EQ PUSH2 0x4D9 JUMPI DUP1 PUSH4 0xBF0832AE EQ PUSH2 0x4F7 JUMPI PUSH2 0x210 JUMP JUMPDEST DUP1 PUSH4 0x970F6E2F EQ PUSH2 0x425 JUMPI DUP1 PUSH4 0x9EE58048 EQ PUSH2 0x443 JUMPI DUP1 PUSH4 0xA1BD4A07 EQ PUSH2 0x461 JUMPI DUP1 PUSH4 0xA1D2002D EQ PUSH2 0x47F JUMPI PUSH2 0x210 JUMP JUMPDEST DUP1 PUSH4 0x58A0D923 GT PUSH2 0x1A7 JUMPI DUP1 PUSH4 0x6871D79F GT PUSH2 0x176 JUMPI DUP1 PUSH4 0x6871D79F EQ PUSH2 0x38F JUMPI DUP1 PUSH4 0x6B606F0F EQ PUSH2 0x3AD JUMPI DUP1 PUSH4 0x811D5C6C EQ PUSH2 0x3CB JUMPI DUP1 PUSH4 0x828D481B EQ PUSH2 0x3E9 JUMPI DUP1 PUSH4 0x8D1DA411 EQ PUSH2 0x407 JUMPI PUSH2 0x210 JUMP JUMPDEST DUP1 PUSH4 0x58A0D923 EQ PUSH2 0x317 JUMPI DUP1 PUSH4 0x5E09346A EQ PUSH2 0x335 JUMPI DUP1 PUSH4 0x5E28C936 EQ PUSH2 0x353 JUMPI DUP1 PUSH4 0x628AF7A1 EQ PUSH2 0x371 JUMPI PUSH2 0x210 JUMP JUMPDEST DUP1 PUSH4 0x32A41506 GT PUSH2 0x1E3 JUMPI DUP1 PUSH4 0x32A41506 EQ PUSH2 0x29F JUMPI DUP1 PUSH4 0x38D79B52 EQ PUSH2 0x2BD JUMPI DUP1 PUSH4 0x4CA8C63D EQ PUSH2 0x2DB JUMPI DUP1 PUSH4 0x4E2ECCA1 EQ PUSH2 0x2F9 JUMPI PUSH2 0x210 JUMP JUMPDEST DUP1 PUSH4 0x10A309F3 EQ PUSH2 0x215 JUMPI DUP1 PUSH4 0x1AB7730C EQ PUSH2 0x233 JUMPI DUP1 PUSH4 0x1CCB1A1D EQ PUSH2 0x251 JUMPI DUP1 PUSH4 0x1EB1A2D3 EQ PUSH2 0x281 JUMPI JUMPDEST PUSH1 0x0 DUP1 REVERT JUMPDEST PUSH2 0x21D PUSH2 0x623 JUMP JUMPDEST PUSH1 0x40 MLOAD PUSH2 0x22A SWAP2 SWAP1 PUSH2 0xA3A JUMP JUMPDEST PUSH1 0x40 MLOAD DUP1 SWAP2 SUB SWAP1 RETURN JUMPDEST PUSH2 0x23B PUSH2 0x628 JUMP JUMPDEST PUSH1 0x40 MLOAD PUSH2 0x248 SWAP2 SWAP1 PUSH2 0xA3A JUMP JUMPDEST PUSH1 0x40 MLOAD DUP1 SWAP2 SUB SWAP1 RETURN JUMPDEST PUSH2 0x26B PUSH1 0x4 DUP1 CALLDATASIZE SUB DUP2 ADD SWAP1 PUSH2 0x266 SWAP2 SWAP1 PUSH2 0xA90 JUMP JUMPDEST PUSH2 0x62E JUMP JUMPDEST PUSH1 0x40 MLOAD PUSH2 0x278 SWAP2 SWAP1 PUSH2 0xB4D JUMP JUMPDEST PUSH1 0x40 MLOAD DUP1 SWAP2 SUB SWAP1 RETURN JUMPDEST PUSH2 0x289 PUSH2 0x829 JUMP JUMPDEST PUSH1 0x40 MLOAD PUSH2 0x296 SWAP2 SWAP1 PUSH2 0xB4D JUMP JUMPDEST PUSH1 0x40 MLOAD DUP1 SWAP2 SUB SWAP1 RETURN JUMPDEST PUSH2 0x2A7 PUSH2 0x862 JUMP JUMPDEST PUSH1 0x40 MLOAD PUSH2 0x2B4 SWAP2 SWAP1 PUSH2 0xA3A JUMP JUMPDEST PUSH1 0x40 MLOAD DUP1 SWAP2 SUB SWAP1 RETURN JUMPDEST PUSH2 0x2C5 PUSH2 0x867 JUMP JUMPDEST PUSH1 0x40 MLOAD PUSH2 0x2D2 SWAP2 SWAP1 PUSH2 0xA3A JUMP JUMPDEST PUSH1 0x40 MLOAD DUP1 SWAP2 SUB SWAP1 RETURN JUMPDEST PUSH2 0x2E3 PUSH2 0x86C JUMP JUMPDEST PUSH1 0x40 MLOAD PUSH2 0x2F0 SWAP2 SWAP1 PUSH2 0xA3A JUMP JUMPDEST PUSH1 0x40 MLOAD DUP1 SWAP2 SUB SWAP1 RETURN JUMPDEST PUSH2 0x301 PUSH2 0x872 JUMP JUMPDEST PUSH1 0x40 MLOAD PUSH2 0x30E SWAP2 SWAP1 PUSH2 0xB7E JUMP JUMPDEST PUSH1 0x40 MLOAD DUP1 SWAP2 SUB SWAP1 RETURN JUMPDEST PUSH2 0x31F PUSH2 0x87E JUMP JUMPDEST PUSH1 0x40 MLOAD PUSH2 0x32C SWAP2 SWAP1 PUSH2 0xA3A JUMP JUMPDEST PUSH1 0x40 MLOAD DUP1 SWAP2 SUB SWAP1 RETURN JUMPDEST PUSH2 0x33D PUSH2 0x883 JUMP JUMPDEST PUSH1 0x40 MLOAD PUSH2 0x34A SWAP2 SWAP1 PUSH2 0xA3A JUMP JUMPDEST PUSH1 0x40 MLOAD DUP1 SWAP2 SUB SWAP1 RETURN JUMPDEST PUSH2 0x35B PUSH2 0x888 JUMP JUMPDEST PUSH1 0x40 MLOAD PUSH2 0x368 SWAP2 SWAP1 PUSH2 0xA3A JUMP JUMPDEST PUSH1 0x40 MLOAD DUP1 SWAP2 SUB SWAP1 RETURN JUMPDEST PUSH2 0x379 PUSH2 0x88D JUMP JUMPDEST PUSH1 0x40 MLOAD PUSH2 0x386 SWAP2 SWAP1 PUSH2 0xA3A JUMP JUMPDEST PUSH1 0x40 MLOAD DUP1 SWAP2 SUB SWAP1 RETURN JUMPDEST PUSH2 0x397 PUSH2 0x893 JUMP JUMPDEST PUSH1 0x40 MLOAD PUSH2 0x3A4 SWAP2 SWAP1 PUSH2 0xB4D JUMP JUMPDEST PUSH1 0x40 MLOAD DUP1 SWAP2 SUB SWAP1 RETURN JUMPDEST PUSH2 0x3B5 PUSH2 0x8CC JUMP JUMPDEST PUSH1 0x40 MLOAD PUSH2 0x3C2 SWAP2 SWAP1 PUSH2 0xA3A JUMP JUMPDEST PUSH1 0x40 MLOAD DUP1 SWAP2 SUB SWAP1 RETURN JUMPDEST PUSH2 0x3D3 PUSH2 0x8D2 JUMP JUMPDEST PUSH1 0x40 MLOAD PUSH2 0x3E0 SWAP2 SWAP1 PUSH2 0xB4D JUMP JUMPDEST PUSH1 0x40 MLOAD DUP1 SWAP2 SUB SWAP1 RETURN JUMPDEST PUSH2 0x3F1 PUSH2 0x90B JUMP JUMPDEST PUSH1 0x40 MLOAD PUSH2 0x3FE SWAP2 SWAP1 PUSH2 0xA3A JUMP JUMPDEST PUSH1 0x40 MLOAD DUP1 SWAP2 SUB SWAP1 RETURN JUMPDEST PUSH2 0x40F PUSH2 0x910 JUMP JUMPDEST PUSH1 0x40 MLOAD PUSH2 0x41C SWAP2 SWAP1 PUSH2 0xA3A JUMP JUMPDEST PUSH1 0x40 MLOAD DUP1 SWAP2 SUB SWAP1 RETURN JUMPDEST PUSH2 0x42D PUSH2 0x915 JUMP JUMPDEST PUSH1 0x40 MLOAD PUSH2 0x43A SWAP2 SWAP1 PUSH2 0xA3A JUMP JUMPDEST PUSH1 0x40 MLOAD DUP1 SWAP2 SUB SWAP1 RETURN JUMPDEST PUSH2 0x44B PUSH2 0x91A JUMP JUMPDEST PUSH1 0x40 MLOAD PUSH2 0x458 SWAP2 SWAP1 PUSH2 0xB7E JUMP JUMPDEST PUSH1 0x40 MLOAD DUP1 SWAP2 SUB SWAP1 RETURN JUMPDEST PUSH2 0x469 PUSH2 0x925 JUMP JUMPDEST PUSH1 0x40 MLOAD PUSH2 0x476 SWAP2 SWAP1 PUSH2 0xA3A JUMP JUMPDEST PUSH1 0x40 MLOAD DUP1 SWAP2 SUB SWAP1 RETURN JUMPDEST PUSH2 0x487 PUSH2 0x92A JUMP JUMPDEST PUSH1 0x40 MLOAD PUSH2 0x494 SWAP2 SWAP1 PUSH2 0xA3A JUMP JUMPDEST PUSH1 0x40 MLOAD DUP1 SWAP2 SUB SWAP1 RETURN JUMPDEST PUSH2 0x4A5 PUSH2 0x930 JUMP JUMPDEST PUSH1 0x40 MLOAD PUSH2 0x4B2 SWAP2 SWAP1 PUSH2 0xA3A JUMP JUMPDEST PUSH1 0x40 MLOAD DUP1 SWAP2 SUB SWAP1 RETURN JUMPDEST PUSH2 0x4C3 PUSH2 0x935 JUMP JUMPDEST PUSH1 0x40 MLOAD PUSH2 0x4D0 SWAP2 SWAP1 PUSH2 0xB7E JUMP JUMPDEST PUSH1 0x40 MLOAD DUP1 SWAP2 SUB SWAP1 RETURN JUMPDEST PUSH2 0x4E1 PUSH2 0x941 JUMP JUMPDEST PUSH1 0x40 MLOAD PUSH2 0x4EE SWAP2 SWAP1 PUSH2 0xB7E JUMP JUMPDEST PUSH1 0x40 MLOAD DUP1 SWAP2 SUB SWAP1 RETURN JUMPDEST PUSH2 0x4FF PUSH2 0x94C JUMP JUMPDEST PUSH1 0x40 MLOAD PUSH2 0x50C SWAP2 SWAP1 PUSH2 0xA3A JUMP JUMPDEST PUSH1 0x40 MLOAD DUP1 SWAP2 SUB SWAP1 RETURN JUMPDEST PUSH2 0x51D PUSH2 0x951 JUMP JUMPDEST PUSH1 0x40 MLOAD PUSH2 0x52A SWAP2 SWAP1 PUSH2 0xB4D JUMP JUMPDEST PUSH1 0x40 MLOAD DUP1 SWAP2 SUB SWAP1 RETURN JUMPDEST PUSH2 0x53B PUSH2 0x98A JUMP JUMPDEST PUSH1 0x40 MLOAD PUSH2 0x548 SWAP2 SWAP1 PUSH2 0xA3A JUMP JUMPDEST PUSH1 0x40 MLOAD DUP1 SWAP2 SUB SWAP1 RETURN JUMPDEST PUSH2 0x559 PUSH2 0x990 JUMP JUMPDEST PUSH1 0x40 MLOAD PUSH2 0x566 SWAP2 SWAP1 PUSH2 0xA3A JUMP JUMPDEST PUSH1 0x40 MLOAD DUP1 SWAP2 SUB SWAP1 RETURN JUMPDEST PUSH2 0x577 PUSH2 0x996 JUMP JUMPDEST PUSH1 0x40 MLOAD PUSH2 0x584 SWAP2 SWAP1 PUSH2 0xA3A JUMP JUMPDEST PUSH1 0x40 MLOAD DUP1 SWAP2 SUB SWAP1 RETURN JUMPDEST PUSH2 0x595 PUSH2 0x99C JUMP JUMPDEST PUSH1 0x40 MLOAD PUSH2 0x5A2 SWAP2 SWAP1 PUSH2 0xB4D JUMP JUMPDEST PUSH1 0x40 MLOAD DUP1 SWAP2 SUB SWAP1 RETURN JUMPDEST PUSH2 0x5B3 PUSH2 0x9D5 JUMP JUMPDEST PUSH1 0x40 MLOAD PUSH2 0x5C0 SWAP2 SWAP1 PUSH2 0xB4D JUMP JUMPDEST PUSH1 0x40 MLOAD DUP1 SWAP2 SUB SWAP1 RETURN JUMPDEST PUSH2 0x5D1 PUSH2 0xA0E JUMP JUMPDEST PUSH1 0x40 MLOAD PUSH2 0x5DE SWAP2 SWAP1 PUSH2 0xA3A JUMP JUMPDEST PUSH1 0x40 MLOAD DUP1 SWAP2 SUB SWAP1 RETURN JUMPDEST PUSH2 0x5EF PUSH2 0xA13 JUMP JUMPDEST PUSH1 0x40 MLOAD PUSH2 0x5FC SWAP2 SWAP1 PUSH2 0xA3A JUMP JUMPDEST PUSH1 0x40 MLOAD DUP1 SWAP2 SUB SWAP1 RETURN JUMPDEST PUSH2 0x60D PUSH2 0xA18 JUMP JUMPDEST PUSH1 0x40 MLOAD PUSH2 0x61A SWAP2 SWAP1 PUSH2 0xA3A JUMP JUMPDEST PUSH1 0x40 MLOAD DUP1 SWAP2 SUB SWAP1 RETURN JUMPDEST PUSH1 0x7E DUP2 JUMP JUMPDEST PUSH2 0x618 DUP2 JUMP JUMPDEST PUSH1 0x60 PUSH1 0x0 PUSH2 0xFFFF AND DUP3 LT ISZERO DUP1 ISZERO PUSH2 0x649 JUMPI POP PUSH1 0x19 PUSH2 0xFFFF AND DUP3 LT JUMPDEST ISZERO PUSH2 0x68B JUMPI PUSH1 0x40 MLOAD DUP1 PUSH1 0x40 ADD PUSH1 0x40 MSTORE DUP1 PUSH1 0xE DUP2 MSTORE PUSH1 0x20 ADD PUSH32 0x2F6865726F2F6D65746164617461000000000000000000000000000000000000 DUP2 MSTORE POP SWAP1 POP PUSH2 0x824 JUMP JUMPDEST PUSH1 0x19 PUSH2 0xFFFF AND DUP3 LT ISZERO DUP1 ISZERO PUSH2 0x6A4 JUMPI POP PUSH1 0x7E PUSH2 0xFFFF AND DUP3 LT JUMPDEST ISZERO PUSH2 0x6E6 JUMPI PUSH1 0x40 MLOAD DUP1 PUSH1 0x40 ADD PUSH1 0x40 MSTORE DUP1 PUSH1 0x10 DUP2 MSTORE PUSH1 0x20 ADD PUSH32 0x2F6C6567656E642F6D6574616461746100000000000000000000000000000000 DUP2 MSTORE POP SWAP1 POP PUSH2 0x824 JUMP JUMPDEST PUSH1 0x7E PUSH2 0xFFFF AND DUP3 LT ISZERO DUP1 ISZERO PUSH2 0x700 JUMPI POP PUSH2 0x273 PUSH2 0xFFFF AND DUP3 LT JUMPDEST ISZERO PUSH2 0x742 JUMPI PUSH1 0x40 MLOAD DUP1 PUSH1 0x40 ADD PUSH1 0x40 MSTORE DUP1 PUSH1 0xE DUP2 MSTORE PUSH1 0x20 ADD PUSH32 0x2F726172652F6D65746164617461000000000000000000000000000000000000 DUP2 MSTORE POP SWAP1 POP PUSH2 0x824 JUMP JUMPDEST PUSH2 0x273 PUSH2 0xFFFF AND DUP3 LT ISZERO DUP1 ISZERO PUSH2 0x75D JUMPI POP PUSH2 0xC38 PUSH2 0xFFFF AND DUP3 LT JUMPDEST ISZERO PUSH2 0x79F JUMPI PUSH1 0x40 MLOAD DUP1 PUSH1 0x40 ADD PUSH1 0x40 MSTORE DUP1 PUSH1 0x12 DUP2 MSTORE PUSH1 0x20 ADD PUSH32 0x2F756E636F6D6D6F6E2F6D657461646174610000000000000000000000000000 DUP2 MSTORE POP SWAP1 POP PUSH2 0x824 JUMP JUMPDEST PUSH2 0xC38 PUSH2 0xFFFF AND DUP3 LT PUSH2 0x7E9 JUMPI PUSH1 0x40 MLOAD DUP1 PUSH1 0x40 ADD PUSH1 0x40 MSTORE DUP1 PUSH1 0x10 DUP2 MSTORE PUSH1 0x20 ADD PUSH32 0x2F636F6D6D6F6E2F6D6574616461746100000000000000000000000000000000 DUP2 MSTORE POP SWAP1 POP PUSH2 0x824 JUMP JUMPDEST PUSH1 0x40 MLOAD PUSH32 0x8C379A000000000000000000000000000000000000000000000000000000000 DUP2 MSTORE PUSH1 0x4 ADD PUSH2 0x81B SWAP1 PUSH2 0xBF6 JUMP JUMPDEST PUSH1 0x40 MLOAD DUP1 SWAP2 SUB SWAP1 REVERT JUMPDEST SWAP2 SWAP1 POP JUMP JUMPDEST PUSH1 0x40 MLOAD DUP1 PUSH1 0x40 ADD PUSH1 0x40 MSTORE DUP1 PUSH1 0x10 DUP2 MSTORE PUSH1 0x20 ADD PUSH32 0x2F6C6567656E642F6D6574616461746100000000000000000000000000000000 DUP2 MSTORE POP DUP2 JUMP JUMPDEST PUSH1 0xB5 DUP2 JUMP JUMPDEST PUSH1 0xA DUP2 JUMP JUMPDEST PUSH2 0x273 DUP2 JUMP JUMPDEST PUSH8 0x16C2734F97A40000 DUP2 JUMP JUMPDEST PUSH1 0x0 DUP2 JUMP JUMPDEST PUSH1 0x32 DUP2 JUMP JUMPDEST PUSH1 0x19 DUP2 JUMP JUMPDEST PUSH2 0xC38 DUP2 JUMP JUMPDEST PUSH1 0x40 MLOAD DUP1 PUSH1 0x40 ADD PUSH1 0x40 MSTORE DUP1 PUSH1 0x12 DUP2 MSTORE PUSH1 0x20 ADD PUSH32 0x2F756E636F6D6D6F6E2F6D657461646174610000000000000000000000000000 DUP2 MSTORE POP DUP2 JUMP JUMPDEST PUSH2 0x203A DUP2 JUMP JUMPDEST PUSH1 0x40 MLOAD DUP1 PUSH1 0x40 ADD PUSH1 0x40 MSTORE DUP1 PUSH1 0x10 DUP2 MSTORE PUSH1 0x20 ADD PUSH32 0x2F636F6D6D6F6E2F6D6574616461746100000000000000000000000000000000 DUP2 MSTORE POP DUP2 JUMP JUMPDEST PUSH1 0x7D DUP2 JUMP JUMPDEST PUSH1 0x1 DUP2 JUMP JUMPDEST PUSH1 0x5 DUP2 JUMP JUMPDEST PUSH7 0xEA7AA67B2D0000 DUP2 JUMP JUMPDEST PUSH1 0x19 DUP2 JUMP JUMPDEST PUSH2 0x7D0 DUP2 JUMP JUMPDEST PUSH1 0x0 DUP2 JUMP JUMPDEST PUSH8 0x494654067E10000 DUP2 JUMP JUMPDEST PUSH7 0x2E2F6E5E148000 DUP2 JUMP JUMPDEST PUSH1 0x50 DUP2 JUMP JUMPDEST PUSH1 0x40 MLOAD DUP1 PUSH1 0x40 ADD PUSH1 0x40 MSTORE DUP1 PUSH1 0xE DUP2 MSTORE PUSH1 0x20 ADD PUSH32 0x2F726172652F6D65746164617461000000000000000000000000000000000000 DUP2 MSTORE POP DUP2 JUMP JUMPDEST PUSH2 0x4E2 DUP2 JUMP JUMPDEST PUSH2 0x190 DUP2 JUMP JUMPDEST PUSH2 0x168A DUP2 JUMP JUMPDEST PUSH1 0x40 MLOAD DUP1 PUSH1 0x40 ADD PUSH1 0x40 MSTORE DUP1 PUSH1 0xE DUP2 MSTORE PUSH1 0x20 ADD PUSH32 0x2F6865726F2F6D65746164617461000000000000000000000000000000000000 DUP2 MSTORE POP DUP2 JUMP JUMPDEST PUSH1 0x40 MLOAD DUP1 PUSH1 0x40 ADD PUSH1 0x40 MSTORE DUP1 PUSH1 0x15 DUP2 MSTORE PUSH1 0x20 ADD PUSH32 0x697066733A2F2F3C686173683E2F646F612F6E66740000000000000000000000 DUP2 MSTORE POP DUP2 JUMP JUMPDEST PUSH1 0x19 DUP2 JUMP JUMPDEST PUSH1 0x0 DUP2 JUMP JUMPDEST PUSH1 0xFA DUP2 JUMP JUMPDEST PUSH1 0x0 PUSH2 0xFFFF DUP3 AND SWAP1 POP SWAP2 SWAP1 POP JUMP JUMPDEST PUSH2 0xA34 DUP2 PUSH2 0xA1D JUMP JUMPDEST DUP3 MSTORE POP POP JUMP JUMPDEST PUSH1 0x0 PUSH1 0x20 DUP3 ADD SWAP1 POP PUSH2 0xA4F PUSH1 0x0 DUP4 ADD DUP5 PUSH2 0xA2B JUMP JUMPDEST SWAP3 SWAP2 POP POP JUMP JUMPDEST PUSH1 0x0 DUP1 REVERT JUMPDEST PUSH1 0x0 DUP2 SWAP1 POP SWAP2 SWAP1 POP JUMP JUMPDEST PUSH2 0xA6D DUP2 PUSH2 0xA5A JUMP JUMPDEST DUP2 EQ PUSH2 0xA78 JUMPI PUSH1 0x0 DUP1 REVERT JUMPDEST POP JUMP JUMPDEST PUSH1 0x0 DUP2 CALLDATALOAD SWAP1 POP PUSH2 0xA8A DUP2 PUSH2 0xA64 JUMP JUMPDEST SWAP3 SWAP2 POP POP JUMP JUMPDEST PUSH1 0x0 PUSH1 0x20 DUP3 DUP5 SUB SLT ISZERO PUSH2 0xAA6 JUMPI PUSH2 0xAA5 PUSH2 0xA55 JUMP JUMPDEST JUMPDEST PUSH1 0x0 PUSH2 0xAB4 DUP5 DUP3 DUP6 ADD PUSH2 0xA7B JUMP JUMPDEST SWAP2 POP POP SWAP3 SWAP2 POP POP JUMP JUMPDEST PUSH1 0x0 DUP2 MLOAD SWAP1 POP SWAP2 SWAP1 POP JUMP JUMPDEST PUSH1 0x0 DUP3 DUP3 MSTORE PUSH1 0x20 DUP3 ADD SWAP1 POP SWAP3 SWAP2 POP POP JUMP JUMPDEST PUSH1 0x0 JUMPDEST DUP4 DUP2 LT ISZERO PUSH2 0xAF7 JUMPI DUP1 DUP3 ADD MLOAD DUP2 DUP5 ADD MSTORE PUSH1 0x20 DUP2 ADD SWAP1 POP PUSH2 0xADC JUMP JUMPDEST PUSH1 0x0 DUP5 DUP5 ADD MSTORE POP POP POP POP JUMP JUMPDEST PUSH1 0x0 PUSH1 0x1F NOT PUSH1 0x1F DUP4 ADD AND SWAP1 POP SWAP2 SWAP1 POP JUMP JUMPDEST PUSH1 0x0 PUSH2 0xB1F DUP3 PUSH2 0xABD JUMP JUMPDEST PUSH2 0xB29 DUP2 DUP6 PUSH2 0xAC8 JUMP JUMPDEST SWAP4 POP PUSH2 0xB39 DUP2 DUP6 PUSH1 0x20 DUP7 ADD PUSH2 0xAD9 JUMP JUMPDEST PUSH2 0xB42 DUP2 PUSH2 0xB03 JUMP JUMPDEST DUP5 ADD SWAP2 POP POP SWAP3 SWAP2 POP POP JUMP JUMPDEST PUSH1 0x0 PUSH1 0x20 DUP3 ADD SWAP1 POP DUP2 DUP2 SUB PUSH1 0x0 DUP4 ADD MSTORE PUSH2 0xB67 DUP2 DUP5 PUSH2 0xB14 JUMP JUMPDEST SWAP1 POP SWAP3 SWAP2 POP POP JUMP JUMPDEST PUSH2 0xB78 DUP2 PUSH2 0xA5A JUMP JUMPDEST DUP3 MSTORE POP POP JUMP JUMPDEST PUSH1 0x0 PUSH1 0x20 DUP3 ADD SWAP1 POP PUSH2 0xB93 PUSH1 0x0 DUP4 ADD DUP5 PUSH2 0xB6F JUMP JUMPDEST SWAP3 SWAP2 POP POP JUMP JUMPDEST PUSH1 0x0 DUP3 DUP3 MSTORE PUSH1 0x20 DUP3 ADD SWAP1 POP SWAP3 SWAP2 POP POP JUMP JUMPDEST PUSH32 0x496E76616C696420746F6B656E20494400000000000000000000000000000000 PUSH1 0x0 DUP3 ADD MSTORE POP JUMP JUMPDEST PUSH1 0x0 PUSH2 0xBE0 PUSH1 0x10 DUP4 PUSH2 0xB99 JUMP JUMPDEST SWAP2 POP PUSH2 0xBEB DUP3 PUSH2 0xBAA JUMP JUMPDEST PUSH1 0x20 DUP3 ADD SWAP1 POP SWAP2 SWAP1 POP JUMP JUMPDEST PUSH1 0x0 PUSH1 0x20 DUP3 ADD SWAP1 POP DUP2 DUP2 SUB PUSH1 0x0 DUP4 ADD MSTORE PUSH2 0xC0F DUP2 PUSH2 0xBD3 JUMP JUMPDEST SWAP1 POP SWAP2 SWAP1 POP JUMP INVALID LOG2 PUSH5 0x6970667358 0x22 SLT KECCAK256 SELFDESTRUCT PUSH24 0x8D55D1DC51A37BFE8197852E1DF00661AF8079D4B4503D66 0xD SWAP14 DUP7 CHAINID PUSH6 0xA564736F6C63 NUMBER STOP ADDMOD SGT STOP CALLER "
		},
		"gasEstimates": {
			"creation": {
				"codeDepositCost": "629600",
				"executionCost": "689",
				"totalCost": "630289"
			},
			"external": {
				"BASE_COMMON_URI()": "infinite",
				"BASE_HERO_URI()": "infinite",
				"BASE_LEGEND_URI()": "infinite",
				"BASE_RARE_URI()": "infinite",
				"BASE_UNCOMMON_URI()": "infinite",
				"BASE_URI()": "infinite",
				"BASE_URI_FOR(uint256)": "infinite",
				"COMMON_NFT_PRICE()": "381",
				"COMMON_NFT_SUPPLY_1st()": "430",
				"COMMON_NFT_SUPPLY_2nd()": "386",
				"COMMON_NFT_SUPPLY_3rd()": "430",
				"COMMON_START_INDEX()": "431",
				"HERO_NFT_START_INDEX()": "365",
				"HERO_NFT_SUPPLY_1st()": "407",
				"HERO_NFT_SUPPLY_2nd()": "364",
				"HERO_NFT_SUPPLY_3rd()": "429",
				"LEGEND_NFT_PRICE()": "425",
				"LEGEND_NFT_START_INDEX()": "409",
				"LEGEND_NFT_SUPPLY_1st()": "452",
				"LEGEND_NFT_SUPPLY_2nd()": "387",
				"LEGEND_NFT_SUPPLY_3rd()": "430",
				"NFT_SUPPLY_1st()": "365",
				"NFT_SUPPLY_2nd()": "388",
				"NFT_SUPPLY_3rd()": "386",
				"RARE_NFT_PRICE()": "380",
				"RARE_NFT_START_INDEX()": "366",
				"RARE_NFT_SUPPLY_1st()": "365",
				"RARE_NFT_SUPPLY_2nd()": "387",
				"RARE_NFT_SUPPLY_3rd()": "408",
				"UNCOMMON_NFT_PRICE()": "402",
				"UNCOMMON_NFT_SUPPLY_1st()": "409",
				"UNCOMMON_NFT_SUPPLY_2nd()": "451",
				"UNCOMMON_NFT_SUPPLY_3rd()": "431",
				"UNCOMMON_START_INDEX()": "409"
			}
		},
		"methodIdentifiers": {
			"BASE_COMMON_URI()": "811d5c6c",
			"BASE_HERO_URI()": "cfc2abb7",
			"BASE_LEGEND_URI()": "1eb1a2d3",
			"BASE_RARE_URI()": "c244e88b",
			"BASE_UNCOMMON_URI()": "6871d79f",
			"BASE_URI()": "dbddb26a",
			"BASE_URI_FOR(uint256)": "1ccb1a1d",
			"COMMON_NFT_PRICE()": "9ee58048",
			"COMMON_NFT_SUPPLY_1st()": "828d481b",
			"COMMON_NFT_SUPPLY_2nd()": "c525c0c8",
			"COMMON_NFT_SUPPLY_3rd()": "cb937d2b",
			"COMMON_START_INDEX()": "628af7a1",
			"HERO_NFT_START_INDEX()": "58a0d923",
			"HERO_NFT_SUPPLY_1st()": "e93e980b",
			"HERO_NFT_SUPPLY_2nd()": "a83179db",
			"HERO_NFT_SUPPLY_3rd()": "f41dc7d2",
			"LEGEND_NFT_PRICE()": "4e2ecca1",
			"LEGEND_NFT_START_INDEX()": "a1bd4a07",
			"LEGEND_NFT_SUPPLY_1st()": "8d1da411",
			"LEGEND_NFT_SUPPLY_2nd()": "38d79b52",
			"LEGEND_NFT_SUPPLY_3rd()": "bf0832ae",
			"NFT_SUPPLY_1st()": "32a41506",
			"NFT_SUPPLY_2nd()": "1ab7730c",
			"NFT_SUPPLY_3rd()": "6b606f0f",
			"RARE_NFT_PRICE()": "be8ca905",
			"RARE_NFT_START_INDEX()": "10a309f3",
			"RARE_NFT_SUPPLY_1st()": "970f6e2f",
			"RARE_NFT_SUPPLY_2nd()": "5e09346a",
			"RARE_NFT_SUPPLY_3rd()": "ca45f599",
			"UNCOMMON_NFT_PRICE()": "beb9e75e",
			"UNCOMMON_NFT_SUPPLY_1st()": "5e28c936",
			"UNCOMMON_NFT_SUPPLY_2nd()": "f59528d2",
			"UNCOMMON_NFT_SUPPLY_3rd()": "a1d2002d",
			"UNCOMMON_START_INDEX()": "4ca8c63d"
		}
	},
	"abi": [
		{
			"inputs": [],
			"name": "BASE_COMMON_URI",
			"outputs": [
				{
					"internalType": "string",
					"name": "",
					"type": "string"
				}
			],
			"stateMutability": "view",
			"type": "function"
		},
		{
			"inputs": [],
			"name": "BASE_HERO_URI",
			"outputs": [
				{
					"internalType": "string",
					"name": "",
					"type": "string"
				}
			],
			"stateMutability": "view",
			"type": "function"
		},
		{
			"inputs": [],
			"name": "BASE_LEGEND_URI",
			"outputs": [
				{
					"internalType": "string",
					"name": "",
					"type": "string"
				}
			],
			"stateMutability": "view",
			"type": "function"
		},
		{
			"inputs": [],
			"name": "BASE_RARE_URI",
			"outputs": [
				{
					"internalType": "string",
					"name": "",
					"type": "string"
				}
			],
			"stateMutability": "view",
			"type": "function"
		},
		{
			"inputs": [],
			"name": "BASE_UNCOMMON_URI",
			"outputs": [
				{
					"internalType": "string",
					"name": "",
					"type": "string"
				}
			],
			"stateMutability": "view",
			"type": "function"
		},
		{
			"inputs": [],
			"name": "BASE_URI",
			"outputs": [
				{
					"internalType": "string",
					"name": "",
					"type": "string"
				}
			],
			"stateMutability": "view",
			"type": "function"
		},
		{
			"inputs": [
				{
					"internalType": "uint256",
					"name": "tokenID",
					"type": "uint256"
				}
			],
			"name": "BASE_URI_FOR",
			"outputs": [
				{
					"internalType": "string",
					"name": "",
					"type": "string"
				}
			],
			"stateMutability": "pure",
			"type": "function"
		},
		{
			"inputs": [],
			"name": "COMMON_NFT_PRICE",
			"outputs": [
				{
					"internalType": "uint256",
					"name": "",
					"type": "uint256"
				}
			],
			"stateMutability": "view",
			"type": "function"
		},
		{
			"inputs": [],
			"name": "COMMON_NFT_SUPPLY_1st",
			"outputs": [
				{
					"internalType": "uint16",
					"name": "",
					"type": "uint16"
				}
			],
			"stateMutability": "view",
			"type": "function"
		},
		{
			"inputs": [],
			"name": "COMMON_NFT_SUPPLY_2nd",
			"outputs": [
				{
					"internalType": "uint16",
					"name": "",
					"type": "uint16"
				}
			],
			"stateMutability": "view",
			"type": "function"
		},
		{
			"inputs": [],
			"name": "COMMON_NFT_SUPPLY_3rd",
			"outputs": [
				{
					"internalType": "uint16",
					"name": "",
					"type": "uint16"
				}
			],
			"stateMutability": "view",
			"type": "function"
		},
		{
			"inputs": [],
			"name": "COMMON_START_INDEX",
			"outputs": [
				{
					"internalType": "uint16",
					"name": "",
					"type": "uint16"
				}
			],
			"stateMutability": "view",
			"type": "function"
		},
		{
			"inputs": [],
			"name": "HERO_NFT_START_INDEX",
			"outputs": [
				{
					"internalType": "uint16",
					"name": "",
					"type": "uint16"
				}
			],
			"stateMutability": "view",
			"type": "function"
		},
		{
			"inputs": [],
			"name": "HERO_NFT_SUPPLY_1st",
			"outputs": [
				{
					"internalType": "uint16",
					"name": "",
					"type": "uint16"
				}
			],
			"stateMutability": "view",
			"type": "function"
		},
		{
			"inputs": [],
			"name": "HERO_NFT_SUPPLY_2nd",
			"outputs": [
				{
					"internalType": "uint16",
					"name": "",
					"type": "uint16"
				}
			],
			"stateMutability": "view",
			"type": "function"
		},
		{
			"inputs": [],
			"name": "HERO_NFT_SUPPLY_3rd",
			"outputs": [
				{
					"internalType": "uint16",
					"name": "",
					"type": "uint16"
				}
			],
			"stateMutability": "view",
			"type": "function"
		},
		{
			"inputs": [],
			"name": "LEGEND_NFT_PRICE",
			"outputs": [
				{
					"internalType": "uint256",
					"name": "",
					"type": "uint256"
				}
			],
			"stateMutability": "view",
			"type": "function"
		},
		{
			"inputs": [],
			"name": "LEGEND_NFT_START_INDEX",
			"outputs": [
				{
					"internalType": "uint16",
					"name": "",
					"type": "uint16"
				}
			],
			"stateMutability": "view",
			"type": "function"
		},
		{
			"inputs": [],
			"name": "LEGEND_NFT_SUPPLY_1st",
			"outputs": [
				{
					"internalType": "uint16",
					"name": "",
					"type": "uint16"
				}
			],
			"stateMutability": "view",
			"type": "function"
		},
		{
			"inputs": [],
			"name": "LEGEND_NFT_SUPPLY_2nd",
			"outputs": [
				{
					"internalType": "uint16",
					"name": "",
					"type": "uint16"
				}
			],
			"stateMutability": "view",
			"type": "function"
		},
		{
			"inputs": [],
			"name": "LEGEND_NFT_SUPPLY_3rd",
			"outputs": [
				{
					"internalType": "uint16",
					"name": "",
					"type": "uint16"
				}
			],
			"stateMutability": "view",
			"type": "function"
		},
		{
			"inputs": [],
			"name": "NFT_SUPPLY_1st",
			"outputs": [
				{
					"internalType": "uint16",
					"name": "",
					"type": "uint16"
				}
			],
			"stateMutability": "view",
			"type": "function"
		},
		{
			"inputs": [],
			"name": "NFT_SUPPLY_2nd",
			"outputs": [
				{
					"internalType": "uint16",
					"name": "",
					"type": "uint16"
				}
			],
			"stateMutability": "view",
			"type": "function"
		},
		{
			"inputs": [],
			"name": "NFT_SUPPLY_3rd",
			"outputs": [
				{
					"internalType": "uint16",
					"name": "",
					"type": "uint16"
				}
			],
			"stateMutability": "view",
			"type": "function"
		},
		{
			"inputs": [],
			"name": "RARE_NFT_PRICE",
			"outputs": [
				{
					"internalType": "uint256",
					"name": "",
					"type": "uint256"
				}
			],
			"stateMutability": "view",
			"type": "function"
		},
		{
			"inputs": [],
			"name": "RARE_NFT_START_INDEX",
			"outputs": [
				{
					"internalType": "uint16",
					"name": "",
					"type": "uint16"
				}
			],
			"stateMutability": "view",
			"type": "function"
		},
		{
			"inputs": [],
			"name": "RARE_NFT_SUPPLY_1st",
			"outputs": [
				{
					"internalType": "uint16",
					"name": "",
					"type": "uint16"
				}
			],
			"stateMutability": "view",
			"type": "function"
		},
		{
			"inputs": [],
			"name": "RARE_NFT_SUPPLY_2nd",
			"outputs": [
				{
					"internalType": "uint16",
					"name": "",
					"type": "uint16"
				}
			],
			"stateMutability": "view",
			"type": "function"
		},
		{
			"inputs": [],
			"name": "RARE_NFT_SUPPLY_3rd",
			"outputs": [
				{
					"internalType": "uint16",
					"name": "",
					"type": "uint16"
				}
			],
			"stateMutability": "view",
			"type": "function"
		},
		{
			"inputs": [],
			"name": "UNCOMMON_NFT_PRICE",
			"outputs": [
				{
					"internalType": "uint256",
					"name": "",
					"type": "uint256"
				}
			],
			"stateMutability": "view",
			"type": "function"
		},
		{
			"inputs": [],
			"name": "UNCOMMON_NFT_SUPPLY_1st",
			"outputs": [
				{
					"internalType": "uint16",
					"name": "",
					"type": "uint16"
				}
			],
			"stateMutability": "view",
			"type": "function"
		},
		{
			"inputs": [],
			"name": "UNCOMMON_NFT_SUPPLY_2nd",
			"outputs": [
				{
					"internalType": "uint16",
					"name": "",
					"type": "uint16"
				}
			],
			"stateMutability": "view",
			"type": "function"
		},
		{
			"inputs": [],
			"name": "UNCOMMON_NFT_SUPPLY_3rd",
			"outputs": [
				{
					"internalType": "uint16",
					"name": "",
					"type": "uint16"
				}
			],
			"stateMutability": "view",
			"type": "function"
		},
		{
			"inputs": [],
			"name": "UNCOMMON_START_INDEX",
			"outputs": [
				{
					"internalType": "uint16",
					"name": "",
					"type": "uint16"
				}
			],
			"stateMutability": "view",
			"type": "function"
		}
	]
}