{
	"data": {
		"bytecode": {
			"linkReferences": {
				"DoAConstants.sol": {
					"DoAConstants": [
						{
							"length": 20,
							"start": 4596
						}
					]
				}
			},
			"object": "60806040523480156200001157600080fd5b506040518060400160405280601181526020017f446175676874657273206f6620417279610000000000000000000000000000008152506040518060400160405280600381526020017f446f41000000000000000000000000000000000000000000000000000000000081525081600090816200008f919062000485565b508060019081620000a1919062000485565b5050506000600b60006101000a81548160ff021916908315150217905550620000df620000d36200013d60201b60201c565b6200014560201b60201c565b6001600c60003373ffffffffffffffffffffffffffffffffffffffff1673ffffffffffffffffffffffffffffffffffffffff16815260200190815260200160002060006101000a81548160ff0219169083151502179055506200056c565b600033905090565b6000600b60019054906101000a900473ffffffffffffffffffffffffffffffffffffffff16905081600b60016101000a81548173ffffffffffffffffffffffffffffffffffffffff021916908373ffffffffffffffffffffffffffffffffffffffff1602179055508173ffffffffffffffffffffffffffffffffffffffff168173ffffffffffffffffffffffffffffffffffffffff167f8be0079c531659141344cd1fd0a4f28419497f9722a3daafe3b4186f6b6457e060405160405180910390a35050565b600081519050919050565b7f4e487b7100000000000000000000000000000000000000000000000000000000600052604160045260246000fd5b7f4e487b7100000000000000000000000000000000000000000000000000000000600052602260045260246000fd5b600060028204905060018216806200028d57607f821691505b602082108103620002a357620002a262000245565b5b50919050565b60008190508160005260206000209050919050565b60006020601f8301049050919050565b600082821b905092915050565b6000600883026200030d7fffffffffffffffffffffffffffffffffffffffffffffffffffffffffffffffff82620002ce565b620003198683620002ce565b95508019841693508086168417925050509392505050565b6000819050919050565b6000819050919050565b600062000366620003606200035a8462000331565b6200033b565b62000331565b9050919050565b6000819050919050565b620003828362000345565b6200039a62000391826200036d565b848454620002db565b825550505050565b600090565b620003b1620003a2565b620003be81848462000377565b505050565b5b81811015620003e657620003da600082620003a7565b600181019050620003c4565b5050565b601f8211156200043557620003ff81620002a9565b6200040a84620002be565b810160208510156200041a578190505b620004326200042985620002be565b830182620003c3565b50505b505050565b600082821c905092915050565b60006200045a600019846008026200043a565b1980831691505092915050565b600062000475838362000447565b9150826002028217905092915050565b62000490826200020b565b67ffffffffffffffff811115620004ac57620004ab62000216565b5b620004b8825462000274565b620004c5828285620003ea565b600060209050601f831160018114620004fd5760008415620004e8578287015190505b620004f4858262000467565b86555062000564565b601f1984166200050d86620002a9565b60005b82811015620005375784890151825560018201915060208501945060208101905062000510565b8683101562000557578489015162000553601f89168262000447565b8355505b6001600288020188555050505b505050505050565b613d58806200057c6000396000f3fe608060405234801561001057600080fd5b50600436106101a95760003560e01c80636352211e116100f9578063a144819411610097578063c87b56dd11610071578063c87b56dd1461047e578063e985e9c5146104ae578063f2fde38b146104de578063f9f49952146104fa576101a9565b8063a14481941461042a578063a22cb46514610446578063b88d4fde14610462576101a9565b80638456cb59116100d35780638456cb59146103c85780638da5cb5b146103d257806395d89b41146103f057806398eaa4a71461040e576101a9565b80636352211e1461035e57806370a082311461038e578063715018a6146103be576101a9565b80632f745c591161016657806342842e0e1161014057806342842e0e146102d857806342966c68146102f45780634f6ccce7146103105780635c975abb14610340576101a9565b80632f745c59146102825780633f4ba83a146102b257806340d097c3146102bc576101a9565b806301ffc9a7146101ae57806306fdde03146101de578063081812fc146101fc578063095ea7b31461022c57806318160ddd1461024857806323b872dd14610266575b600080fd5b6101c860048036038101906101c391906129b9565b610516565b6040516101d59190612a01565b60405180910390f35b6101e6610528565b6040516101f39190612aac565b60405180910390f35b61021660048036038101906102119190612b04565b6105ba565b6040516102239190612b72565b60405180910390f35b61024660048036038101906102419190612bb9565b610600565b005b610250610717565b60405161025d9190612c08565b60405180910390f35b610280600480360381019061027b9190612c23565b610724565b005b61029c60048036038101906102979190612bb9565b610784565b6040516102a99190612c08565b60405180910390f35b6102ba610829565b005b6102d660048036038101906102d19190612c76565b61083b565b005b6102f260048036038101906102ed9190612c23565b61084f565b005b61030e60048036038101906103099190612b04565b61086f565b005b61032a60048036038101906103259190612b04565b6108cb565b6040516103379190612c08565b60405180910390f35b61034861093c565b6040516103559190612a01565b60405180910390f35b61037860048036038101906103739190612b04565b610953565b6040516103859190612b72565b60405180910390f35b6103a860048036038101906103a39190612c76565b6109d9565b6040516103b59190612c08565b60405180910390f35b6103c6610a90565b005b6103d0610aa4565b005b6103da610ab6565b6040516103e79190612b72565b60405180910390f35b6103f8610ae0565b6040516104059190612aac565b60405180910390f35b61042860048036038101906104239190612c76565b610b72565b005b610444600480360381019061043f9190612bb9565b610bd5565b005b610460600480360381019061045b9190612ccf565b610be3565b005b61047c60048036038101906104779190612e44565b610bf9565b005b61049860048036038101906104939190612b04565b610c5b565b6040516104a59190612aac565b60405180910390f35b6104c860048036038101906104c39190612ec7565b610f71565b6040516104d59190612a01565b60405180910390f35b6104f860048036038101906104f39190612c76565b611005565b005b610514600480360381019061050f9190612bb9565b611088565b005b6000610521826110d8565b9050919050565b60606000805461053790612f36565b80601f016020809104026020016040519081016040528092919081815260200182805461056390612f36565b80156105b05780601f10610585576101008083540402835291602001916105b0565b820191906000526020600020905b81548152906001019060200180831161059357829003601f168201915b5050505050905090565b60006105c582611152565b6004600083815260200190815260200160002060009054906101000a900473ffffffffffffffffffffffffffffffffffffffff169050919050565b600061060b82610953565b90508073ffffffffffffffffffffffffffffffffffffffff168373ffffffffffffffffffffffffffffffffffffffff160361067b576040517f08c379a000000000000000000000000000000000000000000000000000000000815260040161067290612fd9565b60405180910390fd5b8073ffffffffffffffffffffffffffffffffffffffff1661069a61119d565b73ffffffffffffffffffffffffffffffffffffffff1614806106c957506106c8816106c361119d565b610f71565b5b610708576040517f08c379a00000000000000000000000000000000000000000000000000000000081526004016106ff9061306b565b60405180910390fd5b61071283836111a5565b505050565b6000600880549050905090565b61073561072f61119d565b8261125e565b610774576040517f08c379a000000000000000000000000000000000000000000000000000000000815260040161076b906130fd565b60405180910390fd5b61077f8383836112f3565b505050565b600061078f836109d9565b82106107d0576040517f08c379a00000000000000000000000000000000000000000000000000000000081526004016107c79061318f565b60405180910390fd5b600660008473ffffffffffffffffffffffffffffffffffffffff1673ffffffffffffffffffffffffffffffffffffffff168152602001908152602001600020600083815260200190815260200160002054905092915050565b6108316115ec565b61083961166a565b565b61084c81610847610717565b6116cd565b50565b61086a83838360405180602001604052806000815250610bf9565b505050565b61088061087a61119d565b8261125e565b6108bf576040517f08c379a00000000000000000000000000000000000000000000000000000000081526004016108b6906130fd565b60405180910390fd5b6108c8816116eb565b50565b60006108d5610717565b8210610916576040517f08c379a000000000000000000000000000000000000000000000000000000000815260040161090d90613221565b60405180910390fd5b6008828154811061092a57610929613241565b5b90600052602060002001549050919050565b6000600b60009054906101000a900460ff16905090565b60008061095f836116f7565b9050600073ffffffffffffffffffffffffffffffffffffffff168173ffffffffffffffffffffffffffffffffffffffff16036109d0576040517f08c379a00000000000000000000000000000000000000000000000000000000081526004016109c7906132bc565b60405180910390fd5b80915050919050565b60008073ffffffffffffffffffffffffffffffffffffffff168273ffffffffffffffffffffffffffffffffffffffff1603610a49576040517f08c379a0000000000000000000000000000000000000000000000000000000008152600401610a409061334e565b60405180910390fd5b600360008373ffffffffffffffffffffffffffffffffffffffff1673ffffffffffffffffffffffffffffffffffffffff168152602001908152602001600020549050919050565b610a986115ec565b610aa26000611734565b565b610aac6115ec565b610ab46117fa565b565b6000600b60019054906101000a900473ffffffffffffffffffffffffffffffffffffffff16905090565b606060018054610aef90612f36565b80601f0160208091040260200160405190810160405280929190818152602001828054610b1b90612f36565b8015610b685780601f10610b3d57610100808354040283529160200191610b68565b820191906000526020600020905b815481529060010190602001808311610b4b57829003601f168201915b5050505050905090565b610b7a6115ec565b6001600c60008373ffffffffffffffffffffffffffffffffffffffff1673ffffffffffffffffffffffffffffffffffffffff16815260200190815260200160002060006101000a81548160ff02191690831515021790555050565b610bdf82826116cd565b5050565b610bf5610bee61119d565b838361185d565b5050565b610c0a610c0461119d565b8361125e565b610c49576040517f08c379a0000000000000000000000000000000000000000000000000000000008152600401610c40906130fd565b60405180910390fd5b610c55848484846119c9565b50505050565b6060610c6682611152565b6000610c70611a25565b90506060600073__$5aeaec1fdbc9a10e305638fb861dbb6f26$__63ed944cb6866040518263ffffffff1660e01b8152600401610cad919061337d565b602060405180830381865af4158015610cca573d6000803e3d6000fd5b505050506040513d601f19601f82011682018060405250810190610cee91906133bd565b905060006004811115610d0457610d036133ea565b5b816004811115610d1757610d166133ea565b5b03610d59576040518060400160405280600e81526020017f2f6865726f2f6d657461646174610000000000000000000000000000000000008152509150610f3b565b60016004811115610d6d57610d6c6133ea565b5b816004811115610d8057610d7f6133ea565b5b03610dc2576040518060400160405280601081526020017f2f6c6567656e642f6d65746164617461000000000000000000000000000000008152509150610f3a565b60026004811115610dd657610dd56133ea565b5b816004811115610de957610de86133ea565b5b03610e2b576040518060400160405280600e81526020017f2f726172652f6d657461646174610000000000000000000000000000000000008152509150610f39565b60036004811115610e3f57610e3e6133ea565b5b816004811115610e5257610e516133ea565b5b03610e94576040518060400160405280601281526020017f2f756e636f6d6d6f6e2f6d6574616461746100000000000000000000000000008152509150610f38565b600480811115610ea757610ea66133ea565b5b816004811115610eba57610eb96133ea565b5b03610efc576040518060400160405280601081526020017f2f636f6d6d6f6e2f6d65746164617461000000000000000000000000000000008152509150610f37565b6040517f08c379a0000000000000000000000000000000000000000000000000000000008152600401610f2e90613465565b60405180910390fd5b5b5b5b5b8282610f4687611a62565b604051602001610f5893929190613559565b6040516020818303038152906040529350505050919050565b6000600560008473ffffffffffffffffffffffffffffffffffffffff1673ffffffffffffffffffffffffffffffffffffffff16815260200190815260200160002060008373ffffffffffffffffffffffffffffffffffffffff1673ffffffffffffffffffffffffffffffffffffffff16815260200190815260200160002060009054906101000a900460ff16905092915050565b61100d6115ec565b600073ffffffffffffffffffffffffffffffffffffffff168173ffffffffffffffffffffffffffffffffffffffff160361107c576040517f08c379a000000000000000000000000000000000000000000000000000000000815260040161107390613612565b60405180910390fd5b61108581611734565b50565b6000611092610717565b905060005b6001836110a49190613661565b81116110d2576110bf8482846110ba9190613695565b6116cd565b80806110ca906136c9565b915050611097565b50505050565b60007f780e9d63000000000000000000000000000000000000000000000000000000007bffffffffffffffffffffffffffffffffffffffffffffffffffffffff1916827bffffffffffffffffffffffffffffffffffffffffffffffffffffffff1916148061114b575061114a82611b30565b5b9050919050565b61115b81611c12565b61119a576040517f08c379a0000000000000000000000000000000000000000000000000000000008152600401611191906132bc565b60405180910390fd5b50565b600033905090565b816004600083815260200190815260200160002060006101000a81548173ffffffffffffffffffffffffffffffffffffffff021916908373ffffffffffffffffffffffffffffffffffffffff160217905550808273ffffffffffffffffffffffffffffffffffffffff1661121883610953565b73ffffffffffffffffffffffffffffffffffffffff167f8c5be1e5ebec7d5bd14f71427d1e84f3dd0314c0f7b2291e5b200ac8c7c3b92560405160405180910390a45050565b60008061126a83610953565b90508073ffffffffffffffffffffffffffffffffffffffff168473ffffffffffffffffffffffffffffffffffffffff1614806112ac57506112ab8185610f71565b5b806112ea57508373ffffffffffffffffffffffffffffffffffffffff166112d2846105ba565b73ffffffffffffffffffffffffffffffffffffffff16145b91505092915050565b8273ffffffffffffffffffffffffffffffffffffffff1661131382610953565b73ffffffffffffffffffffffffffffffffffffffff1614611369576040517f08c379a000000000000000000000000000000000000000000000000000000000815260040161136090613783565b60405180910390fd5b600073ffffffffffffffffffffffffffffffffffffffff168273ffffffffffffffffffffffffffffffffffffffff16036113d8576040517f08c379a00000000000000000000000000000000000000000000000000000000081526004016113cf90613815565b60405180910390fd5b6113e58383836001611c53565b8273ffffffffffffffffffffffffffffffffffffffff1661140582610953565b73ffffffffffffffffffffffffffffffffffffffff161461145b576040517f08c379a000000000000000000000000000000000000000000000000000000000815260040161145290613783565b60405180910390fd5b6004600082815260200190815260200160002060006101000a81549073ffffffffffffffffffffffffffffffffffffffff02191690556001600360008573ffffffffffffffffffffffffffffffffffffffff1673ffffffffffffffffffffffffffffffffffffffff168152602001908152602001600020600082825403925050819055506001600360008473ffffffffffffffffffffffffffffffffffffffff1673ffffffffffffffffffffffffffffffffffffffff16815260200190815260200160002060008282540192505081905550816002600083815260200190815260200160002060006101000a81548173ffffffffffffffffffffffffffffffffffffffff021916908373ffffffffffffffffffffffffffffffffffffffff160217905550808273ffffffffffffffffffffffffffffffffffffffff168473ffffffffffffffffffffffffffffffffffffffff167fddf252ad1be2c89b69c2b068fc378daa952ba7f163c4a11628f55a4df523b3ef60405160405180910390a46115e78383836001611c6d565b505050565b6115f461119d565b73ffffffffffffffffffffffffffffffffffffffff16611612610ab6565b73ffffffffffffffffffffffffffffffffffffffff1614611668576040517f08c379a000000000000000000000000000000000000000000000000000000000815260040161165f90613881565b60405180910390fd5b565b611672611c73565b6000600b60006101000a81548160ff0219169083151502179055507f5db9ee0a495bf2e6ff9c91a7834c1ba4fdd244a5e8aa4e537bd38aeae4b073aa6116b661119d565b6040516116c39190612b72565b60405180910390a1565b6116e7828260405180602001604052806000815250611cbc565b5050565b6116f481611d17565b50565b60006002600083815260200190815260200160002060009054906101000a900473ffffffffffffffffffffffffffffffffffffffff169050919050565b6000600b60019054906101000a900473ffffffffffffffffffffffffffffffffffffffff16905081600b60016101000a81548173ffffffffffffffffffffffffffffffffffffffff021916908373ffffffffffffffffffffffffffffffffffffffff1602179055508173ffffffffffffffffffffffffffffffffffffffff168173ffffffffffffffffffffffffffffffffffffffff167f8be0079c531659141344cd1fd0a4f28419497f9722a3daafe3b4186f6b6457e060405160405180910390a35050565b611802611d6a565b6001600b60006101000a81548160ff0219169083151502179055507f62e78cea01bee320cd4e420270b5ea74000d11b0c9f74754ebdbfc544b05a25861184661119d565b6040516118539190612b72565b60405180910390a1565b8173ffffffffffffffffffffffffffffffffffffffff168373ffffffffffffffffffffffffffffffffffffffff16036118cb576040517f08c379a00000000000000000000000000000000000000000000000000000000081526004016118c2906138ed565b60405180910390fd5b80600560008573ffffffffffffffffffffffffffffffffffffffff1673ffffffffffffffffffffffffffffffffffffffff16815260200190815260200160002060008473ffffffffffffffffffffffffffffffffffffffff1673ffffffffffffffffffffffffffffffffffffffff16815260200190815260200160002060006101000a81548160ff0219169083151502179055508173ffffffffffffffffffffffffffffffffffffffff168373ffffffffffffffffffffffffffffffffffffffff167f17307eab39ab6107e8899845ad3d59bd9653f200f220920489ca2b5937696c31836040516119bc9190612a01565b60405180910390a3505050565b6119d48484846112f3565b6119e084848484611db4565b611a1f576040517f08c379a0000000000000000000000000000000000000000000000000000000008152600401611a169061397f565b60405180910390fd5b50505050565b60606040518060400160405280601581526020017f697066733a2f2f3c686173683e2f646f612f6e66740000000000000000000000815250905090565b606060006001611a7184611f3b565b01905060008167ffffffffffffffff811115611a9057611a8f612d19565b5b6040519080825280601f01601f191660200182016040528015611ac25781602001600182028036833780820191505090505b509050600082602001820190505b600115611b25578080600190039150507f3031323334353637383961626364656600000000000000000000000000000000600a86061a8153600a8581611b1957611b1861399f565b5b04945060008503611ad0575b819350505050919050565b60007f80ac58cd000000000000000000000000000000000000000000000000000000007bffffffffffffffffffffffffffffffffffffffffffffffffffffffff1916827bffffffffffffffffffffffffffffffffffffffffffffffffffffffff19161480611bfb57507f5b5e139f000000000000000000000000000000000000000000000000000000007bffffffffffffffffffffffffffffffffffffffffffffffffffffffff1916827bffffffffffffffffffffffffffffffffffffffffffffffffffffffff1916145b80611c0b5750611c0a8261208e565b5b9050919050565b60008073ffffffffffffffffffffffffffffffffffffffff16611c34836116f7565b73ffffffffffffffffffffffffffffffffffffffff1614159050919050565b611c5b611d6a565b611c67848484846120f8565b50505050565b50505050565b611c7b61093c565b611cba576040517f08c379a0000000000000000000000000000000000000000000000000000000008152600401611cb190613a1a565b60405180910390fd5b565b611cc68383612256565b611cd36000848484611db4565b611d12576040517f08c379a0000000000000000000000000000000000000000000000000000000008152600401611d099061397f565b60405180910390fd5b505050565b611d2081612473565b6000600a60008381526020019081526020016000208054611d4090612f36565b905014611d6757600a60008281526020019081526020016000206000611d6691906128f0565b5b50565b611d7261093c565b15611db2576040517f08c379a0000000000000000000000000000000000000000000000000000000008152600401611da990613a86565b60405180910390fd5b565b6000611dd58473ffffffffffffffffffffffffffffffffffffffff166125c1565b15611f2e578373ffffffffffffffffffffffffffffffffffffffff1663150b7a02611dfe61119d565b8786866040518563ffffffff1660e01b8152600401611e209493929190613afb565b6020604051808303816000875af1925050508015611e5c57506040513d601f19601f82011682018060405250810190611e599190613b5c565b60015b611ede573d8060008114611e8c576040519150601f19603f3d011682016040523d82523d6000602084013e611e91565b606091505b506000815103611ed6576040517f08c379a0000000000000000000000000000000000000000000000000000000008152600401611ecd9061397f565b60405180910390fd5b805181602001fd5b63150b7a0260e01b7bffffffffffffffffffffffffffffffffffffffffffffffffffffffff1916817bffffffffffffffffffffffffffffffffffffffffffffffffffffffff191614915050611f33565b600190505b949350505050565b600080600090507a184f03e93ff9f4daa797ed6e38ed64bf6a1f0100000000000000008310611f99577a184f03e93ff9f4daa797ed6e38ed64bf6a1f0100000000000000008381611f8f57611f8e61399f565b5b0492506040810190505b6d04ee2d6d415b85acef81000000008310611fd6576d04ee2d6d415b85acef81000000008381611fcc57611fcb61399f565b5b0492506020810190505b662386f26fc10000831061200557662386f26fc100008381611ffb57611ffa61399f565b5b0492506010810190505b6305f5e100831061202e576305f5e10083816120245761202361399f565b5b0492506008810190505b61271083106120535761271083816120495761204861399f565b5b0492506004810190505b60648310612076576064838161206c5761206b61399f565b5b0492506002810190505b600a8310612085576001810190505b80915050919050565b60007f01ffc9a7000000000000000000000000000000000000000000000000000000007bffffffffffffffffffffffffffffffffffffffffffffffffffffffff1916827bffffffffffffffffffffffffffffffffffffffffffffffffffffffff1916149050919050565b612104848484846125e4565b6001811115612148576040517f08c379a000000000000000000000000000000000000000000000000000000000815260040161213f90613bfb565b60405180910390fd5b6000829050600073ffffffffffffffffffffffffffffffffffffffff168573ffffffffffffffffffffffffffffffffffffffff160361218f5761218a816125ea565b6121ce565b8373ffffffffffffffffffffffffffffffffffffffff168573ffffffffffffffffffffffffffffffffffffffff16146121cd576121cc8582612633565b5b5b600073ffffffffffffffffffffffffffffffffffffffff168473ffffffffffffffffffffffffffffffffffffffff16036122105761220b816127a0565b61224f565b8473ffffffffffffffffffffffffffffffffffffffff168473ffffffffffffffffffffffffffffffffffffffff161461224e5761224d8482612871565b5b5b5050505050565b600073ffffffffffffffffffffffffffffffffffffffff168273ffffffffffffffffffffffffffffffffffffffff16036122c5576040517f08c379a00000000000000000000000000000000000000000000000000000000081526004016122bc90613c67565b60405180910390fd5b6122ce81611c12565b1561230e576040517f08c379a000000000000000000000000000000000000000000000000000000000815260040161230590613cd3565b60405180910390fd5b61231c600083836001611c53565b61232581611c12565b15612365576040517f08c379a000000000000000000000000000000000000000000000000000000000815260040161235c90613cd3565b60405180910390fd5b6001600360008473ffffffffffffffffffffffffffffffffffffffff1673ffffffffffffffffffffffffffffffffffffffff16815260200190815260200160002060008282540192505081905550816002600083815260200190815260200160002060006101000a81548173ffffffffffffffffffffffffffffffffffffffff021916908373ffffffffffffffffffffffffffffffffffffffff160217905550808273ffffffffffffffffffffffffffffffffffffffff16600073ffffffffffffffffffffffffffffffffffffffff167fddf252ad1be2c89b69c2b068fc378daa952ba7f163c4a11628f55a4df523b3ef60405160405180910390a461246f600083836001611c6d565b5050565b600061247e82610953565b905061248e816000846001611c53565b61249782610953565b90506004600083815260200190815260200160002060006101000a81549073ffffffffffffffffffffffffffffffffffffffff02191690556001600360008373ffffffffffffffffffffffffffffffffffffffff1673ffffffffffffffffffffffffffffffffffffffff168152602001908152602001600020600082825403925050819055506002600083815260200190815260200160002060006101000a81549073ffffffffffffffffffffffffffffffffffffffff021916905581600073ffffffffffffffffffffffffffffffffffffffff168273ffffffffffffffffffffffffffffffffffffffff167fddf252ad1be2c89b69c2b068fc378daa952ba7f163c4a11628f55a4df523b3ef60405160405180910390a46125bd816000846001611c6d565b5050565b6000808273ffffffffffffffffffffffffffffffffffffffff163b119050919050565b50505050565b6008805490506009600083815260200190815260200160002081905550600881908060018154018082558091505060019003906000526020600020016000909190919091505550565b60006001612640846109d9565b61264a9190613661565b905060006007600084815260200190815260200160002054905081811461272f576000600660008673ffffffffffffffffffffffffffffffffffffffff1673ffffffffffffffffffffffffffffffffffffffff168152602001908152602001600020600084815260200190815260200160002054905080600660008773ffffffffffffffffffffffffffffffffffffffff1673ffffffffffffffffffffffffffffffffffffffff168152602001908152602001600020600084815260200190815260200160002081905550816007600083815260200190815260200160002081905550505b6007600084815260200190815260200160002060009055600660008573ffffffffffffffffffffffffffffffffffffffff1673ffffffffffffffffffffffffffffffffffffffff16815260200190815260200160002060008381526020019081526020016000206000905550505050565b600060016008805490506127b49190613661565b90506000600960008481526020019081526020016000205490506000600883815481106127e4576127e3613241565b5b90600052602060002001549050806008838154811061280657612805613241565b5b90600052602060002001819055508160096000838152602001908152602001600020819055506009600085815260200190815260200160002060009055600880548061285557612854613cf3565b5b6001900381819060005260206000200160009055905550505050565b600061287c836109d9565b905081600660008573ffffffffffffffffffffffffffffffffffffffff1673ffffffffffffffffffffffffffffffffffffffff168152602001908152602001600020600083815260200190815260200160002081905550806007600084815260200190815260200160002081905550505050565b5080546128fc90612f36565b6000825580601f1061290e575061292d565b601f01602090049060005260206000209081019061292c9190612930565b5b50565b5b80821115612949576000816000905550600101612931565b5090565b6000604051905090565b600080fd5b600080fd5b60007fffffffff0000000000000000000000000000000000000000000000000000000082169050919050565b61299681612961565b81146129a157600080fd5b50565b6000813590506129b38161298d565b92915050565b6000602082840312156129cf576129ce612957565b5b60006129dd848285016129a4565b91505092915050565b60008115159050919050565b6129fb816129e6565b82525050565b6000602082019050612a1660008301846129f2565b92915050565b600081519050919050565b600082825260208201905092915050565b60005b83811015612a56578082015181840152602081019050612a3b565b60008484015250505050565b6000601f19601f8301169050919050565b6000612a7e82612a1c565b612a888185612a27565b9350612a98818560208601612a38565b612aa181612a62565b840191505092915050565b60006020820190508181036000830152612ac68184612a73565b905092915050565b6000819050919050565b612ae181612ace565b8114612aec57600080fd5b50565b600081359050612afe81612ad8565b92915050565b600060208284031215612b1a57612b19612957565b5b6000612b2884828501612aef565b91505092915050565b600073ffffffffffffffffffffffffffffffffffffffff82169050919050565b6000612b5c82612b31565b9050919050565b612b6c81612b51565b82525050565b6000602082019050612b876000830184612b63565b92915050565b612b9681612b51565b8114612ba157600080fd5b50565b600081359050612bb381612b8d565b92915050565b60008060408385031215612bd057612bcf612957565b5b6000612bde85828601612ba4565b9250506020612bef85828601612aef565b9150509250929050565b612c0281612ace565b82525050565b6000602082019050612c1d6000830184612bf9565b92915050565b600080600060608486031215612c3c57612c3b612957565b5b6000612c4a86828701612ba4565b9350506020612c5b86828701612ba4565b9250506040612c6c86828701612aef565b9150509250925092565b600060208284031215612c8c57612c8b612957565b5b6000612c9a84828501612ba4565b91505092915050565b612cac816129e6565b8114612cb757600080fd5b50565b600081359050612cc981612ca3565b92915050565b60008060408385031215612ce657612ce5612957565b5b6000612cf485828601612ba4565b9250506020612d0585828601612cba565b9150509250929050565b600080fd5b600080fd5b7f4e487b7100000000000000000000000000000000000000000000000000000000600052604160045260246000fd5b612d5182612a62565b810181811067ffffffffffffffff82111715612d7057612d6f612d19565b5b80604052505050565b6000612d8361294d565b9050612d8f8282612d48565b919050565b600067ffffffffffffffff821115612daf57612dae612d19565b5b612db882612a62565b9050602081019050919050565b82818337600083830152505050565b6000612de7612de284612d94565b612d79565b905082815260208101848484011115612e0357612e02612d14565b5b612e0e848285612dc5565b509392505050565b600082601f830112612e2b57612e2a612d0f565b5b8135612e3b848260208601612dd4565b91505092915050565b60008060008060808587031215612e5e57612e5d612957565b5b6000612e6c87828801612ba4565b9450506020612e7d87828801612ba4565b9350506040612e8e87828801612aef565b925050606085013567ffffffffffffffff811115612eaf57612eae61295c565b5b612ebb87828801612e16565b91505092959194509250565b60008060408385031215612ede57612edd612957565b5b6000612eec85828601612ba4565b9250506020612efd85828601612ba4565b9150509250929050565b7f4e487b7100000000000000000000000000000000000000000000000000000000600052602260045260246000fd5b60006002820490506001821680612f4e57607f821691505b602082108103612f6157612f60612f07565b5b50919050565b7f4552433732313a20617070726f76616c20746f2063757272656e74206f776e6560008201527f7200000000000000000000000000000000000000000000000000000000000000602082015250565b6000612fc3602183612a27565b9150612fce82612f67565b604082019050919050565b60006020820190508181036000830152612ff281612fb6565b9050919050565b7f4552433732313a20617070726f76652063616c6c6572206973206e6f7420746f60008201527f6b656e206f776e6572206f7220617070726f76656420666f7220616c6c000000602082015250565b6000613055603d83612a27565b915061306082612ff9565b604082019050919050565b6000602082019050818103600083015261308481613048565b9050919050565b7f4552433732313a2063616c6c6572206973206e6f7420746f6b656e206f776e6560008201527f72206f7220617070726f76656400000000000000000000000000000000000000602082015250565b60006130e7602d83612a27565b91506130f28261308b565b604082019050919050565b60006020820190508181036000830152613116816130da565b9050919050565b7f455243373231456e756d657261626c653a206f776e657220696e646578206f7560008201527f74206f6620626f756e6473000000000000000000000000000000000000000000602082015250565b6000613179602b83612a27565b91506131848261311d565b604082019050919050565b600060208201905081810360008301526131a88161316c565b9050919050565b7f455243373231456e756d657261626c653a20676c6f62616c20696e646578206f60008201527f7574206f6620626f756e64730000000000000000000000000000000000000000602082015250565b600061320b602c83612a27565b9150613216826131af565b604082019050919050565b6000602082019050818103600083015261323a816131fe565b9050919050565b7f4e487b7100000000000000000000000000000000000000000000000000000000600052603260045260246000fd5b7f4552433732313a20696e76616c696420746f6b656e2049440000000000000000600082015250565b60006132a6601883612a27565b91506132b182613270565b602082019050919050565b600060208201905081810360008301526132d581613299565b9050919050565b7f4552433732313a2061646472657373207a65726f206973206e6f74206120766160008201527f6c6964206f776e65720000000000000000000000000000000000000000000000602082015250565b6000613338602983612a27565b9150613343826132dc565b604082019050919050565b600060208201905081810360008301526133678161332b565b9050919050565b61337781612ace565b82525050565b6000602082019050613392600083018461336e565b92915050565b600581106133a557600080fd5b50565b6000815190506133b781613398565b92915050565b6000602082840312156133d3576133d2612957565b5b60006133e1848285016133a8565b91505092915050565b7f4e487b7100000000000000000000000000000000000000000000000000000000600052602160045260246000fd5b7f496e76616c696420436c61737300000000000000000000000000000000000000600082015250565b600061344f600d83612a27565b915061345a82613419565b602082019050919050565b6000602082019050818103600083015261347e81613442565b9050919050565b600081905092915050565b600061349b82612a1c565b6134a58185613485565b93506134b5818560208601612a38565b80840191505092915050565b7f2f00000000000000000000000000000000000000000000000000000000000000600082015250565b60006134f7600183613485565b9150613502826134c1565b600182019050919050565b7f2e6a736f6e000000000000000000000000000000000000000000000000000000600082015250565b6000613543600583613485565b915061354e8261350d565b600582019050919050565b60006135658286613490565b91506135718285613490565b915061357c826134ea565b91506135888284613490565b915061359382613536565b9150819050949350505050565b7f4f776e61626c653a206e6577206f776e657220697320746865207a65726f206160008201527f6464726573730000000000000000000000000000000000000000000000000000602082015250565b60006135fc602683612a27565b9150613607826135a0565b604082019050919050565b6000602082019050818103600083015261362b816135ef565b9050919050565b7f4e487b7100000000000000000000000000000000000000000000000000000000600052601160045260246000fd5b600061366c82612ace565b915061367783612ace565b925082820390508181111561368f5761368e613632565b5b92915050565b60006136a082612ace565b91506136ab83612ace565b92508282019050808211156136c3576136c2613632565b5b92915050565b60006136d482612ace565b91507fffffffffffffffffffffffffffffffffffffffffffffffffffffffffffffffff820361370657613705613632565b5b600182019050919050565b7f4552433732313a207472616e736665722066726f6d20696e636f72726563742060008201527f6f776e6572000000000000000000000000000000000000000000000000000000602082015250565b600061376d602583612a27565b915061377882613711565b604082019050919050565b6000602082019050818103600083015261379c81613760565b9050919050565b7f4552433732313a207472616e7366657220746f20746865207a65726f2061646460008201527f7265737300000000000000000000000000000000000000000000000000000000602082015250565b60006137ff602483612a27565b915061380a826137a3565b604082019050919050565b6000602082019050818103600083015261382e816137f2565b9050919050565b7f4f776e61626c653a2063616c6c6572206973206e6f7420746865206f776e6572600082015250565b600061386b602083612a27565b915061387682613835565b602082019050919050565b6000602082019050818103600083015261389a8161385e565b9050919050565b7f4552433732313a20617070726f766520746f2063616c6c657200000000000000600082015250565b60006138d7601983612a27565b91506138e2826138a1565b602082019050919050565b60006020820190508181036000830152613906816138ca565b9050919050565b7f4552433732313a207472616e7366657220746f206e6f6e20455243373231526560008201527f63656976657220696d706c656d656e7465720000000000000000000000000000602082015250565b6000613969603283612a27565b91506139748261390d565b604082019050919050565b600060208201905081810360008301526139988161395c565b9050919050565b7f4e487b7100000000000000000000000000000000000000000000000000000000600052601260045260246000fd5b7f5061757361626c653a206e6f7420706175736564000000000000000000000000600082015250565b6000613a04601483612a27565b9150613a0f826139ce565b602082019050919050565b60006020820190508181036000830152613a33816139f7565b9050919050565b7f5061757361626c653a2070617573656400000000000000000000000000000000600082015250565b6000613a70601083612a27565b9150613a7b82613a3a565b602082019050919050565b60006020820190508181036000830152613a9f81613a63565b9050919050565b600081519050919050565b600082825260208201905092915050565b6000613acd82613aa6565b613ad78185613ab1565b9350613ae7818560208601612a38565b613af081612a62565b840191505092915050565b6000608082019050613b106000830187612b63565b613b1d6020830186612b63565b613b2a6040830185612bf9565b8181036060830152613b3c8184613ac2565b905095945050505050565b600081519050613b568161298d565b92915050565b600060208284031215613b7257613b71612957565b5b6000613b8084828501613b47565b91505092915050565b7f455243373231456e756d657261626c653a20636f6e736563757469766520747260008201527f616e7366657273206e6f7420737570706f727465640000000000000000000000602082015250565b6000613be5603583612a27565b9150613bf082613b89565b604082019050919050565b60006020820190508181036000830152613c1481613bd8565b9050919050565b7f4552433732313a206d696e7420746f20746865207a65726f2061646472657373600082015250565b6000613c51602083612a27565b9150613c5c82613c1b565b602082019050919050565b60006020820190508181036000830152613c8081613c44565b9050919050565b7f4552433732313a20746f6b656e20616c7265616479206d696e74656400000000600082015250565b6000613cbd601c83612a27565b9150613cc882613c87565b602082019050919050565b60006020820190508181036000830152613cec81613cb0565b9050919050565b7f4e487b7100000000000000000000000000000000000000000000000000000000600052603160045260246000fdfea2646970667358221220bb29038a89c6459ef41269055e330b8527a04a2e0e4e4aacbb03cd3fa58e628864736f6c63430008130033",
			"opcodes": "PUSH1 0x80 PUSH1 0x40 MSTORE CALLVALUE DUP1 ISZERO PUSH3 0x11 JUMPI PUSH1 0x0 DUP1 REVERT JUMPDEST POP PUSH1 0x40 MLOAD DUP1 PUSH1 0x40 ADD PUSH1 0x40 MSTORE DUP1 PUSH1 0x11 DUP2 MSTORE PUSH1 0x20 ADD PUSH32 0x446175676874657273206F662041727961000000000000000000000000000000 DUP2 MSTORE POP PUSH1 0x40 MLOAD DUP1 PUSH1 0x40 ADD PUSH1 0x40 MSTORE DUP1 PUSH1 0x3 DUP2 MSTORE PUSH1 0x20 ADD PUSH32 0x446F410000000000000000000000000000000000000000000000000000000000 DUP2 MSTORE POP DUP2 PUSH1 0x0 SWAP1 DUP2 PUSH3 0x8F SWAP2 SWAP1 PUSH3 0x485 JUMP JUMPDEST POP DUP1 PUSH1 0x1 SWAP1 DUP2 PUSH3 0xA1 SWAP2 SWAP1 PUSH3 0x485 JUMP JUMPDEST POP POP POP PUSH1 0x0 PUSH1 0xB PUSH1 0x0 PUSH2 0x100 EXP DUP2 SLOAD DUP2 PUSH1 0xFF MUL NOT AND SWAP1 DUP4 ISZERO ISZERO MUL OR SWAP1 SSTORE POP PUSH3 0xDF PUSH3 0xD3 PUSH3 0x13D PUSH1 0x20 SHL PUSH1 0x20 SHR JUMP JUMPDEST PUSH3 0x145 PUSH1 0x20 SHL PUSH1 0x20 SHR JUMP JUMPDEST PUSH1 0x1 PUSH1 0xC PUSH1 0x0 CALLER PUSH20 0xFFFFFFFFFFFFFFFFFFFFFFFFFFFFFFFFFFFFFFFF AND PUSH20 0xFFFFFFFFFFFFFFFFFFFFFFFFFFFFFFFFFFFFFFFF AND DUP2 MSTORE PUSH1 0x20 ADD SWAP1 DUP2 MSTORE PUSH1 0x20 ADD PUSH1 0x0 KECCAK256 PUSH1 0x0 PUSH2 0x100 EXP DUP2 SLOAD DUP2 PUSH1 0xFF MUL NOT AND SWAP1 DUP4 ISZERO ISZERO MUL OR SWAP1 SSTORE POP PUSH3 0x56C JUMP JUMPDEST PUSH1 0x0 CALLER SWAP1 POP SWAP1 JUMP JUMPDEST PUSH1 0x0 PUSH1 0xB PUSH1 0x1 SWAP1 SLOAD SWAP1 PUSH2 0x100 EXP SWAP1 DIV PUSH20 0xFFFFFFFFFFFFFFFFFFFFFFFFFFFFFFFFFFFFFFFF AND SWAP1 POP DUP2 PUSH1 0xB PUSH1 0x1 PUSH2 0x100 EXP DUP2 SLOAD DUP2 PUSH20 0xFFFFFFFFFFFFFFFFFFFFFFFFFFFFFFFFFFFFFFFF MUL NOT AND SWAP1 DUP4 PUSH20 0xFFFFFFFFFFFFFFFFFFFFFFFFFFFFFFFFFFFFFFFF AND MUL OR SWAP1 SSTORE POP DUP2 PUSH20 0xFFFFFFFFFFFFFFFFFFFFFFFFFFFFFFFFFFFFFFFF AND DUP2 PUSH20 0xFFFFFFFFFFFFFFFFFFFFFFFFFFFFFFFFFFFFFFFF AND PUSH32 0x8BE0079C531659141344CD1FD0A4F28419497F9722A3DAAFE3B4186F6B6457E0 PUSH1 0x40 MLOAD PUSH1 0x40 MLOAD DUP1 SWAP2 SUB SWAP1 LOG3 POP POP JUMP JUMPDEST PUSH1 0x0 DUP2 MLOAD SWAP1 POP SWAP2 SWAP1 POP JUMP JUMPDEST PUSH32 0x4E487B7100000000000000000000000000000000000000000000000000000000 PUSH1 0x0 MSTORE PUSH1 0x41 PUSH1 0x4 MSTORE PUSH1 0x24 PUSH1 0x0 REVERT JUMPDEST PUSH32 0x4E487B7100000000000000000000000000000000000000000000000000000000 PUSH1 0x0 MSTORE PUSH1 0x22 PUSH1 0x4 MSTORE PUSH1 0x24 PUSH1 0x0 REVERT JUMPDEST PUSH1 0x0 PUSH1 0x2 DUP3 DIV SWAP1 POP PUSH1 0x1 DUP3 AND DUP1 PUSH3 0x28D JUMPI PUSH1 0x7F DUP3 AND SWAP2 POP JUMPDEST PUSH1 0x20 DUP3 LT DUP2 SUB PUSH3 0x2A3 JUMPI PUSH3 0x2A2 PUSH3 0x245 JUMP JUMPDEST JUMPDEST POP SWAP2 SWAP1 POP JUMP JUMPDEST PUSH1 0x0 DUP2 SWAP1 POP DUP2 PUSH1 0x0 MSTORE PUSH1 0x20 PUSH1 0x0 KECCAK256 SWAP1 POP SWAP2 SWAP1 POP JUMP JUMPDEST PUSH1 0x0 PUSH1 0x20 PUSH1 0x1F DUP4 ADD DIV SWAP1 POP SWAP2 SWAP1 POP JUMP JUMPDEST PUSH1 0x0 DUP3 DUP3 SHL SWAP1 POP SWAP3 SWAP2 POP POP JUMP JUMPDEST PUSH1 0x0 PUSH1 0x8 DUP4 MUL PUSH3 0x30D PUSH32 0xFFFFFFFFFFFFFFFFFFFFFFFFFFFFFFFFFFFFFFFFFFFFFFFFFFFFFFFFFFFFFFFF DUP3 PUSH3 0x2CE JUMP JUMPDEST PUSH3 0x319 DUP7 DUP4 PUSH3 0x2CE JUMP JUMPDEST SWAP6 POP DUP1 NOT DUP5 AND SWAP4 POP DUP1 DUP7 AND DUP5 OR SWAP3 POP POP POP SWAP4 SWAP3 POP POP POP JUMP JUMPDEST PUSH1 0x0 DUP2 SWAP1 POP SWAP2 SWAP1 POP JUMP JUMPDEST PUSH1 0x0 DUP2 SWAP1 POP SWAP2 SWAP1 POP JUMP JUMPDEST PUSH1 0x0 PUSH3 0x366 PUSH3 0x360 PUSH3 0x35A DUP5 PUSH3 0x331 JUMP JUMPDEST PUSH3 0x33B JUMP JUMPDEST PUSH3 0x331 JUMP JUMPDEST SWAP1 POP SWAP2 SWAP1 POP JUMP JUMPDEST PUSH1 0x0 DUP2 SWAP1 POP SWAP2 SWAP1 POP JUMP JUMPDEST PUSH3 0x382 DUP4 PUSH3 0x345 JUMP JUMPDEST PUSH3 0x39A PUSH3 0x391 DUP3 PUSH3 0x36D JUMP JUMPDEST DUP5 DUP5 SLOAD PUSH3 0x2DB JUMP JUMPDEST DUP3 SSTORE POP POP POP POP JUMP JUMPDEST PUSH1 0x0 SWAP1 JUMP JUMPDEST PUSH3 0x3B1 PUSH3 0x3A2 JUMP JUMPDEST PUSH3 0x3BE DUP2 DUP5 DUP5 PUSH3 0x377 JUMP JUMPDEST POP POP POP JUMP JUMPDEST JUMPDEST DUP2 DUP2 LT ISZERO PUSH3 0x3E6 JUMPI PUSH3 0x3DA PUSH1 0x0 DUP3 PUSH3 0x3A7 JUMP JUMPDEST PUSH1 0x1 DUP2 ADD SWAP1 POP PUSH3 0x3C4 JUMP JUMPDEST POP POP JUMP JUMPDEST PUSH1 0x1F DUP3 GT ISZERO PUSH3 0x435 JUMPI PUSH3 0x3FF DUP2 PUSH3 0x2A9 JUMP JUMPDEST PUSH3 0x40A DUP5 PUSH3 0x2BE JUMP JUMPDEST DUP2 ADD PUSH1 0x20 DUP6 LT ISZERO PUSH3 0x41A JUMPI DUP2 SWAP1 POP JUMPDEST PUSH3 0x432 PUSH3 0x429 DUP6 PUSH3 0x2BE JUMP JUMPDEST DUP4 ADD DUP3 PUSH3 0x3C3 JUMP JUMPDEST POP POP JUMPDEST POP POP POP JUMP JUMPDEST PUSH1 0x0 DUP3 DUP3 SHR SWAP1 POP SWAP3 SWAP2 POP POP JUMP JUMPDEST PUSH1 0x0 PUSH3 0x45A PUSH1 0x0 NOT DUP5 PUSH1 0x8 MUL PUSH3 0x43A JUMP JUMPDEST NOT DUP1 DUP4 AND SWAP2 POP POP SWAP3 SWAP2 POP POP JUMP JUMPDEST PUSH1 0x0 PUSH3 0x475 DUP4 DUP4 PUSH3 0x447 JUMP JUMPDEST SWAP2 POP DUP3 PUSH1 0x2 MUL DUP3 OR SWAP1 POP SWAP3 SWAP2 POP POP JUMP JUMPDEST PUSH3 0x490 DUP3 PUSH3 0x20B JUMP JUMPDEST PUSH8 0xFFFFFFFFFFFFFFFF DUP2 GT ISZERO PUSH3 0x4AC JUMPI PUSH3 0x4AB PUSH3 0x216 JUMP JUMPDEST JUMPDEST PUSH3 0x4B8 DUP3 SLOAD PUSH3 0x274 JUMP JUMPDEST PUSH3 0x4C5 DUP3 DUP3 DUP6 PUSH3 0x3EA JUMP JUMPDEST PUSH1 0x0 PUSH1 0x20 SWAP1 POP PUSH1 0x1F DUP4 GT PUSH1 0x1 DUP2 EQ PUSH3 0x4FD JUMPI PUSH1 0x0 DUP5 ISZERO PUSH3 0x4E8 JUMPI DUP3 DUP8 ADD MLOAD SWAP1 POP JUMPDEST PUSH3 0x4F4 DUP6 DUP3 PUSH3 0x467 JUMP JUMPDEST DUP7 SSTORE POP PUSH3 0x564 JUMP JUMPDEST PUSH1 0x1F NOT DUP5 AND PUSH3 0x50D DUP7 PUSH3 0x2A9 JUMP JUMPDEST PUSH1 0x0 JUMPDEST DUP3 DUP2 LT ISZERO PUSH3 0x537 JUMPI DUP5 DUP10 ADD MLOAD DUP3 SSTORE PUSH1 0x1 DUP3 ADD SWAP2 POP PUSH1 0x20 DUP6 ADD SWAP5 POP PUSH1 0x20 DUP2 ADD SWAP1 POP PUSH3 0x510 JUMP JUMPDEST DUP7 DUP4 LT ISZERO PUSH3 0x557 JUMPI DUP5 DUP10 ADD MLOAD PUSH3 0x553 PUSH1 0x1F DUP10 AND DUP3 PUSH3 0x447 JUMP JUMPDEST DUP4 SSTORE POP JUMPDEST PUSH1 0x1 PUSH1 0x2 DUP9 MUL ADD DUP9 SSTORE POP POP POP JUMPDEST POP POP POP POP POP POP JUMP JUMPDEST PUSH2 0x3D58 DUP1 PUSH3 0x57C PUSH1 0x0 CODECOPY PUSH1 0x0 RETURN INVALID PUSH1 0x80 PUSH1 0x40 MSTORE CALLVALUE DUP1 ISZERO PUSH2 0x10 JUMPI PUSH1 0x0 DUP1 REVERT JUMPDEST POP PUSH1 0x4 CALLDATASIZE LT PUSH2 0x1A9 JUMPI PUSH1 0x0 CALLDATALOAD PUSH1 0xE0 SHR DUP1 PUSH4 0x6352211E GT PUSH2 0xF9 JUMPI DUP1 PUSH4 0xA1448194 GT PUSH2 0x97 JUMPI DUP1 PUSH4 0xC87B56DD GT PUSH2 0x71 JUMPI DUP1 PUSH4 0xC87B56DD EQ PUSH2 0x47E JUMPI DUP1 PUSH4 0xE985E9C5 EQ PUSH2 0x4AE JUMPI DUP1 PUSH4 0xF2FDE38B EQ PUSH2 0x4DE JUMPI DUP1 PUSH4 0xF9F49952 EQ PUSH2 0x4FA JUMPI PUSH2 0x1A9 JUMP JUMPDEST DUP1 PUSH4 0xA1448194 EQ PUSH2 0x42A JUMPI DUP1 PUSH4 0xA22CB465 EQ PUSH2 0x446 JUMPI DUP1 PUSH4 0xB88D4FDE EQ PUSH2 0x462 JUMPI PUSH2 0x1A9 JUMP JUMPDEST DUP1 PUSH4 0x8456CB59 GT PUSH2 0xD3 JUMPI DUP1 PUSH4 0x8456CB59 EQ PUSH2 0x3C8 JUMPI DUP1 PUSH4 0x8DA5CB5B EQ PUSH2 0x3D2 JUMPI DUP1 PUSH4 0x95D89B41 EQ PUSH2 0x3F0 JUMPI DUP1 PUSH4 0x98EAA4A7 EQ PUSH2 0x40E JUMPI PUSH2 0x1A9 JUMP JUMPDEST DUP1 PUSH4 0x6352211E EQ PUSH2 0x35E JUMPI DUP1 PUSH4 0x70A08231 EQ PUSH2 0x38E JUMPI DUP1 PUSH4 0x715018A6 EQ PUSH2 0x3BE JUMPI PUSH2 0x1A9 JUMP JUMPDEST DUP1 PUSH4 0x2F745C59 GT PUSH2 0x166 JUMPI DUP1 PUSH4 0x42842E0E GT PUSH2 0x140 JUMPI DUP1 PUSH4 0x42842E0E EQ PUSH2 0x2D8 JUMPI DUP1 PUSH4 0x42966C68 EQ PUSH2 0x2F4 JUMPI DUP1 PUSH4 0x4F6CCCE7 EQ PUSH2 0x310 JUMPI DUP1 PUSH4 0x5C975ABB EQ PUSH2 0x340 JUMPI PUSH2 0x1A9 JUMP JUMPDEST DUP1 PUSH4 0x2F745C59 EQ PUSH2 0x282 JUMPI DUP1 PUSH4 0x3F4BA83A EQ PUSH2 0x2B2 JUMPI DUP1 PUSH4 0x40D097C3 EQ PUSH2 0x2BC JUMPI PUSH2 0x1A9 JUMP JUMPDEST DUP1 PUSH4 0x1FFC9A7 EQ PUSH2 0x1AE JUMPI DUP1 PUSH4 0x6FDDE03 EQ PUSH2 0x1DE JUMPI DUP1 PUSH4 0x81812FC EQ PUSH2 0x1FC JUMPI DUP1 PUSH4 0x95EA7B3 EQ PUSH2 0x22C JUMPI DUP1 PUSH4 0x18160DDD EQ PUSH2 0x248 JUMPI DUP1 PUSH4 0x23B872DD EQ PUSH2 0x266 JUMPI JUMPDEST PUSH1 0x0 DUP1 REVERT JUMPDEST PUSH2 0x1C8 PUSH1 0x4 DUP1 CALLDATASIZE SUB DUP2 ADD SWAP1 PUSH2 0x1C3 SWAP2 SWAP1 PUSH2 0x29B9 JUMP JUMPDEST PUSH2 0x516 JUMP JUMPDEST PUSH1 0x40 MLOAD PUSH2 0x1D5 SWAP2 SWAP1 PUSH2 0x2A01 JUMP JUMPDEST PUSH1 0x40 MLOAD DUP1 SWAP2 SUB SWAP1 RETURN JUMPDEST PUSH2 0x1E6 PUSH2 0x528 JUMP JUMPDEST PUSH1 0x40 MLOAD PUSH2 0x1F3 SWAP2 SWAP1 PUSH2 0x2AAC JUMP JUMPDEST PUSH1 0x40 MLOAD DUP1 SWAP2 SUB SWAP1 RETURN JUMPDEST PUSH2 0x216 PUSH1 0x4 DUP1 CALLDATASIZE SUB DUP2 ADD SWAP1 PUSH2 0x211 SWAP2 SWAP1 PUSH2 0x2B04 JUMP JUMPDEST PUSH2 0x5BA JUMP JUMPDEST PUSH1 0x40 MLOAD PUSH2 0x223 SWAP2 SWAP1 PUSH2 0x2B72 JUMP JUMPDEST PUSH1 0x40 MLOAD DUP1 SWAP2 SUB SWAP1 RETURN JUMPDEST PUSH2 0x246 PUSH1 0x4 DUP1 CALLDATASIZE SUB DUP2 ADD SWAP1 PUSH2 0x241 SWAP2 SWAP1 PUSH2 0x2BB9 JUMP JUMPDEST PUSH2 0x600 JUMP JUMPDEST STOP JUMPDEST PUSH2 0x250 PUSH2 0x717 JUMP JUMPDEST PUSH1 0x40 MLOAD PUSH2 0x25D SWAP2 SWAP1 PUSH2 0x2C08 JUMP JUMPDEST PUSH1 0x40 MLOAD DUP1 SWAP2 SUB SWAP1 RETURN JUMPDEST PUSH2 0x280 PUSH1 0x4 DUP1 CALLDATASIZE SUB DUP2 ADD SWAP1 PUSH2 0x27B SWAP2 SWAP1 PUSH2 0x2C23 JUMP JUMPDEST PUSH2 0x724 JUMP JUMPDEST STOP JUMPDEST PUSH2 0x29C PUSH1 0x4 DUP1 CALLDATASIZE SUB DUP2 ADD SWAP1 PUSH2 0x297 SWAP2 SWAP1 PUSH2 0x2BB9 JUMP JUMPDEST PUSH2 0x784 JUMP JUMPDEST PUSH1 0x40 MLOAD PUSH2 0x2A9 SWAP2 SWAP1 PUSH2 0x2C08 JUMP JUMPDEST PUSH1 0x40 MLOAD DUP1 SWAP2 SUB SWAP1 RETURN JUMPDEST PUSH2 0x2BA PUSH2 0x829 JUMP JUMPDEST STOP JUMPDEST PUSH2 0x2D6 PUSH1 0x4 DUP1 CALLDATASIZE SUB DUP2 ADD SWAP1 PUSH2 0x2D1 SWAP2 SWAP1 PUSH2 0x2C76 JUMP JUMPDEST PUSH2 0x83B JUMP JUMPDEST STOP JUMPDEST PUSH2 0x2F2 PUSH1 0x4 DUP1 CALLDATASIZE SUB DUP2 ADD SWAP1 PUSH2 0x2ED SWAP2 SWAP1 PUSH2 0x2C23 JUMP JUMPDEST PUSH2 0x84F JUMP JUMPDEST STOP JUMPDEST PUSH2 0x30E PUSH1 0x4 DUP1 CALLDATASIZE SUB DUP2 ADD SWAP1 PUSH2 0x309 SWAP2 SWAP1 PUSH2 0x2B04 JUMP JUMPDEST PUSH2 0x86F JUMP JUMPDEST STOP JUMPDEST PUSH2 0x32A PUSH1 0x4 DUP1 CALLDATASIZE SUB DUP2 ADD SWAP1 PUSH2 0x325 SWAP2 SWAP1 PUSH2 0x2B04 JUMP JUMPDEST PUSH2 0x8CB JUMP JUMPDEST PUSH1 0x40 MLOAD PUSH2 0x337 SWAP2 SWAP1 PUSH2 0x2C08 JUMP JUMPDEST PUSH1 0x40 MLOAD DUP1 SWAP2 SUB SWAP1 RETURN JUMPDEST PUSH2 0x348 PUSH2 0x93C JUMP JUMPDEST PUSH1 0x40 MLOAD PUSH2 0x355 SWAP2 SWAP1 PUSH2 0x2A01 JUMP JUMPDEST PUSH1 0x40 MLOAD DUP1 SWAP2 SUB SWAP1 RETURN JUMPDEST PUSH2 0x378 PUSH1 0x4 DUP1 CALLDATASIZE SUB DUP2 ADD SWAP1 PUSH2 0x373 SWAP2 SWAP1 PUSH2 0x2B04 JUMP JUMPDEST PUSH2 0x953 JUMP JUMPDEST PUSH1 0x40 MLOAD PUSH2 0x385 SWAP2 SWAP1 PUSH2 0x2B72 JUMP JUMPDEST PUSH1 0x40 MLOAD DUP1 SWAP2 SUB SWAP1 RETURN JUMPDEST PUSH2 0x3A8 PUSH1 0x4 DUP1 CALLDATASIZE SUB DUP2 ADD SWAP1 PUSH2 0x3A3 SWAP2 SWAP1 PUSH2 0x2C76 JUMP JUMPDEST PUSH2 0x9D9 JUMP JUMPDEST PUSH1 0x40 MLOAD PUSH2 0x3B5 SWAP2 SWAP1 PUSH2 0x2C08 JUMP JUMPDEST PUSH1 0x40 MLOAD DUP1 SWAP2 SUB SWAP1 RETURN JUMPDEST PUSH2 0x3C6 PUSH2 0xA90 JUMP JUMPDEST STOP JUMPDEST PUSH2 0x3D0 PUSH2 0xAA4 JUMP JUMPDEST STOP JUMPDEST PUSH2 0x3DA PUSH2 0xAB6 JUMP JUMPDEST PUSH1 0x40 MLOAD PUSH2 0x3E7 SWAP2 SWAP1 PUSH2 0x2B72 JUMP JUMPDEST PUSH1 0x40 MLOAD DUP1 SWAP2 SUB SWAP1 RETURN JUMPDEST PUSH2 0x3F8 PUSH2 0xAE0 JUMP JUMPDEST PUSH1 0x40 MLOAD PUSH2 0x405 SWAP2 SWAP1 PUSH2 0x2AAC JUMP JUMPDEST PUSH1 0x40 MLOAD DUP1 SWAP2 SUB SWAP1 RETURN JUMPDEST PUSH2 0x428 PUSH1 0x4 DUP1 CALLDATASIZE SUB DUP2 ADD SWAP1 PUSH2 0x423 SWAP2 SWAP1 PUSH2 0x2C76 JUMP JUMPDEST PUSH2 0xB72 JUMP JUMPDEST STOP JUMPDEST PUSH2 0x444 PUSH1 0x4 DUP1 CALLDATASIZE SUB DUP2 ADD SWAP1 PUSH2 0x43F SWAP2 SWAP1 PUSH2 0x2BB9 JUMP JUMPDEST PUSH2 0xBD5 JUMP JUMPDEST STOP JUMPDEST PUSH2 0x460 PUSH1 0x4 DUP1 CALLDATASIZE SUB DUP2 ADD SWAP1 PUSH2 0x45B SWAP2 SWAP1 PUSH2 0x2CCF JUMP JUMPDEST PUSH2 0xBE3 JUMP JUMPDEST STOP JUMPDEST PUSH2 0x47C PUSH1 0x4 DUP1 CALLDATASIZE SUB DUP2 ADD SWAP1 PUSH2 0x477 SWAP2 SWAP1 PUSH2 0x2E44 JUMP JUMPDEST PUSH2 0xBF9 JUMP JUMPDEST STOP JUMPDEST PUSH2 0x498 PUSH1 0x4 DUP1 CALLDATASIZE SUB DUP2 ADD SWAP1 PUSH2 0x493 SWAP2 SWAP1 PUSH2 0x2B04 JUMP JUMPDEST PUSH2 0xC5B JUMP JUMPDEST PUSH1 0x40 MLOAD PUSH2 0x4A5 SWAP2 SWAP1 PUSH2 0x2AAC JUMP JUMPDEST PUSH1 0x40 MLOAD DUP1 SWAP2 SUB SWAP1 RETURN JUMPDEST PUSH2 0x4C8 PUSH1 0x4 DUP1 CALLDATASIZE SUB DUP2 ADD SWAP1 PUSH2 0x4C3 SWAP2 SWAP1 PUSH2 0x2EC7 JUMP JUMPDEST PUSH2 0xF71 JUMP JUMPDEST PUSH1 0x40 MLOAD PUSH2 0x4D5 SWAP2 SWAP1 PUSH2 0x2A01 JUMP JUMPDEST PUSH1 0x40 MLOAD DUP1 SWAP2 SUB SWAP1 RETURN JUMPDEST PUSH2 0x4F8 PUSH1 0x4 DUP1 CALLDATASIZE SUB DUP2 ADD SWAP1 PUSH2 0x4F3 SWAP2 SWAP1 PUSH2 0x2C76 JUMP JUMPDEST PUSH2 0x1005 JUMP JUMPDEST STOP JUMPDEST PUSH2 0x514 PUSH1 0x4 DUP1 CALLDATASIZE SUB DUP2 ADD SWAP1 PUSH2 0x50F SWAP2 SWAP1 PUSH2 0x2BB9 JUMP JUMPDEST PUSH2 0x1088 JUMP JUMPDEST STOP JUMPDEST PUSH1 0x0 PUSH2 0x521 DUP3 PUSH2 0x10D8 JUMP JUMPDEST SWAP1 POP SWAP2 SWAP1 POP JUMP JUMPDEST PUSH1 0x60 PUSH1 0x0 DUP1 SLOAD PUSH2 0x537 SWAP1 PUSH2 0x2F36 JUMP JUMPDEST DUP1 PUSH1 0x1F ADD PUSH1 0x20 DUP1 SWAP2 DIV MUL PUSH1 0x20 ADD PUSH1 0x40 MLOAD SWAP1 DUP2 ADD PUSH1 0x40 MSTORE DUP1 SWAP3 SWAP2 SWAP1 DUP2 DUP2 MSTORE PUSH1 0x20 ADD DUP3 DUP1 SLOAD PUSH2 0x563 SWAP1 PUSH2 0x2F36 JUMP JUMPDEST DUP1 ISZERO PUSH2 0x5B0 JUMPI DUP1 PUSH1 0x1F LT PUSH2 0x585 JUMPI PUSH2 0x100 DUP1 DUP4 SLOAD DIV MUL DUP4 MSTORE SWAP2 PUSH1 0x20 ADD SWAP2 PUSH2 0x5B0 JUMP JUMPDEST DUP3 ADD SWAP2 SWAP1 PUSH1 0x0 MSTORE PUSH1 0x20 PUSH1 0x0 KECCAK256 SWAP1 JUMPDEST DUP2 SLOAD DUP2 MSTORE SWAP1 PUSH1 0x1 ADD SWAP1 PUSH1 0x20 ADD DUP1 DUP4 GT PUSH2 0x593 JUMPI DUP3 SWAP1 SUB PUSH1 0x1F AND DUP3 ADD SWAP2 JUMPDEST POP POP POP POP POP SWAP1 POP SWAP1 JUMP JUMPDEST PUSH1 0x0 PUSH2 0x5C5 DUP3 PUSH2 0x1152 JUMP JUMPDEST PUSH1 0x4 PUSH1 0x0 DUP4 DUP2 MSTORE PUSH1 0x20 ADD SWAP1 DUP2 MSTORE PUSH1 0x20 ADD PUSH1 0x0 KECCAK256 PUSH1 0x0 SWAP1 SLOAD SWAP1 PUSH2 0x100 EXP SWAP1 DIV PUSH20 0xFFFFFFFFFFFFFFFFFFFFFFFFFFFFFFFFFFFFFFFF AND SWAP1 POP SWAP2 SWAP1 POP JUMP JUMPDEST PUSH1 0x0 PUSH2 0x60B DUP3 PUSH2 0x953 JUMP JUMPDEST SWAP1 POP DUP1 PUSH20 0xFFFFFFFFFFFFFFFFFFFFFFFFFFFFFFFFFFFFFFFF AND DUP4 PUSH20 0xFFFFFFFFFFFFFFFFFFFFFFFFFFFFFFFFFFFFFFFF AND SUB PUSH2 0x67B JUMPI PUSH1 0x40 MLOAD PUSH32 0x8C379A000000000000000000000000000000000000000000000000000000000 DUP2 MSTORE PUSH1 0x4 ADD PUSH2 0x672 SWAP1 PUSH2 0x2FD9 JUMP JUMPDEST PUSH1 0x40 MLOAD DUP1 SWAP2 SUB SWAP1 REVERT JUMPDEST DUP1 PUSH20 0xFFFFFFFFFFFFFFFFFFFFFFFFFFFFFFFFFFFFFFFF AND PUSH2 0x69A PUSH2 0x119D JUMP JUMPDEST PUSH20 0xFFFFFFFFFFFFFFFFFFFFFFFFFFFFFFFFFFFFFFFF AND EQ DUP1 PUSH2 0x6C9 JUMPI POP PUSH2 0x6C8 DUP2 PUSH2 0x6C3 PUSH2 0x119D JUMP JUMPDEST PUSH2 0xF71 JUMP JUMPDEST JUMPDEST PUSH2 0x708 JUMPI PUSH1 0x40 MLOAD PUSH32 0x8C379A000000000000000000000000000000000000000000000000000000000 DUP2 MSTORE PUSH1 0x4 ADD PUSH2 0x6FF SWAP1 PUSH2 0x306B JUMP JUMPDEST PUSH1 0x40 MLOAD DUP1 SWAP2 SUB SWAP1 REVERT JUMPDEST PUSH2 0x712 DUP4 DUP4 PUSH2 0x11A5 JUMP JUMPDEST POP POP POP JUMP JUMPDEST PUSH1 0x0 PUSH1 0x8 DUP1 SLOAD SWAP1 POP SWAP1 POP SWAP1 JUMP JUMPDEST PUSH2 0x735 PUSH2 0x72F PUSH2 0x119D JUMP JUMPDEST DUP3 PUSH2 0x125E JUMP JUMPDEST PUSH2 0x774 JUMPI PUSH1 0x40 MLOAD PUSH32 0x8C379A000000000000000000000000000000000000000000000000000000000 DUP2 MSTORE PUSH1 0x4 ADD PUSH2 0x76B SWAP1 PUSH2 0x30FD JUMP JUMPDEST PUSH1 0x40 MLOAD DUP1 SWAP2 SUB SWAP1 REVERT JUMPDEST PUSH2 0x77F DUP4 DUP4 DUP4 PUSH2 0x12F3 JUMP JUMPDEST POP POP POP JUMP JUMPDEST PUSH1 0x0 PUSH2 0x78F DUP4 PUSH2 0x9D9 JUMP JUMPDEST DUP3 LT PUSH2 0x7D0 JUMPI PUSH1 0x40 MLOAD PUSH32 0x8C379A000000000000000000000000000000000000000000000000000000000 DUP2 MSTORE PUSH1 0x4 ADD PUSH2 0x7C7 SWAP1 PUSH2 0x318F JUMP JUMPDEST PUSH1 0x40 MLOAD DUP1 SWAP2 SUB SWAP1 REVERT JUMPDEST PUSH1 0x6 PUSH1 0x0 DUP5 PUSH20 0xFFFFFFFFFFFFFFFFFFFFFFFFFFFFFFFFFFFFFFFF AND PUSH20 0xFFFFFFFFFFFFFFFFFFFFFFFFFFFFFFFFFFFFFFFF AND DUP2 MSTORE PUSH1 0x20 ADD SWAP1 DUP2 MSTORE PUSH1 0x20 ADD PUSH1 0x0 KECCAK256 PUSH1 0x0 DUP4 DUP2 MSTORE PUSH1 0x20 ADD SWAP1 DUP2 MSTORE PUSH1 0x20 ADD PUSH1 0x0 KECCAK256 SLOAD SWAP1 POP SWAP3 SWAP2 POP POP JUMP JUMPDEST PUSH2 0x831 PUSH2 0x15EC JUMP JUMPDEST PUSH2 0x839 PUSH2 0x166A JUMP JUMPDEST JUMP JUMPDEST PUSH2 0x84C DUP2 PUSH2 0x847 PUSH2 0x717 JUMP JUMPDEST PUSH2 0x16CD JUMP JUMPDEST POP JUMP JUMPDEST PUSH2 0x86A DUP4 DUP4 DUP4 PUSH1 0x40 MLOAD DUP1 PUSH1 0x20 ADD PUSH1 0x40 MSTORE DUP1 PUSH1 0x0 DUP2 MSTORE POP PUSH2 0xBF9 JUMP JUMPDEST POP POP POP JUMP JUMPDEST PUSH2 0x880 PUSH2 0x87A PUSH2 0x119D JUMP JUMPDEST DUP3 PUSH2 0x125E JUMP JUMPDEST PUSH2 0x8BF JUMPI PUSH1 0x40 MLOAD PUSH32 0x8C379A000000000000000000000000000000000000000000000000000000000 DUP2 MSTORE PUSH1 0x4 ADD PUSH2 0x8B6 SWAP1 PUSH2 0x30FD JUMP JUMPDEST PUSH1 0x40 MLOAD DUP1 SWAP2 SUB SWAP1 REVERT JUMPDEST PUSH2 0x8C8 DUP2 PUSH2 0x16EB JUMP JUMPDEST POP JUMP JUMPDEST PUSH1 0x0 PUSH2 0x8D5 PUSH2 0x717 JUMP JUMPDEST DUP3 LT PUSH2 0x916 JUMPI PUSH1 0x40 MLOAD PUSH32 0x8C379A000000000000000000000000000000000000000000000000000000000 DUP2 MSTORE PUSH1 0x4 ADD PUSH2 0x90D SWAP1 PUSH2 0x3221 JUMP JUMPDEST PUSH1 0x40 MLOAD DUP1 SWAP2 SUB SWAP1 REVERT JUMPDEST PUSH1 0x8 DUP3 DUP2 SLOAD DUP2 LT PUSH2 0x92A JUMPI PUSH2 0x929 PUSH2 0x3241 JUMP JUMPDEST JUMPDEST SWAP1 PUSH1 0x0 MSTORE PUSH1 0x20 PUSH1 0x0 KECCAK256 ADD SLOAD SWAP1 POP SWAP2 SWAP1 POP JUMP JUMPDEST PUSH1 0x0 PUSH1 0xB PUSH1 0x0 SWAP1 SLOAD SWAP1 PUSH2 0x100 EXP SWAP1 DIV PUSH1 0xFF AND SWAP1 POP SWAP1 JUMP JUMPDEST PUSH1 0x0 DUP1 PUSH2 0x95F DUP4 PUSH2 0x16F7 JUMP JUMPDEST SWAP1 POP PUSH1 0x0 PUSH20 0xFFFFFFFFFFFFFFFFFFFFFFFFFFFFFFFFFFFFFFFF AND DUP2 PUSH20 0xFFFFFFFFFFFFFFFFFFFFFFFFFFFFFFFFFFFFFFFF AND SUB PUSH2 0x9D0 JUMPI PUSH1 0x40 MLOAD PUSH32 0x8C379A000000000000000000000000000000000000000000000000000000000 DUP2 MSTORE PUSH1 0x4 ADD PUSH2 0x9C7 SWAP1 PUSH2 0x32BC JUMP JUMPDEST PUSH1 0x40 MLOAD DUP1 SWAP2 SUB SWAP1 REVERT JUMPDEST DUP1 SWAP2 POP POP SWAP2 SWAP1 POP JUMP JUMPDEST PUSH1 0x0 DUP1 PUSH20 0xFFFFFFFFFFFFFFFFFFFFFFFFFFFFFFFFFFFFFFFF AND DUP3 PUSH20 0xFFFFFFFFFFFFFFFFFFFFFFFFFFFFFFFFFFFFFFFF AND SUB PUSH2 0xA49 JUMPI PUSH1 0x40 MLOAD PUSH32 0x8C379A000000000000000000000000000000000000000000000000000000000 DUP2 MSTORE PUSH1 0x4 ADD PUSH2 0xA40 SWAP1 PUSH2 0x334E JUMP JUMPDEST PUSH1 0x40 MLOAD DUP1 SWAP2 SUB SWAP1 REVERT JUMPDEST PUSH1 0x3 PUSH1 0x0 DUP4 PUSH20 0xFFFFFFFFFFFFFFFFFFFFFFFFFFFFFFFFFFFFFFFF AND PUSH20 0xFFFFFFFFFFFFFFFFFFFFFFFFFFFFFFFFFFFFFFFF AND DUP2 MSTORE PUSH1 0x20 ADD SWAP1 DUP2 MSTORE PUSH1 0x20 ADD PUSH1 0x0 KECCAK256 SLOAD SWAP1 POP SWAP2 SWAP1 POP JUMP JUMPDEST PUSH2 0xA98 PUSH2 0x15EC JUMP JUMPDEST PUSH2 0xAA2 PUSH1 0x0 PUSH2 0x1734 JUMP JUMPDEST JUMP JUMPDEST PUSH2 0xAAC PUSH2 0x15EC JUMP JUMPDEST PUSH2 0xAB4 PUSH2 0x17FA JUMP JUMPDEST JUMP JUMPDEST PUSH1 0x0 PUSH1 0xB PUSH1 0x1 SWAP1 SLOAD SWAP1 PUSH2 0x100 EXP SWAP1 DIV PUSH20 0xFFFFFFFFFFFFFFFFFFFFFFFFFFFFFFFFFFFFFFFF AND SWAP1 POP SWAP1 JUMP JUMPDEST PUSH1 0x60 PUSH1 0x1 DUP1 SLOAD PUSH2 0xAEF SWAP1 PUSH2 0x2F36 JUMP JUMPDEST DUP1 PUSH1 0x1F ADD PUSH1 0x20 DUP1 SWAP2 DIV MUL PUSH1 0x20 ADD PUSH1 0x40 MLOAD SWAP1 DUP2 ADD PUSH1 0x40 MSTORE DUP1 SWAP3 SWAP2 SWAP1 DUP2 DUP2 MSTORE PUSH1 0x20 ADD DUP3 DUP1 SLOAD PUSH2 0xB1B SWAP1 PUSH2 0x2F36 JUMP JUMPDEST DUP1 ISZERO PUSH2 0xB68 JUMPI DUP1 PUSH1 0x1F LT PUSH2 0xB3D JUMPI PUSH2 0x100 DUP1 DUP4 SLOAD DIV MUL DUP4 MSTORE SWAP2 PUSH1 0x20 ADD SWAP2 PUSH2 0xB68 JUMP JUMPDEST DUP3 ADD SWAP2 SWAP1 PUSH1 0x0 MSTORE PUSH1 0x20 PUSH1 0x0 KECCAK256 SWAP1 JUMPDEST DUP2 SLOAD DUP2 MSTORE SWAP1 PUSH1 0x1 ADD SWAP1 PUSH1 0x20 ADD DUP1 DUP4 GT PUSH2 0xB4B JUMPI DUP3 SWAP1 SUB PUSH1 0x1F AND DUP3 ADD SWAP2 JUMPDEST POP POP POP POP POP SWAP1 POP SWAP1 JUMP JUMPDEST PUSH2 0xB7A PUSH2 0x15EC JUMP JUMPDEST PUSH1 0x1 PUSH1 0xC PUSH1 0x0 DUP4 PUSH20 0xFFFFFFFFFFFFFFFFFFFFFFFFFFFFFFFFFFFFFFFF AND PUSH20 0xFFFFFFFFFFFFFFFFFFFFFFFFFFFFFFFFFFFFFFFF AND DUP2 MSTORE PUSH1 0x20 ADD SWAP1 DUP2 MSTORE PUSH1 0x20 ADD PUSH1 0x0 KECCAK256 PUSH1 0x0 PUSH2 0x100 EXP DUP2 SLOAD DUP2 PUSH1 0xFF MUL NOT AND SWAP1 DUP4 ISZERO ISZERO MUL OR SWAP1 SSTORE POP POP JUMP JUMPDEST PUSH2 0xBDF DUP3 DUP3 PUSH2 0x16CD JUMP JUMPDEST POP POP JUMP JUMPDEST PUSH2 0xBF5 PUSH2 0xBEE PUSH2 0x119D JUMP JUMPDEST DUP4 DUP4 PUSH2 0x185D JUMP JUMPDEST POP POP JUMP JUMPDEST PUSH2 0xC0A PUSH2 0xC04 PUSH2 0x119D JUMP JUMPDEST DUP4 PUSH2 0x125E JUMP JUMPDEST PUSH2 0xC49 JUMPI PUSH1 0x40 MLOAD PUSH32 0x8C379A000000000000000000000000000000000000000000000000000000000 DUP2 MSTORE PUSH1 0x4 ADD PUSH2 0xC40 SWAP1 PUSH2 0x30FD JUMP JUMPDEST PUSH1 0x40 MLOAD DUP1 SWAP2 SUB SWAP1 REVERT JUMPDEST PUSH2 0xC55 DUP5 DUP5 DUP5 DUP5 PUSH2 0x19C9 JUMP JUMPDEST POP POP POP POP JUMP JUMPDEST PUSH1 0x60 PUSH2 0xC66 DUP3 PUSH2 0x1152 JUMP JUMPDEST PUSH1 0x0 PUSH2 0xC70 PUSH2 0x1A25 JUMP JUMPDEST SWAP1 POP PUSH1 0x60 PUSH1 0x0 PUSH20 0x0 PUSH4 0xED944CB6 DUP7 PUSH1 0x40 MLOAD DUP3 PUSH4 0xFFFFFFFF AND PUSH1 0xE0 SHL DUP2 MSTORE PUSH1 0x4 ADD PUSH2 0xCAD SWAP2 SWAP1 PUSH2 0x337D JUMP JUMPDEST PUSH1 0x20 PUSH1 0x40 MLOAD DUP1 DUP4 SUB DUP2 DUP7 GAS DELEGATECALL ISZERO DUP1 ISZERO PUSH2 0xCCA JUMPI RETURNDATASIZE PUSH1 0x0 DUP1 RETURNDATACOPY RETURNDATASIZE PUSH1 0x0 REVERT JUMPDEST POP POP POP POP PUSH1 0x40 MLOAD RETURNDATASIZE PUSH1 0x1F NOT PUSH1 0x1F DUP3 ADD AND DUP3 ADD DUP1 PUSH1 0x40 MSTORE POP DUP2 ADD SWAP1 PUSH2 0xCEE SWAP2 SWAP1 PUSH2 0x33BD JUMP JUMPDEST SWAP1 POP PUSH1 0x0 PUSH1 0x4 DUP2 GT ISZERO PUSH2 0xD04 JUMPI PUSH2 0xD03 PUSH2 0x33EA JUMP JUMPDEST JUMPDEST DUP2 PUSH1 0x4 DUP2 GT ISZERO PUSH2 0xD17 JUMPI PUSH2 0xD16 PUSH2 0x33EA JUMP JUMPDEST JUMPDEST SUB PUSH2 0xD59 JUMPI PUSH1 0x40 MLOAD DUP1 PUSH1 0x40 ADD PUSH1 0x40 MSTORE DUP1 PUSH1 0xE DUP2 MSTORE PUSH1 0x20 ADD PUSH32 0x2F6865726F2F6D65746164617461000000000000000000000000000000000000 DUP2 MSTORE POP SWAP2 POP PUSH2 0xF3B JUMP JUMPDEST PUSH1 0x1 PUSH1 0x4 DUP2 GT ISZERO PUSH2 0xD6D JUMPI PUSH2 0xD6C PUSH2 0x33EA JUMP JUMPDEST JUMPDEST DUP2 PUSH1 0x4 DUP2 GT ISZERO PUSH2 0xD80 JUMPI PUSH2 0xD7F PUSH2 0x33EA JUMP JUMPDEST JUMPDEST SUB PUSH2 0xDC2 JUMPI PUSH1 0x40 MLOAD DUP1 PUSH1 0x40 ADD PUSH1 0x40 MSTORE DUP1 PUSH1 0x10 DUP2 MSTORE PUSH1 0x20 ADD PUSH32 0x2F6C6567656E642F6D6574616461746100000000000000000000000000000000 DUP2 MSTORE POP SWAP2 POP PUSH2 0xF3A JUMP JUMPDEST PUSH1 0x2 PUSH1 0x4 DUP2 GT ISZERO PUSH2 0xDD6 JUMPI PUSH2 0xDD5 PUSH2 0x33EA JUMP JUMPDEST JUMPDEST DUP2 PUSH1 0x4 DUP2 GT ISZERO PUSH2 0xDE9 JUMPI PUSH2 0xDE8 PUSH2 0x33EA JUMP JUMPDEST JUMPDEST SUB PUSH2 0xE2B JUMPI PUSH1 0x40 MLOAD DUP1 PUSH1 0x40 ADD PUSH1 0x40 MSTORE DUP1 PUSH1 0xE DUP2 MSTORE PUSH1 0x20 ADD PUSH32 0x2F726172652F6D65746164617461000000000000000000000000000000000000 DUP2 MSTORE POP SWAP2 POP PUSH2 0xF39 JUMP JUMPDEST PUSH1 0x3 PUSH1 0x4 DUP2 GT ISZERO PUSH2 0xE3F JUMPI PUSH2 0xE3E PUSH2 0x33EA JUMP JUMPDEST JUMPDEST DUP2 PUSH1 0x4 DUP2 GT ISZERO PUSH2 0xE52 JUMPI PUSH2 0xE51 PUSH2 0x33EA JUMP JUMPDEST JUMPDEST SUB PUSH2 0xE94 JUMPI PUSH1 0x40 MLOAD DUP1 PUSH1 0x40 ADD PUSH1 0x40 MSTORE DUP1 PUSH1 0x12 DUP2 MSTORE PUSH1 0x20 ADD PUSH32 0x2F756E636F6D6D6F6E2F6D657461646174610000000000000000000000000000 DUP2 MSTORE POP SWAP2 POP PUSH2 0xF38 JUMP JUMPDEST PUSH1 0x4 DUP1 DUP2 GT ISZERO PUSH2 0xEA7 JUMPI PUSH2 0xEA6 PUSH2 0x33EA JUMP JUMPDEST JUMPDEST DUP2 PUSH1 0x4 DUP2 GT ISZERO PUSH2 0xEBA JUMPI PUSH2 0xEB9 PUSH2 0x33EA JUMP JUMPDEST JUMPDEST SUB PUSH2 0xEFC JUMPI PUSH1 0x40 MLOAD DUP1 PUSH1 0x40 ADD PUSH1 0x40 MSTORE DUP1 PUSH1 0x10 DUP2 MSTORE PUSH1 0x20 ADD PUSH32 0x2F636F6D6D6F6E2F6D6574616461746100000000000000000000000000000000 DUP2 MSTORE POP SWAP2 POP PUSH2 0xF37 JUMP JUMPDEST PUSH1 0x40 MLOAD PUSH32 0x8C379A000000000000000000000000000000000000000000000000000000000 DUP2 MSTORE PUSH1 0x4 ADD PUSH2 0xF2E SWAP1 PUSH2 0x3465 JUMP JUMPDEST PUSH1 0x40 MLOAD DUP1 SWAP2 SUB SWAP1 REVERT JUMPDEST JUMPDEST JUMPDEST JUMPDEST JUMPDEST DUP3 DUP3 PUSH2 0xF46 DUP8 PUSH2 0x1A62 JUMP JUMPDEST PUSH1 0x40 MLOAD PUSH1 0x20 ADD PUSH2 0xF58 SWAP4 SWAP3 SWAP2 SWAP1 PUSH2 0x3559 JUMP JUMPDEST PUSH1 0x40 MLOAD PUSH1 0x20 DUP2 DUP4 SUB SUB DUP2 MSTORE SWAP1 PUSH1 0x40 MSTORE SWAP4 POP POP POP POP SWAP2 SWAP1 POP JUMP JUMPDEST PUSH1 0x0 PUSH1 0x5 PUSH1 0x0 DUP5 PUSH20 0xFFFFFFFFFFFFFFFFFFFFFFFFFFFFFFFFFFFFFFFF AND PUSH20 0xFFFFFFFFFFFFFFFFFFFFFFFFFFFFFFFFFFFFFFFF AND DUP2 MSTORE PUSH1 0x20 ADD SWAP1 DUP2 MSTORE PUSH1 0x20 ADD PUSH1 0x0 KECCAK256 PUSH1 0x0 DUP4 PUSH20 0xFFFFFFFFFFFFFFFFFFFFFFFFFFFFFFFFFFFFFFFF AND PUSH20 0xFFFFFFFFFFFFFFFFFFFFFFFFFFFFFFFFFFFFFFFF AND DUP2 MSTORE PUSH1 0x20 ADD SWAP1 DUP2 MSTORE PUSH1 0x20 ADD PUSH1 0x0 KECCAK256 PUSH1 0x0 SWAP1 SLOAD SWAP1 PUSH2 0x100 EXP SWAP1 DIV PUSH1 0xFF AND SWAP1 POP SWAP3 SWAP2 POP POP JUMP JUMPDEST PUSH2 0x100D PUSH2 0x15EC JUMP JUMPDEST PUSH1 0x0 PUSH20 0xFFFFFFFFFFFFFFFFFFFFFFFFFFFFFFFFFFFFFFFF AND DUP2 PUSH20 0xFFFFFFFFFFFFFFFFFFFFFFFFFFFFFFFFFFFFFFFF AND SUB PUSH2 0x107C JUMPI PUSH1 0x40 MLOAD PUSH32 0x8C379A000000000000000000000000000000000000000000000000000000000 DUP2 MSTORE PUSH1 0x4 ADD PUSH2 0x1073 SWAP1 PUSH2 0x3612 JUMP JUMPDEST PUSH1 0x40 MLOAD DUP1 SWAP2 SUB SWAP1 REVERT JUMPDEST PUSH2 0x1085 DUP2 PUSH2 0x1734 JUMP JUMPDEST POP JUMP JUMPDEST PUSH1 0x0 PUSH2 0x1092 PUSH2 0x717 JUMP JUMPDEST SWAP1 POP PUSH1 0x0 JUMPDEST PUSH1 0x1 DUP4 PUSH2 0x10A4 SWAP2 SWAP1 PUSH2 0x3661 JUMP JUMPDEST DUP2 GT PUSH2 0x10D2 JUMPI PUSH2 0x10BF DUP5 DUP3 DUP5 PUSH2 0x10BA SWAP2 SWAP1 PUSH2 0x3695 JUMP JUMPDEST PUSH2 0x16CD JUMP JUMPDEST DUP1 DUP1 PUSH2 0x10CA SWAP1 PUSH2 0x36C9 JUMP JUMPDEST SWAP2 POP POP PUSH2 0x1097 JUMP JUMPDEST POP POP POP POP JUMP JUMPDEST PUSH1 0x0 PUSH32 0x780E9D6300000000000000000000000000000000000000000000000000000000 PUSH28 0xFFFFFFFFFFFFFFFFFFFFFFFFFFFFFFFFFFFFFFFFFFFFFFFFFFFFFFFF NOT AND DUP3 PUSH28 0xFFFFFFFFFFFFFFFFFFFFFFFFFFFFFFFFFFFFFFFFFFFFFFFFFFFFFFFF NOT AND EQ DUP1 PUSH2 0x114B JUMPI POP PUSH2 0x114A DUP3 PUSH2 0x1B30 JUMP JUMPDEST JUMPDEST SWAP1 POP SWAP2 SWAP1 POP JUMP JUMPDEST PUSH2 0x115B DUP2 PUSH2 0x1C12 JUMP JUMPDEST PUSH2 0x119A JUMPI PUSH1 0x40 MLOAD PUSH32 0x8C379A000000000000000000000000000000000000000000000000000000000 DUP2 MSTORE PUSH1 0x4 ADD PUSH2 0x1191 SWAP1 PUSH2 0x32BC JUMP JUMPDEST PUSH1 0x40 MLOAD DUP1 SWAP2 SUB SWAP1 REVERT JUMPDEST POP JUMP JUMPDEST PUSH1 0x0 CALLER SWAP1 POP SWAP1 JUMP JUMPDEST DUP2 PUSH1 0x4 PUSH1 0x0 DUP4 DUP2 MSTORE PUSH1 0x20 ADD SWAP1 DUP2 MSTORE PUSH1 0x20 ADD PUSH1 0x0 KECCAK256 PUSH1 0x0 PUSH2 0x100 EXP DUP2 SLOAD DUP2 PUSH20 0xFFFFFFFFFFFFFFFFFFFFFFFFFFFFFFFFFFFFFFFF MUL NOT AND SWAP1 DUP4 PUSH20 0xFFFFFFFFFFFFFFFFFFFFFFFFFFFFFFFFFFFFFFFF AND MUL OR SWAP1 SSTORE POP DUP1 DUP3 PUSH20 0xFFFFFFFFFFFFFFFFFFFFFFFFFFFFFFFFFFFFFFFF AND PUSH2 0x1218 DUP4 PUSH2 0x953 JUMP JUMPDEST PUSH20 0xFFFFFFFFFFFFFFFFFFFFFFFFFFFFFFFFFFFFFFFF AND PUSH32 0x8C5BE1E5EBEC7D5BD14F71427D1E84F3DD0314C0F7B2291E5B200AC8C7C3B925 PUSH1 0x40 MLOAD PUSH1 0x40 MLOAD DUP1 SWAP2 SUB SWAP1 LOG4 POP POP JUMP JUMPDEST PUSH1 0x0 DUP1 PUSH2 0x126A DUP4 PUSH2 0x953 JUMP JUMPDEST SWAP1 POP DUP1 PUSH20 0xFFFFFFFFFFFFFFFFFFFFFFFFFFFFFFFFFFFFFFFF AND DUP5 PUSH20 0xFFFFFFFFFFFFFFFFFFFFFFFFFFFFFFFFFFFFFFFF AND EQ DUP1 PUSH2 0x12AC JUMPI POP PUSH2 0x12AB DUP2 DUP6 PUSH2 0xF71 JUMP JUMPDEST JUMPDEST DUP1 PUSH2 0x12EA JUMPI POP DUP4 PUSH20 0xFFFFFFFFFFFFFFFFFFFFFFFFFFFFFFFFFFFFFFFF AND PUSH2 0x12D2 DUP5 PUSH2 0x5BA JUMP JUMPDEST PUSH20 0xFFFFFFFFFFFFFFFFFFFFFFFFFFFFFFFFFFFFFFFF AND EQ JUMPDEST SWAP2 POP POP SWAP3 SWAP2 POP POP JUMP JUMPDEST DUP3 PUSH20 0xFFFFFFFFFFFFFFFFFFFFFFFFFFFFFFFFFFFFFFFF AND PUSH2 0x1313 DUP3 PUSH2 0x953 JUMP JUMPDEST PUSH20 0xFFFFFFFFFFFFFFFFFFFFFFFFFFFFFFFFFFFFFFFF AND EQ PUSH2 0x1369 JUMPI PUSH1 0x40 MLOAD PUSH32 0x8C379A000000000000000000000000000000000000000000000000000000000 DUP2 MSTORE PUSH1 0x4 ADD PUSH2 0x1360 SWAP1 PUSH2 0x3783 JUMP JUMPDEST PUSH1 0x40 MLOAD DUP1 SWAP2 SUB SWAP1 REVERT JUMPDEST PUSH1 0x0 PUSH20 0xFFFFFFFFFFFFFFFFFFFFFFFFFFFFFFFFFFFFFFFF AND DUP3 PUSH20 0xFFFFFFFFFFFFFFFFFFFFFFFFFFFFFFFFFFFFFFFF AND SUB PUSH2 0x13D8 JUMPI PUSH1 0x40 MLOAD PUSH32 0x8C379A000000000000000000000000000000000000000000000000000000000 DUP2 MSTORE PUSH1 0x4 ADD PUSH2 0x13CF SWAP1 PUSH2 0x3815 JUMP JUMPDEST PUSH1 0x40 MLOAD DUP1 SWAP2 SUB SWAP1 REVERT JUMPDEST PUSH2 0x13E5 DUP4 DUP4 DUP4 PUSH1 0x1 PUSH2 0x1C53 JUMP JUMPDEST DUP3 PUSH20 0xFFFFFFFFFFFFFFFFFFFFFFFFFFFFFFFFFFFFFFFF AND PUSH2 0x1405 DUP3 PUSH2 0x953 JUMP JUMPDEST PUSH20 0xFFFFFFFFFFFFFFFFFFFFFFFFFFFFFFFFFFFFFFFF AND EQ PUSH2 0x145B JUMPI PUSH1 0x40 MLOAD PUSH32 0x8C379A000000000000000000000000000000000000000000000000000000000 DUP2 MSTORE PUSH1 0x4 ADD PUSH2 0x1452 SWAP1 PUSH2 0x3783 JUMP JUMPDEST PUSH1 0x40 MLOAD DUP1 SWAP2 SUB SWAP1 REVERT JUMPDEST PUSH1 0x4 PUSH1 0x0 DUP3 DUP2 MSTORE PUSH1 0x20 ADD SWAP1 DUP2 MSTORE PUSH1 0x20 ADD PUSH1 0x0 KECCAK256 PUSH1 0x0 PUSH2 0x100 EXP DUP2 SLOAD SWAP1 PUSH20 0xFFFFFFFFFFFFFFFFFFFFFFFFFFFFFFFFFFFFFFFF MUL NOT AND SWAP1 SSTORE PUSH1 0x1 PUSH1 0x3 PUSH1 0x0 DUP6 PUSH20 0xFFFFFFFFFFFFFFFFFFFFFFFFFFFFFFFFFFFFFFFF AND PUSH20 0xFFFFFFFFFFFFFFFFFFFFFFFFFFFFFFFFFFFFFFFF AND DUP2 MSTORE PUSH1 0x20 ADD SWAP1 DUP2 MSTORE PUSH1 0x20 ADD PUSH1 0x0 KECCAK256 PUSH1 0x0 DUP3 DUP3 SLOAD SUB SWAP3 POP POP DUP2 SWAP1 SSTORE POP PUSH1 0x1 PUSH1 0x3 PUSH1 0x0 DUP5 PUSH20 0xFFFFFFFFFFFFFFFFFFFFFFFFFFFFFFFFFFFFFFFF AND PUSH20 0xFFFFFFFFFFFFFFFFFFFFFFFFFFFFFFFFFFFFFFFF AND DUP2 MSTORE PUSH1 0x20 ADD SWAP1 DUP2 MSTORE PUSH1 0x20 ADD PUSH1 0x0 KECCAK256 PUSH1 0x0 DUP3 DUP3 SLOAD ADD SWAP3 POP POP DUP2 SWAP1 SSTORE POP DUP2 PUSH1 0x2 PUSH1 0x0 DUP4 DUP2 MSTORE PUSH1 0x20 ADD SWAP1 DUP2 MSTORE PUSH1 0x20 ADD PUSH1 0x0 KECCAK256 PUSH1 0x0 PUSH2 0x100 EXP DUP2 SLOAD DUP2 PUSH20 0xFFFFFFFFFFFFFFFFFFFFFFFFFFFFFFFFFFFFFFFF MUL NOT AND SWAP1 DUP4 PUSH20 0xFFFFFFFFFFFFFFFFFFFFFFFFFFFFFFFFFFFFFFFF AND MUL OR SWAP1 SSTORE POP DUP1 DUP3 PUSH20 0xFFFFFFFFFFFFFFFFFFFFFFFFFFFFFFFFFFFFFFFF AND DUP5 PUSH20 0xFFFFFFFFFFFFFFFFFFFFFFFFFFFFFFFFFFFFFFFF AND PUSH32 0xDDF252AD1BE2C89B69C2B068FC378DAA952BA7F163C4A11628F55A4DF523B3EF PUSH1 0x40 MLOAD PUSH1 0x40 MLOAD DUP1 SWAP2 SUB SWAP1 LOG4 PUSH2 0x15E7 DUP4 DUP4 DUP4 PUSH1 0x1 PUSH2 0x1C6D JUMP JUMPDEST POP POP POP JUMP JUMPDEST PUSH2 0x15F4 PUSH2 0x119D JUMP JUMPDEST PUSH20 0xFFFFFFFFFFFFFFFFFFFFFFFFFFFFFFFFFFFFFFFF AND PUSH2 0x1612 PUSH2 0xAB6 JUMP JUMPDEST PUSH20 0xFFFFFFFFFFFFFFFFFFFFFFFFFFFFFFFFFFFFFFFF AND EQ PUSH2 0x1668 JUMPI PUSH1 0x40 MLOAD PUSH32 0x8C379A000000000000000000000000000000000000000000000000000000000 DUP2 MSTORE PUSH1 0x4 ADD PUSH2 0x165F SWAP1 PUSH2 0x3881 JUMP JUMPDEST PUSH1 0x40 MLOAD DUP1 SWAP2 SUB SWAP1 REVERT JUMPDEST JUMP JUMPDEST PUSH2 0x1672 PUSH2 0x1C73 JUMP JUMPDEST PUSH1 0x0 PUSH1 0xB PUSH1 0x0 PUSH2 0x100 EXP DUP2 SLOAD DUP2 PUSH1 0xFF MUL NOT AND SWAP1 DUP4 ISZERO ISZERO MUL OR SWAP1 SSTORE POP PUSH32 0x5DB9EE0A495BF2E6FF9C91A7834C1BA4FDD244A5E8AA4E537BD38AEAE4B073AA PUSH2 0x16B6 PUSH2 0x119D JUMP JUMPDEST PUSH1 0x40 MLOAD PUSH2 0x16C3 SWAP2 SWAP1 PUSH2 0x2B72 JUMP JUMPDEST PUSH1 0x40 MLOAD DUP1 SWAP2 SUB SWAP1 LOG1 JUMP JUMPDEST PUSH2 0x16E7 DUP3 DUP3 PUSH1 0x40 MLOAD DUP1 PUSH1 0x20 ADD PUSH1 0x40 MSTORE DUP1 PUSH1 0x0 DUP2 MSTORE POP PUSH2 0x1CBC JUMP JUMPDEST POP POP JUMP JUMPDEST PUSH2 0x16F4 DUP2 PUSH2 0x1D17 JUMP JUMPDEST POP JUMP JUMPDEST PUSH1 0x0 PUSH1 0x2 PUSH1 0x0 DUP4 DUP2 MSTORE PUSH1 0x20 ADD SWAP1 DUP2 MSTORE PUSH1 0x20 ADD PUSH1 0x0 KECCAK256 PUSH1 0x0 SWAP1 SLOAD SWAP1 PUSH2 0x100 EXP SWAP1 DIV PUSH20 0xFFFFFFFFFFFFFFFFFFFFFFFFFFFFFFFFFFFFFFFF AND SWAP1 POP SWAP2 SWAP1 POP JUMP JUMPDEST PUSH1 0x0 PUSH1 0xB PUSH1 0x1 SWAP1 SLOAD SWAP1 PUSH2 0x100 EXP SWAP1 DIV PUSH20 0xFFFFFFFFFFFFFFFFFFFFFFFFFFFFFFFFFFFFFFFF AND SWAP1 POP DUP2 PUSH1 0xB PUSH1 0x1 PUSH2 0x100 EXP DUP2 SLOAD DUP2 PUSH20 0xFFFFFFFFFFFFFFFFFFFFFFFFFFFFFFFFFFFFFFFF MUL NOT AND SWAP1 DUP4 PUSH20 0xFFFFFFFFFFFFFFFFFFFFFFFFFFFFFFFFFFFFFFFF AND MUL OR SWAP1 SSTORE POP DUP2 PUSH20 0xFFFFFFFFFFFFFFFFFFFFFFFFFFFFFFFFFFFFFFFF AND DUP2 PUSH20 0xFFFFFFFFFFFFFFFFFFFFFFFFFFFFFFFFFFFFFFFF AND PUSH32 0x8BE0079C531659141344CD1FD0A4F28419497F9722A3DAAFE3B4186F6B6457E0 PUSH1 0x40 MLOAD PUSH1 0x40 MLOAD DUP1 SWAP2 SUB SWAP1 LOG3 POP POP JUMP JUMPDEST PUSH2 0x1802 PUSH2 0x1D6A JUMP JUMPDEST PUSH1 0x1 PUSH1 0xB PUSH1 0x0 PUSH2 0x100 EXP DUP2 SLOAD DUP2 PUSH1 0xFF MUL NOT AND SWAP1 DUP4 ISZERO ISZERO MUL OR SWAP1 SSTORE POP PUSH32 0x62E78CEA01BEE320CD4E420270B5EA74000D11B0C9F74754EBDBFC544B05A258 PUSH2 0x1846 PUSH2 0x119D JUMP JUMPDEST PUSH1 0x40 MLOAD PUSH2 0x1853 SWAP2 SWAP1 PUSH2 0x2B72 JUMP JUMPDEST PUSH1 0x40 MLOAD DUP1 SWAP2 SUB SWAP1 LOG1 JUMP JUMPDEST DUP2 PUSH20 0xFFFFFFFFFFFFFFFFFFFFFFFFFFFFFFFFFFFFFFFF AND DUP4 PUSH20 0xFFFFFFFFFFFFFFFFFFFFFFFFFFFFFFFFFFFFFFFF AND SUB PUSH2 0x18CB JUMPI PUSH1 0x40 MLOAD PUSH32 0x8C379A000000000000000000000000000000000000000000000000000000000 DUP2 MSTORE PUSH1 0x4 ADD PUSH2 0x18C2 SWAP1 PUSH2 0x38ED JUMP JUMPDEST PUSH1 0x40 MLOAD DUP1 SWAP2 SUB SWAP1 REVERT JUMPDEST DUP1 PUSH1 0x5 PUSH1 0x0 DUP6 PUSH20 0xFFFFFFFFFFFFFFFFFFFFFFFFFFFFFFFFFFFFFFFF AND PUSH20 0xFFFFFFFFFFFFFFFFFFFFFFFFFFFFFFFFFFFFFFFF AND DUP2 MSTORE PUSH1 0x20 ADD SWAP1 DUP2 MSTORE PUSH1 0x20 ADD PUSH1 0x0 KECCAK256 PUSH1 0x0 DUP5 PUSH20 0xFFFFFFFFFFFFFFFFFFFFFFFFFFFFFFFFFFFFFFFF AND PUSH20 0xFFFFFFFFFFFFFFFFFFFFFFFFFFFFFFFFFFFFFFFF AND DUP2 MSTORE PUSH1 0x20 ADD SWAP1 DUP2 MSTORE PUSH1 0x20 ADD PUSH1 0x0 KECCAK256 PUSH1 0x0 PUSH2 0x100 EXP DUP2 SLOAD DUP2 PUSH1 0xFF MUL NOT AND SWAP1 DUP4 ISZERO ISZERO MUL OR SWAP1 SSTORE POP DUP2 PUSH20 0xFFFFFFFFFFFFFFFFFFFFFFFFFFFFFFFFFFFFFFFF AND DUP4 PUSH20 0xFFFFFFFFFFFFFFFFFFFFFFFFFFFFFFFFFFFFFFFF AND PUSH32 0x17307EAB39AB6107E8899845AD3D59BD9653F200F220920489CA2B5937696C31 DUP4 PUSH1 0x40 MLOAD PUSH2 0x19BC SWAP2 SWAP1 PUSH2 0x2A01 JUMP JUMPDEST PUSH1 0x40 MLOAD DUP1 SWAP2 SUB SWAP1 LOG3 POP POP POP JUMP JUMPDEST PUSH2 0x19D4 DUP5 DUP5 DUP5 PUSH2 0x12F3 JUMP JUMPDEST PUSH2 0x19E0 DUP5 DUP5 DUP5 DUP5 PUSH2 0x1DB4 JUMP JUMPDEST PUSH2 0x1A1F JUMPI PUSH1 0x40 MLOAD PUSH32 0x8C379A000000000000000000000000000000000000000000000000000000000 DUP2 MSTORE PUSH1 0x4 ADD PUSH2 0x1A16 SWAP1 PUSH2 0x397F JUMP JUMPDEST PUSH1 0x40 MLOAD DUP1 SWAP2 SUB SWAP1 REVERT JUMPDEST POP POP POP POP JUMP JUMPDEST PUSH1 0x60 PUSH1 0x40 MLOAD DUP1 PUSH1 0x40 ADD PUSH1 0x40 MSTORE DUP1 PUSH1 0x15 DUP2 MSTORE PUSH1 0x20 ADD PUSH32 0x697066733A2F2F3C686173683E2F646F612F6E66740000000000000000000000 DUP2 MSTORE POP SWAP1 POP SWAP1 JUMP JUMPDEST PUSH1 0x60 PUSH1 0x0 PUSH1 0x1 PUSH2 0x1A71 DUP5 PUSH2 0x1F3B JUMP JUMPDEST ADD SWAP1 POP PUSH1 0x0 DUP2 PUSH8 0xFFFFFFFFFFFFFFFF DUP2 GT ISZERO PUSH2 0x1A90 JUMPI PUSH2 0x1A8F PUSH2 0x2D19 JUMP JUMPDEST JUMPDEST PUSH1 0x40 MLOAD SWAP1 DUP1 DUP3 MSTORE DUP1 PUSH1 0x1F ADD PUSH1 0x1F NOT AND PUSH1 0x20 ADD DUP3 ADD PUSH1 0x40 MSTORE DUP1 ISZERO PUSH2 0x1AC2 JUMPI DUP2 PUSH1 0x20 ADD PUSH1 0x1 DUP3 MUL DUP1 CALLDATASIZE DUP4 CALLDATACOPY DUP1 DUP3 ADD SWAP2 POP POP SWAP1 POP JUMPDEST POP SWAP1 POP PUSH1 0x0 DUP3 PUSH1 0x20 ADD DUP3 ADD SWAP1 POP JUMPDEST PUSH1 0x1 ISZERO PUSH2 0x1B25 JUMPI DUP1 DUP1 PUSH1 0x1 SWAP1 SUB SWAP2 POP POP PUSH32 0x3031323334353637383961626364656600000000000000000000000000000000 PUSH1 0xA DUP7 MOD BYTE DUP2 MSTORE8 PUSH1 0xA DUP6 DUP2 PUSH2 0x1B19 JUMPI PUSH2 0x1B18 PUSH2 0x399F JUMP JUMPDEST JUMPDEST DIV SWAP5 POP PUSH1 0x0 DUP6 SUB PUSH2 0x1AD0 JUMPI JUMPDEST DUP2 SWAP4 POP POP POP POP SWAP2 SWAP1 POP JUMP JUMPDEST PUSH1 0x0 PUSH32 0x80AC58CD00000000000000000000000000000000000000000000000000000000 PUSH28 0xFFFFFFFFFFFFFFFFFFFFFFFFFFFFFFFFFFFFFFFFFFFFFFFFFFFFFFFF NOT AND DUP3 PUSH28 0xFFFFFFFFFFFFFFFFFFFFFFFFFFFFFFFFFFFFFFFFFFFFFFFFFFFFFFFF NOT AND EQ DUP1 PUSH2 0x1BFB JUMPI POP PUSH32 0x5B5E139F00000000000000000000000000000000000000000000000000000000 PUSH28 0xFFFFFFFFFFFFFFFFFFFFFFFFFFFFFFFFFFFFFFFFFFFFFFFFFFFFFFFF NOT AND DUP3 PUSH28 0xFFFFFFFFFFFFFFFFFFFFFFFFFFFFFFFFFFFFFFFFFFFFFFFFFFFFFFFF NOT AND EQ JUMPDEST DUP1 PUSH2 0x1C0B JUMPI POP PUSH2 0x1C0A DUP3 PUSH2 0x208E JUMP JUMPDEST JUMPDEST SWAP1 POP SWAP2 SWAP1 POP JUMP JUMPDEST PUSH1 0x0 DUP1 PUSH20 0xFFFFFFFFFFFFFFFFFFFFFFFFFFFFFFFFFFFFFFFF AND PUSH2 0x1C34 DUP4 PUSH2 0x16F7 JUMP JUMPDEST PUSH20 0xFFFFFFFFFFFFFFFFFFFFFFFFFFFFFFFFFFFFFFFF AND EQ ISZERO SWAP1 POP SWAP2 SWAP1 POP JUMP JUMPDEST PUSH2 0x1C5B PUSH2 0x1D6A JUMP JUMPDEST PUSH2 0x1C67 DUP5 DUP5 DUP5 DUP5 PUSH2 0x20F8 JUMP JUMPDEST POP POP POP POP JUMP JUMPDEST POP POP POP POP JUMP JUMPDEST PUSH2 0x1C7B PUSH2 0x93C JUMP JUMPDEST PUSH2 0x1CBA JUMPI PUSH1 0x40 MLOAD PUSH32 0x8C379A000000000000000000000000000000000000000000000000000000000 DUP2 MSTORE PUSH1 0x4 ADD PUSH2 0x1CB1 SWAP1 PUSH2 0x3A1A JUMP JUMPDEST PUSH1 0x40 MLOAD DUP1 SWAP2 SUB SWAP1 REVERT JUMPDEST JUMP JUMPDEST PUSH2 0x1CC6 DUP4 DUP4 PUSH2 0x2256 JUMP JUMPDEST PUSH2 0x1CD3 PUSH1 0x0 DUP5 DUP5 DUP5 PUSH2 0x1DB4 JUMP JUMPDEST PUSH2 0x1D12 JUMPI PUSH1 0x40 MLOAD PUSH32 0x8C379A000000000000000000000000000000000000000000000000000000000 DUP2 MSTORE PUSH1 0x4 ADD PUSH2 0x1D09 SWAP1 PUSH2 0x397F JUMP JUMPDEST PUSH1 0x40 MLOAD DUP1 SWAP2 SUB SWAP1 REVERT JUMPDEST POP POP POP JUMP JUMPDEST PUSH2 0x1D20 DUP2 PUSH2 0x2473 JUMP JUMPDEST PUSH1 0x0 PUSH1 0xA PUSH1 0x0 DUP4 DUP2 MSTORE PUSH1 0x20 ADD SWAP1 DUP2 MSTORE PUSH1 0x20 ADD PUSH1 0x0 KECCAK256 DUP1 SLOAD PUSH2 0x1D40 SWAP1 PUSH2 0x2F36 JUMP JUMPDEST SWAP1 POP EQ PUSH2 0x1D67 JUMPI PUSH1 0xA PUSH1 0x0 DUP3 DUP2 MSTORE PUSH1 0x20 ADD SWAP1 DUP2 MSTORE PUSH1 0x20 ADD PUSH1 0x0 KECCAK256 PUSH1 0x0 PUSH2 0x1D66 SWAP2 SWAP1 PUSH2 0x28F0 JUMP JUMPDEST JUMPDEST POP JUMP JUMPDEST PUSH2 0x1D72 PUSH2 0x93C JUMP JUMPDEST ISZERO PUSH2 0x1DB2 JUMPI PUSH1 0x40 MLOAD PUSH32 0x8C379A000000000000000000000000000000000000000000000000000000000 DUP2 MSTORE PUSH1 0x4 ADD PUSH2 0x1DA9 SWAP1 PUSH2 0x3A86 JUMP JUMPDEST PUSH1 0x40 MLOAD DUP1 SWAP2 SUB SWAP1 REVERT JUMPDEST JUMP JUMPDEST PUSH1 0x0 PUSH2 0x1DD5 DUP5 PUSH20 0xFFFFFFFFFFFFFFFFFFFFFFFFFFFFFFFFFFFFFFFF AND PUSH2 0x25C1 JUMP JUMPDEST ISZERO PUSH2 0x1F2E JUMPI DUP4 PUSH20 0xFFFFFFFFFFFFFFFFFFFFFFFFFFFFFFFFFFFFFFFF AND PUSH4 0x150B7A02 PUSH2 0x1DFE PUSH2 0x119D JUMP JUMPDEST DUP8 DUP7 DUP7 PUSH1 0x40 MLOAD DUP6 PUSH4 0xFFFFFFFF AND PUSH1 0xE0 SHL DUP2 MSTORE PUSH1 0x4 ADD PUSH2 0x1E20 SWAP5 SWAP4 SWAP3 SWAP2 SWAP1 PUSH2 0x3AFB JUMP JUMPDEST PUSH1 0x20 PUSH1 0x40 MLOAD DUP1 DUP4 SUB DUP2 PUSH1 0x0 DUP8 GAS CALL SWAP3 POP POP POP DUP1 ISZERO PUSH2 0x1E5C JUMPI POP PUSH1 0x40 MLOAD RETURNDATASIZE PUSH1 0x1F NOT PUSH1 0x1F DUP3 ADD AND DUP3 ADD DUP1 PUSH1 0x40 MSTORE POP DUP2 ADD SWAP1 PUSH2 0x1E59 SWAP2 SWAP1 PUSH2 0x3B5C JUMP JUMPDEST PUSH1 0x1 JUMPDEST PUSH2 0x1EDE JUMPI RETURNDATASIZE DUP1 PUSH1 0x0 DUP2 EQ PUSH2 0x1E8C JUMPI PUSH1 0x40 MLOAD SWAP2 POP PUSH1 0x1F NOT PUSH1 0x3F RETURNDATASIZE ADD AND DUP3 ADD PUSH1 0x40 MSTORE RETURNDATASIZE DUP3 MSTORE RETURNDATASIZE PUSH1 0x0 PUSH1 0x20 DUP5 ADD RETURNDATACOPY PUSH2 0x1E91 JUMP JUMPDEST PUSH1 0x60 SWAP2 POP JUMPDEST POP PUSH1 0x0 DUP2 MLOAD SUB PUSH2 0x1ED6 JUMPI PUSH1 0x40 MLOAD PUSH32 0x8C379A000000000000000000000000000000000000000000000000000000000 DUP2 MSTORE PUSH1 0x4 ADD PUSH2 0x1ECD SWAP1 PUSH2 0x397F JUMP JUMPDEST PUSH1 0x40 MLOAD DUP1 SWAP2 SUB SWAP1 REVERT JUMPDEST DUP1 MLOAD DUP2 PUSH1 0x20 ADD REVERT JUMPDEST PUSH4 0x150B7A02 PUSH1 0xE0 SHL PUSH28 0xFFFFFFFFFFFFFFFFFFFFFFFFFFFFFFFFFFFFFFFFFFFFFFFFFFFFFFFF NOT AND DUP2 PUSH28 0xFFFFFFFFFFFFFFFFFFFFFFFFFFFFFFFFFFFFFFFFFFFFFFFFFFFFFFFF NOT AND EQ SWAP2 POP POP PUSH2 0x1F33 JUMP JUMPDEST PUSH1 0x1 SWAP1 POP JUMPDEST SWAP5 SWAP4 POP POP POP POP JUMP JUMPDEST PUSH1 0x0 DUP1 PUSH1 0x0 SWAP1 POP PUSH27 0x184F03E93FF9F4DAA797ED6E38ED64BF6A1F010000000000000000 DUP4 LT PUSH2 0x1F99 JUMPI PUSH27 0x184F03E93FF9F4DAA797ED6E38ED64BF6A1F010000000000000000 DUP4 DUP2 PUSH2 0x1F8F JUMPI PUSH2 0x1F8E PUSH2 0x399F JUMP JUMPDEST JUMPDEST DIV SWAP3 POP PUSH1 0x40 DUP2 ADD SWAP1 POP JUMPDEST PUSH14 0x4EE2D6D415B85ACEF8100000000 DUP4 LT PUSH2 0x1FD6 JUMPI PUSH14 0x4EE2D6D415B85ACEF8100000000 DUP4 DUP2 PUSH2 0x1FCC JUMPI PUSH2 0x1FCB PUSH2 0x399F JUMP JUMPDEST JUMPDEST DIV SWAP3 POP PUSH1 0x20 DUP2 ADD SWAP1 POP JUMPDEST PUSH7 0x2386F26FC10000 DUP4 LT PUSH2 0x2005 JUMPI PUSH7 0x2386F26FC10000 DUP4 DUP2 PUSH2 0x1FFB JUMPI PUSH2 0x1FFA PUSH2 0x399F JUMP JUMPDEST JUMPDEST DIV SWAP3 POP PUSH1 0x10 DUP2 ADD SWAP1 POP JUMPDEST PUSH4 0x5F5E100 DUP4 LT PUSH2 0x202E JUMPI PUSH4 0x5F5E100 DUP4 DUP2 PUSH2 0x2024 JUMPI PUSH2 0x2023 PUSH2 0x399F JUMP JUMPDEST JUMPDEST DIV SWAP3 POP PUSH1 0x8 DUP2 ADD SWAP1 POP JUMPDEST PUSH2 0x2710 DUP4 LT PUSH2 0x2053 JUMPI PUSH2 0x2710 DUP4 DUP2 PUSH2 0x2049 JUMPI PUSH2 0x2048 PUSH2 0x399F JUMP JUMPDEST JUMPDEST DIV SWAP3 POP PUSH1 0x4 DUP2 ADD SWAP1 POP JUMPDEST PUSH1 0x64 DUP4 LT PUSH2 0x2076 JUMPI PUSH1 0x64 DUP4 DUP2 PUSH2 0x206C JUMPI PUSH2 0x206B PUSH2 0x399F JUMP JUMPDEST JUMPDEST DIV SWAP3 POP PUSH1 0x2 DUP2 ADD SWAP1 POP JUMPDEST PUSH1 0xA DUP4 LT PUSH2 0x2085 JUMPI PUSH1 0x1 DUP2 ADD SWAP1 POP JUMPDEST DUP1 SWAP2 POP POP SWAP2 SWAP1 POP JUMP JUMPDEST PUSH1 0x0 PUSH32 0x1FFC9A700000000000000000000000000000000000000000000000000000000 PUSH28 0xFFFFFFFFFFFFFFFFFFFFFFFFFFFFFFFFFFFFFFFFFFFFFFFFFFFFFFFF NOT AND DUP3 PUSH28 0xFFFFFFFFFFFFFFFFFFFFFFFFFFFFFFFFFFFFFFFFFFFFFFFFFFFFFFFF NOT AND EQ SWAP1 POP SWAP2 SWAP1 POP JUMP JUMPDEST PUSH2 0x2104 DUP5 DUP5 DUP5 DUP5 PUSH2 0x25E4 JUMP JUMPDEST PUSH1 0x1 DUP2 GT ISZERO PUSH2 0x2148 JUMPI PUSH1 0x40 MLOAD PUSH32 0x8C379A000000000000000000000000000000000000000000000000000000000 DUP2 MSTORE PUSH1 0x4 ADD PUSH2 0x213F SWAP1 PUSH2 0x3BFB JUMP JUMPDEST PUSH1 0x40 MLOAD DUP1 SWAP2 SUB SWAP1 REVERT JUMPDEST PUSH1 0x0 DUP3 SWAP1 POP PUSH1 0x0 PUSH20 0xFFFFFFFFFFFFFFFFFFFFFFFFFFFFFFFFFFFFFFFF AND DUP6 PUSH20 0xFFFFFFFFFFFFFFFFFFFFFFFFFFFFFFFFFFFFFFFF AND SUB PUSH2 0x218F JUMPI PUSH2 0x218A DUP2 PUSH2 0x25EA JUMP JUMPDEST PUSH2 0x21CE JUMP JUMPDEST DUP4 PUSH20 0xFFFFFFFFFFFFFFFFFFFFFFFFFFFFFFFFFFFFFFFF AND DUP6 PUSH20 0xFFFFFFFFFFFFFFFFFFFFFFFFFFFFFFFFFFFFFFFF AND EQ PUSH2 0x21CD JUMPI PUSH2 0x21CC DUP6 DUP3 PUSH2 0x2633 JUMP JUMPDEST JUMPDEST JUMPDEST PUSH1 0x0 PUSH20 0xFFFFFFFFFFFFFFFFFFFFFFFFFFFFFFFFFFFFFFFF AND DUP5 PUSH20 0xFFFFFFFFFFFFFFFFFFFFFFFFFFFFFFFFFFFFFFFF AND SUB PUSH2 0x2210 JUMPI PUSH2 0x220B DUP2 PUSH2 0x27A0 JUMP JUMPDEST PUSH2 0x224F JUMP JUMPDEST DUP5 PUSH20 0xFFFFFFFFFFFFFFFFFFFFFFFFFFFFFFFFFFFFFFFF AND DUP5 PUSH20 0xFFFFFFFFFFFFFFFFFFFFFFFFFFFFFFFFFFFFFFFF AND EQ PUSH2 0x224E JUMPI PUSH2 0x224D DUP5 DUP3 PUSH2 0x2871 JUMP JUMPDEST JUMPDEST JUMPDEST POP POP POP POP POP JUMP JUMPDEST PUSH1 0x0 PUSH20 0xFFFFFFFFFFFFFFFFFFFFFFFFFFFFFFFFFFFFFFFF AND DUP3 PUSH20 0xFFFFFFFFFFFFFFFFFFFFFFFFFFFFFFFFFFFFFFFF AND SUB PUSH2 0x22C5 JUMPI PUSH1 0x40 MLOAD PUSH32 0x8C379A000000000000000000000000000000000000000000000000000000000 DUP2 MSTORE PUSH1 0x4 ADD PUSH2 0x22BC SWAP1 PUSH2 0x3C67 JUMP JUMPDEST PUSH1 0x40 MLOAD DUP1 SWAP2 SUB SWAP1 REVERT JUMPDEST PUSH2 0x22CE DUP2 PUSH2 0x1C12 JUMP JUMPDEST ISZERO PUSH2 0x230E JUMPI PUSH1 0x40 MLOAD PUSH32 0x8C379A000000000000000000000000000000000000000000000000000000000 DUP2 MSTORE PUSH1 0x4 ADD PUSH2 0x2305 SWAP1 PUSH2 0x3CD3 JUMP JUMPDEST PUSH1 0x40 MLOAD DUP1 SWAP2 SUB SWAP1 REVERT JUMPDEST PUSH2 0x231C PUSH1 0x0 DUP4 DUP4 PUSH1 0x1 PUSH2 0x1C53 JUMP JUMPDEST PUSH2 0x2325 DUP2 PUSH2 0x1C12 JUMP JUMPDEST ISZERO PUSH2 0x2365 JUMPI PUSH1 0x40 MLOAD PUSH32 0x8C379A000000000000000000000000000000000000000000000000000000000 DUP2 MSTORE PUSH1 0x4 ADD PUSH2 0x235C SWAP1 PUSH2 0x3CD3 JUMP JUMPDEST PUSH1 0x40 MLOAD DUP1 SWAP2 SUB SWAP1 REVERT JUMPDEST PUSH1 0x1 PUSH1 0x3 PUSH1 0x0 DUP5 PUSH20 0xFFFFFFFFFFFFFFFFFFFFFFFFFFFFFFFFFFFFFFFF AND PUSH20 0xFFFFFFFFFFFFFFFFFFFFFFFFFFFFFFFFFFFFFFFF AND DUP2 MSTORE PUSH1 0x20 ADD SWAP1 DUP2 MSTORE PUSH1 0x20 ADD PUSH1 0x0 KECCAK256 PUSH1 0x0 DUP3 DUP3 SLOAD ADD SWAP3 POP POP DUP2 SWAP1 SSTORE POP DUP2 PUSH1 0x2 PUSH1 0x0 DUP4 DUP2 MSTORE PUSH1 0x20 ADD SWAP1 DUP2 MSTORE PUSH1 0x20 ADD PUSH1 0x0 KECCAK256 PUSH1 0x0 PUSH2 0x100 EXP DUP2 SLOAD DUP2 PUSH20 0xFFFFFFFFFFFFFFFFFFFFFFFFFFFFFFFFFFFFFFFF MUL NOT AND SWAP1 DUP4 PUSH20 0xFFFFFFFFFFFFFFFFFFFFFFFFFFFFFFFFFFFFFFFF AND MUL OR SWAP1 SSTORE POP DUP1 DUP3 PUSH20 0xFFFFFFFFFFFFFFFFFFFFFFFFFFFFFFFFFFFFFFFF AND PUSH1 0x0 PUSH20 0xFFFFFFFFFFFFFFFFFFFFFFFFFFFFFFFFFFFFFFFF AND PUSH32 0xDDF252AD1BE2C89B69C2B068FC378DAA952BA7F163C4A11628F55A4DF523B3EF PUSH1 0x40 MLOAD PUSH1 0x40 MLOAD DUP1 SWAP2 SUB SWAP1 LOG4 PUSH2 0x246F PUSH1 0x0 DUP4 DUP4 PUSH1 0x1 PUSH2 0x1C6D JUMP JUMPDEST POP POP JUMP JUMPDEST PUSH1 0x0 PUSH2 0x247E DUP3 PUSH2 0x953 JUMP JUMPDEST SWAP1 POP PUSH2 0x248E DUP2 PUSH1 0x0 DUP5 PUSH1 0x1 PUSH2 0x1C53 JUMP JUMPDEST PUSH2 0x2497 DUP3 PUSH2 0x953 JUMP JUMPDEST SWAP1 POP PUSH1 0x4 PUSH1 0x0 DUP4 DUP2 MSTORE PUSH1 0x20 ADD SWAP1 DUP2 MSTORE PUSH1 0x20 ADD PUSH1 0x0 KECCAK256 PUSH1 0x0 PUSH2 0x100 EXP DUP2 SLOAD SWAP1 PUSH20 0xFFFFFFFFFFFFFFFFFFFFFFFFFFFFFFFFFFFFFFFF MUL NOT AND SWAP1 SSTORE PUSH1 0x1 PUSH1 0x3 PUSH1 0x0 DUP4 PUSH20 0xFFFFFFFFFFFFFFFFFFFFFFFFFFFFFFFFFFFFFFFF AND PUSH20 0xFFFFFFFFFFFFFFFFFFFFFFFFFFFFFFFFFFFFFFFF AND DUP2 MSTORE PUSH1 0x20 ADD SWAP1 DUP2 MSTORE PUSH1 0x20 ADD PUSH1 0x0 KECCAK256 PUSH1 0x0 DUP3 DUP3 SLOAD SUB SWAP3 POP POP DUP2 SWAP1 SSTORE POP PUSH1 0x2 PUSH1 0x0 DUP4 DUP2 MSTORE PUSH1 0x20 ADD SWAP1 DUP2 MSTORE PUSH1 0x20 ADD PUSH1 0x0 KECCAK256 PUSH1 0x0 PUSH2 0x100 EXP DUP2 SLOAD SWAP1 PUSH20 0xFFFFFFFFFFFFFFFFFFFFFFFFFFFFFFFFFFFFFFFF MUL NOT AND SWAP1 SSTORE DUP2 PUSH1 0x0 PUSH20 0xFFFFFFFFFFFFFFFFFFFFFFFFFFFFFFFFFFFFFFFF AND DUP3 PUSH20 0xFFFFFFFFFFFFFFFFFFFFFFFFFFFFFFFFFFFFFFFF AND PUSH32 0xDDF252AD1BE2C89B69C2B068FC378DAA952BA7F163C4A11628F55A4DF523B3EF PUSH1 0x40 MLOAD PUSH1 0x40 MLOAD DUP1 SWAP2 SUB SWAP1 LOG4 PUSH2 0x25BD DUP2 PUSH1 0x0 DUP5 PUSH1 0x1 PUSH2 0x1C6D JUMP JUMPDEST POP POP JUMP JUMPDEST PUSH1 0x0 DUP1 DUP3 PUSH20 0xFFFFFFFFFFFFFFFFFFFFFFFFFFFFFFFFFFFFFFFF AND EXTCODESIZE GT SWAP1 POP SWAP2 SWAP1 POP JUMP JUMPDEST POP POP POP POP JUMP JUMPDEST PUSH1 0x8 DUP1 SLOAD SWAP1 POP PUSH1 0x9 PUSH1 0x0 DUP4 DUP2 MSTORE PUSH1 0x20 ADD SWAP1 DUP2 MSTORE PUSH1 0x20 ADD PUSH1 0x0 KECCAK256 DUP2 SWAP1 SSTORE POP PUSH1 0x8 DUP2 SWAP1 DUP1 PUSH1 0x1 DUP2 SLOAD ADD DUP1 DUP3 SSTORE DUP1 SWAP2 POP POP PUSH1 0x1 SWAP1 SUB SWAP1 PUSH1 0x0 MSTORE PUSH1 0x20 PUSH1 0x0 KECCAK256 ADD PUSH1 0x0 SWAP1 SWAP2 SWAP1 SWAP2 SWAP1 SWAP2 POP SSTORE POP JUMP JUMPDEST PUSH1 0x0 PUSH1 0x1 PUSH2 0x2640 DUP5 PUSH2 0x9D9 JUMP JUMPDEST PUSH2 0x264A SWAP2 SWAP1 PUSH2 0x3661 JUMP JUMPDEST SWAP1 POP PUSH1 0x0 PUSH1 0x7 PUSH1 0x0 DUP5 DUP2 MSTORE PUSH1 0x20 ADD SWAP1 DUP2 MSTORE PUSH1 0x20 ADD PUSH1 0x0 KECCAK256 SLOAD SWAP1 POP DUP2 DUP2 EQ PUSH2 0x272F JUMPI PUSH1 0x0 PUSH1 0x6 PUSH1 0x0 DUP7 PUSH20 0xFFFFFFFFFFFFFFFFFFFFFFFFFFFFFFFFFFFFFFFF AND PUSH20 0xFFFFFFFFFFFFFFFFFFFFFFFFFFFFFFFFFFFFFFFF AND DUP2 MSTORE PUSH1 0x20 ADD SWAP1 DUP2 MSTORE PUSH1 0x20 ADD PUSH1 0x0 KECCAK256 PUSH1 0x0 DUP5 DUP2 MSTORE PUSH1 0x20 ADD SWAP1 DUP2 MSTORE PUSH1 0x20 ADD PUSH1 0x0 KECCAK256 SLOAD SWAP1 POP DUP1 PUSH1 0x6 PUSH1 0x0 DUP8 PUSH20 0xFFFFFFFFFFFFFFFFFFFFFFFFFFFFFFFFFFFFFFFF AND PUSH20 0xFFFFFFFFFFFFFFFFFFFFFFFFFFFFFFFFFFFFFFFF AND DUP2 MSTORE PUSH1 0x20 ADD SWAP1 DUP2 MSTORE PUSH1 0x20 ADD PUSH1 0x0 KECCAK256 PUSH1 0x0 DUP5 DUP2 MSTORE PUSH1 0x20 ADD SWAP1 DUP2 MSTORE PUSH1 0x20 ADD PUSH1 0x0 KECCAK256 DUP2 SWAP1 SSTORE POP DUP2 PUSH1 0x7 PUSH1 0x0 DUP4 DUP2 MSTORE PUSH1 0x20 ADD SWAP1 DUP2 MSTORE PUSH1 0x20 ADD PUSH1 0x0 KECCAK256 DUP2 SWAP1 SSTORE POP POP JUMPDEST PUSH1 0x7 PUSH1 0x0 DUP5 DUP2 MSTORE PUSH1 0x20 ADD SWAP1 DUP2 MSTORE PUSH1 0x20 ADD PUSH1 0x0 KECCAK256 PUSH1 0x0 SWAP1 SSTORE PUSH1 0x6 PUSH1 0x0 DUP6 PUSH20 0xFFFFFFFFFFFFFFFFFFFFFFFFFFFFFFFFFFFFFFFF AND PUSH20 0xFFFFFFFFFFFFFFFFFFFFFFFFFFFFFFFFFFFFFFFF AND DUP2 MSTORE PUSH1 0x20 ADD SWAP1 DUP2 MSTORE PUSH1 0x20 ADD PUSH1 0x0 KECCAK256 PUSH1 0x0 DUP4 DUP2 MSTORE PUSH1 0x20 ADD SWAP1 DUP2 MSTORE PUSH1 0x20 ADD PUSH1 0x0 KECCAK256 PUSH1 0x0 SWAP1 SSTORE POP POP POP POP JUMP JUMPDEST PUSH1 0x0 PUSH1 0x1 PUSH1 0x8 DUP1 SLOAD SWAP1 POP PUSH2 0x27B4 SWAP2 SWAP1 PUSH2 0x3661 JUMP JUMPDEST SWAP1 POP PUSH1 0x0 PUSH1 0x9 PUSH1 0x0 DUP5 DUP2 MSTORE PUSH1 0x20 ADD SWAP1 DUP2 MSTORE PUSH1 0x20 ADD PUSH1 0x0 KECCAK256 SLOAD SWAP1 POP PUSH1 0x0 PUSH1 0x8 DUP4 DUP2 SLOAD DUP2 LT PUSH2 0x27E4 JUMPI PUSH2 0x27E3 PUSH2 0x3241 JUMP JUMPDEST JUMPDEST SWAP1 PUSH1 0x0 MSTORE PUSH1 0x20 PUSH1 0x0 KECCAK256 ADD SLOAD SWAP1 POP DUP1 PUSH1 0x8 DUP4 DUP2 SLOAD DUP2 LT PUSH2 0x2806 JUMPI PUSH2 0x2805 PUSH2 0x3241 JUMP JUMPDEST JUMPDEST SWAP1 PUSH1 0x0 MSTORE PUSH1 0x20 PUSH1 0x0 KECCAK256 ADD DUP2 SWAP1 SSTORE POP DUP2 PUSH1 0x9 PUSH1 0x0 DUP4 DUP2 MSTORE PUSH1 0x20 ADD SWAP1 DUP2 MSTORE PUSH1 0x20 ADD PUSH1 0x0 KECCAK256 DUP2 SWAP1 SSTORE POP PUSH1 0x9 PUSH1 0x0 DUP6 DUP2 MSTORE PUSH1 0x20 ADD SWAP1 DUP2 MSTORE PUSH1 0x20 ADD PUSH1 0x0 KECCAK256 PUSH1 0x0 SWAP1 SSTORE PUSH1 0x8 DUP1 SLOAD DUP1 PUSH2 0x2855 JUMPI PUSH2 0x2854 PUSH2 0x3CF3 JUMP JUMPDEST JUMPDEST PUSH1 0x1 SWAP1 SUB DUP2 DUP2 SWAP1 PUSH1 0x0 MSTORE PUSH1 0x20 PUSH1 0x0 KECCAK256 ADD PUSH1 0x0 SWAP1 SSTORE SWAP1 SSTORE POP POP POP POP JUMP JUMPDEST PUSH1 0x0 PUSH2 0x287C DUP4 PUSH2 0x9D9 JUMP JUMPDEST SWAP1 POP DUP2 PUSH1 0x6 PUSH1 0x0 DUP6 PUSH20 0xFFFFFFFFFFFFFFFFFFFFFFFFFFFFFFFFFFFFFFFF AND PUSH20 0xFFFFFFFFFFFFFFFFFFFFFFFFFFFFFFFFFFFFFFFF AND DUP2 MSTORE PUSH1 0x20 ADD SWAP1 DUP2 MSTORE PUSH1 0x20 ADD PUSH1 0x0 KECCAK256 PUSH1 0x0 DUP4 DUP2 MSTORE PUSH1 0x20 ADD SWAP1 DUP2 MSTORE PUSH1 0x20 ADD PUSH1 0x0 KECCAK256 DUP2 SWAP1 SSTORE POP DUP1 PUSH1 0x7 PUSH1 0x0 DUP5 DUP2 MSTORE PUSH1 0x20 ADD SWAP1 DUP2 MSTORE PUSH1 0x20 ADD PUSH1 0x0 KECCAK256 DUP2 SWAP1 SSTORE POP POP POP POP JUMP JUMPDEST POP DUP1 SLOAD PUSH2 0x28FC SWAP1 PUSH2 0x2F36 JUMP JUMPDEST PUSH1 0x0 DUP3 SSTORE DUP1 PUSH1 0x1F LT PUSH2 0x290E JUMPI POP PUSH2 0x292D JUMP JUMPDEST PUSH1 0x1F ADD PUSH1 0x20 SWAP1 DIV SWAP1 PUSH1 0x0 MSTORE PUSH1 0x20 PUSH1 0x0 KECCAK256 SWAP1 DUP2 ADD SWAP1 PUSH2 0x292C SWAP2 SWAP1 PUSH2 0x2930 JUMP JUMPDEST JUMPDEST POP JUMP JUMPDEST JUMPDEST DUP1 DUP3 GT ISZERO PUSH2 0x2949 JUMPI PUSH1 0x0 DUP2 PUSH1 0x0 SWAP1 SSTORE POP PUSH1 0x1 ADD PUSH2 0x2931 JUMP JUMPDEST POP SWAP1 JUMP JUMPDEST PUSH1 0x0 PUSH1 0x40 MLOAD SWAP1 POP SWAP1 JUMP JUMPDEST PUSH1 0x0 DUP1 REVERT JUMPDEST PUSH1 0x0 DUP1 REVERT JUMPDEST PUSH1 0x0 PUSH32 0xFFFFFFFF00000000000000000000000000000000000000000000000000000000 DUP3 AND SWAP1 POP SWAP2 SWAP1 POP JUMP JUMPDEST PUSH2 0x2996 DUP2 PUSH2 0x2961 JUMP JUMPDEST DUP2 EQ PUSH2 0x29A1 JUMPI PUSH1 0x0 DUP1 REVERT JUMPDEST POP JUMP JUMPDEST PUSH1 0x0 DUP2 CALLDATALOAD SWAP1 POP PUSH2 0x29B3 DUP2 PUSH2 0x298D JUMP JUMPDEST SWAP3 SWAP2 POP POP JUMP JUMPDEST PUSH1 0x0 PUSH1 0x20 DUP3 DUP5 SUB SLT ISZERO PUSH2 0x29CF JUMPI PUSH2 0x29CE PUSH2 0x2957 JUMP JUMPDEST JUMPDEST PUSH1 0x0 PUSH2 0x29DD DUP5 DUP3 DUP6 ADD PUSH2 0x29A4 JUMP JUMPDEST SWAP2 POP POP SWAP3 SWAP2 POP POP JUMP JUMPDEST PUSH1 0x0 DUP2 ISZERO ISZERO SWAP1 POP SWAP2 SWAP1 POP JUMP JUMPDEST PUSH2 0x29FB DUP2 PUSH2 0x29E6 JUMP JUMPDEST DUP3 MSTORE POP POP JUMP JUMPDEST PUSH1 0x0 PUSH1 0x20 DUP3 ADD SWAP1 POP PUSH2 0x2A16 PUSH1 0x0 DUP4 ADD DUP5 PUSH2 0x29F2 JUMP JUMPDEST SWAP3 SWAP2 POP POP JUMP JUMPDEST PUSH1 0x0 DUP2 MLOAD SWAP1 POP SWAP2 SWAP1 POP JUMP JUMPDEST PUSH1 0x0 DUP3 DUP3 MSTORE PUSH1 0x20 DUP3 ADD SWAP1 POP SWAP3 SWAP2 POP POP JUMP JUMPDEST PUSH1 0x0 JUMPDEST DUP4 DUP2 LT ISZERO PUSH2 0x2A56 JUMPI DUP1 DUP3 ADD MLOAD DUP2 DUP5 ADD MSTORE PUSH1 0x20 DUP2 ADD SWAP1 POP PUSH2 0x2A3B JUMP JUMPDEST PUSH1 0x0 DUP5 DUP5 ADD MSTORE POP POP POP POP JUMP JUMPDEST PUSH1 0x0 PUSH1 0x1F NOT PUSH1 0x1F DUP4 ADD AND SWAP1 POP SWAP2 SWAP1 POP JUMP JUMPDEST PUSH1 0x0 PUSH2 0x2A7E DUP3 PUSH2 0x2A1C JUMP JUMPDEST PUSH2 0x2A88 DUP2 DUP6 PUSH2 0x2A27 JUMP JUMPDEST SWAP4 POP PUSH2 0x2A98 DUP2 DUP6 PUSH1 0x20 DUP7 ADD PUSH2 0x2A38 JUMP JUMPDEST PUSH2 0x2AA1 DUP2 PUSH2 0x2A62 JUMP JUMPDEST DUP5 ADD SWAP2 POP POP SWAP3 SWAP2 POP POP JUMP JUMPDEST PUSH1 0x0 PUSH1 0x20 DUP3 ADD SWAP1 POP DUP2 DUP2 SUB PUSH1 0x0 DUP4 ADD MSTORE PUSH2 0x2AC6 DUP2 DUP5 PUSH2 0x2A73 JUMP JUMPDEST SWAP1 POP SWAP3 SWAP2 POP POP JUMP JUMPDEST PUSH1 0x0 DUP2 SWAP1 POP SWAP2 SWAP1 POP JUMP JUMPDEST PUSH2 0x2AE1 DUP2 PUSH2 0x2ACE JUMP JUMPDEST DUP2 EQ PUSH2 0x2AEC JUMPI PUSH1 0x0 DUP1 REVERT JUMPDEST POP JUMP JUMPDEST PUSH1 0x0 DUP2 CALLDATALOAD SWAP1 POP PUSH2 0x2AFE DUP2 PUSH2 0x2AD8 JUMP JUMPDEST SWAP3 SWAP2 POP POP JUMP JUMPDEST PUSH1 0x0 PUSH1 0x20 DUP3 DUP5 SUB SLT ISZERO PUSH2 0x2B1A JUMPI PUSH2 0x2B19 PUSH2 0x2957 JUMP JUMPDEST JUMPDEST PUSH1 0x0 PUSH2 0x2B28 DUP5 DUP3 DUP6 ADD PUSH2 0x2AEF JUMP JUMPDEST SWAP2 POP POP SWAP3 SWAP2 POP POP JUMP JUMPDEST PUSH1 0x0 PUSH20 0xFFFFFFFFFFFFFFFFFFFFFFFFFFFFFFFFFFFFFFFF DUP3 AND SWAP1 POP SWAP2 SWAP1 POP JUMP JUMPDEST PUSH1 0x0 PUSH2 0x2B5C DUP3 PUSH2 0x2B31 JUMP JUMPDEST SWAP1 POP SWAP2 SWAP1 POP JUMP JUMPDEST PUSH2 0x2B6C DUP2 PUSH2 0x2B51 JUMP JUMPDEST DUP3 MSTORE POP POP JUMP JUMPDEST PUSH1 0x0 PUSH1 0x20 DUP3 ADD SWAP1 POP PUSH2 0x2B87 PUSH1 0x0 DUP4 ADD DUP5 PUSH2 0x2B63 JUMP JUMPDEST SWAP3 SWAP2 POP POP JUMP JUMPDEST PUSH2 0x2B96 DUP2 PUSH2 0x2B51 JUMP JUMPDEST DUP2 EQ PUSH2 0x2BA1 JUMPI PUSH1 0x0 DUP1 REVERT JUMPDEST POP JUMP JUMPDEST PUSH1 0x0 DUP2 CALLDATALOAD SWAP1 POP PUSH2 0x2BB3 DUP2 PUSH2 0x2B8D JUMP JUMPDEST SWAP3 SWAP2 POP POP JUMP JUMPDEST PUSH1 0x0 DUP1 PUSH1 0x40 DUP4 DUP6 SUB SLT ISZERO PUSH2 0x2BD0 JUMPI PUSH2 0x2BCF PUSH2 0x2957 JUMP JUMPDEST JUMPDEST PUSH1 0x0 PUSH2 0x2BDE DUP6 DUP3 DUP7 ADD PUSH2 0x2BA4 JUMP JUMPDEST SWAP3 POP POP PUSH1 0x20 PUSH2 0x2BEF DUP6 DUP3 DUP7 ADD PUSH2 0x2AEF JUMP JUMPDEST SWAP2 POP POP SWAP3 POP SWAP3 SWAP1 POP JUMP JUMPDEST PUSH2 0x2C02 DUP2 PUSH2 0x2ACE JUMP JUMPDEST DUP3 MSTORE POP POP JUMP JUMPDEST PUSH1 0x0 PUSH1 0x20 DUP3 ADD SWAP1 POP PUSH2 0x2C1D PUSH1 0x0 DUP4 ADD DUP5 PUSH2 0x2BF9 JUMP JUMPDEST SWAP3 SWAP2 POP POP JUMP JUMPDEST PUSH1 0x0 DUP1 PUSH1 0x0 PUSH1 0x60 DUP5 DUP7 SUB SLT ISZERO PUSH2 0x2C3C JUMPI PUSH2 0x2C3B PUSH2 0x2957 JUMP JUMPDEST JUMPDEST PUSH1 0x0 PUSH2 0x2C4A DUP7 DUP3 DUP8 ADD PUSH2 0x2BA4 JUMP JUMPDEST SWAP4 POP POP PUSH1 0x20 PUSH2 0x2C5B DUP7 DUP3 DUP8 ADD PUSH2 0x2BA4 JUMP JUMPDEST SWAP3 POP POP PUSH1 0x40 PUSH2 0x2C6C DUP7 DUP3 DUP8 ADD PUSH2 0x2AEF JUMP JUMPDEST SWAP2 POP POP SWAP3 POP SWAP3 POP SWAP3 JUMP JUMPDEST PUSH1 0x0 PUSH1 0x20 DUP3 DUP5 SUB SLT ISZERO PUSH2 0x2C8C JUMPI PUSH2 0x2C8B PUSH2 0x2957 JUMP JUMPDEST JUMPDEST PUSH1 0x0 PUSH2 0x2C9A DUP5 DUP3 DUP6 ADD PUSH2 0x2BA4 JUMP JUMPDEST SWAP2 POP POP SWAP3 SWAP2 POP POP JUMP JUMPDEST PUSH2 0x2CAC DUP2 PUSH2 0x29E6 JUMP JUMPDEST DUP2 EQ PUSH2 0x2CB7 JUMPI PUSH1 0x0 DUP1 REVERT JUMPDEST POP JUMP JUMPDEST PUSH1 0x0 DUP2 CALLDATALOAD SWAP1 POP PUSH2 0x2CC9 DUP2 PUSH2 0x2CA3 JUMP JUMPDEST SWAP3 SWAP2 POP POP JUMP JUMPDEST PUSH1 0x0 DUP1 PUSH1 0x40 DUP4 DUP6 SUB SLT ISZERO PUSH2 0x2CE6 JUMPI PUSH2 0x2CE5 PUSH2 0x2957 JUMP JUMPDEST JUMPDEST PUSH1 0x0 PUSH2 0x2CF4 DUP6 DUP3 DUP7 ADD PUSH2 0x2BA4 JUMP JUMPDEST SWAP3 POP POP PUSH1 0x20 PUSH2 0x2D05 DUP6 DUP3 DUP7 ADD PUSH2 0x2CBA JUMP JUMPDEST SWAP2 POP POP SWAP3 POP SWAP3 SWAP1 POP JUMP JUMPDEST PUSH1 0x0 DUP1 REVERT JUMPDEST PUSH1 0x0 DUP1 REVERT JUMPDEST PUSH32 0x4E487B7100000000000000000000000000000000000000000000000000000000 PUSH1 0x0 MSTORE PUSH1 0x41 PUSH1 0x4 MSTORE PUSH1 0x24 PUSH1 0x0 REVERT JUMPDEST PUSH2 0x2D51 DUP3 PUSH2 0x2A62 JUMP JUMPDEST DUP2 ADD DUP2 DUP2 LT PUSH8 0xFFFFFFFFFFFFFFFF DUP3 GT OR ISZERO PUSH2 0x2D70 JUMPI PUSH2 0x2D6F PUSH2 0x2D19 JUMP JUMPDEST JUMPDEST DUP1 PUSH1 0x40 MSTORE POP POP POP JUMP JUMPDEST PUSH1 0x0 PUSH2 0x2D83 PUSH2 0x294D JUMP JUMPDEST SWAP1 POP PUSH2 0x2D8F DUP3 DUP3 PUSH2 0x2D48 JUMP JUMPDEST SWAP2 SWAP1 POP JUMP JUMPDEST PUSH1 0x0 PUSH8 0xFFFFFFFFFFFFFFFF DUP3 GT ISZERO PUSH2 0x2DAF JUMPI PUSH2 0x2DAE PUSH2 0x2D19 JUMP JUMPDEST JUMPDEST PUSH2 0x2DB8 DUP3 PUSH2 0x2A62 JUMP JUMPDEST SWAP1 POP PUSH1 0x20 DUP2 ADD SWAP1 POP SWAP2 SWAP1 POP JUMP JUMPDEST DUP3 DUP2 DUP4 CALLDATACOPY PUSH1 0x0 DUP4 DUP4 ADD MSTORE POP POP POP JUMP JUMPDEST PUSH1 0x0 PUSH2 0x2DE7 PUSH2 0x2DE2 DUP5 PUSH2 0x2D94 JUMP JUMPDEST PUSH2 0x2D79 JUMP JUMPDEST SWAP1 POP DUP3 DUP2 MSTORE PUSH1 0x20 DUP2 ADD DUP5 DUP5 DUP5 ADD GT ISZERO PUSH2 0x2E03 JUMPI PUSH2 0x2E02 PUSH2 0x2D14 JUMP JUMPDEST JUMPDEST PUSH2 0x2E0E DUP5 DUP3 DUP6 PUSH2 0x2DC5 JUMP JUMPDEST POP SWAP4 SWAP3 POP POP POP JUMP JUMPDEST PUSH1 0x0 DUP3 PUSH1 0x1F DUP4 ADD SLT PUSH2 0x2E2B JUMPI PUSH2 0x2E2A PUSH2 0x2D0F JUMP JUMPDEST JUMPDEST DUP2 CALLDATALOAD PUSH2 0x2E3B DUP5 DUP3 PUSH1 0x20 DUP7 ADD PUSH2 0x2DD4 JUMP JUMPDEST SWAP2 POP POP SWAP3 SWAP2 POP POP JUMP JUMPDEST PUSH1 0x0 DUP1 PUSH1 0x0 DUP1 PUSH1 0x80 DUP6 DUP8 SUB SLT ISZERO PUSH2 0x2E5E JUMPI PUSH2 0x2E5D PUSH2 0x2957 JUMP JUMPDEST JUMPDEST PUSH1 0x0 PUSH2 0x2E6C DUP8 DUP3 DUP9 ADD PUSH2 0x2BA4 JUMP JUMPDEST SWAP5 POP POP PUSH1 0x20 PUSH2 0x2E7D DUP8 DUP3 DUP9 ADD PUSH2 0x2BA4 JUMP JUMPDEST SWAP4 POP POP PUSH1 0x40 PUSH2 0x2E8E DUP8 DUP3 DUP9 ADD PUSH2 0x2AEF JUMP JUMPDEST SWAP3 POP POP PUSH1 0x60 DUP6 ADD CALLDATALOAD PUSH8 0xFFFFFFFFFFFFFFFF DUP2 GT ISZERO PUSH2 0x2EAF JUMPI PUSH2 0x2EAE PUSH2 0x295C JUMP JUMPDEST JUMPDEST PUSH2 0x2EBB DUP8 DUP3 DUP9 ADD PUSH2 0x2E16 JUMP JUMPDEST SWAP2 POP POP SWAP3 SWAP6 SWAP2 SWAP5 POP SWAP3 POP JUMP JUMPDEST PUSH1 0x0 DUP1 PUSH1 0x40 DUP4 DUP6 SUB SLT ISZERO PUSH2 0x2EDE JUMPI PUSH2 0x2EDD PUSH2 0x2957 JUMP JUMPDEST JUMPDEST PUSH1 0x0 PUSH2 0x2EEC DUP6 DUP3 DUP7 ADD PUSH2 0x2BA4 JUMP JUMPDEST SWAP3 POP POP PUSH1 0x20 PUSH2 0x2EFD DUP6 DUP3 DUP7 ADD PUSH2 0x2BA4 JUMP JUMPDEST SWAP2 POP POP SWAP3 POP SWAP3 SWAP1 POP JUMP JUMPDEST PUSH32 0x4E487B7100000000000000000000000000000000000000000000000000000000 PUSH1 0x0 MSTORE PUSH1 0x22 PUSH1 0x4 MSTORE PUSH1 0x24 PUSH1 0x0 REVERT JUMPDEST PUSH1 0x0 PUSH1 0x2 DUP3 DIV SWAP1 POP PUSH1 0x1 DUP3 AND DUP1 PUSH2 0x2F4E JUMPI PUSH1 0x7F DUP3 AND SWAP2 POP JUMPDEST PUSH1 0x20 DUP3 LT DUP2 SUB PUSH2 0x2F61 JUMPI PUSH2 0x2F60 PUSH2 0x2F07 JUMP JUMPDEST JUMPDEST POP SWAP2 SWAP1 POP JUMP JUMPDEST PUSH32 0x4552433732313A20617070726F76616C20746F2063757272656E74206F776E65 PUSH1 0x0 DUP3 ADD MSTORE PUSH32 0x7200000000000000000000000000000000000000000000000000000000000000 PUSH1 0x20 DUP3 ADD MSTORE POP JUMP JUMPDEST PUSH1 0x0 PUSH2 0x2FC3 PUSH1 0x21 DUP4 PUSH2 0x2A27 JUMP JUMPDEST SWAP2 POP PUSH2 0x2FCE DUP3 PUSH2 0x2F67 JUMP JUMPDEST PUSH1 0x40 DUP3 ADD SWAP1 POP SWAP2 SWAP1 POP JUMP JUMPDEST PUSH1 0x0 PUSH1 0x20 DUP3 ADD SWAP1 POP DUP2 DUP2 SUB PUSH1 0x0 DUP4 ADD MSTORE PUSH2 0x2FF2 DUP2 PUSH2 0x2FB6 JUMP JUMPDEST SWAP1 POP SWAP2 SWAP1 POP JUMP JUMPDEST PUSH32 0x4552433732313A20617070726F76652063616C6C6572206973206E6F7420746F PUSH1 0x0 DUP3 ADD MSTORE PUSH32 0x6B656E206F776E6572206F7220617070726F76656420666F7220616C6C000000 PUSH1 0x20 DUP3 ADD MSTORE POP JUMP JUMPDEST PUSH1 0x0 PUSH2 0x3055 PUSH1 0x3D DUP4 PUSH2 0x2A27 JUMP JUMPDEST SWAP2 POP PUSH2 0x3060 DUP3 PUSH2 0x2FF9 JUMP JUMPDEST PUSH1 0x40 DUP3 ADD SWAP1 POP SWAP2 SWAP1 POP JUMP JUMPDEST PUSH1 0x0 PUSH1 0x20 DUP3 ADD SWAP1 POP DUP2 DUP2 SUB PUSH1 0x0 DUP4 ADD MSTORE PUSH2 0x3084 DUP2 PUSH2 0x3048 JUMP JUMPDEST SWAP1 POP SWAP2 SWAP1 POP JUMP JUMPDEST PUSH32 0x4552433732313A2063616C6C6572206973206E6F7420746F6B656E206F776E65 PUSH1 0x0 DUP3 ADD MSTORE PUSH32 0x72206F7220617070726F76656400000000000000000000000000000000000000 PUSH1 0x20 DUP3 ADD MSTORE POP JUMP JUMPDEST PUSH1 0x0 PUSH2 0x30E7 PUSH1 0x2D DUP4 PUSH2 0x2A27 JUMP JUMPDEST SWAP2 POP PUSH2 0x30F2 DUP3 PUSH2 0x308B JUMP JUMPDEST PUSH1 0x40 DUP3 ADD SWAP1 POP SWAP2 SWAP1 POP JUMP JUMPDEST PUSH1 0x0 PUSH1 0x20 DUP3 ADD SWAP1 POP DUP2 DUP2 SUB PUSH1 0x0 DUP4 ADD MSTORE PUSH2 0x3116 DUP2 PUSH2 0x30DA JUMP JUMPDEST SWAP1 POP SWAP2 SWAP1 POP JUMP JUMPDEST PUSH32 0x455243373231456E756D657261626C653A206F776E657220696E646578206F75 PUSH1 0x0 DUP3 ADD MSTORE PUSH32 0x74206F6620626F756E6473000000000000000000000000000000000000000000 PUSH1 0x20 DUP3 ADD MSTORE POP JUMP JUMPDEST PUSH1 0x0 PUSH2 0x3179 PUSH1 0x2B DUP4 PUSH2 0x2A27 JUMP JUMPDEST SWAP2 POP PUSH2 0x3184 DUP3 PUSH2 0x311D JUMP JUMPDEST PUSH1 0x40 DUP3 ADD SWAP1 POP SWAP2 SWAP1 POP JUMP JUMPDEST PUSH1 0x0 PUSH1 0x20 DUP3 ADD SWAP1 POP DUP2 DUP2 SUB PUSH1 0x0 DUP4 ADD MSTORE PUSH2 0x31A8 DUP2 PUSH2 0x316C JUMP JUMPDEST SWAP1 POP SWAP2 SWAP1 POP JUMP JUMPDEST PUSH32 0x455243373231456E756D657261626C653A20676C6F62616C20696E646578206F PUSH1 0x0 DUP3 ADD MSTORE PUSH32 0x7574206F6620626F756E64730000000000000000000000000000000000000000 PUSH1 0x20 DUP3 ADD MSTORE POP JUMP JUMPDEST PUSH1 0x0 PUSH2 0x320B PUSH1 0x2C DUP4 PUSH2 0x2A27 JUMP JUMPDEST SWAP2 POP PUSH2 0x3216 DUP3 PUSH2 0x31AF JUMP JUMPDEST PUSH1 0x40 DUP3 ADD SWAP1 POP SWAP2 SWAP1 POP JUMP JUMPDEST PUSH1 0x0 PUSH1 0x20 DUP3 ADD SWAP1 POP DUP2 DUP2 SUB PUSH1 0x0 DUP4 ADD MSTORE PUSH2 0x323A DUP2 PUSH2 0x31FE JUMP JUMPDEST SWAP1 POP SWAP2 SWAP1 POP JUMP JUMPDEST PUSH32 0x4E487B7100000000000000000000000000000000000000000000000000000000 PUSH1 0x0 MSTORE PUSH1 0x32 PUSH1 0x4 MSTORE PUSH1 0x24 PUSH1 0x0 REVERT JUMPDEST PUSH32 0x4552433732313A20696E76616C696420746F6B656E2049440000000000000000 PUSH1 0x0 DUP3 ADD MSTORE POP JUMP JUMPDEST PUSH1 0x0 PUSH2 0x32A6 PUSH1 0x18 DUP4 PUSH2 0x2A27 JUMP JUMPDEST SWAP2 POP PUSH2 0x32B1 DUP3 PUSH2 0x3270 JUMP JUMPDEST PUSH1 0x20 DUP3 ADD SWAP1 POP SWAP2 SWAP1 POP JUMP JUMPDEST PUSH1 0x0 PUSH1 0x20 DUP3 ADD SWAP1 POP DUP2 DUP2 SUB PUSH1 0x0 DUP4 ADD MSTORE PUSH2 0x32D5 DUP2 PUSH2 0x3299 JUMP JUMPDEST SWAP1 POP SWAP2 SWAP1 POP JUMP JUMPDEST PUSH32 0x4552433732313A2061646472657373207A65726F206973206E6F742061207661 PUSH1 0x0 DUP3 ADD MSTORE PUSH32 0x6C6964206F776E65720000000000000000000000000000000000000000000000 PUSH1 0x20 DUP3 ADD MSTORE POP JUMP JUMPDEST PUSH1 0x0 PUSH2 0x3338 PUSH1 0x29 DUP4 PUSH2 0x2A27 JUMP JUMPDEST SWAP2 POP PUSH2 0x3343 DUP3 PUSH2 0x32DC JUMP JUMPDEST PUSH1 0x40 DUP3 ADD SWAP1 POP SWAP2 SWAP1 POP JUMP JUMPDEST PUSH1 0x0 PUSH1 0x20 DUP3 ADD SWAP1 POP DUP2 DUP2 SUB PUSH1 0x0 DUP4 ADD MSTORE PUSH2 0x3367 DUP2 PUSH2 0x332B JUMP JUMPDEST SWAP1 POP SWAP2 SWAP1 POP JUMP JUMPDEST PUSH2 0x3377 DUP2 PUSH2 0x2ACE JUMP JUMPDEST DUP3 MSTORE POP POP JUMP JUMPDEST PUSH1 0x0 PUSH1 0x20 DUP3 ADD SWAP1 POP PUSH2 0x3392 PUSH1 0x0 DUP4 ADD DUP5 PUSH2 0x336E JUMP JUMPDEST SWAP3 SWAP2 POP POP JUMP JUMPDEST PUSH1 0x5 DUP2 LT PUSH2 0x33A5 JUMPI PUSH1 0x0 DUP1 REVERT JUMPDEST POP JUMP JUMPDEST PUSH1 0x0 DUP2 MLOAD SWAP1 POP PUSH2 0x33B7 DUP2 PUSH2 0x3398 JUMP JUMPDEST SWAP3 SWAP2 POP POP JUMP JUMPDEST PUSH1 0x0 PUSH1 0x20 DUP3 DUP5 SUB SLT ISZERO PUSH2 0x33D3 JUMPI PUSH2 0x33D2 PUSH2 0x2957 JUMP JUMPDEST JUMPDEST PUSH1 0x0 PUSH2 0x33E1 DUP5 DUP3 DUP6 ADD PUSH2 0x33A8 JUMP JUMPDEST SWAP2 POP POP SWAP3 SWAP2 POP POP JUMP JUMPDEST PUSH32 0x4E487B7100000000000000000000000000000000000000000000000000000000 PUSH1 0x0 MSTORE PUSH1 0x21 PUSH1 0x4 MSTORE PUSH1 0x24 PUSH1 0x0 REVERT JUMPDEST PUSH32 0x496E76616C696420436C61737300000000000000000000000000000000000000 PUSH1 0x0 DUP3 ADD MSTORE POP JUMP JUMPDEST PUSH1 0x0 PUSH2 0x344F PUSH1 0xD DUP4 PUSH2 0x2A27 JUMP JUMPDEST SWAP2 POP PUSH2 0x345A DUP3 PUSH2 0x3419 JUMP JUMPDEST PUSH1 0x20 DUP3 ADD SWAP1 POP SWAP2 SWAP1 POP JUMP JUMPDEST PUSH1 0x0 PUSH1 0x20 DUP3 ADD SWAP1 POP DUP2 DUP2 SUB PUSH1 0x0 DUP4 ADD MSTORE PUSH2 0x347E DUP2 PUSH2 0x3442 JUMP JUMPDEST SWAP1 POP SWAP2 SWAP1 POP JUMP JUMPDEST PUSH1 0x0 DUP2 SWAP1 POP SWAP3 SWAP2 POP POP JUMP JUMPDEST PUSH1 0x0 PUSH2 0x349B DUP3 PUSH2 0x2A1C JUMP JUMPDEST PUSH2 0x34A5 DUP2 DUP6 PUSH2 0x3485 JUMP JUMPDEST SWAP4 POP PUSH2 0x34B5 DUP2 DUP6 PUSH1 0x20 DUP7 ADD PUSH2 0x2A38 JUMP JUMPDEST DUP1 DUP5 ADD SWAP2 POP POP SWAP3 SWAP2 POP POP JUMP JUMPDEST PUSH32 0x2F00000000000000000000000000000000000000000000000000000000000000 PUSH1 0x0 DUP3 ADD MSTORE POP JUMP JUMPDEST PUSH1 0x0 PUSH2 0x34F7 PUSH1 0x1 DUP4 PUSH2 0x3485 JUMP JUMPDEST SWAP2 POP PUSH2 0x3502 DUP3 PUSH2 0x34C1 JUMP JUMPDEST PUSH1 0x1 DUP3 ADD SWAP1 POP SWAP2 SWAP1 POP JUMP JUMPDEST PUSH32 0x2E6A736F6E000000000000000000000000000000000000000000000000000000 PUSH1 0x0 DUP3 ADD MSTORE POP JUMP JUMPDEST PUSH1 0x0 PUSH2 0x3543 PUSH1 0x5 DUP4 PUSH2 0x3485 JUMP JUMPDEST SWAP2 POP PUSH2 0x354E DUP3 PUSH2 0x350D JUMP JUMPDEST PUSH1 0x5 DUP3 ADD SWAP1 POP SWAP2 SWAP1 POP JUMP JUMPDEST PUSH1 0x0 PUSH2 0x3565 DUP3 DUP7 PUSH2 0x3490 JUMP JUMPDEST SWAP2 POP PUSH2 0x3571 DUP3 DUP6 PUSH2 0x3490 JUMP JUMPDEST SWAP2 POP PUSH2 0x357C DUP3 PUSH2 0x34EA JUMP JUMPDEST SWAP2 POP PUSH2 0x3588 DUP3 DUP5 PUSH2 0x3490 JUMP JUMPDEST SWAP2 POP PUSH2 0x3593 DUP3 PUSH2 0x3536 JUMP JUMPDEST SWAP2 POP DUP2 SWAP1 POP SWAP5 SWAP4 POP POP POP POP JUMP JUMPDEST PUSH32 0x4F776E61626C653A206E6577206F776E657220697320746865207A65726F2061 PUSH1 0x0 DUP3 ADD MSTORE PUSH32 0x6464726573730000000000000000000000000000000000000000000000000000 PUSH1 0x20 DUP3 ADD MSTORE POP JUMP JUMPDEST PUSH1 0x0 PUSH2 0x35FC PUSH1 0x26 DUP4 PUSH2 0x2A27 JUMP JUMPDEST SWAP2 POP PUSH2 0x3607 DUP3 PUSH2 0x35A0 JUMP JUMPDEST PUSH1 0x40 DUP3 ADD SWAP1 POP SWAP2 SWAP1 POP JUMP JUMPDEST PUSH1 0x0 PUSH1 0x20 DUP3 ADD SWAP1 POP DUP2 DUP2 SUB PUSH1 0x0 DUP4 ADD MSTORE PUSH2 0x362B DUP2 PUSH2 0x35EF JUMP JUMPDEST SWAP1 POP SWAP2 SWAP1 POP JUMP JUMPDEST PUSH32 0x4E487B7100000000000000000000000000000000000000000000000000000000 PUSH1 0x0 MSTORE PUSH1 0x11 PUSH1 0x4 MSTORE PUSH1 0x24 PUSH1 0x0 REVERT JUMPDEST PUSH1 0x0 PUSH2 0x366C DUP3 PUSH2 0x2ACE JUMP JUMPDEST SWAP2 POP PUSH2 0x3677 DUP4 PUSH2 0x2ACE JUMP JUMPDEST SWAP3 POP DUP3 DUP3 SUB SWAP1 POP DUP2 DUP2 GT ISZERO PUSH2 0x368F JUMPI PUSH2 0x368E PUSH2 0x3632 JUMP JUMPDEST JUMPDEST SWAP3 SWAP2 POP POP JUMP JUMPDEST PUSH1 0x0 PUSH2 0x36A0 DUP3 PUSH2 0x2ACE JUMP JUMPDEST SWAP2 POP PUSH2 0x36AB DUP4 PUSH2 0x2ACE JUMP JUMPDEST SWAP3 POP DUP3 DUP3 ADD SWAP1 POP DUP1 DUP3 GT ISZERO PUSH2 0x36C3 JUMPI PUSH2 0x36C2 PUSH2 0x3632 JUMP JUMPDEST JUMPDEST SWAP3 SWAP2 POP POP JUMP JUMPDEST PUSH1 0x0 PUSH2 0x36D4 DUP3 PUSH2 0x2ACE JUMP JUMPDEST SWAP2 POP PUSH32 0xFFFFFFFFFFFFFFFFFFFFFFFFFFFFFFFFFFFFFFFFFFFFFFFFFFFFFFFFFFFFFFFF DUP3 SUB PUSH2 0x3706 JUMPI PUSH2 0x3705 PUSH2 0x3632 JUMP JUMPDEST JUMPDEST PUSH1 0x1 DUP3 ADD SWAP1 POP SWAP2 SWAP1 POP JUMP JUMPDEST PUSH32 0x4552433732313A207472616E736665722066726F6D20696E636F727265637420 PUSH1 0x0 DUP3 ADD MSTORE PUSH32 0x6F776E6572000000000000000000000000000000000000000000000000000000 PUSH1 0x20 DUP3 ADD MSTORE POP JUMP JUMPDEST PUSH1 0x0 PUSH2 0x376D PUSH1 0x25 DUP4 PUSH2 0x2A27 JUMP JUMPDEST SWAP2 POP PUSH2 0x3778 DUP3 PUSH2 0x3711 JUMP JUMPDEST PUSH1 0x40 DUP3 ADD SWAP1 POP SWAP2 SWAP1 POP JUMP JUMPDEST PUSH1 0x0 PUSH1 0x20 DUP3 ADD SWAP1 POP DUP2 DUP2 SUB PUSH1 0x0 DUP4 ADD MSTORE PUSH2 0x379C DUP2 PUSH2 0x3760 JUMP JUMPDEST SWAP1 POP SWAP2 SWAP1 POP JUMP JUMPDEST PUSH32 0x4552433732313A207472616E7366657220746F20746865207A65726F20616464 PUSH1 0x0 DUP3 ADD MSTORE PUSH32 0x7265737300000000000000000000000000000000000000000000000000000000 PUSH1 0x20 DUP3 ADD MSTORE POP JUMP JUMPDEST PUSH1 0x0 PUSH2 0x37FF PUSH1 0x24 DUP4 PUSH2 0x2A27 JUMP JUMPDEST SWAP2 POP PUSH2 0x380A DUP3 PUSH2 0x37A3 JUMP JUMPDEST PUSH1 0x40 DUP3 ADD SWAP1 POP SWAP2 SWAP1 POP JUMP JUMPDEST PUSH1 0x0 PUSH1 0x20 DUP3 ADD SWAP1 POP DUP2 DUP2 SUB PUSH1 0x0 DUP4 ADD MSTORE PUSH2 0x382E DUP2 PUSH2 0x37F2 JUMP JUMPDEST SWAP1 POP SWAP2 SWAP1 POP JUMP JUMPDEST PUSH32 0x4F776E61626C653A2063616C6C6572206973206E6F7420746865206F776E6572 PUSH1 0x0 DUP3 ADD MSTORE POP JUMP JUMPDEST PUSH1 0x0 PUSH2 0x386B PUSH1 0x20 DUP4 PUSH2 0x2A27 JUMP JUMPDEST SWAP2 POP PUSH2 0x3876 DUP3 PUSH2 0x3835 JUMP JUMPDEST PUSH1 0x20 DUP3 ADD SWAP1 POP SWAP2 SWAP1 POP JUMP JUMPDEST PUSH1 0x0 PUSH1 0x20 DUP3 ADD SWAP1 POP DUP2 DUP2 SUB PUSH1 0x0 DUP4 ADD MSTORE PUSH2 0x389A DUP2 PUSH2 0x385E JUMP JUMPDEST SWAP1 POP SWAP2 SWAP1 POP JUMP JUMPDEST PUSH32 0x4552433732313A20617070726F766520746F2063616C6C657200000000000000 PUSH1 0x0 DUP3 ADD MSTORE POP JUMP JUMPDEST PUSH1 0x0 PUSH2 0x38D7 PUSH1 0x19 DUP4 PUSH2 0x2A27 JUMP JUMPDEST SWAP2 POP PUSH2 0x38E2 DUP3 PUSH2 0x38A1 JUMP JUMPDEST PUSH1 0x20 DUP3 ADD SWAP1 POP SWAP2 SWAP1 POP JUMP JUMPDEST PUSH1 0x0 PUSH1 0x20 DUP3 ADD SWAP1 POP DUP2 DUP2 SUB PUSH1 0x0 DUP4 ADD MSTORE PUSH2 0x3906 DUP2 PUSH2 0x38CA JUMP JUMPDEST SWAP1 POP SWAP2 SWAP1 POP JUMP JUMPDEST PUSH32 0x4552433732313A207472616E7366657220746F206E6F6E204552433732315265 PUSH1 0x0 DUP3 ADD MSTORE PUSH32 0x63656976657220696D706C656D656E7465720000000000000000000000000000 PUSH1 0x20 DUP3 ADD MSTORE POP JUMP JUMPDEST PUSH1 0x0 PUSH2 0x3969 PUSH1 0x32 DUP4 PUSH2 0x2A27 JUMP JUMPDEST SWAP2 POP PUSH2 0x3974 DUP3 PUSH2 0x390D JUMP JUMPDEST PUSH1 0x40 DUP3 ADD SWAP1 POP SWAP2 SWAP1 POP JUMP JUMPDEST PUSH1 0x0 PUSH1 0x20 DUP3 ADD SWAP1 POP DUP2 DUP2 SUB PUSH1 0x0 DUP4 ADD MSTORE PUSH2 0x3998 DUP2 PUSH2 0x395C JUMP JUMPDEST SWAP1 POP SWAP2 SWAP1 POP JUMP JUMPDEST PUSH32 0x4E487B7100000000000000000000000000000000000000000000000000000000 PUSH1 0x0 MSTORE PUSH1 0x12 PUSH1 0x4 MSTORE PUSH1 0x24 PUSH1 0x0 REVERT JUMPDEST PUSH32 0x5061757361626C653A206E6F7420706175736564000000000000000000000000 PUSH1 0x0 DUP3 ADD MSTORE POP JUMP JUMPDEST PUSH1 0x0 PUSH2 0x3A04 PUSH1 0x14 DUP4 PUSH2 0x2A27 JUMP JUMPDEST SWAP2 POP PUSH2 0x3A0F DUP3 PUSH2 0x39CE JUMP JUMPDEST PUSH1 0x20 DUP3 ADD SWAP1 POP SWAP2 SWAP1 POP JUMP JUMPDEST PUSH1 0x0 PUSH1 0x20 DUP3 ADD SWAP1 POP DUP2 DUP2 SUB PUSH1 0x0 DUP4 ADD MSTORE PUSH2 0x3A33 DUP2 PUSH2 0x39F7 JUMP JUMPDEST SWAP1 POP SWAP2 SWAP1 POP JUMP JUMPDEST PUSH32 0x5061757361626C653A2070617573656400000000000000000000000000000000 PUSH1 0x0 DUP3 ADD MSTORE POP JUMP JUMPDEST PUSH1 0x0 PUSH2 0x3A70 PUSH1 0x10 DUP4 PUSH2 0x2A27 JUMP JUMPDEST SWAP2 POP PUSH2 0x3A7B DUP3 PUSH2 0x3A3A JUMP JUMPDEST PUSH1 0x20 DUP3 ADD SWAP1 POP SWAP2 SWAP1 POP JUMP JUMPDEST PUSH1 0x0 PUSH1 0x20 DUP3 ADD SWAP1 POP DUP2 DUP2 SUB PUSH1 0x0 DUP4 ADD MSTORE PUSH2 0x3A9F DUP2 PUSH2 0x3A63 JUMP JUMPDEST SWAP1 POP SWAP2 SWAP1 POP JUMP JUMPDEST PUSH1 0x0 DUP2 MLOAD SWAP1 POP SWAP2 SWAP1 POP JUMP JUMPDEST PUSH1 0x0 DUP3 DUP3 MSTORE PUSH1 0x20 DUP3 ADD SWAP1 POP SWAP3 SWAP2 POP POP JUMP JUMPDEST PUSH1 0x0 PUSH2 0x3ACD DUP3 PUSH2 0x3AA6 JUMP JUMPDEST PUSH2 0x3AD7 DUP2 DUP6 PUSH2 0x3AB1 JUMP JUMPDEST SWAP4 POP PUSH2 0x3AE7 DUP2 DUP6 PUSH1 0x20 DUP7 ADD PUSH2 0x2A38 JUMP JUMPDEST PUSH2 0x3AF0 DUP2 PUSH2 0x2A62 JUMP JUMPDEST DUP5 ADD SWAP2 POP POP SWAP3 SWAP2 POP POP JUMP JUMPDEST PUSH1 0x0 PUSH1 0x80 DUP3 ADD SWAP1 POP PUSH2 0x3B10 PUSH1 0x0 DUP4 ADD DUP8 PUSH2 0x2B63 JUMP JUMPDEST PUSH2 0x3B1D PUSH1 0x20 DUP4 ADD DUP7 PUSH2 0x2B63 JUMP JUMPDEST PUSH2 0x3B2A PUSH1 0x40 DUP4 ADD DUP6 PUSH2 0x2BF9 JUMP JUMPDEST DUP2 DUP2 SUB PUSH1 0x60 DUP4 ADD MSTORE PUSH2 0x3B3C DUP2 DUP5 PUSH2 0x3AC2 JUMP JUMPDEST SWAP1 POP SWAP6 SWAP5 POP POP POP POP POP JUMP JUMPDEST PUSH1 0x0 DUP2 MLOAD SWAP1 POP PUSH2 0x3B56 DUP2 PUSH2 0x298D JUMP JUMPDEST SWAP3 SWAP2 POP POP JUMP JUMPDEST PUSH1 0x0 PUSH1 0x20 DUP3 DUP5 SUB SLT ISZERO PUSH2 0x3B72 JUMPI PUSH2 0x3B71 PUSH2 0x2957 JUMP JUMPDEST JUMPDEST PUSH1 0x0 PUSH2 0x3B80 DUP5 DUP3 DUP6 ADD PUSH2 0x3B47 JUMP JUMPDEST SWAP2 POP POP SWAP3 SWAP2 POP POP JUMP JUMPDEST PUSH32 0x455243373231456E756D657261626C653A20636F6E7365637574697665207472 PUSH1 0x0 DUP3 ADD MSTORE PUSH32 0x616E7366657273206E6F7420737570706F727465640000000000000000000000 PUSH1 0x20 DUP3 ADD MSTORE POP JUMP JUMPDEST PUSH1 0x0 PUSH2 0x3BE5 PUSH1 0x35 DUP4 PUSH2 0x2A27 JUMP JUMPDEST SWAP2 POP PUSH2 0x3BF0 DUP3 PUSH2 0x3B89 JUMP JUMPDEST PUSH1 0x40 DUP3 ADD SWAP1 POP SWAP2 SWAP1 POP JUMP JUMPDEST PUSH1 0x0 PUSH1 0x20 DUP3 ADD SWAP1 POP DUP2 DUP2 SUB PUSH1 0x0 DUP4 ADD MSTORE PUSH2 0x3C14 DUP2 PUSH2 0x3BD8 JUMP JUMPDEST SWAP1 POP SWAP2 SWAP1 POP JUMP JUMPDEST PUSH32 0x4552433732313A206D696E7420746F20746865207A65726F2061646472657373 PUSH1 0x0 DUP3 ADD MSTORE POP JUMP JUMPDEST PUSH1 0x0 PUSH2 0x3C51 PUSH1 0x20 DUP4 PUSH2 0x2A27 JUMP JUMPDEST SWAP2 POP PUSH2 0x3C5C DUP3 PUSH2 0x3C1B JUMP JUMPDEST PUSH1 0x20 DUP3 ADD SWAP1 POP SWAP2 SWAP1 POP JUMP JUMPDEST PUSH1 0x0 PUSH1 0x20 DUP3 ADD SWAP1 POP DUP2 DUP2 SUB PUSH1 0x0 DUP4 ADD MSTORE PUSH2 0x3C80 DUP2 PUSH2 0x3C44 JUMP JUMPDEST SWAP1 POP SWAP2 SWAP1 POP JUMP JUMPDEST PUSH32 0x4552433732313A20746F6B656E20616C7265616479206D696E74656400000000 PUSH1 0x0 DUP3 ADD MSTORE POP JUMP JUMPDEST PUSH1 0x0 PUSH2 0x3CBD PUSH1 0x1C DUP4 PUSH2 0x2A27 JUMP JUMPDEST SWAP2 POP PUSH2 0x3CC8 DUP3 PUSH2 0x3C87 JUMP JUMPDEST PUSH1 0x20 DUP3 ADD SWAP1 POP SWAP2 SWAP1 POP JUMP JUMPDEST PUSH1 0x0 PUSH1 0x20 DUP3 ADD SWAP1 POP DUP2 DUP2 SUB PUSH1 0x0 DUP4 ADD MSTORE PUSH2 0x3CEC DUP2 PUSH2 0x3CB0 JUMP JUMPDEST SWAP1 POP SWAP2 SWAP1 POP JUMP JUMPDEST PUSH32 0x4E487B7100000000000000000000000000000000000000000000000000000000 PUSH1 0x0 MSTORE PUSH1 0x31 PUSH1 0x4 MSTORE PUSH1 0x24 PUSH1 0x0 REVERT INVALID LOG2 PUSH5 0x6970667358 0x22 SLT KECCAK256 0xBB 0x29 SUB DUP11 DUP10 0xC6 GASLIMIT SWAP15 DELEGATECALL SLT PUSH10 0x55E330B8527A04A2E0E 0x4E 0x4A 0xAC 0xBB SUB 0xCD EXTCODEHASH 0xA5 DUP15 PUSH3 0x886473 PUSH16 0x6C634300081300330000000000000000 "
		},
		"gasEstimates": {
			"creation": {
				"codeDepositCost": "3140800",
				"executionCost": "infinite",
				"totalCost": "infinite"
			},
			"external": {
				"addAuthorizedContract(address)": "27237",
				"approve(address,uint256)": "infinite",
				"balanceOf(address)": "2944",
				"burn(uint256)": "infinite",
				"getApproved(uint256)": "5300",
				"isApprovedForAll(address,address)": "infinite",
				"name()": "infinite",
				"owner()": "2639",
				"ownerOf(uint256)": "3045",
				"pause()": "infinite",
				"paused()": "2590",
				"renounceOwnership()": "30638",
				"safeBatchMint(address,uint256)": "infinite",
				"safeMint(address)": "infinite",
				"safeMint(address,uint256)": "infinite",
				"safeTransferFrom(address,address,uint256)": "infinite",
				"safeTransferFrom(address,address,uint256,bytes)": "infinite",
				"setApprovalForAll(address,bool)": "infinite",
				"supportsInterface(bytes4)": "929",
				"symbol()": "infinite",
				"tokenByIndex(uint256)": "infinite",
				"tokenOfOwnerByIndex(address,uint256)": "infinite",
				"tokenURI(uint256)": "infinite",
				"totalSupply()": "2557",
				"transferFrom(address,address,uint256)": "infinite",
				"transferOwnership(address)": "30982",
				"unpause()": "infinite"
			},
			"internal": {
				"_baseURI()": "infinite",
				"_beforeTokenTransfer(address,address,uint256,uint256)": "infinite",
				"_burn(uint256)": "infinite"
			}
		},
		"methodIdentifiers": {
			"addAuthorizedContract(address)": "98eaa4a7",
			"approve(address,uint256)": "095ea7b3",
			"balanceOf(address)": "70a08231",
			"burn(uint256)": "42966c68",
			"getApproved(uint256)": "081812fc",
			"isApprovedForAll(address,address)": "e985e9c5",
			"name()": "06fdde03",
			"owner()": "8da5cb5b",
			"ownerOf(uint256)": "6352211e",
			"pause()": "8456cb59",
			"paused()": "5c975abb",
			"renounceOwnership()": "715018a6",
			"safeBatchMint(address,uint256)": "f9f49952",
			"safeMint(address)": "40d097c3",
			"safeMint(address,uint256)": "a1448194",
			"safeTransferFrom(address,address,uint256)": "42842e0e",
			"safeTransferFrom(address,address,uint256,bytes)": "b88d4fde",
			"setApprovalForAll(address,bool)": "a22cb465",
			"supportsInterface(bytes4)": "01ffc9a7",
			"symbol()": "95d89b41",
			"tokenByIndex(uint256)": "4f6ccce7",
			"tokenOfOwnerByIndex(address,uint256)": "2f745c59",
			"tokenURI(uint256)": "c87b56dd",
			"totalSupply()": "18160ddd",
			"transferFrom(address,address,uint256)": "23b872dd",
			"transferOwnership(address)": "f2fde38b",
			"unpause()": "3f4ba83a"
		}
	},
	"abi": [
		{
			"inputs": [],
			"stateMutability": "nonpayable",
			"type": "constructor"
		},
		{
			"anonymous": false,
			"inputs": [
				{
					"indexed": true,
					"internalType": "address",
					"name": "owner",
					"type": "address"
				},
				{
					"indexed": true,
					"internalType": "address",
					"name": "approved",
					"type": "address"
				},
				{
					"indexed": true,
					"internalType": "uint256",
					"name": "tokenId",
					"type": "uint256"
				}
			],
			"name": "Approval",
			"type": "event"
		},
		{
			"anonymous": false,
			"inputs": [
				{
					"indexed": true,
					"internalType": "address",
					"name": "owner",
					"type": "address"
				},
				{
					"indexed": true,
					"internalType": "address",
					"name": "operator",
					"type": "address"
				},
				{
					"indexed": false,
					"internalType": "bool",
					"name": "approved",
					"type": "bool"
				}
			],
			"name": "ApprovalForAll",
			"type": "event"
		},
		{
			"anonymous": false,
			"inputs": [
				{
					"indexed": true,
					"internalType": "address",
					"name": "previousOwner",
					"type": "address"
				},
				{
					"indexed": true,
					"internalType": "address",
					"name": "newOwner",
					"type": "address"
				}
			],
			"name": "OwnershipTransferred",
			"type": "event"
		},
		{
			"anonymous": false,
			"inputs": [
				{
					"indexed": false,
					"internalType": "address",
					"name": "account",
					"type": "address"
				}
			],
			"name": "Paused",
			"type": "event"
		},
		{
			"anonymous": false,
			"inputs": [
				{
					"indexed": true,
					"internalType": "address",
					"name": "from",
					"type": "address"
				},
				{
					"indexed": true,
					"internalType": "address",
					"name": "to",
					"type": "address"
				},
				{
					"indexed": true,
					"internalType": "uint256",
					"name": "tokenId",
					"type": "uint256"
				}
			],
			"name": "Transfer",
			"type": "event"
		},
		{
			"anonymous": false,
			"inputs": [
				{
					"indexed": false,
					"internalType": "address",
					"name": "account",
					"type": "address"
				}
			],
			"name": "Unpaused",
			"type": "event"
		},
		{
			"inputs": [
				{
					"internalType": "address",
					"name": "contractAddress",
					"type": "address"
				}
			],
			"name": "addAuthorizedContract",
			"outputs": [],
			"stateMutability": "nonpayable",
			"type": "function"
		},
		{
			"inputs": [
				{
					"internalType": "address",
					"name": "to",
					"type": "address"
				},
				{
					"internalType": "uint256",
					"name": "tokenId",
					"type": "uint256"
				}
			],
			"name": "approve",
			"outputs": [],
			"stateMutability": "nonpayable",
			"type": "function"
		},
		{
			"inputs": [
				{
					"internalType": "address",
					"name": "owner",
					"type": "address"
				}
			],
			"name": "balanceOf",
			"outputs": [
				{
					"internalType": "uint256",
					"name": "",
					"type": "uint256"
				}
			],
			"stateMutability": "view",
			"type": "function"
		},
		{
			"inputs": [
				{
					"internalType": "uint256",
					"name": "tokenId",
					"type": "uint256"
				}
			],
			"name": "burn",
			"outputs": [],
			"stateMutability": "nonpayable",
			"type": "function"
		},
		{
			"inputs": [
				{
					"internalType": "uint256",
					"name": "tokenId",
					"type": "uint256"
				}
			],
			"name": "getApproved",
			"outputs": [
				{
					"internalType": "address",
					"name": "",
					"type": "address"
				}
			],
			"stateMutability": "view",
			"type": "function"
		},
		{
			"inputs": [
				{
					"internalType": "address",
					"name": "owner",
					"type": "address"
				},
				{
					"internalType": "address",
					"name": "operator",
					"type": "address"
				}
			],
			"name": "isApprovedForAll",
			"outputs": [
				{
					"internalType": "bool",
					"name": "",
					"type": "bool"
				}
			],
			"stateMutability": "view",
			"type": "function"
		},
		{
			"inputs": [],
			"name": "name",
			"outputs": [
				{
					"internalType": "string",
					"name": "",
					"type": "string"
				}
			],
			"stateMutability": "view",
			"type": "function"
		},
		{
			"inputs": [],
			"name": "owner",
			"outputs": [
				{
					"internalType": "address",
					"name": "",
					"type": "address"
				}
			],
			"stateMutability": "view",
			"type": "function"
		},
		{
			"inputs": [
				{
					"internalType": "uint256",
					"name": "tokenId",
					"type": "uint256"
				}
			],
			"name": "ownerOf",
			"outputs": [
				{
					"internalType": "address",
					"name": "",
					"type": "address"
				}
			],
			"stateMutability": "view",
			"type": "function"
		},
		{
			"inputs": [],
			"name": "pause",
			"outputs": [],
			"stateMutability": "nonpayable",
			"type": "function"
		},
		{
			"inputs": [],
			"name": "paused",
			"outputs": [
				{
					"internalType": "bool",
					"name": "",
					"type": "bool"
				}
			],
			"stateMutability": "view",
			"type": "function"
		},
		{
			"inputs": [],
			"name": "renounceOwnership",
			"outputs": [],
			"stateMutability": "nonpayable",
			"type": "function"
		},
		{
			"inputs": [
				{
					"internalType": "address",
					"name": "to",
					"type": "address"
				},
				{
					"internalType": "uint256",
					"name": "tokensToMint",
					"type": "uint256"
				}
			],
			"name": "safeBatchMint",
			"outputs": [],
			"stateMutability": "nonpayable",
			"type": "function"
		},
		{
			"inputs": [
				{
					"internalType": "address",
					"name": "to",
					"type": "address"
				}
			],
			"name": "safeMint",
			"outputs": [],
			"stateMutability": "nonpayable",
			"type": "function"
		},
		{
			"inputs": [
				{
					"internalType": "address",
					"name": "to",
					"type": "address"
				},
				{
					"internalType": "uint256",
					"name": "tokenID",
					"type": "uint256"
				}
			],
			"name": "safeMint",
			"outputs": [],
			"stateMutability": "nonpayable",
			"type": "function"
		},
		{
			"inputs": [
				{
					"internalType": "address",
					"name": "from",
					"type": "address"
				},
				{
					"internalType": "address",
					"name": "to",
					"type": "address"
				},
				{
					"internalType": "uint256",
					"name": "tokenId",
					"type": "uint256"
				}
			],
			"name": "safeTransferFrom",
			"outputs": [],
			"stateMutability": "nonpayable",
			"type": "function"
		},
		{
			"inputs": [
				{
					"internalType": "address",
					"name": "from",
					"type": "address"
				},
				{
					"internalType": "address",
					"name": "to",
					"type": "address"
				},
				{
					"internalType": "uint256",
					"name": "tokenId",
					"type": "uint256"
				},
				{
					"internalType": "bytes",
					"name": "data",
					"type": "bytes"
				}
			],
			"name": "safeTransferFrom",
			"outputs": [],
			"stateMutability": "nonpayable",
			"type": "function"
		},
		{
			"inputs": [
				{
					"internalType": "address",
					"name": "operator",
					"type": "address"
				},
				{
					"internalType": "bool",
					"name": "approved",
					"type": "bool"
				}
			],
			"name": "setApprovalForAll",
			"outputs": [],
			"stateMutability": "nonpayable",
			"type": "function"
		},
		{
			"inputs": [
				{
					"internalType": "bytes4",
					"name": "interfaceId",
					"type": "bytes4"
				}
			],
			"name": "supportsInterface",
			"outputs": [
				{
					"internalType": "bool",
					"name": "",
					"type": "bool"
				}
			],
			"stateMutability": "view",
			"type": "function"
		},
		{
			"inputs": [],
			"name": "symbol",
			"outputs": [
				{
					"internalType": "string",
					"name": "",
					"type": "string"
				}
			],
			"stateMutability": "view",
			"type": "function"
		},
		{
			"inputs": [
				{
					"internalType": "uint256",
					"name": "index",
					"type": "uint256"
				}
			],
			"name": "tokenByIndex",
			"outputs": [
				{
					"internalType": "uint256",
					"name": "",
					"type": "uint256"
				}
			],
			"stateMutability": "view",
			"type": "function"
		},
		{
			"inputs": [
				{
					"internalType": "address",
					"name": "owner",
					"type": "address"
				},
				{
					"internalType": "uint256",
					"name": "index",
					"type": "uint256"
				}
			],
			"name": "tokenOfOwnerByIndex",
			"outputs": [
				{
					"internalType": "uint256",
					"name": "",
					"type": "uint256"
				}
			],
			"stateMutability": "view",
			"type": "function"
		},
		{
			"inputs": [
				{
					"internalType": "uint256",
					"name": "tokenId",
					"type": "uint256"
				}
			],
			"name": "tokenURI",
			"outputs": [
				{
					"internalType": "string",
					"name": "uri",
					"type": "string"
				}
			],
			"stateMutability": "view",
			"type": "function"
		},
		{
			"inputs": [],
			"name": "totalSupply",
			"outputs": [
				{
					"internalType": "uint256",
					"name": "",
					"type": "uint256"
				}
			],
			"stateMutability": "view",
			"type": "function"
		},
		{
			"inputs": [
				{
					"internalType": "address",
					"name": "from",
					"type": "address"
				},
				{
					"internalType": "address",
					"name": "to",
					"type": "address"
				},
				{
					"internalType": "uint256",
					"name": "tokenId",
					"type": "uint256"
				}
			],
			"name": "transferFrom",
			"outputs": [],
			"stateMutability": "nonpayable",
			"type": "function"
		},
		{
			"inputs": [
				{
					"internalType": "address",
					"name": "newOwner",
					"type": "address"
				}
			],
			"name": "transferOwnership",
			"outputs": [],
			"stateMutability": "nonpayable",
			"type": "function"
		},
		{
			"inputs": [],
			"name": "unpause",
			"outputs": [],
			"stateMutability": "nonpayable",
			"type": "function"
		}
	]
}