{
	"data": {
		"bytecode": {
			"linkReferences": {},
			"object": "60806040523480156200001157600080fd5b506040516200165a3803806200165a833981810160405281019062000037919062000217565b620000576200004b620000e160201b60201c565b620000e960201b60201c565b81600160006101000a81548173ffffffffffffffffffffffffffffffffffffffff021916908373ffffffffffffffffffffffffffffffffffffffff16021790555080600260006101000a81548173ffffffffffffffffffffffffffffffffffffffff021916908373ffffffffffffffffffffffffffffffffffffffff16021790555050506200025e565b600033905090565b60008060009054906101000a900473ffffffffffffffffffffffffffffffffffffffff169050816000806101000a81548173ffffffffffffffffffffffffffffffffffffffff021916908373ffffffffffffffffffffffffffffffffffffffff1602179055508173ffffffffffffffffffffffffffffffffffffffff168173ffffffffffffffffffffffffffffffffffffffff167f8be0079c531659141344cd1fd0a4f28419497f9722a3daafe3b4186f6b6457e060405160405180910390a35050565b600080fd5b600073ffffffffffffffffffffffffffffffffffffffff82169050919050565b6000620001df82620001b2565b9050919050565b620001f181620001d2565b8114620001fd57600080fd5b50565b6000815190506200021181620001e6565b92915050565b60008060408385031215620002315762000230620001ad565b5b6000620002418582860162000200565b9250506020620002548582860162000200565b9150509250929050565b6113ec806200026e6000396000f3fe608060405234801561001057600080fd5b50600436106101735760003560e01c80636352211e116100de578063a22cb46511610097578063d204c45e11610071578063d204c45e1461045a578063dc8e92ea14610476578063e985e9c514610492578063f2fde38b146104c257610173565b8063a22cb465146103f2578063b88d4fde1461040e578063c87b56dd1461042a57610173565b80636352211e1461033057806370a0823114610360578063715018a6146103905780637e88be601461039a5780638da5cb5b146103b657806395d89b41146103d457610173565b806323b872dd1161013057806323b872dd146102605780632f745c591461027c578063329cc83f146102ac57806342842e0e146102c857806342966c68146102e45780634f6ccce71461030057610173565b806301ffc9a71461017857806306fdde03146101a8578063081812fc146101c6578063095ea7b3146101f6578063150b7a021461021257806318160ddd14610242575b600080fd5b610192600480360381019061018d9190610ab1565b6104de565b60405161019f9190610af9565b60405180910390f35b6101b06104e5565b6040516101bd9190610ba4565b60405180910390f35b6101e060048036038101906101db9190610bfc565b610582565b6040516101ed9190610c6a565b60405180910390f35b610210600480360381019061020b9190610cb1565b610589565b005b61022c60048036038101906102279190610d56565b61058d565b6040516102399190610ded565b60405180910390f35b61024a610598565b6040516102579190610e17565b60405180910390f35b61027a60048036038101906102759190610e32565b610630565b005b61029660048036038101906102919190610cb1565b610635565b6040516102a39190610e17565b60405180910390f35b6102c660048036038101906102c19190610e85565b61063d565b005b6102e260048036038101906102dd9190610e32565b6106cd565b005b6102fe60048036038101906102f99190610bfc565b6106d2565b005b61031a60048036038101906103159190610bfc565b6106d5565b6040516103279190610e17565b60405180910390f35b61034a60048036038101906103459190610bfc565b6106dc565b6040516103579190610c6a565b60405180910390f35b61037a60048036038101906103759190610e85565b6106e3565b6040516103879190610e17565b60405180910390f35b6103986106ea565b005b6103b460048036038101906103af9190610e85565b6106fe565b005b6103be610701565b6040516103cb9190610c6a565b60405180910390f35b6103dc61072a565b6040516103e99190610ba4565b60405180910390f35b61040c60048036038101906104079190610ede565b6107c7565b005b61042860048036038101906104239190610d56565b6107cb565b005b610444600480360381019061043f9190610bfc565b6107d2565b6040516104519190610ba4565b60405180910390f35b610474600480360381019061046f919061104e565b6107d9565b005b610490600480360381019061048b9190611100565b61086c565b005b6104ac60048036038101906104a7919061114d565b610870565b6040516104b99190610af9565b60405180910390f35b6104dc60048036038101906104d79190610e85565b610878565b005b6000919050565b6060600160009054906101000a900473ffffffffffffffffffffffffffffffffffffffff1673ffffffffffffffffffffffffffffffffffffffff166306fdde036040518163ffffffff1660e01b8152600401600060405180830381865afa158015610554573d6000803e3d6000fd5b505050506040513d6000823e3d601f19601f8201168201806040525081019061057d91906111fd565b905090565b6000919050565b5050565b600095945050505050565b6000600160009054906101000a900473ffffffffffffffffffffffffffffffffffffffff1673ffffffffffffffffffffffffffffffffffffffff166318160ddd6040518163ffffffff1660e01b8152600401602060405180830381865afa158015610607573d6000803e3d6000fd5b505050506040513d601f19601f8201168201806040525081019061062b919061125b565b905090565b505050565b600092915050565b600260009054906101000a900473ffffffffffffffffffffffffffffffffffffffff1673ffffffffffffffffffffffffffffffffffffffff1663329cc83f826040518263ffffffff1660e01b81526004016106989190610c6a565b600060405180830381600087803b1580156106b257600080fd5b505af11580156106c6573d6000803e3d6000fd5b5050505050565b505050565b50565b6000919050565b6000919050565b6000919050565b6106f26108fb565b6106fc6000610979565b565b50565b60008060009054906101000a900473ffffffffffffffffffffffffffffffffffffffff16905090565b6060600160009054906101000a900473ffffffffffffffffffffffffffffffffffffffff1673ffffffffffffffffffffffffffffffffffffffff166395d89b416040518163ffffffff1660e01b8152600401600060405180830381865afa158015610799573d6000803e3d6000fd5b505050506040513d6000823e3d601f19601f820116820180604052508101906107c291906111fd565b905090565b5050565b5050505050565b6060919050565b600160009054906101000a900473ffffffffffffffffffffffffffffffffffffffff1673ffffffffffffffffffffffffffffffffffffffff1663d204c45e83836040518363ffffffff1660e01b8152600401610836929190611288565b600060405180830381600087803b15801561085057600080fd5b505af1158015610864573d6000803e3d6000fd5b505050505050565b5050565b600092915050565b6108806108fb565b600073ffffffffffffffffffffffffffffffffffffffff168173ffffffffffffffffffffffffffffffffffffffff16036108ef576040517f08c379a00000000000000000000000000000000000000000000000000000000081526004016108e69061132a565b60405180910390fd5b6108f881610979565b50565b610903610a3d565b73ffffffffffffffffffffffffffffffffffffffff16610921610701565b73ffffffffffffffffffffffffffffffffffffffff1614610977576040517f08c379a000000000000000000000000000000000000000000000000000000000815260040161096e90611396565b60405180910390fd5b565b60008060009054906101000a900473ffffffffffffffffffffffffffffffffffffffff169050816000806101000a81548173ffffffffffffffffffffffffffffffffffffffff021916908373ffffffffffffffffffffffffffffffffffffffff1602179055508173ffffffffffffffffffffffffffffffffffffffff168173ffffffffffffffffffffffffffffffffffffffff167f8be0079c531659141344cd1fd0a4f28419497f9722a3daafe3b4186f6b6457e060405160405180910390a35050565b600033905090565b6000604051905090565b600080fd5b600080fd5b60007fffffffff0000000000000000000000000000000000000000000000000000000082169050919050565b610a8e81610a59565b8114610a9957600080fd5b50565b600081359050610aab81610a85565b92915050565b600060208284031215610ac757610ac6610a4f565b5b6000610ad584828501610a9c565b91505092915050565b60008115159050919050565b610af381610ade565b82525050565b6000602082019050610b0e6000830184610aea565b92915050565b600081519050919050565b600082825260208201905092915050565b60005b83811015610b4e578082015181840152602081019050610b33565b60008484015250505050565b6000601f19601f8301169050919050565b6000610b7682610b14565b610b808185610b1f565b9350610b90818560208601610b30565b610b9981610b5a565b840191505092915050565b60006020820190508181036000830152610bbe8184610b6b565b905092915050565b6000819050919050565b610bd981610bc6565b8114610be457600080fd5b50565b600081359050610bf681610bd0565b92915050565b600060208284031215610c1257610c11610a4f565b5b6000610c2084828501610be7565b91505092915050565b600073ffffffffffffffffffffffffffffffffffffffff82169050919050565b6000610c5482610c29565b9050919050565b610c6481610c49565b82525050565b6000602082019050610c7f6000830184610c5b565b92915050565b610c8e81610c49565b8114610c9957600080fd5b50565b600081359050610cab81610c85565b92915050565b60008060408385031215610cc857610cc7610a4f565b5b6000610cd685828601610c9c565b9250506020610ce785828601610be7565b9150509250929050565b600080fd5b600080fd5b600080fd5b60008083601f840112610d1657610d15610cf1565b5b8235905067ffffffffffffffff811115610d3357610d32610cf6565b5b602083019150836001820283011115610d4f57610d4e610cfb565b5b9250929050565b600080600080600060808688031215610d7257610d71610a4f565b5b6000610d8088828901610c9c565b9550506020610d9188828901610c9c565b9450506040610da288828901610be7565b935050606086013567ffffffffffffffff811115610dc357610dc2610a54565b5b610dcf88828901610d00565b92509250509295509295909350565b610de781610a59565b82525050565b6000602082019050610e026000830184610dde565b92915050565b610e1181610bc6565b82525050565b6000602082019050610e2c6000830184610e08565b92915050565b600080600060608486031215610e4b57610e4a610a4f565b5b6000610e5986828701610c9c565b9350506020610e6a86828701610c9c565b9250506040610e7b86828701610be7565b9150509250925092565b600060208284031215610e9b57610e9a610a4f565b5b6000610ea984828501610c9c565b91505092915050565b610ebb81610ade565b8114610ec657600080fd5b50565b600081359050610ed881610eb2565b92915050565b60008060408385031215610ef557610ef4610a4f565b5b6000610f0385828601610c9c565b9250506020610f1485828601610ec9565b9150509250929050565b600080fd5b7f4e487b7100000000000000000000000000000000000000000000000000000000600052604160045260246000fd5b610f5b82610b5a565b810181811067ffffffffffffffff82111715610f7a57610f79610f23565b5b80604052505050565b6000610f8d610a45565b9050610f998282610f52565b919050565b600067ffffffffffffffff821115610fb957610fb8610f23565b5b610fc282610b5a565b9050602081019050919050565b82818337600083830152505050565b6000610ff1610fec84610f9e565b610f83565b90508281526020810184848401111561100d5761100c610f1e565b5b611018848285610fcf565b509392505050565b600082601f83011261103557611034610cf1565b5b8135611045848260208601610fde565b91505092915050565b6000806040838503121561106557611064610a4f565b5b600061107385828601610c9c565b925050602083013567ffffffffffffffff81111561109457611093610a54565b5b6110a085828601611020565b9150509250929050565b60008083601f8401126110c0576110bf610cf1565b5b8235905067ffffffffffffffff8111156110dd576110dc610cf6565b5b6020830191508360208202830111156110f9576110f8610cfb565b5b9250929050565b6000806020838503121561111757611116610a4f565b5b600083013567ffffffffffffffff81111561113557611134610a54565b5b611141858286016110aa565b92509250509250929050565b6000806040838503121561116457611163610a4f565b5b600061117285828601610c9c565b925050602061118385828601610c9c565b9150509250929050565b60006111a061119b84610f9e565b610f83565b9050828152602081018484840111156111bc576111bb610f1e565b5b6111c7848285610b30565b509392505050565b600082601f8301126111e4576111e3610cf1565b5b81516111f484826020860161118d565b91505092915050565b60006020828403121561121357611212610a4f565b5b600082015167ffffffffffffffff81111561123157611230610a54565b5b61123d848285016111cf565b91505092915050565b60008151905061125581610bd0565b92915050565b60006020828403121561127157611270610a4f565b5b600061127f84828501611246565b91505092915050565b600060408201905061129d6000830185610c5b565b81810360208301526112af8184610b6b565b90509392505050565b7f4f776e61626c653a206e6577206f776e657220697320746865207a65726f206160008201527f6464726573730000000000000000000000000000000000000000000000000000602082015250565b6000611314602683610b1f565b915061131f826112b8565b604082019050919050565b6000602082019050818103600083015261134381611307565b9050919050565b7f4f776e61626c653a2063616c6c6572206973206e6f7420746865206f776e6572600082015250565b6000611380602083610b1f565b915061138b8261134a565b602082019050919050565b600060208201905081810360008301526113af81611373565b905091905056fea2646970667358221220553e065b923e3494261c782e55fae39303839f99a4a97585632691cccae3669564736f6c63430008130033",
			"opcodes": "PUSH1 0x80 PUSH1 0x40 MSTORE CALLVALUE DUP1 ISZERO PUSH3 0x11 JUMPI PUSH1 0x0 DUP1 REVERT JUMPDEST POP PUSH1 0x40 MLOAD PUSH3 0x165A CODESIZE SUB DUP1 PUSH3 0x165A DUP4 CODECOPY DUP2 DUP2 ADD PUSH1 0x40 MSTORE DUP2 ADD SWAP1 PUSH3 0x37 SWAP2 SWAP1 PUSH3 0x217 JUMP JUMPDEST PUSH3 0x57 PUSH3 0x4B PUSH3 0xE1 PUSH1 0x20 SHL PUSH1 0x20 SHR JUMP JUMPDEST PUSH3 0xE9 PUSH1 0x20 SHL PUSH1 0x20 SHR JUMP JUMPDEST DUP2 PUSH1 0x1 PUSH1 0x0 PUSH2 0x100 EXP DUP2 SLOAD DUP2 PUSH20 0xFFFFFFFFFFFFFFFFFFFFFFFFFFFFFFFFFFFFFFFF MUL NOT AND SWAP1 DUP4 PUSH20 0xFFFFFFFFFFFFFFFFFFFFFFFFFFFFFFFFFFFFFFFF AND MUL OR SWAP1 SSTORE POP DUP1 PUSH1 0x2 PUSH1 0x0 PUSH2 0x100 EXP DUP2 SLOAD DUP2 PUSH20 0xFFFFFFFFFFFFFFFFFFFFFFFFFFFFFFFFFFFFFFFF MUL NOT AND SWAP1 DUP4 PUSH20 0xFFFFFFFFFFFFFFFFFFFFFFFFFFFFFFFFFFFFFFFF AND MUL OR SWAP1 SSTORE POP POP POP PUSH3 0x25E JUMP JUMPDEST PUSH1 0x0 CALLER SWAP1 POP SWAP1 JUMP JUMPDEST PUSH1 0x0 DUP1 PUSH1 0x0 SWAP1 SLOAD SWAP1 PUSH2 0x100 EXP SWAP1 DIV PUSH20 0xFFFFFFFFFFFFFFFFFFFFFFFFFFFFFFFFFFFFFFFF AND SWAP1 POP DUP2 PUSH1 0x0 DUP1 PUSH2 0x100 EXP DUP2 SLOAD DUP2 PUSH20 0xFFFFFFFFFFFFFFFFFFFFFFFFFFFFFFFFFFFFFFFF MUL NOT AND SWAP1 DUP4 PUSH20 0xFFFFFFFFFFFFFFFFFFFFFFFFFFFFFFFFFFFFFFFF AND MUL OR SWAP1 SSTORE POP DUP2 PUSH20 0xFFFFFFFFFFFFFFFFFFFFFFFFFFFFFFFFFFFFFFFF AND DUP2 PUSH20 0xFFFFFFFFFFFFFFFFFFFFFFFFFFFFFFFFFFFFFFFF AND PUSH32 0x8BE0079C531659141344CD1FD0A4F28419497F9722A3DAAFE3B4186F6B6457E0 PUSH1 0x40 MLOAD PUSH1 0x40 MLOAD DUP1 SWAP2 SUB SWAP1 LOG3 POP POP JUMP JUMPDEST PUSH1 0x0 DUP1 REVERT JUMPDEST PUSH1 0x0 PUSH20 0xFFFFFFFFFFFFFFFFFFFFFFFFFFFFFFFFFFFFFFFF DUP3 AND SWAP1 POP SWAP2 SWAP1 POP JUMP JUMPDEST PUSH1 0x0 PUSH3 0x1DF DUP3 PUSH3 0x1B2 JUMP JUMPDEST SWAP1 POP SWAP2 SWAP1 POP JUMP JUMPDEST PUSH3 0x1F1 DUP2 PUSH3 0x1D2 JUMP JUMPDEST DUP2 EQ PUSH3 0x1FD JUMPI PUSH1 0x0 DUP1 REVERT JUMPDEST POP JUMP JUMPDEST PUSH1 0x0 DUP2 MLOAD SWAP1 POP PUSH3 0x211 DUP2 PUSH3 0x1E6 JUMP JUMPDEST SWAP3 SWAP2 POP POP JUMP JUMPDEST PUSH1 0x0 DUP1 PUSH1 0x40 DUP4 DUP6 SUB SLT ISZERO PUSH3 0x231 JUMPI PUSH3 0x230 PUSH3 0x1AD JUMP JUMPDEST JUMPDEST PUSH1 0x0 PUSH3 0x241 DUP6 DUP3 DUP7 ADD PUSH3 0x200 JUMP JUMPDEST SWAP3 POP POP PUSH1 0x20 PUSH3 0x254 DUP6 DUP3 DUP7 ADD PUSH3 0x200 JUMP JUMPDEST SWAP2 POP POP SWAP3 POP SWAP3 SWAP1 POP JUMP JUMPDEST PUSH2 0x13EC DUP1 PUSH3 0x26E PUSH1 0x0 CODECOPY PUSH1 0x0 RETURN INVALID PUSH1 0x80 PUSH1 0x40 MSTORE CALLVALUE DUP1 ISZERO PUSH2 0x10 JUMPI PUSH1 0x0 DUP1 REVERT JUMPDEST POP PUSH1 0x4 CALLDATASIZE LT PUSH2 0x173 JUMPI PUSH1 0x0 CALLDATALOAD PUSH1 0xE0 SHR DUP1 PUSH4 0x6352211E GT PUSH2 0xDE JUMPI DUP1 PUSH4 0xA22CB465 GT PUSH2 0x97 JUMPI DUP1 PUSH4 0xD204C45E GT PUSH2 0x71 JUMPI DUP1 PUSH4 0xD204C45E EQ PUSH2 0x45A JUMPI DUP1 PUSH4 0xDC8E92EA EQ PUSH2 0x476 JUMPI DUP1 PUSH4 0xE985E9C5 EQ PUSH2 0x492 JUMPI DUP1 PUSH4 0xF2FDE38B EQ PUSH2 0x4C2 JUMPI PUSH2 0x173 JUMP JUMPDEST DUP1 PUSH4 0xA22CB465 EQ PUSH2 0x3F2 JUMPI DUP1 PUSH4 0xB88D4FDE EQ PUSH2 0x40E JUMPI DUP1 PUSH4 0xC87B56DD EQ PUSH2 0x42A JUMPI PUSH2 0x173 JUMP JUMPDEST DUP1 PUSH4 0x6352211E EQ PUSH2 0x330 JUMPI DUP1 PUSH4 0x70A08231 EQ PUSH2 0x360 JUMPI DUP1 PUSH4 0x715018A6 EQ PUSH2 0x390 JUMPI DUP1 PUSH4 0x7E88BE60 EQ PUSH2 0x39A JUMPI DUP1 PUSH4 0x8DA5CB5B EQ PUSH2 0x3B6 JUMPI DUP1 PUSH4 0x95D89B41 EQ PUSH2 0x3D4 JUMPI PUSH2 0x173 JUMP JUMPDEST DUP1 PUSH4 0x23B872DD GT PUSH2 0x130 JUMPI DUP1 PUSH4 0x23B872DD EQ PUSH2 0x260 JUMPI DUP1 PUSH4 0x2F745C59 EQ PUSH2 0x27C JUMPI DUP1 PUSH4 0x329CC83F EQ PUSH2 0x2AC JUMPI DUP1 PUSH4 0x42842E0E EQ PUSH2 0x2C8 JUMPI DUP1 PUSH4 0x42966C68 EQ PUSH2 0x2E4 JUMPI DUP1 PUSH4 0x4F6CCCE7 EQ PUSH2 0x300 JUMPI PUSH2 0x173 JUMP JUMPDEST DUP1 PUSH4 0x1FFC9A7 EQ PUSH2 0x178 JUMPI DUP1 PUSH4 0x6FDDE03 EQ PUSH2 0x1A8 JUMPI DUP1 PUSH4 0x81812FC EQ PUSH2 0x1C6 JUMPI DUP1 PUSH4 0x95EA7B3 EQ PUSH2 0x1F6 JUMPI DUP1 PUSH4 0x150B7A02 EQ PUSH2 0x212 JUMPI DUP1 PUSH4 0x18160DDD EQ PUSH2 0x242 JUMPI JUMPDEST PUSH1 0x0 DUP1 REVERT JUMPDEST PUSH2 0x192 PUSH1 0x4 DUP1 CALLDATASIZE SUB DUP2 ADD SWAP1 PUSH2 0x18D SWAP2 SWAP1 PUSH2 0xAB1 JUMP JUMPDEST PUSH2 0x4DE JUMP JUMPDEST PUSH1 0x40 MLOAD PUSH2 0x19F SWAP2 SWAP1 PUSH2 0xAF9 JUMP JUMPDEST PUSH1 0x40 MLOAD DUP1 SWAP2 SUB SWAP1 RETURN JUMPDEST PUSH2 0x1B0 PUSH2 0x4E5 JUMP JUMPDEST PUSH1 0x40 MLOAD PUSH2 0x1BD SWAP2 SWAP1 PUSH2 0xBA4 JUMP JUMPDEST PUSH1 0x40 MLOAD DUP1 SWAP2 SUB SWAP1 RETURN JUMPDEST PUSH2 0x1E0 PUSH1 0x4 DUP1 CALLDATASIZE SUB DUP2 ADD SWAP1 PUSH2 0x1DB SWAP2 SWAP1 PUSH2 0xBFC JUMP JUMPDEST PUSH2 0x582 JUMP JUMPDEST PUSH1 0x40 MLOAD PUSH2 0x1ED SWAP2 SWAP1 PUSH2 0xC6A JUMP JUMPDEST PUSH1 0x40 MLOAD DUP1 SWAP2 SUB SWAP1 RETURN JUMPDEST PUSH2 0x210 PUSH1 0x4 DUP1 CALLDATASIZE SUB DUP2 ADD SWAP1 PUSH2 0x20B SWAP2 SWAP1 PUSH2 0xCB1 JUMP JUMPDEST PUSH2 0x589 JUMP JUMPDEST STOP JUMPDEST PUSH2 0x22C PUSH1 0x4 DUP1 CALLDATASIZE SUB DUP2 ADD SWAP1 PUSH2 0x227 SWAP2 SWAP1 PUSH2 0xD56 JUMP JUMPDEST PUSH2 0x58D JUMP JUMPDEST PUSH1 0x40 MLOAD PUSH2 0x239 SWAP2 SWAP1 PUSH2 0xDED JUMP JUMPDEST PUSH1 0x40 MLOAD DUP1 SWAP2 SUB SWAP1 RETURN JUMPDEST PUSH2 0x24A PUSH2 0x598 JUMP JUMPDEST PUSH1 0x40 MLOAD PUSH2 0x257 SWAP2 SWAP1 PUSH2 0xE17 JUMP JUMPDEST PUSH1 0x40 MLOAD DUP1 SWAP2 SUB SWAP1 RETURN JUMPDEST PUSH2 0x27A PUSH1 0x4 DUP1 CALLDATASIZE SUB DUP2 ADD SWAP1 PUSH2 0x275 SWAP2 SWAP1 PUSH2 0xE32 JUMP JUMPDEST PUSH2 0x630 JUMP JUMPDEST STOP JUMPDEST PUSH2 0x296 PUSH1 0x4 DUP1 CALLDATASIZE SUB DUP2 ADD SWAP1 PUSH2 0x291 SWAP2 SWAP1 PUSH2 0xCB1 JUMP JUMPDEST PUSH2 0x635 JUMP JUMPDEST PUSH1 0x40 MLOAD PUSH2 0x2A3 SWAP2 SWAP1 PUSH2 0xE17 JUMP JUMPDEST PUSH1 0x40 MLOAD DUP1 SWAP2 SUB SWAP1 RETURN JUMPDEST PUSH2 0x2C6 PUSH1 0x4 DUP1 CALLDATASIZE SUB DUP2 ADD SWAP1 PUSH2 0x2C1 SWAP2 SWAP1 PUSH2 0xE85 JUMP JUMPDEST PUSH2 0x63D JUMP JUMPDEST STOP JUMPDEST PUSH2 0x2E2 PUSH1 0x4 DUP1 CALLDATASIZE SUB DUP2 ADD SWAP1 PUSH2 0x2DD SWAP2 SWAP1 PUSH2 0xE32 JUMP JUMPDEST PUSH2 0x6CD JUMP JUMPDEST STOP JUMPDEST PUSH2 0x2FE PUSH1 0x4 DUP1 CALLDATASIZE SUB DUP2 ADD SWAP1 PUSH2 0x2F9 SWAP2 SWAP1 PUSH2 0xBFC JUMP JUMPDEST PUSH2 0x6D2 JUMP JUMPDEST STOP JUMPDEST PUSH2 0x31A PUSH1 0x4 DUP1 CALLDATASIZE SUB DUP2 ADD SWAP1 PUSH2 0x315 SWAP2 SWAP1 PUSH2 0xBFC JUMP JUMPDEST PUSH2 0x6D5 JUMP JUMPDEST PUSH1 0x40 MLOAD PUSH2 0x327 SWAP2 SWAP1 PUSH2 0xE17 JUMP JUMPDEST PUSH1 0x40 MLOAD DUP1 SWAP2 SUB SWAP1 RETURN JUMPDEST PUSH2 0x34A PUSH1 0x4 DUP1 CALLDATASIZE SUB DUP2 ADD SWAP1 PUSH2 0x345 SWAP2 SWAP1 PUSH2 0xBFC JUMP JUMPDEST PUSH2 0x6DC JUMP JUMPDEST PUSH1 0x40 MLOAD PUSH2 0x357 SWAP2 SWAP1 PUSH2 0xC6A JUMP JUMPDEST PUSH1 0x40 MLOAD DUP1 SWAP2 SUB SWAP1 RETURN JUMPDEST PUSH2 0x37A PUSH1 0x4 DUP1 CALLDATASIZE SUB DUP2 ADD SWAP1 PUSH2 0x375 SWAP2 SWAP1 PUSH2 0xE85 JUMP JUMPDEST PUSH2 0x6E3 JUMP JUMPDEST PUSH1 0x40 MLOAD PUSH2 0x387 SWAP2 SWAP1 PUSH2 0xE17 JUMP JUMPDEST PUSH1 0x40 MLOAD DUP1 SWAP2 SUB SWAP1 RETURN JUMPDEST PUSH2 0x398 PUSH2 0x6EA JUMP JUMPDEST STOP JUMPDEST PUSH2 0x3B4 PUSH1 0x4 DUP1 CALLDATASIZE SUB DUP2 ADD SWAP1 PUSH2 0x3AF SWAP2 SWAP1 PUSH2 0xE85 JUMP JUMPDEST PUSH2 0x6FE JUMP JUMPDEST STOP JUMPDEST PUSH2 0x3BE PUSH2 0x701 JUMP JUMPDEST PUSH1 0x40 MLOAD PUSH2 0x3CB SWAP2 SWAP1 PUSH2 0xC6A JUMP JUMPDEST PUSH1 0x40 MLOAD DUP1 SWAP2 SUB SWAP1 RETURN JUMPDEST PUSH2 0x3DC PUSH2 0x72A JUMP JUMPDEST PUSH1 0x40 MLOAD PUSH2 0x3E9 SWAP2 SWAP1 PUSH2 0xBA4 JUMP JUMPDEST PUSH1 0x40 MLOAD DUP1 SWAP2 SUB SWAP1 RETURN JUMPDEST PUSH2 0x40C PUSH1 0x4 DUP1 CALLDATASIZE SUB DUP2 ADD SWAP1 PUSH2 0x407 SWAP2 SWAP1 PUSH2 0xEDE JUMP JUMPDEST PUSH2 0x7C7 JUMP JUMPDEST STOP JUMPDEST PUSH2 0x428 PUSH1 0x4 DUP1 CALLDATASIZE SUB DUP2 ADD SWAP1 PUSH2 0x423 SWAP2 SWAP1 PUSH2 0xD56 JUMP JUMPDEST PUSH2 0x7CB JUMP JUMPDEST STOP JUMPDEST PUSH2 0x444 PUSH1 0x4 DUP1 CALLDATASIZE SUB DUP2 ADD SWAP1 PUSH2 0x43F SWAP2 SWAP1 PUSH2 0xBFC JUMP JUMPDEST PUSH2 0x7D2 JUMP JUMPDEST PUSH1 0x40 MLOAD PUSH2 0x451 SWAP2 SWAP1 PUSH2 0xBA4 JUMP JUMPDEST PUSH1 0x40 MLOAD DUP1 SWAP2 SUB SWAP1 RETURN JUMPDEST PUSH2 0x474 PUSH1 0x4 DUP1 CALLDATASIZE SUB DUP2 ADD SWAP1 PUSH2 0x46F SWAP2 SWAP1 PUSH2 0x104E JUMP JUMPDEST PUSH2 0x7D9 JUMP JUMPDEST STOP JUMPDEST PUSH2 0x490 PUSH1 0x4 DUP1 CALLDATASIZE SUB DUP2 ADD SWAP1 PUSH2 0x48B SWAP2 SWAP1 PUSH2 0x1100 JUMP JUMPDEST PUSH2 0x86C JUMP JUMPDEST STOP JUMPDEST PUSH2 0x4AC PUSH1 0x4 DUP1 CALLDATASIZE SUB DUP2 ADD SWAP1 PUSH2 0x4A7 SWAP2 SWAP1 PUSH2 0x114D JUMP JUMPDEST PUSH2 0x870 JUMP JUMPDEST PUSH1 0x40 MLOAD PUSH2 0x4B9 SWAP2 SWAP1 PUSH2 0xAF9 JUMP JUMPDEST PUSH1 0x40 MLOAD DUP1 SWAP2 SUB SWAP1 RETURN JUMPDEST PUSH2 0x4DC PUSH1 0x4 DUP1 CALLDATASIZE SUB DUP2 ADD SWAP1 PUSH2 0x4D7 SWAP2 SWAP1 PUSH2 0xE85 JUMP JUMPDEST PUSH2 0x878 JUMP JUMPDEST STOP JUMPDEST PUSH1 0x0 SWAP2 SWAP1 POP JUMP JUMPDEST PUSH1 0x60 PUSH1 0x1 PUSH1 0x0 SWAP1 SLOAD SWAP1 PUSH2 0x100 EXP SWAP1 DIV PUSH20 0xFFFFFFFFFFFFFFFFFFFFFFFFFFFFFFFFFFFFFFFF AND PUSH20 0xFFFFFFFFFFFFFFFFFFFFFFFFFFFFFFFFFFFFFFFF AND PUSH4 0x6FDDE03 PUSH1 0x40 MLOAD DUP2 PUSH4 0xFFFFFFFF AND PUSH1 0xE0 SHL DUP2 MSTORE PUSH1 0x4 ADD PUSH1 0x0 PUSH1 0x40 MLOAD DUP1 DUP4 SUB DUP2 DUP7 GAS STATICCALL ISZERO DUP1 ISZERO PUSH2 0x554 JUMPI RETURNDATASIZE PUSH1 0x0 DUP1 RETURNDATACOPY RETURNDATASIZE PUSH1 0x0 REVERT JUMPDEST POP POP POP POP PUSH1 0x40 MLOAD RETURNDATASIZE PUSH1 0x0 DUP3 RETURNDATACOPY RETURNDATASIZE PUSH1 0x1F NOT PUSH1 0x1F DUP3 ADD AND DUP3 ADD DUP1 PUSH1 0x40 MSTORE POP DUP2 ADD SWAP1 PUSH2 0x57D SWAP2 SWAP1 PUSH2 0x11FD JUMP JUMPDEST SWAP1 POP SWAP1 JUMP JUMPDEST PUSH1 0x0 SWAP2 SWAP1 POP JUMP JUMPDEST POP POP JUMP JUMPDEST PUSH1 0x0 SWAP6 SWAP5 POP POP POP POP POP JUMP JUMPDEST PUSH1 0x0 PUSH1 0x1 PUSH1 0x0 SWAP1 SLOAD SWAP1 PUSH2 0x100 EXP SWAP1 DIV PUSH20 0xFFFFFFFFFFFFFFFFFFFFFFFFFFFFFFFFFFFFFFFF AND PUSH20 0xFFFFFFFFFFFFFFFFFFFFFFFFFFFFFFFFFFFFFFFF AND PUSH4 0x18160DDD PUSH1 0x40 MLOAD DUP2 PUSH4 0xFFFFFFFF AND PUSH1 0xE0 SHL DUP2 MSTORE PUSH1 0x4 ADD PUSH1 0x20 PUSH1 0x40 MLOAD DUP1 DUP4 SUB DUP2 DUP7 GAS STATICCALL ISZERO DUP1 ISZERO PUSH2 0x607 JUMPI RETURNDATASIZE PUSH1 0x0 DUP1 RETURNDATACOPY RETURNDATASIZE PUSH1 0x0 REVERT JUMPDEST POP POP POP POP PUSH1 0x40 MLOAD RETURNDATASIZE PUSH1 0x1F NOT PUSH1 0x1F DUP3 ADD AND DUP3 ADD DUP1 PUSH1 0x40 MSTORE POP DUP2 ADD SWAP1 PUSH2 0x62B SWAP2 SWAP1 PUSH2 0x125B JUMP JUMPDEST SWAP1 POP SWAP1 JUMP JUMPDEST POP POP POP JUMP JUMPDEST PUSH1 0x0 SWAP3 SWAP2 POP POP JUMP JUMPDEST PUSH1 0x2 PUSH1 0x0 SWAP1 SLOAD SWAP1 PUSH2 0x100 EXP SWAP1 DIV PUSH20 0xFFFFFFFFFFFFFFFFFFFFFFFFFFFFFFFFFFFFFFFF AND PUSH20 0xFFFFFFFFFFFFFFFFFFFFFFFFFFFFFFFFFFFFFFFF AND PUSH4 0x329CC83F DUP3 PUSH1 0x40 MLOAD DUP3 PUSH4 0xFFFFFFFF AND PUSH1 0xE0 SHL DUP2 MSTORE PUSH1 0x4 ADD PUSH2 0x698 SWAP2 SWAP1 PUSH2 0xC6A JUMP JUMPDEST PUSH1 0x0 PUSH1 0x40 MLOAD DUP1 DUP4 SUB DUP2 PUSH1 0x0 DUP8 DUP1 EXTCODESIZE ISZERO DUP1 ISZERO PUSH2 0x6B2 JUMPI PUSH1 0x0 DUP1 REVERT JUMPDEST POP GAS CALL ISZERO DUP1 ISZERO PUSH2 0x6C6 JUMPI RETURNDATASIZE PUSH1 0x0 DUP1 RETURNDATACOPY RETURNDATASIZE PUSH1 0x0 REVERT JUMPDEST POP POP POP POP POP JUMP JUMPDEST POP POP POP JUMP JUMPDEST POP JUMP JUMPDEST PUSH1 0x0 SWAP2 SWAP1 POP JUMP JUMPDEST PUSH1 0x0 SWAP2 SWAP1 POP JUMP JUMPDEST PUSH1 0x0 SWAP2 SWAP1 POP JUMP JUMPDEST PUSH2 0x6F2 PUSH2 0x8FB JUMP JUMPDEST PUSH2 0x6FC PUSH1 0x0 PUSH2 0x979 JUMP JUMPDEST JUMP JUMPDEST POP JUMP JUMPDEST PUSH1 0x0 DUP1 PUSH1 0x0 SWAP1 SLOAD SWAP1 PUSH2 0x100 EXP SWAP1 DIV PUSH20 0xFFFFFFFFFFFFFFFFFFFFFFFFFFFFFFFFFFFFFFFF AND SWAP1 POP SWAP1 JUMP JUMPDEST PUSH1 0x60 PUSH1 0x1 PUSH1 0x0 SWAP1 SLOAD SWAP1 PUSH2 0x100 EXP SWAP1 DIV PUSH20 0xFFFFFFFFFFFFFFFFFFFFFFFFFFFFFFFFFFFFFFFF AND PUSH20 0xFFFFFFFFFFFFFFFFFFFFFFFFFFFFFFFFFFFFFFFF AND PUSH4 0x95D89B41 PUSH1 0x40 MLOAD DUP2 PUSH4 0xFFFFFFFF AND PUSH1 0xE0 SHL DUP2 MSTORE PUSH1 0x4 ADD PUSH1 0x0 PUSH1 0x40 MLOAD DUP1 DUP4 SUB DUP2 DUP7 GAS STATICCALL ISZERO DUP1 ISZERO PUSH2 0x799 JUMPI RETURNDATASIZE PUSH1 0x0 DUP1 RETURNDATACOPY RETURNDATASIZE PUSH1 0x0 REVERT JUMPDEST POP POP POP POP PUSH1 0x40 MLOAD RETURNDATASIZE PUSH1 0x0 DUP3 RETURNDATACOPY RETURNDATASIZE PUSH1 0x1F NOT PUSH1 0x1F DUP3 ADD AND DUP3 ADD DUP1 PUSH1 0x40 MSTORE POP DUP2 ADD SWAP1 PUSH2 0x7C2 SWAP2 SWAP1 PUSH2 0x11FD JUMP JUMPDEST SWAP1 POP SWAP1 JUMP JUMPDEST POP POP JUMP JUMPDEST POP POP POP POP POP JUMP JUMPDEST PUSH1 0x60 SWAP2 SWAP1 POP JUMP JUMPDEST PUSH1 0x1 PUSH1 0x0 SWAP1 SLOAD SWAP1 PUSH2 0x100 EXP SWAP1 DIV PUSH20 0xFFFFFFFFFFFFFFFFFFFFFFFFFFFFFFFFFFFFFFFF AND PUSH20 0xFFFFFFFFFFFFFFFFFFFFFFFFFFFFFFFFFFFFFFFF AND PUSH4 0xD204C45E DUP4 DUP4 PUSH1 0x40 MLOAD DUP4 PUSH4 0xFFFFFFFF AND PUSH1 0xE0 SHL DUP2 MSTORE PUSH1 0x4 ADD PUSH2 0x836 SWAP3 SWAP2 SWAP1 PUSH2 0x1288 JUMP JUMPDEST PUSH1 0x0 PUSH1 0x40 MLOAD DUP1 DUP4 SUB DUP2 PUSH1 0x0 DUP8 DUP1 EXTCODESIZE ISZERO DUP1 ISZERO PUSH2 0x850 JUMPI PUSH1 0x0 DUP1 REVERT JUMPDEST POP GAS CALL ISZERO DUP1 ISZERO PUSH2 0x864 JUMPI RETURNDATASIZE PUSH1 0x0 DUP1 RETURNDATACOPY RETURNDATASIZE PUSH1 0x0 REVERT JUMPDEST POP POP POP POP POP POP JUMP JUMPDEST POP POP JUMP JUMPDEST PUSH1 0x0 SWAP3 SWAP2 POP POP JUMP JUMPDEST PUSH2 0x880 PUSH2 0x8FB JUMP JUMPDEST PUSH1 0x0 PUSH20 0xFFFFFFFFFFFFFFFFFFFFFFFFFFFFFFFFFFFFFFFF AND DUP2 PUSH20 0xFFFFFFFFFFFFFFFFFFFFFFFFFFFFFFFFFFFFFFFF AND SUB PUSH2 0x8EF JUMPI PUSH1 0x40 MLOAD PUSH32 0x8C379A000000000000000000000000000000000000000000000000000000000 DUP2 MSTORE PUSH1 0x4 ADD PUSH2 0x8E6 SWAP1 PUSH2 0x132A JUMP JUMPDEST PUSH1 0x40 MLOAD DUP1 SWAP2 SUB SWAP1 REVERT JUMPDEST PUSH2 0x8F8 DUP2 PUSH2 0x979 JUMP JUMPDEST POP JUMP JUMPDEST PUSH2 0x903 PUSH2 0xA3D JUMP JUMPDEST PUSH20 0xFFFFFFFFFFFFFFFFFFFFFFFFFFFFFFFFFFFFFFFF AND PUSH2 0x921 PUSH2 0x701 JUMP JUMPDEST PUSH20 0xFFFFFFFFFFFFFFFFFFFFFFFFFFFFFFFFFFFFFFFF AND EQ PUSH2 0x977 JUMPI PUSH1 0x40 MLOAD PUSH32 0x8C379A000000000000000000000000000000000000000000000000000000000 DUP2 MSTORE PUSH1 0x4 ADD PUSH2 0x96E SWAP1 PUSH2 0x1396 JUMP JUMPDEST PUSH1 0x40 MLOAD DUP1 SWAP2 SUB SWAP1 REVERT JUMPDEST JUMP JUMPDEST PUSH1 0x0 DUP1 PUSH1 0x0 SWAP1 SLOAD SWAP1 PUSH2 0x100 EXP SWAP1 DIV PUSH20 0xFFFFFFFFFFFFFFFFFFFFFFFFFFFFFFFFFFFFFFFF AND SWAP1 POP DUP2 PUSH1 0x0 DUP1 PUSH2 0x100 EXP DUP2 SLOAD DUP2 PUSH20 0xFFFFFFFFFFFFFFFFFFFFFFFFFFFFFFFFFFFFFFFF MUL NOT AND SWAP1 DUP4 PUSH20 0xFFFFFFFFFFFFFFFFFFFFFFFFFFFFFFFFFFFFFFFF AND MUL OR SWAP1 SSTORE POP DUP2 PUSH20 0xFFFFFFFFFFFFFFFFFFFFFFFFFFFFFFFFFFFFFFFF AND DUP2 PUSH20 0xFFFFFFFFFFFFFFFFFFFFFFFFFFFFFFFFFFFFFFFF AND PUSH32 0x8BE0079C531659141344CD1FD0A4F28419497F9722A3DAAFE3B4186F6B6457E0 PUSH1 0x40 MLOAD PUSH1 0x40 MLOAD DUP1 SWAP2 SUB SWAP1 LOG3 POP POP JUMP JUMPDEST PUSH1 0x0 CALLER SWAP1 POP SWAP1 JUMP JUMPDEST PUSH1 0x0 PUSH1 0x40 MLOAD SWAP1 POP SWAP1 JUMP JUMPDEST PUSH1 0x0 DUP1 REVERT JUMPDEST PUSH1 0x0 DUP1 REVERT JUMPDEST PUSH1 0x0 PUSH32 0xFFFFFFFF00000000000000000000000000000000000000000000000000000000 DUP3 AND SWAP1 POP SWAP2 SWAP1 POP JUMP JUMPDEST PUSH2 0xA8E DUP2 PUSH2 0xA59 JUMP JUMPDEST DUP2 EQ PUSH2 0xA99 JUMPI PUSH1 0x0 DUP1 REVERT JUMPDEST POP JUMP JUMPDEST PUSH1 0x0 DUP2 CALLDATALOAD SWAP1 POP PUSH2 0xAAB DUP2 PUSH2 0xA85 JUMP JUMPDEST SWAP3 SWAP2 POP POP JUMP JUMPDEST PUSH1 0x0 PUSH1 0x20 DUP3 DUP5 SUB SLT ISZERO PUSH2 0xAC7 JUMPI PUSH2 0xAC6 PUSH2 0xA4F JUMP JUMPDEST JUMPDEST PUSH1 0x0 PUSH2 0xAD5 DUP5 DUP3 DUP6 ADD PUSH2 0xA9C JUMP JUMPDEST SWAP2 POP POP SWAP3 SWAP2 POP POP JUMP JUMPDEST PUSH1 0x0 DUP2 ISZERO ISZERO SWAP1 POP SWAP2 SWAP1 POP JUMP JUMPDEST PUSH2 0xAF3 DUP2 PUSH2 0xADE JUMP JUMPDEST DUP3 MSTORE POP POP JUMP JUMPDEST PUSH1 0x0 PUSH1 0x20 DUP3 ADD SWAP1 POP PUSH2 0xB0E PUSH1 0x0 DUP4 ADD DUP5 PUSH2 0xAEA JUMP JUMPDEST SWAP3 SWAP2 POP POP JUMP JUMPDEST PUSH1 0x0 DUP2 MLOAD SWAP1 POP SWAP2 SWAP1 POP JUMP JUMPDEST PUSH1 0x0 DUP3 DUP3 MSTORE PUSH1 0x20 DUP3 ADD SWAP1 POP SWAP3 SWAP2 POP POP JUMP JUMPDEST PUSH1 0x0 JUMPDEST DUP4 DUP2 LT ISZERO PUSH2 0xB4E JUMPI DUP1 DUP3 ADD MLOAD DUP2 DUP5 ADD MSTORE PUSH1 0x20 DUP2 ADD SWAP1 POP PUSH2 0xB33 JUMP JUMPDEST PUSH1 0x0 DUP5 DUP5 ADD MSTORE POP POP POP POP JUMP JUMPDEST PUSH1 0x0 PUSH1 0x1F NOT PUSH1 0x1F DUP4 ADD AND SWAP1 POP SWAP2 SWAP1 POP JUMP JUMPDEST PUSH1 0x0 PUSH2 0xB76 DUP3 PUSH2 0xB14 JUMP JUMPDEST PUSH2 0xB80 DUP2 DUP6 PUSH2 0xB1F JUMP JUMPDEST SWAP4 POP PUSH2 0xB90 DUP2 DUP6 PUSH1 0x20 DUP7 ADD PUSH2 0xB30 JUMP JUMPDEST PUSH2 0xB99 DUP2 PUSH2 0xB5A JUMP JUMPDEST DUP5 ADD SWAP2 POP POP SWAP3 SWAP2 POP POP JUMP JUMPDEST PUSH1 0x0 PUSH1 0x20 DUP3 ADD SWAP1 POP DUP2 DUP2 SUB PUSH1 0x0 DUP4 ADD MSTORE PUSH2 0xBBE DUP2 DUP5 PUSH2 0xB6B JUMP JUMPDEST SWAP1 POP SWAP3 SWAP2 POP POP JUMP JUMPDEST PUSH1 0x0 DUP2 SWAP1 POP SWAP2 SWAP1 POP JUMP JUMPDEST PUSH2 0xBD9 DUP2 PUSH2 0xBC6 JUMP JUMPDEST DUP2 EQ PUSH2 0xBE4 JUMPI PUSH1 0x0 DUP1 REVERT JUMPDEST POP JUMP JUMPDEST PUSH1 0x0 DUP2 CALLDATALOAD SWAP1 POP PUSH2 0xBF6 DUP2 PUSH2 0xBD0 JUMP JUMPDEST SWAP3 SWAP2 POP POP JUMP JUMPDEST PUSH1 0x0 PUSH1 0x20 DUP3 DUP5 SUB SLT ISZERO PUSH2 0xC12 JUMPI PUSH2 0xC11 PUSH2 0xA4F JUMP JUMPDEST JUMPDEST PUSH1 0x0 PUSH2 0xC20 DUP5 DUP3 DUP6 ADD PUSH2 0xBE7 JUMP JUMPDEST SWAP2 POP POP SWAP3 SWAP2 POP POP JUMP JUMPDEST PUSH1 0x0 PUSH20 0xFFFFFFFFFFFFFFFFFFFFFFFFFFFFFFFFFFFFFFFF DUP3 AND SWAP1 POP SWAP2 SWAP1 POP JUMP JUMPDEST PUSH1 0x0 PUSH2 0xC54 DUP3 PUSH2 0xC29 JUMP JUMPDEST SWAP1 POP SWAP2 SWAP1 POP JUMP JUMPDEST PUSH2 0xC64 DUP2 PUSH2 0xC49 JUMP JUMPDEST DUP3 MSTORE POP POP JUMP JUMPDEST PUSH1 0x0 PUSH1 0x20 DUP3 ADD SWAP1 POP PUSH2 0xC7F PUSH1 0x0 DUP4 ADD DUP5 PUSH2 0xC5B JUMP JUMPDEST SWAP3 SWAP2 POP POP JUMP JUMPDEST PUSH2 0xC8E DUP2 PUSH2 0xC49 JUMP JUMPDEST DUP2 EQ PUSH2 0xC99 JUMPI PUSH1 0x0 DUP1 REVERT JUMPDEST POP JUMP JUMPDEST PUSH1 0x0 DUP2 CALLDATALOAD SWAP1 POP PUSH2 0xCAB DUP2 PUSH2 0xC85 JUMP JUMPDEST SWAP3 SWAP2 POP POP JUMP JUMPDEST PUSH1 0x0 DUP1 PUSH1 0x40 DUP4 DUP6 SUB SLT ISZERO PUSH2 0xCC8 JUMPI PUSH2 0xCC7 PUSH2 0xA4F JUMP JUMPDEST JUMPDEST PUSH1 0x0 PUSH2 0xCD6 DUP6 DUP3 DUP7 ADD PUSH2 0xC9C JUMP JUMPDEST SWAP3 POP POP PUSH1 0x20 PUSH2 0xCE7 DUP6 DUP3 DUP7 ADD PUSH2 0xBE7 JUMP JUMPDEST SWAP2 POP POP SWAP3 POP SWAP3 SWAP1 POP JUMP JUMPDEST PUSH1 0x0 DUP1 REVERT JUMPDEST PUSH1 0x0 DUP1 REVERT JUMPDEST PUSH1 0x0 DUP1 REVERT JUMPDEST PUSH1 0x0 DUP1 DUP4 PUSH1 0x1F DUP5 ADD SLT PUSH2 0xD16 JUMPI PUSH2 0xD15 PUSH2 0xCF1 JUMP JUMPDEST JUMPDEST DUP3 CALLDATALOAD SWAP1 POP PUSH8 0xFFFFFFFFFFFFFFFF DUP2 GT ISZERO PUSH2 0xD33 JUMPI PUSH2 0xD32 PUSH2 0xCF6 JUMP JUMPDEST JUMPDEST PUSH1 0x20 DUP4 ADD SWAP2 POP DUP4 PUSH1 0x1 DUP3 MUL DUP4 ADD GT ISZERO PUSH2 0xD4F JUMPI PUSH2 0xD4E PUSH2 0xCFB JUMP JUMPDEST JUMPDEST SWAP3 POP SWAP3 SWAP1 POP JUMP JUMPDEST PUSH1 0x0 DUP1 PUSH1 0x0 DUP1 PUSH1 0x0 PUSH1 0x80 DUP7 DUP9 SUB SLT ISZERO PUSH2 0xD72 JUMPI PUSH2 0xD71 PUSH2 0xA4F JUMP JUMPDEST JUMPDEST PUSH1 0x0 PUSH2 0xD80 DUP9 DUP3 DUP10 ADD PUSH2 0xC9C JUMP JUMPDEST SWAP6 POP POP PUSH1 0x20 PUSH2 0xD91 DUP9 DUP3 DUP10 ADD PUSH2 0xC9C JUMP JUMPDEST SWAP5 POP POP PUSH1 0x40 PUSH2 0xDA2 DUP9 DUP3 DUP10 ADD PUSH2 0xBE7 JUMP JUMPDEST SWAP4 POP POP PUSH1 0x60 DUP7 ADD CALLDATALOAD PUSH8 0xFFFFFFFFFFFFFFFF DUP2 GT ISZERO PUSH2 0xDC3 JUMPI PUSH2 0xDC2 PUSH2 0xA54 JUMP JUMPDEST JUMPDEST PUSH2 0xDCF DUP9 DUP3 DUP10 ADD PUSH2 0xD00 JUMP JUMPDEST SWAP3 POP SWAP3 POP POP SWAP3 SWAP6 POP SWAP3 SWAP6 SWAP1 SWAP4 POP JUMP JUMPDEST PUSH2 0xDE7 DUP2 PUSH2 0xA59 JUMP JUMPDEST DUP3 MSTORE POP POP JUMP JUMPDEST PUSH1 0x0 PUSH1 0x20 DUP3 ADD SWAP1 POP PUSH2 0xE02 PUSH1 0x0 DUP4 ADD DUP5 PUSH2 0xDDE JUMP JUMPDEST SWAP3 SWAP2 POP POP JUMP JUMPDEST PUSH2 0xE11 DUP2 PUSH2 0xBC6 JUMP JUMPDEST DUP3 MSTORE POP POP JUMP JUMPDEST PUSH1 0x0 PUSH1 0x20 DUP3 ADD SWAP1 POP PUSH2 0xE2C PUSH1 0x0 DUP4 ADD DUP5 PUSH2 0xE08 JUMP JUMPDEST SWAP3 SWAP2 POP POP JUMP JUMPDEST PUSH1 0x0 DUP1 PUSH1 0x0 PUSH1 0x60 DUP5 DUP7 SUB SLT ISZERO PUSH2 0xE4B JUMPI PUSH2 0xE4A PUSH2 0xA4F JUMP JUMPDEST JUMPDEST PUSH1 0x0 PUSH2 0xE59 DUP7 DUP3 DUP8 ADD PUSH2 0xC9C JUMP JUMPDEST SWAP4 POP POP PUSH1 0x20 PUSH2 0xE6A DUP7 DUP3 DUP8 ADD PUSH2 0xC9C JUMP JUMPDEST SWAP3 POP POP PUSH1 0x40 PUSH2 0xE7B DUP7 DUP3 DUP8 ADD PUSH2 0xBE7 JUMP JUMPDEST SWAP2 POP POP SWAP3 POP SWAP3 POP SWAP3 JUMP JUMPDEST PUSH1 0x0 PUSH1 0x20 DUP3 DUP5 SUB SLT ISZERO PUSH2 0xE9B JUMPI PUSH2 0xE9A PUSH2 0xA4F JUMP JUMPDEST JUMPDEST PUSH1 0x0 PUSH2 0xEA9 DUP5 DUP3 DUP6 ADD PUSH2 0xC9C JUMP JUMPDEST SWAP2 POP POP SWAP3 SWAP2 POP POP JUMP JUMPDEST PUSH2 0xEBB DUP2 PUSH2 0xADE JUMP JUMPDEST DUP2 EQ PUSH2 0xEC6 JUMPI PUSH1 0x0 DUP1 REVERT JUMPDEST POP JUMP JUMPDEST PUSH1 0x0 DUP2 CALLDATALOAD SWAP1 POP PUSH2 0xED8 DUP2 PUSH2 0xEB2 JUMP JUMPDEST SWAP3 SWAP2 POP POP JUMP JUMPDEST PUSH1 0x0 DUP1 PUSH1 0x40 DUP4 DUP6 SUB SLT ISZERO PUSH2 0xEF5 JUMPI PUSH2 0xEF4 PUSH2 0xA4F JUMP JUMPDEST JUMPDEST PUSH1 0x0 PUSH2 0xF03 DUP6 DUP3 DUP7 ADD PUSH2 0xC9C JUMP JUMPDEST SWAP3 POP POP PUSH1 0x20 PUSH2 0xF14 DUP6 DUP3 DUP7 ADD PUSH2 0xEC9 JUMP JUMPDEST SWAP2 POP POP SWAP3 POP SWAP3 SWAP1 POP JUMP JUMPDEST PUSH1 0x0 DUP1 REVERT JUMPDEST PUSH32 0x4E487B7100000000000000000000000000000000000000000000000000000000 PUSH1 0x0 MSTORE PUSH1 0x41 PUSH1 0x4 MSTORE PUSH1 0x24 PUSH1 0x0 REVERT JUMPDEST PUSH2 0xF5B DUP3 PUSH2 0xB5A JUMP JUMPDEST DUP2 ADD DUP2 DUP2 LT PUSH8 0xFFFFFFFFFFFFFFFF DUP3 GT OR ISZERO PUSH2 0xF7A JUMPI PUSH2 0xF79 PUSH2 0xF23 JUMP JUMPDEST JUMPDEST DUP1 PUSH1 0x40 MSTORE POP POP POP JUMP JUMPDEST PUSH1 0x0 PUSH2 0xF8D PUSH2 0xA45 JUMP JUMPDEST SWAP1 POP PUSH2 0xF99 DUP3 DUP3 PUSH2 0xF52 JUMP JUMPDEST SWAP2 SWAP1 POP JUMP JUMPDEST PUSH1 0x0 PUSH8 0xFFFFFFFFFFFFFFFF DUP3 GT ISZERO PUSH2 0xFB9 JUMPI PUSH2 0xFB8 PUSH2 0xF23 JUMP JUMPDEST JUMPDEST PUSH2 0xFC2 DUP3 PUSH2 0xB5A JUMP JUMPDEST SWAP1 POP PUSH1 0x20 DUP2 ADD SWAP1 POP SWAP2 SWAP1 POP JUMP JUMPDEST DUP3 DUP2 DUP4 CALLDATACOPY PUSH1 0x0 DUP4 DUP4 ADD MSTORE POP POP POP JUMP JUMPDEST PUSH1 0x0 PUSH2 0xFF1 PUSH2 0xFEC DUP5 PUSH2 0xF9E JUMP JUMPDEST PUSH2 0xF83 JUMP JUMPDEST SWAP1 POP DUP3 DUP2 MSTORE PUSH1 0x20 DUP2 ADD DUP5 DUP5 DUP5 ADD GT ISZERO PUSH2 0x100D JUMPI PUSH2 0x100C PUSH2 0xF1E JUMP JUMPDEST JUMPDEST PUSH2 0x1018 DUP5 DUP3 DUP6 PUSH2 0xFCF JUMP JUMPDEST POP SWAP4 SWAP3 POP POP POP JUMP JUMPDEST PUSH1 0x0 DUP3 PUSH1 0x1F DUP4 ADD SLT PUSH2 0x1035 JUMPI PUSH2 0x1034 PUSH2 0xCF1 JUMP JUMPDEST JUMPDEST DUP2 CALLDATALOAD PUSH2 0x1045 DUP5 DUP3 PUSH1 0x20 DUP7 ADD PUSH2 0xFDE JUMP JUMPDEST SWAP2 POP POP SWAP3 SWAP2 POP POP JUMP JUMPDEST PUSH1 0x0 DUP1 PUSH1 0x40 DUP4 DUP6 SUB SLT ISZERO PUSH2 0x1065 JUMPI PUSH2 0x1064 PUSH2 0xA4F JUMP JUMPDEST JUMPDEST PUSH1 0x0 PUSH2 0x1073 DUP6 DUP3 DUP7 ADD PUSH2 0xC9C JUMP JUMPDEST SWAP3 POP POP PUSH1 0x20 DUP4 ADD CALLDATALOAD PUSH8 0xFFFFFFFFFFFFFFFF DUP2 GT ISZERO PUSH2 0x1094 JUMPI PUSH2 0x1093 PUSH2 0xA54 JUMP JUMPDEST JUMPDEST PUSH2 0x10A0 DUP6 DUP3 DUP7 ADD PUSH2 0x1020 JUMP JUMPDEST SWAP2 POP POP SWAP3 POP SWAP3 SWAP1 POP JUMP JUMPDEST PUSH1 0x0 DUP1 DUP4 PUSH1 0x1F DUP5 ADD SLT PUSH2 0x10C0 JUMPI PUSH2 0x10BF PUSH2 0xCF1 JUMP JUMPDEST JUMPDEST DUP3 CALLDATALOAD SWAP1 POP PUSH8 0xFFFFFFFFFFFFFFFF DUP2 GT ISZERO PUSH2 0x10DD JUMPI PUSH2 0x10DC PUSH2 0xCF6 JUMP JUMPDEST JUMPDEST PUSH1 0x20 DUP4 ADD SWAP2 POP DUP4 PUSH1 0x20 DUP3 MUL DUP4 ADD GT ISZERO PUSH2 0x10F9 JUMPI PUSH2 0x10F8 PUSH2 0xCFB JUMP JUMPDEST JUMPDEST SWAP3 POP SWAP3 SWAP1 POP JUMP JUMPDEST PUSH1 0x0 DUP1 PUSH1 0x20 DUP4 DUP6 SUB SLT ISZERO PUSH2 0x1117 JUMPI PUSH2 0x1116 PUSH2 0xA4F JUMP JUMPDEST JUMPDEST PUSH1 0x0 DUP4 ADD CALLDATALOAD PUSH8 0xFFFFFFFFFFFFFFFF DUP2 GT ISZERO PUSH2 0x1135 JUMPI PUSH2 0x1134 PUSH2 0xA54 JUMP JUMPDEST JUMPDEST PUSH2 0x1141 DUP6 DUP3 DUP7 ADD PUSH2 0x10AA JUMP JUMPDEST SWAP3 POP SWAP3 POP POP SWAP3 POP SWAP3 SWAP1 POP JUMP JUMPDEST PUSH1 0x0 DUP1 PUSH1 0x40 DUP4 DUP6 SUB SLT ISZERO PUSH2 0x1164 JUMPI PUSH2 0x1163 PUSH2 0xA4F JUMP JUMPDEST JUMPDEST PUSH1 0x0 PUSH2 0x1172 DUP6 DUP3 DUP7 ADD PUSH2 0xC9C JUMP JUMPDEST SWAP3 POP POP PUSH1 0x20 PUSH2 0x1183 DUP6 DUP3 DUP7 ADD PUSH2 0xC9C JUMP JUMPDEST SWAP2 POP POP SWAP3 POP SWAP3 SWAP1 POP JUMP JUMPDEST PUSH1 0x0 PUSH2 0x11A0 PUSH2 0x119B DUP5 PUSH2 0xF9E JUMP JUMPDEST PUSH2 0xF83 JUMP JUMPDEST SWAP1 POP DUP3 DUP2 MSTORE PUSH1 0x20 DUP2 ADD DUP5 DUP5 DUP5 ADD GT ISZERO PUSH2 0x11BC JUMPI PUSH2 0x11BB PUSH2 0xF1E JUMP JUMPDEST JUMPDEST PUSH2 0x11C7 DUP5 DUP3 DUP6 PUSH2 0xB30 JUMP JUMPDEST POP SWAP4 SWAP3 POP POP POP JUMP JUMPDEST PUSH1 0x0 DUP3 PUSH1 0x1F DUP4 ADD SLT PUSH2 0x11E4 JUMPI PUSH2 0x11E3 PUSH2 0xCF1 JUMP JUMPDEST JUMPDEST DUP2 MLOAD PUSH2 0x11F4 DUP5 DUP3 PUSH1 0x20 DUP7 ADD PUSH2 0x118D JUMP JUMPDEST SWAP2 POP POP SWAP3 SWAP2 POP POP JUMP JUMPDEST PUSH1 0x0 PUSH1 0x20 DUP3 DUP5 SUB SLT ISZERO PUSH2 0x1213 JUMPI PUSH2 0x1212 PUSH2 0xA4F JUMP JUMPDEST JUMPDEST PUSH1 0x0 DUP3 ADD MLOAD PUSH8 0xFFFFFFFFFFFFFFFF DUP2 GT ISZERO PUSH2 0x1231 JUMPI PUSH2 0x1230 PUSH2 0xA54 JUMP JUMPDEST JUMPDEST PUSH2 0x123D DUP5 DUP3 DUP6 ADD PUSH2 0x11CF JUMP JUMPDEST SWAP2 POP POP SWAP3 SWAP2 POP POP JUMP JUMPDEST PUSH1 0x0 DUP2 MLOAD SWAP1 POP PUSH2 0x1255 DUP2 PUSH2 0xBD0 JUMP JUMPDEST SWAP3 SWAP2 POP POP JUMP JUMPDEST PUSH1 0x0 PUSH1 0x20 DUP3 DUP5 SUB SLT ISZERO PUSH2 0x1271 JUMPI PUSH2 0x1270 PUSH2 0xA4F JUMP JUMPDEST JUMPDEST PUSH1 0x0 PUSH2 0x127F DUP5 DUP3 DUP6 ADD PUSH2 0x1246 JUMP JUMPDEST SWAP2 POP POP SWAP3 SWAP2 POP POP JUMP JUMPDEST PUSH1 0x0 PUSH1 0x40 DUP3 ADD SWAP1 POP PUSH2 0x129D PUSH1 0x0 DUP4 ADD DUP6 PUSH2 0xC5B JUMP JUMPDEST DUP2 DUP2 SUB PUSH1 0x20 DUP4 ADD MSTORE PUSH2 0x12AF DUP2 DUP5 PUSH2 0xB6B JUMP JUMPDEST SWAP1 POP SWAP4 SWAP3 POP POP POP JUMP JUMPDEST PUSH32 0x4F776E61626C653A206E6577206F776E657220697320746865207A65726F2061 PUSH1 0x0 DUP3 ADD MSTORE PUSH32 0x6464726573730000000000000000000000000000000000000000000000000000 PUSH1 0x20 DUP3 ADD MSTORE POP JUMP JUMPDEST PUSH1 0x0 PUSH2 0x1314 PUSH1 0x26 DUP4 PUSH2 0xB1F JUMP JUMPDEST SWAP2 POP PUSH2 0x131F DUP3 PUSH2 0x12B8 JUMP JUMPDEST PUSH1 0x40 DUP3 ADD SWAP1 POP SWAP2 SWAP1 POP JUMP JUMPDEST PUSH1 0x0 PUSH1 0x20 DUP3 ADD SWAP1 POP DUP2 DUP2 SUB PUSH1 0x0 DUP4 ADD MSTORE PUSH2 0x1343 DUP2 PUSH2 0x1307 JUMP JUMPDEST SWAP1 POP SWAP2 SWAP1 POP JUMP JUMPDEST PUSH32 0x4F776E61626C653A2063616C6C6572206973206E6F7420746865206F776E6572 PUSH1 0x0 DUP3 ADD MSTORE POP JUMP JUMPDEST PUSH1 0x0 PUSH2 0x1380 PUSH1 0x20 DUP4 PUSH2 0xB1F JUMP JUMPDEST SWAP2 POP PUSH2 0x138B DUP3 PUSH2 0x134A JUMP JUMPDEST PUSH1 0x20 DUP3 ADD SWAP1 POP SWAP2 SWAP1 POP JUMP JUMPDEST PUSH1 0x0 PUSH1 0x20 DUP3 ADD SWAP1 POP DUP2 DUP2 SUB PUSH1 0x0 DUP4 ADD MSTORE PUSH2 0x13AF DUP2 PUSH2 0x1373 JUMP JUMPDEST SWAP1 POP SWAP2 SWAP1 POP JUMP INVALID LOG2 PUSH5 0x6970667358 0x22 SLT KECCAK256 SSTORE RETURNDATACOPY MOD JUMPDEST SWAP3 RETURNDATACOPY CALLVALUE SWAP5 0x26 SHR PUSH25 0x2E55FAE39303839F99A4A97585632691CCCAE3669564736F6C PUSH4 0x43000813 STOP CALLER "
		},
		"gasEstimates": {
			"creation": {
				"codeDepositCost": "1020000",
				"executionCost": "infinite",
				"totalCost": "infinite"
			},
			"external": {
				"approve(address,uint256)": "718",
				"balanceOf(address)": "688",
				"batchBurn(uint256[])": "540",
				"burn(uint256)": "517",
				"getApproved(uint256)": "711",
				"isApprovedForAll(address,address)": "infinite",
				"mintHeros(address)": "infinite",
				"name()": "infinite",
				"onERC721Received(address,address,uint256,bytes)": "infinite",
				"owner()": "2633",
				"ownerOf(uint256)": "666",
				"renounceOwnership()": "30465",
				"safeMint(address,string)": "infinite",
				"safeTransferFrom(address,address,uint256)": "infinite",
				"safeTransferFrom(address,address,uint256,bytes)": "infinite",
				"setApprovalForAll(address,bool)": "679",
				"setDoAProxy(address)": "544",
				"supportsInterface(bytes4)": "630",
				"symbol()": "infinite",
				"tokenByIndex(uint256)": "infinite",
				"tokenOfOwnerByIndex(address,uint256)": "infinite",
				"tokenURI(uint256)": "infinite",
				"totalSupply()": "infinite",
				"transferFrom(address,address,uint256)": "infinite",
				"transferOwnership(address)": "30854"
			}
		},
		"methodIdentifiers": {
			"approve(address,uint256)": "095ea7b3",
			"balanceOf(address)": "70a08231",
			"batchBurn(uint256[])": "dc8e92ea",
			"burn(uint256)": "42966c68",
			"getApproved(uint256)": "081812fc",
			"isApprovedForAll(address,address)": "e985e9c5",
			"mintHeros(address)": "329cc83f",
			"name()": "06fdde03",
			"onERC721Received(address,address,uint256,bytes)": "150b7a02",
			"owner()": "8da5cb5b",
			"ownerOf(uint256)": "6352211e",
			"renounceOwnership()": "715018a6",
			"safeMint(address,string)": "d204c45e",
			"safeTransferFrom(address,address,uint256)": "42842e0e",
			"safeTransferFrom(address,address,uint256,bytes)": "b88d4fde",
			"setApprovalForAll(address,bool)": "a22cb465",
			"setDoAProxy(address)": "7e88be60",
			"supportsInterface(bytes4)": "01ffc9a7",
			"symbol()": "95d89b41",
			"tokenByIndex(uint256)": "4f6ccce7",
			"tokenOfOwnerByIndex(address,uint256)": "2f745c59",
			"tokenURI(uint256)": "c87b56dd",
			"totalSupply()": "18160ddd",
			"transferFrom(address,address,uint256)": "23b872dd",
			"transferOwnership(address)": "f2fde38b"
		}
	},
	"abi": [
		{
			"inputs": [
				{
					"internalType": "address",
					"name": "doaCollection",
					"type": "address"
				},
				{
					"internalType": "address",
					"name": "tokenMinter",
					"type": "address"
				}
			],
			"stateMutability": "nonpayable",
			"type": "constructor"
		},
		{
			"anonymous": false,
			"inputs": [
				{
					"indexed": true,
					"internalType": "address",
					"name": "owner",
					"type": "address"
				},
				{
					"indexed": true,
					"internalType": "address",
					"name": "approved",
					"type": "address"
				},
				{
					"indexed": true,
					"internalType": "uint256",
					"name": "tokenId",
					"type": "uint256"
				}
			],
			"name": "Approval",
			"type": "event"
		},
		{
			"anonymous": false,
			"inputs": [
				{
					"indexed": true,
					"internalType": "address",
					"name": "owner",
					"type": "address"
				},
				{
					"indexed": true,
					"internalType": "address",
					"name": "operator",
					"type": "address"
				},
				{
					"indexed": false,
					"internalType": "bool",
					"name": "approved",
					"type": "bool"
				}
			],
			"name": "ApprovalForAll",
			"type": "event"
		},
		{
			"anonymous": false,
			"inputs": [
				{
					"indexed": true,
					"internalType": "address",
					"name": "previousOwner",
					"type": "address"
				},
				{
					"indexed": true,
					"internalType": "address",
					"name": "newOwner",
					"type": "address"
				}
			],
			"name": "OwnershipTransferred",
			"type": "event"
		},
		{
			"anonymous": false,
			"inputs": [
				{
					"indexed": true,
					"internalType": "address",
					"name": "from",
					"type": "address"
				},
				{
					"indexed": true,
					"internalType": "address",
					"name": "to",
					"type": "address"
				},
				{
					"indexed": true,
					"internalType": "uint256",
					"name": "tokenId",
					"type": "uint256"
				}
			],
			"name": "Transfer",
			"type": "event"
		},
		{
			"inputs": [
				{
					"internalType": "address",
					"name": "_approved",
					"type": "address"
				},
				{
					"internalType": "uint256",
					"name": "_tokenId",
					"type": "uint256"
				}
			],
			"name": "approve",
			"outputs": [],
			"stateMutability": "nonpayable",
			"type": "function"
		},
		{
			"inputs": [
				{
					"internalType": "address",
					"name": "owner",
					"type": "address"
				}
			],
			"name": "balanceOf",
			"outputs": [
				{
					"internalType": "uint256",
					"name": "balance",
					"type": "uint256"
				}
			],
			"stateMutability": "view",
			"type": "function"
		},
		{
			"inputs": [
				{
					"internalType": "uint256[]",
					"name": "tokenIds",
					"type": "uint256[]"
				}
			],
			"name": "batchBurn",
			"outputs": [],
			"stateMutability": "nonpayable",
			"type": "function"
		},
		{
			"inputs": [
				{
					"internalType": "uint256",
					"name": "tokenId",
					"type": "uint256"
				}
			],
			"name": "burn",
			"outputs": [],
			"stateMutability": "nonpayable",
			"type": "function"
		},
		{
			"inputs": [
				{
					"internalType": "uint256",
					"name": "_tokenId",
					"type": "uint256"
				}
			],
			"name": "getApproved",
			"outputs": [
				{
					"internalType": "address",
					"name": "",
					"type": "address"
				}
			],
			"stateMutability": "view",
			"type": "function"
		},
		{
			"inputs": [
				{
					"internalType": "address",
					"name": "_owner",
					"type": "address"
				},
				{
					"internalType": "address",
					"name": "_operator",
					"type": "address"
				}
			],
			"name": "isApprovedForAll",
			"outputs": [
				{
					"internalType": "bool",
					"name": "",
					"type": "bool"
				}
			],
			"stateMutability": "view",
			"type": "function"
		},
		{
			"inputs": [
				{
					"internalType": "address",
					"name": "to",
					"type": "address"
				}
			],
			"name": "mintHeros",
			"outputs": [],
			"stateMutability": "nonpayable",
			"type": "function"
		},
		{
			"inputs": [],
			"name": "name",
			"outputs": [
				{
					"internalType": "string",
					"name": "",
					"type": "string"
				}
			],
			"stateMutability": "view",
			"type": "function"
		},
		{
			"inputs": [
				{
					"internalType": "address",
					"name": "operator",
					"type": "address"
				},
				{
					"internalType": "address",
					"name": "from",
					"type": "address"
				},
				{
					"internalType": "uint256",
					"name": "tokenId",
					"type": "uint256"
				},
				{
					"internalType": "bytes",
					"name": "data",
					"type": "bytes"
				}
			],
			"name": "onERC721Received",
			"outputs": [
				{
					"internalType": "bytes4",
					"name": "",
					"type": "bytes4"
				}
			],
			"stateMutability": "nonpayable",
			"type": "function"
		},
		{
			"inputs": [],
			"name": "owner",
			"outputs": [
				{
					"internalType": "address",
					"name": "",
					"type": "address"
				}
			],
			"stateMutability": "view",
			"type": "function"
		},
		{
			"inputs": [
				{
					"internalType": "uint256",
					"name": "_tokenId",
					"type": "uint256"
				}
			],
			"name": "ownerOf",
			"outputs": [
				{
					"internalType": "address",
					"name": "",
					"type": "address"
				}
			],
			"stateMutability": "view",
			"type": "function"
		},
		{
			"inputs": [],
			"name": "renounceOwnership",
			"outputs": [],
			"stateMutability": "nonpayable",
			"type": "function"
		},
		{
			"inputs": [
				{
					"internalType": "address",
					"name": "to",
					"type": "address"
				},
				{
					"internalType": "string",
					"name": "uri",
					"type": "string"
				}
			],
			"name": "safeMint",
			"outputs": [],
			"stateMutability": "nonpayable",
			"type": "function"
		},
		{
			"inputs": [
				{
					"internalType": "address",
					"name": "_from",
					"type": "address"
				},
				{
					"internalType": "address",
					"name": "_to",
					"type": "address"
				},
				{
					"internalType": "uint256",
					"name": "_tokenId",
					"type": "uint256"
				}
			],
			"name": "safeTransferFrom",
			"outputs": [],
			"stateMutability": "nonpayable",
			"type": "function"
		},
		{
			"inputs": [
				{
					"internalType": "address",
					"name": "_from",
					"type": "address"
				},
				{
					"internalType": "address",
					"name": "_to",
					"type": "address"
				},
				{
					"internalType": "uint256",
					"name": "_tokenId",
					"type": "uint256"
				},
				{
					"internalType": "bytes",
					"name": "_data",
					"type": "bytes"
				}
			],
			"name": "safeTransferFrom",
			"outputs": [],
			"stateMutability": "nonpayable",
			"type": "function"
		},
		{
			"inputs": [
				{
					"internalType": "address",
					"name": "_operator",
					"type": "address"
				},
				{
					"internalType": "bool",
					"name": "_approved",
					"type": "bool"
				}
			],
			"name": "setApprovalForAll",
			"outputs": [],
			"stateMutability": "nonpayable",
			"type": "function"
		},
		{
			"inputs": [
				{
					"internalType": "address",
					"name": "doaCollection",
					"type": "address"
				}
			],
			"name": "setDoAProxy",
			"outputs": [],
			"stateMutability": "nonpayable",
			"type": "function"
		},
		{
			"inputs": [
				{
					"internalType": "bytes4",
					"name": "interfaceId",
					"type": "bytes4"
				}
			],
			"name": "supportsInterface",
			"outputs": [
				{
					"internalType": "bool",
					"name": "",
					"type": "bool"
				}
			],
			"stateMutability": "view",
			"type": "function"
		},
		{
			"inputs": [],
			"name": "symbol",
			"outputs": [
				{
					"internalType": "string",
					"name": "",
					"type": "string"
				}
			],
			"stateMutability": "view",
			"type": "function"
		},
		{
			"inputs": [
				{
					"internalType": "uint256",
					"name": "_index",
					"type": "uint256"
				}
			],
			"name": "tokenByIndex",
			"outputs": [
				{
					"internalType": "uint256",
					"name": "",
					"type": "uint256"
				}
			],
			"stateMutability": "view",
			"type": "function"
		},
		{
			"inputs": [
				{
					"internalType": "address",
					"name": "_owner",
					"type": "address"
				},
				{
					"internalType": "uint256",
					"name": "_index",
					"type": "uint256"
				}
			],
			"name": "tokenOfOwnerByIndex",
			"outputs": [
				{
					"internalType": "uint256",
					"name": "",
					"type": "uint256"
				}
			],
			"stateMutability": "view",
			"type": "function"
		},
		{
			"inputs": [
				{
					"internalType": "uint256",
					"name": "tokenId",
					"type": "uint256"
				}
			],
			"name": "tokenURI",
			"outputs": [
				{
					"internalType": "string",
					"name": "",
					"type": "string"
				}
			],
			"stateMutability": "view",
			"type": "function"
		},
		{
			"inputs": [],
			"name": "totalSupply",
			"outputs": [
				{
					"internalType": "uint256",
					"name": "",
					"type": "uint256"
				}
			],
			"stateMutability": "view",
			"type": "function"
		},
		{
			"inputs": [
				{
					"internalType": "address",
					"name": "_from",
					"type": "address"
				},
				{
					"internalType": "address",
					"name": "_to",
					"type": "address"
				},
				{
					"internalType": "uint256",
					"name": "_tokenId",
					"type": "uint256"
				}
			],
			"name": "transferFrom",
			"outputs": [],
			"stateMutability": "nonpayable",
			"type": "function"
		},
		{
			"inputs": [
				{
					"internalType": "address",
					"name": "newOwner",
					"type": "address"
				}
			],
			"name": "transferOwnership",
			"outputs": [],
			"stateMutability": "nonpayable",
			"type": "function"
		}
	]
}