{
	"data": {
		"bytecode": {
			"linkReferences": {},
			"object": "60806040523480156200001157600080fd5b5060405162002938380380620029388339818101604052810190620000379190620002d2565b620000576200004b6200019c60201b60201c565b620001a460201b60201c565b60008060146101000a81548160ff0219169083151502179055506001808190555082600260006101000a81548173ffffffffffffffffffffffffffffffffffffffff021916908373ffffffffffffffffffffffffffffffffffffffff16021790555081600360006101000a81548173ffffffffffffffffffffffffffffffffffffffff021916908373ffffffffffffffffffffffffffffffffffffffff16021790555080600460006101000a81548173ffffffffffffffffffffffffffffffffffffffff021916908373ffffffffffffffffffffffffffffffffffffffff1602179055506001600560003373ffffffffffffffffffffffffffffffffffffffff1673ffffffffffffffffffffffffffffffffffffffff16815260200190815260200160002060006101000a81548160ff0219169083151502179055505050506200032e565b600033905090565b60008060009054906101000a900473ffffffffffffffffffffffffffffffffffffffff169050816000806101000a81548173ffffffffffffffffffffffffffffffffffffffff021916908373ffffffffffffffffffffffffffffffffffffffff1602179055508173ffffffffffffffffffffffffffffffffffffffff168173ffffffffffffffffffffffffffffffffffffffff167f8be0079c531659141344cd1fd0a4f28419497f9722a3daafe3b4186f6b6457e060405160405180910390a35050565b600080fd5b600073ffffffffffffffffffffffffffffffffffffffff82169050919050565b60006200029a826200026d565b9050919050565b620002ac816200028d565b8114620002b857600080fd5b50565b600081519050620002cc81620002a1565b92915050565b600080600060608486031215620002ee57620002ed62000268565b5b6000620002fe86828701620002bb565b93505060206200031186828701620002bb565b92505060406200032486828701620002bb565b9150509250925092565b6125fa806200033e6000396000f3fe6080604052600436106101b75760003560e01c80638d36f8f4116100ec578063c8d4fc601161008a578063f17a677711610064578063f17a677714610515578063f2c5d79714610531578063f2fde38b1461055c578063f78f680a14610585576101b7565b8063c8d4fc6014610490578063d47e107e146104bb578063d87b320b146104d7576101b7565b806398eaa4a7116100c657806398eaa4a7146104045780639f158a781461042d578063a837230714610458578063bad688c614610474576101b7565b80638d36f8f4146103925780638da5cb5b146103ae578063953a6ca8146103d9576101b7565b8063508f0628116101595780636f785cdf116101335780636f785cdf14610322578063715018a61461034d5780637e7f57f2146103645780638456cb591461037b576101b7565b8063508f0628146102b05780635c975abb146102cc5780635eee43f0146102f7576101b7565b806328d3bd1b1161019557806328d3bd1b1461022e578063329cc83f146102455780633a1491271461026e5780633f4ba83a14610299576101b7565b8063087bd107146101bc5780631592fb2a146101e757806320a0c03414610212575b600080fd5b3480156101c857600080fd5b506101d16105a1565b6040516101de9190611a2c565b60405180910390f35b3480156101f357600080fd5b506101fc6105ad565b6040516102099190611a2c565b60405180910390f35b61022c60048036038101906102279190611ad6565b6105b9565b005b34801561023a57600080fd5b506102436105d2565b005b34801561025157600080fd5b5061026c60048036038101906102679190611b16565b6108fd565b005b34801561027a57600080fd5b50610283610a32565b6040516102909190611a2c565b60405180910390f35b3480156102a557600080fd5b506102ae610a3e565b005b6102ca60048036038101906102c59190611b16565b610a50565b005b3480156102d857600080fd5b506102e1610a69565b6040516102ee9190611b5e565b60405180910390f35b34801561030357600080fd5b5061030c610a7f565b6040516103199190611b5e565b60405180910390f35b34801561032e57600080fd5b50610337610a92565b6040516103449190611a2c565b60405180910390f35b34801561035957600080fd5b50610362610a9e565b005b34801561037057600080fd5b50610379610ab2565b005b34801561038757600080fd5b50610390610c12565b005b6103ac60048036038101906103a79190611b16565b610c24565b005b3480156103ba57600080fd5b506103c3610c3d565b6040516103d09190611b88565b60405180910390f35b3480156103e557600080fd5b506103ee610c66565b6040516103fb9190611b5e565b60405180910390f35b34801561041057600080fd5b5061042b60048036038101906104269190611b16565b610c79565b005b34801561043957600080fd5b50610442610cdc565b60405161044f9190611a2c565b60405180910390f35b610472600480360381019061046d9190611b16565b610ce8565b005b61048e60048036038101906104899190611ad6565b610d00565b005b34801561049c57600080fd5b506104a5610d19565b6040516104b29190611b5e565b60405180910390f35b6104d560048036038101906104d09190611b16565b610d2c565b005b3480156104e357600080fd5b506104fe60048036038101906104f99190611bc8565b610d45565b60405161050c929190611c08565b60405180910390f35b61052f600480360381019061052a9190611ad6565b6111ef565b005b34801561053d57600080fd5b50610546611208565b6040516105539190611b5e565b60405180910390f35b34801561056857600080fd5b50610583600480360381019061057e9190611b16565b61121b565b005b61059f600480360381019061059a9190611ad6565b61129e565b005b60068060000154905081565b60078060000154905081565b6105c16112b7565b6105cd82826001611301565b505050565b6105da6112b7565b6105e261173f565b600560003373ffffffffffffffffffffffffffffffffffffffff1673ffffffffffffffffffffffffffffffffffffffff16815260200190815260200160002060009054906101000a900460ff1661066e576040517f08c379a000000000000000000000000000000000000000000000000000000000815260040161066590611c8e565b60405180910390fd5b600b60029054906101000a900460ff16156106be576040517f08c379a00000000000000000000000000000000000000000000000000000000081526004016106b590611cfa565b60405180910390fd5b600b60009054906101000a900460ff1661070d576040517f08c379a000000000000000000000000000000000000000000000000000000000815260040161070490611d66565b60405180910390fd5b600b60019054906101000a900460ff16801561073a5750600161ffff16610734600761178e565b61ffff16105b610779576040517f08c379a000000000000000000000000000000000000000000000000000000000815260040161077090611dd2565b60405180910390fd5b600b60019054906101000a900460ff1680156107a65750600561ffff166107a0600861178e565b61ffff16105b6107e5576040517f08c379a00000000000000000000000000000000000000000000000000000000081526004016107dc90611e3e565b60405180910390fd5b600b60019054906101000a900460ff1680156108125750601961ffff1661080c600961178e565b61ffff16105b610851576040517f08c379a000000000000000000000000000000000000000000000000000000000815260040161084890611eaa565b60405180910390fd5b600b60019054906101000a900460ff16801561087e5750607d61ffff16610878600a61178e565b61ffff16105b6108bd576040517f08c379a00000000000000000000000000000000000000000000000000000000081526004016108b490611f16565b60405180910390fd5b6001600b60026101000a81548160ff0219169083151502179055506000600b60016101000a81548160ff0219169083151502179055506108fb61179c565b565b6109056112b7565b61090d61173f565b600560003373ffffffffffffffffffffffffffffffffffffffff1673ffffffffffffffffffffffffffffffffffffffff16815260200190815260200160002060009054906101000a900460ff16610999576040517f08c379a000000000000000000000000000000000000000000000000000000000815260040161099090611c8e565b60405180910390fd5b600b60009054906101000a900460ff16156109e9576040517f08c379a00000000000000000000000000000000000000000000000000000000081526004016109e090611f82565b60405180910390fd5b60006109fc82601961ffff166000611301565b9050601961ffff168103610a26576001600b60006101000a81548160ff0219169083151502179055505b50610a2f61179c565b50565b60088060000154905081565b610a466117a5565b610a4e611823565b565b610a586112b7565b610a658160016003611301565b5050565b60008060149054906101000a900460ff16905090565b600b60039054906101000a900460ff1681565b600a8060000154905081565b610aa66117a5565b610ab06000611885565b565b610aba6112b7565b610ac261173f565b600560003373ffffffffffffffffffffffffffffffffffffffff1673ffffffffffffffffffffffffffffffffffffffff16815260200190815260200160002060009054906101000a900460ff16610b4e576040517f08c379a0000000000000000000000000000000000000000000000000000000008152600401610b4590611c8e565b60405180910390fd5b600b60019054906101000a900460ff1615610b9e576040517f08c379a0000000000000000000000000000000000000000000000000000000008152600401610b9590611cfa565b60405180910390fd5b600b60009054906101000a900460ff16610bed576040517f08c379a0000000000000000000000000000000000000000000000000000000008152600401610be490611d66565b60405180910390fd5b6001600b60016101000a81548160ff021916908315150217905550610c1061179c565b565b610c1a6117a5565b610c22611949565b565b610c2c6112b7565b610c398160016002611301565b5050565b60008060009054906101000a900473ffffffffffffffffffffffffffffffffffffffff16905090565b600b60019054906101000a900460ff1681565b610c816117a5565b6001600560008373ffffffffffffffffffffffffffffffffffffffff1673ffffffffffffffffffffffffffffffffffffffff16815260200190815260200160002060006101000a81548160ff02191690831515021790555050565b60098060000154905081565b610cf06112b7565b610cfc81600180611301565b5050565b610d086112b7565b610d1482826004611301565b505050565b600b60009054906101000a900460ff1681565b610d346112b7565b610d418160016004611301565b5050565b600080610d506112b7565b60008411610d93576040517f08c379a0000000000000000000000000000000000000000000000000000000008152600401610d8a90611fee565b60405180910390fd5b600b60009054906101000a900460ff16610de2576040517f08c379a0000000000000000000000000000000000000000000000000000000008152600401610dd990611d66565b60405180910390fd5b600080600080600060016004811115610dfe57610dfd61200e565b5b886004811115610e1157610e1061200e565b5b03610e7f57610e20600761178e565b94508885610e2e919061207a565b9350600161ffff169250600a61ffff169150605061ffff169050846019610e55919061207a565b61ffff1696506001846019610e6a919061207a565b610e7491906120b0565b61ffff169550611083565b60026004811115610e9357610e9261200e565b5b886004811115610ea657610ea561200e565b5b03610f1557610eb5600861178e565b94508885610ec3919061207a565b9350600561ffff169250603261ffff16915061019061ffff16905084607e610eeb919061207a565b61ffff169650600184607e610f00919061207a565b610f0a91906120b0565b61ffff169550611082565b60036004811115610f2957610f2861200e565b5b886004811115610f3c57610f3b61200e565b5b03610fad57610f4b600961178e565b94508885610f59919061207a565b9350601961ffff16925060fa61ffff1691506107d061ffff16905084610273610f82919061207a565b61ffff169650600184610273610f98919061207a565b610fa291906120b0565b61ffff169550611081565b600480811115610fc057610fbf61200e565b5b886004811115610fd357610fd261200e565b5b0361104557610fe2600a61178e565b94508885610ff0919061207a565b9350607d61ffff1692506104e261ffff16915061168a61ffff16905084610c3861101a919061207a565b61ffff169650600184610c38611030919061207a565b61103a91906120b0565b61ffff169550611080565b6040517f08c379a000000000000000000000000000000000000000000000000000000000815260040161107790612132565b60405180910390fd5b5b5b5b600b60019054906101000a900460ff16156110e457828461ffff1611156110df576040517f08c379a00000000000000000000000000000000000000000000000000000000081526004016110d69061219e565b60405180910390fd5b6111e3565b600b60029054906101000a900460ff161561114557818461ffff161115611140576040517f08c379a00000000000000000000000000000000000000000000000000000000081526004016111379061219e565b60405180910390fd5b6111e2565b600b60039054906101000a900460ff16156111a657808461ffff1611156111a1576040517f08c379a00000000000000000000000000000000000000000000000000000000081526004016111989061219e565b60405180910390fd5b6111e1565b6040517f08c379a00000000000000000000000000000000000000000000000000000000081526004016111d89061220a565b60405180910390fd5b5b5b50505050509250929050565b6111f76112b7565b61120382826003611301565b505050565b600b60029054906101000a900460ff1681565b6112236117a5565b600073ffffffffffffffffffffffffffffffffffffffff168173ffffffffffffffffffffffffffffffffffffffff1603611292576040517f08c379a00000000000000000000000000000000000000000000000000000000081526004016112899061229c565b60405180910390fd5b61129b81611885565b50565b6112a66112b7565b6112b282826002611301565b505050565b6112bf610a69565b156112ff576040517f08c379a00000000000000000000000000000000000000000000000000000000081526004016112f690612308565b60405180910390fd5b565b600061130b6112b7565b61131361173f565b600b60009054906101000a900460ff16611362576040517f08c379a000000000000000000000000000000000000000000000000000000000815260040161135990611d66565b60405180910390fd5b6000600160048111156113785761137761200e565b5b83600481111561138b5761138a61200e565b5b036113a0576716c2734f97a40000905061148f565b600260048111156113b4576113b361200e565b5b8360048111156113c7576113c661200e565b5b036113dc57670494654067e10000905061148e565b600360048111156113f0576113ef61200e565b5b8360048111156114035761140261200e565b5b0361141757662e2f6e5e148000905061148d565b60048081111561142a5761142961200e565b5b83600481111561143d5761143c61200e565b5b036114515766ea7aa67b2d0000905061148c565b6040517f08c379a000000000000000000000000000000000000000000000000000000000815260040161148390612132565b60405180910390fd5b5b5b5b60008061149c8686610d45565b91509150600082905060008390505b82811161171157600260009054906101000a900473ffffffffffffffffffffffffffffffffffffffff1673ffffffffffffffffffffffffffffffffffffffff1663a14481948a836040518363ffffffff1660e01b815260040161150f929190612328565b600060405180830381600087803b15801561152957600080fd5b505af115801561153d573d6000803e3d6000fd5b50505050600460009054906101000a900473ffffffffffffffffffffffffffffffffffffffff1673ffffffffffffffffffffffffffffffffffffffff166328872f258a838a6040518463ffffffff1660e01b81526004016115a093929190612399565b600060405180830381600087803b1580156115ba57600080fd5b505af11580156115ce573d6000803e3d6000fd5b50505050809150600160048111156115e9576115e861200e565b5b8760048111156115fc576115fb61200e565b5b036116105761160b60076119ac565b6116fe565b600260048111156116245761162361200e565b5b8760048111156116375761163661200e565b5b0361164b5761164660086119ac565b6116fd565b6003600481111561165f5761165e61200e565b5b8760048111156116725761167161200e565b5b036116865761168160096119ac565b6116fc565b6004808111156116995761169861200e565b5b8760048111156116ac576116ab61200e565b5b036116c0576116bb600a6119ac565b6116fb565b6040517f08c379a00000000000000000000000000000000000000000000000000000000081526004016116f290612132565b60405180910390fd5b5b5b5b8080611709906123d0565b9150506114ab565b50600183826117209190612418565b61172a919061244c565b94505050505061173861179c565b9392505050565b600260015403611784576040517f08c379a000000000000000000000000000000000000000000000000000000000815260040161177b906124cc565b60405180910390fd5b6002600181905550565b600081600001549050919050565b60018081905550565b6117ad6119c2565b73ffffffffffffffffffffffffffffffffffffffff166117cb610c3d565b73ffffffffffffffffffffffffffffffffffffffff1614611821576040517f08c379a000000000000000000000000000000000000000000000000000000000815260040161181890612538565b60405180910390fd5b565b61182b6119ca565b60008060146101000a81548160ff0219169083151502179055507f5db9ee0a495bf2e6ff9c91a7834c1ba4fdd244a5e8aa4e537bd38aeae4b073aa61186e6119c2565b60405161187b9190611b88565b60405180910390a1565b60008060009054906101000a900473ffffffffffffffffffffffffffffffffffffffff169050816000806101000a81548173ffffffffffffffffffffffffffffffffffffffff021916908373ffffffffffffffffffffffffffffffffffffffff1602179055508173ffffffffffffffffffffffffffffffffffffffff168173ffffffffffffffffffffffffffffffffffffffff167f8be0079c531659141344cd1fd0a4f28419497f9722a3daafe3b4186f6b6457e060405160405180910390a35050565b6119516112b7565b6001600060146101000a81548160ff0219169083151502179055507f62e78cea01bee320cd4e420270b5ea74000d11b0c9f74754ebdbfc544b05a2586119956119c2565b6040516119a29190611b88565b60405180910390a1565b6001816000016000828254019250508190555050565b600033905090565b6119d2610a69565b611a11576040517f08c379a0000000000000000000000000000000000000000000000000000000008152600401611a08906125a4565b60405180910390fd5b565b6000819050919050565b611a2681611a13565b82525050565b6000602082019050611a416000830184611a1d565b92915050565b600080fd5b600073ffffffffffffffffffffffffffffffffffffffff82169050919050565b6000611a7782611a4c565b9050919050565b611a8781611a6c565b8114611a9257600080fd5b50565b600081359050611aa481611a7e565b92915050565b611ab381611a13565b8114611abe57600080fd5b50565b600081359050611ad081611aaa565b92915050565b60008060408385031215611aed57611aec611a47565b5b6000611afb85828601611a95565b9250506020611b0c85828601611ac1565b9150509250929050565b600060208284031215611b2c57611b2b611a47565b5b6000611b3a84828501611a95565b91505092915050565b60008115159050919050565b611b5881611b43565b82525050565b6000602082019050611b736000830184611b4f565b92915050565b611b8281611a6c565b82525050565b6000602082019050611b9d6000830184611b79565b92915050565b60058110611bb057600080fd5b50565b600081359050611bc281611ba3565b92915050565b60008060408385031215611bdf57611bde611a47565b5b6000611bed85828601611ac1565b9250506020611bfe85828601611bb3565b9150509250929050565b6000604082019050611c1d6000830185611a1d565b611c2a6020830184611a1d565b9392505050565b600082825260208201905092915050565b7f4e6f204175746800000000000000000000000000000000000000000000000000600082015250565b6000611c78600783611c31565b9150611c8382611c42565b602082019050919050565b60006020820190508181036000830152611ca781611c6b565b9050919050565b7f416c726561647920756e6c6f636b656400000000000000000000000000000000600082015250565b6000611ce4601083611c31565b9150611cef82611cae565b602082019050919050565b60006020820190508181036000830152611d1381611cd7565b9050919050565b7f4865726f73206e6f74206d696e74656400000000000000000000000000000000600082015250565b6000611d50601083611c31565b9150611d5b82611d1a565b602082019050919050565b60006020820190508181036000830152611d7f81611d43565b9050919050565b7f556e6d696e746564206c6567656e647300000000000000000000000000000000600082015250565b6000611dbc601083611c31565b9150611dc782611d86565b602082019050919050565b60006020820190508181036000830152611deb81611daf565b9050919050565b7f556e6d696e746564207261726573000000000000000000000000000000000000600082015250565b6000611e28600e83611c31565b9150611e3382611df2565b602082019050919050565b60006020820190508181036000830152611e5781611e1b565b9050919050565b7f556e6d696e74656420756e636f6d6d6f6e730000000000000000000000000000600082015250565b6000611e94601283611c31565b9150611e9f82611e5e565b602082019050919050565b60006020820190508181036000830152611ec381611e87565b9050919050565b7f556e6d696e74656420636f6d6d6f6e7300000000000000000000000000000000600082015250565b6000611f00601083611c31565b9150611f0b82611eca565b602082019050919050565b60006020820190508181036000830152611f2f81611ef3565b9050919050565b7f416c7265616479206d696e746564000000000000000000000000000000000000600082015250565b6000611f6c600e83611c31565b9150611f7782611f36565b602082019050919050565b60006020820190508181036000830152611f9b81611f5f565b9050919050565b7f6e756d546f4d696e742030000000000000000000000000000000000000000000600082015250565b6000611fd8600b83611c31565b9150611fe382611fa2565b602082019050919050565b6000602082019050818103600083015261200781611fcb565b9050919050565b7f4e487b7100000000000000000000000000000000000000000000000000000000600052602160045260246000fd5b600061ffff82169050919050565b7f4e487b7100000000000000000000000000000000000000000000000000000000600052601160045260246000fd5b60006120858261203d565b91506120908361203d565b9250828201905061ffff8111156120aa576120a961204b565b5b92915050565b60006120bb8261203d565b91506120c68361203d565b9250828203905061ffff8111156120e0576120df61204b565b5b92915050565b7f496e76616c696420636c61737300000000000000000000000000000000000000600082015250565b600061211c600d83611c31565b9150612127826120e6565b602082019050919050565b6000602082019050818103600083015261214b8161210f565b9050919050565b7f737570706c7920696e73756666696369656e7400000000000000000000000000600082015250565b6000612188601383611c31565b915061219382612152565b602082019050919050565b600060208201905081810360008301526121b78161217b565b9050919050565b7f6e6f207075626c696320726f756e6420756e6c6f636b65640000000000000000600082015250565b60006121f4601883611c31565b91506121ff826121be565b602082019050919050565b60006020820190508181036000830152612223816121e7565b9050919050565b7f4f776e61626c653a206e6577206f776e657220697320746865207a65726f206160008201527f6464726573730000000000000000000000000000000000000000000000000000602082015250565b6000612286602683611c31565b91506122918261222a565b604082019050919050565b600060208201905081810360008301526122b581612279565b9050919050565b7f5061757361626c653a2070617573656400000000000000000000000000000000600082015250565b60006122f2601083611c31565b91506122fd826122bc565b602082019050919050565b60006020820190508181036000830152612321816122e5565b9050919050565b600060408201905061233d6000830185611b79565b61234a6020830184611a1d565b9392505050565b600581106123625761236161200e565b5b50565b600081905061237382612351565b919050565b600061238382612365565b9050919050565b61239381612378565b82525050565b60006060820190506123ae6000830186611b79565b6123bb6020830185611a1d565b6123c8604083018461238a565b949350505050565b60006123db82611a13565b91507fffffffffffffffffffffffffffffffffffffffffffffffffffffffffffffffff820361240d5761240c61204b565b5b600182019050919050565b600061242382611a13565b915061242e83611a13565b92508282039050818111156124465761244561204b565b5b92915050565b600061245782611a13565b915061246283611a13565b925082820190508082111561247a5761247961204b565b5b92915050565b7f5265656e7472616e637947756172643a207265656e7472616e742063616c6c00600082015250565b60006124b6601f83611c31565b91506124c182612480565b602082019050919050565b600060208201905081810360008301526124e5816124a9565b9050919050565b7f4f776e61626c653a2063616c6c6572206973206e6f7420746865206f776e6572600082015250565b6000612522602083611c31565b915061252d826124ec565b602082019050919050565b6000602082019050818103600083015261255181612515565b9050919050565b7f5061757361626c653a206e6f7420706175736564000000000000000000000000600082015250565b600061258e601483611c31565b915061259982612558565b602082019050919050565b600060208201905081810360008301526125bd81612581565b905091905056fea26469706673582212203555440f51a19e3d573c394158f130561dd36cf058ad92e49a134f8719056c8864736f6c63430008130033",
			"opcodes": "PUSH1 0x80 PUSH1 0x40 MSTORE CALLVALUE DUP1 ISZERO PUSH3 0x11 JUMPI PUSH1 0x0 DUP1 REVERT JUMPDEST POP PUSH1 0x40 MLOAD PUSH3 0x2938 CODESIZE SUB DUP1 PUSH3 0x2938 DUP4 CODECOPY DUP2 DUP2 ADD PUSH1 0x40 MSTORE DUP2 ADD SWAP1 PUSH3 0x37 SWAP2 SWAP1 PUSH3 0x2D2 JUMP JUMPDEST PUSH3 0x57 PUSH3 0x4B PUSH3 0x19C PUSH1 0x20 SHL PUSH1 0x20 SHR JUMP JUMPDEST PUSH3 0x1A4 PUSH1 0x20 SHL PUSH1 0x20 SHR JUMP JUMPDEST PUSH1 0x0 DUP1 PUSH1 0x14 PUSH2 0x100 EXP DUP2 SLOAD DUP2 PUSH1 0xFF MUL NOT AND SWAP1 DUP4 ISZERO ISZERO MUL OR SWAP1 SSTORE POP PUSH1 0x1 DUP1 DUP2 SWAP1 SSTORE POP DUP3 PUSH1 0x2 PUSH1 0x0 PUSH2 0x100 EXP DUP2 SLOAD DUP2 PUSH20 0xFFFFFFFFFFFFFFFFFFFFFFFFFFFFFFFFFFFFFFFF MUL NOT AND SWAP1 DUP4 PUSH20 0xFFFFFFFFFFFFFFFFFFFFFFFFFFFFFFFFFFFFFFFF AND MUL OR SWAP1 SSTORE POP DUP2 PUSH1 0x3 PUSH1 0x0 PUSH2 0x100 EXP DUP2 SLOAD DUP2 PUSH20 0xFFFFFFFFFFFFFFFFFFFFFFFFFFFFFFFFFFFFFFFF MUL NOT AND SWAP1 DUP4 PUSH20 0xFFFFFFFFFFFFFFFFFFFFFFFFFFFFFFFFFFFFFFFF AND MUL OR SWAP1 SSTORE POP DUP1 PUSH1 0x4 PUSH1 0x0 PUSH2 0x100 EXP DUP2 SLOAD DUP2 PUSH20 0xFFFFFFFFFFFFFFFFFFFFFFFFFFFFFFFFFFFFFFFF MUL NOT AND SWAP1 DUP4 PUSH20 0xFFFFFFFFFFFFFFFFFFFFFFFFFFFFFFFFFFFFFFFF AND MUL OR SWAP1 SSTORE POP PUSH1 0x1 PUSH1 0x5 PUSH1 0x0 CALLER PUSH20 0xFFFFFFFFFFFFFFFFFFFFFFFFFFFFFFFFFFFFFFFF AND PUSH20 0xFFFFFFFFFFFFFFFFFFFFFFFFFFFFFFFFFFFFFFFF AND DUP2 MSTORE PUSH1 0x20 ADD SWAP1 DUP2 MSTORE PUSH1 0x20 ADD PUSH1 0x0 KECCAK256 PUSH1 0x0 PUSH2 0x100 EXP DUP2 SLOAD DUP2 PUSH1 0xFF MUL NOT AND SWAP1 DUP4 ISZERO ISZERO MUL OR SWAP1 SSTORE POP POP POP POP PUSH3 0x32E JUMP JUMPDEST PUSH1 0x0 CALLER SWAP1 POP SWAP1 JUMP JUMPDEST PUSH1 0x0 DUP1 PUSH1 0x0 SWAP1 SLOAD SWAP1 PUSH2 0x100 EXP SWAP1 DIV PUSH20 0xFFFFFFFFFFFFFFFFFFFFFFFFFFFFFFFFFFFFFFFF AND SWAP1 POP DUP2 PUSH1 0x0 DUP1 PUSH2 0x100 EXP DUP2 SLOAD DUP2 PUSH20 0xFFFFFFFFFFFFFFFFFFFFFFFFFFFFFFFFFFFFFFFF MUL NOT AND SWAP1 DUP4 PUSH20 0xFFFFFFFFFFFFFFFFFFFFFFFFFFFFFFFFFFFFFFFF AND MUL OR SWAP1 SSTORE POP DUP2 PUSH20 0xFFFFFFFFFFFFFFFFFFFFFFFFFFFFFFFFFFFFFFFF AND DUP2 PUSH20 0xFFFFFFFFFFFFFFFFFFFFFFFFFFFFFFFFFFFFFFFF AND PUSH32 0x8BE0079C531659141344CD1FD0A4F28419497F9722A3DAAFE3B4186F6B6457E0 PUSH1 0x40 MLOAD PUSH1 0x40 MLOAD DUP1 SWAP2 SUB SWAP1 LOG3 POP POP JUMP JUMPDEST PUSH1 0x0 DUP1 REVERT JUMPDEST PUSH1 0x0 PUSH20 0xFFFFFFFFFFFFFFFFFFFFFFFFFFFFFFFFFFFFFFFF DUP3 AND SWAP1 POP SWAP2 SWAP1 POP JUMP JUMPDEST PUSH1 0x0 PUSH3 0x29A DUP3 PUSH3 0x26D JUMP JUMPDEST SWAP1 POP SWAP2 SWAP1 POP JUMP JUMPDEST PUSH3 0x2AC DUP2 PUSH3 0x28D JUMP JUMPDEST DUP2 EQ PUSH3 0x2B8 JUMPI PUSH1 0x0 DUP1 REVERT JUMPDEST POP JUMP JUMPDEST PUSH1 0x0 DUP2 MLOAD SWAP1 POP PUSH3 0x2CC DUP2 PUSH3 0x2A1 JUMP JUMPDEST SWAP3 SWAP2 POP POP JUMP JUMPDEST PUSH1 0x0 DUP1 PUSH1 0x0 PUSH1 0x60 DUP5 DUP7 SUB SLT ISZERO PUSH3 0x2EE JUMPI PUSH3 0x2ED PUSH3 0x268 JUMP JUMPDEST JUMPDEST PUSH1 0x0 PUSH3 0x2FE DUP7 DUP3 DUP8 ADD PUSH3 0x2BB JUMP JUMPDEST SWAP4 POP POP PUSH1 0x20 PUSH3 0x311 DUP7 DUP3 DUP8 ADD PUSH3 0x2BB JUMP JUMPDEST SWAP3 POP POP PUSH1 0x40 PUSH3 0x324 DUP7 DUP3 DUP8 ADD PUSH3 0x2BB JUMP JUMPDEST SWAP2 POP POP SWAP3 POP SWAP3 POP SWAP3 JUMP JUMPDEST PUSH2 0x25FA DUP1 PUSH3 0x33E PUSH1 0x0 CODECOPY PUSH1 0x0 RETURN INVALID PUSH1 0x80 PUSH1 0x40 MSTORE PUSH1 0x4 CALLDATASIZE LT PUSH2 0x1B7 JUMPI PUSH1 0x0 CALLDATALOAD PUSH1 0xE0 SHR DUP1 PUSH4 0x8D36F8F4 GT PUSH2 0xEC JUMPI DUP1 PUSH4 0xC8D4FC60 GT PUSH2 0x8A JUMPI DUP1 PUSH4 0xF17A6777 GT PUSH2 0x64 JUMPI DUP1 PUSH4 0xF17A6777 EQ PUSH2 0x515 JUMPI DUP1 PUSH4 0xF2C5D797 EQ PUSH2 0x531 JUMPI DUP1 PUSH4 0xF2FDE38B EQ PUSH2 0x55C JUMPI DUP1 PUSH4 0xF78F680A EQ PUSH2 0x585 JUMPI PUSH2 0x1B7 JUMP JUMPDEST DUP1 PUSH4 0xC8D4FC60 EQ PUSH2 0x490 JUMPI DUP1 PUSH4 0xD47E107E EQ PUSH2 0x4BB JUMPI DUP1 PUSH4 0xD87B320B EQ PUSH2 0x4D7 JUMPI PUSH2 0x1B7 JUMP JUMPDEST DUP1 PUSH4 0x98EAA4A7 GT PUSH2 0xC6 JUMPI DUP1 PUSH4 0x98EAA4A7 EQ PUSH2 0x404 JUMPI DUP1 PUSH4 0x9F158A78 EQ PUSH2 0x42D JUMPI DUP1 PUSH4 0xA8372307 EQ PUSH2 0x458 JUMPI DUP1 PUSH4 0xBAD688C6 EQ PUSH2 0x474 JUMPI PUSH2 0x1B7 JUMP JUMPDEST DUP1 PUSH4 0x8D36F8F4 EQ PUSH2 0x392 JUMPI DUP1 PUSH4 0x8DA5CB5B EQ PUSH2 0x3AE JUMPI DUP1 PUSH4 0x953A6CA8 EQ PUSH2 0x3D9 JUMPI PUSH2 0x1B7 JUMP JUMPDEST DUP1 PUSH4 0x508F0628 GT PUSH2 0x159 JUMPI DUP1 PUSH4 0x6F785CDF GT PUSH2 0x133 JUMPI DUP1 PUSH4 0x6F785CDF EQ PUSH2 0x322 JUMPI DUP1 PUSH4 0x715018A6 EQ PUSH2 0x34D JUMPI DUP1 PUSH4 0x7E7F57F2 EQ PUSH2 0x364 JUMPI DUP1 PUSH4 0x8456CB59 EQ PUSH2 0x37B JUMPI PUSH2 0x1B7 JUMP JUMPDEST DUP1 PUSH4 0x508F0628 EQ PUSH2 0x2B0 JUMPI DUP1 PUSH4 0x5C975ABB EQ PUSH2 0x2CC JUMPI DUP1 PUSH4 0x5EEE43F0 EQ PUSH2 0x2F7 JUMPI PUSH2 0x1B7 JUMP JUMPDEST DUP1 PUSH4 0x28D3BD1B GT PUSH2 0x195 JUMPI DUP1 PUSH4 0x28D3BD1B EQ PUSH2 0x22E JUMPI DUP1 PUSH4 0x329CC83F EQ PUSH2 0x245 JUMPI DUP1 PUSH4 0x3A149127 EQ PUSH2 0x26E JUMPI DUP1 PUSH4 0x3F4BA83A EQ PUSH2 0x299 JUMPI PUSH2 0x1B7 JUMP JUMPDEST DUP1 PUSH4 0x87BD107 EQ PUSH2 0x1BC JUMPI DUP1 PUSH4 0x1592FB2A EQ PUSH2 0x1E7 JUMPI DUP1 PUSH4 0x20A0C034 EQ PUSH2 0x212 JUMPI JUMPDEST PUSH1 0x0 DUP1 REVERT JUMPDEST CALLVALUE DUP1 ISZERO PUSH2 0x1C8 JUMPI PUSH1 0x0 DUP1 REVERT JUMPDEST POP PUSH2 0x1D1 PUSH2 0x5A1 JUMP JUMPDEST PUSH1 0x40 MLOAD PUSH2 0x1DE SWAP2 SWAP1 PUSH2 0x1A2C JUMP JUMPDEST PUSH1 0x40 MLOAD DUP1 SWAP2 SUB SWAP1 RETURN JUMPDEST CALLVALUE DUP1 ISZERO PUSH2 0x1F3 JUMPI PUSH1 0x0 DUP1 REVERT JUMPDEST POP PUSH2 0x1FC PUSH2 0x5AD JUMP JUMPDEST PUSH1 0x40 MLOAD PUSH2 0x209 SWAP2 SWAP1 PUSH2 0x1A2C JUMP JUMPDEST PUSH1 0x40 MLOAD DUP1 SWAP2 SUB SWAP1 RETURN JUMPDEST PUSH2 0x22C PUSH1 0x4 DUP1 CALLDATASIZE SUB DUP2 ADD SWAP1 PUSH2 0x227 SWAP2 SWAP1 PUSH2 0x1AD6 JUMP JUMPDEST PUSH2 0x5B9 JUMP JUMPDEST STOP JUMPDEST CALLVALUE DUP1 ISZERO PUSH2 0x23A JUMPI PUSH1 0x0 DUP1 REVERT JUMPDEST POP PUSH2 0x243 PUSH2 0x5D2 JUMP JUMPDEST STOP JUMPDEST CALLVALUE DUP1 ISZERO PUSH2 0x251 JUMPI PUSH1 0x0 DUP1 REVERT JUMPDEST POP PUSH2 0x26C PUSH1 0x4 DUP1 CALLDATASIZE SUB DUP2 ADD SWAP1 PUSH2 0x267 SWAP2 SWAP1 PUSH2 0x1B16 JUMP JUMPDEST PUSH2 0x8FD JUMP JUMPDEST STOP JUMPDEST CALLVALUE DUP1 ISZERO PUSH2 0x27A JUMPI PUSH1 0x0 DUP1 REVERT JUMPDEST POP PUSH2 0x283 PUSH2 0xA32 JUMP JUMPDEST PUSH1 0x40 MLOAD PUSH2 0x290 SWAP2 SWAP1 PUSH2 0x1A2C JUMP JUMPDEST PUSH1 0x40 MLOAD DUP1 SWAP2 SUB SWAP1 RETURN JUMPDEST CALLVALUE DUP1 ISZERO PUSH2 0x2A5 JUMPI PUSH1 0x0 DUP1 REVERT JUMPDEST POP PUSH2 0x2AE PUSH2 0xA3E JUMP JUMPDEST STOP JUMPDEST PUSH2 0x2CA PUSH1 0x4 DUP1 CALLDATASIZE SUB DUP2 ADD SWAP1 PUSH2 0x2C5 SWAP2 SWAP1 PUSH2 0x1B16 JUMP JUMPDEST PUSH2 0xA50 JUMP JUMPDEST STOP JUMPDEST CALLVALUE DUP1 ISZERO PUSH2 0x2D8 JUMPI PUSH1 0x0 DUP1 REVERT JUMPDEST POP PUSH2 0x2E1 PUSH2 0xA69 JUMP JUMPDEST PUSH1 0x40 MLOAD PUSH2 0x2EE SWAP2 SWAP1 PUSH2 0x1B5E JUMP JUMPDEST PUSH1 0x40 MLOAD DUP1 SWAP2 SUB SWAP1 RETURN JUMPDEST CALLVALUE DUP1 ISZERO PUSH2 0x303 JUMPI PUSH1 0x0 DUP1 REVERT JUMPDEST POP PUSH2 0x30C PUSH2 0xA7F JUMP JUMPDEST PUSH1 0x40 MLOAD PUSH2 0x319 SWAP2 SWAP1 PUSH2 0x1B5E JUMP JUMPDEST PUSH1 0x40 MLOAD DUP1 SWAP2 SUB SWAP1 RETURN JUMPDEST CALLVALUE DUP1 ISZERO PUSH2 0x32E JUMPI PUSH1 0x0 DUP1 REVERT JUMPDEST POP PUSH2 0x337 PUSH2 0xA92 JUMP JUMPDEST PUSH1 0x40 MLOAD PUSH2 0x344 SWAP2 SWAP1 PUSH2 0x1A2C JUMP JUMPDEST PUSH1 0x40 MLOAD DUP1 SWAP2 SUB SWAP1 RETURN JUMPDEST CALLVALUE DUP1 ISZERO PUSH2 0x359 JUMPI PUSH1 0x0 DUP1 REVERT JUMPDEST POP PUSH2 0x362 PUSH2 0xA9E JUMP JUMPDEST STOP JUMPDEST CALLVALUE DUP1 ISZERO PUSH2 0x370 JUMPI PUSH1 0x0 DUP1 REVERT JUMPDEST POP PUSH2 0x379 PUSH2 0xAB2 JUMP JUMPDEST STOP JUMPDEST CALLVALUE DUP1 ISZERO PUSH2 0x387 JUMPI PUSH1 0x0 DUP1 REVERT JUMPDEST POP PUSH2 0x390 PUSH2 0xC12 JUMP JUMPDEST STOP JUMPDEST PUSH2 0x3AC PUSH1 0x4 DUP1 CALLDATASIZE SUB DUP2 ADD SWAP1 PUSH2 0x3A7 SWAP2 SWAP1 PUSH2 0x1B16 JUMP JUMPDEST PUSH2 0xC24 JUMP JUMPDEST STOP JUMPDEST CALLVALUE DUP1 ISZERO PUSH2 0x3BA JUMPI PUSH1 0x0 DUP1 REVERT JUMPDEST POP PUSH2 0x3C3 PUSH2 0xC3D JUMP JUMPDEST PUSH1 0x40 MLOAD PUSH2 0x3D0 SWAP2 SWAP1 PUSH2 0x1B88 JUMP JUMPDEST PUSH1 0x40 MLOAD DUP1 SWAP2 SUB SWAP1 RETURN JUMPDEST CALLVALUE DUP1 ISZERO PUSH2 0x3E5 JUMPI PUSH1 0x0 DUP1 REVERT JUMPDEST POP PUSH2 0x3EE PUSH2 0xC66 JUMP JUMPDEST PUSH1 0x40 MLOAD PUSH2 0x3FB SWAP2 SWAP1 PUSH2 0x1B5E JUMP JUMPDEST PUSH1 0x40 MLOAD DUP1 SWAP2 SUB SWAP1 RETURN JUMPDEST CALLVALUE DUP1 ISZERO PUSH2 0x410 JUMPI PUSH1 0x0 DUP1 REVERT JUMPDEST POP PUSH2 0x42B PUSH1 0x4 DUP1 CALLDATASIZE SUB DUP2 ADD SWAP1 PUSH2 0x426 SWAP2 SWAP1 PUSH2 0x1B16 JUMP JUMPDEST PUSH2 0xC79 JUMP JUMPDEST STOP JUMPDEST CALLVALUE DUP1 ISZERO PUSH2 0x439 JUMPI PUSH1 0x0 DUP1 REVERT JUMPDEST POP PUSH2 0x442 PUSH2 0xCDC JUMP JUMPDEST PUSH1 0x40 MLOAD PUSH2 0x44F SWAP2 SWAP1 PUSH2 0x1A2C JUMP JUMPDEST PUSH1 0x40 MLOAD DUP1 SWAP2 SUB SWAP1 RETURN JUMPDEST PUSH2 0x472 PUSH1 0x4 DUP1 CALLDATASIZE SUB DUP2 ADD SWAP1 PUSH2 0x46D SWAP2 SWAP1 PUSH2 0x1B16 JUMP JUMPDEST PUSH2 0xCE8 JUMP JUMPDEST STOP JUMPDEST PUSH2 0x48E PUSH1 0x4 DUP1 CALLDATASIZE SUB DUP2 ADD SWAP1 PUSH2 0x489 SWAP2 SWAP1 PUSH2 0x1AD6 JUMP JUMPDEST PUSH2 0xD00 JUMP JUMPDEST STOP JUMPDEST CALLVALUE DUP1 ISZERO PUSH2 0x49C JUMPI PUSH1 0x0 DUP1 REVERT JUMPDEST POP PUSH2 0x4A5 PUSH2 0xD19 JUMP JUMPDEST PUSH1 0x40 MLOAD PUSH2 0x4B2 SWAP2 SWAP1 PUSH2 0x1B5E JUMP JUMPDEST PUSH1 0x40 MLOAD DUP1 SWAP2 SUB SWAP1 RETURN JUMPDEST PUSH2 0x4D5 PUSH1 0x4 DUP1 CALLDATASIZE SUB DUP2 ADD SWAP1 PUSH2 0x4D0 SWAP2 SWAP1 PUSH2 0x1B16 JUMP JUMPDEST PUSH2 0xD2C JUMP JUMPDEST STOP JUMPDEST CALLVALUE DUP1 ISZERO PUSH2 0x4E3 JUMPI PUSH1 0x0 DUP1 REVERT JUMPDEST POP PUSH2 0x4FE PUSH1 0x4 DUP1 CALLDATASIZE SUB DUP2 ADD SWAP1 PUSH2 0x4F9 SWAP2 SWAP1 PUSH2 0x1BC8 JUMP JUMPDEST PUSH2 0xD45 JUMP JUMPDEST PUSH1 0x40 MLOAD PUSH2 0x50C SWAP3 SWAP2 SWAP1 PUSH2 0x1C08 JUMP JUMPDEST PUSH1 0x40 MLOAD DUP1 SWAP2 SUB SWAP1 RETURN JUMPDEST PUSH2 0x52F PUSH1 0x4 DUP1 CALLDATASIZE SUB DUP2 ADD SWAP1 PUSH2 0x52A SWAP2 SWAP1 PUSH2 0x1AD6 JUMP JUMPDEST PUSH2 0x11EF JUMP JUMPDEST STOP JUMPDEST CALLVALUE DUP1 ISZERO PUSH2 0x53D JUMPI PUSH1 0x0 DUP1 REVERT JUMPDEST POP PUSH2 0x546 PUSH2 0x1208 JUMP JUMPDEST PUSH1 0x40 MLOAD PUSH2 0x553 SWAP2 SWAP1 PUSH2 0x1B5E JUMP JUMPDEST PUSH1 0x40 MLOAD DUP1 SWAP2 SUB SWAP1 RETURN JUMPDEST CALLVALUE DUP1 ISZERO PUSH2 0x568 JUMPI PUSH1 0x0 DUP1 REVERT JUMPDEST POP PUSH2 0x583 PUSH1 0x4 DUP1 CALLDATASIZE SUB DUP2 ADD SWAP1 PUSH2 0x57E SWAP2 SWAP1 PUSH2 0x1B16 JUMP JUMPDEST PUSH2 0x121B JUMP JUMPDEST STOP JUMPDEST PUSH2 0x59F PUSH1 0x4 DUP1 CALLDATASIZE SUB DUP2 ADD SWAP1 PUSH2 0x59A SWAP2 SWAP1 PUSH2 0x1AD6 JUMP JUMPDEST PUSH2 0x129E JUMP JUMPDEST STOP JUMPDEST PUSH1 0x6 DUP1 PUSH1 0x0 ADD SLOAD SWAP1 POP DUP2 JUMP JUMPDEST PUSH1 0x7 DUP1 PUSH1 0x0 ADD SLOAD SWAP1 POP DUP2 JUMP JUMPDEST PUSH2 0x5C1 PUSH2 0x12B7 JUMP JUMPDEST PUSH2 0x5CD DUP3 DUP3 PUSH1 0x1 PUSH2 0x1301 JUMP JUMPDEST POP POP POP JUMP JUMPDEST PUSH2 0x5DA PUSH2 0x12B7 JUMP JUMPDEST PUSH2 0x5E2 PUSH2 0x173F JUMP JUMPDEST PUSH1 0x5 PUSH1 0x0 CALLER PUSH20 0xFFFFFFFFFFFFFFFFFFFFFFFFFFFFFFFFFFFFFFFF AND PUSH20 0xFFFFFFFFFFFFFFFFFFFFFFFFFFFFFFFFFFFFFFFF AND DUP2 MSTORE PUSH1 0x20 ADD SWAP1 DUP2 MSTORE PUSH1 0x20 ADD PUSH1 0x0 KECCAK256 PUSH1 0x0 SWAP1 SLOAD SWAP1 PUSH2 0x100 EXP SWAP1 DIV PUSH1 0xFF AND PUSH2 0x66E JUMPI PUSH1 0x40 MLOAD PUSH32 0x8C379A000000000000000000000000000000000000000000000000000000000 DUP2 MSTORE PUSH1 0x4 ADD PUSH2 0x665 SWAP1 PUSH2 0x1C8E JUMP JUMPDEST PUSH1 0x40 MLOAD DUP1 SWAP2 SUB SWAP1 REVERT JUMPDEST PUSH1 0xB PUSH1 0x2 SWAP1 SLOAD SWAP1 PUSH2 0x100 EXP SWAP1 DIV PUSH1 0xFF AND ISZERO PUSH2 0x6BE JUMPI PUSH1 0x40 MLOAD PUSH32 0x8C379A000000000000000000000000000000000000000000000000000000000 DUP2 MSTORE PUSH1 0x4 ADD PUSH2 0x6B5 SWAP1 PUSH2 0x1CFA JUMP JUMPDEST PUSH1 0x40 MLOAD DUP1 SWAP2 SUB SWAP1 REVERT JUMPDEST PUSH1 0xB PUSH1 0x0 SWAP1 SLOAD SWAP1 PUSH2 0x100 EXP SWAP1 DIV PUSH1 0xFF AND PUSH2 0x70D JUMPI PUSH1 0x40 MLOAD PUSH32 0x8C379A000000000000000000000000000000000000000000000000000000000 DUP2 MSTORE PUSH1 0x4 ADD PUSH2 0x704 SWAP1 PUSH2 0x1D66 JUMP JUMPDEST PUSH1 0x40 MLOAD DUP1 SWAP2 SUB SWAP1 REVERT JUMPDEST PUSH1 0xB PUSH1 0x1 SWAP1 SLOAD SWAP1 PUSH2 0x100 EXP SWAP1 DIV PUSH1 0xFF AND DUP1 ISZERO PUSH2 0x73A JUMPI POP PUSH1 0x1 PUSH2 0xFFFF AND PUSH2 0x734 PUSH1 0x7 PUSH2 0x178E JUMP JUMPDEST PUSH2 0xFFFF AND LT JUMPDEST PUSH2 0x779 JUMPI PUSH1 0x40 MLOAD PUSH32 0x8C379A000000000000000000000000000000000000000000000000000000000 DUP2 MSTORE PUSH1 0x4 ADD PUSH2 0x770 SWAP1 PUSH2 0x1DD2 JUMP JUMPDEST PUSH1 0x40 MLOAD DUP1 SWAP2 SUB SWAP1 REVERT JUMPDEST PUSH1 0xB PUSH1 0x1 SWAP1 SLOAD SWAP1 PUSH2 0x100 EXP SWAP1 DIV PUSH1 0xFF AND DUP1 ISZERO PUSH2 0x7A6 JUMPI POP PUSH1 0x5 PUSH2 0xFFFF AND PUSH2 0x7A0 PUSH1 0x8 PUSH2 0x178E JUMP JUMPDEST PUSH2 0xFFFF AND LT JUMPDEST PUSH2 0x7E5 JUMPI PUSH1 0x40 MLOAD PUSH32 0x8C379A000000000000000000000000000000000000000000000000000000000 DUP2 MSTORE PUSH1 0x4 ADD PUSH2 0x7DC SWAP1 PUSH2 0x1E3E JUMP JUMPDEST PUSH1 0x40 MLOAD DUP1 SWAP2 SUB SWAP1 REVERT JUMPDEST PUSH1 0xB PUSH1 0x1 SWAP1 SLOAD SWAP1 PUSH2 0x100 EXP SWAP1 DIV PUSH1 0xFF AND DUP1 ISZERO PUSH2 0x812 JUMPI POP PUSH1 0x19 PUSH2 0xFFFF AND PUSH2 0x80C PUSH1 0x9 PUSH2 0x178E JUMP JUMPDEST PUSH2 0xFFFF AND LT JUMPDEST PUSH2 0x851 JUMPI PUSH1 0x40 MLOAD PUSH32 0x8C379A000000000000000000000000000000000000000000000000000000000 DUP2 MSTORE PUSH1 0x4 ADD PUSH2 0x848 SWAP1 PUSH2 0x1EAA JUMP JUMPDEST PUSH1 0x40 MLOAD DUP1 SWAP2 SUB SWAP1 REVERT JUMPDEST PUSH1 0xB PUSH1 0x1 SWAP1 SLOAD SWAP1 PUSH2 0x100 EXP SWAP1 DIV PUSH1 0xFF AND DUP1 ISZERO PUSH2 0x87E JUMPI POP PUSH1 0x7D PUSH2 0xFFFF AND PUSH2 0x878 PUSH1 0xA PUSH2 0x178E JUMP JUMPDEST PUSH2 0xFFFF AND LT JUMPDEST PUSH2 0x8BD JUMPI PUSH1 0x40 MLOAD PUSH32 0x8C379A000000000000000000000000000000000000000000000000000000000 DUP2 MSTORE PUSH1 0x4 ADD PUSH2 0x8B4 SWAP1 PUSH2 0x1F16 JUMP JUMPDEST PUSH1 0x40 MLOAD DUP1 SWAP2 SUB SWAP1 REVERT JUMPDEST PUSH1 0x1 PUSH1 0xB PUSH1 0x2 PUSH2 0x100 EXP DUP2 SLOAD DUP2 PUSH1 0xFF MUL NOT AND SWAP1 DUP4 ISZERO ISZERO MUL OR SWAP1 SSTORE POP PUSH1 0x0 PUSH1 0xB PUSH1 0x1 PUSH2 0x100 EXP DUP2 SLOAD DUP2 PUSH1 0xFF MUL NOT AND SWAP1 DUP4 ISZERO ISZERO MUL OR SWAP1 SSTORE POP PUSH2 0x8FB PUSH2 0x179C JUMP JUMPDEST JUMP JUMPDEST PUSH2 0x905 PUSH2 0x12B7 JUMP JUMPDEST PUSH2 0x90D PUSH2 0x173F JUMP JUMPDEST PUSH1 0x5 PUSH1 0x0 CALLER PUSH20 0xFFFFFFFFFFFFFFFFFFFFFFFFFFFFFFFFFFFFFFFF AND PUSH20 0xFFFFFFFFFFFFFFFFFFFFFFFFFFFFFFFFFFFFFFFF AND DUP2 MSTORE PUSH1 0x20 ADD SWAP1 DUP2 MSTORE PUSH1 0x20 ADD PUSH1 0x0 KECCAK256 PUSH1 0x0 SWAP1 SLOAD SWAP1 PUSH2 0x100 EXP SWAP1 DIV PUSH1 0xFF AND PUSH2 0x999 JUMPI PUSH1 0x40 MLOAD PUSH32 0x8C379A000000000000000000000000000000000000000000000000000000000 DUP2 MSTORE PUSH1 0x4 ADD PUSH2 0x990 SWAP1 PUSH2 0x1C8E JUMP JUMPDEST PUSH1 0x40 MLOAD DUP1 SWAP2 SUB SWAP1 REVERT JUMPDEST PUSH1 0xB PUSH1 0x0 SWAP1 SLOAD SWAP1 PUSH2 0x100 EXP SWAP1 DIV PUSH1 0xFF AND ISZERO PUSH2 0x9E9 JUMPI PUSH1 0x40 MLOAD PUSH32 0x8C379A000000000000000000000000000000000000000000000000000000000 DUP2 MSTORE PUSH1 0x4 ADD PUSH2 0x9E0 SWAP1 PUSH2 0x1F82 JUMP JUMPDEST PUSH1 0x40 MLOAD DUP1 SWAP2 SUB SWAP1 REVERT JUMPDEST PUSH1 0x0 PUSH2 0x9FC DUP3 PUSH1 0x19 PUSH2 0xFFFF AND PUSH1 0x0 PUSH2 0x1301 JUMP JUMPDEST SWAP1 POP PUSH1 0x19 PUSH2 0xFFFF AND DUP2 SUB PUSH2 0xA26 JUMPI PUSH1 0x1 PUSH1 0xB PUSH1 0x0 PUSH2 0x100 EXP DUP2 SLOAD DUP2 PUSH1 0xFF MUL NOT AND SWAP1 DUP4 ISZERO ISZERO MUL OR SWAP1 SSTORE POP JUMPDEST POP PUSH2 0xA2F PUSH2 0x179C JUMP JUMPDEST POP JUMP JUMPDEST PUSH1 0x8 DUP1 PUSH1 0x0 ADD SLOAD SWAP1 POP DUP2 JUMP JUMPDEST PUSH2 0xA46 PUSH2 0x17A5 JUMP JUMPDEST PUSH2 0xA4E PUSH2 0x1823 JUMP JUMPDEST JUMP JUMPDEST PUSH2 0xA58 PUSH2 0x12B7 JUMP JUMPDEST PUSH2 0xA65 DUP2 PUSH1 0x1 PUSH1 0x3 PUSH2 0x1301 JUMP JUMPDEST POP POP JUMP JUMPDEST PUSH1 0x0 DUP1 PUSH1 0x14 SWAP1 SLOAD SWAP1 PUSH2 0x100 EXP SWAP1 DIV PUSH1 0xFF AND SWAP1 POP SWAP1 JUMP JUMPDEST PUSH1 0xB PUSH1 0x3 SWAP1 SLOAD SWAP1 PUSH2 0x100 EXP SWAP1 DIV PUSH1 0xFF AND DUP2 JUMP JUMPDEST PUSH1 0xA DUP1 PUSH1 0x0 ADD SLOAD SWAP1 POP DUP2 JUMP JUMPDEST PUSH2 0xAA6 PUSH2 0x17A5 JUMP JUMPDEST PUSH2 0xAB0 PUSH1 0x0 PUSH2 0x1885 JUMP JUMPDEST JUMP JUMPDEST PUSH2 0xABA PUSH2 0x12B7 JUMP JUMPDEST PUSH2 0xAC2 PUSH2 0x173F JUMP JUMPDEST PUSH1 0x5 PUSH1 0x0 CALLER PUSH20 0xFFFFFFFFFFFFFFFFFFFFFFFFFFFFFFFFFFFFFFFF AND PUSH20 0xFFFFFFFFFFFFFFFFFFFFFFFFFFFFFFFFFFFFFFFF AND DUP2 MSTORE PUSH1 0x20 ADD SWAP1 DUP2 MSTORE PUSH1 0x20 ADD PUSH1 0x0 KECCAK256 PUSH1 0x0 SWAP1 SLOAD SWAP1 PUSH2 0x100 EXP SWAP1 DIV PUSH1 0xFF AND PUSH2 0xB4E JUMPI PUSH1 0x40 MLOAD PUSH32 0x8C379A000000000000000000000000000000000000000000000000000000000 DUP2 MSTORE PUSH1 0x4 ADD PUSH2 0xB45 SWAP1 PUSH2 0x1C8E JUMP JUMPDEST PUSH1 0x40 MLOAD DUP1 SWAP2 SUB SWAP1 REVERT JUMPDEST PUSH1 0xB PUSH1 0x1 SWAP1 SLOAD SWAP1 PUSH2 0x100 EXP SWAP1 DIV PUSH1 0xFF AND ISZERO PUSH2 0xB9E JUMPI PUSH1 0x40 MLOAD PUSH32 0x8C379A000000000000000000000000000000000000000000000000000000000 DUP2 MSTORE PUSH1 0x4 ADD PUSH2 0xB95 SWAP1 PUSH2 0x1CFA JUMP JUMPDEST PUSH1 0x40 MLOAD DUP1 SWAP2 SUB SWAP1 REVERT JUMPDEST PUSH1 0xB PUSH1 0x0 SWAP1 SLOAD SWAP1 PUSH2 0x100 EXP SWAP1 DIV PUSH1 0xFF AND PUSH2 0xBED JUMPI PUSH1 0x40 MLOAD PUSH32 0x8C379A000000000000000000000000000000000000000000000000000000000 DUP2 MSTORE PUSH1 0x4 ADD PUSH2 0xBE4 SWAP1 PUSH2 0x1D66 JUMP JUMPDEST PUSH1 0x40 MLOAD DUP1 SWAP2 SUB SWAP1 REVERT JUMPDEST PUSH1 0x1 PUSH1 0xB PUSH1 0x1 PUSH2 0x100 EXP DUP2 SLOAD DUP2 PUSH1 0xFF MUL NOT AND SWAP1 DUP4 ISZERO ISZERO MUL OR SWAP1 SSTORE POP PUSH2 0xC10 PUSH2 0x179C JUMP JUMPDEST JUMP JUMPDEST PUSH2 0xC1A PUSH2 0x17A5 JUMP JUMPDEST PUSH2 0xC22 PUSH2 0x1949 JUMP JUMPDEST JUMP JUMPDEST PUSH2 0xC2C PUSH2 0x12B7 JUMP JUMPDEST PUSH2 0xC39 DUP2 PUSH1 0x1 PUSH1 0x2 PUSH2 0x1301 JUMP JUMPDEST POP POP JUMP JUMPDEST PUSH1 0x0 DUP1 PUSH1 0x0 SWAP1 SLOAD SWAP1 PUSH2 0x100 EXP SWAP1 DIV PUSH20 0xFFFFFFFFFFFFFFFFFFFFFFFFFFFFFFFFFFFFFFFF AND SWAP1 POP SWAP1 JUMP JUMPDEST PUSH1 0xB PUSH1 0x1 SWAP1 SLOAD SWAP1 PUSH2 0x100 EXP SWAP1 DIV PUSH1 0xFF AND DUP2 JUMP JUMPDEST PUSH2 0xC81 PUSH2 0x17A5 JUMP JUMPDEST PUSH1 0x1 PUSH1 0x5 PUSH1 0x0 DUP4 PUSH20 0xFFFFFFFFFFFFFFFFFFFFFFFFFFFFFFFFFFFFFFFF AND PUSH20 0xFFFFFFFFFFFFFFFFFFFFFFFFFFFFFFFFFFFFFFFF AND DUP2 MSTORE PUSH1 0x20 ADD SWAP1 DUP2 MSTORE PUSH1 0x20 ADD PUSH1 0x0 KECCAK256 PUSH1 0x0 PUSH2 0x100 EXP DUP2 SLOAD DUP2 PUSH1 0xFF MUL NOT AND SWAP1 DUP4 ISZERO ISZERO MUL OR SWAP1 SSTORE POP POP JUMP JUMPDEST PUSH1 0x9 DUP1 PUSH1 0x0 ADD SLOAD SWAP1 POP DUP2 JUMP JUMPDEST PUSH2 0xCF0 PUSH2 0x12B7 JUMP JUMPDEST PUSH2 0xCFC DUP2 PUSH1 0x1 DUP1 PUSH2 0x1301 JUMP JUMPDEST POP POP JUMP JUMPDEST PUSH2 0xD08 PUSH2 0x12B7 JUMP JUMPDEST PUSH2 0xD14 DUP3 DUP3 PUSH1 0x4 PUSH2 0x1301 JUMP JUMPDEST POP POP POP JUMP JUMPDEST PUSH1 0xB PUSH1 0x0 SWAP1 SLOAD SWAP1 PUSH2 0x100 EXP SWAP1 DIV PUSH1 0xFF AND DUP2 JUMP JUMPDEST PUSH2 0xD34 PUSH2 0x12B7 JUMP JUMPDEST PUSH2 0xD41 DUP2 PUSH1 0x1 PUSH1 0x4 PUSH2 0x1301 JUMP JUMPDEST POP POP JUMP JUMPDEST PUSH1 0x0 DUP1 PUSH2 0xD50 PUSH2 0x12B7 JUMP JUMPDEST PUSH1 0x0 DUP5 GT PUSH2 0xD93 JUMPI PUSH1 0x40 MLOAD PUSH32 0x8C379A000000000000000000000000000000000000000000000000000000000 DUP2 MSTORE PUSH1 0x4 ADD PUSH2 0xD8A SWAP1 PUSH2 0x1FEE JUMP JUMPDEST PUSH1 0x40 MLOAD DUP1 SWAP2 SUB SWAP1 REVERT JUMPDEST PUSH1 0xB PUSH1 0x0 SWAP1 SLOAD SWAP1 PUSH2 0x100 EXP SWAP1 DIV PUSH1 0xFF AND PUSH2 0xDE2 JUMPI PUSH1 0x40 MLOAD PUSH32 0x8C379A000000000000000000000000000000000000000000000000000000000 DUP2 MSTORE PUSH1 0x4 ADD PUSH2 0xDD9 SWAP1 PUSH2 0x1D66 JUMP JUMPDEST PUSH1 0x40 MLOAD DUP1 SWAP2 SUB SWAP1 REVERT JUMPDEST PUSH1 0x0 DUP1 PUSH1 0x0 DUP1 PUSH1 0x0 PUSH1 0x1 PUSH1 0x4 DUP2 GT ISZERO PUSH2 0xDFE JUMPI PUSH2 0xDFD PUSH2 0x200E JUMP JUMPDEST JUMPDEST DUP9 PUSH1 0x4 DUP2 GT ISZERO PUSH2 0xE11 JUMPI PUSH2 0xE10 PUSH2 0x200E JUMP JUMPDEST JUMPDEST SUB PUSH2 0xE7F JUMPI PUSH2 0xE20 PUSH1 0x7 PUSH2 0x178E JUMP JUMPDEST SWAP5 POP DUP9 DUP6 PUSH2 0xE2E SWAP2 SWAP1 PUSH2 0x207A JUMP JUMPDEST SWAP4 POP PUSH1 0x1 PUSH2 0xFFFF AND SWAP3 POP PUSH1 0xA PUSH2 0xFFFF AND SWAP2 POP PUSH1 0x50 PUSH2 0xFFFF AND SWAP1 POP DUP5 PUSH1 0x19 PUSH2 0xE55 SWAP2 SWAP1 PUSH2 0x207A JUMP JUMPDEST PUSH2 0xFFFF AND SWAP7 POP PUSH1 0x1 DUP5 PUSH1 0x19 PUSH2 0xE6A SWAP2 SWAP1 PUSH2 0x207A JUMP JUMPDEST PUSH2 0xE74 SWAP2 SWAP1 PUSH2 0x20B0 JUMP JUMPDEST PUSH2 0xFFFF AND SWAP6 POP PUSH2 0x1083 JUMP JUMPDEST PUSH1 0x2 PUSH1 0x4 DUP2 GT ISZERO PUSH2 0xE93 JUMPI PUSH2 0xE92 PUSH2 0x200E JUMP JUMPDEST JUMPDEST DUP9 PUSH1 0x4 DUP2 GT ISZERO PUSH2 0xEA6 JUMPI PUSH2 0xEA5 PUSH2 0x200E JUMP JUMPDEST JUMPDEST SUB PUSH2 0xF15 JUMPI PUSH2 0xEB5 PUSH1 0x8 PUSH2 0x178E JUMP JUMPDEST SWAP5 POP DUP9 DUP6 PUSH2 0xEC3 SWAP2 SWAP1 PUSH2 0x207A JUMP JUMPDEST SWAP4 POP PUSH1 0x5 PUSH2 0xFFFF AND SWAP3 POP PUSH1 0x32 PUSH2 0xFFFF AND SWAP2 POP PUSH2 0x190 PUSH2 0xFFFF AND SWAP1 POP DUP5 PUSH1 0x7E PUSH2 0xEEB SWAP2 SWAP1 PUSH2 0x207A JUMP JUMPDEST PUSH2 0xFFFF AND SWAP7 POP PUSH1 0x1 DUP5 PUSH1 0x7E PUSH2 0xF00 SWAP2 SWAP1 PUSH2 0x207A JUMP JUMPDEST PUSH2 0xF0A SWAP2 SWAP1 PUSH2 0x20B0 JUMP JUMPDEST PUSH2 0xFFFF AND SWAP6 POP PUSH2 0x1082 JUMP JUMPDEST PUSH1 0x3 PUSH1 0x4 DUP2 GT ISZERO PUSH2 0xF29 JUMPI PUSH2 0xF28 PUSH2 0x200E JUMP JUMPDEST JUMPDEST DUP9 PUSH1 0x4 DUP2 GT ISZERO PUSH2 0xF3C JUMPI PUSH2 0xF3B PUSH2 0x200E JUMP JUMPDEST JUMPDEST SUB PUSH2 0xFAD JUMPI PUSH2 0xF4B PUSH1 0x9 PUSH2 0x178E JUMP JUMPDEST SWAP5 POP DUP9 DUP6 PUSH2 0xF59 SWAP2 SWAP1 PUSH2 0x207A JUMP JUMPDEST SWAP4 POP PUSH1 0x19 PUSH2 0xFFFF AND SWAP3 POP PUSH1 0xFA PUSH2 0xFFFF AND SWAP2 POP PUSH2 0x7D0 PUSH2 0xFFFF AND SWAP1 POP DUP5 PUSH2 0x273 PUSH2 0xF82 SWAP2 SWAP1 PUSH2 0x207A JUMP JUMPDEST PUSH2 0xFFFF AND SWAP7 POP PUSH1 0x1 DUP5 PUSH2 0x273 PUSH2 0xF98 SWAP2 SWAP1 PUSH2 0x207A JUMP JUMPDEST PUSH2 0xFA2 SWAP2 SWAP1 PUSH2 0x20B0 JUMP JUMPDEST PUSH2 0xFFFF AND SWAP6 POP PUSH2 0x1081 JUMP JUMPDEST PUSH1 0x4 DUP1 DUP2 GT ISZERO PUSH2 0xFC0 JUMPI PUSH2 0xFBF PUSH2 0x200E JUMP JUMPDEST JUMPDEST DUP9 PUSH1 0x4 DUP2 GT ISZERO PUSH2 0xFD3 JUMPI PUSH2 0xFD2 PUSH2 0x200E JUMP JUMPDEST JUMPDEST SUB PUSH2 0x1045 JUMPI PUSH2 0xFE2 PUSH1 0xA PUSH2 0x178E JUMP JUMPDEST SWAP5 POP DUP9 DUP6 PUSH2 0xFF0 SWAP2 SWAP1 PUSH2 0x207A JUMP JUMPDEST SWAP4 POP PUSH1 0x7D PUSH2 0xFFFF AND SWAP3 POP PUSH2 0x4E2 PUSH2 0xFFFF AND SWAP2 POP PUSH2 0x168A PUSH2 0xFFFF AND SWAP1 POP DUP5 PUSH2 0xC38 PUSH2 0x101A SWAP2 SWAP1 PUSH2 0x207A JUMP JUMPDEST PUSH2 0xFFFF AND SWAP7 POP PUSH1 0x1 DUP5 PUSH2 0xC38 PUSH2 0x1030 SWAP2 SWAP1 PUSH2 0x207A JUMP JUMPDEST PUSH2 0x103A SWAP2 SWAP1 PUSH2 0x20B0 JUMP JUMPDEST PUSH2 0xFFFF AND SWAP6 POP PUSH2 0x1080 JUMP JUMPDEST PUSH1 0x40 MLOAD PUSH32 0x8C379A000000000000000000000000000000000000000000000000000000000 DUP2 MSTORE PUSH1 0x4 ADD PUSH2 0x1077 SWAP1 PUSH2 0x2132 JUMP JUMPDEST PUSH1 0x40 MLOAD DUP1 SWAP2 SUB SWAP1 REVERT JUMPDEST JUMPDEST JUMPDEST JUMPDEST PUSH1 0xB PUSH1 0x1 SWAP1 SLOAD SWAP1 PUSH2 0x100 EXP SWAP1 DIV PUSH1 0xFF AND ISZERO PUSH2 0x10E4 JUMPI DUP3 DUP5 PUSH2 0xFFFF AND GT ISZERO PUSH2 0x10DF JUMPI PUSH1 0x40 MLOAD PUSH32 0x8C379A000000000000000000000000000000000000000000000000000000000 DUP2 MSTORE PUSH1 0x4 ADD PUSH2 0x10D6 SWAP1 PUSH2 0x219E JUMP JUMPDEST PUSH1 0x40 MLOAD DUP1 SWAP2 SUB SWAP1 REVERT JUMPDEST PUSH2 0x11E3 JUMP JUMPDEST PUSH1 0xB PUSH1 0x2 SWAP1 SLOAD SWAP1 PUSH2 0x100 EXP SWAP1 DIV PUSH1 0xFF AND ISZERO PUSH2 0x1145 JUMPI DUP2 DUP5 PUSH2 0xFFFF AND GT ISZERO PUSH2 0x1140 JUMPI PUSH1 0x40 MLOAD PUSH32 0x8C379A000000000000000000000000000000000000000000000000000000000 DUP2 MSTORE PUSH1 0x4 ADD PUSH2 0x1137 SWAP1 PUSH2 0x219E JUMP JUMPDEST PUSH1 0x40 MLOAD DUP1 SWAP2 SUB SWAP1 REVERT JUMPDEST PUSH2 0x11E2 JUMP JUMPDEST PUSH1 0xB PUSH1 0x3 SWAP1 SLOAD SWAP1 PUSH2 0x100 EXP SWAP1 DIV PUSH1 0xFF AND ISZERO PUSH2 0x11A6 JUMPI DUP1 DUP5 PUSH2 0xFFFF AND GT ISZERO PUSH2 0x11A1 JUMPI PUSH1 0x40 MLOAD PUSH32 0x8C379A000000000000000000000000000000000000000000000000000000000 DUP2 MSTORE PUSH1 0x4 ADD PUSH2 0x1198 SWAP1 PUSH2 0x219E JUMP JUMPDEST PUSH1 0x40 MLOAD DUP1 SWAP2 SUB SWAP1 REVERT JUMPDEST PUSH2 0x11E1 JUMP JUMPDEST PUSH1 0x40 MLOAD PUSH32 0x8C379A000000000000000000000000000000000000000000000000000000000 DUP2 MSTORE PUSH1 0x4 ADD PUSH2 0x11D8 SWAP1 PUSH2 0x220A JUMP JUMPDEST PUSH1 0x40 MLOAD DUP1 SWAP2 SUB SWAP1 REVERT JUMPDEST JUMPDEST JUMPDEST POP POP POP POP POP SWAP3 POP SWAP3 SWAP1 POP JUMP JUMPDEST PUSH2 0x11F7 PUSH2 0x12B7 JUMP JUMPDEST PUSH2 0x1203 DUP3 DUP3 PUSH1 0x3 PUSH2 0x1301 JUMP JUMPDEST POP POP POP JUMP JUMPDEST PUSH1 0xB PUSH1 0x2 SWAP1 SLOAD SWAP1 PUSH2 0x100 EXP SWAP1 DIV PUSH1 0xFF AND DUP2 JUMP JUMPDEST PUSH2 0x1223 PUSH2 0x17A5 JUMP JUMPDEST PUSH1 0x0 PUSH20 0xFFFFFFFFFFFFFFFFFFFFFFFFFFFFFFFFFFFFFFFF AND DUP2 PUSH20 0xFFFFFFFFFFFFFFFFFFFFFFFFFFFFFFFFFFFFFFFF AND SUB PUSH2 0x1292 JUMPI PUSH1 0x40 MLOAD PUSH32 0x8C379A000000000000000000000000000000000000000000000000000000000 DUP2 MSTORE PUSH1 0x4 ADD PUSH2 0x1289 SWAP1 PUSH2 0x229C JUMP JUMPDEST PUSH1 0x40 MLOAD DUP1 SWAP2 SUB SWAP1 REVERT JUMPDEST PUSH2 0x129B DUP2 PUSH2 0x1885 JUMP JUMPDEST POP JUMP JUMPDEST PUSH2 0x12A6 PUSH2 0x12B7 JUMP JUMPDEST PUSH2 0x12B2 DUP3 DUP3 PUSH1 0x2 PUSH2 0x1301 JUMP JUMPDEST POP POP POP JUMP JUMPDEST PUSH2 0x12BF PUSH2 0xA69 JUMP JUMPDEST ISZERO PUSH2 0x12FF JUMPI PUSH1 0x40 MLOAD PUSH32 0x8C379A000000000000000000000000000000000000000000000000000000000 DUP2 MSTORE PUSH1 0x4 ADD PUSH2 0x12F6 SWAP1 PUSH2 0x2308 JUMP JUMPDEST PUSH1 0x40 MLOAD DUP1 SWAP2 SUB SWAP1 REVERT JUMPDEST JUMP JUMPDEST PUSH1 0x0 PUSH2 0x130B PUSH2 0x12B7 JUMP JUMPDEST PUSH2 0x1313 PUSH2 0x173F JUMP JUMPDEST PUSH1 0xB PUSH1 0x0 SWAP1 SLOAD SWAP1 PUSH2 0x100 EXP SWAP1 DIV PUSH1 0xFF AND PUSH2 0x1362 JUMPI PUSH1 0x40 MLOAD PUSH32 0x8C379A000000000000000000000000000000000000000000000000000000000 DUP2 MSTORE PUSH1 0x4 ADD PUSH2 0x1359 SWAP1 PUSH2 0x1D66 JUMP JUMPDEST PUSH1 0x40 MLOAD DUP1 SWAP2 SUB SWAP1 REVERT JUMPDEST PUSH1 0x0 PUSH1 0x1 PUSH1 0x4 DUP2 GT ISZERO PUSH2 0x1378 JUMPI PUSH2 0x1377 PUSH2 0x200E JUMP JUMPDEST JUMPDEST DUP4 PUSH1 0x4 DUP2 GT ISZERO PUSH2 0x138B JUMPI PUSH2 0x138A PUSH2 0x200E JUMP JUMPDEST JUMPDEST SUB PUSH2 0x13A0 JUMPI PUSH8 0x16C2734F97A40000 SWAP1 POP PUSH2 0x148F JUMP JUMPDEST PUSH1 0x2 PUSH1 0x4 DUP2 GT ISZERO PUSH2 0x13B4 JUMPI PUSH2 0x13B3 PUSH2 0x200E JUMP JUMPDEST JUMPDEST DUP4 PUSH1 0x4 DUP2 GT ISZERO PUSH2 0x13C7 JUMPI PUSH2 0x13C6 PUSH2 0x200E JUMP JUMPDEST JUMPDEST SUB PUSH2 0x13DC JUMPI PUSH8 0x494654067E10000 SWAP1 POP PUSH2 0x148E JUMP JUMPDEST PUSH1 0x3 PUSH1 0x4 DUP2 GT ISZERO PUSH2 0x13F0 JUMPI PUSH2 0x13EF PUSH2 0x200E JUMP JUMPDEST JUMPDEST DUP4 PUSH1 0x4 DUP2 GT ISZERO PUSH2 0x1403 JUMPI PUSH2 0x1402 PUSH2 0x200E JUMP JUMPDEST JUMPDEST SUB PUSH2 0x1417 JUMPI PUSH7 0x2E2F6E5E148000 SWAP1 POP PUSH2 0x148D JUMP JUMPDEST PUSH1 0x4 DUP1 DUP2 GT ISZERO PUSH2 0x142A JUMPI PUSH2 0x1429 PUSH2 0x200E JUMP JUMPDEST JUMPDEST DUP4 PUSH1 0x4 DUP2 GT ISZERO PUSH2 0x143D JUMPI PUSH2 0x143C PUSH2 0x200E JUMP JUMPDEST JUMPDEST SUB PUSH2 0x1451 JUMPI PUSH7 0xEA7AA67B2D0000 SWAP1 POP PUSH2 0x148C JUMP JUMPDEST PUSH1 0x40 MLOAD PUSH32 0x8C379A000000000000000000000000000000000000000000000000000000000 DUP2 MSTORE PUSH1 0x4 ADD PUSH2 0x1483 SWAP1 PUSH2 0x2132 JUMP JUMPDEST PUSH1 0x40 MLOAD DUP1 SWAP2 SUB SWAP1 REVERT JUMPDEST JUMPDEST JUMPDEST JUMPDEST PUSH1 0x0 DUP1 PUSH2 0x149C DUP7 DUP7 PUSH2 0xD45 JUMP JUMPDEST SWAP2 POP SWAP2 POP PUSH1 0x0 DUP3 SWAP1 POP PUSH1 0x0 DUP4 SWAP1 POP JUMPDEST DUP3 DUP2 GT PUSH2 0x1711 JUMPI PUSH1 0x2 PUSH1 0x0 SWAP1 SLOAD SWAP1 PUSH2 0x100 EXP SWAP1 DIV PUSH20 0xFFFFFFFFFFFFFFFFFFFFFFFFFFFFFFFFFFFFFFFF AND PUSH20 0xFFFFFFFFFFFFFFFFFFFFFFFFFFFFFFFFFFFFFFFF AND PUSH4 0xA1448194 DUP11 DUP4 PUSH1 0x40 MLOAD DUP4 PUSH4 0xFFFFFFFF AND PUSH1 0xE0 SHL DUP2 MSTORE PUSH1 0x4 ADD PUSH2 0x150F SWAP3 SWAP2 SWAP1 PUSH2 0x2328 JUMP JUMPDEST PUSH1 0x0 PUSH1 0x40 MLOAD DUP1 DUP4 SUB DUP2 PUSH1 0x0 DUP8 DUP1 EXTCODESIZE ISZERO DUP1 ISZERO PUSH2 0x1529 JUMPI PUSH1 0x0 DUP1 REVERT JUMPDEST POP GAS CALL ISZERO DUP1 ISZERO PUSH2 0x153D JUMPI RETURNDATASIZE PUSH1 0x0 DUP1 RETURNDATACOPY RETURNDATASIZE PUSH1 0x0 REVERT JUMPDEST POP POP POP POP PUSH1 0x4 PUSH1 0x0 SWAP1 SLOAD SWAP1 PUSH2 0x100 EXP SWAP1 DIV PUSH20 0xFFFFFFFFFFFFFFFFFFFFFFFFFFFFFFFFFFFFFFFF AND PUSH20 0xFFFFFFFFFFFFFFFFFFFFFFFFFFFFFFFFFFFFFFFF AND PUSH4 0x28872F25 DUP11 DUP4 DUP11 PUSH1 0x40 MLOAD DUP5 PUSH4 0xFFFFFFFF AND PUSH1 0xE0 SHL DUP2 MSTORE PUSH1 0x4 ADD PUSH2 0x15A0 SWAP4 SWAP3 SWAP2 SWAP1 PUSH2 0x2399 JUMP JUMPDEST PUSH1 0x0 PUSH1 0x40 MLOAD DUP1 DUP4 SUB DUP2 PUSH1 0x0 DUP8 DUP1 EXTCODESIZE ISZERO DUP1 ISZERO PUSH2 0x15BA JUMPI PUSH1 0x0 DUP1 REVERT JUMPDEST POP GAS CALL ISZERO DUP1 ISZERO PUSH2 0x15CE JUMPI RETURNDATASIZE PUSH1 0x0 DUP1 RETURNDATACOPY RETURNDATASIZE PUSH1 0x0 REVERT JUMPDEST POP POP POP POP DUP1 SWAP2 POP PUSH1 0x1 PUSH1 0x4 DUP2 GT ISZERO PUSH2 0x15E9 JUMPI PUSH2 0x15E8 PUSH2 0x200E JUMP JUMPDEST JUMPDEST DUP8 PUSH1 0x4 DUP2 GT ISZERO PUSH2 0x15FC JUMPI PUSH2 0x15FB PUSH2 0x200E JUMP JUMPDEST JUMPDEST SUB PUSH2 0x1610 JUMPI PUSH2 0x160B PUSH1 0x7 PUSH2 0x19AC JUMP JUMPDEST PUSH2 0x16FE JUMP JUMPDEST PUSH1 0x2 PUSH1 0x4 DUP2 GT ISZERO PUSH2 0x1624 JUMPI PUSH2 0x1623 PUSH2 0x200E JUMP JUMPDEST JUMPDEST DUP8 PUSH1 0x4 DUP2 GT ISZERO PUSH2 0x1637 JUMPI PUSH2 0x1636 PUSH2 0x200E JUMP JUMPDEST JUMPDEST SUB PUSH2 0x164B JUMPI PUSH2 0x1646 PUSH1 0x8 PUSH2 0x19AC JUMP JUMPDEST PUSH2 0x16FD JUMP JUMPDEST PUSH1 0x3 PUSH1 0x4 DUP2 GT ISZERO PUSH2 0x165F JUMPI PUSH2 0x165E PUSH2 0x200E JUMP JUMPDEST JUMPDEST DUP8 PUSH1 0x4 DUP2 GT ISZERO PUSH2 0x1672 JUMPI PUSH2 0x1671 PUSH2 0x200E JUMP JUMPDEST JUMPDEST SUB PUSH2 0x1686 JUMPI PUSH2 0x1681 PUSH1 0x9 PUSH2 0x19AC JUMP JUMPDEST PUSH2 0x16FC JUMP JUMPDEST PUSH1 0x4 DUP1 DUP2 GT ISZERO PUSH2 0x1699 JUMPI PUSH2 0x1698 PUSH2 0x200E JUMP JUMPDEST JUMPDEST DUP8 PUSH1 0x4 DUP2 GT ISZERO PUSH2 0x16AC JUMPI PUSH2 0x16AB PUSH2 0x200E JUMP JUMPDEST JUMPDEST SUB PUSH2 0x16C0 JUMPI PUSH2 0x16BB PUSH1 0xA PUSH2 0x19AC JUMP JUMPDEST PUSH2 0x16FB JUMP JUMPDEST PUSH1 0x40 MLOAD PUSH32 0x8C379A000000000000000000000000000000000000000000000000000000000 DUP2 MSTORE PUSH1 0x4 ADD PUSH2 0x16F2 SWAP1 PUSH2 0x2132 JUMP JUMPDEST PUSH1 0x40 MLOAD DUP1 SWAP2 SUB SWAP1 REVERT JUMPDEST JUMPDEST JUMPDEST JUMPDEST DUP1 DUP1 PUSH2 0x1709 SWAP1 PUSH2 0x23D0 JUMP JUMPDEST SWAP2 POP POP PUSH2 0x14AB JUMP JUMPDEST POP PUSH1 0x1 DUP4 DUP3 PUSH2 0x1720 SWAP2 SWAP1 PUSH2 0x2418 JUMP JUMPDEST PUSH2 0x172A SWAP2 SWAP1 PUSH2 0x244C JUMP JUMPDEST SWAP5 POP POP POP POP POP PUSH2 0x1738 PUSH2 0x179C JUMP JUMPDEST SWAP4 SWAP3 POP POP POP JUMP JUMPDEST PUSH1 0x2 PUSH1 0x1 SLOAD SUB PUSH2 0x1784 JUMPI PUSH1 0x40 MLOAD PUSH32 0x8C379A000000000000000000000000000000000000000000000000000000000 DUP2 MSTORE PUSH1 0x4 ADD PUSH2 0x177B SWAP1 PUSH2 0x24CC JUMP JUMPDEST PUSH1 0x40 MLOAD DUP1 SWAP2 SUB SWAP1 REVERT JUMPDEST PUSH1 0x2 PUSH1 0x1 DUP2 SWAP1 SSTORE POP JUMP JUMPDEST PUSH1 0x0 DUP2 PUSH1 0x0 ADD SLOAD SWAP1 POP SWAP2 SWAP1 POP JUMP JUMPDEST PUSH1 0x1 DUP1 DUP2 SWAP1 SSTORE POP JUMP JUMPDEST PUSH2 0x17AD PUSH2 0x19C2 JUMP JUMPDEST PUSH20 0xFFFFFFFFFFFFFFFFFFFFFFFFFFFFFFFFFFFFFFFF AND PUSH2 0x17CB PUSH2 0xC3D JUMP JUMPDEST PUSH20 0xFFFFFFFFFFFFFFFFFFFFFFFFFFFFFFFFFFFFFFFF AND EQ PUSH2 0x1821 JUMPI PUSH1 0x40 MLOAD PUSH32 0x8C379A000000000000000000000000000000000000000000000000000000000 DUP2 MSTORE PUSH1 0x4 ADD PUSH2 0x1818 SWAP1 PUSH2 0x2538 JUMP JUMPDEST PUSH1 0x40 MLOAD DUP1 SWAP2 SUB SWAP1 REVERT JUMPDEST JUMP JUMPDEST PUSH2 0x182B PUSH2 0x19CA JUMP JUMPDEST PUSH1 0x0 DUP1 PUSH1 0x14 PUSH2 0x100 EXP DUP2 SLOAD DUP2 PUSH1 0xFF MUL NOT AND SWAP1 DUP4 ISZERO ISZERO MUL OR SWAP1 SSTORE POP PUSH32 0x5DB9EE0A495BF2E6FF9C91A7834C1BA4FDD244A5E8AA4E537BD38AEAE4B073AA PUSH2 0x186E PUSH2 0x19C2 JUMP JUMPDEST PUSH1 0x40 MLOAD PUSH2 0x187B SWAP2 SWAP1 PUSH2 0x1B88 JUMP JUMPDEST PUSH1 0x40 MLOAD DUP1 SWAP2 SUB SWAP1 LOG1 JUMP JUMPDEST PUSH1 0x0 DUP1 PUSH1 0x0 SWAP1 SLOAD SWAP1 PUSH2 0x100 EXP SWAP1 DIV PUSH20 0xFFFFFFFFFFFFFFFFFFFFFFFFFFFFFFFFFFFFFFFF AND SWAP1 POP DUP2 PUSH1 0x0 DUP1 PUSH2 0x100 EXP DUP2 SLOAD DUP2 PUSH20 0xFFFFFFFFFFFFFFFFFFFFFFFFFFFFFFFFFFFFFFFF MUL NOT AND SWAP1 DUP4 PUSH20 0xFFFFFFFFFFFFFFFFFFFFFFFFFFFFFFFFFFFFFFFF AND MUL OR SWAP1 SSTORE POP DUP2 PUSH20 0xFFFFFFFFFFFFFFFFFFFFFFFFFFFFFFFFFFFFFFFF AND DUP2 PUSH20 0xFFFFFFFFFFFFFFFFFFFFFFFFFFFFFFFFFFFFFFFF AND PUSH32 0x8BE0079C531659141344CD1FD0A4F28419497F9722A3DAAFE3B4186F6B6457E0 PUSH1 0x40 MLOAD PUSH1 0x40 MLOAD DUP1 SWAP2 SUB SWAP1 LOG3 POP POP JUMP JUMPDEST PUSH2 0x1951 PUSH2 0x12B7 JUMP JUMPDEST PUSH1 0x1 PUSH1 0x0 PUSH1 0x14 PUSH2 0x100 EXP DUP2 SLOAD DUP2 PUSH1 0xFF MUL NOT AND SWAP1 DUP4 ISZERO ISZERO MUL OR SWAP1 SSTORE POP PUSH32 0x62E78CEA01BEE320CD4E420270B5EA74000D11B0C9F74754EBDBFC544B05A258 PUSH2 0x1995 PUSH2 0x19C2 JUMP JUMPDEST PUSH1 0x40 MLOAD PUSH2 0x19A2 SWAP2 SWAP1 PUSH2 0x1B88 JUMP JUMPDEST PUSH1 0x40 MLOAD DUP1 SWAP2 SUB SWAP1 LOG1 JUMP JUMPDEST PUSH1 0x1 DUP2 PUSH1 0x0 ADD PUSH1 0x0 DUP3 DUP3 SLOAD ADD SWAP3 POP POP DUP2 SWAP1 SSTORE POP POP JUMP JUMPDEST PUSH1 0x0 CALLER SWAP1 POP SWAP1 JUMP JUMPDEST PUSH2 0x19D2 PUSH2 0xA69 JUMP JUMPDEST PUSH2 0x1A11 JUMPI PUSH1 0x40 MLOAD PUSH32 0x8C379A000000000000000000000000000000000000000000000000000000000 DUP2 MSTORE PUSH1 0x4 ADD PUSH2 0x1A08 SWAP1 PUSH2 0x25A4 JUMP JUMPDEST PUSH1 0x40 MLOAD DUP1 SWAP2 SUB SWAP1 REVERT JUMPDEST JUMP JUMPDEST PUSH1 0x0 DUP2 SWAP1 POP SWAP2 SWAP1 POP JUMP JUMPDEST PUSH2 0x1A26 DUP2 PUSH2 0x1A13 JUMP JUMPDEST DUP3 MSTORE POP POP JUMP JUMPDEST PUSH1 0x0 PUSH1 0x20 DUP3 ADD SWAP1 POP PUSH2 0x1A41 PUSH1 0x0 DUP4 ADD DUP5 PUSH2 0x1A1D JUMP JUMPDEST SWAP3 SWAP2 POP POP JUMP JUMPDEST PUSH1 0x0 DUP1 REVERT JUMPDEST PUSH1 0x0 PUSH20 0xFFFFFFFFFFFFFFFFFFFFFFFFFFFFFFFFFFFFFFFF DUP3 AND SWAP1 POP SWAP2 SWAP1 POP JUMP JUMPDEST PUSH1 0x0 PUSH2 0x1A77 DUP3 PUSH2 0x1A4C JUMP JUMPDEST SWAP1 POP SWAP2 SWAP1 POP JUMP JUMPDEST PUSH2 0x1A87 DUP2 PUSH2 0x1A6C JUMP JUMPDEST DUP2 EQ PUSH2 0x1A92 JUMPI PUSH1 0x0 DUP1 REVERT JUMPDEST POP JUMP JUMPDEST PUSH1 0x0 DUP2 CALLDATALOAD SWAP1 POP PUSH2 0x1AA4 DUP2 PUSH2 0x1A7E JUMP JUMPDEST SWAP3 SWAP2 POP POP JUMP JUMPDEST PUSH2 0x1AB3 DUP2 PUSH2 0x1A13 JUMP JUMPDEST DUP2 EQ PUSH2 0x1ABE JUMPI PUSH1 0x0 DUP1 REVERT JUMPDEST POP JUMP JUMPDEST PUSH1 0x0 DUP2 CALLDATALOAD SWAP1 POP PUSH2 0x1AD0 DUP2 PUSH2 0x1AAA JUMP JUMPDEST SWAP3 SWAP2 POP POP JUMP JUMPDEST PUSH1 0x0 DUP1 PUSH1 0x40 DUP4 DUP6 SUB SLT ISZERO PUSH2 0x1AED JUMPI PUSH2 0x1AEC PUSH2 0x1A47 JUMP JUMPDEST JUMPDEST PUSH1 0x0 PUSH2 0x1AFB DUP6 DUP3 DUP7 ADD PUSH2 0x1A95 JUMP JUMPDEST SWAP3 POP POP PUSH1 0x20 PUSH2 0x1B0C DUP6 DUP3 DUP7 ADD PUSH2 0x1AC1 JUMP JUMPDEST SWAP2 POP POP SWAP3 POP SWAP3 SWAP1 POP JUMP JUMPDEST PUSH1 0x0 PUSH1 0x20 DUP3 DUP5 SUB SLT ISZERO PUSH2 0x1B2C JUMPI PUSH2 0x1B2B PUSH2 0x1A47 JUMP JUMPDEST JUMPDEST PUSH1 0x0 PUSH2 0x1B3A DUP5 DUP3 DUP6 ADD PUSH2 0x1A95 JUMP JUMPDEST SWAP2 POP POP SWAP3 SWAP2 POP POP JUMP JUMPDEST PUSH1 0x0 DUP2 ISZERO ISZERO SWAP1 POP SWAP2 SWAP1 POP JUMP JUMPDEST PUSH2 0x1B58 DUP2 PUSH2 0x1B43 JUMP JUMPDEST DUP3 MSTORE POP POP JUMP JUMPDEST PUSH1 0x0 PUSH1 0x20 DUP3 ADD SWAP1 POP PUSH2 0x1B73 PUSH1 0x0 DUP4 ADD DUP5 PUSH2 0x1B4F JUMP JUMPDEST SWAP3 SWAP2 POP POP JUMP JUMPDEST PUSH2 0x1B82 DUP2 PUSH2 0x1A6C JUMP JUMPDEST DUP3 MSTORE POP POP JUMP JUMPDEST PUSH1 0x0 PUSH1 0x20 DUP3 ADD SWAP1 POP PUSH2 0x1B9D PUSH1 0x0 DUP4 ADD DUP5 PUSH2 0x1B79 JUMP JUMPDEST SWAP3 SWAP2 POP POP JUMP JUMPDEST PUSH1 0x5 DUP2 LT PUSH2 0x1BB0 JUMPI PUSH1 0x0 DUP1 REVERT JUMPDEST POP JUMP JUMPDEST PUSH1 0x0 DUP2 CALLDATALOAD SWAP1 POP PUSH2 0x1BC2 DUP2 PUSH2 0x1BA3 JUMP JUMPDEST SWAP3 SWAP2 POP POP JUMP JUMPDEST PUSH1 0x0 DUP1 PUSH1 0x40 DUP4 DUP6 SUB SLT ISZERO PUSH2 0x1BDF JUMPI PUSH2 0x1BDE PUSH2 0x1A47 JUMP JUMPDEST JUMPDEST PUSH1 0x0 PUSH2 0x1BED DUP6 DUP3 DUP7 ADD PUSH2 0x1AC1 JUMP JUMPDEST SWAP3 POP POP PUSH1 0x20 PUSH2 0x1BFE DUP6 DUP3 DUP7 ADD PUSH2 0x1BB3 JUMP JUMPDEST SWAP2 POP POP SWAP3 POP SWAP3 SWAP1 POP JUMP JUMPDEST PUSH1 0x0 PUSH1 0x40 DUP3 ADD SWAP1 POP PUSH2 0x1C1D PUSH1 0x0 DUP4 ADD DUP6 PUSH2 0x1A1D JUMP JUMPDEST PUSH2 0x1C2A PUSH1 0x20 DUP4 ADD DUP5 PUSH2 0x1A1D JUMP JUMPDEST SWAP4 SWAP3 POP POP POP JUMP JUMPDEST PUSH1 0x0 DUP3 DUP3 MSTORE PUSH1 0x20 DUP3 ADD SWAP1 POP SWAP3 SWAP2 POP POP JUMP JUMPDEST PUSH32 0x4E6F204175746800000000000000000000000000000000000000000000000000 PUSH1 0x0 DUP3 ADD MSTORE POP JUMP JUMPDEST PUSH1 0x0 PUSH2 0x1C78 PUSH1 0x7 DUP4 PUSH2 0x1C31 JUMP JUMPDEST SWAP2 POP PUSH2 0x1C83 DUP3 PUSH2 0x1C42 JUMP JUMPDEST PUSH1 0x20 DUP3 ADD SWAP1 POP SWAP2 SWAP1 POP JUMP JUMPDEST PUSH1 0x0 PUSH1 0x20 DUP3 ADD SWAP1 POP DUP2 DUP2 SUB PUSH1 0x0 DUP4 ADD MSTORE PUSH2 0x1CA7 DUP2 PUSH2 0x1C6B JUMP JUMPDEST SWAP1 POP SWAP2 SWAP1 POP JUMP JUMPDEST PUSH32 0x416C726561647920756E6C6F636B656400000000000000000000000000000000 PUSH1 0x0 DUP3 ADD MSTORE POP JUMP JUMPDEST PUSH1 0x0 PUSH2 0x1CE4 PUSH1 0x10 DUP4 PUSH2 0x1C31 JUMP JUMPDEST SWAP2 POP PUSH2 0x1CEF DUP3 PUSH2 0x1CAE JUMP JUMPDEST PUSH1 0x20 DUP3 ADD SWAP1 POP SWAP2 SWAP1 POP JUMP JUMPDEST PUSH1 0x0 PUSH1 0x20 DUP3 ADD SWAP1 POP DUP2 DUP2 SUB PUSH1 0x0 DUP4 ADD MSTORE PUSH2 0x1D13 DUP2 PUSH2 0x1CD7 JUMP JUMPDEST SWAP1 POP SWAP2 SWAP1 POP JUMP JUMPDEST PUSH32 0x4865726F73206E6F74206D696E74656400000000000000000000000000000000 PUSH1 0x0 DUP3 ADD MSTORE POP JUMP JUMPDEST PUSH1 0x0 PUSH2 0x1D50 PUSH1 0x10 DUP4 PUSH2 0x1C31 JUMP JUMPDEST SWAP2 POP PUSH2 0x1D5B DUP3 PUSH2 0x1D1A JUMP JUMPDEST PUSH1 0x20 DUP3 ADD SWAP1 POP SWAP2 SWAP1 POP JUMP JUMPDEST PUSH1 0x0 PUSH1 0x20 DUP3 ADD SWAP1 POP DUP2 DUP2 SUB PUSH1 0x0 DUP4 ADD MSTORE PUSH2 0x1D7F DUP2 PUSH2 0x1D43 JUMP JUMPDEST SWAP1 POP SWAP2 SWAP1 POP JUMP JUMPDEST PUSH32 0x556E6D696E746564206C6567656E647300000000000000000000000000000000 PUSH1 0x0 DUP3 ADD MSTORE POP JUMP JUMPDEST PUSH1 0x0 PUSH2 0x1DBC PUSH1 0x10 DUP4 PUSH2 0x1C31 JUMP JUMPDEST SWAP2 POP PUSH2 0x1DC7 DUP3 PUSH2 0x1D86 JUMP JUMPDEST PUSH1 0x20 DUP3 ADD SWAP1 POP SWAP2 SWAP1 POP JUMP JUMPDEST PUSH1 0x0 PUSH1 0x20 DUP3 ADD SWAP1 POP DUP2 DUP2 SUB PUSH1 0x0 DUP4 ADD MSTORE PUSH2 0x1DEB DUP2 PUSH2 0x1DAF JUMP JUMPDEST SWAP1 POP SWAP2 SWAP1 POP JUMP JUMPDEST PUSH32 0x556E6D696E746564207261726573000000000000000000000000000000000000 PUSH1 0x0 DUP3 ADD MSTORE POP JUMP JUMPDEST PUSH1 0x0 PUSH2 0x1E28 PUSH1 0xE DUP4 PUSH2 0x1C31 JUMP JUMPDEST SWAP2 POP PUSH2 0x1E33 DUP3 PUSH2 0x1DF2 JUMP JUMPDEST PUSH1 0x20 DUP3 ADD SWAP1 POP SWAP2 SWAP1 POP JUMP JUMPDEST PUSH1 0x0 PUSH1 0x20 DUP3 ADD SWAP1 POP DUP2 DUP2 SUB PUSH1 0x0 DUP4 ADD MSTORE PUSH2 0x1E57 DUP2 PUSH2 0x1E1B JUMP JUMPDEST SWAP1 POP SWAP2 SWAP1 POP JUMP JUMPDEST PUSH32 0x556E6D696E74656420756E636F6D6D6F6E730000000000000000000000000000 PUSH1 0x0 DUP3 ADD MSTORE POP JUMP JUMPDEST PUSH1 0x0 PUSH2 0x1E94 PUSH1 0x12 DUP4 PUSH2 0x1C31 JUMP JUMPDEST SWAP2 POP PUSH2 0x1E9F DUP3 PUSH2 0x1E5E JUMP JUMPDEST PUSH1 0x20 DUP3 ADD SWAP1 POP SWAP2 SWAP1 POP JUMP JUMPDEST PUSH1 0x0 PUSH1 0x20 DUP3 ADD SWAP1 POP DUP2 DUP2 SUB PUSH1 0x0 DUP4 ADD MSTORE PUSH2 0x1EC3 DUP2 PUSH2 0x1E87 JUMP JUMPDEST SWAP1 POP SWAP2 SWAP1 POP JUMP JUMPDEST PUSH32 0x556E6D696E74656420636F6D6D6F6E7300000000000000000000000000000000 PUSH1 0x0 DUP3 ADD MSTORE POP JUMP JUMPDEST PUSH1 0x0 PUSH2 0x1F00 PUSH1 0x10 DUP4 PUSH2 0x1C31 JUMP JUMPDEST SWAP2 POP PUSH2 0x1F0B DUP3 PUSH2 0x1ECA JUMP JUMPDEST PUSH1 0x20 DUP3 ADD SWAP1 POP SWAP2 SWAP1 POP JUMP JUMPDEST PUSH1 0x0 PUSH1 0x20 DUP3 ADD SWAP1 POP DUP2 DUP2 SUB PUSH1 0x0 DUP4 ADD MSTORE PUSH2 0x1F2F DUP2 PUSH2 0x1EF3 JUMP JUMPDEST SWAP1 POP SWAP2 SWAP1 POP JUMP JUMPDEST PUSH32 0x416C7265616479206D696E746564000000000000000000000000000000000000 PUSH1 0x0 DUP3 ADD MSTORE POP JUMP JUMPDEST PUSH1 0x0 PUSH2 0x1F6C PUSH1 0xE DUP4 PUSH2 0x1C31 JUMP JUMPDEST SWAP2 POP PUSH2 0x1F77 DUP3 PUSH2 0x1F36 JUMP JUMPDEST PUSH1 0x20 DUP3 ADD SWAP1 POP SWAP2 SWAP1 POP JUMP JUMPDEST PUSH1 0x0 PUSH1 0x20 DUP3 ADD SWAP1 POP DUP2 DUP2 SUB PUSH1 0x0 DUP4 ADD MSTORE PUSH2 0x1F9B DUP2 PUSH2 0x1F5F JUMP JUMPDEST SWAP1 POP SWAP2 SWAP1 POP JUMP JUMPDEST PUSH32 0x6E756D546F4D696E742030000000000000000000000000000000000000000000 PUSH1 0x0 DUP3 ADD MSTORE POP JUMP JUMPDEST PUSH1 0x0 PUSH2 0x1FD8 PUSH1 0xB DUP4 PUSH2 0x1C31 JUMP JUMPDEST SWAP2 POP PUSH2 0x1FE3 DUP3 PUSH2 0x1FA2 JUMP JUMPDEST PUSH1 0x20 DUP3 ADD SWAP1 POP SWAP2 SWAP1 POP JUMP JUMPDEST PUSH1 0x0 PUSH1 0x20 DUP3 ADD SWAP1 POP DUP2 DUP2 SUB PUSH1 0x0 DUP4 ADD MSTORE PUSH2 0x2007 DUP2 PUSH2 0x1FCB JUMP JUMPDEST SWAP1 POP SWAP2 SWAP1 POP JUMP JUMPDEST PUSH32 0x4E487B7100000000000000000000000000000000000000000000000000000000 PUSH1 0x0 MSTORE PUSH1 0x21 PUSH1 0x4 MSTORE PUSH1 0x24 PUSH1 0x0 REVERT JUMPDEST PUSH1 0x0 PUSH2 0xFFFF DUP3 AND SWAP1 POP SWAP2 SWAP1 POP JUMP JUMPDEST PUSH32 0x4E487B7100000000000000000000000000000000000000000000000000000000 PUSH1 0x0 MSTORE PUSH1 0x11 PUSH1 0x4 MSTORE PUSH1 0x24 PUSH1 0x0 REVERT JUMPDEST PUSH1 0x0 PUSH2 0x2085 DUP3 PUSH2 0x203D JUMP JUMPDEST SWAP2 POP PUSH2 0x2090 DUP4 PUSH2 0x203D JUMP JUMPDEST SWAP3 POP DUP3 DUP3 ADD SWAP1 POP PUSH2 0xFFFF DUP2 GT ISZERO PUSH2 0x20AA JUMPI PUSH2 0x20A9 PUSH2 0x204B JUMP JUMPDEST JUMPDEST SWAP3 SWAP2 POP POP JUMP JUMPDEST PUSH1 0x0 PUSH2 0x20BB DUP3 PUSH2 0x203D JUMP JUMPDEST SWAP2 POP PUSH2 0x20C6 DUP4 PUSH2 0x203D JUMP JUMPDEST SWAP3 POP DUP3 DUP3 SUB SWAP1 POP PUSH2 0xFFFF DUP2 GT ISZERO PUSH2 0x20E0 JUMPI PUSH2 0x20DF PUSH2 0x204B JUMP JUMPDEST JUMPDEST SWAP3 SWAP2 POP POP JUMP JUMPDEST PUSH32 0x496E76616C696420636C61737300000000000000000000000000000000000000 PUSH1 0x0 DUP3 ADD MSTORE POP JUMP JUMPDEST PUSH1 0x0 PUSH2 0x211C PUSH1 0xD DUP4 PUSH2 0x1C31 JUMP JUMPDEST SWAP2 POP PUSH2 0x2127 DUP3 PUSH2 0x20E6 JUMP JUMPDEST PUSH1 0x20 DUP3 ADD SWAP1 POP SWAP2 SWAP1 POP JUMP JUMPDEST PUSH1 0x0 PUSH1 0x20 DUP3 ADD SWAP1 POP DUP2 DUP2 SUB PUSH1 0x0 DUP4 ADD MSTORE PUSH2 0x214B DUP2 PUSH2 0x210F JUMP JUMPDEST SWAP1 POP SWAP2 SWAP1 POP JUMP JUMPDEST PUSH32 0x737570706C7920696E73756666696369656E7400000000000000000000000000 PUSH1 0x0 DUP3 ADD MSTORE POP JUMP JUMPDEST PUSH1 0x0 PUSH2 0x2188 PUSH1 0x13 DUP4 PUSH2 0x1C31 JUMP JUMPDEST SWAP2 POP PUSH2 0x2193 DUP3 PUSH2 0x2152 JUMP JUMPDEST PUSH1 0x20 DUP3 ADD SWAP1 POP SWAP2 SWAP1 POP JUMP JUMPDEST PUSH1 0x0 PUSH1 0x20 DUP3 ADD SWAP1 POP DUP2 DUP2 SUB PUSH1 0x0 DUP4 ADD MSTORE PUSH2 0x21B7 DUP2 PUSH2 0x217B JUMP JUMPDEST SWAP1 POP SWAP2 SWAP1 POP JUMP JUMPDEST PUSH32 0x6E6F207075626C696320726F756E6420756E6C6F636B65640000000000000000 PUSH1 0x0 DUP3 ADD MSTORE POP JUMP JUMPDEST PUSH1 0x0 PUSH2 0x21F4 PUSH1 0x18 DUP4 PUSH2 0x1C31 JUMP JUMPDEST SWAP2 POP PUSH2 0x21FF DUP3 PUSH2 0x21BE JUMP JUMPDEST PUSH1 0x20 DUP3 ADD SWAP1 POP SWAP2 SWAP1 POP JUMP JUMPDEST PUSH1 0x0 PUSH1 0x20 DUP3 ADD SWAP1 POP DUP2 DUP2 SUB PUSH1 0x0 DUP4 ADD MSTORE PUSH2 0x2223 DUP2 PUSH2 0x21E7 JUMP JUMPDEST SWAP1 POP SWAP2 SWAP1 POP JUMP JUMPDEST PUSH32 0x4F776E61626C653A206E6577206F776E657220697320746865207A65726F2061 PUSH1 0x0 DUP3 ADD MSTORE PUSH32 0x6464726573730000000000000000000000000000000000000000000000000000 PUSH1 0x20 DUP3 ADD MSTORE POP JUMP JUMPDEST PUSH1 0x0 PUSH2 0x2286 PUSH1 0x26 DUP4 PUSH2 0x1C31 JUMP JUMPDEST SWAP2 POP PUSH2 0x2291 DUP3 PUSH2 0x222A JUMP JUMPDEST PUSH1 0x40 DUP3 ADD SWAP1 POP SWAP2 SWAP1 POP JUMP JUMPDEST PUSH1 0x0 PUSH1 0x20 DUP3 ADD SWAP1 POP DUP2 DUP2 SUB PUSH1 0x0 DUP4 ADD MSTORE PUSH2 0x22B5 DUP2 PUSH2 0x2279 JUMP JUMPDEST SWAP1 POP SWAP2 SWAP1 POP JUMP JUMPDEST PUSH32 0x5061757361626C653A2070617573656400000000000000000000000000000000 PUSH1 0x0 DUP3 ADD MSTORE POP JUMP JUMPDEST PUSH1 0x0 PUSH2 0x22F2 PUSH1 0x10 DUP4 PUSH2 0x1C31 JUMP JUMPDEST SWAP2 POP PUSH2 0x22FD DUP3 PUSH2 0x22BC JUMP JUMPDEST PUSH1 0x20 DUP3 ADD SWAP1 POP SWAP2 SWAP1 POP JUMP JUMPDEST PUSH1 0x0 PUSH1 0x20 DUP3 ADD SWAP1 POP DUP2 DUP2 SUB PUSH1 0x0 DUP4 ADD MSTORE PUSH2 0x2321 DUP2 PUSH2 0x22E5 JUMP JUMPDEST SWAP1 POP SWAP2 SWAP1 POP JUMP JUMPDEST PUSH1 0x0 PUSH1 0x40 DUP3 ADD SWAP1 POP PUSH2 0x233D PUSH1 0x0 DUP4 ADD DUP6 PUSH2 0x1B79 JUMP JUMPDEST PUSH2 0x234A PUSH1 0x20 DUP4 ADD DUP5 PUSH2 0x1A1D JUMP JUMPDEST SWAP4 SWAP3 POP POP POP JUMP JUMPDEST PUSH1 0x5 DUP2 LT PUSH2 0x2362 JUMPI PUSH2 0x2361 PUSH2 0x200E JUMP JUMPDEST JUMPDEST POP JUMP JUMPDEST PUSH1 0x0 DUP2 SWAP1 POP PUSH2 0x2373 DUP3 PUSH2 0x2351 JUMP JUMPDEST SWAP2 SWAP1 POP JUMP JUMPDEST PUSH1 0x0 PUSH2 0x2383 DUP3 PUSH2 0x2365 JUMP JUMPDEST SWAP1 POP SWAP2 SWAP1 POP JUMP JUMPDEST PUSH2 0x2393 DUP2 PUSH2 0x2378 JUMP JUMPDEST DUP3 MSTORE POP POP JUMP JUMPDEST PUSH1 0x0 PUSH1 0x60 DUP3 ADD SWAP1 POP PUSH2 0x23AE PUSH1 0x0 DUP4 ADD DUP7 PUSH2 0x1B79 JUMP JUMPDEST PUSH2 0x23BB PUSH1 0x20 DUP4 ADD DUP6 PUSH2 0x1A1D JUMP JUMPDEST PUSH2 0x23C8 PUSH1 0x40 DUP4 ADD DUP5 PUSH2 0x238A JUMP JUMPDEST SWAP5 SWAP4 POP POP POP POP JUMP JUMPDEST PUSH1 0x0 PUSH2 0x23DB DUP3 PUSH2 0x1A13 JUMP JUMPDEST SWAP2 POP PUSH32 0xFFFFFFFFFFFFFFFFFFFFFFFFFFFFFFFFFFFFFFFFFFFFFFFFFFFFFFFFFFFFFFFF DUP3 SUB PUSH2 0x240D JUMPI PUSH2 0x240C PUSH2 0x204B JUMP JUMPDEST JUMPDEST PUSH1 0x1 DUP3 ADD SWAP1 POP SWAP2 SWAP1 POP JUMP JUMPDEST PUSH1 0x0 PUSH2 0x2423 DUP3 PUSH2 0x1A13 JUMP JUMPDEST SWAP2 POP PUSH2 0x242E DUP4 PUSH2 0x1A13 JUMP JUMPDEST SWAP3 POP DUP3 DUP3 SUB SWAP1 POP DUP2 DUP2 GT ISZERO PUSH2 0x2446 JUMPI PUSH2 0x2445 PUSH2 0x204B JUMP JUMPDEST JUMPDEST SWAP3 SWAP2 POP POP JUMP JUMPDEST PUSH1 0x0 PUSH2 0x2457 DUP3 PUSH2 0x1A13 JUMP JUMPDEST SWAP2 POP PUSH2 0x2462 DUP4 PUSH2 0x1A13 JUMP JUMPDEST SWAP3 POP DUP3 DUP3 ADD SWAP1 POP DUP1 DUP3 GT ISZERO PUSH2 0x247A JUMPI PUSH2 0x2479 PUSH2 0x204B JUMP JUMPDEST JUMPDEST SWAP3 SWAP2 POP POP JUMP JUMPDEST PUSH32 0x5265656E7472616E637947756172643A207265656E7472616E742063616C6C00 PUSH1 0x0 DUP3 ADD MSTORE POP JUMP JUMPDEST PUSH1 0x0 PUSH2 0x24B6 PUSH1 0x1F DUP4 PUSH2 0x1C31 JUMP JUMPDEST SWAP2 POP PUSH2 0x24C1 DUP3 PUSH2 0x2480 JUMP JUMPDEST PUSH1 0x20 DUP3 ADD SWAP1 POP SWAP2 SWAP1 POP JUMP JUMPDEST PUSH1 0x0 PUSH1 0x20 DUP3 ADD SWAP1 POP DUP2 DUP2 SUB PUSH1 0x0 DUP4 ADD MSTORE PUSH2 0x24E5 DUP2 PUSH2 0x24A9 JUMP JUMPDEST SWAP1 POP SWAP2 SWAP1 POP JUMP JUMPDEST PUSH32 0x4F776E61626C653A2063616C6C6572206973206E6F7420746865206F776E6572 PUSH1 0x0 DUP3 ADD MSTORE POP JUMP JUMPDEST PUSH1 0x0 PUSH2 0x2522 PUSH1 0x20 DUP4 PUSH2 0x1C31 JUMP JUMPDEST SWAP2 POP PUSH2 0x252D DUP3 PUSH2 0x24EC JUMP JUMPDEST PUSH1 0x20 DUP3 ADD SWAP1 POP SWAP2 SWAP1 POP JUMP JUMPDEST PUSH1 0x0 PUSH1 0x20 DUP3 ADD SWAP1 POP DUP2 DUP2 SUB PUSH1 0x0 DUP4 ADD MSTORE PUSH2 0x2551 DUP2 PUSH2 0x2515 JUMP JUMPDEST SWAP1 POP SWAP2 SWAP1 POP JUMP JUMPDEST PUSH32 0x5061757361626C653A206E6F7420706175736564000000000000000000000000 PUSH1 0x0 DUP3 ADD MSTORE POP JUMP JUMPDEST PUSH1 0x0 PUSH2 0x258E PUSH1 0x14 DUP4 PUSH2 0x1C31 JUMP JUMPDEST SWAP2 POP PUSH2 0x2599 DUP3 PUSH2 0x2558 JUMP JUMPDEST PUSH1 0x20 DUP3 ADD SWAP1 POP SWAP2 SWAP1 POP JUMP JUMPDEST PUSH1 0x0 PUSH1 0x20 DUP3 ADD SWAP1 POP DUP2 DUP2 SUB PUSH1 0x0 DUP4 ADD MSTORE PUSH2 0x25BD DUP2 PUSH2 0x2581 JUMP JUMPDEST SWAP1 POP SWAP2 SWAP1 POP JUMP INVALID LOG2 PUSH5 0x6970667358 0x22 SLT KECCAK256 CALLDATALOAD SSTORE PREVRANDAO 0xF MLOAD LOG1 SWAP15 RETURNDATASIZE JUMPI EXTCODECOPY CODECOPY COINBASE PC CALL ADDRESS JUMP SAR 0xD3 PUSH13 0xF058AD92E49A134F8719056C88 PUSH5 0x736F6C6343 STOP ADDMOD SGT STOP CALLER "
		},
		"gasEstimates": {
			"creation": {
				"codeDepositCost": "1944400",
				"executionCost": "infinite",
				"totalCost": "infinite"
			},
			"external": {
				"_areHerosMinted()": "2516",
				"_commonNFTsMinted()": "2488",
				"_heroNFTsMinted()": "2490",
				"_is1stPublicRoundUnlocked()": "2611",
				"_is2ndPublicRoundUnlocked()": "2587",
				"_is3rdPublicRoundUnlocked()": "2611",
				"_legendNFTsMinted()": "2512",
				"_rareNFTsMinted()": "2533",
				"_uncommonNFTsMinted()": "2510",
				"addAuthorizedContract(address)": "27121",
				"getMintIndexRange(uint256,uint8)": "infinite",
				"mintCommon(address)": "infinite",
				"mintCommons(address,uint256)": "infinite",
				"mintHeros(address)": "infinite",
				"mintLegend(address)": "infinite",
				"mintLegends(address,uint256)": "infinite",
				"mintRare(address)": "infinite",
				"mintRares(address,uint256)": "infinite",
				"mintUncommon(address)": "infinite",
				"mintUncommons(address,uint256)": "infinite",
				"owner()": "2590",
				"pause()": "infinite",
				"paused()": "2597",
				"renounceOwnership()": "30465",
				"transferOwnership(address)": "30832",
				"unlock1stPublicRound()": "62715",
				"unlock2ndPublicRound()": "infinite",
				"unpause()": "infinite"
			},
			"internal": {
				"_mintNFTs(address,uint256,enum NFT_CLASS)": "infinite"
			}
		},
		"methodIdentifiers": {
			"_areHerosMinted()": "c8d4fc60",
			"_commonNFTsMinted()": "6f785cdf",
			"_heroNFTsMinted()": "087bd107",
			"_is1stPublicRoundUnlocked()": "953a6ca8",
			"_is2ndPublicRoundUnlocked()": "f2c5d797",
			"_is3rdPublicRoundUnlocked()": "5eee43f0",
			"_legendNFTsMinted()": "1592fb2a",
			"_rareNFTsMinted()": "3a149127",
			"_uncommonNFTsMinted()": "9f158a78",
			"addAuthorizedContract(address)": "98eaa4a7",
			"getMintIndexRange(uint256,uint8)": "d87b320b",
			"mintCommon(address)": "d47e107e",
			"mintCommons(address,uint256)": "bad688c6",
			"mintHeros(address)": "329cc83f",
			"mintLegend(address)": "a8372307",
			"mintLegends(address,uint256)": "20a0c034",
			"mintRare(address)": "8d36f8f4",
			"mintRares(address,uint256)": "f78f680a",
			"mintUncommon(address)": "508f0628",
			"mintUncommons(address,uint256)": "f17a6777",
			"owner()": "8da5cb5b",
			"pause()": "8456cb59",
			"paused()": "5c975abb",
			"renounceOwnership()": "715018a6",
			"transferOwnership(address)": "f2fde38b",
			"unlock1stPublicRound()": "7e7f57f2",
			"unlock2ndPublicRound()": "28d3bd1b",
			"unpause()": "3f4ba83a"
		}
	},
	"abi": [
		{
			"inputs": [
				{
					"internalType": "address",
					"name": "doaCollectionAddress",
					"type": "address"
				},
				{
					"internalType": "address",
					"name": "treasuryAddress",
					"type": "address"
				},
				{
					"internalType": "address",
					"name": "memberRegistryAddress",
					"type": "address"
				}
			],
			"stateMutability": "nonpayable",
			"type": "constructor"
		},
		{
			"anonymous": false,
			"inputs": [
				{
					"indexed": true,
					"internalType": "address",
					"name": "previousOwner",
					"type": "address"
				},
				{
					"indexed": true,
					"internalType": "address",
					"name": "newOwner",
					"type": "address"
				}
			],
			"name": "OwnershipTransferred",
			"type": "event"
		},
		{
			"anonymous": false,
			"inputs": [
				{
					"indexed": false,
					"internalType": "address",
					"name": "account",
					"type": "address"
				}
			],
			"name": "Paused",
			"type": "event"
		},
		{
			"anonymous": false,
			"inputs": [
				{
					"indexed": false,
					"internalType": "address",
					"name": "account",
					"type": "address"
				}
			],
			"name": "Unpaused",
			"type": "event"
		},
		{
			"inputs": [],
			"name": "_areHerosMinted",
			"outputs": [
				{
					"internalType": "bool",
					"name": "",
					"type": "bool"
				}
			],
			"stateMutability": "view",
			"type": "function"
		},
		{
			"inputs": [],
			"name": "_commonNFTsMinted",
			"outputs": [
				{
					"internalType": "uint256",
					"name": "_value",
					"type": "uint256"
				}
			],
			"stateMutability": "view",
			"type": "function"
		},
		{
			"inputs": [],
			"name": "_heroNFTsMinted",
			"outputs": [
				{
					"internalType": "uint256",
					"name": "_value",
					"type": "uint256"
				}
			],
			"stateMutability": "view",
			"type": "function"
		},
		{
			"inputs": [],
			"name": "_is1stPublicRoundUnlocked",
			"outputs": [
				{
					"internalType": "bool",
					"name": "",
					"type": "bool"
				}
			],
			"stateMutability": "view",
			"type": "function"
		},
		{
			"inputs": [],
			"name": "_is2ndPublicRoundUnlocked",
			"outputs": [
				{
					"internalType": "bool",
					"name": "",
					"type": "bool"
				}
			],
			"stateMutability": "view",
			"type": "function"
		},
		{
			"inputs": [],
			"name": "_is3rdPublicRoundUnlocked",
			"outputs": [
				{
					"internalType": "bool",
					"name": "",
					"type": "bool"
				}
			],
			"stateMutability": "view",
			"type": "function"
		},
		{
			"inputs": [],
			"name": "_legendNFTsMinted",
			"outputs": [
				{
					"internalType": "uint256",
					"name": "_value",
					"type": "uint256"
				}
			],
			"stateMutability": "view",
			"type": "function"
		},
		{
			"inputs": [],
			"name": "_rareNFTsMinted",
			"outputs": [
				{
					"internalType": "uint256",
					"name": "_value",
					"type": "uint256"
				}
			],
			"stateMutability": "view",
			"type": "function"
		},
		{
			"inputs": [],
			"name": "_uncommonNFTsMinted",
			"outputs": [
				{
					"internalType": "uint256",
					"name": "_value",
					"type": "uint256"
				}
			],
			"stateMutability": "view",
			"type": "function"
		},
		{
			"inputs": [
				{
					"internalType": "address",
					"name": "contractAddress",
					"type": "address"
				}
			],
			"name": "addAuthorizedContract",
			"outputs": [],
			"stateMutability": "nonpayable",
			"type": "function"
		},
		{
			"inputs": [
				{
					"internalType": "uint256",
					"name": "numToMint",
					"type": "uint256"
				},
				{
					"internalType": "enum NFT_CLASS",
					"name": "classToMint",
					"type": "uint8"
				}
			],
			"name": "getMintIndexRange",
			"outputs": [
				{
					"internalType": "uint256",
					"name": "mintStartIndex",
					"type": "uint256"
				},
				{
					"internalType": "uint256",
					"name": "mintEndIndex",
					"type": "uint256"
				}
			],
			"stateMutability": "view",
			"type": "function"
		},
		{
			"inputs": [
				{
					"internalType": "address",
					"name": "toAddr",
					"type": "address"
				}
			],
			"name": "mintCommon",
			"outputs": [],
			"stateMutability": "payable",
			"type": "function"
		},
		{
			"inputs": [
				{
					"internalType": "address",
					"name": "toAddr",
					"type": "address"
				},
				{
					"internalType": "uint256",
					"name": "numToMint",
					"type": "uint256"
				}
			],
			"name": "mintCommons",
			"outputs": [],
			"stateMutability": "payable",
			"type": "function"
		},
		{
			"inputs": [
				{
					"internalType": "address",
					"name": "toAddr",
					"type": "address"
				}
			],
			"name": "mintHeros",
			"outputs": [],
			"stateMutability": "nonpayable",
			"type": "function"
		},
		{
			"inputs": [
				{
					"internalType": "address",
					"name": "toAddr",
					"type": "address"
				}
			],
			"name": "mintLegend",
			"outputs": [],
			"stateMutability": "payable",
			"type": "function"
		},
		{
			"inputs": [
				{
					"internalType": "address",
					"name": "toAddr",
					"type": "address"
				},
				{
					"internalType": "uint256",
					"name": "numToMint",
					"type": "uint256"
				}
			],
			"name": "mintLegends",
			"outputs": [],
			"stateMutability": "payable",
			"type": "function"
		},
		{
			"inputs": [
				{
					"internalType": "address",
					"name": "toAddr",
					"type": "address"
				}
			],
			"name": "mintRare",
			"outputs": [],
			"stateMutability": "payable",
			"type": "function"
		},
		{
			"inputs": [
				{
					"internalType": "address",
					"name": "toAddr",
					"type": "address"
				},
				{
					"internalType": "uint256",
					"name": "numToMint",
					"type": "uint256"
				}
			],
			"name": "mintRares",
			"outputs": [],
			"stateMutability": "payable",
			"type": "function"
		},
		{
			"inputs": [
				{
					"internalType": "address",
					"name": "toAddr",
					"type": "address"
				}
			],
			"name": "mintUncommon",
			"outputs": [],
			"stateMutability": "payable",
			"type": "function"
		},
		{
			"inputs": [
				{
					"internalType": "address",
					"name": "toAddr",
					"type": "address"
				},
				{
					"internalType": "uint256",
					"name": "numToMint",
					"type": "uint256"
				}
			],
			"name": "mintUncommons",
			"outputs": [],
			"stateMutability": "payable",
			"type": "function"
		},
		{
			"inputs": [],
			"name": "owner",
			"outputs": [
				{
					"internalType": "address",
					"name": "",
					"type": "address"
				}
			],
			"stateMutability": "view",
			"type": "function"
		},
		{
			"inputs": [],
			"name": "pause",
			"outputs": [],
			"stateMutability": "nonpayable",
			"type": "function"
		},
		{
			"inputs": [],
			"name": "paused",
			"outputs": [
				{
					"internalType": "bool",
					"name": "",
					"type": "bool"
				}
			],
			"stateMutability": "view",
			"type": "function"
		},
		{
			"inputs": [],
			"name": "renounceOwnership",
			"outputs": [],
			"stateMutability": "nonpayable",
			"type": "function"
		},
		{
			"inputs": [
				{
					"internalType": "address",
					"name": "newOwner",
					"type": "address"
				}
			],
			"name": "transferOwnership",
			"outputs": [],
			"stateMutability": "nonpayable",
			"type": "function"
		},
		{
			"inputs": [],
			"name": "unlock1stPublicRound",
			"outputs": [],
			"stateMutability": "nonpayable",
			"type": "function"
		},
		{
			"inputs": [],
			"name": "unlock2ndPublicRound",
			"outputs": [],
			"stateMutability": "nonpayable",
			"type": "function"
		},
		{
			"inputs": [],
			"name": "unpause",
			"outputs": [],
			"stateMutability": "nonpayable",
			"type": "function"
		}
	]
}