{
	"data": {
		"bytecode": {
			"linkReferences": {},
			"object": "60806040523480156200001157600080fd5b50604051620027ea380380620027ea8339818101604052810190620000379190620002d2565b620000576200004b6200019c60201b60201c565b620001a460201b60201c565b60008060146101000a81548160ff0219169083151502179055506001808190555082600260006101000a81548173ffffffffffffffffffffffffffffffffffffffff021916908373ffffffffffffffffffffffffffffffffffffffff16021790555081600360006101000a81548173ffffffffffffffffffffffffffffffffffffffff021916908373ffffffffffffffffffffffffffffffffffffffff16021790555080600460006101000a81548173ffffffffffffffffffffffffffffffffffffffff021916908373ffffffffffffffffffffffffffffffffffffffff1602179055506001600560003373ffffffffffffffffffffffffffffffffffffffff1673ffffffffffffffffffffffffffffffffffffffff16815260200190815260200160002060006101000a81548160ff0219169083151502179055505050506200032e565b600033905090565b60008060009054906101000a900473ffffffffffffffffffffffffffffffffffffffff169050816000806101000a81548173ffffffffffffffffffffffffffffffffffffffff021916908373ffffffffffffffffffffffffffffffffffffffff1602179055508173ffffffffffffffffffffffffffffffffffffffff168173ffffffffffffffffffffffffffffffffffffffff167f8be0079c531659141344cd1fd0a4f28419497f9722a3daafe3b4186f6b6457e060405160405180910390a35050565b600080fd5b600073ffffffffffffffffffffffffffffffffffffffff82169050919050565b60006200029a826200026d565b9050919050565b620002ac816200028d565b8114620002b857600080fd5b50565b600081519050620002cc81620002a1565b92915050565b600080600060608486031215620002ee57620002ed62000268565b5b6000620002fe86828701620002bb565b93505060206200031186828701620002bb565b92505060406200032486828701620002bb565b9150509250925092565b6124ac806200033e6000396000f3fe6080604052600436106101b75760003560e01c80638d36f8f4116100ec578063c8d4fc601161008a578063f17a677711610064578063f17a677714610515578063f2c5d79714610531578063f2fde38b1461055c578063f78f680a14610585576101b7565b8063c8d4fc6014610490578063d47e107e146104bb578063d87b320b146104d7576101b7565b806398eaa4a7116100c657806398eaa4a7146104045780639f158a781461042d578063a837230714610458578063bad688c614610474576101b7565b80638d36f8f4146103925780638da5cb5b146103ae578063953a6ca8146103d9576101b7565b8063508f0628116101595780636f785cdf116101335780636f785cdf14610322578063715018a61461034d5780637e7f57f2146103645780638456cb591461037b576101b7565b8063508f0628146102b05780635c975abb146102cc5780635eee43f0146102f7576101b7565b806328d3bd1b1161019557806328d3bd1b1461022e578063329cc83f146102455780633a1491271461026e5780633f4ba83a14610299576101b7565b8063087bd107146101bc5780631592fb2a146101e757806320a0c03414610212575b600080fd5b3480156101c857600080fd5b506101d16105a1565b6040516101de91906118ec565b60405180910390f35b3480156101f357600080fd5b506101fc6105ad565b60405161020991906118ec565b60405180910390f35b61022c60048036038101906102279190611996565b6105b9565b005b34801561023a57600080fd5b506102436105d2565b005b34801561025157600080fd5b5061026c600480360381019061026791906119d6565b6108fd565b005b34801561027a57600080fd5b50610283610a32565b60405161029091906118ec565b60405180910390f35b3480156102a557600080fd5b506102ae610a3e565b005b6102ca60048036038101906102c591906119d6565b610a50565b005b3480156102d857600080fd5b506102e1610a69565b6040516102ee9190611a1e565b60405180910390f35b34801561030357600080fd5b5061030c610a7f565b6040516103199190611a1e565b60405180910390f35b34801561032e57600080fd5b50610337610a92565b60405161034491906118ec565b60405180910390f35b34801561035957600080fd5b50610362610a9e565b005b34801561037057600080fd5b50610379610ab2565b005b34801561038757600080fd5b50610390610c12565b005b6103ac60048036038101906103a791906119d6565b610c24565b005b3480156103ba57600080fd5b506103c3610c3d565b6040516103d09190611a48565b60405180910390f35b3480156103e557600080fd5b506103ee610c66565b6040516103fb9190611a1e565b60405180910390f35b34801561041057600080fd5b5061042b600480360381019061042691906119d6565b610c79565b005b34801561043957600080fd5b50610442610cdc565b60405161044f91906118ec565b60405180910390f35b610472600480360381019061046d91906119d6565b610ce8565b005b61048e60048036038101906104899190611996565b610d00565b005b34801561049c57600080fd5b506104a5610d19565b6040516104b29190611a1e565b60405180910390f35b6104d560048036038101906104d091906119d6565b610d2c565b005b3480156104e357600080fd5b506104fe60048036038101906104f99190611a88565b610d45565b60405161050c929190611ac8565b60405180910390f35b61052f600480360381019061052a9190611996565b6111ef565b005b34801561053d57600080fd5b50610546611208565b6040516105539190611a1e565b60405180910390f35b34801561056857600080fd5b50610583600480360381019061057e91906119d6565b61121b565b005b61059f600480360381019061059a9190611996565b61129e565b005b60068060000154905081565b60078060000154905081565b6105c16112b7565b6105cd82826001611301565b505050565b6105da6112b7565b6105e26115ff565b600560003373ffffffffffffffffffffffffffffffffffffffff1673ffffffffffffffffffffffffffffffffffffffff16815260200190815260200160002060009054906101000a900460ff1661066e576040517f08c379a000000000000000000000000000000000000000000000000000000000815260040161066590611b4e565b60405180910390fd5b600b60029054906101000a900460ff16156106be576040517f08c379a00000000000000000000000000000000000000000000000000000000081526004016106b590611bba565b60405180910390fd5b600b60009054906101000a900460ff1661070d576040517f08c379a000000000000000000000000000000000000000000000000000000000815260040161070490611c26565b60405180910390fd5b600b60019054906101000a900460ff16801561073a5750600161ffff16610734600761164e565b61ffff16105b610779576040517f08c379a000000000000000000000000000000000000000000000000000000000815260040161077090611c92565b60405180910390fd5b600b60019054906101000a900460ff1680156107a65750600561ffff166107a0600861164e565b61ffff16105b6107e5576040517f08c379a00000000000000000000000000000000000000000000000000000000081526004016107dc90611cfe565b60405180910390fd5b600b60019054906101000a900460ff1680156108125750601961ffff1661080c600961164e565b61ffff16105b610851576040517f08c379a000000000000000000000000000000000000000000000000000000000815260040161084890611d6a565b60405180910390fd5b600b60019054906101000a900460ff16801561087e5750607d61ffff16610878600a61164e565b61ffff16105b6108bd576040517f08c379a00000000000000000000000000000000000000000000000000000000081526004016108b490611dd6565b60405180910390fd5b6001600b60026101000a81548160ff0219169083151502179055506000600b60016101000a81548160ff0219169083151502179055506108fb61165c565b565b6109056112b7565b61090d6115ff565b600560003373ffffffffffffffffffffffffffffffffffffffff1673ffffffffffffffffffffffffffffffffffffffff16815260200190815260200160002060009054906101000a900460ff16610999576040517f08c379a000000000000000000000000000000000000000000000000000000000815260040161099090611b4e565b60405180910390fd5b600b60009054906101000a900460ff16156109e9576040517f08c379a00000000000000000000000000000000000000000000000000000000081526004016109e090611e42565b60405180910390fd5b60006109fc82601961ffff166000611301565b9050601961ffff168103610a26576001600b60006101000a81548160ff0219169083151502179055505b50610a2f61165c565b50565b60088060000154905081565b610a46611665565b610a4e6116e3565b565b610a586112b7565b610a658160016003611301565b5050565b60008060149054906101000a900460ff16905090565b600b60039054906101000a900460ff1681565b600a8060000154905081565b610aa6611665565b610ab06000611745565b565b610aba6112b7565b610ac26115ff565b600560003373ffffffffffffffffffffffffffffffffffffffff1673ffffffffffffffffffffffffffffffffffffffff16815260200190815260200160002060009054906101000a900460ff16610b4e576040517f08c379a0000000000000000000000000000000000000000000000000000000008152600401610b4590611b4e565b60405180910390fd5b600b60019054906101000a900460ff1615610b9e576040517f08c379a0000000000000000000000000000000000000000000000000000000008152600401610b9590611bba565b60405180910390fd5b600b60009054906101000a900460ff16610bed576040517f08c379a0000000000000000000000000000000000000000000000000000000008152600401610be490611c26565b60405180910390fd5b6001600b60016101000a81548160ff021916908315150217905550610c1061165c565b565b610c1a611665565b610c22611809565b565b610c2c6112b7565b610c398160016002611301565b5050565b60008060009054906101000a900473ffffffffffffffffffffffffffffffffffffffff16905090565b600b60019054906101000a900460ff1681565b610c81611665565b6001600560008373ffffffffffffffffffffffffffffffffffffffff1673ffffffffffffffffffffffffffffffffffffffff16815260200190815260200160002060006101000a81548160ff02191690831515021790555050565b60098060000154905081565b610cf06112b7565b610cfc81600180611301565b5050565b610d086112b7565b610d1482826004611301565b505050565b600b60009054906101000a900460ff1681565b610d346112b7565b610d418160016004611301565b5050565b600080610d506112b7565b60008411610d93576040517f08c379a0000000000000000000000000000000000000000000000000000000008152600401610d8a90611eae565b60405180910390fd5b600b60009054906101000a900460ff16610de2576040517f08c379a0000000000000000000000000000000000000000000000000000000008152600401610dd990611c26565b60405180910390fd5b600080600080600060016004811115610dfe57610dfd611ece565b5b886004811115610e1157610e10611ece565b5b03610e7f57610e20600761164e565b94508885610e2e9190611f3a565b9350600161ffff169250600a61ffff169150605061ffff169050846019610e559190611f3a565b61ffff1696506001846019610e6a9190611f3a565b610e749190611f70565b61ffff169550611083565b60026004811115610e9357610e92611ece565b5b886004811115610ea657610ea5611ece565b5b03610f1557610eb5600861164e565b94508885610ec39190611f3a565b9350600561ffff169250603261ffff16915061019061ffff16905084607e610eeb9190611f3a565b61ffff169650600184607e610f009190611f3a565b610f0a9190611f70565b61ffff169550611082565b60036004811115610f2957610f28611ece565b5b886004811115610f3c57610f3b611ece565b5b03610fad57610f4b600961164e565b94508885610f599190611f3a565b9350601961ffff16925060fa61ffff1691506107d061ffff16905084610273610f829190611f3a565b61ffff169650600184610273610f989190611f3a565b610fa29190611f70565b61ffff169550611081565b600480811115610fc057610fbf611ece565b5b886004811115610fd357610fd2611ece565b5b0361104557610fe2600a61164e565b94508885610ff09190611f3a565b9350607d61ffff1692506104e261ffff16915061168a61ffff16905084610c3861101a9190611f3a565b61ffff169650600184610c386110309190611f3a565b61103a9190611f70565b61ffff169550611080565b6040517f08c379a000000000000000000000000000000000000000000000000000000000815260040161107790611ff2565b60405180910390fd5b5b5b5b600b60019054906101000a900460ff16156110e457828461ffff1611156110df576040517f08c379a00000000000000000000000000000000000000000000000000000000081526004016110d69061205e565b60405180910390fd5b6111e3565b600b60029054906101000a900460ff161561114557818461ffff161115611140576040517f08c379a00000000000000000000000000000000000000000000000000000000081526004016111379061205e565b60405180910390fd5b6111e2565b600b60039054906101000a900460ff16156111a657808461ffff1611156111a1576040517f08c379a00000000000000000000000000000000000000000000000000000000081526004016111989061205e565b60405180910390fd5b6111e1565b6040517f08c379a00000000000000000000000000000000000000000000000000000000081526004016111d8906120ca565b60405180910390fd5b5b5b50505050509250929050565b6111f76112b7565b61120382826003611301565b505050565b600b60029054906101000a900460ff1681565b611223611665565b600073ffffffffffffffffffffffffffffffffffffffff168173ffffffffffffffffffffffffffffffffffffffff1603611292576040517f08c379a00000000000000000000000000000000000000000000000000000000081526004016112899061215c565b60405180910390fd5b61129b81611745565b50565b6112a66112b7565b6112b282826002611301565b505050565b6112bf610a69565b156112ff576040517f08c379a00000000000000000000000000000000000000000000000000000000081526004016112f6906121c8565b60405180910390fd5b565b600061130b6112b7565b600b60009054906101000a900460ff1661135a576040517f08c379a000000000000000000000000000000000000000000000000000000000815260040161135190611c26565b60405180910390fd5b6000806113678585610d45565b91509150600082905060008390505b8281116115da57600260009054906101000a900473ffffffffffffffffffffffffffffffffffffffff1673ffffffffffffffffffffffffffffffffffffffff1663a144819489836040518363ffffffff1660e01b81526004016113da9291906121e8565b600060405180830381600087803b1580156113f457600080fd5b505af1158015611408573d6000803e3d6000fd5b50505050600460009054906101000a900473ffffffffffffffffffffffffffffffffffffffff1673ffffffffffffffffffffffffffffffffffffffff1663be1e114589886040518363ffffffff1660e01b8152600401611469929190612259565b600060405180830381600087803b15801561148357600080fd5b505af1158015611497573d6000803e3d6000fd5b50505050809150600160048111156114b2576114b1611ece565b5b8660048111156114c5576114c4611ece565b5b036114d9576114d4600761186c565b6115c7565b600260048111156114ed576114ec611ece565b5b866004811115611500576114ff611ece565b5b036115145761150f600861186c565b6115c6565b6003600481111561152857611527611ece565b5b86600481111561153b5761153a611ece565b5b0361154f5761154a600961186c565b6115c5565b60048081111561156257611561611ece565b5b86600481111561157557611574611ece565b5b0361158957611584600a61186c565b6115c4565b6040517f08c379a00000000000000000000000000000000000000000000000000000000081526004016115bb90611ff2565b60405180910390fd5b5b5b5b80806115d290612282565b915050611376565b50600183826115e991906122ca565b6115f391906122fe565b93505050509392505050565b600260015403611644576040517f08c379a000000000000000000000000000000000000000000000000000000000815260040161163b9061237e565b60405180910390fd5b6002600181905550565b600081600001549050919050565b60018081905550565b61166d611882565b73ffffffffffffffffffffffffffffffffffffffff1661168b610c3d565b73ffffffffffffffffffffffffffffffffffffffff16146116e1576040517f08c379a00000000000000000000000000000000000000000000000000000000081526004016116d8906123ea565b60405180910390fd5b565b6116eb61188a565b60008060146101000a81548160ff0219169083151502179055507f5db9ee0a495bf2e6ff9c91a7834c1ba4fdd244a5e8aa4e537bd38aeae4b073aa61172e611882565b60405161173b9190611a48565b60405180910390a1565b60008060009054906101000a900473ffffffffffffffffffffffffffffffffffffffff169050816000806101000a81548173ffffffffffffffffffffffffffffffffffffffff021916908373ffffffffffffffffffffffffffffffffffffffff1602179055508173ffffffffffffffffffffffffffffffffffffffff168173ffffffffffffffffffffffffffffffffffffffff167f8be0079c531659141344cd1fd0a4f28419497f9722a3daafe3b4186f6b6457e060405160405180910390a35050565b6118116112b7565b6001600060146101000a81548160ff0219169083151502179055507f62e78cea01bee320cd4e420270b5ea74000d11b0c9f74754ebdbfc544b05a258611855611882565b6040516118629190611a48565b60405180910390a1565b6001816000016000828254019250508190555050565b600033905090565b611892610a69565b6118d1576040517f08c379a00000000000000000000000000000000000000000000000000000000081526004016118c890612456565b60405180910390fd5b565b6000819050919050565b6118e6816118d3565b82525050565b600060208201905061190160008301846118dd565b92915050565b600080fd5b600073ffffffffffffffffffffffffffffffffffffffff82169050919050565b60006119378261190c565b9050919050565b6119478161192c565b811461195257600080fd5b50565b6000813590506119648161193e565b92915050565b611973816118d3565b811461197e57600080fd5b50565b6000813590506119908161196a565b92915050565b600080604083850312156119ad576119ac611907565b5b60006119bb85828601611955565b92505060206119cc85828601611981565b9150509250929050565b6000602082840312156119ec576119eb611907565b5b60006119fa84828501611955565b91505092915050565b60008115159050919050565b611a1881611a03565b82525050565b6000602082019050611a336000830184611a0f565b92915050565b611a428161192c565b82525050565b6000602082019050611a5d6000830184611a39565b92915050565b60058110611a7057600080fd5b50565b600081359050611a8281611a63565b92915050565b60008060408385031215611a9f57611a9e611907565b5b6000611aad85828601611981565b9250506020611abe85828601611a73565b9150509250929050565b6000604082019050611add60008301856118dd565b611aea60208301846118dd565b9392505050565b600082825260208201905092915050565b7f4e6f204175746800000000000000000000000000000000000000000000000000600082015250565b6000611b38600783611af1565b9150611b4382611b02565b602082019050919050565b60006020820190508181036000830152611b6781611b2b565b9050919050565b7f416c726561647920756e6c6f636b656400000000000000000000000000000000600082015250565b6000611ba4601083611af1565b9150611baf82611b6e565b602082019050919050565b60006020820190508181036000830152611bd381611b97565b9050919050565b7f4865726f73206e6f74206d696e74656400000000000000000000000000000000600082015250565b6000611c10601083611af1565b9150611c1b82611bda565b602082019050919050565b60006020820190508181036000830152611c3f81611c03565b9050919050565b7f556e6d696e746564206c6567656e647300000000000000000000000000000000600082015250565b6000611c7c601083611af1565b9150611c8782611c46565b602082019050919050565b60006020820190508181036000830152611cab81611c6f565b9050919050565b7f556e6d696e746564207261726573000000000000000000000000000000000000600082015250565b6000611ce8600e83611af1565b9150611cf382611cb2565b602082019050919050565b60006020820190508181036000830152611d1781611cdb565b9050919050565b7f556e6d696e74656420756e636f6d6d6f6e730000000000000000000000000000600082015250565b6000611d54601283611af1565b9150611d5f82611d1e565b602082019050919050565b60006020820190508181036000830152611d8381611d47565b9050919050565b7f556e6d696e74656420636f6d6d6f6e7300000000000000000000000000000000600082015250565b6000611dc0601083611af1565b9150611dcb82611d8a565b602082019050919050565b60006020820190508181036000830152611def81611db3565b9050919050565b7f416c7265616479206d696e746564000000000000000000000000000000000000600082015250565b6000611e2c600e83611af1565b9150611e3782611df6565b602082019050919050565b60006020820190508181036000830152611e5b81611e1f565b9050919050565b7f6e756d546f4d696e742030000000000000000000000000000000000000000000600082015250565b6000611e98600b83611af1565b9150611ea382611e62565b602082019050919050565b60006020820190508181036000830152611ec781611e8b565b9050919050565b7f4e487b7100000000000000000000000000000000000000000000000000000000600052602160045260246000fd5b600061ffff82169050919050565b7f4e487b7100000000000000000000000000000000000000000000000000000000600052601160045260246000fd5b6000611f4582611efd565b9150611f5083611efd565b9250828201905061ffff811115611f6a57611f69611f0b565b5b92915050565b6000611f7b82611efd565b9150611f8683611efd565b9250828203905061ffff811115611fa057611f9f611f0b565b5b92915050565b7f496e76616c696420636c61737300000000000000000000000000000000000000600082015250565b6000611fdc600d83611af1565b9150611fe782611fa6565b602082019050919050565b6000602082019050818103600083015261200b81611fcf565b9050919050565b7f737570706c7920696e73756666696369656e7400000000000000000000000000600082015250565b6000612048601383611af1565b915061205382612012565b602082019050919050565b600060208201905081810360008301526120778161203b565b9050919050565b7f6e6f207075626c696320726f756e6420756e6c6f636b65640000000000000000600082015250565b60006120b4601883611af1565b91506120bf8261207e565b602082019050919050565b600060208201905081810360008301526120e3816120a7565b9050919050565b7f4f776e61626c653a206e6577206f776e657220697320746865207a65726f206160008201527f6464726573730000000000000000000000000000000000000000000000000000602082015250565b6000612146602683611af1565b9150612151826120ea565b604082019050919050565b6000602082019050818103600083015261217581612139565b9050919050565b7f5061757361626c653a2070617573656400000000000000000000000000000000600082015250565b60006121b2601083611af1565b91506121bd8261217c565b602082019050919050565b600060208201905081810360008301526121e1816121a5565b9050919050565b60006040820190506121fd6000830185611a39565b61220a60208301846118dd565b9392505050565b6005811061222257612221611ece565b5b50565b600081905061223382612211565b919050565b600061224382612225565b9050919050565b61225381612238565b82525050565b600060408201905061226e6000830185611a39565b61227b602083018461224a565b9392505050565b600061228d826118d3565b91507fffffffffffffffffffffffffffffffffffffffffffffffffffffffffffffffff82036122bf576122be611f0b565b5b600182019050919050565b60006122d5826118d3565b91506122e0836118d3565b92508282039050818111156122f8576122f7611f0b565b5b92915050565b6000612309826118d3565b9150612314836118d3565b925082820190508082111561232c5761232b611f0b565b5b92915050565b7f5265656e7472616e637947756172643a207265656e7472616e742063616c6c00600082015250565b6000612368601f83611af1565b915061237382612332565b602082019050919050565b600060208201905081810360008301526123978161235b565b9050919050565b7f4f776e61626c653a2063616c6c6572206973206e6f7420746865206f776e6572600082015250565b60006123d4602083611af1565b91506123df8261239e565b602082019050919050565b60006020820190508181036000830152612403816123c7565b9050919050565b7f5061757361626c653a206e6f7420706175736564000000000000000000000000600082015250565b6000612440601483611af1565b915061244b8261240a565b602082019050919050565b6000602082019050818103600083015261246f81612433565b905091905056fea264697066735822122087297737bc07377cdea28d7b69ca2139cb1fb07248ae0a21c497658dc4e5741864736f6c63430008130033",
			"opcodes": "PUSH1 0x80 PUSH1 0x40 MSTORE CALLVALUE DUP1 ISZERO PUSH3 0x11 JUMPI PUSH1 0x0 DUP1 REVERT JUMPDEST POP PUSH1 0x40 MLOAD PUSH3 0x27EA CODESIZE SUB DUP1 PUSH3 0x27EA DUP4 CODECOPY DUP2 DUP2 ADD PUSH1 0x40 MSTORE DUP2 ADD SWAP1 PUSH3 0x37 SWAP2 SWAP1 PUSH3 0x2D2 JUMP JUMPDEST PUSH3 0x57 PUSH3 0x4B PUSH3 0x19C PUSH1 0x20 SHL PUSH1 0x20 SHR JUMP JUMPDEST PUSH3 0x1A4 PUSH1 0x20 SHL PUSH1 0x20 SHR JUMP JUMPDEST PUSH1 0x0 DUP1 PUSH1 0x14 PUSH2 0x100 EXP DUP2 SLOAD DUP2 PUSH1 0xFF MUL NOT AND SWAP1 DUP4 ISZERO ISZERO MUL OR SWAP1 SSTORE POP PUSH1 0x1 DUP1 DUP2 SWAP1 SSTORE POP DUP3 PUSH1 0x2 PUSH1 0x0 PUSH2 0x100 EXP DUP2 SLOAD DUP2 PUSH20 0xFFFFFFFFFFFFFFFFFFFFFFFFFFFFFFFFFFFFFFFF MUL NOT AND SWAP1 DUP4 PUSH20 0xFFFFFFFFFFFFFFFFFFFFFFFFFFFFFFFFFFFFFFFF AND MUL OR SWAP1 SSTORE POP DUP2 PUSH1 0x3 PUSH1 0x0 PUSH2 0x100 EXP DUP2 SLOAD DUP2 PUSH20 0xFFFFFFFFFFFFFFFFFFFFFFFFFFFFFFFFFFFFFFFF MUL NOT AND SWAP1 DUP4 PUSH20 0xFFFFFFFFFFFFFFFFFFFFFFFFFFFFFFFFFFFFFFFF AND MUL OR SWAP1 SSTORE POP DUP1 PUSH1 0x4 PUSH1 0x0 PUSH2 0x100 EXP DUP2 SLOAD DUP2 PUSH20 0xFFFFFFFFFFFFFFFFFFFFFFFFFFFFFFFFFFFFFFFF MUL NOT AND SWAP1 DUP4 PUSH20 0xFFFFFFFFFFFFFFFFFFFFFFFFFFFFFFFFFFFFFFFF AND MUL OR SWAP1 SSTORE POP PUSH1 0x1 PUSH1 0x5 PUSH1 0x0 CALLER PUSH20 0xFFFFFFFFFFFFFFFFFFFFFFFFFFFFFFFFFFFFFFFF AND PUSH20 0xFFFFFFFFFFFFFFFFFFFFFFFFFFFFFFFFFFFFFFFF AND DUP2 MSTORE PUSH1 0x20 ADD SWAP1 DUP2 MSTORE PUSH1 0x20 ADD PUSH1 0x0 KECCAK256 PUSH1 0x0 PUSH2 0x100 EXP DUP2 SLOAD DUP2 PUSH1 0xFF MUL NOT AND SWAP1 DUP4 ISZERO ISZERO MUL OR SWAP1 SSTORE POP POP POP POP PUSH3 0x32E JUMP JUMPDEST PUSH1 0x0 CALLER SWAP1 POP SWAP1 JUMP JUMPDEST PUSH1 0x0 DUP1 PUSH1 0x0 SWAP1 SLOAD SWAP1 PUSH2 0x100 EXP SWAP1 DIV PUSH20 0xFFFFFFFFFFFFFFFFFFFFFFFFFFFFFFFFFFFFFFFF AND SWAP1 POP DUP2 PUSH1 0x0 DUP1 PUSH2 0x100 EXP DUP2 SLOAD DUP2 PUSH20 0xFFFFFFFFFFFFFFFFFFFFFFFFFFFFFFFFFFFFFFFF MUL NOT AND SWAP1 DUP4 PUSH20 0xFFFFFFFFFFFFFFFFFFFFFFFFFFFFFFFFFFFFFFFF AND MUL OR SWAP1 SSTORE POP DUP2 PUSH20 0xFFFFFFFFFFFFFFFFFFFFFFFFFFFFFFFFFFFFFFFF AND DUP2 PUSH20 0xFFFFFFFFFFFFFFFFFFFFFFFFFFFFFFFFFFFFFFFF AND PUSH32 0x8BE0079C531659141344CD1FD0A4F28419497F9722A3DAAFE3B4186F6B6457E0 PUSH1 0x40 MLOAD PUSH1 0x40 MLOAD DUP1 SWAP2 SUB SWAP1 LOG3 POP POP JUMP JUMPDEST PUSH1 0x0 DUP1 REVERT JUMPDEST PUSH1 0x0 PUSH20 0xFFFFFFFFFFFFFFFFFFFFFFFFFFFFFFFFFFFFFFFF DUP3 AND SWAP1 POP SWAP2 SWAP1 POP JUMP JUMPDEST PUSH1 0x0 PUSH3 0x29A DUP3 PUSH3 0x26D JUMP JUMPDEST SWAP1 POP SWAP2 SWAP1 POP JUMP JUMPDEST PUSH3 0x2AC DUP2 PUSH3 0x28D JUMP JUMPDEST DUP2 EQ PUSH3 0x2B8 JUMPI PUSH1 0x0 DUP1 REVERT JUMPDEST POP JUMP JUMPDEST PUSH1 0x0 DUP2 MLOAD SWAP1 POP PUSH3 0x2CC DUP2 PUSH3 0x2A1 JUMP JUMPDEST SWAP3 SWAP2 POP POP JUMP JUMPDEST PUSH1 0x0 DUP1 PUSH1 0x0 PUSH1 0x60 DUP5 DUP7 SUB SLT ISZERO PUSH3 0x2EE JUMPI PUSH3 0x2ED PUSH3 0x268 JUMP JUMPDEST JUMPDEST PUSH1 0x0 PUSH3 0x2FE DUP7 DUP3 DUP8 ADD PUSH3 0x2BB JUMP JUMPDEST SWAP4 POP POP PUSH1 0x20 PUSH3 0x311 DUP7 DUP3 DUP8 ADD PUSH3 0x2BB JUMP JUMPDEST SWAP3 POP POP PUSH1 0x40 PUSH3 0x324 DUP7 DUP3 DUP8 ADD PUSH3 0x2BB JUMP JUMPDEST SWAP2 POP POP SWAP3 POP SWAP3 POP SWAP3 JUMP JUMPDEST PUSH2 0x24AC DUP1 PUSH3 0x33E PUSH1 0x0 CODECOPY PUSH1 0x0 RETURN INVALID PUSH1 0x80 PUSH1 0x40 MSTORE PUSH1 0x4 CALLDATASIZE LT PUSH2 0x1B7 JUMPI PUSH1 0x0 CALLDATALOAD PUSH1 0xE0 SHR DUP1 PUSH4 0x8D36F8F4 GT PUSH2 0xEC JUMPI DUP1 PUSH4 0xC8D4FC60 GT PUSH2 0x8A JUMPI DUP1 PUSH4 0xF17A6777 GT PUSH2 0x64 JUMPI DUP1 PUSH4 0xF17A6777 EQ PUSH2 0x515 JUMPI DUP1 PUSH4 0xF2C5D797 EQ PUSH2 0x531 JUMPI DUP1 PUSH4 0xF2FDE38B EQ PUSH2 0x55C JUMPI DUP1 PUSH4 0xF78F680A EQ PUSH2 0x585 JUMPI PUSH2 0x1B7 JUMP JUMPDEST DUP1 PUSH4 0xC8D4FC60 EQ PUSH2 0x490 JUMPI DUP1 PUSH4 0xD47E107E EQ PUSH2 0x4BB JUMPI DUP1 PUSH4 0xD87B320B EQ PUSH2 0x4D7 JUMPI PUSH2 0x1B7 JUMP JUMPDEST DUP1 PUSH4 0x98EAA4A7 GT PUSH2 0xC6 JUMPI DUP1 PUSH4 0x98EAA4A7 EQ PUSH2 0x404 JUMPI DUP1 PUSH4 0x9F158A78 EQ PUSH2 0x42D JUMPI DUP1 PUSH4 0xA8372307 EQ PUSH2 0x458 JUMPI DUP1 PUSH4 0xBAD688C6 EQ PUSH2 0x474 JUMPI PUSH2 0x1B7 JUMP JUMPDEST DUP1 PUSH4 0x8D36F8F4 EQ PUSH2 0x392 JUMPI DUP1 PUSH4 0x8DA5CB5B EQ PUSH2 0x3AE JUMPI DUP1 PUSH4 0x953A6CA8 EQ PUSH2 0x3D9 JUMPI PUSH2 0x1B7 JUMP JUMPDEST DUP1 PUSH4 0x508F0628 GT PUSH2 0x159 JUMPI DUP1 PUSH4 0x6F785CDF GT PUSH2 0x133 JUMPI DUP1 PUSH4 0x6F785CDF EQ PUSH2 0x322 JUMPI DUP1 PUSH4 0x715018A6 EQ PUSH2 0x34D JUMPI DUP1 PUSH4 0x7E7F57F2 EQ PUSH2 0x364 JUMPI DUP1 PUSH4 0x8456CB59 EQ PUSH2 0x37B JUMPI PUSH2 0x1B7 JUMP JUMPDEST DUP1 PUSH4 0x508F0628 EQ PUSH2 0x2B0 JUMPI DUP1 PUSH4 0x5C975ABB EQ PUSH2 0x2CC JUMPI DUP1 PUSH4 0x5EEE43F0 EQ PUSH2 0x2F7 JUMPI PUSH2 0x1B7 JUMP JUMPDEST DUP1 PUSH4 0x28D3BD1B GT PUSH2 0x195 JUMPI DUP1 PUSH4 0x28D3BD1B EQ PUSH2 0x22E JUMPI DUP1 PUSH4 0x329CC83F EQ PUSH2 0x245 JUMPI DUP1 PUSH4 0x3A149127 EQ PUSH2 0x26E JUMPI DUP1 PUSH4 0x3F4BA83A EQ PUSH2 0x299 JUMPI PUSH2 0x1B7 JUMP JUMPDEST DUP1 PUSH4 0x87BD107 EQ PUSH2 0x1BC JUMPI DUP1 PUSH4 0x1592FB2A EQ PUSH2 0x1E7 JUMPI DUP1 PUSH4 0x20A0C034 EQ PUSH2 0x212 JUMPI JUMPDEST PUSH1 0x0 DUP1 REVERT JUMPDEST CALLVALUE DUP1 ISZERO PUSH2 0x1C8 JUMPI PUSH1 0x0 DUP1 REVERT JUMPDEST POP PUSH2 0x1D1 PUSH2 0x5A1 JUMP JUMPDEST PUSH1 0x40 MLOAD PUSH2 0x1DE SWAP2 SWAP1 PUSH2 0x18EC JUMP JUMPDEST PUSH1 0x40 MLOAD DUP1 SWAP2 SUB SWAP1 RETURN JUMPDEST CALLVALUE DUP1 ISZERO PUSH2 0x1F3 JUMPI PUSH1 0x0 DUP1 REVERT JUMPDEST POP PUSH2 0x1FC PUSH2 0x5AD JUMP JUMPDEST PUSH1 0x40 MLOAD PUSH2 0x209 SWAP2 SWAP1 PUSH2 0x18EC JUMP JUMPDEST PUSH1 0x40 MLOAD DUP1 SWAP2 SUB SWAP1 RETURN JUMPDEST PUSH2 0x22C PUSH1 0x4 DUP1 CALLDATASIZE SUB DUP2 ADD SWAP1 PUSH2 0x227 SWAP2 SWAP1 PUSH2 0x1996 JUMP JUMPDEST PUSH2 0x5B9 JUMP JUMPDEST STOP JUMPDEST CALLVALUE DUP1 ISZERO PUSH2 0x23A JUMPI PUSH1 0x0 DUP1 REVERT JUMPDEST POP PUSH2 0x243 PUSH2 0x5D2 JUMP JUMPDEST STOP JUMPDEST CALLVALUE DUP1 ISZERO PUSH2 0x251 JUMPI PUSH1 0x0 DUP1 REVERT JUMPDEST POP PUSH2 0x26C PUSH1 0x4 DUP1 CALLDATASIZE SUB DUP2 ADD SWAP1 PUSH2 0x267 SWAP2 SWAP1 PUSH2 0x19D6 JUMP JUMPDEST PUSH2 0x8FD JUMP JUMPDEST STOP JUMPDEST CALLVALUE DUP1 ISZERO PUSH2 0x27A JUMPI PUSH1 0x0 DUP1 REVERT JUMPDEST POP PUSH2 0x283 PUSH2 0xA32 JUMP JUMPDEST PUSH1 0x40 MLOAD PUSH2 0x290 SWAP2 SWAP1 PUSH2 0x18EC JUMP JUMPDEST PUSH1 0x40 MLOAD DUP1 SWAP2 SUB SWAP1 RETURN JUMPDEST CALLVALUE DUP1 ISZERO PUSH2 0x2A5 JUMPI PUSH1 0x0 DUP1 REVERT JUMPDEST POP PUSH2 0x2AE PUSH2 0xA3E JUMP JUMPDEST STOP JUMPDEST PUSH2 0x2CA PUSH1 0x4 DUP1 CALLDATASIZE SUB DUP2 ADD SWAP1 PUSH2 0x2C5 SWAP2 SWAP1 PUSH2 0x19D6 JUMP JUMPDEST PUSH2 0xA50 JUMP JUMPDEST STOP JUMPDEST CALLVALUE DUP1 ISZERO PUSH2 0x2D8 JUMPI PUSH1 0x0 DUP1 REVERT JUMPDEST POP PUSH2 0x2E1 PUSH2 0xA69 JUMP JUMPDEST PUSH1 0x40 MLOAD PUSH2 0x2EE SWAP2 SWAP1 PUSH2 0x1A1E JUMP JUMPDEST PUSH1 0x40 MLOAD DUP1 SWAP2 SUB SWAP1 RETURN JUMPDEST CALLVALUE DUP1 ISZERO PUSH2 0x303 JUMPI PUSH1 0x0 DUP1 REVERT JUMPDEST POP PUSH2 0x30C PUSH2 0xA7F JUMP JUMPDEST PUSH1 0x40 MLOAD PUSH2 0x319 SWAP2 SWAP1 PUSH2 0x1A1E JUMP JUMPDEST PUSH1 0x40 MLOAD DUP1 SWAP2 SUB SWAP1 RETURN JUMPDEST CALLVALUE DUP1 ISZERO PUSH2 0x32E JUMPI PUSH1 0x0 DUP1 REVERT JUMPDEST POP PUSH2 0x337 PUSH2 0xA92 JUMP JUMPDEST PUSH1 0x40 MLOAD PUSH2 0x344 SWAP2 SWAP1 PUSH2 0x18EC JUMP JUMPDEST PUSH1 0x40 MLOAD DUP1 SWAP2 SUB SWAP1 RETURN JUMPDEST CALLVALUE DUP1 ISZERO PUSH2 0x359 JUMPI PUSH1 0x0 DUP1 REVERT JUMPDEST POP PUSH2 0x362 PUSH2 0xA9E JUMP JUMPDEST STOP JUMPDEST CALLVALUE DUP1 ISZERO PUSH2 0x370 JUMPI PUSH1 0x0 DUP1 REVERT JUMPDEST POP PUSH2 0x379 PUSH2 0xAB2 JUMP JUMPDEST STOP JUMPDEST CALLVALUE DUP1 ISZERO PUSH2 0x387 JUMPI PUSH1 0x0 DUP1 REVERT JUMPDEST POP PUSH2 0x390 PUSH2 0xC12 JUMP JUMPDEST STOP JUMPDEST PUSH2 0x3AC PUSH1 0x4 DUP1 CALLDATASIZE SUB DUP2 ADD SWAP1 PUSH2 0x3A7 SWAP2 SWAP1 PUSH2 0x19D6 JUMP JUMPDEST PUSH2 0xC24 JUMP JUMPDEST STOP JUMPDEST CALLVALUE DUP1 ISZERO PUSH2 0x3BA JUMPI PUSH1 0x0 DUP1 REVERT JUMPDEST POP PUSH2 0x3C3 PUSH2 0xC3D JUMP JUMPDEST PUSH1 0x40 MLOAD PUSH2 0x3D0 SWAP2 SWAP1 PUSH2 0x1A48 JUMP JUMPDEST PUSH1 0x40 MLOAD DUP1 SWAP2 SUB SWAP1 RETURN JUMPDEST CALLVALUE DUP1 ISZERO PUSH2 0x3E5 JUMPI PUSH1 0x0 DUP1 REVERT JUMPDEST POP PUSH2 0x3EE PUSH2 0xC66 JUMP JUMPDEST PUSH1 0x40 MLOAD PUSH2 0x3FB SWAP2 SWAP1 PUSH2 0x1A1E JUMP JUMPDEST PUSH1 0x40 MLOAD DUP1 SWAP2 SUB SWAP1 RETURN JUMPDEST CALLVALUE DUP1 ISZERO PUSH2 0x410 JUMPI PUSH1 0x0 DUP1 REVERT JUMPDEST POP PUSH2 0x42B PUSH1 0x4 DUP1 CALLDATASIZE SUB DUP2 ADD SWAP1 PUSH2 0x426 SWAP2 SWAP1 PUSH2 0x19D6 JUMP JUMPDEST PUSH2 0xC79 JUMP JUMPDEST STOP JUMPDEST CALLVALUE DUP1 ISZERO PUSH2 0x439 JUMPI PUSH1 0x0 DUP1 REVERT JUMPDEST POP PUSH2 0x442 PUSH2 0xCDC JUMP JUMPDEST PUSH1 0x40 MLOAD PUSH2 0x44F SWAP2 SWAP1 PUSH2 0x18EC JUMP JUMPDEST PUSH1 0x40 MLOAD DUP1 SWAP2 SUB SWAP1 RETURN JUMPDEST PUSH2 0x472 PUSH1 0x4 DUP1 CALLDATASIZE SUB DUP2 ADD SWAP1 PUSH2 0x46D SWAP2 SWAP1 PUSH2 0x19D6 JUMP JUMPDEST PUSH2 0xCE8 JUMP JUMPDEST STOP JUMPDEST PUSH2 0x48E PUSH1 0x4 DUP1 CALLDATASIZE SUB DUP2 ADD SWAP1 PUSH2 0x489 SWAP2 SWAP1 PUSH2 0x1996 JUMP JUMPDEST PUSH2 0xD00 JUMP JUMPDEST STOP JUMPDEST CALLVALUE DUP1 ISZERO PUSH2 0x49C JUMPI PUSH1 0x0 DUP1 REVERT JUMPDEST POP PUSH2 0x4A5 PUSH2 0xD19 JUMP JUMPDEST PUSH1 0x40 MLOAD PUSH2 0x4B2 SWAP2 SWAP1 PUSH2 0x1A1E JUMP JUMPDEST PUSH1 0x40 MLOAD DUP1 SWAP2 SUB SWAP1 RETURN JUMPDEST PUSH2 0x4D5 PUSH1 0x4 DUP1 CALLDATASIZE SUB DUP2 ADD SWAP1 PUSH2 0x4D0 SWAP2 SWAP1 PUSH2 0x19D6 JUMP JUMPDEST PUSH2 0xD2C JUMP JUMPDEST STOP JUMPDEST CALLVALUE DUP1 ISZERO PUSH2 0x4E3 JUMPI PUSH1 0x0 DUP1 REVERT JUMPDEST POP PUSH2 0x4FE PUSH1 0x4 DUP1 CALLDATASIZE SUB DUP2 ADD SWAP1 PUSH2 0x4F9 SWAP2 SWAP1 PUSH2 0x1A88 JUMP JUMPDEST PUSH2 0xD45 JUMP JUMPDEST PUSH1 0x40 MLOAD PUSH2 0x50C SWAP3 SWAP2 SWAP1 PUSH2 0x1AC8 JUMP JUMPDEST PUSH1 0x40 MLOAD DUP1 SWAP2 SUB SWAP1 RETURN JUMPDEST PUSH2 0x52F PUSH1 0x4 DUP1 CALLDATASIZE SUB DUP2 ADD SWAP1 PUSH2 0x52A SWAP2 SWAP1 PUSH2 0x1996 JUMP JUMPDEST PUSH2 0x11EF JUMP JUMPDEST STOP JUMPDEST CALLVALUE DUP1 ISZERO PUSH2 0x53D JUMPI PUSH1 0x0 DUP1 REVERT JUMPDEST POP PUSH2 0x546 PUSH2 0x1208 JUMP JUMPDEST PUSH1 0x40 MLOAD PUSH2 0x553 SWAP2 SWAP1 PUSH2 0x1A1E JUMP JUMPDEST PUSH1 0x40 MLOAD DUP1 SWAP2 SUB SWAP1 RETURN JUMPDEST CALLVALUE DUP1 ISZERO PUSH2 0x568 JUMPI PUSH1 0x0 DUP1 REVERT JUMPDEST POP PUSH2 0x583 PUSH1 0x4 DUP1 CALLDATASIZE SUB DUP2 ADD SWAP1 PUSH2 0x57E SWAP2 SWAP1 PUSH2 0x19D6 JUMP JUMPDEST PUSH2 0x121B JUMP JUMPDEST STOP JUMPDEST PUSH2 0x59F PUSH1 0x4 DUP1 CALLDATASIZE SUB DUP2 ADD SWAP1 PUSH2 0x59A SWAP2 SWAP1 PUSH2 0x1996 JUMP JUMPDEST PUSH2 0x129E JUMP JUMPDEST STOP JUMPDEST PUSH1 0x6 DUP1 PUSH1 0x0 ADD SLOAD SWAP1 POP DUP2 JUMP JUMPDEST PUSH1 0x7 DUP1 PUSH1 0x0 ADD SLOAD SWAP1 POP DUP2 JUMP JUMPDEST PUSH2 0x5C1 PUSH2 0x12B7 JUMP JUMPDEST PUSH2 0x5CD DUP3 DUP3 PUSH1 0x1 PUSH2 0x1301 JUMP JUMPDEST POP POP POP JUMP JUMPDEST PUSH2 0x5DA PUSH2 0x12B7 JUMP JUMPDEST PUSH2 0x5E2 PUSH2 0x15FF JUMP JUMPDEST PUSH1 0x5 PUSH1 0x0 CALLER PUSH20 0xFFFFFFFFFFFFFFFFFFFFFFFFFFFFFFFFFFFFFFFF AND PUSH20 0xFFFFFFFFFFFFFFFFFFFFFFFFFFFFFFFFFFFFFFFF AND DUP2 MSTORE PUSH1 0x20 ADD SWAP1 DUP2 MSTORE PUSH1 0x20 ADD PUSH1 0x0 KECCAK256 PUSH1 0x0 SWAP1 SLOAD SWAP1 PUSH2 0x100 EXP SWAP1 DIV PUSH1 0xFF AND PUSH2 0x66E JUMPI PUSH1 0x40 MLOAD PUSH32 0x8C379A000000000000000000000000000000000000000000000000000000000 DUP2 MSTORE PUSH1 0x4 ADD PUSH2 0x665 SWAP1 PUSH2 0x1B4E JUMP JUMPDEST PUSH1 0x40 MLOAD DUP1 SWAP2 SUB SWAP1 REVERT JUMPDEST PUSH1 0xB PUSH1 0x2 SWAP1 SLOAD SWAP1 PUSH2 0x100 EXP SWAP1 DIV PUSH1 0xFF AND ISZERO PUSH2 0x6BE JUMPI PUSH1 0x40 MLOAD PUSH32 0x8C379A000000000000000000000000000000000000000000000000000000000 DUP2 MSTORE PUSH1 0x4 ADD PUSH2 0x6B5 SWAP1 PUSH2 0x1BBA JUMP JUMPDEST PUSH1 0x40 MLOAD DUP1 SWAP2 SUB SWAP1 REVERT JUMPDEST PUSH1 0xB PUSH1 0x0 SWAP1 SLOAD SWAP1 PUSH2 0x100 EXP SWAP1 DIV PUSH1 0xFF AND PUSH2 0x70D JUMPI PUSH1 0x40 MLOAD PUSH32 0x8C379A000000000000000000000000000000000000000000000000000000000 DUP2 MSTORE PUSH1 0x4 ADD PUSH2 0x704 SWAP1 PUSH2 0x1C26 JUMP JUMPDEST PUSH1 0x40 MLOAD DUP1 SWAP2 SUB SWAP1 REVERT JUMPDEST PUSH1 0xB PUSH1 0x1 SWAP1 SLOAD SWAP1 PUSH2 0x100 EXP SWAP1 DIV PUSH1 0xFF AND DUP1 ISZERO PUSH2 0x73A JUMPI POP PUSH1 0x1 PUSH2 0xFFFF AND PUSH2 0x734 PUSH1 0x7 PUSH2 0x164E JUMP JUMPDEST PUSH2 0xFFFF AND LT JUMPDEST PUSH2 0x779 JUMPI PUSH1 0x40 MLOAD PUSH32 0x8C379A000000000000000000000000000000000000000000000000000000000 DUP2 MSTORE PUSH1 0x4 ADD PUSH2 0x770 SWAP1 PUSH2 0x1C92 JUMP JUMPDEST PUSH1 0x40 MLOAD DUP1 SWAP2 SUB SWAP1 REVERT JUMPDEST PUSH1 0xB PUSH1 0x1 SWAP1 SLOAD SWAP1 PUSH2 0x100 EXP SWAP1 DIV PUSH1 0xFF AND DUP1 ISZERO PUSH2 0x7A6 JUMPI POP PUSH1 0x5 PUSH2 0xFFFF AND PUSH2 0x7A0 PUSH1 0x8 PUSH2 0x164E JUMP JUMPDEST PUSH2 0xFFFF AND LT JUMPDEST PUSH2 0x7E5 JUMPI PUSH1 0x40 MLOAD PUSH32 0x8C379A000000000000000000000000000000000000000000000000000000000 DUP2 MSTORE PUSH1 0x4 ADD PUSH2 0x7DC SWAP1 PUSH2 0x1CFE JUMP JUMPDEST PUSH1 0x40 MLOAD DUP1 SWAP2 SUB SWAP1 REVERT JUMPDEST PUSH1 0xB PUSH1 0x1 SWAP1 SLOAD SWAP1 PUSH2 0x100 EXP SWAP1 DIV PUSH1 0xFF AND DUP1 ISZERO PUSH2 0x812 JUMPI POP PUSH1 0x19 PUSH2 0xFFFF AND PUSH2 0x80C PUSH1 0x9 PUSH2 0x164E JUMP JUMPDEST PUSH2 0xFFFF AND LT JUMPDEST PUSH2 0x851 JUMPI PUSH1 0x40 MLOAD PUSH32 0x8C379A000000000000000000000000000000000000000000000000000000000 DUP2 MSTORE PUSH1 0x4 ADD PUSH2 0x848 SWAP1 PUSH2 0x1D6A JUMP JUMPDEST PUSH1 0x40 MLOAD DUP1 SWAP2 SUB SWAP1 REVERT JUMPDEST PUSH1 0xB PUSH1 0x1 SWAP1 SLOAD SWAP1 PUSH2 0x100 EXP SWAP1 DIV PUSH1 0xFF AND DUP1 ISZERO PUSH2 0x87E JUMPI POP PUSH1 0x7D PUSH2 0xFFFF AND PUSH2 0x878 PUSH1 0xA PUSH2 0x164E JUMP JUMPDEST PUSH2 0xFFFF AND LT JUMPDEST PUSH2 0x8BD JUMPI PUSH1 0x40 MLOAD PUSH32 0x8C379A000000000000000000000000000000000000000000000000000000000 DUP2 MSTORE PUSH1 0x4 ADD PUSH2 0x8B4 SWAP1 PUSH2 0x1DD6 JUMP JUMPDEST PUSH1 0x40 MLOAD DUP1 SWAP2 SUB SWAP1 REVERT JUMPDEST PUSH1 0x1 PUSH1 0xB PUSH1 0x2 PUSH2 0x100 EXP DUP2 SLOAD DUP2 PUSH1 0xFF MUL NOT AND SWAP1 DUP4 ISZERO ISZERO MUL OR SWAP1 SSTORE POP PUSH1 0x0 PUSH1 0xB PUSH1 0x1 PUSH2 0x100 EXP DUP2 SLOAD DUP2 PUSH1 0xFF MUL NOT AND SWAP1 DUP4 ISZERO ISZERO MUL OR SWAP1 SSTORE POP PUSH2 0x8FB PUSH2 0x165C JUMP JUMPDEST JUMP JUMPDEST PUSH2 0x905 PUSH2 0x12B7 JUMP JUMPDEST PUSH2 0x90D PUSH2 0x15FF JUMP JUMPDEST PUSH1 0x5 PUSH1 0x0 CALLER PUSH20 0xFFFFFFFFFFFFFFFFFFFFFFFFFFFFFFFFFFFFFFFF AND PUSH20 0xFFFFFFFFFFFFFFFFFFFFFFFFFFFFFFFFFFFFFFFF AND DUP2 MSTORE PUSH1 0x20 ADD SWAP1 DUP2 MSTORE PUSH1 0x20 ADD PUSH1 0x0 KECCAK256 PUSH1 0x0 SWAP1 SLOAD SWAP1 PUSH2 0x100 EXP SWAP1 DIV PUSH1 0xFF AND PUSH2 0x999 JUMPI PUSH1 0x40 MLOAD PUSH32 0x8C379A000000000000000000000000000000000000000000000000000000000 DUP2 MSTORE PUSH1 0x4 ADD PUSH2 0x990 SWAP1 PUSH2 0x1B4E JUMP JUMPDEST PUSH1 0x40 MLOAD DUP1 SWAP2 SUB SWAP1 REVERT JUMPDEST PUSH1 0xB PUSH1 0x0 SWAP1 SLOAD SWAP1 PUSH2 0x100 EXP SWAP1 DIV PUSH1 0xFF AND ISZERO PUSH2 0x9E9 JUMPI PUSH1 0x40 MLOAD PUSH32 0x8C379A000000000000000000000000000000000000000000000000000000000 DUP2 MSTORE PUSH1 0x4 ADD PUSH2 0x9E0 SWAP1 PUSH2 0x1E42 JUMP JUMPDEST PUSH1 0x40 MLOAD DUP1 SWAP2 SUB SWAP1 REVERT JUMPDEST PUSH1 0x0 PUSH2 0x9FC DUP3 PUSH1 0x19 PUSH2 0xFFFF AND PUSH1 0x0 PUSH2 0x1301 JUMP JUMPDEST SWAP1 POP PUSH1 0x19 PUSH2 0xFFFF AND DUP2 SUB PUSH2 0xA26 JUMPI PUSH1 0x1 PUSH1 0xB PUSH1 0x0 PUSH2 0x100 EXP DUP2 SLOAD DUP2 PUSH1 0xFF MUL NOT AND SWAP1 DUP4 ISZERO ISZERO MUL OR SWAP1 SSTORE POP JUMPDEST POP PUSH2 0xA2F PUSH2 0x165C JUMP JUMPDEST POP JUMP JUMPDEST PUSH1 0x8 DUP1 PUSH1 0x0 ADD SLOAD SWAP1 POP DUP2 JUMP JUMPDEST PUSH2 0xA46 PUSH2 0x1665 JUMP JUMPDEST PUSH2 0xA4E PUSH2 0x16E3 JUMP JUMPDEST JUMP JUMPDEST PUSH2 0xA58 PUSH2 0x12B7 JUMP JUMPDEST PUSH2 0xA65 DUP2 PUSH1 0x1 PUSH1 0x3 PUSH2 0x1301 JUMP JUMPDEST POP POP JUMP JUMPDEST PUSH1 0x0 DUP1 PUSH1 0x14 SWAP1 SLOAD SWAP1 PUSH2 0x100 EXP SWAP1 DIV PUSH1 0xFF AND SWAP1 POP SWAP1 JUMP JUMPDEST PUSH1 0xB PUSH1 0x3 SWAP1 SLOAD SWAP1 PUSH2 0x100 EXP SWAP1 DIV PUSH1 0xFF AND DUP2 JUMP JUMPDEST PUSH1 0xA DUP1 PUSH1 0x0 ADD SLOAD SWAP1 POP DUP2 JUMP JUMPDEST PUSH2 0xAA6 PUSH2 0x1665 JUMP JUMPDEST PUSH2 0xAB0 PUSH1 0x0 PUSH2 0x1745 JUMP JUMPDEST JUMP JUMPDEST PUSH2 0xABA PUSH2 0x12B7 JUMP JUMPDEST PUSH2 0xAC2 PUSH2 0x15FF JUMP JUMPDEST PUSH1 0x5 PUSH1 0x0 CALLER PUSH20 0xFFFFFFFFFFFFFFFFFFFFFFFFFFFFFFFFFFFFFFFF AND PUSH20 0xFFFFFFFFFFFFFFFFFFFFFFFFFFFFFFFFFFFFFFFF AND DUP2 MSTORE PUSH1 0x20 ADD SWAP1 DUP2 MSTORE PUSH1 0x20 ADD PUSH1 0x0 KECCAK256 PUSH1 0x0 SWAP1 SLOAD SWAP1 PUSH2 0x100 EXP SWAP1 DIV PUSH1 0xFF AND PUSH2 0xB4E JUMPI PUSH1 0x40 MLOAD PUSH32 0x8C379A000000000000000000000000000000000000000000000000000000000 DUP2 MSTORE PUSH1 0x4 ADD PUSH2 0xB45 SWAP1 PUSH2 0x1B4E JUMP JUMPDEST PUSH1 0x40 MLOAD DUP1 SWAP2 SUB SWAP1 REVERT JUMPDEST PUSH1 0xB PUSH1 0x1 SWAP1 SLOAD SWAP1 PUSH2 0x100 EXP SWAP1 DIV PUSH1 0xFF AND ISZERO PUSH2 0xB9E JUMPI PUSH1 0x40 MLOAD PUSH32 0x8C379A000000000000000000000000000000000000000000000000000000000 DUP2 MSTORE PUSH1 0x4 ADD PUSH2 0xB95 SWAP1 PUSH2 0x1BBA JUMP JUMPDEST PUSH1 0x40 MLOAD DUP1 SWAP2 SUB SWAP1 REVERT JUMPDEST PUSH1 0xB PUSH1 0x0 SWAP1 SLOAD SWAP1 PUSH2 0x100 EXP SWAP1 DIV PUSH1 0xFF AND PUSH2 0xBED JUMPI PUSH1 0x40 MLOAD PUSH32 0x8C379A000000000000000000000000000000000000000000000000000000000 DUP2 MSTORE PUSH1 0x4 ADD PUSH2 0xBE4 SWAP1 PUSH2 0x1C26 JUMP JUMPDEST PUSH1 0x40 MLOAD DUP1 SWAP2 SUB SWAP1 REVERT JUMPDEST PUSH1 0x1 PUSH1 0xB PUSH1 0x1 PUSH2 0x100 EXP DUP2 SLOAD DUP2 PUSH1 0xFF MUL NOT AND SWAP1 DUP4 ISZERO ISZERO MUL OR SWAP1 SSTORE POP PUSH2 0xC10 PUSH2 0x165C JUMP JUMPDEST JUMP JUMPDEST PUSH2 0xC1A PUSH2 0x1665 JUMP JUMPDEST PUSH2 0xC22 PUSH2 0x1809 JUMP JUMPDEST JUMP JUMPDEST PUSH2 0xC2C PUSH2 0x12B7 JUMP JUMPDEST PUSH2 0xC39 DUP2 PUSH1 0x1 PUSH1 0x2 PUSH2 0x1301 JUMP JUMPDEST POP POP JUMP JUMPDEST PUSH1 0x0 DUP1 PUSH1 0x0 SWAP1 SLOAD SWAP1 PUSH2 0x100 EXP SWAP1 DIV PUSH20 0xFFFFFFFFFFFFFFFFFFFFFFFFFFFFFFFFFFFFFFFF AND SWAP1 POP SWAP1 JUMP JUMPDEST PUSH1 0xB PUSH1 0x1 SWAP1 SLOAD SWAP1 PUSH2 0x100 EXP SWAP1 DIV PUSH1 0xFF AND DUP2 JUMP JUMPDEST PUSH2 0xC81 PUSH2 0x1665 JUMP JUMPDEST PUSH1 0x1 PUSH1 0x5 PUSH1 0x0 DUP4 PUSH20 0xFFFFFFFFFFFFFFFFFFFFFFFFFFFFFFFFFFFFFFFF AND PUSH20 0xFFFFFFFFFFFFFFFFFFFFFFFFFFFFFFFFFFFFFFFF AND DUP2 MSTORE PUSH1 0x20 ADD SWAP1 DUP2 MSTORE PUSH1 0x20 ADD PUSH1 0x0 KECCAK256 PUSH1 0x0 PUSH2 0x100 EXP DUP2 SLOAD DUP2 PUSH1 0xFF MUL NOT AND SWAP1 DUP4 ISZERO ISZERO MUL OR SWAP1 SSTORE POP POP JUMP JUMPDEST PUSH1 0x9 DUP1 PUSH1 0x0 ADD SLOAD SWAP1 POP DUP2 JUMP JUMPDEST PUSH2 0xCF0 PUSH2 0x12B7 JUMP JUMPDEST PUSH2 0xCFC DUP2 PUSH1 0x1 DUP1 PUSH2 0x1301 JUMP JUMPDEST POP POP JUMP JUMPDEST PUSH2 0xD08 PUSH2 0x12B7 JUMP JUMPDEST PUSH2 0xD14 DUP3 DUP3 PUSH1 0x4 PUSH2 0x1301 JUMP JUMPDEST POP POP POP JUMP JUMPDEST PUSH1 0xB PUSH1 0x0 SWAP1 SLOAD SWAP1 PUSH2 0x100 EXP SWAP1 DIV PUSH1 0xFF AND DUP2 JUMP JUMPDEST PUSH2 0xD34 PUSH2 0x12B7 JUMP JUMPDEST PUSH2 0xD41 DUP2 PUSH1 0x1 PUSH1 0x4 PUSH2 0x1301 JUMP JUMPDEST POP POP JUMP JUMPDEST PUSH1 0x0 DUP1 PUSH2 0xD50 PUSH2 0x12B7 JUMP JUMPDEST PUSH1 0x0 DUP5 GT PUSH2 0xD93 JUMPI PUSH1 0x40 MLOAD PUSH32 0x8C379A000000000000000000000000000000000000000000000000000000000 DUP2 MSTORE PUSH1 0x4 ADD PUSH2 0xD8A SWAP1 PUSH2 0x1EAE JUMP JUMPDEST PUSH1 0x40 MLOAD DUP1 SWAP2 SUB SWAP1 REVERT JUMPDEST PUSH1 0xB PUSH1 0x0 SWAP1 SLOAD SWAP1 PUSH2 0x100 EXP SWAP1 DIV PUSH1 0xFF AND PUSH2 0xDE2 JUMPI PUSH1 0x40 MLOAD PUSH32 0x8C379A000000000000000000000000000000000000000000000000000000000 DUP2 MSTORE PUSH1 0x4 ADD PUSH2 0xDD9 SWAP1 PUSH2 0x1C26 JUMP JUMPDEST PUSH1 0x40 MLOAD DUP1 SWAP2 SUB SWAP1 REVERT JUMPDEST PUSH1 0x0 DUP1 PUSH1 0x0 DUP1 PUSH1 0x0 PUSH1 0x1 PUSH1 0x4 DUP2 GT ISZERO PUSH2 0xDFE JUMPI PUSH2 0xDFD PUSH2 0x1ECE JUMP JUMPDEST JUMPDEST DUP9 PUSH1 0x4 DUP2 GT ISZERO PUSH2 0xE11 JUMPI PUSH2 0xE10 PUSH2 0x1ECE JUMP JUMPDEST JUMPDEST SUB PUSH2 0xE7F JUMPI PUSH2 0xE20 PUSH1 0x7 PUSH2 0x164E JUMP JUMPDEST SWAP5 POP DUP9 DUP6 PUSH2 0xE2E SWAP2 SWAP1 PUSH2 0x1F3A JUMP JUMPDEST SWAP4 POP PUSH1 0x1 PUSH2 0xFFFF AND SWAP3 POP PUSH1 0xA PUSH2 0xFFFF AND SWAP2 POP PUSH1 0x50 PUSH2 0xFFFF AND SWAP1 POP DUP5 PUSH1 0x19 PUSH2 0xE55 SWAP2 SWAP1 PUSH2 0x1F3A JUMP JUMPDEST PUSH2 0xFFFF AND SWAP7 POP PUSH1 0x1 DUP5 PUSH1 0x19 PUSH2 0xE6A SWAP2 SWAP1 PUSH2 0x1F3A JUMP JUMPDEST PUSH2 0xE74 SWAP2 SWAP1 PUSH2 0x1F70 JUMP JUMPDEST PUSH2 0xFFFF AND SWAP6 POP PUSH2 0x1083 JUMP JUMPDEST PUSH1 0x2 PUSH1 0x4 DUP2 GT ISZERO PUSH2 0xE93 JUMPI PUSH2 0xE92 PUSH2 0x1ECE JUMP JUMPDEST JUMPDEST DUP9 PUSH1 0x4 DUP2 GT ISZERO PUSH2 0xEA6 JUMPI PUSH2 0xEA5 PUSH2 0x1ECE JUMP JUMPDEST JUMPDEST SUB PUSH2 0xF15 JUMPI PUSH2 0xEB5 PUSH1 0x8 PUSH2 0x164E JUMP JUMPDEST SWAP5 POP DUP9 DUP6 PUSH2 0xEC3 SWAP2 SWAP1 PUSH2 0x1F3A JUMP JUMPDEST SWAP4 POP PUSH1 0x5 PUSH2 0xFFFF AND SWAP3 POP PUSH1 0x32 PUSH2 0xFFFF AND SWAP2 POP PUSH2 0x190 PUSH2 0xFFFF AND SWAP1 POP DUP5 PUSH1 0x7E PUSH2 0xEEB SWAP2 SWAP1 PUSH2 0x1F3A JUMP JUMPDEST PUSH2 0xFFFF AND SWAP7 POP PUSH1 0x1 DUP5 PUSH1 0x7E PUSH2 0xF00 SWAP2 SWAP1 PUSH2 0x1F3A JUMP JUMPDEST PUSH2 0xF0A SWAP2 SWAP1 PUSH2 0x1F70 JUMP JUMPDEST PUSH2 0xFFFF AND SWAP6 POP PUSH2 0x1082 JUMP JUMPDEST PUSH1 0x3 PUSH1 0x4 DUP2 GT ISZERO PUSH2 0xF29 JUMPI PUSH2 0xF28 PUSH2 0x1ECE JUMP JUMPDEST JUMPDEST DUP9 PUSH1 0x4 DUP2 GT ISZERO PUSH2 0xF3C JUMPI PUSH2 0xF3B PUSH2 0x1ECE JUMP JUMPDEST JUMPDEST SUB PUSH2 0xFAD JUMPI PUSH2 0xF4B PUSH1 0x9 PUSH2 0x164E JUMP JUMPDEST SWAP5 POP DUP9 DUP6 PUSH2 0xF59 SWAP2 SWAP1 PUSH2 0x1F3A JUMP JUMPDEST SWAP4 POP PUSH1 0x19 PUSH2 0xFFFF AND SWAP3 POP PUSH1 0xFA PUSH2 0xFFFF AND SWAP2 POP PUSH2 0x7D0 PUSH2 0xFFFF AND SWAP1 POP DUP5 PUSH2 0x273 PUSH2 0xF82 SWAP2 SWAP1 PUSH2 0x1F3A JUMP JUMPDEST PUSH2 0xFFFF AND SWAP7 POP PUSH1 0x1 DUP5 PUSH2 0x273 PUSH2 0xF98 SWAP2 SWAP1 PUSH2 0x1F3A JUMP JUMPDEST PUSH2 0xFA2 SWAP2 SWAP1 PUSH2 0x1F70 JUMP JUMPDEST PUSH2 0xFFFF AND SWAP6 POP PUSH2 0x1081 JUMP JUMPDEST PUSH1 0x4 DUP1 DUP2 GT ISZERO PUSH2 0xFC0 JUMPI PUSH2 0xFBF PUSH2 0x1ECE JUMP JUMPDEST JUMPDEST DUP9 PUSH1 0x4 DUP2 GT ISZERO PUSH2 0xFD3 JUMPI PUSH2 0xFD2 PUSH2 0x1ECE JUMP JUMPDEST JUMPDEST SUB PUSH2 0x1045 JUMPI PUSH2 0xFE2 PUSH1 0xA PUSH2 0x164E JUMP JUMPDEST SWAP5 POP DUP9 DUP6 PUSH2 0xFF0 SWAP2 SWAP1 PUSH2 0x1F3A JUMP JUMPDEST SWAP4 POP PUSH1 0x7D PUSH2 0xFFFF AND SWAP3 POP PUSH2 0x4E2 PUSH2 0xFFFF AND SWAP2 POP PUSH2 0x168A PUSH2 0xFFFF AND SWAP1 POP DUP5 PUSH2 0xC38 PUSH2 0x101A SWAP2 SWAP1 PUSH2 0x1F3A JUMP JUMPDEST PUSH2 0xFFFF AND SWAP7 POP PUSH1 0x1 DUP5 PUSH2 0xC38 PUSH2 0x1030 SWAP2 SWAP1 PUSH2 0x1F3A JUMP JUMPDEST PUSH2 0x103A SWAP2 SWAP1 PUSH2 0x1F70 JUMP JUMPDEST PUSH2 0xFFFF AND SWAP6 POP PUSH2 0x1080 JUMP JUMPDEST PUSH1 0x40 MLOAD PUSH32 0x8C379A000000000000000000000000000000000000000000000000000000000 DUP2 MSTORE PUSH1 0x4 ADD PUSH2 0x1077 SWAP1 PUSH2 0x1FF2 JUMP JUMPDEST PUSH1 0x40 MLOAD DUP1 SWAP2 SUB SWAP1 REVERT JUMPDEST JUMPDEST JUMPDEST JUMPDEST PUSH1 0xB PUSH1 0x1 SWAP1 SLOAD SWAP1 PUSH2 0x100 EXP SWAP1 DIV PUSH1 0xFF AND ISZERO PUSH2 0x10E4 JUMPI DUP3 DUP5 PUSH2 0xFFFF AND GT ISZERO PUSH2 0x10DF JUMPI PUSH1 0x40 MLOAD PUSH32 0x8C379A000000000000000000000000000000000000000000000000000000000 DUP2 MSTORE PUSH1 0x4 ADD PUSH2 0x10D6 SWAP1 PUSH2 0x205E JUMP JUMPDEST PUSH1 0x40 MLOAD DUP1 SWAP2 SUB SWAP1 REVERT JUMPDEST PUSH2 0x11E3 JUMP JUMPDEST PUSH1 0xB PUSH1 0x2 SWAP1 SLOAD SWAP1 PUSH2 0x100 EXP SWAP1 DIV PUSH1 0xFF AND ISZERO PUSH2 0x1145 JUMPI DUP2 DUP5 PUSH2 0xFFFF AND GT ISZERO PUSH2 0x1140 JUMPI PUSH1 0x40 MLOAD PUSH32 0x8C379A000000000000000000000000000000000000000000000000000000000 DUP2 MSTORE PUSH1 0x4 ADD PUSH2 0x1137 SWAP1 PUSH2 0x205E JUMP JUMPDEST PUSH1 0x40 MLOAD DUP1 SWAP2 SUB SWAP1 REVERT JUMPDEST PUSH2 0x11E2 JUMP JUMPDEST PUSH1 0xB PUSH1 0x3 SWAP1 SLOAD SWAP1 PUSH2 0x100 EXP SWAP1 DIV PUSH1 0xFF AND ISZERO PUSH2 0x11A6 JUMPI DUP1 DUP5 PUSH2 0xFFFF AND GT ISZERO PUSH2 0x11A1 JUMPI PUSH1 0x40 MLOAD PUSH32 0x8C379A000000000000000000000000000000000000000000000000000000000 DUP2 MSTORE PUSH1 0x4 ADD PUSH2 0x1198 SWAP1 PUSH2 0x205E JUMP JUMPDEST PUSH1 0x40 MLOAD DUP1 SWAP2 SUB SWAP1 REVERT JUMPDEST PUSH2 0x11E1 JUMP JUMPDEST PUSH1 0x40 MLOAD PUSH32 0x8C379A000000000000000000000000000000000000000000000000000000000 DUP2 MSTORE PUSH1 0x4 ADD PUSH2 0x11D8 SWAP1 PUSH2 0x20CA JUMP JUMPDEST PUSH1 0x40 MLOAD DUP1 SWAP2 SUB SWAP1 REVERT JUMPDEST JUMPDEST JUMPDEST POP POP POP POP POP SWAP3 POP SWAP3 SWAP1 POP JUMP JUMPDEST PUSH2 0x11F7 PUSH2 0x12B7 JUMP JUMPDEST PUSH2 0x1203 DUP3 DUP3 PUSH1 0x3 PUSH2 0x1301 JUMP JUMPDEST POP POP POP JUMP JUMPDEST PUSH1 0xB PUSH1 0x2 SWAP1 SLOAD SWAP1 PUSH2 0x100 EXP SWAP1 DIV PUSH1 0xFF AND DUP2 JUMP JUMPDEST PUSH2 0x1223 PUSH2 0x1665 JUMP JUMPDEST PUSH1 0x0 PUSH20 0xFFFFFFFFFFFFFFFFFFFFFFFFFFFFFFFFFFFFFFFF AND DUP2 PUSH20 0xFFFFFFFFFFFFFFFFFFFFFFFFFFFFFFFFFFFFFFFF AND SUB PUSH2 0x1292 JUMPI PUSH1 0x40 MLOAD PUSH32 0x8C379A000000000000000000000000000000000000000000000000000000000 DUP2 MSTORE PUSH1 0x4 ADD PUSH2 0x1289 SWAP1 PUSH2 0x215C JUMP JUMPDEST PUSH1 0x40 MLOAD DUP1 SWAP2 SUB SWAP1 REVERT JUMPDEST PUSH2 0x129B DUP2 PUSH2 0x1745 JUMP JUMPDEST POP JUMP JUMPDEST PUSH2 0x12A6 PUSH2 0x12B7 JUMP JUMPDEST PUSH2 0x12B2 DUP3 DUP3 PUSH1 0x2 PUSH2 0x1301 JUMP JUMPDEST POP POP POP JUMP JUMPDEST PUSH2 0x12BF PUSH2 0xA69 JUMP JUMPDEST ISZERO PUSH2 0x12FF JUMPI PUSH1 0x40 MLOAD PUSH32 0x8C379A000000000000000000000000000000000000000000000000000000000 DUP2 MSTORE PUSH1 0x4 ADD PUSH2 0x12F6 SWAP1 PUSH2 0x21C8 JUMP JUMPDEST PUSH1 0x40 MLOAD DUP1 SWAP2 SUB SWAP1 REVERT JUMPDEST JUMP JUMPDEST PUSH1 0x0 PUSH2 0x130B PUSH2 0x12B7 JUMP JUMPDEST PUSH1 0xB PUSH1 0x0 SWAP1 SLOAD SWAP1 PUSH2 0x100 EXP SWAP1 DIV PUSH1 0xFF AND PUSH2 0x135A JUMPI PUSH1 0x40 MLOAD PUSH32 0x8C379A000000000000000000000000000000000000000000000000000000000 DUP2 MSTORE PUSH1 0x4 ADD PUSH2 0x1351 SWAP1 PUSH2 0x1C26 JUMP JUMPDEST PUSH1 0x40 MLOAD DUP1 SWAP2 SUB SWAP1 REVERT JUMPDEST PUSH1 0x0 DUP1 PUSH2 0x1367 DUP6 DUP6 PUSH2 0xD45 JUMP JUMPDEST SWAP2 POP SWAP2 POP PUSH1 0x0 DUP3 SWAP1 POP PUSH1 0x0 DUP4 SWAP1 POP JUMPDEST DUP3 DUP2 GT PUSH2 0x15DA JUMPI PUSH1 0x2 PUSH1 0x0 SWAP1 SLOAD SWAP1 PUSH2 0x100 EXP SWAP1 DIV PUSH20 0xFFFFFFFFFFFFFFFFFFFFFFFFFFFFFFFFFFFFFFFF AND PUSH20 0xFFFFFFFFFFFFFFFFFFFFFFFFFFFFFFFFFFFFFFFF AND PUSH4 0xA1448194 DUP10 DUP4 PUSH1 0x40 MLOAD DUP4 PUSH4 0xFFFFFFFF AND PUSH1 0xE0 SHL DUP2 MSTORE PUSH1 0x4 ADD PUSH2 0x13DA SWAP3 SWAP2 SWAP1 PUSH2 0x21E8 JUMP JUMPDEST PUSH1 0x0 PUSH1 0x40 MLOAD DUP1 DUP4 SUB DUP2 PUSH1 0x0 DUP8 DUP1 EXTCODESIZE ISZERO DUP1 ISZERO PUSH2 0x13F4 JUMPI PUSH1 0x0 DUP1 REVERT JUMPDEST POP GAS CALL ISZERO DUP1 ISZERO PUSH2 0x1408 JUMPI RETURNDATASIZE PUSH1 0x0 DUP1 RETURNDATACOPY RETURNDATASIZE PUSH1 0x0 REVERT JUMPDEST POP POP POP POP PUSH1 0x4 PUSH1 0x0 SWAP1 SLOAD SWAP1 PUSH2 0x100 EXP SWAP1 DIV PUSH20 0xFFFFFFFFFFFFFFFFFFFFFFFFFFFFFFFFFFFFFFFF AND PUSH20 0xFFFFFFFFFFFFFFFFFFFFFFFFFFFFFFFFFFFFFFFF AND PUSH4 0xBE1E1145 DUP10 DUP9 PUSH1 0x40 MLOAD DUP4 PUSH4 0xFFFFFFFF AND PUSH1 0xE0 SHL DUP2 MSTORE PUSH1 0x4 ADD PUSH2 0x1469 SWAP3 SWAP2 SWAP1 PUSH2 0x2259 JUMP JUMPDEST PUSH1 0x0 PUSH1 0x40 MLOAD DUP1 DUP4 SUB DUP2 PUSH1 0x0 DUP8 DUP1 EXTCODESIZE ISZERO DUP1 ISZERO PUSH2 0x1483 JUMPI PUSH1 0x0 DUP1 REVERT JUMPDEST POP GAS CALL ISZERO DUP1 ISZERO PUSH2 0x1497 JUMPI RETURNDATASIZE PUSH1 0x0 DUP1 RETURNDATACOPY RETURNDATASIZE PUSH1 0x0 REVERT JUMPDEST POP POP POP POP DUP1 SWAP2 POP PUSH1 0x1 PUSH1 0x4 DUP2 GT ISZERO PUSH2 0x14B2 JUMPI PUSH2 0x14B1 PUSH2 0x1ECE JUMP JUMPDEST JUMPDEST DUP7 PUSH1 0x4 DUP2 GT ISZERO PUSH2 0x14C5 JUMPI PUSH2 0x14C4 PUSH2 0x1ECE JUMP JUMPDEST JUMPDEST SUB PUSH2 0x14D9 JUMPI PUSH2 0x14D4 PUSH1 0x7 PUSH2 0x186C JUMP JUMPDEST PUSH2 0x15C7 JUMP JUMPDEST PUSH1 0x2 PUSH1 0x4 DUP2 GT ISZERO PUSH2 0x14ED JUMPI PUSH2 0x14EC PUSH2 0x1ECE JUMP JUMPDEST JUMPDEST DUP7 PUSH1 0x4 DUP2 GT ISZERO PUSH2 0x1500 JUMPI PUSH2 0x14FF PUSH2 0x1ECE JUMP JUMPDEST JUMPDEST SUB PUSH2 0x1514 JUMPI PUSH2 0x150F PUSH1 0x8 PUSH2 0x186C JUMP JUMPDEST PUSH2 0x15C6 JUMP JUMPDEST PUSH1 0x3 PUSH1 0x4 DUP2 GT ISZERO PUSH2 0x1528 JUMPI PUSH2 0x1527 PUSH2 0x1ECE JUMP JUMPDEST JUMPDEST DUP7 PUSH1 0x4 DUP2 GT ISZERO PUSH2 0x153B JUMPI PUSH2 0x153A PUSH2 0x1ECE JUMP JUMPDEST JUMPDEST SUB PUSH2 0x154F JUMPI PUSH2 0x154A PUSH1 0x9 PUSH2 0x186C JUMP JUMPDEST PUSH2 0x15C5 JUMP JUMPDEST PUSH1 0x4 DUP1 DUP2 GT ISZERO PUSH2 0x1562 JUMPI PUSH2 0x1561 PUSH2 0x1ECE JUMP JUMPDEST JUMPDEST DUP7 PUSH1 0x4 DUP2 GT ISZERO PUSH2 0x1575 JUMPI PUSH2 0x1574 PUSH2 0x1ECE JUMP JUMPDEST JUMPDEST SUB PUSH2 0x1589 JUMPI PUSH2 0x1584 PUSH1 0xA PUSH2 0x186C JUMP JUMPDEST PUSH2 0x15C4 JUMP JUMPDEST PUSH1 0x40 MLOAD PUSH32 0x8C379A000000000000000000000000000000000000000000000000000000000 DUP2 MSTORE PUSH1 0x4 ADD PUSH2 0x15BB SWAP1 PUSH2 0x1FF2 JUMP JUMPDEST PUSH1 0x40 MLOAD DUP1 SWAP2 SUB SWAP1 REVERT JUMPDEST JUMPDEST JUMPDEST JUMPDEST DUP1 DUP1 PUSH2 0x15D2 SWAP1 PUSH2 0x2282 JUMP JUMPDEST SWAP2 POP POP PUSH2 0x1376 JUMP JUMPDEST POP PUSH1 0x1 DUP4 DUP3 PUSH2 0x15E9 SWAP2 SWAP1 PUSH2 0x22CA JUMP JUMPDEST PUSH2 0x15F3 SWAP2 SWAP1 PUSH2 0x22FE JUMP JUMPDEST SWAP4 POP POP POP POP SWAP4 SWAP3 POP POP POP JUMP JUMPDEST PUSH1 0x2 PUSH1 0x1 SLOAD SUB PUSH2 0x1644 JUMPI PUSH1 0x40 MLOAD PUSH32 0x8C379A000000000000000000000000000000000000000000000000000000000 DUP2 MSTORE PUSH1 0x4 ADD PUSH2 0x163B SWAP1 PUSH2 0x237E JUMP JUMPDEST PUSH1 0x40 MLOAD DUP1 SWAP2 SUB SWAP1 REVERT JUMPDEST PUSH1 0x2 PUSH1 0x1 DUP2 SWAP1 SSTORE POP JUMP JUMPDEST PUSH1 0x0 DUP2 PUSH1 0x0 ADD SLOAD SWAP1 POP SWAP2 SWAP1 POP JUMP JUMPDEST PUSH1 0x1 DUP1 DUP2 SWAP1 SSTORE POP JUMP JUMPDEST PUSH2 0x166D PUSH2 0x1882 JUMP JUMPDEST PUSH20 0xFFFFFFFFFFFFFFFFFFFFFFFFFFFFFFFFFFFFFFFF AND PUSH2 0x168B PUSH2 0xC3D JUMP JUMPDEST PUSH20 0xFFFFFFFFFFFFFFFFFFFFFFFFFFFFFFFFFFFFFFFF AND EQ PUSH2 0x16E1 JUMPI PUSH1 0x40 MLOAD PUSH32 0x8C379A000000000000000000000000000000000000000000000000000000000 DUP2 MSTORE PUSH1 0x4 ADD PUSH2 0x16D8 SWAP1 PUSH2 0x23EA JUMP JUMPDEST PUSH1 0x40 MLOAD DUP1 SWAP2 SUB SWAP1 REVERT JUMPDEST JUMP JUMPDEST PUSH2 0x16EB PUSH2 0x188A JUMP JUMPDEST PUSH1 0x0 DUP1 PUSH1 0x14 PUSH2 0x100 EXP DUP2 SLOAD DUP2 PUSH1 0xFF MUL NOT AND SWAP1 DUP4 ISZERO ISZERO MUL OR SWAP1 SSTORE POP PUSH32 0x5DB9EE0A495BF2E6FF9C91A7834C1BA4FDD244A5E8AA4E537BD38AEAE4B073AA PUSH2 0x172E PUSH2 0x1882 JUMP JUMPDEST PUSH1 0x40 MLOAD PUSH2 0x173B SWAP2 SWAP1 PUSH2 0x1A48 JUMP JUMPDEST PUSH1 0x40 MLOAD DUP1 SWAP2 SUB SWAP1 LOG1 JUMP JUMPDEST PUSH1 0x0 DUP1 PUSH1 0x0 SWAP1 SLOAD SWAP1 PUSH2 0x100 EXP SWAP1 DIV PUSH20 0xFFFFFFFFFFFFFFFFFFFFFFFFFFFFFFFFFFFFFFFF AND SWAP1 POP DUP2 PUSH1 0x0 DUP1 PUSH2 0x100 EXP DUP2 SLOAD DUP2 PUSH20 0xFFFFFFFFFFFFFFFFFFFFFFFFFFFFFFFFFFFFFFFF MUL NOT AND SWAP1 DUP4 PUSH20 0xFFFFFFFFFFFFFFFFFFFFFFFFFFFFFFFFFFFFFFFF AND MUL OR SWAP1 SSTORE POP DUP2 PUSH20 0xFFFFFFFFFFFFFFFFFFFFFFFFFFFFFFFFFFFFFFFF AND DUP2 PUSH20 0xFFFFFFFFFFFFFFFFFFFFFFFFFFFFFFFFFFFFFFFF AND PUSH32 0x8BE0079C531659141344CD1FD0A4F28419497F9722A3DAAFE3B4186F6B6457E0 PUSH1 0x40 MLOAD PUSH1 0x40 MLOAD DUP1 SWAP2 SUB SWAP1 LOG3 POP POP JUMP JUMPDEST PUSH2 0x1811 PUSH2 0x12B7 JUMP JUMPDEST PUSH1 0x1 PUSH1 0x0 PUSH1 0x14 PUSH2 0x100 EXP DUP2 SLOAD DUP2 PUSH1 0xFF MUL NOT AND SWAP1 DUP4 ISZERO ISZERO MUL OR SWAP1 SSTORE POP PUSH32 0x62E78CEA01BEE320CD4E420270B5EA74000D11B0C9F74754EBDBFC544B05A258 PUSH2 0x1855 PUSH2 0x1882 JUMP JUMPDEST PUSH1 0x40 MLOAD PUSH2 0x1862 SWAP2 SWAP1 PUSH2 0x1A48 JUMP JUMPDEST PUSH1 0x40 MLOAD DUP1 SWAP2 SUB SWAP1 LOG1 JUMP JUMPDEST PUSH1 0x1 DUP2 PUSH1 0x0 ADD PUSH1 0x0 DUP3 DUP3 SLOAD ADD SWAP3 POP POP DUP2 SWAP1 SSTORE POP POP JUMP JUMPDEST PUSH1 0x0 CALLER SWAP1 POP SWAP1 JUMP JUMPDEST PUSH2 0x1892 PUSH2 0xA69 JUMP JUMPDEST PUSH2 0x18D1 JUMPI PUSH1 0x40 MLOAD PUSH32 0x8C379A000000000000000000000000000000000000000000000000000000000 DUP2 MSTORE PUSH1 0x4 ADD PUSH2 0x18C8 SWAP1 PUSH2 0x2456 JUMP JUMPDEST PUSH1 0x40 MLOAD DUP1 SWAP2 SUB SWAP1 REVERT JUMPDEST JUMP JUMPDEST PUSH1 0x0 DUP2 SWAP1 POP SWAP2 SWAP1 POP JUMP JUMPDEST PUSH2 0x18E6 DUP2 PUSH2 0x18D3 JUMP JUMPDEST DUP3 MSTORE POP POP JUMP JUMPDEST PUSH1 0x0 PUSH1 0x20 DUP3 ADD SWAP1 POP PUSH2 0x1901 PUSH1 0x0 DUP4 ADD DUP5 PUSH2 0x18DD JUMP JUMPDEST SWAP3 SWAP2 POP POP JUMP JUMPDEST PUSH1 0x0 DUP1 REVERT JUMPDEST PUSH1 0x0 PUSH20 0xFFFFFFFFFFFFFFFFFFFFFFFFFFFFFFFFFFFFFFFF DUP3 AND SWAP1 POP SWAP2 SWAP1 POP JUMP JUMPDEST PUSH1 0x0 PUSH2 0x1937 DUP3 PUSH2 0x190C JUMP JUMPDEST SWAP1 POP SWAP2 SWAP1 POP JUMP JUMPDEST PUSH2 0x1947 DUP2 PUSH2 0x192C JUMP JUMPDEST DUP2 EQ PUSH2 0x1952 JUMPI PUSH1 0x0 DUP1 REVERT JUMPDEST POP JUMP JUMPDEST PUSH1 0x0 DUP2 CALLDATALOAD SWAP1 POP PUSH2 0x1964 DUP2 PUSH2 0x193E JUMP JUMPDEST SWAP3 SWAP2 POP POP JUMP JUMPDEST PUSH2 0x1973 DUP2 PUSH2 0x18D3 JUMP JUMPDEST DUP2 EQ PUSH2 0x197E JUMPI PUSH1 0x0 DUP1 REVERT JUMPDEST POP JUMP JUMPDEST PUSH1 0x0 DUP2 CALLDATALOAD SWAP1 POP PUSH2 0x1990 DUP2 PUSH2 0x196A JUMP JUMPDEST SWAP3 SWAP2 POP POP JUMP JUMPDEST PUSH1 0x0 DUP1 PUSH1 0x40 DUP4 DUP6 SUB SLT ISZERO PUSH2 0x19AD JUMPI PUSH2 0x19AC PUSH2 0x1907 JUMP JUMPDEST JUMPDEST PUSH1 0x0 PUSH2 0x19BB DUP6 DUP3 DUP7 ADD PUSH2 0x1955 JUMP JUMPDEST SWAP3 POP POP PUSH1 0x20 PUSH2 0x19CC DUP6 DUP3 DUP7 ADD PUSH2 0x1981 JUMP JUMPDEST SWAP2 POP POP SWAP3 POP SWAP3 SWAP1 POP JUMP JUMPDEST PUSH1 0x0 PUSH1 0x20 DUP3 DUP5 SUB SLT ISZERO PUSH2 0x19EC JUMPI PUSH2 0x19EB PUSH2 0x1907 JUMP JUMPDEST JUMPDEST PUSH1 0x0 PUSH2 0x19FA DUP5 DUP3 DUP6 ADD PUSH2 0x1955 JUMP JUMPDEST SWAP2 POP POP SWAP3 SWAP2 POP POP JUMP JUMPDEST PUSH1 0x0 DUP2 ISZERO ISZERO SWAP1 POP SWAP2 SWAP1 POP JUMP JUMPDEST PUSH2 0x1A18 DUP2 PUSH2 0x1A03 JUMP JUMPDEST DUP3 MSTORE POP POP JUMP JUMPDEST PUSH1 0x0 PUSH1 0x20 DUP3 ADD SWAP1 POP PUSH2 0x1A33 PUSH1 0x0 DUP4 ADD DUP5 PUSH2 0x1A0F JUMP JUMPDEST SWAP3 SWAP2 POP POP JUMP JUMPDEST PUSH2 0x1A42 DUP2 PUSH2 0x192C JUMP JUMPDEST DUP3 MSTORE POP POP JUMP JUMPDEST PUSH1 0x0 PUSH1 0x20 DUP3 ADD SWAP1 POP PUSH2 0x1A5D PUSH1 0x0 DUP4 ADD DUP5 PUSH2 0x1A39 JUMP JUMPDEST SWAP3 SWAP2 POP POP JUMP JUMPDEST PUSH1 0x5 DUP2 LT PUSH2 0x1A70 JUMPI PUSH1 0x0 DUP1 REVERT JUMPDEST POP JUMP JUMPDEST PUSH1 0x0 DUP2 CALLDATALOAD SWAP1 POP PUSH2 0x1A82 DUP2 PUSH2 0x1A63 JUMP JUMPDEST SWAP3 SWAP2 POP POP JUMP JUMPDEST PUSH1 0x0 DUP1 PUSH1 0x40 DUP4 DUP6 SUB SLT ISZERO PUSH2 0x1A9F JUMPI PUSH2 0x1A9E PUSH2 0x1907 JUMP JUMPDEST JUMPDEST PUSH1 0x0 PUSH2 0x1AAD DUP6 DUP3 DUP7 ADD PUSH2 0x1981 JUMP JUMPDEST SWAP3 POP POP PUSH1 0x20 PUSH2 0x1ABE DUP6 DUP3 DUP7 ADD PUSH2 0x1A73 JUMP JUMPDEST SWAP2 POP POP SWAP3 POP SWAP3 SWAP1 POP JUMP JUMPDEST PUSH1 0x0 PUSH1 0x40 DUP3 ADD SWAP1 POP PUSH2 0x1ADD PUSH1 0x0 DUP4 ADD DUP6 PUSH2 0x18DD JUMP JUMPDEST PUSH2 0x1AEA PUSH1 0x20 DUP4 ADD DUP5 PUSH2 0x18DD JUMP JUMPDEST SWAP4 SWAP3 POP POP POP JUMP JUMPDEST PUSH1 0x0 DUP3 DUP3 MSTORE PUSH1 0x20 DUP3 ADD SWAP1 POP SWAP3 SWAP2 POP POP JUMP JUMPDEST PUSH32 0x4E6F204175746800000000000000000000000000000000000000000000000000 PUSH1 0x0 DUP3 ADD MSTORE POP JUMP JUMPDEST PUSH1 0x0 PUSH2 0x1B38 PUSH1 0x7 DUP4 PUSH2 0x1AF1 JUMP JUMPDEST SWAP2 POP PUSH2 0x1B43 DUP3 PUSH2 0x1B02 JUMP JUMPDEST PUSH1 0x20 DUP3 ADD SWAP1 POP SWAP2 SWAP1 POP JUMP JUMPDEST PUSH1 0x0 PUSH1 0x20 DUP3 ADD SWAP1 POP DUP2 DUP2 SUB PUSH1 0x0 DUP4 ADD MSTORE PUSH2 0x1B67 DUP2 PUSH2 0x1B2B JUMP JUMPDEST SWAP1 POP SWAP2 SWAP1 POP JUMP JUMPDEST PUSH32 0x416C726561647920756E6C6F636B656400000000000000000000000000000000 PUSH1 0x0 DUP3 ADD MSTORE POP JUMP JUMPDEST PUSH1 0x0 PUSH2 0x1BA4 PUSH1 0x10 DUP4 PUSH2 0x1AF1 JUMP JUMPDEST SWAP2 POP PUSH2 0x1BAF DUP3 PUSH2 0x1B6E JUMP JUMPDEST PUSH1 0x20 DUP3 ADD SWAP1 POP SWAP2 SWAP1 POP JUMP JUMPDEST PUSH1 0x0 PUSH1 0x20 DUP3 ADD SWAP1 POP DUP2 DUP2 SUB PUSH1 0x0 DUP4 ADD MSTORE PUSH2 0x1BD3 DUP2 PUSH2 0x1B97 JUMP JUMPDEST SWAP1 POP SWAP2 SWAP1 POP JUMP JUMPDEST PUSH32 0x4865726F73206E6F74206D696E74656400000000000000000000000000000000 PUSH1 0x0 DUP3 ADD MSTORE POP JUMP JUMPDEST PUSH1 0x0 PUSH2 0x1C10 PUSH1 0x10 DUP4 PUSH2 0x1AF1 JUMP JUMPDEST SWAP2 POP PUSH2 0x1C1B DUP3 PUSH2 0x1BDA JUMP JUMPDEST PUSH1 0x20 DUP3 ADD SWAP1 POP SWAP2 SWAP1 POP JUMP JUMPDEST PUSH1 0x0 PUSH1 0x20 DUP3 ADD SWAP1 POP DUP2 DUP2 SUB PUSH1 0x0 DUP4 ADD MSTORE PUSH2 0x1C3F DUP2 PUSH2 0x1C03 JUMP JUMPDEST SWAP1 POP SWAP2 SWAP1 POP JUMP JUMPDEST PUSH32 0x556E6D696E746564206C6567656E647300000000000000000000000000000000 PUSH1 0x0 DUP3 ADD MSTORE POP JUMP JUMPDEST PUSH1 0x0 PUSH2 0x1C7C PUSH1 0x10 DUP4 PUSH2 0x1AF1 JUMP JUMPDEST SWAP2 POP PUSH2 0x1C87 DUP3 PUSH2 0x1C46 JUMP JUMPDEST PUSH1 0x20 DUP3 ADD SWAP1 POP SWAP2 SWAP1 POP JUMP JUMPDEST PUSH1 0x0 PUSH1 0x20 DUP3 ADD SWAP1 POP DUP2 DUP2 SUB PUSH1 0x0 DUP4 ADD MSTORE PUSH2 0x1CAB DUP2 PUSH2 0x1C6F JUMP JUMPDEST SWAP1 POP SWAP2 SWAP1 POP JUMP JUMPDEST PUSH32 0x556E6D696E746564207261726573000000000000000000000000000000000000 PUSH1 0x0 DUP3 ADD MSTORE POP JUMP JUMPDEST PUSH1 0x0 PUSH2 0x1CE8 PUSH1 0xE DUP4 PUSH2 0x1AF1 JUMP JUMPDEST SWAP2 POP PUSH2 0x1CF3 DUP3 PUSH2 0x1CB2 JUMP JUMPDEST PUSH1 0x20 DUP3 ADD SWAP1 POP SWAP2 SWAP1 POP JUMP JUMPDEST PUSH1 0x0 PUSH1 0x20 DUP3 ADD SWAP1 POP DUP2 DUP2 SUB PUSH1 0x0 DUP4 ADD MSTORE PUSH2 0x1D17 DUP2 PUSH2 0x1CDB JUMP JUMPDEST SWAP1 POP SWAP2 SWAP1 POP JUMP JUMPDEST PUSH32 0x556E6D696E74656420756E636F6D6D6F6E730000000000000000000000000000 PUSH1 0x0 DUP3 ADD MSTORE POP JUMP JUMPDEST PUSH1 0x0 PUSH2 0x1D54 PUSH1 0x12 DUP4 PUSH2 0x1AF1 JUMP JUMPDEST SWAP2 POP PUSH2 0x1D5F DUP3 PUSH2 0x1D1E JUMP JUMPDEST PUSH1 0x20 DUP3 ADD SWAP1 POP SWAP2 SWAP1 POP JUMP JUMPDEST PUSH1 0x0 PUSH1 0x20 DUP3 ADD SWAP1 POP DUP2 DUP2 SUB PUSH1 0x0 DUP4 ADD MSTORE PUSH2 0x1D83 DUP2 PUSH2 0x1D47 JUMP JUMPDEST SWAP1 POP SWAP2 SWAP1 POP JUMP JUMPDEST PUSH32 0x556E6D696E74656420636F6D6D6F6E7300000000000000000000000000000000 PUSH1 0x0 DUP3 ADD MSTORE POP JUMP JUMPDEST PUSH1 0x0 PUSH2 0x1DC0 PUSH1 0x10 DUP4 PUSH2 0x1AF1 JUMP JUMPDEST SWAP2 POP PUSH2 0x1DCB DUP3 PUSH2 0x1D8A JUMP JUMPDEST PUSH1 0x20 DUP3 ADD SWAP1 POP SWAP2 SWAP1 POP JUMP JUMPDEST PUSH1 0x0 PUSH1 0x20 DUP3 ADD SWAP1 POP DUP2 DUP2 SUB PUSH1 0x0 DUP4 ADD MSTORE PUSH2 0x1DEF DUP2 PUSH2 0x1DB3 JUMP JUMPDEST SWAP1 POP SWAP2 SWAP1 POP JUMP JUMPDEST PUSH32 0x416C7265616479206D696E746564000000000000000000000000000000000000 PUSH1 0x0 DUP3 ADD MSTORE POP JUMP JUMPDEST PUSH1 0x0 PUSH2 0x1E2C PUSH1 0xE DUP4 PUSH2 0x1AF1 JUMP JUMPDEST SWAP2 POP PUSH2 0x1E37 DUP3 PUSH2 0x1DF6 JUMP JUMPDEST PUSH1 0x20 DUP3 ADD SWAP1 POP SWAP2 SWAP1 POP JUMP JUMPDEST PUSH1 0x0 PUSH1 0x20 DUP3 ADD SWAP1 POP DUP2 DUP2 SUB PUSH1 0x0 DUP4 ADD MSTORE PUSH2 0x1E5B DUP2 PUSH2 0x1E1F JUMP JUMPDEST SWAP1 POP SWAP2 SWAP1 POP JUMP JUMPDEST PUSH32 0x6E756D546F4D696E742030000000000000000000000000000000000000000000 PUSH1 0x0 DUP3 ADD MSTORE POP JUMP JUMPDEST PUSH1 0x0 PUSH2 0x1E98 PUSH1 0xB DUP4 PUSH2 0x1AF1 JUMP JUMPDEST SWAP2 POP PUSH2 0x1EA3 DUP3 PUSH2 0x1E62 JUMP JUMPDEST PUSH1 0x20 DUP3 ADD SWAP1 POP SWAP2 SWAP1 POP JUMP JUMPDEST PUSH1 0x0 PUSH1 0x20 DUP3 ADD SWAP1 POP DUP2 DUP2 SUB PUSH1 0x0 DUP4 ADD MSTORE PUSH2 0x1EC7 DUP2 PUSH2 0x1E8B JUMP JUMPDEST SWAP1 POP SWAP2 SWAP1 POP JUMP JUMPDEST PUSH32 0x4E487B7100000000000000000000000000000000000000000000000000000000 PUSH1 0x0 MSTORE PUSH1 0x21 PUSH1 0x4 MSTORE PUSH1 0x24 PUSH1 0x0 REVERT JUMPDEST PUSH1 0x0 PUSH2 0xFFFF DUP3 AND SWAP1 POP SWAP2 SWAP1 POP JUMP JUMPDEST PUSH32 0x4E487B7100000000000000000000000000000000000000000000000000000000 PUSH1 0x0 MSTORE PUSH1 0x11 PUSH1 0x4 MSTORE PUSH1 0x24 PUSH1 0x0 REVERT JUMPDEST PUSH1 0x0 PUSH2 0x1F45 DUP3 PUSH2 0x1EFD JUMP JUMPDEST SWAP2 POP PUSH2 0x1F50 DUP4 PUSH2 0x1EFD JUMP JUMPDEST SWAP3 POP DUP3 DUP3 ADD SWAP1 POP PUSH2 0xFFFF DUP2 GT ISZERO PUSH2 0x1F6A JUMPI PUSH2 0x1F69 PUSH2 0x1F0B JUMP JUMPDEST JUMPDEST SWAP3 SWAP2 POP POP JUMP JUMPDEST PUSH1 0x0 PUSH2 0x1F7B DUP3 PUSH2 0x1EFD JUMP JUMPDEST SWAP2 POP PUSH2 0x1F86 DUP4 PUSH2 0x1EFD JUMP JUMPDEST SWAP3 POP DUP3 DUP3 SUB SWAP1 POP PUSH2 0xFFFF DUP2 GT ISZERO PUSH2 0x1FA0 JUMPI PUSH2 0x1F9F PUSH2 0x1F0B JUMP JUMPDEST JUMPDEST SWAP3 SWAP2 POP POP JUMP JUMPDEST PUSH32 0x496E76616C696420636C61737300000000000000000000000000000000000000 PUSH1 0x0 DUP3 ADD MSTORE POP JUMP JUMPDEST PUSH1 0x0 PUSH2 0x1FDC PUSH1 0xD DUP4 PUSH2 0x1AF1 JUMP JUMPDEST SWAP2 POP PUSH2 0x1FE7 DUP3 PUSH2 0x1FA6 JUMP JUMPDEST PUSH1 0x20 DUP3 ADD SWAP1 POP SWAP2 SWAP1 POP JUMP JUMPDEST PUSH1 0x0 PUSH1 0x20 DUP3 ADD SWAP1 POP DUP2 DUP2 SUB PUSH1 0x0 DUP4 ADD MSTORE PUSH2 0x200B DUP2 PUSH2 0x1FCF JUMP JUMPDEST SWAP1 POP SWAP2 SWAP1 POP JUMP JUMPDEST PUSH32 0x737570706C7920696E73756666696369656E7400000000000000000000000000 PUSH1 0x0 DUP3 ADD MSTORE POP JUMP JUMPDEST PUSH1 0x0 PUSH2 0x2048 PUSH1 0x13 DUP4 PUSH2 0x1AF1 JUMP JUMPDEST SWAP2 POP PUSH2 0x2053 DUP3 PUSH2 0x2012 JUMP JUMPDEST PUSH1 0x20 DUP3 ADD SWAP1 POP SWAP2 SWAP1 POP JUMP JUMPDEST PUSH1 0x0 PUSH1 0x20 DUP3 ADD SWAP1 POP DUP2 DUP2 SUB PUSH1 0x0 DUP4 ADD MSTORE PUSH2 0x2077 DUP2 PUSH2 0x203B JUMP JUMPDEST SWAP1 POP SWAP2 SWAP1 POP JUMP JUMPDEST PUSH32 0x6E6F207075626C696320726F756E6420756E6C6F636B65640000000000000000 PUSH1 0x0 DUP3 ADD MSTORE POP JUMP JUMPDEST PUSH1 0x0 PUSH2 0x20B4 PUSH1 0x18 DUP4 PUSH2 0x1AF1 JUMP JUMPDEST SWAP2 POP PUSH2 0x20BF DUP3 PUSH2 0x207E JUMP JUMPDEST PUSH1 0x20 DUP3 ADD SWAP1 POP SWAP2 SWAP1 POP JUMP JUMPDEST PUSH1 0x0 PUSH1 0x20 DUP3 ADD SWAP1 POP DUP2 DUP2 SUB PUSH1 0x0 DUP4 ADD MSTORE PUSH2 0x20E3 DUP2 PUSH2 0x20A7 JUMP JUMPDEST SWAP1 POP SWAP2 SWAP1 POP JUMP JUMPDEST PUSH32 0x4F776E61626C653A206E6577206F776E657220697320746865207A65726F2061 PUSH1 0x0 DUP3 ADD MSTORE PUSH32 0x6464726573730000000000000000000000000000000000000000000000000000 PUSH1 0x20 DUP3 ADD MSTORE POP JUMP JUMPDEST PUSH1 0x0 PUSH2 0x2146 PUSH1 0x26 DUP4 PUSH2 0x1AF1 JUMP JUMPDEST SWAP2 POP PUSH2 0x2151 DUP3 PUSH2 0x20EA JUMP JUMPDEST PUSH1 0x40 DUP3 ADD SWAP1 POP SWAP2 SWAP1 POP JUMP JUMPDEST PUSH1 0x0 PUSH1 0x20 DUP3 ADD SWAP1 POP DUP2 DUP2 SUB PUSH1 0x0 DUP4 ADD MSTORE PUSH2 0x2175 DUP2 PUSH2 0x2139 JUMP JUMPDEST SWAP1 POP SWAP2 SWAP1 POP JUMP JUMPDEST PUSH32 0x5061757361626C653A2070617573656400000000000000000000000000000000 PUSH1 0x0 DUP3 ADD MSTORE POP JUMP JUMPDEST PUSH1 0x0 PUSH2 0x21B2 PUSH1 0x10 DUP4 PUSH2 0x1AF1 JUMP JUMPDEST SWAP2 POP PUSH2 0x21BD DUP3 PUSH2 0x217C JUMP JUMPDEST PUSH1 0x20 DUP3 ADD SWAP1 POP SWAP2 SWAP1 POP JUMP JUMPDEST PUSH1 0x0 PUSH1 0x20 DUP3 ADD SWAP1 POP DUP2 DUP2 SUB PUSH1 0x0 DUP4 ADD MSTORE PUSH2 0x21E1 DUP2 PUSH2 0x21A5 JUMP JUMPDEST SWAP1 POP SWAP2 SWAP1 POP JUMP JUMPDEST PUSH1 0x0 PUSH1 0x40 DUP3 ADD SWAP1 POP PUSH2 0x21FD PUSH1 0x0 DUP4 ADD DUP6 PUSH2 0x1A39 JUMP JUMPDEST PUSH2 0x220A PUSH1 0x20 DUP4 ADD DUP5 PUSH2 0x18DD JUMP JUMPDEST SWAP4 SWAP3 POP POP POP JUMP JUMPDEST PUSH1 0x5 DUP2 LT PUSH2 0x2222 JUMPI PUSH2 0x2221 PUSH2 0x1ECE JUMP JUMPDEST JUMPDEST POP JUMP JUMPDEST PUSH1 0x0 DUP2 SWAP1 POP PUSH2 0x2233 DUP3 PUSH2 0x2211 JUMP JUMPDEST SWAP2 SWAP1 POP JUMP JUMPDEST PUSH1 0x0 PUSH2 0x2243 DUP3 PUSH2 0x2225 JUMP JUMPDEST SWAP1 POP SWAP2 SWAP1 POP JUMP JUMPDEST PUSH2 0x2253 DUP2 PUSH2 0x2238 JUMP JUMPDEST DUP3 MSTORE POP POP JUMP JUMPDEST PUSH1 0x0 PUSH1 0x40 DUP3 ADD SWAP1 POP PUSH2 0x226E PUSH1 0x0 DUP4 ADD DUP6 PUSH2 0x1A39 JUMP JUMPDEST PUSH2 0x227B PUSH1 0x20 DUP4 ADD DUP5 PUSH2 0x224A JUMP JUMPDEST SWAP4 SWAP3 POP POP POP JUMP JUMPDEST PUSH1 0x0 PUSH2 0x228D DUP3 PUSH2 0x18D3 JUMP JUMPDEST SWAP2 POP PUSH32 0xFFFFFFFFFFFFFFFFFFFFFFFFFFFFFFFFFFFFFFFFFFFFFFFFFFFFFFFFFFFFFFFF DUP3 SUB PUSH2 0x22BF JUMPI PUSH2 0x22BE PUSH2 0x1F0B JUMP JUMPDEST JUMPDEST PUSH1 0x1 DUP3 ADD SWAP1 POP SWAP2 SWAP1 POP JUMP JUMPDEST PUSH1 0x0 PUSH2 0x22D5 DUP3 PUSH2 0x18D3 JUMP JUMPDEST SWAP2 POP PUSH2 0x22E0 DUP4 PUSH2 0x18D3 JUMP JUMPDEST SWAP3 POP DUP3 DUP3 SUB SWAP1 POP DUP2 DUP2 GT ISZERO PUSH2 0x22F8 JUMPI PUSH2 0x22F7 PUSH2 0x1F0B JUMP JUMPDEST JUMPDEST SWAP3 SWAP2 POP POP JUMP JUMPDEST PUSH1 0x0 PUSH2 0x2309 DUP3 PUSH2 0x18D3 JUMP JUMPDEST SWAP2 POP PUSH2 0x2314 DUP4 PUSH2 0x18D3 JUMP JUMPDEST SWAP3 POP DUP3 DUP3 ADD SWAP1 POP DUP1 DUP3 GT ISZERO PUSH2 0x232C JUMPI PUSH2 0x232B PUSH2 0x1F0B JUMP JUMPDEST JUMPDEST SWAP3 SWAP2 POP POP JUMP JUMPDEST PUSH32 0x5265656E7472616E637947756172643A207265656E7472616E742063616C6C00 PUSH1 0x0 DUP3 ADD MSTORE POP JUMP JUMPDEST PUSH1 0x0 PUSH2 0x2368 PUSH1 0x1F DUP4 PUSH2 0x1AF1 JUMP JUMPDEST SWAP2 POP PUSH2 0x2373 DUP3 PUSH2 0x2332 JUMP JUMPDEST PUSH1 0x20 DUP3 ADD SWAP1 POP SWAP2 SWAP1 POP JUMP JUMPDEST PUSH1 0x0 PUSH1 0x20 DUP3 ADD SWAP1 POP DUP2 DUP2 SUB PUSH1 0x0 DUP4 ADD MSTORE PUSH2 0x2397 DUP2 PUSH2 0x235B JUMP JUMPDEST SWAP1 POP SWAP2 SWAP1 POP JUMP JUMPDEST PUSH32 0x4F776E61626C653A2063616C6C6572206973206E6F7420746865206F776E6572 PUSH1 0x0 DUP3 ADD MSTORE POP JUMP JUMPDEST PUSH1 0x0 PUSH2 0x23D4 PUSH1 0x20 DUP4 PUSH2 0x1AF1 JUMP JUMPDEST SWAP2 POP PUSH2 0x23DF DUP3 PUSH2 0x239E JUMP JUMPDEST PUSH1 0x20 DUP3 ADD SWAP1 POP SWAP2 SWAP1 POP JUMP JUMPDEST PUSH1 0x0 PUSH1 0x20 DUP3 ADD SWAP1 POP DUP2 DUP2 SUB PUSH1 0x0 DUP4 ADD MSTORE PUSH2 0x2403 DUP2 PUSH2 0x23C7 JUMP JUMPDEST SWAP1 POP SWAP2 SWAP1 POP JUMP JUMPDEST PUSH32 0x5061757361626C653A206E6F7420706175736564000000000000000000000000 PUSH1 0x0 DUP3 ADD MSTORE POP JUMP JUMPDEST PUSH1 0x0 PUSH2 0x2440 PUSH1 0x14 DUP4 PUSH2 0x1AF1 JUMP JUMPDEST SWAP2 POP PUSH2 0x244B DUP3 PUSH2 0x240A JUMP JUMPDEST PUSH1 0x20 DUP3 ADD SWAP1 POP SWAP2 SWAP1 POP JUMP JUMPDEST PUSH1 0x0 PUSH1 0x20 DUP3 ADD SWAP1 POP DUP2 DUP2 SUB PUSH1 0x0 DUP4 ADD MSTORE PUSH2 0x246F DUP2 PUSH2 0x2433 JUMP JUMPDEST SWAP1 POP SWAP2 SWAP1 POP JUMP INVALID LOG2 PUSH5 0x6970667358 0x22 SLT KECCAK256 DUP8 0x29 PUSH24 0x37BC07377CDEA28D7B69CA2139CB1FB07248AE0A21C49765 DUP14 0xC4 0xE5 PUSH21 0x1864736F6C63430008130033000000000000000000 "
		},
		"gasEstimates": {
			"creation": {
				"codeDepositCost": "1877600",
				"executionCost": "infinite",
				"totalCost": "infinite"
			},
			"external": {
				"_areHerosMinted()": "2516",
				"_commonNFTsMinted()": "2488",
				"_heroNFTsMinted()": "2490",
				"_is1stPublicRoundUnlocked()": "2611",
				"_is2ndPublicRoundUnlocked()": "2587",
				"_is3rdPublicRoundUnlocked()": "2611",
				"_legendNFTsMinted()": "2512",
				"_rareNFTsMinted()": "2533",
				"_uncommonNFTsMinted()": "2510",
				"addAuthorizedContract(address)": "27121",
				"getMintIndexRange(uint256,uint8)": "infinite",
				"mintCommon(address)": "infinite",
				"mintCommons(address,uint256)": "infinite",
				"mintHeros(address)": "infinite",
				"mintLegend(address)": "infinite",
				"mintLegends(address,uint256)": "infinite",
				"mintRare(address)": "infinite",
				"mintRares(address,uint256)": "infinite",
				"mintUncommon(address)": "infinite",
				"mintUncommons(address,uint256)": "infinite",
				"owner()": "2590",
				"pause()": "infinite",
				"paused()": "2597",
				"renounceOwnership()": "30465",
				"transferOwnership(address)": "30832",
				"unlock1stPublicRound()": "62715",
				"unlock2ndPublicRound()": "infinite",
				"unpause()": "infinite"
			},
			"internal": {
				"_mintNFTs(address,uint256,enum NFT_CLASS)": "infinite"
			}
		},
		"methodIdentifiers": {
			"_areHerosMinted()": "c8d4fc60",
			"_commonNFTsMinted()": "6f785cdf",
			"_heroNFTsMinted()": "087bd107",
			"_is1stPublicRoundUnlocked()": "953a6ca8",
			"_is2ndPublicRoundUnlocked()": "f2c5d797",
			"_is3rdPublicRoundUnlocked()": "5eee43f0",
			"_legendNFTsMinted()": "1592fb2a",
			"_rareNFTsMinted()": "3a149127",
			"_uncommonNFTsMinted()": "9f158a78",
			"addAuthorizedContract(address)": "98eaa4a7",
			"getMintIndexRange(uint256,uint8)": "d87b320b",
			"mintCommon(address)": "d47e107e",
			"mintCommons(address,uint256)": "bad688c6",
			"mintHeros(address)": "329cc83f",
			"mintLegend(address)": "a8372307",
			"mintLegends(address,uint256)": "20a0c034",
			"mintRare(address)": "8d36f8f4",
			"mintRares(address,uint256)": "f78f680a",
			"mintUncommon(address)": "508f0628",
			"mintUncommons(address,uint256)": "f17a6777",
			"owner()": "8da5cb5b",
			"pause()": "8456cb59",
			"paused()": "5c975abb",
			"renounceOwnership()": "715018a6",
			"transferOwnership(address)": "f2fde38b",
			"unlock1stPublicRound()": "7e7f57f2",
			"unlock2ndPublicRound()": "28d3bd1b",
			"unpause()": "3f4ba83a"
		}
	},
	"abi": [
		{
			"inputs": [
				{
					"internalType": "address",
					"name": "doaCollectionAddress",
					"type": "address"
				},
				{
					"internalType": "address",
					"name": "treasuryAddress",
					"type": "address"
				},
				{
					"internalType": "address",
					"name": "memberRegistryAddress",
					"type": "address"
				}
			],
			"stateMutability": "nonpayable",
			"type": "constructor"
		},
		{
			"anonymous": false,
			"inputs": [
				{
					"indexed": true,
					"internalType": "address",
					"name": "previousOwner",
					"type": "address"
				},
				{
					"indexed": true,
					"internalType": "address",
					"name": "newOwner",
					"type": "address"
				}
			],
			"name": "OwnershipTransferred",
			"type": "event"
		},
		{
			"anonymous": false,
			"inputs": [
				{
					"indexed": false,
					"internalType": "address",
					"name": "account",
					"type": "address"
				}
			],
			"name": "Paused",
			"type": "event"
		},
		{
			"anonymous": false,
			"inputs": [
				{
					"indexed": false,
					"internalType": "address",
					"name": "account",
					"type": "address"
				}
			],
			"name": "Unpaused",
			"type": "event"
		},
		{
			"inputs": [],
			"name": "_areHerosMinted",
			"outputs": [
				{
					"internalType": "bool",
					"name": "",
					"type": "bool"
				}
			],
			"stateMutability": "view",
			"type": "function"
		},
		{
			"inputs": [],
			"name": "_commonNFTsMinted",
			"outputs": [
				{
					"internalType": "uint256",
					"name": "_value",
					"type": "uint256"
				}
			],
			"stateMutability": "view",
			"type": "function"
		},
		{
			"inputs": [],
			"name": "_heroNFTsMinted",
			"outputs": [
				{
					"internalType": "uint256",
					"name": "_value",
					"type": "uint256"
				}
			],
			"stateMutability": "view",
			"type": "function"
		},
		{
			"inputs": [],
			"name": "_is1stPublicRoundUnlocked",
			"outputs": [
				{
					"internalType": "bool",
					"name": "",
					"type": "bool"
				}
			],
			"stateMutability": "view",
			"type": "function"
		},
		{
			"inputs": [],
			"name": "_is2ndPublicRoundUnlocked",
			"outputs": [
				{
					"internalType": "bool",
					"name": "",
					"type": "bool"
				}
			],
			"stateMutability": "view",
			"type": "function"
		},
		{
			"inputs": [],
			"name": "_is3rdPublicRoundUnlocked",
			"outputs": [
				{
					"internalType": "bool",
					"name": "",
					"type": "bool"
				}
			],
			"stateMutability": "view",
			"type": "function"
		},
		{
			"inputs": [],
			"name": "_legendNFTsMinted",
			"outputs": [
				{
					"internalType": "uint256",
					"name": "_value",
					"type": "uint256"
				}
			],
			"stateMutability": "view",
			"type": "function"
		},
		{
			"inputs": [],
			"name": "_rareNFTsMinted",
			"outputs": [
				{
					"internalType": "uint256",
					"name": "_value",
					"type": "uint256"
				}
			],
			"stateMutability": "view",
			"type": "function"
		},
		{
			"inputs": [],
			"name": "_uncommonNFTsMinted",
			"outputs": [
				{
					"internalType": "uint256",
					"name": "_value",
					"type": "uint256"
				}
			],
			"stateMutability": "view",
			"type": "function"
		},
		{
			"inputs": [
				{
					"internalType": "address",
					"name": "contractAddress",
					"type": "address"
				}
			],
			"name": "addAuthorizedContract",
			"outputs": [],
			"stateMutability": "nonpayable",
			"type": "function"
		},
		{
			"inputs": [
				{
					"internalType": "uint256",
					"name": "numToMint",
					"type": "uint256"
				},
				{
					"internalType": "enum NFT_CLASS",
					"name": "classToMint",
					"type": "uint8"
				}
			],
			"name": "getMintIndexRange",
			"outputs": [
				{
					"internalType": "uint256",
					"name": "mintStartIndex",
					"type": "uint256"
				},
				{
					"internalType": "uint256",
					"name": "mintEndIndex",
					"type": "uint256"
				}
			],
			"stateMutability": "view",
			"type": "function"
		},
		{
			"inputs": [
				{
					"internalType": "address",
					"name": "toAddr",
					"type": "address"
				}
			],
			"name": "mintCommon",
			"outputs": [],
			"stateMutability": "payable",
			"type": "function"
		},
		{
			"inputs": [
				{
					"internalType": "address",
					"name": "toAddr",
					"type": "address"
				},
				{
					"internalType": "uint256",
					"name": "numToMint",
					"type": "uint256"
				}
			],
			"name": "mintCommons",
			"outputs": [],
			"stateMutability": "payable",
			"type": "function"
		},
		{
			"inputs": [
				{
					"internalType": "address",
					"name": "toAddr",
					"type": "address"
				}
			],
			"name": "mintHeros",
			"outputs": [],
			"stateMutability": "nonpayable",
			"type": "function"
		},
		{
			"inputs": [
				{
					"internalType": "address",
					"name": "toAddr",
					"type": "address"
				}
			],
			"name": "mintLegend",
			"outputs": [],
			"stateMutability": "payable",
			"type": "function"
		},
		{
			"inputs": [
				{
					"internalType": "address",
					"name": "toAddr",
					"type": "address"
				},
				{
					"internalType": "uint256",
					"name": "numToMint",
					"type": "uint256"
				}
			],
			"name": "mintLegends",
			"outputs": [],
			"stateMutability": "payable",
			"type": "function"
		},
		{
			"inputs": [
				{
					"internalType": "address",
					"name": "toAddr",
					"type": "address"
				}
			],
			"name": "mintRare",
			"outputs": [],
			"stateMutability": "payable",
			"type": "function"
		},
		{
			"inputs": [
				{
					"internalType": "address",
					"name": "toAddr",
					"type": "address"
				},
				{
					"internalType": "uint256",
					"name": "numToMint",
					"type": "uint256"
				}
			],
			"name": "mintRares",
			"outputs": [],
			"stateMutability": "payable",
			"type": "function"
		},
		{
			"inputs": [
				{
					"internalType": "address",
					"name": "toAddr",
					"type": "address"
				}
			],
			"name": "mintUncommon",
			"outputs": [],
			"stateMutability": "payable",
			"type": "function"
		},
		{
			"inputs": [
				{
					"internalType": "address",
					"name": "toAddr",
					"type": "address"
				},
				{
					"internalType": "uint256",
					"name": "numToMint",
					"type": "uint256"
				}
			],
			"name": "mintUncommons",
			"outputs": [],
			"stateMutability": "payable",
			"type": "function"
		},
		{
			"inputs": [],
			"name": "owner",
			"outputs": [
				{
					"internalType": "address",
					"name": "",
					"type": "address"
				}
			],
			"stateMutability": "view",
			"type": "function"
		},
		{
			"inputs": [],
			"name": "pause",
			"outputs": [],
			"stateMutability": "nonpayable",
			"type": "function"
		},
		{
			"inputs": [],
			"name": "paused",
			"outputs": [
				{
					"internalType": "bool",
					"name": "",
					"type": "bool"
				}
			],
			"stateMutability": "view",
			"type": "function"
		},
		{
			"inputs": [],
			"name": "renounceOwnership",
			"outputs": [],
			"stateMutability": "nonpayable",
			"type": "function"
		},
		{
			"inputs": [
				{
					"internalType": "address",
					"name": "newOwner",
					"type": "address"
				}
			],
			"name": "transferOwnership",
			"outputs": [],
			"stateMutability": "nonpayable",
			"type": "function"
		},
		{
			"inputs": [],
			"name": "unlock1stPublicRound",
			"outputs": [],
			"stateMutability": "nonpayable",
			"type": "function"
		},
		{
			"inputs": [],
			"name": "unlock2ndPublicRound",
			"outputs": [],
			"stateMutability": "nonpayable",
			"type": "function"
		},
		{
			"inputs": [],
			"name": "unpause",
			"outputs": [],
			"stateMutability": "nonpayable",
			"type": "function"
		}
	]
}